Component: ARM Compiler 5.05 update 1 (build 106) Tool: armlink [4d0efa]

==============================================================================

Section Cross References

    main.o(i.adc_config) refers to gd32f30x_adc.o(i.adc_special_function_config) for adc_special_function_config
    main.o(i.adc_config) refers to gd32f30x_adc.o(i.adc_external_trigger_source_config) for adc_external_trigger_source_config
    main.o(i.adc_config) refers to gd32f30x_adc.o(i.adc_data_alignment_config) for adc_data_alignment_config
    main.o(i.adc_config) refers to gd32f30x_adc.o(i.adc_mode_config) for adc_mode_config
    main.o(i.adc_config) refers to gd32f30x_adc.o(i.adc_channel_length_config) for adc_channel_length_config
    main.o(i.adc_config) refers to gd32f30x_adc.o(i.adc_inserted_channel_config) for adc_inserted_channel_config
    main.o(i.adc_config) refers to gd32f30x_adc.o(i.adc_external_trigger_config) for adc_external_trigger_config
    main.o(i.adc_config) refers to gd32f30x_adc.o(i.adc_tempsensor_vrefint_enable) for adc_tempsensor_vrefint_enable
    main.o(i.adc_config) refers to gd32f30x_adc.o(i.adc_enable) for adc_enable
    main.o(i.adc_config) refers to systick.o(i.delay_1ms) for delay_1ms
    main.o(i.adc_config) refers to gd32f30x_adc.o(i.adc_calibration_enable) for adc_calibration_enable
    main.o(i.fputc) refers to gd32f30x_usart.o(i.usart_data_transmit) for usart_data_transmit
    main.o(i.fputc) refers to gd32f30x_usart.o(i.usart_flag_get) for usart_flag_get
    main.o(i.main) refers to main.o(i.rcu_config) for rcu_config
    main.o(i.main) refers to systick.o(i.systick_config) for systick_config
    main.o(i.main) refers to main.o(i.adc_config) for adc_config
    main.o(i.main) refers to gd32f303e_eval.o(i.gd_eval_com_init) for gd_eval_com_init
    main.o(i.main) refers to gd32f30x_adc.o(i.adc_software_trigger_enable) for adc_software_trigger_enable
==============================================================================

Removing Unused input sections from the image.

    Removing main.o(.rev16_text), (4 bytes).
    Removing main.o(.revsh_text), (4 bytes).
    Removing gd32f30x_it.o(.rev16_text), (4 bytes).
    Removing gd32f30x_it.o(.revsh_text), (4 bytes).
    Removing systick.o(.rev16_text), (4 bytes).
    Removing systick.o(.revsh_text), (4 bytes).
    Removing system_gd32f30x.o(.rev16_text), (4 bytes).
    Removing system_gd32f30x.o(.revsh_text), (4 bytes).
    Removing system_gd32f30x.o(i.SystemCoreClockUpdate), (184 bytes).
    Removing gd32f30x_adc.o(.rev16_text), (4 bytes).
    Removing gd32f30x_adc.o(.revsh_text), (4 bytes).
    Removing gd32f30x_adc.o(i.adc_deinit), (88 bytes).
    Removing gd32f30x_adc.o(i.adc_disable), (10 bytes).
    Removing gd32f30x_adc.o(i.adc_discontinuous_mode_config), (76 bytes).
    Removing gd32f30x_adc.o(i.adc_dma_mode_disable), (10 bytes).
    Removing gd32f30x_adc.o(i.adc_dma_mode_enable), (10 bytes).
    Removing gd32f30x_adc.o(i.adc_flag_clear), (8 bytes).
    Removing gd32f30x_adc.o(i.adc_flag_get), (14 bytes).
==============================================================================

Image Symbol Table

    Local Symbols

    Symbol Name                              Value     Ov Type        Size  Object(Section)

    ../clib/microlib/division.c              0x00000000   Number         0  uidiv.o ABSOLUTE
    ../clib/microlib/division.c              0x00000000   Number         0  uldiv.o ABSOLUTE
    ../clib/microlib/init/entry.s            0x00000000   Number         0  entry7a.o ABSOLUTE
    ../clib/microlib/init/entry.s            0x00000000   Number         0  entry9a.o ABSOLUTE
    ../clib/microlib/init/entry.s            0x00000000   Number         0  entry8b.o ABSOLUTE
    ../clib/microlib/init/entry.s            0x00000000   Number         0  entry8a.o ABSOLUTE
    ../clib/microlib/init/entry.s            0x00000000   Number         0  entry11b.o ABSOLUTE
    ../clib/microlib/init/entry.s            0x00000000   Number         0  entry7b.o ABSOLUTE
    ../clib/microlib/init/entry.s            0x00000000   Number         0  entry9b.o ABSOLUTE
    ../clib/microlib/init/entry.s            0x00000000   Number         0  entry5.o ABSOLUTE
    ../clib/microlib/init/entry.s            0x00000000   Number         0  entry10a.o ABSOLUTE
    ../clib/microlib/init/entry.s            0x00000000   Number         0  entry2.o ABSOLUTE
    ../clib/microlib/init/entry.s            0x00000000   Number         0  entry10b.o ABSOLUTE
    ../clib/microlib/init/entry.s            0x00000000   Number         0  entry11a.o ABSOLUTE
    ../clib/microlib/init/entry.s            0x00000000   Number         0  entry.o ABSOLUTE
    ../clib/microlib/longlong.c              0x00000000   Number         0  llshl.o ABSOLUTE
    ../clib/microlib/longlong.c              0x00000000   Number         0  llushr.o ABSOLUTE
    ../clib/microlib/longlong.c              0x00000000   Number         0  llsshr.o ABSOLUTE
    ../clib/microlib/printf/printf.c         0x00000000   Number         0  printfb.o ABSOLUTE
    ../clib/microlib/printf/printf.c         0x00000000   Number         0  printf6.o ABSOLUTE
    ../clib/microlib/printf/printf.c         0x00000000   Number         0  printf8.o ABSOLUTE
    ../clib/microlib/printf/printf.c         0x00000000   Number         0  printf7.o ABSOLUTE
    ../clib/microlib/printf/printf.c         0x00000000   Number         0  printfa.o ABSOLUTE
    ../clib/microlib/printf/printf.c         0x00000000   Number         0  printf5.o ABSOLUTE
    ../clib/microlib/printf/printf.c         0x00000000   Number         0  printf0.o ABSOLUTE
    ../clib/microlib/printf/printf.c         0x00000000   Number         0  printf4.o ABSOLUTE
    ../clib/microlib/printf/printf.c         0x00000000   Number         0  printf3.o ABSOLUTE
    ../clib/microlib/printf/printf.c         0x00000000   Number         0  printf2.o ABSOLUTE
    ../clib/microlib/printf/printf.c         0x00000000   Number         0  printf1.o ABSOLUTE
    ../clib/microlib/printf/stubs.s          0x00000000   Number         0  stubs.o ABSOLUTE
    ../clib/microlib/stdio/streams.c         0x00000000   Number         0  stdout.o ABSOLUTE
    ../clib/microlib/stubs.s                 0x00000000   Number         0  iusefp.o ABSOLUTE
    ../fplib/microlib/d2f.c                  0x00000000   Number         0  d2f.o ABSOLUTE
    ../fplib/microlib/f2d.c                  0x00000000   Number         0  f2d.o ABSOLUTE
    ../fplib/microlib/fpadd.c                0x00000000   Number         0  dadd.o ABSOLUTE
    ../fplib/microlib/fpdiv.c                0x00000000   Number         0  ddiv.o ABSOLUTE
    ../fplib/microlib/fpepilogue.c           0x00000000   Number         0  fepilogue.o ABSOLUTE
    ../fplib/microlib/fpepilogue.c           0x00000000   Number         0  depilogue.o ABSOLUTE
    ../fplib/microlib/fpfix.c                0x00000000   Number         0  dfixul.o ABSOLUTE
    ../fplib/microlib/fpflt.c                0x00000000   Number         0  dfltui.o ABSOLUTE
    ../fplib/microlib/fpmul.c                0x00000000   Number         0  dmul.o ABSOLUTE
    ..\..\..\Library\Firmware\CMSIS\GD\GD32F30x\Source\ARM\startup_gd32f30x_hd.s 0x00000000   Number         0  startup_gd32f30x_hd.o ABSOLUTE
    ..\..\..\Library\Firmware\CMSIS\GD\GD32F30x\Source\system_gd32f30x.c 0x00000000   Number         0  system_gd32f30x.o ABSOLUTE
    ..\..\..\Library\Firmware\GD32F30x_standard_peripheral\Source\gd32f30x_adc.c 0x00000000   Number         0  gd32f30x_adc.o ABSOLUTE
    ..\..\..\Library\Firmware\GD32F30x_standard_peripheral\Source\gd32f30x_bkp.c 0x00000000   Number         0  gd32f30x_bkp.o ABSOLUTE
    ..\..\..\Library\Firmware\GD32F30x_standard_peripheral\Source\gd32f30x_can.c 0x00000000   Number         0  gd32f30x_can.o ABSOLUTE
    ..\..\..\Library\Firmware\GD32F30x_standard_peripheral\Source\gd32f30x_crc.c 0x00000000   Number         0  gd32f30x_crc.o ABSOLUTE
    ..\..\..\Library\Firmware\GD32F30x_standard_peripheral\Source\gd32f30x_ctc.c 0x00000000   Number         0  gd32f30x_ctc.o ABSOLUTE
    ..\..\..\Library\Firmware\GD32F30x_standard_peripheral\Source\gd32f30x_dac.c 0x00000000   Number         0  gd32f30x_dac.o ABSOLUTE
    ..\..\..\Library\Firmware\GD32F30x_standard_peripheral\Source\gd32f30x_dbg.c 0x00000000   Number         0  gd32f30x_dbg.o ABSOLUTE
    ..\..\..\Library\Firmware\GD32F30x_standard_peripheral\Source\gd32f30x_dma.c 0x00000000   Number         0  gd32f30x_dma.o ABSOLUTE
    ..\..\..\Library\Firmware\GD32F30x_standard_peripheral\Source\gd32f30x_enet.c 0x00000000   Number         0  gd32f30x_enet.o ABSOLUTE
    ..\..\..\Library\Firmware\GD32F30x_standard_peripheral\Source\gd32f30x_exmc.c 0x00000000   Number         0  gd32f30x_exmc.o ABSOLUTE
    ..\..\..\Library\Firmware\GD32F30x_standard_peripheral\Source\gd32f30x_exti.c 0x00000000   Number         0  gd32f30x_exti.o ABSOLUTE
    ..\..\..\Library\Firmware\GD32F30x_standard_peripheral\Source\gd32f30x_fmc.c 0x00000000   Number         0  gd32f30x_fmc.o ABSOLUTE
    ..\..\..\Library\Firmware\GD32F30x_standard_peripheral\Source\gd32f30x_fwdgt.c 0x00000000   Number         0  gd32f30x_fwdgt.o ABSOLUTE
    ..\..\..\Library\Firmware\GD32F30x_standard_peripheral\Source\gd32f30x_gpio.c 0x00000000   Number         0  gd32f30x_gpio.o ABSOLUTE
    ..\..\..\Library\Firmware\GD32F30x_standard_peripheral\Source\gd32f30x_i2c.c 0x00000000   Number         0  gd32f30x_i2c.o ABSOLUTE
    ..\..\..\Library\Firmware\GD32F30x_standard_peripheral\Source\gd32f30x_misc.c 0x00000000   Number         0  gd32f30x_misc.o ABSOLUTE
    ..\..\..\Library\Firmware\GD32F30x_standard_peripheral\Source\gd32f30x_pmu.c 0x00000000   Number         0  gd32f30x_pmu.o ABSOLUTE
    ..\..\..\Library\Firmware\GD32F30x_standard_peripheral\Source\gd32f30x_rcu.c 0x00000000   Number         0  gd32f30x_rcu.o ABSOLUTE
    ..\..\..\Library\Firmware\GD32F30x_standard_peripheral\Source\gd32f30x_rtc.c 0x00000000   Number         0  gd32f30x_rtc.o ABSOLUTE
    ..\..\..\Library\Firmware\GD32F30x_standard_peripheral\Source\gd32f30x_sdio.c 0x00000000   Number         0  gd32f30x_sdio.o ABSOLUTE
    ..\..\..\Library\Firmware\GD32F30x_standard_peripheral\Source\gd32f30x_spi.c 0x00000000   Number         0  gd32f30x_spi.o ABSOLUTE
    ..\..\..\Library\Firmware\GD32F30x_standard_peripheral\Source\gd32f30x_timer.c 0x00000000   Number         0  gd32f30x_timer.o ABSOLUTE
    ..\..\..\Library\Firmware\GD32F30x_standard_peripheral\Source\gd32f30x_usart.c 0x00000000   Number         0  gd32f30x_usart.o ABSOLUTE
    ..\..\..\Library\Firmware\GD32F30x_standard_peripheral\Source\gd32f30x_wwdgt.c 0x00000000   Number         0  gd32f30x_wwdgt.o ABSOLUTE
    ..\..\..\Library\Utilities\gd32f303e_eval.c 0x00000000   Number         0  gd32f303e_eval.o ABSOLUTE
    ..\\..\\..\\Library\\Firmware\\CMSIS\\GD\\GD32F30x\\Source\\system_gd32f30x.c 0x00000000   Number         0  system_gd32f30x.o ABSOLUTE
    ..\\..\\..\\Library\\Firmware\\GD32F30x_standard_peripheral\\Source\\gd32f30x_adc.c 0x00000000   Number         0  gd32f30x_adc.o ABSOLUTE
    ..\\..\\..\\Library\\Firmware\\GD32F30x_standard_peripheral\\Source\\gd32f30x_bkp.c 0x00000000   Number         0  gd32f30x_bkp.o ABSOLUTE
    ..\\..\\..\\Library\\Firmware\\GD32F30x_standard_peripheral\\Source\\gd32f30x_can.c 0x00000000   Number         0  gd32f30x_can.o ABSOLUTE
    ..\\..\\..\\Library\\Firmware\\GD32F30x_standard_peripheral\\Source\\gd32f30x_crc.c 0x00000000   Number         0  gd32f30x_crc.o ABSOLUTE
    ..\\..\\..\\Library\\Firmware\\GD32F30x_standard_peripheral\\Source\\gd32f30x_ctc.c 0x00000000   Number         0  gd32f30x_ctc.o ABSOLUTE
    ..\\..\\..\\Library\\Firmware\\GD32F30x_standard_peripheral\\Source\\gd32f30x_dac.c 0x00000000   Number         0  gd32f30x_dac.o ABSOLUTE
    ..\\..\\..\\Library\\Firmware\\GD32F30x_standard_peripheral\\Source\\gd32f30x_dbg.c 0x00000000   Number         0  gd32f30x_dbg.o ABSOLUTE
    ..\\..\\..\\Library\\Firmware\\GD32F30x_standard_peripheral\\Source\\gd32f30x_dma.c 0x00000000   Number         0  gd32f30x_dma.o ABSOLUTE
    ..\\..\\..\\Library\\Firmware\\GD32F30x_standard_peripheral\\Source\\gd32f30x_enet.c 0x00000000   Number         0  gd32f30x_enet.o ABSOLUTE
    ..\\..\\..\\Library\\Firmware\\GD32F30x_standard_peripheral\\Source\\gd32f30x_exmc.c 0x00000000   Number         0  gd32f30x_exmc.o ABSOLUTE
    ..\\..\\..\\Library\\Firmware\\GD32F30x_standard_peripheral\\Source\\gd32f30x_exti.c 0x00000000   Number         0  gd32f30x_exti.o ABSOLUTE
    ..\\..\\..\\Library\\Firmware\\GD32F30x_standard_peripheral\\Source\\gd32f30x_fmc.c 0x00000000   Number         0  gd32f30x_fmc.o ABSOLUTE
    ..\\..\\..\\Library\\Firmware\\GD32F30x_standard_peripheral\\Source\\gd32f30x_fwdgt.c 0x00000000   Number         0  gd32f30x_fwdgt.o ABSOLUTE
    ..\\..\\..\\Library\\Firmware\\GD32F30x_standard_peripheral\\Source\\gd32f30x_gpio.c 0x00000000   Number         0  gd32f30x_gpio.o ABSOLUTE
    ..\\..\\..\\Library\\Firmware\\GD32F30x_standard_peripheral\\Source\\gd32f30x_i2c.c 0x00000000   Number         0  gd32f30x_i2c.o ABSOLUTE
    ..\\..\\..\\Library\\Firmware\\GD32F30x_standard_peripheral\\Source\\gd32f30x_misc.c 0x00000000   Number         0  gd32f30x_misc.o ABSOLUTE
    ..\\..\\..\\Library\\Firmware\\GD32F30x_standard_peripheral\\Source\\gd32f30x_pmu.c 0x00000000   Number         0  gd32f30x_pmu.o ABSOLUTE
    ..\\..\\..\\Library\\Firmware\\GD32F30x_standard_peripheral\\Source\\gd32f30x_rcu.c 0x00000000   Number         0  gd32f30x_rcu.o ABSOLUTE
    ..\\..\\..\\Library\\Firmware\\GD32F30x_standard_peripheral\\Source\\gd32f30x_rtc.c 0x00000000   Number         0  gd32f30x_rtc.o ABSOLUTE
    ..\\..\\..\\Library\\Firmware\\GD32F30x_standard_peripheral\\Source\\gd32f30x_sdio.c 0x00000000   Number         0  gd32f30x_sdio.o ABSOLUTE
    ..\\..\\..\\Library\\Firmware\\GD32F30x_standard_peripheral\\Source\\gd32f30x_spi.c 0x00000000   Number         0  gd32f30x_spi.o ABSOLUTE
    ..\\..\\..\\Library\\Firmware\\GD32F30x_standard_peripheral\\Source\\gd32f30x_timer.c 0x00000000   Number         0  gd32f30x_timer.o ABSOLUTE
    ..\\..\\..\\Library\\Firmware\\GD32F30x_standard_peripheral\\Source\\gd32f30x_usart.c 0x00000000   Number         0  gd32f30x_usart.o ABSOLUTE
    ..\\..\\..\\Library\\Firmware\\GD32F30x_standard_peripheral\\Source\\gd32f30x_wwdgt.c 0x00000000   Number         0  gd32f30x_wwdgt.o ABSOLUTE
    ..\\..\\..\\Library\\Utilities\\gd32f303e_eval.c 0x00000000   Number         0  gd32f303e_eval.o ABSOLUTE
    ..\\gd32f30x_it.c                        0x00000000   Number         0  gd32f30x_it.o ABSOLUTE
    ..\\main.c                               0x00000000   Number         0  main.o ABSOLUTE
    ..\\systick.c                            0x00000000   Number         0  systick.o ABSOLUTE
    ..\gd32f30x_it.c                         0x00000000   Number         0  gd32f30x_it.o ABSOLUTE
    ..\main.c                                0x00000000   Number         0  main.o ABSOLUTE
    ..\systick.c                             0x00000000   Number         0  systick.o ABSOLUTE
    cdrcmple.s                               0x00000000   Number         0  cdrcmple.o ABSOLUTE
    dc.s                                     0x00000000   Number         0  dc.o ABSOLUTE
    handlers.s                               0x00000000   Number         0  handlers.o ABSOLUTE
    init.s                                   0x00000000   Number         0  init.o ABSOLUTE
    RESET                                    0x08000000   Section      304  startup_gd32f30x_hd.o(RESET)
    .ARM.Collect$$$$00000000                 0x08000130   Section        0  entry.o(.ARM.Collect$$$$00000000)
    .ARM.Collect$$$$00000001                 0x08000130   Section        4  entry2.o(.ARM.Collect$$$$00000001)
    .ARM.Collect$$$$00000004                 0x08000134   Section        4  entry5.o(.ARM.Collect$$$$00000004)
    .ARM.Collect$$$$00000008                 0x08000138   Section        0  entry7b.o(.ARM.Collect$$$$00000008)
    .ARM.Collect$$$$0000000A                 0x08000138   Section        0  entry8b.o(.ARM.Collect$$$$0000000A)
    .ARM.Collect$$$$0000000B                 0x08000138   Section        8  entry9a.o(.ARM.Collect$$$$0000000B)
    .ARM.Collect$$$$0000000D                 0x08000140   Section        0  entry10a.o(.ARM.Collect$$$$0000000D)
    .ARM.Collect$$$$0000000F                 0x08000140   Section        0  entry11a.o(.ARM.Collect$$$$0000000F)
    .ARM.Collect$$$$00002712                 0x08000140   Section        4  entry2.o(.ARM.Collect$$$$00002712)
    __lit__00000000                          0x08000140   Data           4  entry2.o(.ARM.Collect$$$$00002712)
    .text                                    0x08000144   Section       36  startup_gd32f30x_hd.o(.text)
    $v0                                      0x08000144   Number         0  startup_gd32f30x_hd.o(.text)
    .text                                    0x08000168   Section        0  dadd.o(.text)
    .text                                    0x080002b6   Section        0  dmul.o(.text)
    .text                                    0x0800039a   Section        0  ddiv.o(.text)
    .text                                    0x08000478   Section        0  dfltui.o(.text)
    .text                                    0x08000492   Section        0  f2d.o(.text)
    .text                                    0x080004b8   Section        0  d2f.o(.text)
    .text                                    0x080004f0   Section        0  uidiv.o(.text)
    .text                                    0x0800051c   Section        0  uldiv.o(.text)
    .text                                    0x0800057e   Section        0  llshl.o(.text)
    .text                                    0x0800059c   Section        0  llsshr.o(.text)
    .text                                    0x080005c0   Section        0  fepilogue.o(.text)
    .text                                    0x080005c0   Section        0  iusefp.o(.text)
    .text                                    0x0800062e   Section        0  depilogue.o(.text)
    .text                                    0x080006e8   Section        0  dfixul.o(.text)
    .text                                    0x08000718   Section       48  cdrcmple.o(.text)
    .text                                    0x08000748   Section       36  init.o(.text)
    .text                                    0x0800076c   Section        0  llushr.o(.text)
    i.BusFault_Handler                       0x0800078c   Section        0  gd32f30x_it.o(i.BusFault_Handler)
    i.DebugMon_Handler                       0x08000790   Section        0  gd32f30x_it.o(i.DebugMon_Handler)
    i.HardFault_Handler                      0x08000792   Section        0  gd32f30x_it.o(i.HardFault_Handler)
    i.MemManage_Handler                      0x08000796   Section        0  gd32f30x_it.o(i.MemManage_Handler)
    i.NMI_Handler                            0x0800079a   Section        0  gd32f30x_it.o(i.NMI_Handler)
    i.NVIC_SetPriority                       0x0800079c   Section        0  systick.o(i.NVIC_SetPriority)
    NVIC_SetPriority                         0x0800079d   Thumb Code    32  systick.o(i.NVIC_SetPriority)
    i.PendSV_Handler                         0x080007c4   Section        0  gd32f30x_it.o(i.PendSV_Handler)
    i.SVC_Handler                            0x080007c6   Section        0  gd32f30x_it.o(i.SVC_Handler)
    i.SysTick_Handler                        0x080007c8   Section        0  gd32f30x_it.o(i.SysTick_Handler)
    i.SystemInit                             0x080007d0   Section        0  system_gd32f30x.o(i.SystemInit)
    i.UsageFault_Handler                     0x08000820   Section        0  gd32f30x_it.o(i.UsageFault_Handler)
    i.__0printf                              0x08000824   Section        0  printfa.o(i.__0printf)
    i.__scatterload_copy                     0x08000844   Section       14  handlers.o(i.__scatterload_copy)
    i.__scatterload_null                     0x08000852   Section        2  handlers.o(i.__scatterload_null)
    i.__scatterload_zeroinit                 0x08000854   Section       14  handlers.o(i.__scatterload_zeroinit)
    i._fp_digits                             0x08000864   Section        0  printfa.o(i._fp_digits)
    _fp_digits                               0x08000865   Thumb Code   334  printfa.o(i._fp_digits)
    i._printf_core                           0x080009c8   Section        0  printfa.o(i._printf_core)
    _printf_core                             0x080009c9   Thumb Code  1744  printfa.o(i._printf_core)
    i._printf_post_padding                   0x080010a4   Section        0  printfa.o(i._printf_post_padding)
    _printf_post_padding                     0x080010a5   Thumb Code    36  printfa.o(i._printf_post_padding)
    i._printf_pre_padding                    0x080010c8   Section        0  printfa.o(i._printf_pre_padding)
    _printf_pre_padding                      0x080010c9   Thumb Code    46  printfa.o(i._printf_pre_padding)
    i.adc_calibration_enable                 0x080010f6   Section        0  gd32f30x_adc.o(i.adc_calibration_enable)
    i.adc_channel_length_config              0x08001120   Section        0  gd32f30x_adc.o(i.adc_channel_length_config)
    i.adc_config                             0x08001168   Section        0  main.o(i.adc_config)
    i.adc_data_alignment_config              0x080011d8   Section        0  gd32f30x_adc.o(i.adc_data_alignment_config)
    i.adc_enable                             0x080011ee   Section        0  gd32f30x_adc.o(i.adc_enable)
    i.adc_external_trigger_config            0x08001200   Section        0  gd32f30x_adc.o(i.adc_external_trigger_config)
    i.adc_external_trigger_source_config     0x0800123e   Section        0  gd32f30x_adc.o(i.adc_external_trigger_source_config)
    i.adc_inserted_channel_config            0x0800126e   Section        0  gd32f30x_adc.o(i.adc_inserted_channel_config)
    i.adc_mode_config                        0x080012e8   Section        0  gd32f30x_adc.o(i.adc_mode_config)
    i.adc_software_trigger_enable            0x08001304   Section        0  gd32f30x_adc.o(i.adc_software_trigger_enable)
    i.adc_special_function_config            0x08001322   Section        0  gd32f30x_adc.o(i.adc_special_function_config)
    i.adc_tempsensor_vrefint_enable          0x0800137c   Section        0  gd32f30x_adc.o(i.adc_tempsensor_vrefint_enable)
    i.delay_1ms                              0x08001390   Section        0  systick.o(i.delay_1ms)
    i.delay_decrement                        0x080013a4   Section        0  systick.o(i.delay_decrement)
    i.fputc                                  0x080013bc   Section        0  main.o(i.fputc)
    i.gd_eval_com_init                       0x080013e0   Section        0  gd32f303e_eval.o(i.gd_eval_com_init)
    i.gpio_init                              0x08001478   Section        0  gd32f30x_gpio.o(i.gpio_init)
    i.main                                   0x0800151c   Section        0  main.o(i.main)
    i.rcu_adc_clock_config                   0x080016c8   Section        0  gd32f30x_rcu.o(i.rcu_adc_clock_config)
    i.rcu_clock_freq_get                     0x08001734   Section        0  gd32f30x_rcu.o(i.rcu_clock_freq_get)
    i.rcu_config                             0x0800188c   Section        0  main.o(i.rcu_config)
    i.rcu_periph_clock_enable                0x080018a0   Section        0  gd32f30x_rcu.o(i.rcu_periph_clock_enable)
    i.rcu_periph_reset_disable               0x080018c0   Section        0  gd32f30x_rcu.o(i.rcu_periph_reset_disable)
    i.rcu_periph_reset_enable                0x080018e0   Section        0  gd32f30x_rcu.o(i.rcu_periph_reset_enable)
    i.system_clock_120m_hxtal                0x08001900   Section        0  system_gd32f30x.o(i.system_clock_120m_hxtal)
    system_clock_120m_hxtal                  0x08001901   Thumb Code   256  system_gd32f30x.o(i.system_clock_120m_hxtal)
    i.system_clock_config                    0x08001a10   Section        0  system_gd32f30x.o(i.system_clock_config)
    system_clock_config                      0x08001a11   Thumb Code     8  system_gd32f30x.o(i.system_clock_config)
    i.systick_config                         0x08001a18   Section        0  systick.o(i.systick_config)
    i.usart_baudrate_set                     0x08001a68   Section        0  gd32f30x_usart.o(i.usart_baudrate_set)
    i.usart_data_transmit                    0x08001afc   Section        0  gd32f30x_usart.o(i.usart_data_transmit)
    i.usart_deinit                           0x08001b04   Section        0  gd32f30x_usart.o(i.usart_deinit)
    i.usart_enable                           0x08001b94   Section        0  gd32f30x_usart.o(i.usart_enable)
    i.usart_flag_get                         0x08001b9e   Section        0  gd32f30x_usart.o(i.usart_flag_get)
    i.usart_receive_config                   0x08001bbc   Section        0  gd32f30x_usart.o(i.usart_receive_config)
    i.usart_transmit_config                  0x08001bcc   Section        0  gd32f30x_usart.o(i.usart_transmit_config)
    .data                                    0x20000000   Section        8  main.o(.data)
    .data                                    0x20000008   Section        4  systick.o(.data)
    delay                                    0x20000008   Data           4  systick.o(.data)
    .data                                    0x2000000c   Section        4  system_gd32f30x.o(.data)
    .data                                    0x20000010   Section      140  gd32f303e_eval.o(.data)
    GPIO_PORT                                0x20000010   Data          16  gd32f303e_eval.o(.data)
    GPIO_PIN                                 0x20000020   Data          16  gd32f303e_eval.o(.data)
    COM_CLK                                  0x20000030   Data           4  gd32f303e_eval.o(.data)
    COM_TX_PIN                               0x20000034   Data           8  gd32f303e_eval.o(.data)
    COM_RX_PIN                               0x2000003c   Data           8  gd32f303e_eval.o(.data)
    COM_GPIO_PORT                            0x20000044   Data           8  gd32f303e_eval.o(.data)
    COM_GPIO_CLK                             0x2000004c   Data           4  gd32f303e_eval.o(.data)
    GPIO_CLK                                 0x20000050   Data           8  gd32f303e_eval.o(.data)
    KEY_PORT                                 0x20000058   Data          16  gd32f303e_eval.o(.data)
    KEY_PIN                                  0x20000068   Data          16  gd32f303e_eval.o(.data)
    KEY_CLK                                  0x20000078   Data           8  gd32f303e_eval.o(.data)
    KEY_EXTI_LINE                            0x20000080   Data          16  gd32f303e_eval.o(.data)
    KEY_PORT_SOURCE                          0x20000090   Data           4  gd32f303e_eval.o(.data)
    KEY_PIN_SOURCE                           0x20000094   Data           4  gd32f303e_eval.o(.data)
    KEY_IRQn                                 0x20000098   Data           4  gd32f303e_eval.o(.data)
    .data                                    0x2000009c   Section        4  stdout.o(.data)
    STACK                                    0x200000a0   Section     1024  startup_gd32f30x_hd.o(STACK)

    Global Symbols

    Symbol Name                              Value     Ov Type        Size  Object(Section)

    BuildAttributes$$THM_ISAv4$E$P$D$K$B$S$7EM$VFPi3$EXTD16$VFPS$VFMA$PE$A:L22UL41UL21$X:L11$S22US41US21$IEEE1$IW$USESV6$~STKCKD$USESV7$~SHL$OTIME$ROPI$EBA8$MICROLIB$REQ8$PRES8$EABIv2 0x00000000   Number         0  anon$$obj.o ABSOLUTE
    __ARM_use_no_argv                        0x00000000   Number         0  main.o ABSOLUTE
    _printf_a                                0x00000000   Number         0  stubs.o ABSOLUTE
    _printf_c                                0x00000000   Number         0  stubs.o ABSOLUTE
    _printf_charcount                        0x00000000   Number         0  stubs.o ABSOLUTE
    _printf_d                                0x00000000   Number         0  stubs.o ABSOLUTE
    _printf_e                                0x00000000   Number         0  stubs.o ABSOLUTE
    _printf_f                                0x00000000   Number         0  stubs.o ABSOLUTE
    _printf_flags                            0x00000000   Number         0  stubs.o ABSOLUTE
    _printf_fp_dec                           0x00000000   Number         0  stubs.o ABSOLUTE
    _printf_fp_hex                           0x00000000   Number         0  stubs.o ABSOLUTE
    _printf_g                                0x00000000   Number         0  stubs.o ABSOLUTE
    _printf_i                                0x00000000   Number         0  stubs.o ABSOLUTE
    _printf_int_dec                          0x00000000   Number         0  stubs.o ABSOLUTE
    _printf_l                                0x00000000   Number         0  stubs.o ABSOLUTE
    _printf_lc                               0x00000000   Number         0  stubs.o ABSOLUTE
    _printf_ll                               0x00000000   Number         0  stubs.o ABSOLUTE
    _printf_lld                              0x00000000   Number         0  stubs.o ABSOLUTE
    _printf_lli                              0x00000000   Number         0  stubs.o ABSOLUTE
    _printf_llo                              0x00000000   Number         0  stubs.o ABSOLUTE
    _printf_llu                              0x00000000   Number         0  stubs.o ABSOLUTE
    _printf_llx                              0x00000000   Number         0  stubs.o ABSOLUTE
    _printf_longlong_dec                     0x00000000   Number         0  stubs.o ABSOLUTE
    _printf_longlong_hex                     0x00000000   Number         0  stubs.o ABSOLUTE
    _printf_longlong_oct                     0x00000000   Number         0  stubs.o ABSOLUTE
    _printf_ls                               0x00000000   Number         0  stubs.o ABSOLUTE
    _printf_mbtowc                           0x00000000   Number         0  stubs.o ABSOLUTE
    _printf_n                                0x00000000   Number         0  stubs.o ABSOLUTE
    _printf_o                                0x00000000   Number         0  stubs.o ABSOLUTE
    _printf_p                                0x00000000   Number         0  stubs.o ABSOLUTE
    _printf_percent                          0x00000000   Number         0  stubs.o ABSOLUTE
    _printf_pre_padding                      0x00000000   Number         0  stubs.o ABSOLUTE
    _printf_return_value                     0x00000000   Number         0  stubs.o ABSOLUTE
    _printf_s                                0x00000000   Number         0  stubs.o ABSOLUTE
    _printf_sizespec                         0x00000000   Number         0  stubs.o ABSOLUTE
    _printf_str                              0x00000000   Number         0  stubs.o ABSOLUTE
    _printf_truncate_signed                  0x00000000   Number         0  stubs.o ABSOLUTE
    _printf_truncate_unsigned                0x00000000   Number         0  stubs.o ABSOLUTE
    _printf_u                                0x00000000   Number         0  stubs.o ABSOLUTE
    _printf_wc                               0x00000000   Number         0  stubs.o ABSOLUTE
    _printf_wctomb                           0x00000000   Number         0  stubs.o ABSOLUTE
    _printf_widthprec                        0x00000000   Number         0  stubs.o ABSOLUTE
    _printf_x                                0x00000000   Number         0  stubs.o ABSOLUTE
    __cpp_initialize__aeabi_                  - Undefined Weak Reference
    __cxa_finalize                            - Undefined Weak Reference
    __decompress                              - Undefined Weak Reference
    _clock_init                               - Undefined Weak Reference
    _microlib_exit                            - Undefined Weak Reference
    __Vectors_Size                           0x00000130   Number         0  startup_gd32f30x_hd.o ABSOLUTE
    __Vectors                                0x08000000   Data           4  startup_gd32f30x_hd.o(RESET)
    __Vectors_End                            0x08000130   Data           0  startup_gd32f30x_hd.o(RESET)
    __main                                   0x08000131   Thumb Code     0  entry.o(.ARM.Collect$$$$00000000)
    _main_stk                                0x08000131   Thumb Code     0  entry2.o(.ARM.Collect$$$$00000001)
    _main_scatterload                        0x08000135   Thumb Code     0  entry5.o(.ARM.Collect$$$$00000004)
    __main_after_scatterload                 0x08000139   Thumb Code     0  entry5.o(.ARM.Collect$$$$00000004)
    _main_clock                              0x08000139   Thumb Code     0  entry7b.o(.ARM.Collect$$$$00000008)
    _main_cpp_init                           0x08000139   Thumb Code     0  entry8b.o(.ARM.Collect$$$$0000000A)
    _main_init                               0x08000139   Thumb Code     0  entry9a.o(.ARM.Collect$$$$0000000B)
    __rt_final_cpp                           0x08000141   Thumb Code     0  entry10a.o(.ARM.Collect$$$$0000000D)
    __rt_final_exit                          0x08000141   Thumb Code     0  entry11a.o(.ARM.Collect$$$$0000000F)
    Reset_Handler                            0x08000145   Thumb Code     8  startup_gd32f30x_hd.o(.text)
    ADC0_1_IRQHandler                        0x0800015f   Thumb Code     0  startup_gd32f30x_hd.o(.text)
    ADC2_IRQHandler                          0x0800015f   Thumb Code     0  startup_gd32f30x_hd.o(.text)
    CAN0_EWMC_IRQHandler                     0x0800015f   Thumb Code     0  startup_gd32f30x_hd.o(.text)
    CAN0_RX1_IRQHandler                      0x0800015f   Thumb Code     0  startup_gd32f30x_hd.o(.text)
    DMA0_Channel0_IRQHandler                 0x0800015f   Thumb Code     0  startup_gd32f30x_hd.o(.text)
    DMA0_Channel1_IRQHandler                 0x0800015f   Thumb Code     0  startup_gd32f30x_hd.o(.text)
    DMA0_Channel2_IRQHandler                 0x0800015f   Thumb Code     0  startup_gd32f30x_hd.o(.text)
    DMA0_Channel3_IRQHandler                 0x0800015f   Thumb Code     0  startup_gd32f30x_hd.o(.text)
    DMA0_Channel4_IRQHandler                 0x0800015f   Thumb Code     0  startup_gd32f30x_hd.o(.text)
    DMA0_Channel5_IRQHandler                 0x0800015f   Thumb Code     0  startup_gd32f30x_hd.o(.text)
    DMA0_Channel6_IRQHandler                 0x0800015f   Thumb Code     0  startup_gd32f30x_hd.o(.text)
    DMA1_Channel0_IRQHandler                 0x0800015f   Thumb Code     0  startup_gd32f30x_hd.o(.text)
    DMA1_Channel1_IRQHandler                 0x0800015f   Thumb Code     0  startup_gd32f30x_hd.o(.text)
    DMA1_Channel2_IRQHandler                 0x0800015f   Thumb Code     0  startup_gd32f30x_hd.o(.text)
    DMA1_Channel3_4_IRQHandler               0x0800015f   Thumb Code     0  startup_gd32f30x_hd.o(.text)
    EXMC_IRQHandler                          0x0800015f   Thumb Code     0  startup_gd32f30x_hd.o(.text)
    EXTI0_IRQHandler                         0x0800015f   Thumb Code     0  startup_gd32f30x_hd.o(.text)
    EXTI10_15_IRQHandler                     0x0800015f   Thumb Code     0  startup_gd32f30x_hd.o(.text)
    EXTI1_IRQHandler                         0x0800015f   Thumb Code     0  startup_gd32f30x_hd.o(.text)
    EXTI2_IRQHandler                         0x0800015f   Thumb Code     0  startup_gd32f30x_hd.o(.text)
    EXTI3_IRQHandler                         0x0800015f   Thumb Code     0  startup_gd32f30x_hd.o(.text)
    EXTI4_IRQHandler                         0x0800015f   Thumb Code     0  startup_gd32f30x_hd.o(.text)
    EXTI5_9_IRQHandler                       0x0800015f   Thumb Code     0  startup_gd32f30x_hd.o(.text)
    FMC_IRQHandler                           0x0800015f   Thumb Code     0  startup_gd32f30x_hd.o(.text)
    I2C0_ER_IRQHandler                       0x0800015f   Thumb Code     0  startup_gd32f30x_hd.o(.text)
    I2C0_EV_IRQHandler                       0x0800015f   Thumb Code     0  startup_gd32f30x_hd.o(.text)
    I2C1_ER_IRQHandler                       0x0800015f   Thumb Code     0  startup_gd32f30x_hd.o(.text)
    I2C1_EV_IRQHandler                       0x0800015f   Thumb Code     0  startup_gd32f30x_hd.o(.text)
    LVD_IRQHandler                           0x0800015f   Thumb Code     0  startup_gd32f30x_hd.o(.text)
    RCU_CTC_IRQHandler                       0x0800015f   Thumb Code     0  startup_gd32f30x_hd.o(.text)
    RTC_Alarm_IRQHandler                     0x0800015f   Thumb Code     0  startup_gd32f30x_hd.o(.text)
    RTC_IRQHandler                           0x0800015f   Thumb Code     0  startup_gd32f30x_hd.o(.text)
    SDIO_IRQHandler                          0x0800015f   Thumb Code     0  startup_gd32f30x_hd.o(.text)
    SPI0_IRQHandler                          0x0800015f   Thumb Code     0  startup_gd32f30x_hd.o(.text)
    SPI1_IRQHandler                          0x0800015f   Thumb Code     0  startup_gd32f30x_hd.o(.text)
    SPI2_IRQHandler                          0x0800015f   Thumb Code     0  startup_gd32f30x_hd.o(.text)
    TAMPER_IRQHandler                        0x0800015f   Thumb Code     0  startup_gd32f30x_hd.o(.text)
    TIMER0_BRK_IRQHandler                    0x0800015f   Thumb Code     0  startup_gd32f30x_hd.o(.text)
    TIMER0_Channel_IRQHandler                0x0800015f   Thumb Code     0  startup_gd32f30x_hd.o(.text)
    TIMER0_TRG_CMT_IRQHandler                0x0800015f   Thumb Code     0  startup_gd32f30x_hd.o(.text)
    TIMER0_UP_IRQHandler                     0x0800015f   Thumb Code     0  startup_gd32f30x_hd.o(.text)
    TIMER1_IRQHandler                        0x0800015f   Thumb Code     0  startup_gd32f30x_hd.o(.text)
    TIMER2_IRQHandler                        0x0800015f   Thumb Code     0  startup_gd32f30x_hd.o(.text)
    TIMER3_IRQHandler                        0x0800015f   Thumb Code     0  startup_gd32f30x_hd.o(.text)
    TIMER4_IRQHandler                        0x0800015f   Thumb Code     0  startup_gd32f30x_hd.o(.text)
    TIMER5_IRQHandler                        0x0800015f   Thumb Code     0  startup_gd32f30x_hd.o(.text)
    TIMER6_IRQHandler                        0x0800015f   Thumb Code     0  startup_gd32f30x_hd.o(.text)
    TIMER7_BRK_IRQHandler                    0x0800015f   Thumb Code     0  startup_gd32f30x_hd.o(.text)
    TIMER7_Channel_IRQHandler                0x0800015f   Thumb Code     0  startup_gd32f30x_hd.o(.text)
    TIMER7_TRG_CMT_IRQHandler                0x0800015f   Thumb Code     0  startup_gd32f30x_hd.o(.text)
    TIMER7_UP_IRQHandler                     0x0800015f   Thumb Code     0  startup_gd32f30x_hd.o(.text)
    UART3_IRQHandler                         0x0800015f   Thumb Code     0  startup_gd32f30x_hd.o(.text)
    UART4_IRQHandler                         0x0800015f   Thumb Code     0  startup_gd32f30x_hd.o(.text)
    USART0_IRQHandler                        0x0800015f   Thumb Code     0  startup_gd32f30x_hd.o(.text)
    USART1_IRQHandler                        0x0800015f   Thumb Code     0  startup_gd32f30x_hd.o(.text)
    USART2_IRQHandler                        0x0800015f   Thumb Code     0  startup_gd32f30x_hd.o(.text)
    USBD_HP_CAN0_TX_IRQHandler               0x0800015f   Thumb Code     0  startup_gd32f30x_hd.o(.text)
    USBD_LP_CAN0_RX0_IRQHandler              0x0800015f   Thumb Code     0  startup_gd32f30x_hd.o(.text)
    USBD_WKUP_IRQHandler                     0x0800015f   Thumb Code     0  startup_gd32f30x_hd.o(.text)
    WWDGT_IRQHandler                         0x0800015f   Thumb Code     0  startup_gd32f30x_hd.o(.text)
    __aeabi_dadd                             0x08000169   Thumb Code   322  dadd.o(.text)
    __aeabi_dsub                             0x080002ab   Thumb Code     6  dadd.o(.text)
    __aeabi_drsub                            0x080002b1   Thumb Code     6  dadd.o(.text)
    __aeabi_dmul                             0x080002b7   Thumb Code   228  dmul.o(.text)
    __aeabi_ddiv                             0x0800039b   Thumb Code   222  ddiv.o(.text)
    __aeabi_ui2d                             0x08000479   Thumb Code    26  dfltui.o(.text)
    __aeabi_f2d                              0x08000493   Thumb Code    38  f2d.o(.text)
    __aeabi_d2f                              0x080004b9   Thumb Code    56  d2f.o(.text)
    __aeabi_uidiv                            0x080004f1   Thumb Code     0  uidiv.o(.text)
    __aeabi_uidivmod                         0x080004f1   Thumb Code    44  uidiv.o(.text)
    __aeabi_uldivmod                         0x0800051d   Thumb Code    98  uldiv.o(.text)
    __aeabi_llsl                             0x0800057f   Thumb Code    30  llshl.o(.text)
    _ll_shift_l                              0x0800057f   Thumb Code     0  llshl.o(.text)
    __aeabi_lasr                             0x0800059d   Thumb Code    36  llsshr.o(.text)
    _ll_sshift_r                             0x0800059d   Thumb Code     0  llsshr.o(.text)
    __I$use$fp                               0x080005c1   Thumb Code     0  iusefp.o(.text)
    _float_round                             0x080005c1   Thumb Code    18  fepilogue.o(.text)
    _float_epilogue                          0x080005d3   Thumb Code    92  fepilogue.o(.text)
    _double_round                            0x0800062f   Thumb Code    30  depilogue.o(.text)
    _double_epilogue                         0x0800064d   Thumb Code   156  depilogue.o(.text)
    __aeabi_d2ulz                            0x080006e9   Thumb Code    48  dfixul.o(.text)
    __aeabi_cdrcmple                         0x08000719   Thumb Code    48  cdrcmple.o(.text)
    __scatterload                            0x08000749   Thumb Code    28  init.o(.text)
    __scatterload_rt2                        0x08000749   Thumb Code     0  init.o(.text)
    __aeabi_llsr                             0x0800076d   Thumb Code    32  llushr.o(.text)
    _ll_ushift_r                             0x0800076d   Thumb Code     0  llushr.o(.text)
    BusFault_Handler                         0x0800078d   Thumb Code     4  gd32f30x_it.o(i.BusFault_Handler)
    DebugMon_Handler                         0x08000791   Thumb Code     2  gd32f30x_it.o(i.DebugMon_Handler)
    HardFault_Handler                        0x08000793   Thumb Code     4  gd32f30x_it.o(i.HardFault_Handler)
    MemManage_Handler                        0x08000797   Thumb Code     4  gd32f30x_it.o(i.MemManage_Handler)
    NMI_Handler                              0x0800079b   Thumb Code     2  gd32f30x_it.o(i.NMI_Handler)
    PendSV_Handler                           0x080007c5   Thumb Code     2  gd32f30x_it.o(i.PendSV_Handler)
    SVC_Handler                              0x080007c7   Thumb Code     2  gd32f30x_it.o(i.SVC_Handler)
    SysTick_Handler                          0x080007c9   Thumb Code     8  gd32f30x_it.o(i.SysTick_Handler)
    SystemInit                               0x080007d1   Thumb Code    66  system_gd32f30x.o(i.SystemInit)
    UsageFault_Handler                       0x08000821   Thumb Code     4  gd32f30x_it.o(i.UsageFault_Handler)
    __0printf                                0x08000825   Thumb Code    22  printfa.o(i.__0printf)
    __1printf                                0x08000825   Thumb Code     0  printfa.o(i.__0printf)
    __2printf                                0x08000825   Thumb Code     0  printfa.o(i.__0printf)
    __c89printf                              0x08000825   Thumb Code     0  printfa.o(i.__0printf)
    printf                                   0x08000825   Thumb Code     0  printfa.o(i.__0printf)
    __scatterload_copy                       0x08000845   Thumb Code    14  handlers.o(i.__scatterload_copy)
    __scatterload_null                       0x08000853   Thumb Code     2  handlers.o(i.__scatterload_null)
    __scatterload_zeroinit                   0x08000855   Thumb Code    14  handlers.o(i.__scatterload_zeroinit)
    adc_calibration_enable                   0x080010f7   Thumb Code    42  gd32f30x_adc.o(i.adc_calibration_enable)
    adc_channel_length_config                0x08001121   Thumb Code    70  gd32f30x_adc.o(i.adc_channel_length_config)
    adc_config                               0x08001169   Thumb Code   106  main.o(i.adc_config)
    adc_data_alignment_config                0x080011d9   Thumb Code    22  gd32f30x_adc.o(i.adc_data_alignment_config)
    adc_enable                               0x080011ef   Thumb Code    18  gd32f30x_adc.o(i.adc_enable)
    adc_external_trigger_config              0x08001201   Thumb Code    62  gd32f30x_adc.o(i.adc_external_trigger_config)
    adc_external_trigger_source_config       0x0800123f   Thumb Code    48  gd32f30x_adc.o(i.adc_external_trigger_source_config)
    adc_inserted_channel_config              0x0800126f   Thumb Code   120  gd32f30x_adc.o(i.adc_inserted_channel_config)
    adc_mode_config                          0x080012e9   Thumb Code    22  gd32f30x_adc.o(i.adc_mode_config)
    adc_software_trigger_enable              0x08001305   Thumb Code    30  gd32f30x_adc.o(i.adc_software_trigger_enable)
    adc_special_function_config              0x08001323   Thumb Code    90  gd32f30x_adc.o(i.adc_special_function_config)
    adc_tempsensor_vrefint_enable            0x0800137d   Thumb Code    14  gd32f30x_adc.o(i.adc_tempsensor_vrefint_enable)
    delay_1ms                                0x08001391   Thumb Code    16  systick.o(i.delay_1ms)
    delay_decrement                          0x080013a5   Thumb Code    18  systick.o(i.delay_decrement)
    fputc                                    0x080013bd   Thumb Code    32  main.o(i.fputc)
    gd_eval_com_init                         0x080013e1   Thumb Code   122  gd32f303e_eval.o(i.gd_eval_com_init)
    gpio_init                                0x08001479   Thumb Code   164  gd32f30x_gpio.o(i.gpio_init)
    main                                     0x0800151d   Thumb Code   264  main.o(i.main)
    rcu_adc_clock_config                     0x080016c9   Thumb Code    98  gd32f30x_rcu.o(i.rcu_adc_clock_config)
    rcu_clock_freq_get                       0x08001735   Thumb Code   310  gd32f30x_rcu.o(i.rcu_clock_freq_get)
    rcu_config                               0x0800188d   Thumb Code    18  main.o(i.rcu_config)
    rcu_periph_clock_enable                  0x080018a1   Thumb Code    28  gd32f30x_rcu.o(i.rcu_periph_clock_enable)
    rcu_periph_reset_disable                 0x080018c1   Thumb Code    28  gd32f30x_rcu.o(i.rcu_periph_reset_disable)
    rcu_periph_reset_enable                  0x080018e1   Thumb Code    28  gd32f30x_rcu.o(i.rcu_periph_reset_enable)
    systick_config                           0x08001a19   Thumb Code    74  systick.o(i.systick_config)
    usart_baudrate_set                       0x08001a69   Thumb Code   140  gd32f30x_usart.o(i.usart_baudrate_set)
    usart_data_transmit                      0x08001afd   Thumb Code     8  gd32f30x_usart.o(i.usart_data_transmit)
    usart_deinit                             0x08001b05   Thumb Code   136  gd32f30x_usart.o(i.usart_deinit)
    usart_enable                             0x08001b95   Thumb Code    10  gd32f30x_usart.o(i.usart_enable)
    usart_flag_get                           0x08001b9f   Thumb Code    30  gd32f30x_usart.o(i.usart_flag_get)
    usart_receive_config                     0x08001bbd   Thumb Code    16  gd32f30x_usart.o(i.usart_receive_config)
    usart_transmit_config                    0x08001bcd   Thumb Code    16  gd32f30x_usart.o(i.usart_transmit_config)
    Region$$Table$$Base                      0x08001bdc   Number         0  anon$$obj.o(Region$$Table)
    Region$$Table$$Limit                     0x08001bfc   Number         0  anon$$obj.o(Region$$Table)
    temperature                              0x20000000   Data           4  main.o(.data)
    vref_value                               0x20000004   Data           4  main.o(.data)
    SystemCoreClock                          0x2000000c   Data           4  system_gd32f30x.o(.data)
    __stdout                                 0x2000009c   Data           4  stdout.o(.data)
    __initial_sp                             0x200004a0   Data           0  startup_gd32f30x_hd.o(STACK)



==============================================================================

Memory Map of the image

  Image Entry point : 0x08000131

  Load Region LR_IROM1 (Base: 0x08000000, Size: 0x00001c9c, Max: 0x00080000, ABSOLUTE)

    Execution Region ER_IROM1 (Base: 0x08000000, Size: 0x00001bfc, Max: 0x00080000, ABSOLUTE)

    Base Addr    Size         Type   Attr      Idx    E Section Name        Object

    0x08000000   0x00000130   Data   RO         4314    RESET               startup_gd32f30x_hd.o
    0x08000130   0x00000000   Code   RO         4319  * .ARM.Collect$$$$00000000  mc_w.l(entry.o)
    0x08000130   0x00000004   Code   RO         4595    .ARM.Collect$$$$00000001  mc_w.l(entry2.o)
    0x08000134   0x00000004   Code   RO         4598    .ARM.Collect$$$$00000004  mc_w.l(entry5.o)
    0x08000138   0x00000000   Code   RO         4600    .ARM.Collect$$$$00000008  mc_w.l(entry7b.o)
    0x08000138   0x00000000   Code   RO         4602    .ARM.Collect$$$$0000000A  mc_w.l(entry8b.o)
    0x08000138   0x00000008   Code   RO         4603    .ARM.Collect$$$$0000000B  mc_w.l(entry9a.o)
    0x08000140   0x00000000   Code   RO         4605    .ARM.Collect$$$$0000000D  mc_w.l(entry10a.o)
    0x08000140   0x00000000   Code   RO         4607    .ARM.Collect$$$$0000000F  mc_w.l(entry11a.o)
    0x08000140   0x00000004   Code   RO         4596    .ARM.Collect$$$$00002712  mc_w.l(entry2.o)
    0x08000144   0x00000024   Code   RO         4315    .text               startup_gd32f30x_hd.o
    0x08000168   0x0000014e   Code   RO         4583    .text               mf_w.l(dadd.o)
    0x080002b6   0x000000e4   Code   RO         4585    .text               mf_w.l(dmul.o)
    0x0800039a   0x000000de   Code   RO         4587    .text               mf_w.l(ddiv.o)
    0x08000478   0x0000001a   Code   RO         4589    .text               mf_w.l(dfltui.o)
    0x08000492   0x00000026   Code   RO         4591    .text               mf_w.l(f2d.o)
    0x080004b8   0x00000038   Code   RO         4593    .text               mf_w.l(d2f.o)
    0x080004f0   0x0000002c   Code   RO         4610    .text               mc_w.l(uidiv.o)
    0x0800051c   0x00000062   Code   RO         4612    .text               mc_w.l(uldiv.o)
    0x0800057e   0x0000001e   Code   RO         4614    .text               mc_w.l(llshl.o)
    0x0800059c   0x00000024   Code   RO         4616    .text               mc_w.l(llsshr.o)
    0x080005c0   0x00000000   Code   RO         4618    .text               mc_w.l(iusefp.o)
    0x080005c0   0x0000006e   Code   RO         4619    .text               mf_w.l(fepilogue.o)
    0x0800062e   0x000000ba   Code   RO         4621    .text               mf_w.l(depilogue.o)
    0x080006e8   0x00000030   Code   RO         4623    .text               mf_w.l(dfixul.o)
    0x08000718   0x00000030   Code   RO         4625    .text               mf_w.l(cdrcmple.o)
    0x08000748   0x00000024   Code   RO         4627    .text               mc_w.l(init.o)
    0x0800076c   0x00000020   Code   RO         4629    .text               mc_w.l(llushr.o)
    0x0800078c   0x00000004   Code   RO          152    i.BusFault_Handler  gd32f30x_it.o
    0x08000790   0x00000002   Code   RO          153    i.DebugMon_Handler  gd32f30x_it.o
    0x08000792   0x00000004   Code   RO          154    i.HardFault_Handler  gd32f30x_it.o
    0x08000796   0x00000004   Code   RO          155    i.MemManage_Handler  gd32f30x_it.o
    0x0800079a   0x00000002   Code   RO          156    i.NMI_Handler       gd32f30x_it.o
    0x0800079c   0x00000028   Code   RO          239    i.NVIC_SetPriority  systick.o
    0x080007c4   0x00000002   Code   RO          157    i.PendSV_Handler    gd32f30x_it.o
    0x080007c6   0x00000002   Code   RO          158    i.SVC_Handler       gd32f30x_it.o
    0x080007c8   0x00000008   Code   RO          159    i.SysTick_Handler   gd32f30x_it.o
    0x080007d0   0x00000050   Code   RO          283    i.SystemInit        system_gd32f30x.o
    0x08000820   0x00000004   Code   RO          160    i.UsageFault_Handler  gd32f30x_it.o
    0x08000824   0x00000020   Code   RO         4555    i.__0printf         mc_w.l(printfa.o)
    0x08000844   0x0000000e   Code   RO         4633    i.__scatterload_copy  mc_w.l(handlers.o)
    0x08000852   0x00000002   Code   RO         4634    i.__scatterload_null  mc_w.l(handlers.o)
    0x08000854   0x0000000e   Code   RO         4635    i.__scatterload_zeroinit  mc_w.l(handlers.o)
    0x08000862   0x00000002   PAD
    0x08000864   0x00000164   Code   RO         4562    i._fp_digits        mc_w.l(printfa.o)
    0x080009c8   0x000006dc   Code   RO         4563    i._printf_core      mc_w.l(printfa.o)
    0x080010a4   0x00000024   Code   RO         4564    i._printf_post_padding  mc_w.l(printfa.o)
    0x080010c8   0x0000002e   Code   RO         4565    i._printf_pre_padding  mc_w.l(printfa.o)
    0x080010f6   0x0000002a   Code   RO          324    i.adc_calibration_enable  gd32f30x_adc.o
    0x08001120   0x00000046   Code   RO          325    i.adc_channel_length_config  gd32f30x_adc.o
    0x08001166   0x00000002   PAD
    0x08001168   0x00000070   Code   RO            3    i.adc_config        main.o
    0x080011d8   0x00000016   Code   RO          326    i.adc_data_alignment_config  gd32f30x_adc.o
    0x080011ee   0x00000012   Code   RO          332    i.adc_enable        gd32f30x_adc.o
    0x08001200   0x0000003e   Code   RO          333    i.adc_external_trigger_config  gd32f30x_adc.o
    0x0800123e   0x00000030   Code   RO          334    i.adc_external_trigger_source_config  gd32f30x_adc.o
    0x0800126e   0x00000078   Code   RO          337    i.adc_inserted_channel_config  gd32f30x_adc.o
    0x080012e6   0x00000002   PAD
    0x080012e8   0x0000001c   Code   RO          344    i.adc_mode_config   gd32f30x_adc.o
    0x08001304   0x0000001e   Code   RO          351    i.adc_software_trigger_enable  gd32f30x_adc.o
    0x08001322   0x0000005a   Code   RO          352    i.adc_special_function_config  gd32f30x_adc.o
    0x0800137c   0x00000014   Code   RO          355    i.adc_tempsensor_vrefint_enable  gd32f30x_adc.o
    0x08001390   0x00000014   Code   RO          240    i.delay_1ms         systick.o
    0x080013a4   0x00000018   Code   RO          241    i.delay_decrement   systick.o
    0x080013bc   0x00000024   Code   RO            4    i.fputc             main.o
    0x080013e0   0x00000098   Code   RO         4256    i.gd_eval_com_init  gd32f303e_eval.o
    0x08001478   0x000000a4   Code   RO         2076    i.gpio_init         gd32f30x_gpio.o
    0x0800151c   0x000001ac   Code   RO            5    i.main              main.o
    0x080016c8   0x0000006c   Code   RO         2580    i.rcu_adc_clock_config  gd32f30x_rcu.o
    0x08001734   0x00000158   Code   RO         2589    i.rcu_clock_freq_get  gd32f30x_rcu.o
    0x0800188c   0x00000012   Code   RO            6    i.rcu_config        main.o
    0x0800189e   0x00000002   PAD
    0x080018a0   0x00000020   Code   RO         2607    i.rcu_periph_clock_enable  gd32f30x_rcu.o
    0x080018c0   0x00000020   Code   RO         2610    i.rcu_periph_reset_disable  gd32f30x_rcu.o
    0x080018e0   0x00000020   Code   RO         2611    i.rcu_periph_reset_enable  gd32f30x_rcu.o
    0x08001900   0x00000110   Code   RO          284    i.system_clock_120m_hxtal  system_gd32f30x.o
    0x08001a10   0x00000008   Code   RO          285    i.system_clock_config  system_gd32f30x.o
    0x08001a18   0x00000050   Code   RO          242    i.systick_config    systick.o
    0x08001a68   0x00000094   Code   RO         3884    i.usart_baudrate_set  gd32f30x_usart.o
    0x08001afc   0x00000008   Code   RO         3888    i.usart_data_transmit  gd32f30x_usart.o
    0x08001b04   0x00000090   Code   RO         3889    i.usart_deinit      gd32f30x_usart.o
    0x08001b94   0x0000000a   Code   RO         3893    i.usart_enable      gd32f30x_usart.o
    0x08001b9e   0x0000001e   Code   RO         3895    i.usart_flag_get    gd32f30x_usart.o
    0x08001bbc   0x00000010   Code   RO         3917    i.usart_receive_config  gd32f30x_usart.o
    0x08001bcc   0x00000010   Code   RO         3931    i.usart_transmit_config  gd32f30x_usart.o
    0x08001bdc   0x00000020   Data   RO         4631    Region$$Table       anon$$obj.o


    Execution Region RW_IRAM1 (Base: 0x20000000, Size: 0x000004a0, Max: 0x00010000, ABSOLUTE)

    Base Addr    Size         Type   Attr      Idx    E Section Name        Object

    0x20000000   0x00000008   Data   RW            7    .data               main.o
    0x20000008   0x00000004   Data   RW          243    .data               systick.o
    0x2000000c   0x00000004   Data   RW          286    .data               system_gd32f30x.o
    0x20000010   0x0000008c   Data   RW         4263    .data               gd32f303e_eval.o
    0x2000009c   0x00000004   Data   RW         4609    .data               mc_w.l(stdout.o)
    0x200000a0   0x00000400   Zero   RW         4312    STACK               startup_gd32f30x_hd.o


==============================================================================

Image component sizes


      Code (inc. data)   RO Data    RW Data    ZI Data      Debug   Object Name

       152         30          0        140          0       1839   gd32f303e_eval.o
       550         12          0          0          0       8289   gd32f30x_adc.o
       164          0          0          0          0        960   gd32f30x_gpio.o
        32          0          0          0          0       4366   gd32f30x_it.o
       548         68          0          0          0      21299   gd32f30x_rcu.o
       372         16          0          0          0      11721   gd32f30x_usart.o
       594        174          0          8          0      33938   main.o
        36          8        304          0       1024        944   startup_gd32f30x_hd.o
       360         30          0          4          0       2243   system_gd32f30x.o
       164         24          0          4          0      29242   systick.o

    ----------------------------------------------------------------------
      2978        362        336        156       1024     114841   Object Totals
         0          0         32          0          0          0   (incl. Generated)
         6          0          0          0          0          0   (incl. Padding)

    ----------------------------------------------------------------------

      Code (inc. data)   RO Data    RW Data    ZI Data      Debug   Library Member Name

         0          0          0          0          0          0   entry.o
         0          0          0          0          0          0   entry10a.o
         0          0          0          0          0          0   entry11a.o
         8          4          0          0          0          0   entry2.o
         4          0          0          0          0          0   entry5.o
         0          0          0          0          0          0   entry7b.o
         0          0          0          0          0          0   entry8b.o
         8          4          0          0          0          0   entry9a.o
        30          0          0          0          0          0   handlers.o
        36          8          0          0          0         68   init.o
         0          0          0          0          0          0   iusefp.o
        30          0          0          0          0         68   llshl.o
        36          0          0          0          0         68   llsshr.o
        32          0          0          0          0         68   llushr.o
      2226         90          0          0          0        444   printfa.o
         0          0          0          4          0          0   stdout.o
        44          0          0          0          0         80   uidiv.o
        98          0          0          0          0         92   uldiv.o
        48          0          0          0          0         68   cdrcmple.o
        56          0          0          0          0         88   d2f.o
       334          0          0          0          0        148   dadd.o
       222          0          0          0          0        100   ddiv.o
       186          0          0          0          0        176   depilogue.o
        48          0          0          0          0         68   dfixul.o
        26          0          0          0          0         76   dfltui.o
       228          0          0          0          0         96   dmul.o
        38          0          0          0          0         68   f2d.o
       110          0          0          0          0        168   fepilogue.o

    ----------------------------------------------------------------------
      3850        106          0          4          0       1944   Library Totals
         2          0          0          0          0          0   (incl. Padding)

    ----------------------------------------------------------------------

      Code (inc. data)   RO Data    RW Data    ZI Data      Debug   Library Name

      2552        106          0          4          0        888   mc_w.l
      1296          0          0          0          0       1056   mf_w.l

    ----------------------------------------------------------------------
      3850        106          0          4          0       1944   Library Totals

    ----------------------------------------------------------------------

==============================================================================


      Code (inc. data)   RO Data    RW Data    ZI Data      Debug   

      6828        468        336        160       1024     112053   Grand Totals
      6828        468        336        160       1024     112053   ELF Image Totals
      6828        468        336        160          0          0   ROM Totals

==============================================================================

    Total RO  Size (Code + RO Data)                 7164 (   7.00kB)
    Total RW  Size (RW Data + ZI Data)              1184 (   1.16kB)
    Total ROM Size (Code + RO Data + RW Data)       7324 (   7.15kB)

==============================================================================

