Component: ARM Compiler 5.05 update 1 (build 106) Tool: armlink [4d0efa]

==============================================================================

Section Cross References

    main.o(i.fputc) refers to gd32f30x_usart.o(i.usart_data_transmit) for usart_data_transmit
    main.o(i.fputc) refers to gd32f30x_usart.o(i.usart_flag_get) for usart_flag_get
    main.o(i.main) refers to systick.o(i.systick_config) for systick_config
    main.o(i.main) refers to uart.o(i.uart0_init) for uart0_init
    main.o(i.main) refers to cpu_c.o(i.boot_cpu_init) for boot_cpu_init
    main.o(i.main) refers to boot.o(i.n_boot_memu) for n_boot_memu
    gd32f30x_it.o(i.SysTick_Handler) refers to systick.o(i.delay_decrement) for delay_decrement
    systick.o(i.delay_1ms) refers to systick.o(.data) for delay
    systick.o(i.delay_decrement) refers to systick.o(.data) for delay
    systick.o(i.systick_config) refers to systick.o(i.NVIC_SetPriority) for NVIC_SetPriority
    systick.o(i.systick_config) refers to system_gd32f30x.o(.data) for SystemCoreClock
    system_gd32f30x.o(i.SystemCoreClockUpdate) refers to system_gd32f30x.o(.data) for SystemCoreClock
    system_gd32f30x.o(i.SystemInit) refers to system_gd32f30x.o(i.system_clock_config) for system_clock_config
    system_gd32f30x.o(i.system_clock_config) refers to system_gd32f30x.o(i.system_clock_120m_hxtal) for system_clock_120m_hxtal
    gd32f30x_adc.o(i.adc_deinit) refers to gd32f30x_rcu.o(i.rcu_periph_reset_enable) for rcu_periph_reset_enable
    gd32f30x_adc.o(i.adc_deinit) refers to gd32f30x_rcu.o(i.rcu_periph_reset_disable) for rcu_periph_reset_disable
    gd32f30x_bkp.o(i.bkp_deinit) refers to gd32f30x_rcu.o(i.rcu_bkp_reset_enable) for rcu_bkp_reset_enable
    gd32f30x_bkp.o(i.bkp_deinit) refers to gd32f30x_rcu.o(i.rcu_bkp_reset_disable) for rcu_bkp_reset_disable
==============================================================================

Removing Unused input sections from the image.

    Removing main.o(.rev16_text), (4 bytes).
    Removing main.o(.revsh_text), (4 bytes).
    Removing main.o(i.fputc), (36 bytes).
    Removing gd32f30x_it.o(.rev16_text), (4 bytes).
    Removing gd32f30x_it.o(.revsh_text), (4 bytes).
    Removing systick.o(.rev16_text), (4 bytes).
    Removing systick.o(.revsh_text), (4 bytes).
    Removing systick.o(i.delay_1ms), (20 bytes).
    Removing system_gd32f30x.o(.rev16_text), (4 bytes).
    Removing system_gd32f30x.o(.revsh_text), (4 bytes).
    Removing system_gd32f30x.o(i.SystemCoreClockUpdate), (184 bytes).
    Removing gd32f30x_adc.o(.rev16_text), (4 bytes).
    Removing gd32f30x_adc.o(.revsh_text), (4 bytes).
    Removing gd32f30x_adc.o(i.adc_calibration_enable), (42 bytes).
    Removing gd32f30x_adc.o(i.adc_channel_length_config), (70 bytes).
    Removing gd32f30x_adc.o(i.adc_data_alignment_config), (22 bytes).
    Removing gd32f30x_adc.o(i.adc_deinit), (88 bytes).
    Removing gd32f30x_adc.o(i.adc_disable), (10 bytes).
==============================================================================

Image Symbol Table

    Local Symbols

    Symbol Name                              Value     Ov Type        Size  Object(Section)

    ../clib/microlib/init/entry.s            0x00000000   Number         0  entry7b.o ABSOLUTE
    ../clib/microlib/init/entry.s            0x00000000   Number         0  entry5.o ABSOLUTE
    ../clib/microlib/init/entry.s            0x00000000   Number         0  entry.o ABSOLUTE
    ../clib/microlib/init/entry.s            0x00000000   Number         0  entry11b.o ABSOLUTE
    ../clib/microlib/init/entry.s            0x00000000   Number         0  entry11a.o ABSOLUTE
    ../clib/microlib/init/entry.s            0x00000000   Number         0  entry10b.o ABSOLUTE
    ../clib/microlib/init/entry.s            0x00000000   Number         0  entry10a.o ABSOLUTE
    ../clib/microlib/init/entry.s            0x00000000   Number         0  entry9b.o ABSOLUTE
    ../clib/microlib/init/entry.s            0x00000000   Number         0  entry9a.o ABSOLUTE
    ../clib/microlib/init/entry.s            0x00000000   Number         0  entry7a.o ABSOLUTE
    ../clib/microlib/init/entry.s            0x00000000   Number         0  entry8a.o ABSOLUTE
    ../clib/microlib/init/entry.s            0x00000000   Number         0  entry8b.o ABSOLUTE
    ../clib/microlib/init/entry.s            0x00000000   Number         0  entry2.o ABSOLUTE
    ../clib/microlib/string/memcpy.c         0x00000000   Number         0  memcpya.o ABSOLUTE
    ../clib/microlib/string/memcpy.c         0x00000000   Number         0  memcpyb.o ABSOLUTE
    ..\..\..\Library\Firmware\CMSIS\GD\GD32F30x\Source\ARM\startup_gd32f30x_hd.s 0x00000000   Number         0  startup_gd32f30x_hd.o ABSOLUTE
    ..\..\..\Library\Firmware\CMSIS\GD\GD32F30x\Source\system_gd32f30x.c 0x00000000   Number         0  system_gd32f30x.o ABSOLUTE
    ..\..\..\Library\Firmware\GD32F30x_standard_peripheral\Source\gd32f30x_adc.c 0x00000000   Number         0  gd32f30x_adc.o ABSOLUTE
    ..\..\..\Library\Firmware\GD32F30x_standard_peripheral\Source\gd32f30x_bkp.c 0x00000000   Number         0  gd32f30x_bkp.o ABSOLUTE
    ..\..\..\Library\Firmware\GD32F30x_standard_peripheral\Source\gd32f30x_can.c 0x00000000   Number         0  gd32f30x_can.o ABSOLUTE
    ..\..\..\Library\Firmware\GD32F30x_standard_peripheral\Source\gd32f30x_crc.c 0x00000000   Number         0  gd32f30x_crc.o ABSOLUTE
    ..\..\..\Library\Firmware\GD32F30x_standard_peripheral\Source\gd32f30x_ctc.c 0x00000000   Number         0  gd32f30x_ctc.o ABSOLUTE
    ..\..\..\Library\Firmware\GD32F30x_standard_peripheral\Source\gd32f30x_dac.c 0x00000000   Number         0  gd32f30x_dac.o ABSOLUTE
    ..\..\..\Library\Firmware\GD32F30x_standard_peripheral\Source\gd32f30x_dbg.c 0x00000000   Number         0  gd32f30x_dbg.o ABSOLUTE
    ..\..\..\Library\Firmware\GD32F30x_standard_peripheral\Source\gd32f30x_dma.c 0x00000000   Number         0  gd32f30x_dma.o ABSOLUTE
    ..\..\..\Library\Firmware\GD32F30x_standard_peripheral\Source\gd32f30x_enet.c 0x00000000   Number         0  gd32f30x_enet.o ABSOLUTE
    ..\..\..\Library\Firmware\GD32F30x_standard_peripheral\Source\gd32f30x_exmc.c 0x00000000   Number         0  gd32f30x_exmc.o ABSOLUTE
    ..\..\..\Library\Firmware\GD32F30x_standard_peripheral\Source\gd32f30x_exti.c 0x00000000   Number         0  gd32f30x_exti.o ABSOLUTE
    ..\..\..\Library\Firmware\GD32F30x_standard_peripheral\Source\gd32f30x_fmc.c 0x00000000   Number         0  gd32f30x_fmc.o ABSOLUTE
    ..\..\..\Library\Firmware\GD32F30x_standard_peripheral\Source\gd32f30x_fwdgt.c 0x00000000   Number         0  gd32f30x_fwdgt.o ABSOLUTE
    ..\..\..\Library\Firmware\GD32F30x_standard_peripheral\Source\gd32f30x_gpio.c 0x00000000   Number         0  gd32f30x_gpio.o ABSOLUTE
    ..\..\..\Library\Firmware\GD32F30x_standard_peripheral\Source\gd32f30x_i2c.c 0x00000000   Number         0  gd32f30x_i2c.o ABSOLUTE
    ..\..\..\Library\Firmware\GD32F30x_standard_peripheral\Source\gd32f30x_misc.c 0x00000000   Number         0  gd32f30x_misc.o ABSOLUTE
    ..\..\..\Library\Firmware\GD32F30x_standard_peripheral\Source\gd32f30x_pmu.c 0x00000000   Number         0  gd32f30x_pmu.o ABSOLUTE
    ..\..\..\Library\Firmware\GD32F30x_standard_peripheral\Source\gd32f30x_rcu.c 0x00000000   Number         0  gd32f30x_rcu.o ABSOLUTE
    ..\..\..\Library\Firmware\GD32F30x_standard_peripheral\Source\gd32f30x_rtc.c 0x00000000   Number         0  gd32f30x_rtc.o ABSOLUTE
    ..\..\..\Library\Firmware\GD32F30x_standard_peripheral\Source\gd32f30x_sdio.c 0x00000000   Number         0  gd32f30x_sdio.o ABSOLUTE
    ..\..\..\Library\Firmware\GD32F30x_standard_peripheral\Source\gd32f30x_spi.c 0x00000000   Number         0  gd32f30x_spi.o ABSOLUTE
    ..\..\..\Library\Firmware\GD32F30x_standard_peripheral\Source\gd32f30x_timer.c 0x00000000   Number         0  gd32f30x_timer.o ABSOLUTE
    ..\..\..\Library\Firmware\GD32F30x_standard_peripheral\Source\gd32f30x_usart.c 0x00000000   Number         0  gd32f30x_usart.o ABSOLUTE
    ..\..\..\Library\Firmware\GD32F30x_standard_peripheral\Source\gd32f30x_wwdgt.c 0x00000000   Number         0  gd32f30x_wwdgt.o ABSOLUTE
    ..\..\..\Library\Utilities\gd32f303e_eval.c 0x00000000   Number         0  gd32f303e_eval.o ABSOLUTE
    ..\\..\\..\\Library\\Firmware\\CMSIS\\GD\\GD32F30x\\Source\\system_gd32f30x.c 0x00000000   Number         0  system_gd32f30x.o ABSOLUTE
    ..\\..\\..\\Library\\Firmware\\GD32F30x_standard_peripheral\\Source\\gd32f30x_adc.c 0x00000000   Number         0  gd32f30x_adc.o ABSOLUTE
    ..\\..\\..\\Library\\Firmware\\GD32F30x_standard_peripheral\\Source\\gd32f30x_bkp.c 0x00000000   Number         0  gd32f30x_bkp.o ABSOLUTE
    ..\\..\\..\\Library\\Firmware\\GD32F30x_standard_peripheral\\Source\\gd32f30x_can.c 0x00000000   Number         0  gd32f30x_can.o ABSOLUTE
    ..\\..\\..\\Library\\Firmware\\GD32F30x_standard_peripheral\\Source\\gd32f30x_crc.c 0x00000000   Number         0  gd32f30x_crc.o ABSOLUTE
    ..\\..\\..\\Library\\Firmware\\GD32F30x_standard_peripheral\\Source\\gd32f30x_ctc.c 0x00000000   Number         0  gd32f30x_ctc.o ABSOLUTE
    ..\\..\\..\\Library\\Firmware\\GD32F30x_standard_peripheral\\Source\\gd32f30x_dac.c 0x00000000   Number         0  gd32f30x_dac.o ABSOLUTE
    ..\\..\\..\\Library\\Firmware\\GD32F30x_standard_peripheral\\Source\\gd32f30x_dbg.c 0x00000000   Number         0  gd32f30x_dbg.o ABSOLUTE
    ..\\..\\..\\Library\\Firmware\\GD32F30x_standard_peripheral\\Source\\gd32f30x_dma.c 0x00000000   Number         0  gd32f30x_dma.o ABSOLUTE
    ..\\..\\..\\Library\\Firmware\\GD32F30x_standard_peripheral\\Source\\gd32f30x_enet.c 0x00000000   Number         0  gd32f30x_enet.o ABSOLUTE
    ..\\..\\..\\Library\\Firmware\\GD32F30x_standard_peripheral\\Source\\gd32f30x_exmc.c 0x00000000   Number         0  gd32f30x_exmc.o ABSOLUTE
    ..\\..\\..\\Library\\Firmware\\GD32F30x_standard_peripheral\\Source\\gd32f30x_exti.c 0x00000000   Number         0  gd32f30x_exti.o ABSOLUTE
    ..\\..\\..\\Library\\Firmware\\GD32F30x_standard_peripheral\\Source\\gd32f30x_fmc.c 0x00000000   Number         0  gd32f30x_fmc.o ABSOLUTE
    ..\\..\\..\\Library\\Firmware\\GD32F30x_standard_peripheral\\Source\\gd32f30x_fwdgt.c 0x00000000   Number         0  gd32f30x_fwdgt.o ABSOLUTE
    ..\\..\\..\\Library\\Firmware\\GD32F30x_standard_peripheral\\Source\\gd32f30x_gpio.c 0x00000000   Number         0  gd32f30x_gpio.o ABSOLUTE
    ..\\..\\..\\Library\\Firmware\\GD32F30x_standard_peripheral\\Source\\gd32f30x_i2c.c 0x00000000   Number         0  gd32f30x_i2c.o ABSOLUTE
    ..\\..\\..\\Library\\Firmware\\GD32F30x_standard_peripheral\\Source\\gd32f30x_misc.c 0x00000000   Number         0  gd32f30x_misc.o ABSOLUTE
    ..\\..\\..\\Library\\Firmware\\GD32F30x_standard_peripheral\\Source\\gd32f30x_pmu.c 0x00000000   Number         0  gd32f30x_pmu.o ABSOLUTE
    ..\\..\\..\\Library\\Firmware\\GD32F30x_standard_peripheral\\Source\\gd32f30x_rcu.c 0x00000000   Number         0  gd32f30x_rcu.o ABSOLUTE
    ..\\..\\..\\Library\\Firmware\\GD32F30x_standard_peripheral\\Source\\gd32f30x_rtc.c 0x00000000   Number         0  gd32f30x_rtc.o ABSOLUTE
    ..\\..\\..\\Library\\Firmware\\GD32F30x_standard_peripheral\\Source\\gd32f30x_sdio.c 0x00000000   Number         0  gd32f30x_sdio.o ABSOLUTE
    ..\\..\\..\\Library\\Firmware\\GD32F30x_standard_peripheral\\Source\\gd32f30x_spi.c 0x00000000   Number         0  gd32f30x_spi.o ABSOLUTE
    ..\\..\\..\\Library\\Firmware\\GD32F30x_standard_peripheral\\Source\\gd32f30x_timer.c 0x00000000   Number         0  gd32f30x_timer.o ABSOLUTE
    ..\\..\\..\\Library\\Firmware\\GD32F30x_standard_peripheral\\Source\\gd32f30x_usart.c 0x00000000   Number         0  gd32f30x_usart.o ABSOLUTE
    ..\\..\\..\\Library\\Firmware\\GD32F30x_standard_peripheral\\Source\\gd32f30x_wwdgt.c 0x00000000   Number         0  gd32f30x_wwdgt.o ABSOLUTE
    ..\\..\\..\\Library\\Utilities\\gd32f303e_eval.c 0x00000000   Number         0  gd32f303e_eval.o ABSOLUTE
    ..\\bsp\\key\\key.c                      0x00000000   Number         0  key.o ABSOLUTE
    ..\\bsp\\led\\led.c                      0x00000000   Number         0  led.o ABSOLUTE
    ..\\bsp\\uart\\uart.c                    0x00000000   Number         0  uart.o ABSOLUTE
    ..\\gd32f30x_it.c                        0x00000000   Number         0  gd32f30x_it.o ABSOLUTE
    ..\\main.c                               0x00000000   Number         0  main.o ABSOLUTE
    ..\\n_boot\\boot.c                       0x00000000   Number         0  boot.o ABSOLUTE
    ..\\n_boot\\command.c                    0x00000000   Number         0  command.o ABSOLUTE
    ..\\n_boot\\cpu_c.c                      0x00000000   Number         0  cpu_c.o ABSOLUTE
    ..\\n_boot\\flash.c                      0x00000000   Number         0  flash.o ABSOLUTE
    ..\\n_boot\\xmodem.c                     0x00000000   Number         0  xmodem.o ABSOLUTE
    ..\\n_boot\\xmodem_crc16.c               0x00000000   Number         0  xmodem_crc16.o ABSOLUTE
    ..\\n_boot\\xmodem_hw.c                  0x00000000   Number         0  xmodem_hw.o ABSOLUTE
    ..\\systick.c                            0x00000000   Number         0  systick.o ABSOLUTE
    ..\bsp\key\key.c                         0x00000000   Number         0  key.o ABSOLUTE
    ..\bsp\led\led.c                         0x00000000   Number         0  led.o ABSOLUTE
    ..\bsp\uart\uart.c                       0x00000000   Number         0  uart.o ABSOLUTE
    ..\gd32f30x_it.c                         0x00000000   Number         0  gd32f30x_it.o ABSOLUTE
    ..\main.c                                0x00000000   Number         0  main.o ABSOLUTE
    ..\n_boot\boot.c                         0x00000000   Number         0  boot.o ABSOLUTE
    ..\n_boot\command.c                      0x00000000   Number         0  command.o ABSOLUTE
    ..\n_boot\cpu_c.c                        0x00000000   Number         0  cpu_c.o ABSOLUTE
    ..\n_boot\flash.c                        0x00000000   Number         0  flash.o ABSOLUTE
    ..\n_boot\xmodem.c                       0x00000000   Number         0  xmodem.o ABSOLUTE
    ..\n_boot\xmodem_crc16.c                 0x00000000   Number         0  xmodem_crc16.o ABSOLUTE
    ..\n_boot\xmodem_hw.c                    0x00000000   Number         0  xmodem_hw.o ABSOLUTE
    ..\systick.c                             0x00000000   Number         0  systick.o ABSOLUTE
    dc.s                                     0x00000000   Number         0  dc.o ABSOLUTE
    handlers.s                               0x00000000   Number         0  handlers.o ABSOLUTE
    init.s                                   0x00000000   Number         0  init.o ABSOLUTE
    RESET                                    0x08000000   Section      304  startup_gd32f30x_hd.o(RESET)
    .ARM.Collect$$$$00000000                 0x08000130   Section        0  entry.o(.ARM.Collect$$$$00000000)
    .ARM.Collect$$$$00000001                 0x08000130   Section        4  entry2.o(.ARM.Collect$$$$00000001)
    .ARM.Collect$$$$00000004                 0x08000134   Section        4  entry5.o(.ARM.Collect$$$$00000004)
    .ARM.Collect$$$$00000008                 0x08000138   Section        0  entry7b.o(.ARM.Collect$$$$00000008)
    .ARM.Collect$$$$0000000A                 0x08000138   Section        0  entry8b.o(.ARM.Collect$$$$0000000A)
    .ARM.Collect$$$$0000000B                 0x08000138   Section        8  entry9a.o(.ARM.Collect$$$$0000000B)
    .ARM.Collect$$$$0000000D                 0x08000140   Section        0  entry10a.o(.ARM.Collect$$$$0000000D)
    .ARM.Collect$$$$0000000F                 0x08000140   Section        0  entry11a.o(.ARM.Collect$$$$0000000F)
    .ARM.Collect$$$$00002712                 0x08000140   Section        4  entry2.o(.ARM.Collect$$$$00002712)
    __lit__00000000                          0x08000140   Data           4  entry2.o(.ARM.Collect$$$$00002712)
    .text                                    0x08000144   Section       36  startup_gd32f30x_hd.o(.text)
    $v0                                      0x08000144   Number         0  startup_gd32f30x_hd.o(.text)
    .text                                    0x08000168   Section        0  memcpya.o(.text)
    .text                                    0x0800018c   Section       36  init.o(.text)
    i.BusFault_Handler                       0x080001b0   Section        0  gd32f30x_it.o(i.BusFault_Handler)
    i.DebugMon_Handler                       0x080001b4   Section        0  gd32f30x_it.o(i.DebugMon_Handler)
    i.HardFault_Handler                      0x080001b6   Section        0  gd32f30x_it.o(i.HardFault_Handler)
    i.MemManage_Handler                      0x080001ba   Section        0  gd32f30x_it.o(i.MemManage_Handler)
    i.NMI_Handler                            0x080001be   Section        0  gd32f30x_it.o(i.NMI_Handler)
    i.NVIC_SetPriority                       0x080001c0   Section        0  systick.o(i.NVIC_SetPriority)
    NVIC_SetPriority                         0x080001c1   Thumb Code    32  systick.o(i.NVIC_SetPriority)
    i.PendSV_Handler                         0x080001e8   Section        0  gd32f30x_it.o(i.PendSV_Handler)
    i.SVC_Handler                            0x080001ea   Section        0  gd32f30x_it.o(i.SVC_Handler)
    i.SysTick_Handler                        0x080001ec   Section        0  gd32f30x_it.o(i.SysTick_Handler)
    i.SystemInit                             0x080001f4   Section        0  system_gd32f30x.o(i.SystemInit)
    i.TIMER1_IRQHandler                      0x08000244   Section        0  cpu_c.o(i.TIMER1_IRQHandler)
    i.USART0_IRQHandler                      0x0800026c   Section        0  cpu_c.o(i.USART0_IRQHandler)
    i.UsageFault_Handler                     0x080002a4   Section        0  gd32f30x_it.o(i.UsageFault_Handler)
    i.__cpu_disable_int                      0x080002a8   Section        0  cpu_c.o(i.__cpu_disable_int)
    i.__cpu_goto_app                         0x080002b8   Section        0  cpu_c.o(i.__cpu_goto_app)
    i.__scatterload_copy                     0x080002e0   Section       14  handlers.o(i.__scatterload_copy)
    i.__scatterload_null                     0x080002ee   Section        2  handlers.o(i.__scatterload_null)
    i.__scatterload_zeroinit                 0x080002f0   Section       14  handlers.o(i.__scatterload_zeroinit)
    i.__str_cmp                              0x080002fe   Section        0  boot.o(i.__str_cmp)
    i.b_fun                                  0x08000334   Section        0  command.o(i.b_fun)
    i.boot_cpu_init                          0x0800038c   Section        0  cpu_c.o(i.boot_cpu_init)
    i.command_init                           0x08000394   Section        0  command.o(i.command_init)
    i.default_var                            0x08000494   Section        0  boot.o(i.default_var)
    i.delay_decrement                        0x080004ec   Section        0  systick.o(i.delay_decrement)
    i.delay_ms                               0x08000504   Section        0  boot.o(i.delay_ms)
    i.eraseflash_fun                         0x08000530   Section        0  command.o(i.eraseflash_fun)
    i.falsh_erase_len                        0x08000532   Section        0  flash.o(i.falsh_erase_len)
    i.flash_erase_page                       0x08000550   Section        0  flash.o(i.flash_erase_page)
    i.flash_rd                               0x08000564   Section        0  flash.o(i.flash_rd)
    i.flash_wr                               0x08000576   Section        0  flash.o(i.flash_wr)
    i.fmc_bank0_ready_wait                   0x080005d4   Section        0  gd32f30x_fmc.o(i.fmc_bank0_ready_wait)
    i.fmc_bank0_state_get                    0x080005f8   Section        0  gd32f30x_fmc.o(i.fmc_bank0_state_get)
    i.fmc_bank1_ready_wait                   0x08000628   Section        0  gd32f30x_fmc.o(i.fmc_bank1_ready_wait)
    i.fmc_bank1_state_get                    0x0800064c   Section        0  gd32f30x_fmc.o(i.fmc_bank1_state_get)
    i.fmc_lock                               0x0800067c   Section        0  gd32f30x_fmc.o(i.fmc_lock)
    i.fmc_page_erase                         0x080006a8   Section        0  gd32f30x_fmc.o(i.fmc_page_erase)
    i.fmc_unlock                             0x08000794   Section        0  gd32f30x_fmc.o(i.fmc_unlock)
    i.fmc_word_program                       0x080007d8   Section        0  gd32f30x_fmc.o(i.fmc_word_program)
    i.get_str                                0x08000898   Section        0  boot.o(i.get_str)
    i.gpio_init                              0x080008b0   Section        0  gd32f30x_gpio.o(i.gpio_init)
    i.main                                   0x08000954   Section        0  main.o(i.main)
    i.n_boot_memu                            0x08000968   Section        0  boot.o(i.n_boot_memu)
    i.n_boot_printf                          0x08000bf0   Section        0  boot.o(i.n_boot_printf)
    i.nvic_irq_disable                       0x08000c2c   Section        0  gd32f30x_misc.o(i.nvic_irq_disable)
    i.nvic_irq_enable                        0x08000c44   Section        0  gd32f30x_misc.o(i.nvic_irq_enable)
    i.printf_var_fun                         0x08000ce8   Section        0  command.o(i.printf_var_fun)
    i.rcu_clock_freq_get                     0x08000e50   Section        0  gd32f30x_rcu.o(i.rcu_clock_freq_get)
    i.rcu_periph_clock_enable                0x08000fa8   Section        0  gd32f30x_rcu.o(i.rcu_periph_clock_enable)
    i.rcu_periph_reset_disable               0x08000fc8   Section        0  gd32f30x_rcu.o(i.rcu_periph_reset_disable)
    i.rcu_periph_reset_enable                0x08000fe8   Section        0  gd32f30x_rcu.o(i.rcu_periph_reset_enable)
    i.rd_boot_var                            0x08001008   Section        0  boot.o(i.rd_boot_var)
    i.receive_command                        0x0800103c   Section        0  boot.o(i.receive_command)
    i.s_fun                                  0x080010bc   Section        0  command.o(i.s_fun)
    i.send_hex                               0x0800115c   Section        0  boot.o(i.send_hex)
    i.send_str                               0x080011c8   Section        0  boot.o(i.send_str)
    i.send_str_prefix                        0x080011e0   Section        0  boot.o(i.send_str_prefix)
    i.send_var                               0x0800120c   Section        0  boot.o(i.send_var)
    i.setvar_fun                             0x0800125c   Section        0  command.o(i.setvar_fun)
    i.str_to_hex                             0x08001330   Section        0  boot.o(i.str_to_hex)
    i.system_clock_120m_hxtal                0x0800134c   Section        0  system_gd32f30x.o(i.system_clock_120m_hxtal)
    system_clock_120m_hxtal                  0x0800134d   Thumb Code   256  system_gd32f30x.o(i.system_clock_120m_hxtal)
    i.system_clock_config                    0x0800145c   Section        0  system_gd32f30x.o(i.system_clock_config)
    system_clock_config                      0x0800145d   Thumb Code     8  system_gd32f30x.o(i.system_clock_config)
    i.systick_config                         0x08001464   Section        0  systick.o(i.systick_config)
    i.timer1_init                            0x080014b4   Section        0  cpu_c.o(i.timer1_init)
    i.timer_enable                           0x08001502   Section        0  gd32f30x_timer.o(i.timer_enable)
    i.timer_init                             0x0800150c   Section        0  gd32f30x_timer.o(i.timer_init)
    i.timer_interrupt_enable                 0x080015a4   Section        0  gd32f30x_timer.o(i.timer_interrupt_enable)
    i.timer_interrupt_flag_clear             0x080015ac   Section        0  gd32f30x_timer.o(i.timer_interrupt_flag_clear)
    i.timer_interrupt_flag_get               0x080015b4   Section        0  gd32f30x_timer.o(i.timer_interrupt_flag_get)
    i.translate_command                      0x080015cc   Section        0  boot.o(i.translate_command)
    i.translate_tag                          0x08001644   Section        0  boot.o(i.translate_tag)
    i.uart0_init                             0x08001694   Section        0  uart.o(i.uart0_init)
    i.uart0_send_byte                        0x08001708   Section        0  uart.o(i.uart0_send_byte)
    i.usart_baudrate_set                     0x08001728   Section        0  gd32f30x_usart.o(i.usart_baudrate_set)
    i.usart_data_receive                     0x080017bc   Section        0  gd32f30x_usart.o(i.usart_data_receive)
    i.usart_data_transmit                    0x080017c6   Section        0  gd32f30x_usart.o(i.usart_data_transmit)
    i.usart_deinit                           0x080017d0   Section        0  gd32f30x_usart.o(i.usart_deinit)
    i.usart_enable                           0x08001860   Section        0  gd32f30x_usart.o(i.usart_enable)
    i.usart_flag_get                         0x0800186a   Section        0  gd32f30x_usart.o(i.usart_flag_get)
    i.usart_interrupt_disable                0x08001888   Section        0  gd32f30x_usart.o(i.usart_interrupt_disable)
    i.usart_interrupt_enable                 0x080018a2   Section        0  gd32f30x_usart.o(i.usart_interrupt_enable)
    i.usart_interrupt_flag_get               0x080018bc   Section        0  gd32f30x_usart.o(i.usart_interrupt_flag_get)
    i.usart_receive_config                   0x080018f4   Section        0  gd32f30x_usart.o(i.usart_receive_config)
    i.usart_transmit_config                  0x08001904   Section        0  gd32f30x_usart.o(i.usart_transmit_config)
    i.wr_boot_var                            0x08001914   Section        0  boot.o(i.wr_boot_var)
    i.xm_check                               0x08001948   Section        0  xmodem.o(i.xm_check)
    xm_check                                 0x08001949   Thumb Code    82  xmodem.o(i.xm_check)
    i.xm_crc16_ccitt                         0x0800199c   Section        0  xmodem_crc16.o(i.xm_crc16_ccitt)
    i.xm_disp                                0x080019c8   Section        0  xmodem.o(i.xm_disp)
    i.xm_flushinput                          0x080019de   Section        0  xmodem.o(i.xm_flushinput)
    xm_flushinput                            0x080019df   Thumb Code     2  xmodem.o(i.xm_flushinput)
    i.xm_inbyte                              0x080019e0   Section        0  xmodem.o(i.xm_inbyte)
    i.xm_outbyte                             0x08001a1c   Section        0  xmodem.o(i.xm_outbyte)
    i.xm_port_read                           0x08001a2c   Section        0  xmodem_hw.o(i.xm_port_read)
    i.xm_port_write                          0x08001a50   Section        0  xmodem_hw.o(i.xm_port_write)
    i.xm_receive                             0x08001a70   Section        0  xmodem.o(i.xm_receive)
    i.xm_timer                               0x08001c34   Section        0  xmodem_hw.o(i.xm_timer)
    .constdata                               0x08001c44   Section      512  xmodem_crc16.o(.constdata)
    xm_crc16tab                              0x08001c44   Data         512  xmodem_crc16.o(.constdata)
    .conststring                             0x08001e44   Section      147  boot.o(.conststring)
    .conststring                             0x08001ed8   Section      124  command.o(.conststring)
    .data                                    0x20000000   Section        4  systick.o(.data)
    delay                                    0x20000000   Data           4  systick.o(.data)
    .data                                    0x20000004   Section        4  system_gd32f30x.o(.data)
    .data                                    0x20000008   Section       16  boot.o(.data)
    .data                                    0x20000018   Section       56  command.o(.data)
    .data                                    0x20000050   Section        6  xmodem.o(.data)
    last_error                               0x20000050   Data           4  xmodem.o(.data)
    .bss                                     0x20000058   Section     3100  boot.o(.bss)
    .bss                                     0x20000c74   Section      840  command.o(.bss)
    .bss                                     0x20000fbc   Section     1030  xmodem.o(.bss)
    STACK                                    0x200013c8   Section     1024  startup_gd32f30x_hd.o(STACK)

    Global Symbols

    Symbol Name                              Value     Ov Type        Size  Object(Section)

    BuildAttributes$$THM_ISAv4$E$P$D$K$B$S$7EM$VFPi3$EXTD16$VFPS$VFMA$PE$A:L22UL41UL21$X:L11$S22US41US21$IEEE1$IW$USESV6$~STKCKD$USESV7$~SHL$OSPACE$EBA8$MICROLIB$REQ8$PRES8$EABIv2 0x00000000   Number         0  anon$$obj.o ABSOLUTE
    __ARM_use_no_argv                        0x00000000   Number         0  main.o ABSOLUTE
    __cpp_initialize__aeabi_                  - Undefined Weak Reference
    __cxa_finalize                            - Undefined Weak Reference
    __decompress                              - Undefined Weak Reference
    _clock_init                               - Undefined Weak Reference
    _microlib_exit                            - Undefined Weak Reference
    __Vectors_Size                           0x00000130   Number         0  startup_gd32f30x_hd.o ABSOLUTE
    __Vectors                                0x08000000   Data           4  startup_gd32f30x_hd.o(RESET)
    __Vectors_End                            0x08000130   Data           0  startup_gd32f30x_hd.o(RESET)
    __main                                   0x08000131   Thumb Code     0  entry.o(.ARM.Collect$$$$00000000)
    _main_stk                                0x08000131   Thumb Code     0  entry2.o(.ARM.Collect$$$$00000001)
    _main_scatterload                        0x08000135   Thumb Code     0  entry5.o(.ARM.Collect$$$$00000004)
    __main_after_scatterload                 0x08000139   Thumb Code     0  entry5.o(.ARM.Collect$$$$00000004)
    _main_clock                              0x08000139   Thumb Code     0  entry7b.o(.ARM.Collect$$$$00000008)
    _main_cpp_init                           0x08000139   Thumb Code     0  entry8b.o(.ARM.Collect$$$$0000000A)
    _main_init                               0x08000139   Thumb Code     0  entry9a.o(.ARM.Collect$$$$0000000B)
    __rt_final_cpp                           0x08000141   Thumb Code     0  entry10a.o(.ARM.Collect$$$$0000000D)
    __rt_final_exit                          0x08000141   Thumb Code     0  entry11a.o(.ARM.Collect$$$$0000000F)
    Reset_Handler                            0x08000145   Thumb Code     8  startup_gd32f30x_hd.o(.text)
    ADC0_1_IRQHandler                        0x0800015f   Thumb Code     0  startup_gd32f30x_hd.o(.text)
    ADC2_IRQHandler                          0x0800015f   Thumb Code     0  startup_gd32f30x_hd.o(.text)
    CAN0_EWMC_IRQHandler                     0x0800015f   Thumb Code     0  startup_gd32f30x_hd.o(.text)
    CAN0_RX1_IRQHandler                      0x0800015f   Thumb Code     0  startup_gd32f30x_hd.o(.text)
    DMA0_Channel0_IRQHandler                 0x0800015f   Thumb Code     0  startup_gd32f30x_hd.o(.text)
    DMA0_Channel1_IRQHandler                 0x0800015f   Thumb Code     0  startup_gd32f30x_hd.o(.text)
    DMA0_Channel2_IRQHandler                 0x0800015f   Thumb Code     0  startup_gd32f30x_hd.o(.text)
    DMA0_Channel3_IRQHandler                 0x0800015f   Thumb Code     0  startup_gd32f30x_hd.o(.text)
    DMA0_Channel4_IRQHandler                 0x0800015f   Thumb Code     0  startup_gd32f30x_hd.o(.text)
    DMA0_Channel5_IRQHandler                 0x0800015f   Thumb Code     0  startup_gd32f30x_hd.o(.text)
    DMA0_Channel6_IRQHandler                 0x0800015f   Thumb Code     0  startup_gd32f30x_hd.o(.text)
    DMA1_Channel0_IRQHandler                 0x0800015f   Thumb Code     0  startup_gd32f30x_hd.o(.text)
    DMA1_Channel1_IRQHandler                 0x0800015f   Thumb Code     0  startup_gd32f30x_hd.o(.text)
    DMA1_Channel2_IRQHandler                 0x0800015f   Thumb Code     0  startup_gd32f30x_hd.o(.text)
    DMA1_Channel3_4_IRQHandler               0x0800015f   Thumb Code     0  startup_gd32f30x_hd.o(.text)
    EXMC_IRQHandler                          0x0800015f   Thumb Code     0  startup_gd32f30x_hd.o(.text)
    EXTI0_IRQHandler                         0x0800015f   Thumb Code     0  startup_gd32f30x_hd.o(.text)
    EXTI10_15_IRQHandler                     0x0800015f   Thumb Code     0  startup_gd32f30x_hd.o(.text)
    EXTI1_IRQHandler                         0x0800015f   Thumb Code     0  startup_gd32f30x_hd.o(.text)
    EXTI2_IRQHandler                         0x0800015f   Thumb Code     0  startup_gd32f30x_hd.o(.text)
    EXTI3_IRQHandler                         0x0800015f   Thumb Code     0  startup_gd32f30x_hd.o(.text)
    EXTI4_IRQHandler                         0x0800015f   Thumb Code     0  startup_gd32f30x_hd.o(.text)
    EXTI5_9_IRQHandler                       0x0800015f   Thumb Code     0  startup_gd32f30x_hd.o(.text)
    FMC_IRQHandler                           0x0800015f   Thumb Code     0  startup_gd32f30x_hd.o(.text)
    I2C0_ER_IRQHandler                       0x0800015f   Thumb Code     0  startup_gd32f30x_hd.o(.text)
    I2C0_EV_IRQHandler                       0x0800015f   Thumb Code     0  startup_gd32f30x_hd.o(.text)
    I2C1_ER_IRQHandler                       0x0800015f   Thumb Code     0  startup_gd32f30x_hd.o(.text)
    I2C1_EV_IRQHandler                       0x0800015f   Thumb Code     0  startup_gd32f30x_hd.o(.text)
    LVD_IRQHandler                           0x0800015f   Thumb Code     0  startup_gd32f30x_hd.o(.text)
    RCU_CTC_IRQHandler                       0x0800015f   Thumb Code     0  startup_gd32f30x_hd.o(.text)
    RTC_Alarm_IRQHandler                     0x0800015f   Thumb Code     0  startup_gd32f30x_hd.o(.text)
    RTC_IRQHandler                           0x0800015f   Thumb Code     0  startup_gd32f30x_hd.o(.text)
    SDIO_IRQHandler                          0x0800015f   Thumb Code     0  startup_gd32f30x_hd.o(.text)
    SPI0_IRQHandler                          0x0800015f   Thumb Code     0  startup_gd32f30x_hd.o(.text)
    SPI1_IRQHandler                          0x0800015f   Thumb Code     0  startup_gd32f30x_hd.o(.text)
    SPI2_IRQHandler                          0x0800015f   Thumb Code     0  startup_gd32f30x_hd.o(.text)
    TAMPER_IRQHandler                        0x0800015f   Thumb Code     0  startup_gd32f30x_hd.o(.text)
    TIMER0_BRK_IRQHandler                    0x0800015f   Thumb Code     0  startup_gd32f30x_hd.o(.text)
    TIMER0_Channel_IRQHandler                0x0800015f   Thumb Code     0  startup_gd32f30x_hd.o(.text)
    TIMER0_TRG_CMT_IRQHandler                0x0800015f   Thumb Code     0  startup_gd32f30x_hd.o(.text)
    TIMER0_UP_IRQHandler                     0x0800015f   Thumb Code     0  startup_gd32f30x_hd.o(.text)
    TIMER2_IRQHandler                        0x0800015f   Thumb Code     0  startup_gd32f30x_hd.o(.text)
    TIMER3_IRQHandler                        0x0800015f   Thumb Code     0  startup_gd32f30x_hd.o(.text)
    TIMER4_IRQHandler                        0x0800015f   Thumb Code     0  startup_gd32f30x_hd.o(.text)
    TIMER5_IRQHandler                        0x0800015f   Thumb Code     0  startup_gd32f30x_hd.o(.text)
    TIMER6_IRQHandler                        0x0800015f   Thumb Code     0  startup_gd32f30x_hd.o(.text)
    TIMER7_BRK_IRQHandler                    0x0800015f   Thumb Code     0  startup_gd32f30x_hd.o(.text)
    TIMER7_Channel_IRQHandler                0x0800015f   Thumb Code     0  startup_gd32f30x_hd.o(.text)
    TIMER7_TRG_CMT_IRQHandler                0x0800015f   Thumb Code     0  startup_gd32f30x_hd.o(.text)
    TIMER7_UP_IRQHandler                     0x0800015f   Thumb Code     0  startup_gd32f30x_hd.o(.text)
    UART3_IRQHandler                         0x0800015f   Thumb Code     0  startup_gd32f30x_hd.o(.text)
    UART4_IRQHandler                         0x0800015f   Thumb Code     0  startup_gd32f30x_hd.o(.text)
    USART1_IRQHandler                        0x0800015f   Thumb Code     0  startup_gd32f30x_hd.o(.text)
    USART2_IRQHandler                        0x0800015f   Thumb Code     0  startup_gd32f30x_hd.o(.text)
    USBD_HP_CAN0_TX_IRQHandler               0x0800015f   Thumb Code     0  startup_gd32f30x_hd.o(.text)
    USBD_LP_CAN0_RX0_IRQHandler              0x0800015f   Thumb Code     0  startup_gd32f30x_hd.o(.text)
    USBD_WKUP_IRQHandler                     0x0800015f   Thumb Code     0  startup_gd32f30x_hd.o(.text)
    WWDGT_IRQHandler                         0x0800015f   Thumb Code     0  startup_gd32f30x_hd.o(.text)
    __aeabi_memcpy                           0x08000169   Thumb Code    36  memcpya.o(.text)
    __aeabi_memcpy4                          0x08000169   Thumb Code     0  memcpya.o(.text)
    __aeabi_memcpy8                          0x08000169   Thumb Code     0  memcpya.o(.text)
    __scatterload                            0x0800018d   Thumb Code    28  init.o(.text)
    __scatterload_rt2                        0x0800018d   Thumb Code     0  init.o(.text)
    BusFault_Handler                         0x080001b1   Thumb Code     4  gd32f30x_it.o(i.BusFault_Handler)
    DebugMon_Handler                         0x080001b5   Thumb Code     2  gd32f30x_it.o(i.DebugMon_Handler)
    HardFault_Handler                        0x080001b7   Thumb Code     4  gd32f30x_it.o(i.HardFault_Handler)
    MemManage_Handler                        0x080001bb   Thumb Code     4  gd32f30x_it.o(i.MemManage_Handler)
    NMI_Handler                              0x080001bf   Thumb Code     2  gd32f30x_it.o(i.NMI_Handler)
    PendSV_Handler                           0x080001e9   Thumb Code     2  gd32f30x_it.o(i.PendSV_Handler)
    SVC_Handler                              0x080001eb   Thumb Code     2  gd32f30x_it.o(i.SVC_Handler)
    SysTick_Handler                          0x080001ed   Thumb Code     8  gd32f30x_it.o(i.SysTick_Handler)
    SystemInit                               0x080001f5   Thumb Code    66  system_gd32f30x.o(i.SystemInit)
    TIMER1_IRQHandler                        0x08000245   Thumb Code    36  cpu_c.o(i.TIMER1_IRQHandler)
    USART0_IRQHandler                        0x0800026d   Thumb Code    38  cpu_c.o(i.USART0_IRQHandler)
    UsageFault_Handler                       0x080002a5   Thumb Code     4  gd32f30x_it.o(i.UsageFault_Handler)
    __cpu_disable_int                        0x080002a9   Thumb Code    16  cpu_c.o(i.__cpu_disable_int)
    __cpu_goto_app                           0x080002b9   Thumb Code    36  cpu_c.o(i.__cpu_goto_app)
    __scatterload_copy                       0x080002e1   Thumb Code    14  handlers.o(i.__scatterload_copy)
    __scatterload_null                       0x080002ef   Thumb Code     2  handlers.o(i.__scatterload_null)
    __scatterload_zeroinit                   0x080002f1   Thumb Code    14  handlers.o(i.__scatterload_zeroinit)
    __str_cmp                                0x080002ff   Thumb Code    54  boot.o(i.__str_cmp)
    b_fun                                    0x08000335   Thumb Code    22  command.o(i.b_fun)
    boot_cpu_init                            0x0800038d   Thumb Code     8  cpu_c.o(i.boot_cpu_init)
    command_init                             0x08000395   Thumb Code   208  command.o(i.command_init)
    default_var                              0x08000495   Thumb Code    72  boot.o(i.default_var)
    delay_decrement                          0x080004ed   Thumb Code    18  systick.o(i.delay_decrement)
    delay_ms                                 0x08000505   Thumb Code    34  boot.o(i.delay_ms)
    eraseflash_fun                           0x08000531   Thumb Code     2  command.o(i.eraseflash_fun)
    falsh_erase_len                          0x08000533   Thumb Code    30  flash.o(i.falsh_erase_len)
    flash_erase_page                         0x08000551   Thumb Code    20  flash.o(i.flash_erase_page)
    flash_rd                                 0x08000565   Thumb Code    18  flash.o(i.flash_rd)
    flash_wr                                 0x08000577   Thumb Code    94  flash.o(i.flash_wr)
    fmc_bank0_ready_wait                     0x080005d5   Thumb Code    34  gd32f30x_fmc.o(i.fmc_bank0_ready_wait)
    fmc_bank0_state_get                      0x080005f9   Thumb Code    44  gd32f30x_fmc.o(i.fmc_bank0_state_get)
    fmc_bank1_ready_wait                     0x08000629   Thumb Code    34  gd32f30x_fmc.o(i.fmc_bank1_ready_wait)
    fmc_bank1_state_get                      0x0800064d   Thumb Code    44  gd32f30x_fmc.o(i.fmc_bank1_state_get)
    fmc_lock                                 0x0800067d   Thumb Code    34  gd32f30x_fmc.o(i.fmc_lock)
    fmc_page_erase                           0x080006a9   Thumb Code   222  gd32f30x_fmc.o(i.fmc_page_erase)
    fmc_unlock                               0x08000795   Thumb Code    52  gd32f30x_fmc.o(i.fmc_unlock)
    fmc_word_program                         0x080007d9   Thumb Code   178  gd32f30x_fmc.o(i.fmc_word_program)
    get_str                                  0x08000899   Thumb Code    18  boot.o(i.get_str)
    gpio_init                                0x080008b1   Thumb Code   164  gd32f30x_gpio.o(i.gpio_init)
    main                                     0x08000955   Thumb Code    20  main.o(i.main)
    n_boot_memu                              0x08000969   Thumb Code   186  boot.o(i.n_boot_memu)
    n_boot_printf                            0x08000bf1   Thumb Code    60  boot.o(i.n_boot_printf)
    nvic_irq_disable                         0x08000c2d   Thumb Code    18  gd32f30x_misc.o(i.nvic_irq_disable)
    nvic_irq_enable                          0x08000c45   Thumb Code   156  gd32f30x_misc.o(i.nvic_irq_enable)
    printf_var_fun                           0x08000ce9   Thumb Code    54  command.o(i.printf_var_fun)
    rcu_clock_freq_get                       0x08000e51   Thumb Code   310  gd32f30x_rcu.o(i.rcu_clock_freq_get)
    rcu_periph_clock_enable                  0x08000fa9   Thumb Code    28  gd32f30x_rcu.o(i.rcu_periph_clock_enable)
    rcu_periph_reset_disable                 0x08000fc9   Thumb Code    28  gd32f30x_rcu.o(i.rcu_periph_reset_disable)
    rcu_periph_reset_enable                  0x08000fe9   Thumb Code    28  gd32f30x_rcu.o(i.rcu_periph_reset_enable)
    rd_boot_var                              0x08001009   Thumb Code    40  boot.o(i.rd_boot_var)
    receive_command                          0x0800103d   Thumb Code   104  boot.o(i.receive_command)
    s_fun                                    0x080010bd   Thumb Code    58  command.o(i.s_fun)
    send_hex                                 0x0800115d   Thumb Code   104  boot.o(i.send_hex)
    send_str                                 0x080011c9   Thumb Code    22  boot.o(i.send_str)
    send_str_prefix                          0x080011e1   Thumb Code    18  boot.o(i.send_str_prefix)
    send_var                                 0x0800120d   Thumb Code    80  boot.o(i.send_var)
    setvar_fun                               0x0800125d   Thumb Code   118  command.o(i.setvar_fun)
    str_to_hex                               0x08001331   Thumb Code    28  boot.o(i.str_to_hex)
    systick_config                           0x08001465   Thumb Code    74  systick.o(i.systick_config)
    timer1_init                              0x080014b5   Thumb Code    78  cpu_c.o(i.timer1_init)
    timer_enable                             0x08001503   Thumb Code    10  gd32f30x_timer.o(i.timer_enable)
    timer_init                               0x0800150d   Thumb Code   122  gd32f30x_timer.o(i.timer_init)
    timer_interrupt_enable                   0x080015a5   Thumb Code     8  gd32f30x_timer.o(i.timer_interrupt_enable)
    timer_interrupt_flag_clear               0x080015ad   Thumb Code     8  gd32f30x_timer.o(i.timer_interrupt_flag_clear)
    timer_interrupt_flag_get                 0x080015b5   Thumb Code    24  gd32f30x_timer.o(i.timer_interrupt_flag_get)
    translate_command                        0x080015cd   Thumb Code    94  boot.o(i.translate_command)
    translate_tag                            0x08001645   Thumb Code    68  boot.o(i.translate_tag)
    uart0_init                               0x08001695   Thumb Code   106  uart.o(i.uart0_init)
    uart0_send_byte                          0x08001709   Thumb Code    28  uart.o(i.uart0_send_byte)
    usart_baudrate_set                       0x08001729   Thumb Code   140  gd32f30x_usart.o(i.usart_baudrate_set)
    usart_data_receive                       0x080017bd   Thumb Code    10  gd32f30x_usart.o(i.usart_data_receive)
    usart_data_transmit                      0x080017c7   Thumb Code     8  gd32f30x_usart.o(i.usart_data_transmit)
    usart_deinit                             0x080017d1   Thumb Code   136  gd32f30x_usart.o(i.usart_deinit)
    usart_enable                             0x08001861   Thumb Code    10  gd32f30x_usart.o(i.usart_enable)
    usart_flag_get                           0x0800186b   Thumb Code    30  gd32f30x_usart.o(i.usart_flag_get)
    usart_interrupt_disable                  0x08001889   Thumb Code    26  gd32f30x_usart.o(i.usart_interrupt_disable)
    usart_interrupt_enable                   0x080018a3   Thumb Code    26  gd32f30x_usart.o(i.usart_interrupt_enable)
    usart_interrupt_flag_get                 0x080018bd   Thumb Code    56  gd32f30x_usart.o(i.usart_interrupt_flag_get)
    usart_receive_config                     0x080018f5   Thumb Code    16  gd32f30x_usart.o(i.usart_receive_config)
    usart_transmit_config                    0x08001905   Thumb Code    16  gd32f30x_usart.o(i.usart_transmit_config)
    wr_boot_var                              0x08001915   Thumb Code    38  boot.o(i.wr_boot_var)
    xm_crc16_ccitt                           0x0800199d   Thumb Code    40  xmodem_crc16.o(i.xm_crc16_ccitt)
    xm_disp                                  0x080019c9   Thumb Code    22  xmodem.o(i.xm_disp)
    xm_inbyte                                0x080019e1   Thumb Code    52  xmodem.o(i.xm_inbyte)
    xm_outbyte                               0x08001a1d   Thumb Code    16  xmodem.o(i.xm_outbyte)
    xm_port_read                             0x08001a2d   Thumb Code    30  xmodem_hw.o(i.xm_port_read)
    xm_port_write                            0x08001a51   Thumb Code    28  xmodem_hw.o(i.xm_port_write)
    xm_receive                               0x08001a71   Thumb Code   406  xmodem.o(i.xm_receive)
    xm_timer                                 0x08001c35   Thumb Code    12  xmodem_hw.o(i.xm_timer)
    Region$$Table$$Base                      0x08001f54   Number         0  anon$$obj.o(Region$$Table)
    Region$$Table$$Limit                     0x08001f74   Number         0  anon$$obj.o(Region$$Table)
    SystemCoreClock                          0x20000004   Data           4  system_gd32f30x.o(.data)
    g_delay_ms                               0x20000008   Data           4  boot.o(.data)
    g_compel_out                             0x2000000c   Data           1  boot.o(.data)
    uart_rx_index                            0x2000000d   Data           1  boot.o(.data)
    uart_rx_ok                               0x2000000e   Data           1  boot.o(.data)
    receive_input                            0x20000010   Data           4  boot.o(.data)
    letf_mov                                 0x20000014   Data           4  boot.o(.data)
    command_index                            0x20000018   Data           1  command.o(.data)
    g_comman_num                             0x20000019   Data           1  command.o(.data)
    b_name                                   0x2000001c   Data           4  command.o(.data)
    s_name                                   0x20000020   Data           4  command.o(.data)
    printf_var_name                          0x20000024   Data           4  command.o(.data)
    setvar_name                              0x20000028   Data           4  command.o(.data)
    eraseflash_name                          0x2000002c   Data           4  command.o(.data)
    var_name                                 0x20000030   Data          32  command.o(.data)
    xmodem_timeout                           0x20000054   Data           2  xmodem.o(.data)
    gt_boot_var                              0x20000058   Data          28  boot.o(.bss)
    uart_rx_buf                              0x20000074   Data        2048  boot.o(.bss)
    flash_buf                                0x20000874   Data        1024  boot.o(.bss)
    gt_comman                                0x20000c74   Data         800  command.o(.bss)
    gp_comman_tag                            0x20000f94   Data          40  command.o(.bss)
    xm_buf                                   0x20000fbc   Data        1030  xmodem.o(.bss)
    __initial_sp                             0x200017c8   Data           0  startup_gd32f30x_hd.o(STACK)



==============================================================================

Memory Map of the image

  Image Entry point : 0x08000131

  Load Region LR_IROM1 (Base: 0x08000000, Size: 0x00001fcc, Max: 0x00080000, ABSOLUTE)

    Execution Region ER_IROM1 (Base: 0x08000000, Size: 0x00001f74, Max: 0x00080000, ABSOLUTE)

    Base Addr    Size         Type   Attr      Idx    E Section Name        Object

    0x08000000   0x00000130   Data   RO         4324    RESET               startup_gd32f30x_hd.o
    0x08000130   0x00000000   Code   RO         4884  * .ARM.Collect$$$$00000000  mc_w.l(entry.o)
    0x08000130   0x00000004   Code   RO         4891    .ARM.Collect$$$$00000001  mc_w.l(entry2.o)
    0x08000134   0x00000004   Code   RO         4894    .ARM.Collect$$$$00000004  mc_w.l(entry5.o)
    0x08000138   0x00000000   Code   RO         4896    .ARM.Collect$$$$00000008  mc_w.l(entry7b.o)
    0x08000138   0x00000000   Code   RO         4898    .ARM.Collect$$$$0000000A  mc_w.l(entry8b.o)
    0x08000138   0x00000008   Code   RO         4899    .ARM.Collect$$$$0000000B  mc_w.l(entry9a.o)
    0x08000140   0x00000000   Code   RO         4901    .ARM.Collect$$$$0000000D  mc_w.l(entry10a.o)
    0x08000140   0x00000000   Code   RO         4903    .ARM.Collect$$$$0000000F  mc_w.l(entry11a.o)
    0x08000140   0x00000004   Code   RO         4892    .ARM.Collect$$$$00002712  mc_w.l(entry2.o)
    0x08000144   0x00000024   Code   RO         4325    .text               startup_gd32f30x_hd.o
    0x08000168   0x00000024   Code   RO         4887    .text               mc_w.l(memcpya.o)
    0x0800018c   0x00000024   Code   RO         4905    .text               mc_w.l(init.o)
    0x080001b0   0x00000004   Code   RO          162    i.BusFault_Handler  gd32f30x_it.o
    0x080001b4   0x00000002   Code   RO          163    i.DebugMon_Handler  gd32f30x_it.o
    0x080001b6   0x00000004   Code   RO          164    i.HardFault_Handler  gd32f30x_it.o
    0x080001ba   0x00000004   Code   RO          165    i.MemManage_Handler  gd32f30x_it.o
    0x080001be   0x00000002   Code   RO          166    i.NMI_Handler       gd32f30x_it.o
    0x080001c0   0x00000028   Code   RO          249    i.NVIC_SetPriority  systick.o
    0x080001e8   0x00000002   Code   RO          167    i.PendSV_Handler    gd32f30x_it.o
    0x080001ea   0x00000002   Code   RO          168    i.SVC_Handler       gd32f30x_it.o
    0x080001ec   0x00000008   Code   RO          169    i.SysTick_Handler   gd32f30x_it.o
    0x080001f4   0x00000050   Code   RO          293    i.SystemInit        system_gd32f30x.o
    0x08000244   0x00000028   Code   RO         4654    i.TIMER1_IRQHandler  cpu_c.o
    0x0800026c   0x00000038   Code   RO         4655    i.USART0_IRQHandler  cpu_c.o
    0x080002a4   0x00000004   Code   RO          170    i.UsageFault_Handler  gd32f30x_it.o
    0x080002a8   0x00000010   Code   RO         4656    i.__cpu_disable_int  cpu_c.o
    0x080002b8   0x00000028   Code   RO         4657    i.__cpu_goto_app    cpu_c.o
    0x080002e0   0x0000000e   Code   RO         4909    i.__scatterload_copy  mc_w.l(handlers.o)
    0x080002ee   0x00000002   Code   RO         4910    i.__scatterload_null  mc_w.l(handlers.o)
    0x080002f0   0x0000000e   Code   RO         4911    i.__scatterload_zeroinit  mc_w.l(handlers.o)
    0x080002fe   0x00000036   Code   RO         4442    i.__str_cmp         boot.o
    0x08000334   0x00000058   Code   RO         4588    i.b_fun             command.o
    0x0800038c   0x00000008   Code   RO         4658    i.boot_cpu_init     cpu_c.o
    0x08000394   0x00000100   Code   RO         4589    i.command_init      command.o
    0x08000494   0x00000058   Code   RO         4443    i.default_var       boot.o
    0x080004ec   0x00000018   Code   RO          251    i.delay_decrement   systick.o
    0x08000504   0x0000002c   Code   RO         4444    i.delay_ms          boot.o
    0x08000530   0x00000002   Code   RO         4590    i.eraseflash_fun    command.o
    0x08000532   0x0000001e   Code   RO         4710    i.falsh_erase_len   flash.o
    0x08000550   0x00000014   Code   RO         4711    i.flash_erase_page  flash.o
    0x08000564   0x00000012   Code   RO         4712    i.flash_rd          flash.o
    0x08000576   0x0000005e   Code   RO         4713    i.flash_wr          flash.o
    0x080005d4   0x00000022   Code   RO         1812    i.fmc_bank0_ready_wait  gd32f30x_fmc.o
    0x080005f6   0x00000002   PAD
    0x080005f8   0x00000030   Code   RO         1813    i.fmc_bank0_state_get  gd32f30x_fmc.o
    0x08000628   0x00000022   Code   RO         1817    i.fmc_bank1_ready_wait  gd32f30x_fmc.o
    0x0800064a   0x00000002   PAD
    0x0800064c   0x00000030   Code   RO         1818    i.fmc_bank1_state_get  gd32f30x_fmc.o
    0x0800067c   0x0000002c   Code   RO         1827    i.fmc_lock          gd32f30x_fmc.o
    0x080006a8   0x000000ec   Code   RO         1829    i.fmc_page_erase    gd32f30x_fmc.o
    0x08000794   0x00000044   Code   RO         1830    i.fmc_unlock        gd32f30x_fmc.o
    0x080007d8   0x000000c0   Code   RO         1831    i.fmc_word_program  gd32f30x_fmc.o
    0x08000898   0x00000018   Code   RO         4445    i.get_str           boot.o
    0x080008b0   0x000000a4   Code   RO         2086    i.gpio_init         gd32f30x_gpio.o
    0x08000954   0x00000014   Code   RO            4    i.main              main.o
    0x08000968   0x00000288   Code   RO         4446    i.n_boot_memu       boot.o
    0x08000bf0   0x0000003c   Code   RO         4447    i.n_boot_printf     boot.o
    0x08000c2c   0x00000018   Code   RO         2400    i.nvic_irq_disable  gd32f30x_misc.o
    0x08000c44   0x000000a4   Code   RO         2401    i.nvic_irq_enable   gd32f30x_misc.o
    0x08000ce8   0x00000168   Code   RO         4591    i.printf_var_fun    command.o
    0x08000e50   0x00000158   Code   RO         2599    i.rcu_clock_freq_get  gd32f30x_rcu.o
    0x08000fa8   0x00000020   Code   RO         2617    i.rcu_periph_clock_enable  gd32f30x_rcu.o
    0x08000fc8   0x00000020   Code   RO         2620    i.rcu_periph_reset_disable  gd32f30x_rcu.o
    0x08000fe8   0x00000020   Code   RO         2621    i.rcu_periph_reset_enable  gd32f30x_rcu.o
    0x08001008   0x00000034   Code   RO         4449    i.rd_boot_var       boot.o
    0x0800103c   0x00000080   Code   RO         4450    i.receive_command   boot.o
    0x080010bc   0x000000a0   Code   RO         4592    i.s_fun             command.o
    0x0800115c   0x0000006c   Code   RO         4452    i.send_hex          boot.o
    0x080011c8   0x00000016   Code   RO         4453    i.send_str          boot.o
    0x080011de   0x00000002   PAD
    0x080011e0   0x0000002c   Code   RO         4454    i.send_str_prefix   boot.o
    0x0800120c   0x00000050   Code   RO         4455    i.send_var          boot.o
    0x0800125c   0x000000d4   Code   RO         4593    i.setvar_fun        command.o
    0x08001330   0x0000001c   Code   RO         4456    i.str_to_hex        boot.o
    0x0800134c   0x00000110   Code   RO          294    i.system_clock_120m_hxtal  system_gd32f30x.o
    0x0800145c   0x00000008   Code   RO          295    i.system_clock_config  system_gd32f30x.o
    0x08001464   0x00000050   Code   RO          252    i.systick_config    systick.o
    0x080014b4   0x0000004e   Code   RO         4659    i.timer1_init       cpu_c.o
    0x08001502   0x0000000a   Code   RO         3507    i.timer_enable      gd32f30x_timer.o
    0x0800150c   0x00000098   Code   RO         3517    i.timer_init        gd32f30x_timer.o
    0x080015a4   0x00000008   Code   RO         3524    i.timer_interrupt_enable  gd32f30x_timer.o
    0x080015ac   0x00000008   Code   RO         3525    i.timer_interrupt_flag_clear  gd32f30x_timer.o
    0x080015b4   0x00000018   Code   RO         3526    i.timer_interrupt_flag_get  gd32f30x_timer.o
    0x080015cc   0x00000078   Code   RO         4457    i.translate_command  boot.o
    0x08001644   0x00000050   Code   RO         4458    i.translate_tag     boot.o
    0x08001694   0x00000074   Code   RO         4331    i.uart0_init        uart.o
    0x08001708   0x00000020   Code   RO         4332    i.uart0_send_byte   uart.o
    0x08001728   0x00000094   Code   RO         3894    i.usart_baudrate_set  gd32f30x_usart.o
    0x080017bc   0x0000000a   Code   RO         3897    i.usart_data_receive  gd32f30x_usart.o
    0x080017c6   0x00000008   Code   RO         3898    i.usart_data_transmit  gd32f30x_usart.o
    0x080017ce   0x00000002   PAD
    0x080017d0   0x00000090   Code   RO         3899    i.usart_deinit      gd32f30x_usart.o
    0x08001860   0x0000000a   Code   RO         3903    i.usart_enable      gd32f30x_usart.o
    0x0800186a   0x0000001e   Code   RO         3905    i.usart_flag_get    gd32f30x_usart.o
    0x08001888   0x0000001a   Code   RO         3911    i.usart_interrupt_disable  gd32f30x_usart.o
    0x080018a2   0x0000001a   Code   RO         3912    i.usart_interrupt_enable  gd32f30x_usart.o
    0x080018bc   0x00000038   Code   RO         3914    i.usart_interrupt_flag_get  gd32f30x_usart.o
    0x080018f4   0x00000010   Code   RO         3927    i.usart_receive_config  gd32f30x_usart.o
    0x08001904   0x00000010   Code   RO         3941    i.usart_transmit_config  gd32f30x_usart.o
    0x08001914   0x00000034   Code   RO         4459    i.wr_boot_var       boot.o
    0x08001948   0x00000052   Code   RO         4751    i.xm_check          xmodem.o
    0x0800199a   0x00000002   PAD
    0x0800199c   0x0000002c   Code   RO         4824    i.xm_crc16_ccitt    xmodem_crc16.o
    0x080019c8   0x00000016   Code   RO         4752    i.xm_disp           xmodem.o
    0x080019de   0x00000002   Code   RO         4753    i.xm_flushinput     xmodem.o
    0x080019e0   0x0000003c   Code   RO         4754    i.xm_inbyte         xmodem.o
    0x08001a1c   0x00000010   Code   RO         4757    i.xm_outbyte        xmodem.o
    0x08001a2c   0x00000024   Code   RO         4850    i.xm_port_read      xmodem_hw.o
    0x08001a50   0x00000020   Code   RO         4851    i.xm_port_write     xmodem_hw.o
    0x08001a70   0x000001c4   Code   RO         4758    i.xm_receive        xmodem.o
    0x08001c34   0x00000010   Code   RO         4852    i.xm_timer          xmodem_hw.o
    0x08001c44   0x00000200   Data   RO         4825    .constdata          xmodem_crc16.o
    0x08001e44   0x00000093   Data   RO         4461    .conststring        boot.o
    0x08001ed7   0x00000001   PAD
    0x08001ed8   0x0000007c   Data   RO         4595    .conststring        command.o
    0x08001f54   0x00000020   Data   RO         4907    Region$$Table       anon$$obj.o


    Execution Region RW_IRAM1 (Base: 0x20000000, Size: 0x000017c8, Max: 0x00010000, ABSOLUTE)

    Base Addr    Size         Type   Attr      Idx    E Section Name        Object

    0x20000000   0x00000004   Data   RW          253    .data               systick.o
    0x20000004   0x00000004   Data   RW          296    .data               system_gd32f30x.o
    0x20000008   0x00000010   Data   RW         4462    .data               boot.o
    0x20000018   0x00000038   Data   RW         4596    .data               command.o
    0x20000050   0x00000006   Data   RW         4761    .data               xmodem.o
    0x20000056   0x00000002   PAD
    0x20000058   0x00000c1c   Zero   RW         4460    .bss                boot.o
    0x20000c74   0x00000348   Zero   RW         4594    .bss                command.o
    0x20000fbc   0x00000406   Zero   RW         4760    .bss                xmodem.o
    0x200013c2   0x00000006   PAD
    0x200013c8   0x00000400   Zero   RW         4322    STACK               startup_gd32f30x_hd.o


==============================================================================

Image component sizes


      Code (inc. data)   RO Data    RW Data    ZI Data      Debug   Object Name

      1632        612        147         16       3100      11307   boot.o
      1078        616        124         56        840       4530   command.o
       238         26          0          0          0       5727   cpu_c.o
       162          0          0          0          0       2703   flash.o
       704         62          0          0          0      11350   gd32f30x_fmc.o
       164          0          0          0          0        944   gd32f30x_gpio.o
        32          0          0          0          0       4194   gd32f30x_it.o
       188         14          0          0          0       1541   gd32f30x_misc.o
       440         46          0          0          0      20456   gd32f30x_rcu.o
       202         30          0          0          0      19333   gd32f30x_timer.o
       490         16          0          0          0      14528   gd32f30x_usart.o
        20          0          0          0          0      25247   main.o
        36          8        304          0       1024        928   startup_gd32f30x_hd.o
       360         30          0          4          0       2175   system_gd32f30x.o
       144         20          0          4          0      28282   systick.o
       148         14          0          0          0       1063   uart.o
       634         54          0          6       1030       4728   xmodem.o
        44          4        512          0          0       1161   xmodem_crc16.o
        84         14          0          0          0       1954   xmodem_hw.o

    ----------------------------------------------------------------------
      6810       1566       1120         88       6000     162151   Object Totals
         0          0         32          0          0          0   (incl. Generated)
        10          0          1          2          6          0   (incl. Padding)

    ----------------------------------------------------------------------

      Code (inc. data)   RO Data    RW Data    ZI Data      Debug   Library Member Name

         0          0          0          0          0          0   entry.o
         0          0          0          0          0          0   entry10a.o
         0          0          0          0          0          0   entry11a.o
         8          4          0          0          0          0   entry2.o
         4          0          0          0          0          0   entry5.o
         0          0          0          0          0          0   entry7b.o
         0          0          0          0          0          0   entry8b.o
         8          4          0          0          0          0   entry9a.o
        30          0          0          0          0          0   handlers.o
        36          8          0          0          0         68   init.o
        36          0          0          0          0         68   memcpya.o

    ----------------------------------------------------------------------
       122         16          0          0          0        136   Library Totals
         0          0          0          0          0          0   (incl. Padding)

    ----------------------------------------------------------------------

      Code (inc. data)   RO Data    RW Data    ZI Data      Debug   Library Name

       122         16          0          0          0        136   mc_w.l

    ----------------------------------------------------------------------
       122         16          0          0          0        136   Library Totals

    ----------------------------------------------------------------------

==============================================================================


      Code (inc. data)   RO Data    RW Data    ZI Data      Debug   

      6932       1582       1120         88       6000     153891   Grand Totals
      6932       1582       1120         88       6000     153891   ELF Image Totals
      6932       1582       1120         88          0          0   ROM Totals

==============================================================================

    Total RO  Size (Code + RO Data)                 8052 (   7.86kB)
    Total RW  Size (RW Data + ZI Data)              6088 (   5.95kB)
    Total ROM Size (Code + RO Data + RW Data)       8140 (   7.95kB)

==============================================================================

