:020000040800F2
:10000000C817002045010008BF010008B70100081B
:10001000BB010008B1010008A502000800000000B3
:10002000000000000000000000000000EB010008DC
:10003000B501000800000000E9010008ED0100081A
:100040005F0100085F0100085F0100085F01000810
:100050005F0100085F0100085F0100085F01000800
:100060005F0100085F0100085F0100085F010008F0
:100070005F0100085F0100085F0100085F010008E0
:100080005F0100085F0100085F0100085F010008D0
:100090005F0100085F0100085F0100085F010008C0
:1000A0005F0100085F0100085F0100085F010008B0
:1000B000450200085F0100085F0100085F010008B9
:1000C0005F0100085F0100085F0100085F01000890
:1000D0005F0100086D0200085F0100085F01000871
:1000E0005F0100085F0100085F0100085F01000870
:1000F0005F0100085F0100085F0100085F01000860
:100100005F0100085F0100085F0100085F0100084F
:100110005F0100085F0100085F0100085F0100083F
:100120005F0100085F0100085F0100085F0100082F
:10013000DFF80CD000F02AF8004800475509000805
:10014000C81700200648804706480047FEE7FEE73C
:10015000FEE7FEE7FEE7FEE7FEE7FEE7FEE7FEE777
:10016000F50100083101000840EA01039B0703D0B4
:1001700009E008C9121F08C0042AFAD203E011F8E6
:10018000013B00F8013B521EF9D27047064C074D67
:1001900006E0E06840F0010394E807009847103457
:1001A000AC42F6D3FFF7C8FF541F0008741F0008C5
:1001B00000BFFEE7704700BFFEE700BFFEE77047E5
:1001C00010B5002807DA0A07140E054A00F00F03DD
:1001D0001B1FD45403E00A07130E024A135410BD28
:1001E00018ED00E000E400E07047704710B500F043
:1001F0007DF910BD10B51048006840F470000E493C
:1002000008600E48006840F001000C4908600020BA
:100210004860C86208460068094908400749086004
:100220004FF41F0088600846006820F480200860B2
:1002300001F014F910BD000088ED00E0001002404C
:10024000FFFFF6FE10B50121880701F0B3F950B1A8
:1002500005480068401E0449086001F0EBFC0121DC
:10026000880701F0A3F910BD0800002010B5002494
:100270000849094801F022FB50B1012007490870E4
:10028000054801F09BFAC4B2204605490968884731
:1002900010BD000005030500003801400C000020DF
:1002A0001000002000BFFEE710B51C2000F0BEFCCF
:1002B000252000F0BBFC10BD38B504462068074976
:1002C0000840B0F1005F07D160680090009D206891
:1002D00080F3088800BFA847012038BD0000FE2F2A
:1002E00002E008C8121F08C1002AFAD170477047FF
:1002F000002001E001C1121F002AFBD1704710B598
:100300000246002309E010780C78A04201D00020BA
:1003100010BD521C491C581CC3B2087810B110788B
:100320000028F0D1087818B9107808B91846EFE716
:100330000020EDE710B505A000F046FFFFF7B4FF81
:1003400011498869FFF7B8FF10BD0000C4DABACBC5
:10035000C6F4B6AFD6D0A3ACC7EBB5C8B4FD202E5B
:100360002E2E2E2E2E2E2E2E2E2E2E2E2E2E2E2EAD
:100370002E2E2E2E2E2E2E2E2E2E2E2E2E2E2E2E9D
:100380002E2E2E2E0D0A00005800002010B501F070
:1003900091F810BD00203349087033480068334994
:1003A000304A127801EB0211086031482F492D4A7A
:1003B000127801EB021148602A480078401C294954
:1003C00008702C4801682948264A127800EB021070
:1003D000016029482549234A127801EB021148603F
:1003E00020480078401C1F490870244800681F49B5
:1003F0001C4A127801EB0211086021481B49194A76
:10040000127801EB0211486016480078401C15492B
:1004100008701C4801681548124A127800EB021057
:100420000160194811490F4A127801EB0211486026
:100430000C480078401C0B490870144800680B49B0
:10044000084A127801EB0211086011490748054A71
:10045000127800EB0210416002480078401C01490C
:1004600008707047180000201C000020740C002049
:100470003503000820000020BD10000824000020E3
:10048000E90C0008280000205D1200082C00002064
:100490003105000810B50120104908605820486057
:1004A0004FF0006088604FF44050C8600C4808610D
:1004B000001448610B488861E6200B4908701D2232
:1004C00006490948401CFFF74FFE054800F040F878
:1004D0001D220549024800F04EF810BD58000020CA
:1004E000003000080040000874080020044800683C
:1004F00020B103480068401E0149086070470000B1
:10050000000000200A21B0FBF1F1074A116000BF92
:1005100005490968002900DC704704490978012968
:10052000F6D100BFF8E70000080000200C00002012
:10053000704770B506460C46254606E0304600F08A
:1005400007F806F50066A5F50065002DF6DC70BD20
:1005500010B5044600F01EF9204600F0A5F800F0A2
:100560008DF810BD04E0037801F8013B521E401CD9
:10057000002AF8D17047F8B507460C46154605F035
:10058000030008B92E4604E005F00300C0F10400A2
:10059000461900F0FFF818E014F8010B8DF8000080
:1005A00014F8010B8DF8010014F8010B8DF802000E
:1005B00014F8010B8DF803003846009900F00CF98F
:1005C0001420FFF79FFF3F1D361F002EE4D100F0DF
:1005D00055F8F8BD00B50346012200BF00F00CF845
:1005E00002465B1E012A01D1002BF7D1012A00D15E
:1005F0000422104600BD000000200A49C96801F02D
:10060000010109B101200CE00649C96801F010019F
:1006100009B1032005E00349C96801F0040101B1F3
:10062000022070470020024000B50346012200BFAF
:1006300000F00CF802465B1E012A01D1002BF7D115
:10064000012A00D10422104600BD000000200A4902
:10065000C96C01F0010109B101200CE00649C96C27
:1006600001F0100109B1032005E00349C96C01F054
:10067000040101B1022070470020024008480069CF
:1006800040F080000649086106480088B0F5007F08
:1006900004D90846006D40F08000086570470000EE
:1006A00000200240E0F7FF1F30B5054636480088BD
:1006B000B0F5007F48D9354885421ED24FF47020EE
:1006C000FFF788FF0446002C5BD13148006940F0F9
:1006D00002002F49086108464561006940F040006A
:1006E00008614FF47020FFF775FF04462848006941
:1006F00020F002002649086143E04FF47020FFF724
:1007000093FF0446002C3CD12148006D40F00200CC
:100710001F49086508464565C06900F0020008B138
:10072000084645611A48006D40F0400018490865C8
:100730004FF47020FFF778FF04461548006D20F055
:100740000200134908651CE04FF47020FFF742FFD8
:100750000446B4B90E48006940F002000C49086133
:1007600008464561006940F0400008614FF4702080
:10077000FFF730FF04460648006920F002000449F4
:100780000861204630BD0000E0F7FF1FFFFF0708AB
:10079000002002400C48006900F0800020B10B48A6
:1007A000094948600A4848600A480088B0F5007F57
:1007B00009D90548006D00F0800020B103480249C6
:1007C000486403484864704700200240230167459D
:1007D000AB89EFCDE0F7FF1F70B504460D4600264C
:1007E0002A480088B0F5007F35D92948844219D2BB
:1007F0004FF47020FFF7EEFE0646002E43D1254849
:10080000006940F001002349086125604FF4702021
:10081000FFF7E0FE06461F48006920F001001D4971
:10082000086130E04FF47020FFF7FEFE064656BB2D
:100830001848006D40F001001649086525604FF426
:100840007020FFF7F1FE06461248006D20F001000F
:100850001049086517E04FF47020FFF7BBFE06460D
:100860008EB90C48006940F001000A490861256012
:100870004FF47020FFF7AEFE06460648006920F0F0
:10088000010004490861304670BD0000E0F7FF1F19
:10089000FFFF07080020024000BF0448007801283D
:1008A000FBD1002001490870704700000E000020B5
:1008B000F0B50C4616460025002204F00F0504F0A2
:1008C000100747B1042E05D145F00305C76B1F4340
:1008D000C76300E03543002118E001278F401F4027
:1008E00097B102684FEA810C0F2707FA0CF7BA4359
:1008F0008F0005FA07F73A43282C01D1436102E043
:10090000482C00D1036102604F1CB9B20829E4D31E
:1009100008211CE001278F401F40B7B14268A1F1B8
:1009200008074FEA870C0F2707FA0CF7BA43A1F123
:100930000807BF0005FA07F73A43282C01D14361A5
:1009400002E0482C00D1036142604F1CB9B210296B
:10095000E0D3F0BD00F086FD00F09CFEFFF716FD31
:1009600000F002F800BFFEE710B500F04DFBFFF706
:1009700011FD2CA000F028FC2DA000F025FC37A0D4
:1009800000F022FC40A000F01FFC44A000F01CFC82
:10099000012148A000F02CF94BA000F015FC51A05B
:1009A00000F012FC5D485E4908605E4804780EE085
:1009B0002146621ED4B25CA000F01AF94FF47A709E
:1009C000FFF7A0FD5A480078012800D10BE0002C69
:1009D000EED1584800F0F8FBFFF766FC51498869F2
:1009E000FFF76AFC10BD54A000F0EEFB62A000F01F
:1009F000EBFB64A000F0E8FB68A000F0E5FB6DA055
:100A000000F0E2FB70A000F0DFFB002076490870E8
:100A100000BF76A000F0E4FBFFF73EFF00F0D6FD3C
:100A2000F7E700000D0A0D0A0D0A0D0A0D0A000075
:100A30000D0A546F20706179207472696275746553
:100A400020746F204A6F686E20766F6E204E657539
:100A50006D616E6E0D0A0D0A00000000C6ECB5E374
:100A6000BFC6BCBCCAC7D2BBBCD2D7A8D7A2CEEF28
:100A7000C1AACDF8B7BDB0B8B5C4C6F3D2B5A1A36D
:100A80000D0A0D0A00000000D7F7D5DF3A09090961
:100A9000C1ACD6BEB0B20D0A0D0A0000B5E7BBB0BE
:100AA0003A09090931333531303937393630340DA7
:100AB0000A0D0A00B0E6B1BEBAC53A090909312EDD
:100AC000300D0A0D0A000000BFAAB7A2B0E5D0CDD4
:100AD000BAC53A0909D0C7BFD5C5C9474433320D95
:100AE0000A0D0A00B5B9BCC6CAB1BDE1CAF8BAF36D
:100AF000BDABC6F4B6AFC4DABACB2CB0B4CFC2C863
:100B0000CED2E2BCFCBDABBDF8C8EBC3FCC1EED09D
:100B1000D0C4A3CABDA1A30D0A0D0A003D10000850
:100B2000100000205800002025640D0A000000007D
:100B30000C000020441E00080D0A23232323232336
:100B40002323232323232323232323232520C6EC0A
:100B5000B5E3BFC6BCBC20626F6F74312E30202657
:100B60002323232323232323232323232323232355
:100B7000232323230D0A0000D6F7D1A1CFEE3A0D8F
:100B80000A0000002020205B735D20B7A2CBCD209F
:100B900062696E20CEC4BCFE0D0A00002020205BDE
:100BA000655D20B2C1B3FDD5FBB8F620666C6173FC
:100BB000680D0A002020205B625D20C6F4B6AFC439
:100BC000DABACB0D0A000000C7EBD1A1D4F1B9A667
:100BD000C4DCBBF2D5DFCAE4C8EBC3FCC1EED0D0A5
:100BE0003A200D0A000000000E0000202000000046
:100BF00070B504460D4615E0207825280ED1641CFA
:100C00002078642803D1284600F000FB09E0207812
:100C1000782806D1284600F0A1FA02E0207800F0FA
:100C200073FD641C20780028E6D170BD00F01F021F
:100C300001219140024A431142F8231070470000FD
:100C400080E100E0F0B50B46002100240025244E91
:100C5000366806F4E066B6F5E06F02D100BF042501
:100C600026E01F4E366806F4E066B6F5C06F02D186
:100C7000012403251CE01A4E366806F4E066B6F53A
:100C8000A06F02D10224022512E0154E366806F448
:100C9000E066B6F5806F02D10324012508E0104E0E
:100CA000366806F4E066B6F5407F01D104240025DD
:100CB000C4F1040603FA06F1C5F104070F26FE404D
:100CC000164031430901074E315400F01F07012639
:100CD000BE404711BF0007F1E027C7F80061F0BD33
:100CE0000CED00E000E400E010B50D4801680DA037
:100CF000FFF77EFF0A4841681AA0FFF779FF08480E
:100D0000816826A0FFF774FF0548016932A0FFF74C
:100D10006FFF034881693FA0FFF76AFF10BD000025
:100D20005800002020202074696D656F75743A208A
:100D30002020202020202020202020257820202056
:100D400020202020202020202020202020202020A3
:100D500020202020CFB5CDB3C6F4B6AFD1D3CAB1D1
:100D60000D0A00002020206D6163683A20202020B9
:100D70002020202020202020202020257820202016
:100D80002020202020202020202020202020202063
:100D9000202020BBFAC6F7C2EB0D0A0020202062FB
:100DA0006F6F745F626173653A20202020202020DD
:100DB00020202025782020202020202020202020D6
:100DC000202020202020626F6F7420B4E6B7C5B5C4
:100DD000D8D6B70D0A0000002020207661725F622D
:100DE0006173652020202020202020202020202525
:100DF000782020202020202020202020202020209B
:100E0000202076617220B4E6B7C5B5D8D6B70D0AF2
:100E1000000000002020206B65726E656C5F6261CF
:100E200073652020202020202020202578202020CD
:100E300020202020202020202020202020206B6522
:100E4000726E656C20B4E6B7C5B5D8D6B70D0A008A
:100E50002DE9F04F8CB0074600200A904AA090E898
:100E6000004CC068CDE905BECDF810A007900FF288
:100E70001C1ADAE9000ACDE9020A0FF2101ADAE9BF
:100E8000000ACDE9000A44484068C0F381000B9095
:100E90000B9820B1012804D002283FD103E03F4A3B
:100EA0003EE03E4A3CE03C48406800F4803CBCF5F3
:100EB000803F12D13848C06A00F08048B8F1000F76
:100EC00001D1364C00E0364C3348406800F400391C
:100ED000B9F5003F02D1334C00E0324C2E48406857
:100EE000C0F383412C48406800F0006008B141F035
:100EF00010012948406800F0804008B141F020010D
:100F00000F2901D2891C06E00F2903D33E2901D8FD
:100F1000491C00E03F2104FB01F201E01F4A00BF31
:100F200000BF1D484068C0F3031504A8465D22FABF
:100F300006F319484068C0F3022502A8465D23FA6B
:100F400006F0099014484068C0F3C2251DF80560FA
:100F500023FA06F0089037B1012F06D0022F06D0F1
:100F6000032F0AD106E00A9208E00A9306E00998E6
:100F70000A9003E008980A9000E000BF00BF0A98BA
:100F80000CB0BDE8F08F0000000000000000000081
:100F900001020304060708090010024000127A004B
:100FA000006CDC0200093D00064A02EB9011096862
:100FB00000F01F0301229A401143024B03EB9012F1
:100FC0001160704700100240064A02EB9011096858
:100FD00000F01F0301229A409143024B03EB901251
:100FE0001160704700100240064A02EB9011096838
:100FF00000F01F0301229A401143024B03EB9012B1
:10100000116070470010024010B51D2208490948C0
:10101000FFF7A8FA06480078E62802D0FFF73AFA68
:1010200005E01D220249491C0348FFF79DF810BD49
:1010300074080020003000085800002010B5044655
:101040000D2C06D101201749087017A000F0BCF83C
:1010500010BD082C12D11548007800B9F8E71348E4
:101060000078401E11490870114800F0ADF811A039
:1010700000F0AAF80E4800F0A7F8E9E70E480B497F
:101080000978445409490978481CC11700EB5151AB
:10109000C912A0EBC121054A1170204600F034FBB3
:1010A00000BFD5E70E0000200D0A00000D00002053
:1010B00014000020200000007400002010B50E492C
:1010C00088694FF4C821FFF734FA0CA000F07CF8CF
:1010D00040F20531194800F0D7FB4FF420510020B1
:1010E00000F0C6FC40F20531144800F0DAFB14A011
:1010F00000F06AF810BD000058000020CFB5CDB355
:10110000D2D1BEADD7BCB1B8BECDD0F72CC7EBB7EE
:10111000A2CBCDC8EDBCFEB0FCA1A3B7A2CBCDB98C
:10112000FDB3CCD6D0C7EBB2BBD2AACAE4C8EBC8D9
:10113000CEBACEBCFCA1A3200D0A000000380140AD
:101140000D0AD2D1B3C9B9A6C9D5D0B4B5BD2066F0
:101150006C61736820200D0A000000002DE9F04149
:1011600005460124A0462F46002606E02401A5429C
:1011700000D204E008F10108761C102EF6DB00BF57
:1011800010A000F021F8002618E02046E11704EB3B
:1011900011710C11B5FBF4F7B5FBF4F004FB10551D
:1011A0000A2F05DA07F13001C8B200F0ADFA04E009
:1011B00007F15701C8B200F0A7FA761C4645E4DBF8
:1011C000BDE8F0813078000010B5044603E014F863
:1011D000010B00F099FA20780028F8D110BD00002A
:1011E00010B504462046FFF7EFFF02A0FFF7ECFF23
:1011F00010BD0000232073746D33325F626F6F7413
:1012000020232020243E3E3A000000002DE9F0413A
:10121000044601250127A046002607E005EB8500CE
:101220004500AC4200D203E07F1C761C0A2EF5DBA1
:1012300000BF00260EE00A2095FBF0F5B4FBF5F8A0
:10124000B4FBF5F005FB104408F13001C8B200F022
:101250005BFA761CBE42EEDBBDE8F08170B500247F
:101260000BE01C4A52F824101B4A5068FFF747F85D
:10127000054605B103E0601CC4B2202CF1D300BFC9
:101280001DB916A0FFF7A0FF70BD54B91A48007829
:10129000012803D019A0FFF797FFF5E7FFF7FAF849
:1012A000F2E715480078022803D014A0FFF78CFF5E
:1012B000EAE71A4E601E06EB80060749886800F0D0
:1012C00037F8306000F026FB15A0FFF77DFF00BF68
:1012D000DAE7000030000020940F0020B2CECAFDF3
:1012E000D3D0CEF3A3ACC7EBD6D8D0C2CAE4C8EBF8
:1012F000A1A30D0A0000000019000020B2CECAFD13
:10130000B8F6CAFDB2BBB6D4A3ACC7EBD6D8D0C230
:10131000CAE4C8EBA1A30D0A000000005800002099
:10132000B2CECAFDC9E8D6C3B3C9B9A60D0A00003A
:101330000146002006E000EB800250000A78303AB7
:101340001044491C0A78002AF5D17047002000217A
:101350003E4A126842F480323C4B1A6000BF401C87
:101360003A4A126802F4003111B9B0F5006FF6D1B3
:10137000364A126802F400320AB900BFFEE7334A67
:10138000D26942F08052314BDA61314A126842F43C
:1013900040422F4B1A602D4A52682C4B5A601A4615
:1013A00052685A601A46526842F480625A601A467D
:1013B000526822F440325A601A46526842F440326F
:1013C0005A601A465268234B1A40204B5A601A46FC
:1013D0005268214B1A431D4B5A601A46126842F05C
:1013E00080721A6000BF194A126802F00072002A67
:1013F000F9D0174A126842F48032154B1A6000BFC8
:10140000134A526802F48032002AF9D0104A126856
:1014100042F400320E4B1A6000BF0D4A526802F4CB
:101420000032002AF9D0094A526822F00302074B21
:101430005A601A46526842F002025A6000BF034ADC
:10144000526802F00802002AF9D0704700100240EA
:1014500000700040FFFFC3B70000340810B5FFF76D
:1014600075FF10BD10B5124800684FF47A71B0FBDB
:10147000F1F4601EB0F1807F01D301200FE0601E07
:101480004FF0E02148610F214FF0FF30FEF798FE4A
:1014900000204FF0E021886107200861002008B19A
:1014A00000BFFEE70021481EFEF78AFE10BD0000C7
:1014B000040000201FB54FF4E060FFF775FD40F217
:1014C000CF70ADF800000020ADF80200ADF80400C8
:1014D00040F2572002904FF40070ADF80C006946BE
:1014E000400500F013F80121880700F05BF80222A4
:1014F00000211C20FFF7A6FB4FF0804000F001F810
:101500001FBD016841F00101016070470A888262D5
:101510001D4A90420ED0B0F1804F0BD01B4A904232
:1015200008D01B4A904205D01A4A904202D01A4A6B
:1015300090420BD1026822F07002026002684B8870
:101540001A43026002688B881A4302608A68C2628A
:10155000124A90420AD0124A904207D0026822F4FE
:101560004072026002688B891A430260064A904208
:1015700002D0094A904201D18A7B0263426942F05B
:101580000102426170470000002C0140000400404D
:1015900000080040000C00400034014000100040F2
:1015A00000140040C2680A43C260704702698A435F
:1015B000026170470246D06800EA010310690840E2
:1015C00010B10BB1012070470020FCE770B5012578
:1015D0001648007800B970BD00201549134A1278EA
:1015E00088541249087000F02DF800240CE0114ACC
:1015F00002EB04121168104A1068FEF780FE0546DF
:1016000005B105E0601CC4B20C4800788442EEDBF2
:1016100000BF2DB1074901EB04114868804702E083
:101620000748FFF7D1FD00BFD5E700000D000020FF
:1016300074000020740C0020940F0020180000207B
:10164000901E000810B51048002100220F4B1A70A0
:101650000B46491C0E4A42F8230011E00278202A6A
:101660000DD100220270421C0B464C1CE1B2084C0A
:1016700044F82320054A1278521C044B1A70401C6F
:101680000278002AEAD110BD740000201900002061
:10169000940F002010B540F20260FFF785FC40F285
:1016A0000E60FFF781FC4FF40073032218211448E9
:1016B000FFF7FEF84FF48063032204211048FFF780
:1016C000F7F8104800F084F84FF4E1310D4800F0CD
:1016D0002BF804210B4800F00DF90821094800F00F
:1016E00011F9084800F0BCF8002211462520FFF748
:1016F000A9FA40F20531034800F0D3F810BD00000C
:10170000000801400038014010B504462146054854
:1017100000F059F800BF0721024800F0A6F80028A1
:10172000F9D010BD003801402DE9F04704460D46C0
:101730000027B946B84600261E49601A8C421CD0C4
:1017400006DC1D48204470B1B0F5806F1FD10FE05A
:10175000B0F5806F16D0B0F56C4F18D10320FFF7AD
:1017600077FB074614E00220FFF772FB07460FE005
:101770000220FFF76DFB07460AE00220FFF768FB37
:10178000074605E00220FFF763FB074600E000BFC5
:1017900000BF07EB5500B0FBF5F64FF6F07006EA18
:1017A000000906F00F08A16849EA08000143A1609A
:1017B000BDE8F087004C004000BCFFBF0146486810
:1017C000C0F308007047C1F3080242607047000090
:1017D00010B504462049601A8C4228D006DC1F4808
:1017E000204490B1B0F5806F33D117E0B0F5806F31
:1017F00026D0B0F56C4F2CD140F20E30FFF7F4FB41
:1018000040F20E30FFF7E0FB24E040F21140FFF71A
:10181000EBFB40F21140FFF7D7FB1BE040F2124018
:10182000FFF7E2FB40F21240FFF7CEFB12E040F27E
:101830001340FFF7D9FB40F21340FFF7C5FB09E067
:1018400040F21440FFF7D0FB40F21440FFF7BCFB1E
:1018500000E000BF00BF10BD004C004000BCFFBF57
:10186000C16841F40051C160704710B5024602EBF7
:101870009110006801F01F040123A340184008B133
:10188000012010BD0020FCE710B5C1F38912825879
:1018900001F01F040123A3409A43C1F38913C250EE
:1018A00010BD10B5C1F38912825801F01F04012345
:1018B000A3401A43C1F38913C25010BD70B502464C
:1018C00000230024C1F38910105801F01F060125E0
:1018D000B54000EA050302EB91500068C1F30446ED
:1018E0000125B54000EA050414B10BB1012070BD1B
:1018F0000020FCE70A460021C16821F004011143E1
:10190000C16070470A460021C16821F008011143F7
:10191000C160704710B5E620084908701D220849CB
:101920000648401CFEF720FC0648FEF711FE1D226B
:1019300002490448FEF71FFE10BD00007408002095
:1019400058000020003000082DE9F04106460C4602
:1019500015468EB12946204600F020F80746681C3F
:10196000205C615D00EB01201FFA80F8474502D141
:101970000120BDE8F0810EE00022002103E0605C60
:101980001044C2B2491CA942F9DB605D904201D10A
:101990000120EEE700BF0020EBE7000030B5024673
:1019A000002000230BE012F8015B85EA2024E4B25A
:1019B000044D35F8144084EA0024A0B25B1C8B422D
:1019C000F1DB30BD441C000810B5044603E014F8F8
:1019D000010B00F023F820780028F8D110BD7047E3
:1019E00038B5044600200B4908600B49088007E021
:1019F000684600F01BF8012802D19DF8000038BDB0
:101A000005480088A042F3D30120024908609DF8F0
:101A10000000F4E7500000205400002038B50446D0
:101A20008DF80040684600F013F838BD10B5044644
:101A300005210648FFF719FF28B10448FFF7BEFE4D
:101A40002070012010BD0020FCE70000003801409C
:101A500010B5044621780548FFF7B5FE00BF072101
:101A60000248FFF702FF0028F9D010BD00380140FE
:101A70002DE9FE4F4FF0000943250126002002907A
:101A80001920019060488069009060A0FFF79CFFDA
:101A900000BF4FF0000B35E015B12846FFF7BEFF41
:101AA0004FF4C870FFF79CFF07465F48006838BBDB
:101AB000012F06D0022F07D0042F08D0182F1DD1D8
:101AC0000DE04FF0800832E04FF480682FE0FFF720
:101AD00086FF0620FFF7A2FF0298BDE8FE8FC82010
:101AE000FFF77EFF0746182F07D1FFF778FF062084
:101AF000FFF794FF4FF0FF30EFE700E000BF00BFBB
:101B00000BF1010BBBF1100FC6DB432D01D11525E5
:101B1000BFE7FFF764FF1820FFF780FF1820FFF7EB
:101B20007DFF1820FFF77AFF6FF00100D5E7432D06
:101B300001D14FF0010900253C4C04F8017BAA4675
:101B40000BE0C820FFF74CFF07463748006800B19C
:101B500053E004F8017B0AF1010AB9F1000F01D04A
:101B6000012000E000204044C01C5045E9DC2F4823
:101B700040782E498978C943C9B288423CD12B4864
:101B80004078B04204D029484178701E814233D158
:101B900042462649C91C4846FFF7D6FE60B3234893
:101BA0004078B04211D142462049C91C0098FEF746
:101BB000E2FC42461E490098FEF7D4FC00984044DF
:101BC0000090701CC6B21A2001900198401E01902E
:101BD00000280DDCFFF703FF1820FFF71FFF182078
:101BE000FFF71CFF1820FFF719FF6FF0020074E7E2
:101BF0000620FFF713FF4CE700BFFFF7F0FE1520AC
:101C0000FFF70CFF45E70000580000200A0D537451
:101C100061727420586D6F64656D205265636569EB
:101C20007665210A0D00000050000020BC0F002046
:101C30007408002002480088401C01490880704751
:101C40005400002000002110422063308440A55041
:101C5000C660E770088129914AA16BB18CC1ADD1F2
:101C6000CEE1EFF13112100273325222B55294429A
:101C7000F772D662399318837BB35AA3BDD39CC342
:101C8000FFF3DEE36224433420040114E664C774E6
:101C9000A44485546AA54BB528850995EEE5CFF592
:101CA000ACC58DD55336722611163006D776F6663A
:101CB0009556B4465BB77AA719973887DFF7FEE7E2
:101CC0009DD7BCC7C448E5588668A7784008611806
:101CD00002282338CCC9EDD98EE9AFF94889699932
:101CE0000AA92BB9F55AD44AB77A966A711A500ADA
:101CF000333A122AFDDBDCCBBFFB9EEB799B588B82
:101D00003BBB1AABA66C877CE44CC55C222C033C25
:101D1000600C411CAEED8FFDECCDCDDD2AAD0BBDD1
:101D2000688D499D977EB66ED55EF44E133E322E79
:101D3000511E700E9FFFBEEFDDDFFCCF1BBF3AAF21
:101D4000599F788F8891A981CAB1EBA10CD12DC17F
:101D50004EF16FE18010A100C230E3200450254015
:101D600046706760B9839893FBA3DAB33DC31CD375
:101D70007FE35EF3B1029012F322D2323542145265
:101D800077625672EAB5CBA5A89589856EF54FE5C1
:101D90002CD50DC5E234C324A014810466744764B5
:101DA00024540544DBA7FAB79987B8975FE77EF715
:101DB0001DC73CD7D326F2369106B0165766767605
:101DC000154634564CD96DC90EF92FE9C899E989E1
:101DD0008AB9ABA94458654806782768C018E10855
:101DE0008238A3287DCB5CDB3FEB1EFBF98BD89BB5
:101DF000BBAB9ABB754A545A376A167AF10AD01AA5
:101E0000B32A923A2EFD0FED6CDD4DCDAABD8BAD00
:101E1000E89DC98D267C076C645C454CA23C832CF4
:101E2000E01CC10C1FEF3EFF5DCF7CDF9BAFBABF54
:101E3000D98FF89F176E367E554E745E932EB23E44
:101E4000D10EF01EC6F4B6AF4F70656E4861726D6C
:101E50006F6E79C7E1C1BFCFB5CDB3D6D0A3ACC744
:101E6000EBB5C8B4FD202E2E2E2E2E2E2E2E2E2E6D
:101E70002E2E2E2E2E2E2E2E2E2E2E2E2E2E2E2E82
:101E80002E2E2E2E2E2E2E2E2E2E2E0D0A00000041
:101E9000C3BBD3D0D5D2B5BDB8C3C3FCC1EE2CC72C
:101EA000EBBCECB2E9CAE4C8EBB5C4C3FCC1EECAF2
:101EB000C7B7F1D5FDC8B72CBBF2D5DFCAE4C8EB74
:101EC000A1B068656C70A1B1C0B4BBF1B5C3B0EF8F
:101ED000D6FAA1A30D0A0000620000006B65726EC5
:101EE000656C5F62617365007661725F62617365E4
:101EF00000000000626F6F745F6261736500000034
:101F00007661725F73697A6500000000626F6F74BA
:101F10005F73697A650000006D616368000000000E
:101F20006572617365666C61736800007072696EDA
:101F300074667661720000007365747661720000E9
:101F400073000000726573657400000074696D654C
:101F50006F757400741F0008000000205800000016
:101F6000E0020008CC1F0008580000207017000095
:101F7000F002000800000000000E2707000000002B
:101F800000000000000000001B5B44000000000097
:101F9000D81E0008401F00082C1F0008381F00082A
:101FA000201F0008441F00084C1F0008181F0008CD
:101FB000F41E00080C1F0008E81E0008001F00089F
:0C1FC000DC1E0008000000000000000013
:0400000508000131BD
:00000001FF
