:020000040800F2
:1000000008040020450100089B0100089301000836
:10001000970100088D01000821020008000000007F
:10002000000000000000000000000000C701000800
:100030009101000800000000C5010008C901000886
:100040005F0100085F0100085F0100085F01000810
:100050005F0100085F0100085F0100085F01000800
:100060005F0100085F0100085F0100085F010008F0
:100070005F0100085F0100085F0100085F010008E0
:100080005F0100085F0100085F0100085F010008D0
:100090005F0100085F0100085F0100085F010008C0
:1000A0005F0100085F0100085F0100085F010008B0
:1000B0005F0100085F0100085F0100085F010008A0
:1000C0005F0100085F0100085F0100085F01000890
:1000D0005F0100085F0100085F0100085F01000880
:1000E0005F0100085F0100085F0100085F01000870
:1000F0005F0100085F0100085F0100085F01000860
:100100005F0100085F0100085F0100085F0100084F
:100110005F0100085F0100085F0100085F0100083F
:100120005F0100085F0100085F0100085F0100082F
:10013000DFF80CD000F018F800480047C1030008B1
:10014000080400200648804706480047FEE7FEE70F
:10015000FEE7FEE7FEE7FEE7FEE7FEE7FEE7FEE777
:10016000D101000831010008064C074D06E0E068A7
:1001700040F0010394E8070098471034AC42F6D3EE
:10018000FFF7DAFF90050008B005000800BFFEE7A2
:10019000704700BFFEE700BFFEE7704710B50028BC
:1001A00007DA0A07140E054A00F00F031B1FD45488
:1001B00003E00A07130E024A135410BD18ED00E0C5
:1001C00000E400E07047704710B500F045F810BD3E
:1001D00010B51048006840F470000E4908600E48E1
:1001E000006840F001000C49086000204860C862C7
:1001F0000846006809490840074908604FF41F0095
:1002000088600846006820F48020086000F094F9B7
:1002100010BD000088ED00E000100240FFFFF6FE78
:1002200000BFFEE702E008C8121F08C1002AFAD189
:1002300070477047002001E001C1121F002AFBD166
:10024000704700000349086000BF0249096800299F
:10025000FBD17047000000200448006820B103482B
:100260000068401E0149086070470000000000203F
:100270004161704701617047F0B50C461646002594
:10028000002204F00F0504F0100747B1042E05D139
:1002900045F00305C76B1F43C76300E035430021EA
:1002A00018E001278F401F4097B102684FEA810C88
:1002B0000F2707FA0CF7BA438F0005FA07F73A43FE
:1002C000282C01D1436102E0482C00D10361026077
:1002D0004F1CB9B20829E4D308211CE001278F4044
:1002E0001F40B7B14268A1F108074FEA870C0F27FA
:1002F00007FA0CF7BA43A1F10807BF0005FA07F7A0
:100300003A43282C01D1436102E0482C00D103611B
:1003100042604F1CB9B21029E0D3F0BD10B540F2D5
:10032000076000F071F80F23032210210148FFF746
:10033000A3FF10BD001C014010B5044634B1012CD0
:1003400009D0022C0CD0032C14D10EE001210A4854
:10035000FFF78EFF0EE002210748FFF789FF09E053
:1003600004210548FFF784FF04E008210248FFF755
:100370007FFF00BF00BF10BD001C014010B5044648
:1003800034B1012C09D0022C0CD0032C14D10EE076
:1003900001210A48FFF76EFF0EE002210748FFF730
:1003A00069FF09E004210548FFF764FF04E0082124
:1003B0000248FFF75FFF00BF00BF10BD001C0140F7
:1003C000FFF7ACFF00F0BCF81DE00020FFF7D6FF00
:1003D000C820FFF737FF0120FFF7D0FFC820FFF745
:1003E00031FF0220FFF7CAFFC820FFF72BFF0020D4
:1003F000FFF7A2FF0120FFF79FFF0220FFF79CFFFE
:10040000C820FFF71FFFE0E7064A02EB90110968DA
:1004100000F01F0301229A401143024B03EB90129C
:100420001160704700100240002000213E4A12680F
:1004300042F480323C4B1A6000BF401C3A4A1268BA
:1004400002F4003111B9B0F5006FF6D1364A1268E6
:1004500002F400320AB900BFFEE7334AD26942F023
:100460008052314BDA61314A126842F440422F4BDC
:100470001A602D4A52682C4B5A601A4652685A60CC
:100480001A46526842F480625A601A46526822F450
:1004900040325A601A46526842F440325A601A4654
:1004A0005268234B1A40204B5A601A465268214B1F
:1004B0001A431D4B5A601A46126842F080721A6045
:1004C00000BF194A126802F00072002AF9D0174AD8
:1004D000126842F48032154B1A6000BF134A52680A
:1004E00002F48032002AF9D0104A126842F4003235
:1004F0000E4B1A6000BF0D4A526802F40032002A07
:10050000F9D0094A526822F00302074B5A601A4692
:10051000526842F002025A6000BF034A526802F079
:100520000802002AF9D07047001002400070004015
:10053000FFFFC3B70000340810B5FFF775FF10BD0B
:1005400010B5124800684FF47A71B0FBF1F4601EE8
:10055000B0F1807F01D301200FE0601E4FF0E02159
:1005600048610F214FF0FF30FFF718FE00204FF0D9
:10057000E021886107200861002008B100BFFEE784
:100580000021481EFFF70AFE10BD000004000020F5
:10059000B005000800000020080000002402000848
:1005A000B80500080800002000040000340200081C
:0805B00000000000000E270707
:0400000508000131BD
:00000001FF
