:020000040800F2
:10000000C0040020450100086102000859020008F0
:100010005D02000853020008F5020008000000001D
:100020000000000000000000000000006502000861
:100030005702000800000000630200086702000881
:100040005F0100085F0100085F0100085F01000810
:100050005F0100085F0100085F0100085F01000800
:100060005F0100085F0100085F0100085F010008F0
:100070005F0100085F0100085F0100085F010008E0
:100080005F0100085F0100085F0100085F010008D0
:10009000B90200085F0100085F0100085F01000865
:1000A0005F0100085F0100085F0100085F010008B0
:1000B0005F0100085F0100085F0100085F010008A0
:1000C0005F0100085F0100085F0100085F01000890
:1000D0005F0100085F0100085F0100085F01000880
:1000E0005F0100085F0100085F0100085F01000870
:1000F0005F0100085F0100085F0100085F01000860
:100100005F0100085F0100085F0100085F0100084F
:100110005F0100085F0100085F0100085F0100083F
:100120005F0100085F0100085F0100085F0100082F
:10013000DFF80CD000F05CF8004800478910000898
:10014000C00400200648804706480047FEE7FEE757
:10015000FEE7FEE7FEE7FEE7FEE7FEE7FEE7FEE777
:10016000690200083101000840EA01039B0703D03F
:1001700009E008C9121F08C0042AFAD203E011F8E6
:10018000013B00F8013B521EF9D270472DE9F05FA8
:100190000546002092469B468846064681464024F6
:1001A0001BE0284641464746224600F042F85346A7
:1001B0005A46C01A914110D311461846224600F003
:1001C00029F82D1A67EB01084F462246012000212D
:1001D00000F020F817EB00094E41201EA4F10104A5
:1001E000DFDC484631462A464346BDE8F09F000022
:1001F000064C074D06E0E06840F0010394E8070074
:1002000098471034AC42F6D3FFF796FF74160008F7
:1002100094160008202A04DB203A00FA02F100209C
:1002200070479140C2F1200320FA03F31943904034
:100230007047202A04DB203A21FA02F0002170479F
:1002400021FA02F3D040C2F120029140084319463E
:10025000704700BFFEE7704700BFFEE700BFFEE744
:10026000704770477047704710B51048006840F4F9
:1002700070000E4908600E48006840F001000C490B
:10028000086000204860C8620846006809490840C4
:10029000074908604FF41F0088600846006820F492
:1002A0008020086001F028F910BD000088ED00E012
:1002B00000100240FFFFF6FE10B50B4A00210B486C
:1002C00000F04EFB0848006840F22131884209D115
:1002D0000548007A30B90448807A022802D101200A
:1002E0000349087010BD0000A80000200064004011
:1002F0000200002000BFFEE70FB4054B10B503A9B4
:10030000044A029800F05AF810BC5DF814FB000093
:10031000990C00089000002000B589B01E4800F03C
:10032000D1F900208DF81C008DF81D008DF81E00FD
:100330008DF81F008DF820008DF8210001208DF828
:10034000180000208DF8190005208DF81A000220F1
:100350008DF81B000620ADF8220006A90E4800F01B
:1003600067FA0020ADF80E00ADF810000120ADF8DE
:1003700012000020ADF80400ADF80600ADF808004A
:10038000ADF80A00ADF80C0001208DF8140001A8AA
:1003900000F0A8F909B000BD0064004002E008C800
:1003A000121F08C1002AFAD170477047002001E0EF
:1003B00001C1121F002AFBD1704700002DE9FF4F39
:1003C0008DB09B460F460446002606E025280BD03C
:1003D0005A460F999047641C761C20780028F5D166
:1003E00011B03046BDE8F08F0025A846012298499B
:1003F00000E0054314F8013F203B02FA03F00842F5
:10040000F7D120782E2817D114F8010F45F00405F4
:100410002A280ED06FF02F022078A0F13001092990
:100420000AD808EB880102EB410100EB0108641CCB
:10043000F2E757F8048B641C20786C280DD004DC9C
:100440004C2812D06A2811D104E074280DD07A28E3
:100450000CD10AE045F4001507E0617845F48015F9
:10046000814202D1641C05F58015641C2278692A3A
:1004700045D008DC002AB3D0582A69D0632A10D0AE
:10048000642A08D13BE0702A67D0732A13D0752AFA
:100490005CD0782A5CD010465A460F999047761C5B
:1004A000D3E017F8040B8DF8000000208DF8010050
:1004B000E946012003E057F8049B4FF0FF3069073D
:1004C0004FF0000501D40AE06D1C45450DDA854268
:1004D000FADB19F805100029F6D106E06D1C8542FB
:1004E000FCDB19F805100029F8D12E4404E019F8B6
:1004F000010B5A460F9990476D1EF8D2A5E00A20CD
:100500000021CDE90801C5F3025002280DD001CF2A
:10051000C117031E71F100030DDA4FF0000CD0EB90
:100520000C006CEB01012D2308E0FF1D27F00707ED
:10053000F7E80201EDE72B0504D52B238DF82830D1
:1005400001233BE0EB0739D02023F7E70A2000E046
:1005500010200021CDE9080107E01020002145F01E
:100560000405CDE908014FF00808C5F30250022840
:100570000FD001CF00214FF0000A2B071FD5702AA2
:100580000DD0DDE908C38CF0100C5CEA030C0CD034
:1005900015E0FF1D27F00707F7E80201EBE740220F
:1005A0008DF828204FF0010A0BE050EA010306D035
:1005B00030238DF828308DF8292002239A46582AB6
:1005C00004D024A20DF120090B9209E026A2F9E73C
:1005D000DDE90823FFF7DAFD0B9B9B5C09F8013D81
:1005E00050EA0102F4D1ADEB090020300890680711
:1005F00001D44FF001080899884502DDA8EB0100FD
:1006000000E000208046002506E00AA85A46405D2A
:100610000F9990476D1C761C5545F6DB04E03020A1
:100620005A460F999047761CB8F10001A8F10108CD
:10063000F5DC05E019F8010B5A460F999047761C36
:100640000899481E08900029F4DC641CC5E60000E7
:100650000928010030313233343536373839616298
:10066000636465660000000030313233343536375C
:1006700038394142434445460000000070B586B019
:1006800005460C46082C03DD4FF0FF3006B070BD68
:1006900040F221300190002002908DF80D008DF87D
:1006A0000C008DF80E40224629460DF10F00FFF791
:1006B0005BFD01A9024800F0C5F906463046E5E7B2
:1006C0000064004010B504460548844207D140F25A
:1006D000194000F079FE40F2194000F065FE10BDAF
:1006E0000064004010B50021837A012202FA03F170
:1006F0003E4A126842F001023C4B1A603B4A1C32EF
:1007000012688A43394B1C331A60C289DAB9374AF6
:100710000C3212688A43354B0C331A60C288344B52
:1007200003EA024243881A434389304C403444F878
:10073000332082882E4B03EA024203881A434389FE
:1007400004EBC3035A60C289012A1BD1274A0C3229
:1007500012680A43254B0C331A600288244B03EAC3
:10076000024243881A434389204C403444F83320E2
:1007700082881F4B03EA0242C3881A43438904EB71
:10078000C3035A6082893AB9184A121D12688A4313
:10079000164B1B1D1A6006E0144A121D12680A430C
:1007A000124B1B1D1A6002893AB9104A14321268A2
:1007B0008A430E4B14331A6006E00C4A1432126856
:1007C0000A430A4B14331A60027C012A06D1074AF5
:1007D0001C3212680A43054B1C331A60034A126824
:1007E00022F00102014B1A6010BD000000660040BB
:1007F0000000FFFF10B540F2197000F0C5FD40F297
:10080000056000F0C1FD022303221821074800F013
:100810008BFB012303224821044800F085FB0121C2
:100820004FF4EB1000F0DAFB10BD000000140140A3
:1008300070B502464FF6FF730020146824F00204DE
:100840001460146844F00104146000E05B1E5468F6
:1008500004F001040CB9002BF8D1546804F0010431
:100860000CB9002077E00C784FF0404505EA84741D
:100870004D784FF0407606EA05652C438D784FF4AD
:10088000702606EA05452C43CD784FF4E00606EACB
:1008900005552C434D896D1EC5F309052C43D461C4
:1008A0000C79012C04D1146844F08004146003E036
:1008B000146824F0800414604C79012C04D114686D
:1008C00044F04004146003E0146824F04004146011
:1008D0008C79012C04D1146844F02004146003E0E6
:1008E000146824F020041460CC79012C04D114681D
:1008F00044F01004146003E0146824F01004146041
:100900000C7A012C04D1146844F00804146003E04C
:10091000146824F0080414604C7A012C04D1146883
:1009200044F00404146003E0146824F00404146028
:10093000146824F0010414604FF6FF7300E05B1E9E
:10094000546804F001040CB1002BF8D1546804F091
:10095000010404B1012070BD42690A43426170473D
:1009600010B500F5D87303EB01131B6803F0040303
:100970001372137A3BB900F5D87303EB01131B68AC
:100980005B0D136006E000F5D87303EB01131B68E1
:10099000DB08536000F5D87303EB01131B6803F009
:1009A0000203537200F5DA7303EB01131B6803F0C3
:1009B0000F03937200F5DA7303EB01131B681B0A34
:1009C000D37400F5DC7303EB01131B68D37200F5DD
:1009D000DC7303EB01131B681C0A147300F5DC7352
:1009E00003EB01131B681C0C547300F5DC7303EB61
:1009F00001131B681C0E947300F5DE7303EB0113E7
:100A00001B68D37300F5DE7303EB01131B681C0A2C
:100A1000147400F5DE7303EB01131B681C0C547493
:100A200000F5DE7303EB01131B681C0E947421B9EF
:100A3000C36843F02003C36003E0036943F020036D
:100A4000036110BD30B502460B460021906800F0EE
:100A50008060B0F1806F00D110E0906800F000601D
:100A6000B0F1006F01D1012108E0906800F08050E2
:100A7000B0F1805F01D1022100E00321032901D1FF
:100A8000032030BD02F5C07000EB0110006800F0DB
:100A9000010402F5C07000EB01100460187A88B9F7
:100AA00018883B4C04EA40505C7A204302F5C0743D
:100AB00004EB01142468204302F5C07404EB011414
:100AC000206013E06FF00704586804EAC0001C7A45
:100AD00020435C7A204302F5C07404EB01142468BF
:100AE000204302F5C07404EB0114206002F5C270CB
:100AF00000EB0110006820F00F0402F5C27000EB5B
:100B00000110046002F5C27000EB011000689C7ACD
:100B1000204302F5C27404EB01142060987B4FF06F
:100B20007F4404EA00605C7B4FF47F0505EA0444DF
:100B300020431C7B2D1205EA04242043DC7A204349
:100B400002F5C47404EB01142060987C2C0404EAC0
:100B500000605C7C2D0205EA044420431C7C2D12BD
:100B600005EA04242043DC7B204302F5C67404EB31
:100B70000114206002F5C07000EB0110006840F025
:100B8000010402F5C07000EB01100460084678E72C
:100B90000000E0FF10B5FFF72DFEFFF7BDFB00F0F2
:100BA00007F802210148FFF7D7FE10BD006400409E
:100BB00010B500221146142000F0E8FA10BD002004
:100BC00000BF01E0411C88B24FF6FF718842F9DB9B
:100BD0007047000010B52C4B1B6883432A4C2360E0
:100BE000231D1B688343241D2360231D1B6883432F
:100BF000241D2360231D1B688343241D236011B122
:100C000001290ED105E0204B1B6803431E4C2360D5
:100C100008E01D4B1B1D1B6803431B4C241D236058
:100C200000E000BF00BF22B1012A0FD0022A27D165
:100C300019E0154B08331B680343134C0834236039
:100C4000231D1B688343241D23601AE00E4B0833C9
:100C50001B6883430C4C08342360231D1B6803432B
:100C6000241D23600DE0084B08331B680343064C2A
:100C700008342360231D1B680343241D236000E008
:100C800000BF00BF10BD0000000401400149086022
:100C9000704700001404014070B504460D46E1B2EF
:100CA000054800F077FC00BF0721034800F0C3FCB3
:100CB0000028F9D0204670BD0038014070B50546C7
:100CC00000241D48854200D103E01C48854200D124
:100CD00001241B4931F8140000F056FB194931F882
:100CE000140000F051FB184951F82430174951F80D
:100CF00024000322182100F017F9154951F8243077
:100D0000124951F824000322042100F00DF928466D
:100D100000F044FC4FF4E131284600F0F1FB0421DF
:100D2000284600F097FC0821284600F09BFC284646
:100D300000F07CFC70BD0000003801400044004021
:100D4000400000202400002028000020380000205F
:100D50003000002070B504460D46174931F81400E4
:100D600000F012FB4FF4C06000F00EFB134951F885
:100D70002430134951F824000322042100F0D4F850
:100D8000012D17D10F49085D0022022100F0FEF964
:100D90000D4A115D0D4A105D00F07AF80C4951F8CA
:100DA000240001220021FFF715FF094951F8240012
:100DB000FFF76CFF70BD00006C0000205C0000209D
:100DC0004C0000208C0000208800002084000020BF
:100DD0007400002010B50446044A52F82410044A56
:100DE00052F8240000F0F2F810BD00005C00002072
:100DF0004C00002010B504460B4931F8140000F0F7
:100E0000C3FA0A4951F82430094951F82400032251
:100E1000102100F089F8054850F82400044951F8E1
:100E20002410486110BD0000440000201400002080
:100E300004000020034951F82010034A52F82020F2
:100E400051617047140000200400002070B5044672
:100E50000A4A52F824100A4A52F8240000F0B6F860
:100E6000C0F10100C5B2054A52F82410044A52F8F4
:100E700024002A4600F006F870BD0000140000208F
:100E8000040000200AB1016100E0416170470000E8
:100E900010B500228B071C0F0F2303FA04F204295C
:100EA0000EDA204B9B6893431E4CA36023469B683D
:100EB0008C07240F00FA04F423431A4CA3602FE09C
:100EC00008290EDA174BDB689343164CE360234680
:100ED000DB688C07240F00FA04F42343114CE36011
:100EE0001EE00C290EDA0F4B1B6993430D4C236156
:100EF00023461B698C07240F00FA04F42343094C92
:100F000023610DE0074B5B699343064C6361234605
:100F10005B698C07240F00FA04F42343014C6361DE
:100F200010BD000000000140F0B50C46164600253B
:100F3000002204F00F0504F0100747B1042E05D17C
:100F400045F00305C76B1F43C76300E0354300212D
:100F500018E001278F401F4097B102684FEA810CCB
:100F60000F2707FA0CF7BA438F0005FA07F73A4341
:100F7000282C01D1436102E0482C00D103610260BA
:100F80004F1CB9B20829E4D308211CE001278F4087
:100F90001F40B7B14268A1F108074FEA870C0F273D
:100FA00007FA0CF7BA43A1F10807BF0005FA07F7E3
:100FB0003A43282C01D1436102E0482C00D103615F
:100FC00042604F1CB9B21029E0D3F0BD02469068D0
:100FD000084008B1012070470020FCE7F0B50A4640
:100FE000002300240021002500F00046B6F1004F48
:100FF00002D11D4EF16901E01B4E7168C0F303453B
:1010000083B200F44016B6F5401F08D121F070619C
:10101000154E766826F07066134F7E6012E000F47D
:101020008016B6F5801F06D1032606FA05F4A14303
:1010300041F0706106E0460D360103FA06F6B14351
:1010400041F0706122B1460D360103FA06F63143D4
:1010500000F00046B6F1004F02D1034EF16101E00D
:10106000014E7160F0BD00000000014010B500208D
:10107000FFF7C0FE0120FFF7BDFE0220FFF7BAFE1A
:101080000320FFF7B7FE10BD00202749087000219C
:101090000120FFF75FFE2548FFF710FEFFF7E6FF90
:1010A0000020FFF7C7FE0120FFF7C4FE0220FFF774
:1010B000C1FE0320FFF7BEFEFFF76CFD40F22130BA
:1010C0001B4908600020486048720872022088723C
:1010D00018A0FFF711F926E010E0AB2022490870B4
:1010E000CD20487002212048FFF7C8FAFFF767FDBE
:1010F00000BF0120FFF76EFE0028FAD00120FFF7A5
:1011000069FE0028E9D00848007801280BD10020AA
:10111000FFF79CFE0020044908701448027BC17A46
:1011200013A0FFF7E9F8D7E70200002000380140DC
:10113000940000200D0A706C656173652070726503
:101140007373207468652054616D706572206B65DF
:101150007920746F207472616E736D69742064619C
:101160007461210D0A00000000000020A80000208A
:101170000D0A43414E3020726563697665206461D3
:1011800074613A2025782C25780D0A00F0B50B46BD
:10119000002100240025244E366806F4E066B6F5EA
:1011A000E06F02D100BF042526E01F4E366806F42A
:1011B000E066B6F5C06F02D1012403251CE01A4E8B
:1011C000366806F4E066B6F5A06F02D10224022567
:1011D00012E0154E366806F4E066B6F5806F02D16F
:1011E0000324012508E0104E366806F4E066B6F5E3
:1011F000407F01D104240025C4F1040603FA06F15E
:10120000C5F104070F26FE40164031430901074E81
:10121000315400F01F070126BE404711BF0007F1FF
:10122000E027C7F80061F0BD0CED00E000E400E04D
:101230002DE9F04F8CB0074600200A904AA090E8B4
:10124000004CC068CDE905BECDF810A007900FF2A4
:101250001C1ADAE9000ACDE9020A0FF2101ADAE9DB
:10126000000ACDE9000A44484068C0F381000B90B1
:101270000B9820B1012804D002283FD103E03F4A57
:101280003EE03E4A3CE03C48406800F4803CBCF50F
:10129000803F12D13848C06A00F08048B8F1000F92
:1012A00001D1364C00E0364C3348406800F4003938
:1012B000B9F5003F02D1334C00E0324C2E48406873
:1012C000C0F383412C48406800F0006008B141F051
:1012D00010012948406800F0804008B141F0200129
:1012E0000F2901D2891C06E00F2903D33E2901D81A
:1012F000491C00E03F2104FB01F201E01F4A00BF4E
:1013000000BF1D484068C0F3031504A8465D22FADB
:1013100006F319484068C0F3022502A8465D23FA87
:1013200006F0099014484068C0F3C2251DF8056016
:1013300023FA06F0089037B1012F06D0022F06D00D
:10134000032F0AD106E00A9208E00A9306E0099802
:101350000A9003E008980A9000E000BF00BF0A98D6
:101360000CB0BDE8F08F000000000000000000009D
:1013700001020304060708090010024000127A0067
:10138000006CDC0200093D00064A02EB901109687E
:1013900000F01F0301229A401143024B03EB90120D
:1013A0001160704700100240064A02EB9011096874
:1013B00000F01F0301229A409143024B03EB90126D
:1013C0001160704700100240064A02EB9011096854
:1013D00000F01F0301229A401143024B03EB9012CD
:1013E0001160704700100240002000213E4A126840
:1013F00042F480323C4B1A6000BF401C3A4A1268EB
:1014000002F4003111B9B0F5006FF6D1364A126816
:1014100002F400320AB900BFFEE7334AD26942F053
:101420008052314BDA61314A126842F440422F4B0C
:101430001A602D4A52682C4B5A601A4652685A60FC
:101440001A46526842F480625A601A46526822F480
:1014500040325A601A46526842F440325A601A4684
:101460005268234B1A40204B5A601A465268214B4F
:101470001A431D4B5A601A46126842F080721A6075
:1014800000BF194A126802F00072002AF9D0174A08
:10149000126842F48032154B1A6000BF134A52683A
:1014A00002F48032002AF9D0104A126842F4003265
:1014B0000E4B1A6000BF0D4A526802F40032002A37
:1014C000F9D0094A526822F00302074B5A601A46C3
:1014D000526842F002025A6000BF034A526802F0AA
:1014E0000802002AF9D07047001002400070004046
:1014F000FFFFC3B70000340810B5FFF775FF10BD3C
:101500002DE9F04704460D460027B946B8460026A7
:101510001E49601A8C421CD006DC1D48204470B164
:10152000B0F5806F1FD10FE0B0F5806F16D0B0F529
:101530006C4F18D10320FFF77BFE074614E0022012
:10154000FFF776FE07460FE00220FFF771FE074621
:101550000AE00220FFF76CFE074605E00220FFF7D5
:1015600067FE074600E000BF00BF07EB5500B0FB79
:10157000F5F64FF6F07006EA000906F00F08A168CC
:1015800049EA08000143A160BDE8F087004C004033
:1015900000BCFFBFC1F308024260704710B50446AB
:1015A0002049601A8C4228D006DC1F48204490B1A4
:1015B000B0F5806F33D117E0B0F5806F26D0B0F56D
:1015C0006C4F2CD140F20E30FFF7FEFE40F20E3091
:1015D000FFF7EAFE24E040F21140FFF7F5FE40F28B
:1015E0001140FFF7E1FE1BE040F21240FFF7ECFE76
:1015F00040F21240FFF7D8FE12E040F21340FFF72E
:10160000E3FE40F21340FFF7CFFE09E040F2144042
:10161000FFF7DAFE40F21440FFF7C6FE00E000BF1D
:1016200000BF10BD004C004000BCFFBFC16841F4CA
:101630000051C160704710B5024602EB911000687E
:1016400001F01F040123A340184008B1012010BD80
:101650000020FCE70A460021C16821F00401114383
:10166000C16070470A460021C16821F0080111439A
:10167000C16070479416000800000020940000002C
:101680009C03000828170008940000202C04000088
:10169000AC03000800000000001C0140001C0140D9
:1016A000001C0140001C014001000000020000007D
:1016B00004000000080000000E06110700020000F0
:1016C00004000000000400000800000000080140C1
:1016D000000801400206020607060706070607067D
:1016E0000008014000100140001C0140001C0140A6
:1016F0000100000000200000200000001000000099
:10170000020604060706070601000000002000008C
:10171000200000001000000000020505000D050477
:081720000628170A0000000072
:0400000508000131BD
:00000001FF
