Component: ARM Compiler 5.05 update 1 (build 106) Tool: armlink [4d0efa]

==============================================================================

Section Cross References

    main.o(i.fputc) refers to gd32f30x_usart.o(i.usart_data_transmit) for usart_data_transmit
    main.o(i.fputc) refers to gd32f30x_usart.o(i.usart_flag_get) for usart_flag_get
    main.o(i.led_config) refers to gd32f303e_eval.o(i.gd_eval_led_init) for gd_eval_led_init
    main.o(i.led_config) refers to gd32f303e_eval.o(i.gd_eval_led_off) for gd_eval_led_off
    main.o(i.led_turn_on) refers to gd32f303e_eval.o(i.gd_eval_led_on) for gd_eval_led_on
    main.o(i.main) refers to systick.o(i.systick_config) for systick_config
    main.o(i.main) refers to main.o(i.led_config) for led_config
    main.o(i.main) refers to gd32f303e_eval.o(i.gd_eval_com_init) for gd_eval_com_init
    main.o(i.main) refers to printf8.o(i.__0printf$8) for __2printf
    main.o(i.main) refers to i2c.o(i.gpio_config) for gpio_config
    main.o(i.main) refers to i2c.o(i.i2c_config) for i2c_config
    main.o(i.main) refers to at24cxx.o(i.i2c_eeprom_init) for i2c_eeprom_init
    main.o(i.main) refers to at24cxx.o(i.i2c_24c02_test) for i2c_24c02_test
    main.o(i.main) refers to gd32f303e_eval.o(i.gd_eval_led_off) for gd_eval_led_off
    main.o(i.main) refers to main.o(i.led_turn_on) for led_turn_on
    main.o(i.main) refers to systick.o(i.delay_1ms) for delay_1ms
    main.o(i.main) refers to gd32f303e_eval.o(i.gd_eval_led_on) for gd_eval_led_on
    main.o(i.main) refers to main.o(.data) for count
==============================================================================

Removing Unused input sections from the image.

    Removing main.o(.rev16_text), (4 bytes).
    Removing main.o(.revsh_text), (4 bytes).
    Removing main.o(.bss), (200 bytes).
    Removing gd32f30x_it.o(.rev16_text), (4 bytes).
    Removing gd32f30x_it.o(.revsh_text), (4 bytes).
    Removing systick.o(.rev16_text), (4 bytes).
    Removing systick.o(.revsh_text), (4 bytes).
    Removing system_gd32f30x.o(.rev16_text), (4 bytes).
    Removing system_gd32f30x.o(.revsh_text), (4 bytes).
    Removing system_gd32f30x.o(i.SystemCoreClockUpdate), (184 bytes).
    Removing gd32f30x_adc.o(.rev16_text), (4 bytes).
    Removing gd32f30x_adc.o(.revsh_text), (4 bytes).
    Removing gd32f30x_adc.o(i.adc_calibration_enable), (42 bytes).
    Removing gd32f30x_adc.o(i.adc_channel_length_config), (70 bytes).
    Removing gd32f30x_adc.o(i.adc_data_alignment_config), (22 bytes).
    Removing gd32f30x_adc.o(i.adc_deinit), (88 bytes).
    Removing gd32f30x_adc.o(i.adc_disable), (10 bytes).
    Removing gd32f30x_adc.o(i.adc_discontinuous_mode_config), (76 bytes).
==============================================================================

Image Symbol Table

    Local Symbols

    Symbol Name                              Value     Ov Type        Size  Object(Section)

    ../clib/microlib/division.c              0x00000000   Number         0  uidiv.o ABSOLUTE
    ../clib/microlib/division.c              0x00000000   Number         0  uldiv.o ABSOLUTE
    ../clib/microlib/init/entry.s            0x00000000   Number         0  entry9a.o ABSOLUTE
    ../clib/microlib/init/entry.s            0x00000000   Number         0  entry8a.o ABSOLUTE
    ../clib/microlib/init/entry.s            0x00000000   Number         0  entry8b.o ABSOLUTE
    ../clib/microlib/init/entry.s            0x00000000   Number         0  entry.o ABSOLUTE
    ../clib/microlib/init/entry.s            0x00000000   Number         0  entry2.o ABSOLUTE
    ../clib/microlib/init/entry.s            0x00000000   Number         0  entry5.o ABSOLUTE
    ../clib/microlib/init/entry.s            0x00000000   Number         0  entry7a.o ABSOLUTE
    ../clib/microlib/init/entry.s            0x00000000   Number         0  entry7b.o ABSOLUTE
    ../clib/microlib/init/entry.s            0x00000000   Number         0  entry11b.o ABSOLUTE
    ../clib/microlib/init/entry.s            0x00000000   Number         0  entry11a.o ABSOLUTE
    ../clib/microlib/init/entry.s            0x00000000   Number         0  entry10b.o ABSOLUTE
    ../clib/microlib/init/entry.s            0x00000000   Number         0  entry10a.o ABSOLUTE
    ../clib/microlib/init/entry.s            0x00000000   Number         0  entry9b.o ABSOLUTE
    ../clib/microlib/longlong.c              0x00000000   Number         0  llushr.o ABSOLUTE
    ../clib/microlib/longlong.c              0x00000000   Number         0  llshl.o ABSOLUTE
    ../clib/microlib/longlong.c              0x00000000   Number         0  llsshr.o ABSOLUTE
    ../clib/microlib/printf/printf.c         0x00000000   Number         0  printf3.o ABSOLUTE
    ../clib/microlib/printf/printf.c         0x00000000   Number         0  printf1.o ABSOLUTE
    ../clib/microlib/printf/printf.c         0x00000000   Number         0  printf6.o ABSOLUTE
    ../clib/microlib/printf/printf.c         0x00000000   Number         0  printfa.o ABSOLUTE
    ../clib/microlib/printf/printf.c         0x00000000   Number         0  printf7.o ABSOLUTE
    ../clib/microlib/printf/printf.c         0x00000000   Number         0  printf8.o ABSOLUTE
    ../clib/microlib/printf/printf.c         0x00000000   Number         0  printf2.o ABSOLUTE
    ../clib/microlib/printf/printf.c         0x00000000   Number         0  printf4.o ABSOLUTE
    ../clib/microlib/printf/printf.c         0x00000000   Number         0  printf0.o ABSOLUTE
    ../clib/microlib/printf/printf.c         0x00000000   Number         0  printfb.o ABSOLUTE
    ../clib/microlib/printf/printf.c         0x00000000   Number         0  printf5.o ABSOLUTE
    ../clib/microlib/printf/stubs.s          0x00000000   Number         0  stubs.o ABSOLUTE
    ../clib/microlib/stdio/streams.c         0x00000000   Number         0  stdout.o ABSOLUTE
    ../clib/microlib/stubs.s                 0x00000000   Number         0  iusefp.o ABSOLUTE
    ../fplib/microlib/fpadd.c                0x00000000   Number         0  dadd.o ABSOLUTE
    ../fplib/microlib/fpdiv.c                0x00000000   Number         0  ddiv.o ABSOLUTE
    ../fplib/microlib/fpepilogue.c           0x00000000   Number         0  depilogue.o ABSOLUTE
    ../fplib/microlib/fpfix.c                0x00000000   Number         0  dfixul.o ABSOLUTE
    ../fplib/microlib/fpmul.c                0x00000000   Number         0  dmul.o ABSOLUTE
    ..\..\..\Library\Firmware\CMSIS\GD\GD32F30x\Source\ARM\startup_gd32f30x_hd.s 0x00000000   Number         0  startup_gd32f30x_hd.o ABSOLUTE
    ..\..\..\Library\Firmware\CMSIS\GD\GD32F30x\Source\system_gd32f30x.c 0x00000000   Number         0  system_gd32f30x.o ABSOLUTE
    ..\..\..\Library\Firmware\GD32F30x_standard_peripheral\Source\gd32f30x_adc.c 0x00000000   Number         0  gd32f30x_adc.o ABSOLUTE
    ..\..\..\Library\Firmware\GD32F30x_standard_peripheral\Source\gd32f30x_bkp.c 0x00000000   Number         0  gd32f30x_bkp.o ABSOLUTE
    ..\..\..\Library\Firmware\GD32F30x_standard_peripheral\Source\gd32f30x_can.c 0x00000000   Number         0  gd32f30x_can.o ABSOLUTE
    ..\..\..\Library\Firmware\GD32F30x_standard_peripheral\Source\gd32f30x_crc.c 0x00000000   Number         0  gd32f30x_crc.o ABSOLUTE
    ..\..\..\Library\Firmware\GD32F30x_standard_peripheral\Source\gd32f30x_ctc.c 0x00000000   Number         0  gd32f30x_ctc.o ABSOLUTE
    ..\..\..\Library\Firmware\GD32F30x_standard_peripheral\Source\gd32f30x_dac.c 0x00000000   Number         0  gd32f30x_dac.o ABSOLUTE
    ..\..\..\Library\Firmware\GD32F30x_standard_peripheral\Source\gd32f30x_dbg.c 0x00000000   Number         0  gd32f30x_dbg.o ABSOLUTE
    ..\..\..\Library\Firmware\GD32F30x_standard_peripheral\Source\gd32f30x_dma.c 0x00000000   Number         0  gd32f30x_dma.o ABSOLUTE
    ..\..\..\Library\Firmware\GD32F30x_standard_peripheral\Source\gd32f30x_enet.c 0x00000000   Number         0  gd32f30x_enet.o ABSOLUTE
    ..\..\..\Library\Firmware\GD32F30x_standard_peripheral\Source\gd32f30x_exmc.c 0x00000000   Number         0  gd32f30x_exmc.o ABSOLUTE
    ..\..\..\Library\Firmware\GD32F30x_standard_peripheral\Source\gd32f30x_exti.c 0x00000000   Number         0  gd32f30x_exti.o ABSOLUTE
    ..\..\..\Library\Firmware\GD32F30x_standard_peripheral\Source\gd32f30x_fmc.c 0x00000000   Number         0  gd32f30x_fmc.o ABSOLUTE
    ..\..\..\Library\Firmware\GD32F30x_standard_peripheral\Source\gd32f30x_fwdgt.c 0x00000000   Number         0  gd32f30x_fwdgt.o ABSOLUTE
    ..\..\..\Library\Firmware\GD32F30x_standard_peripheral\Source\gd32f30x_gpio.c 0x00000000   Number         0  gd32f30x_gpio.o ABSOLUTE
    ..\..\..\Library\Firmware\GD32F30x_standard_peripheral\Source\gd32f30x_i2c.c 0x00000000   Number         0  gd32f30x_i2c.o ABSOLUTE
    ..\..\..\Library\Firmware\GD32F30x_standard_peripheral\Source\gd32f30x_misc.c 0x00000000   Number         0  gd32f30x_misc.o ABSOLUTE
    ..\..\..\Library\Firmware\GD32F30x_standard_peripheral\Source\gd32f30x_pmu.c 0x00000000   Number         0  gd32f30x_pmu.o ABSOLUTE
    ..\..\..\Library\Firmware\GD32F30x_standard_peripheral\Source\gd32f30x_rcu.c 0x00000000   Number         0  gd32f30x_rcu.o ABSOLUTE
    ..\..\..\Library\Firmware\GD32F30x_standard_peripheral\Source\gd32f30x_rtc.c 0x00000000   Number         0  gd32f30x_rtc.o ABSOLUTE
    ..\..\..\Library\Firmware\GD32F30x_standard_peripheral\Source\gd32f30x_sdio.c 0x00000000   Number         0  gd32f30x_sdio.o ABSOLUTE
    ..\..\..\Library\Firmware\GD32F30x_standard_peripheral\Source\gd32f30x_spi.c 0x00000000   Number         0  gd32f30x_spi.o ABSOLUTE
    ..\..\..\Library\Firmware\GD32F30x_standard_peripheral\Source\gd32f30x_timer.c 0x00000000   Number         0  gd32f30x_timer.o ABSOLUTE
    ..\..\..\Library\Firmware\GD32F30x_standard_peripheral\Source\gd32f30x_usart.c 0x00000000   Number         0  gd32f30x_usart.o ABSOLUTE
    ..\..\..\Library\Firmware\GD32F30x_standard_peripheral\Source\gd32f30x_wwdgt.c 0x00000000   Number         0  gd32f30x_wwdgt.o ABSOLUTE
    ..\..\..\Library\Utilities\gd32f303e_eval.c 0x00000000   Number         0  gd32f303e_eval.o ABSOLUTE
    ..\\..\\..\\Library\\Firmware\\CMSIS\\GD\\GD32F30x\\Source\\system_gd32f30x.c 0x00000000   Number         0  system_gd32f30x.o ABSOLUTE
    ..\\..\\..\\Library\\Firmware\\GD32F30x_standard_peripheral\\Source\\gd32f30x_adc.c 0x00000000   Number         0  gd32f30x_adc.o ABSOLUTE
    ..\\..\\..\\Library\\Firmware\\GD32F30x_standard_peripheral\\Source\\gd32f30x_bkp.c 0x00000000   Number         0  gd32f30x_bkp.o ABSOLUTE
    ..\\..\\..\\Library\\Firmware\\GD32F30x_standard_peripheral\\Source\\gd32f30x_can.c 0x00000000   Number         0  gd32f30x_can.o ABSOLUTE
    ..\\..\\..\\Library\\Firmware\\GD32F30x_standard_peripheral\\Source\\gd32f30x_crc.c 0x00000000   Number         0  gd32f30x_crc.o ABSOLUTE
    ..\\..\\..\\Library\\Firmware\\GD32F30x_standard_peripheral\\Source\\gd32f30x_ctc.c 0x00000000   Number         0  gd32f30x_ctc.o ABSOLUTE
    ..\\..\\..\\Library\\Firmware\\GD32F30x_standard_peripheral\\Source\\gd32f30x_dac.c 0x00000000   Number         0  gd32f30x_dac.o ABSOLUTE
    ..\\..\\..\\Library\\Firmware\\GD32F30x_standard_peripheral\\Source\\gd32f30x_dbg.c 0x00000000   Number         0  gd32f30x_dbg.o ABSOLUTE
    ..\\..\\..\\Library\\Firmware\\GD32F30x_standard_peripheral\\Source\\gd32f30x_dma.c 0x00000000   Number         0  gd32f30x_dma.o ABSOLUTE
    ..\\..\\..\\Library\\Firmware\\GD32F30x_standard_peripheral\\Source\\gd32f30x_enet.c 0x00000000   Number         0  gd32f30x_enet.o ABSOLUTE
    ..\\..\\..\\Library\\Firmware\\GD32F30x_standard_peripheral\\Source\\gd32f30x_exmc.c 0x00000000   Number         0  gd32f30x_exmc.o ABSOLUTE
    ..\\..\\..\\Library\\Firmware\\GD32F30x_standard_peripheral\\Source\\gd32f30x_exti.c 0x00000000   Number         0  gd32f30x_exti.o ABSOLUTE
    ..\\..\\..\\Library\\Firmware\\GD32F30x_standard_peripheral\\Source\\gd32f30x_fmc.c 0x00000000   Number         0  gd32f30x_fmc.o ABSOLUTE
    ..\\..\\..\\Library\\Firmware\\GD32F30x_standard_peripheral\\Source\\gd32f30x_fwdgt.c 0x00000000   Number         0  gd32f30x_fwdgt.o ABSOLUTE
    ..\\..\\..\\Library\\Firmware\\GD32F30x_standard_peripheral\\Source\\gd32f30x_gpio.c 0x00000000   Number         0  gd32f30x_gpio.o ABSOLUTE
    ..\\..\\..\\Library\\Firmware\\GD32F30x_standard_peripheral\\Source\\gd32f30x_i2c.c 0x00000000   Number         0  gd32f30x_i2c.o ABSOLUTE
    ..\\..\\..\\Library\\Firmware\\GD32F30x_standard_peripheral\\Source\\gd32f30x_misc.c 0x00000000   Number         0  gd32f30x_misc.o ABSOLUTE
    ..\\..\\..\\Library\\Firmware\\GD32F30x_standard_peripheral\\Source\\gd32f30x_pmu.c 0x00000000   Number         0  gd32f30x_pmu.o ABSOLUTE
    ..\\..\\..\\Library\\Firmware\\GD32F30x_standard_peripheral\\Source\\gd32f30x_rcu.c 0x00000000   Number         0  gd32f30x_rcu.o ABSOLUTE
    ..\\..\\..\\Library\\Firmware\\GD32F30x_standard_peripheral\\Source\\gd32f30x_rtc.c 0x00000000   Number         0  gd32f30x_rtc.o ABSOLUTE
    ..\\..\\..\\Library\\Firmware\\GD32F30x_standard_peripheral\\Source\\gd32f30x_sdio.c 0x00000000   Number         0  gd32f30x_sdio.o ABSOLUTE
    ..\\..\\..\\Library\\Firmware\\GD32F30x_standard_peripheral\\Source\\gd32f30x_spi.c 0x00000000   Number         0  gd32f30x_spi.o ABSOLUTE
    ..\\..\\..\\Library\\Firmware\\GD32F30x_standard_peripheral\\Source\\gd32f30x_timer.c 0x00000000   Number         0  gd32f30x_timer.o ABSOLUTE
    ..\\..\\..\\Library\\Firmware\\GD32F30x_standard_peripheral\\Source\\gd32f30x_usart.c 0x00000000   Number         0  gd32f30x_usart.o ABSOLUTE
    ..\\..\\..\\Library\\Firmware\\GD32F30x_standard_peripheral\\Source\\gd32f30x_wwdgt.c 0x00000000   Number         0  gd32f30x_wwdgt.o ABSOLUTE
    ..\\..\\..\\Library\\Utilities\\gd32f303e_eval.c 0x00000000   Number         0  gd32f303e_eval.o ABSOLUTE
    ..\\bsp\\i2c\\at24cxx.c                  0x00000000   Number         0  at24cxx.o ABSOLUTE
    ..\\bsp\\i2c\\i2c.c                      0x00000000   Number         0  i2c.o ABSOLUTE
    ..\\bsp\\i2c\\i2c_soft.c                 0x00000000   Number         0  i2c_soft.o ABSOLUTE
    ..\\gd32f30x_it.c                        0x00000000   Number         0  gd32f30x_it.o ABSOLUTE
    ..\\main.c                               0x00000000   Number         0  main.o ABSOLUTE
    ..\\systick.c                            0x00000000   Number         0  systick.o ABSOLUTE
    ..\bsp\i2c\at24cxx.c                     0x00000000   Number         0  at24cxx.o ABSOLUTE
    ..\bsp\i2c\i2c.c                         0x00000000   Number         0  i2c.o ABSOLUTE
    ..\bsp\i2c\i2c_soft.c                    0x00000000   Number         0  i2c_soft.o ABSOLUTE
    ..\gd32f30x_it.c                         0x00000000   Number         0  gd32f30x_it.o ABSOLUTE
    ..\main.c                                0x00000000   Number         0  main.o ABSOLUTE
    ..\systick.c                             0x00000000   Number         0  systick.o ABSOLUTE
    cdrcmple.s                               0x00000000   Number         0  cdrcmple.o ABSOLUTE
    dc.s                                     0x00000000   Number         0  dc.o ABSOLUTE
    handlers.s                               0x00000000   Number         0  handlers.o ABSOLUTE
    init.s                                   0x00000000   Number         0  init.o ABSOLUTE
    RESET                                    0x08000000   Section      304  startup_gd32f30x_hd.o(RESET)
    .ARM.Collect$$$$00000000                 0x08000130   Section        0  entry.o(.ARM.Collect$$$$00000000)
    .ARM.Collect$$$$00000001                 0x08000130   Section        4  entry2.o(.ARM.Collect$$$$00000001)
    .ARM.Collect$$$$00000004                 0x08000134   Section        4  entry5.o(.ARM.Collect$$$$00000004)
    .ARM.Collect$$$$00000008                 0x08000138   Section        0  entry7b.o(.ARM.Collect$$$$00000008)
    .ARM.Collect$$$$0000000A                 0x08000138   Section        0  entry8b.o(.ARM.Collect$$$$0000000A)
    .ARM.Collect$$$$0000000B                 0x08000138   Section        8  entry9a.o(.ARM.Collect$$$$0000000B)
    .ARM.Collect$$$$0000000D                 0x08000140   Section        0  entry10a.o(.ARM.Collect$$$$0000000D)
    .ARM.Collect$$$$0000000F                 0x08000140   Section        0  entry11a.o(.ARM.Collect$$$$0000000F)
    .ARM.Collect$$$$00002712                 0x08000140   Section        4  entry2.o(.ARM.Collect$$$$00002712)
    __lit__00000000                          0x08000140   Data           4  entry2.o(.ARM.Collect$$$$00002712)
    .text                                    0x08000144   Section       36  startup_gd32f30x_hd.o(.text)
    $v0                                      0x08000144   Number         0  startup_gd32f30x_hd.o(.text)
    .text                                    0x08000168   Section        0  uldiv.o(.text)
    .text                                    0x080001cc   Section       36  init.o(.text)
    .text                                    0x080001f0   Section        0  llshl.o(.text)
    .text                                    0x0800020e   Section        0  llushr.o(.text)
    i.BusFault_Handler                       0x0800022e   Section        0  gd32f30x_it.o(i.BusFault_Handler)
    i.DebugMon_Handler                       0x08000232   Section        0  gd32f30x_it.o(i.DebugMon_Handler)
    i.HardFault_Handler                      0x08000234   Section        0  gd32f30x_it.o(i.HardFault_Handler)
    i.MemManage_Handler                      0x08000238   Section        0  gd32f30x_it.o(i.MemManage_Handler)
    i.NMI_Handler                            0x0800023c   Section        0  gd32f30x_it.o(i.NMI_Handler)
    i.NVIC_SetPriority                       0x08000240   Section        0  systick.o(i.NVIC_SetPriority)
    NVIC_SetPriority                         0x08000241   Thumb Code    32  systick.o(i.NVIC_SetPriority)
    i.PendSV_Handler                         0x08000268   Section        0  gd32f30x_it.o(i.PendSV_Handler)
    i.SVC_Handler                            0x0800026a   Section        0  gd32f30x_it.o(i.SVC_Handler)
    i.SysTick_Handler                        0x0800026c   Section        0  gd32f30x_it.o(i.SysTick_Handler)
    i.SystemInit                             0x08000274   Section        0  system_gd32f30x.o(i.SystemInit)
    i.UsageFault_Handler                     0x080002c4   Section        0  gd32f30x_it.o(i.UsageFault_Handler)
    i.__0printf$8                            0x080002c8   Section        0  printf8.o(i.__0printf$8)
    i.__scatterload_copy                     0x080002e8   Section       14  handlers.o(i.__scatterload_copy)
    i.__scatterload_null                     0x080002f6   Section        2  handlers.o(i.__scatterload_null)
    i.__scatterload_zeroinit                 0x080002f8   Section       14  handlers.o(i.__scatterload_zeroinit)
    i._printf_core                           0x08000308   Section        0  printf8.o(i._printf_core)
    _printf_core                             0x08000309   Thumb Code   996  printf8.o(i._printf_core)
    i._printf_post_padding                   0x08000718   Section        0  printf8.o(i._printf_post_padding)
    _printf_post_padding                     0x08000719   Thumb Code    36  printf8.o(i._printf_post_padding)
    i._printf_pre_padding                    0x0800073c   Section        0  printf8.o(i._printf_pre_padding)
    _printf_pre_padding                      0x0800073d   Thumb Code    46  printf8.o(i._printf_pre_padding)
    i.delay_1ms                              0x0800076c   Section        0  systick.o(i.delay_1ms)
    i.delay_decrement                        0x08000780   Section        0  systick.o(i.delay_decrement)
    i.eeprom_buffer_read                     0x08000798   Section        0  at24cxx.o(i.eeprom_buffer_read)
    i.eeprom_buffer_write                    0x080007bc   Section        0  at24cxx.o(i.eeprom_buffer_write)
    i.eeprom_page_write                      0x080008d0   Section        0  at24cxx.o(i.eeprom_page_write)
    i.eeprom_wait_standby_state              0x080008f4   Section        0  at24cxx.o(i.eeprom_wait_standby_state)
    i.fputc                                  0x08000988   Section        0  main.o(i.fputc)
    i.gd_eval_com_init                       0x080009ac   Section        0  gd32f303e_eval.o(i.gd_eval_com_init)
    i.gd_eval_led_init                       0x08000a44   Section        0  gd32f303e_eval.o(i.gd_eval_led_init)
    i.gd_eval_led_off                        0x08000a84   Section        0  gd32f303e_eval.o(i.gd_eval_led_off)
    i.gd_eval_led_on                         0x08000a9c   Section        0  gd32f303e_eval.o(i.gd_eval_led_on)
    i.gpio_config                            0x08000ab4   Section        0  i2c.o(i.gpio_config)
    i.gpio_init                              0x08000ad8   Section        0  gd32f30x_gpio.o(i.gpio_init)
    i.i2c_24c02_test                         0x08000b7c   Section        0  at24cxx.o(i.i2c_24c02_test)
    i.i2c_ack_config                         0x08000cb0   Section        0  gd32f30x_i2c.o(i.i2c_ack_config)
    i.i2c_ackpos_config                      0x08000cc8   Section        0  gd32f30x_i2c.o(i.i2c_ackpos_config)
    i.i2c_buffer_read                        0x08000ce0   Section        0  i2c.o(i.i2c_buffer_read)
    i.i2c_buffer_write                       0x08000e2c   Section        0  i2c.o(i.i2c_buffer_write)
    i.i2c_clock_config                       0x08000ee8   Section        0  gd32f30x_i2c.o(i.i2c_clock_config)
    i.i2c_config                             0x08001014   Section        0  i2c.o(i.i2c_config)
    i.i2c_data_receive                       0x0800104c   Section        0  gd32f30x_i2c.o(i.i2c_data_receive)
    i.i2c_data_transmit                      0x08001054   Section        0  gd32f30x_i2c.o(i.i2c_data_transmit)
    i.i2c_eeprom_init                        0x0800105c   Section        0  at24cxx.o(i.i2c_eeprom_init)
    i.i2c_enable                             0x08001068   Section        0  gd32f30x_i2c.o(i.i2c_enable)
    i.i2c_flag_clear                         0x08001072   Section        0  gd32f30x_i2c.o(i.i2c_flag_clear)
    i.i2c_flag_get                           0x08001084   Section        0  gd32f30x_i2c.o(i.i2c_flag_get)
    i.i2c_master_addressing                  0x080010b6   Section        0  gd32f30x_i2c.o(i.i2c_master_addressing)
    i.i2c_mode_addr_config                   0x080010ca   Section        0  gd32f30x_i2c.o(i.i2c_mode_addr_config)
    i.i2c_start_on_bus                       0x080010e2   Section        0  gd32f30x_i2c.o(i.i2c_start_on_bus)
    i.i2c_stop_on_bus                        0x080010ec   Section        0  gd32f30x_i2c.o(i.i2c_stop_on_bus)
    i.led_config                             0x080010f6   Section        0  main.o(i.led_config)
    i.led_turn_on                            0x0800112a   Section        0  main.o(i.led_turn_on)
    i.main                                   0x0800117c   Section        0  main.o(i.main)
    i.rcu_clock_freq_get                     0x0800127c   Section        0  gd32f30x_rcu.o(i.rcu_clock_freq_get)
    i.rcu_periph_clock_enable                0x080013d4   Section        0  gd32f30x_rcu.o(i.rcu_periph_clock_enable)
    i.rcu_periph_reset_disable               0x080013f4   Section        0  gd32f30x_rcu.o(i.rcu_periph_reset_disable)
    i.rcu_periph_reset_enable                0x08001414   Section        0  gd32f30x_rcu.o(i.rcu_periph_reset_enable)
    i.system_clock_120m_hxtal                0x08001434   Section        0  system_gd32f30x.o(i.system_clock_120m_hxtal)
    system_clock_120m_hxtal                  0x08001435   Thumb Code   256  system_gd32f30x.o(i.system_clock_120m_hxtal)
    i.system_clock_config                    0x08001544   Section        0  system_gd32f30x.o(i.system_clock_config)
    system_clock_config                      0x08001545   Thumb Code     8  system_gd32f30x.o(i.system_clock_config)
    i.systick_config                         0x0800154c   Section        0  systick.o(i.systick_config)
    i.usart_baudrate_set                     0x0800159c   Section        0  gd32f30x_usart.o(i.usart_baudrate_set)
    i.usart_data_transmit                    0x08001630   Section        0  gd32f30x_usart.o(i.usart_data_transmit)
    i.usart_deinit                           0x08001638   Section        0  gd32f30x_usart.o(i.usart_deinit)
    i.usart_enable                           0x080016c8   Section        0  gd32f30x_usart.o(i.usart_enable)
    i.usart_flag_get                         0x080016d2   Section        0  gd32f30x_usart.o(i.usart_flag_get)
    i.usart_receive_config                   0x080016f0   Section        0  gd32f30x_usart.o(i.usart_receive_config)
    i.usart_transmit_config                  0x08001700   Section        0  gd32f30x_usart.o(i.usart_transmit_config)
    .data                                    0x20000000   Section        4  main.o(.data)
    .data                                    0x20000004   Section        4  systick.o(.data)
    delay                                    0x20000004   Data           4  systick.o(.data)
    .data                                    0x20000008   Section        4  system_gd32f30x.o(.data)
    .data                                    0x2000000c   Section      140  gd32f303e_eval.o(.data)
    GPIO_PORT                                0x2000000c   Data          16  gd32f303e_eval.o(.data)
    GPIO_PIN                                 0x2000001c   Data          16  gd32f303e_eval.o(.data)
    COM_CLK                                  0x2000002c   Data           4  gd32f303e_eval.o(.data)
    COM_TX_PIN                               0x20000030   Data           8  gd32f303e_eval.o(.data)
    COM_RX_PIN                               0x20000038   Data           8  gd32f303e_eval.o(.data)
    COM_GPIO_PORT                            0x20000040   Data           8  gd32f303e_eval.o(.data)
    COM_GPIO_CLK                             0x20000048   Data           4  gd32f303e_eval.o(.data)
    GPIO_CLK                                 0x2000004c   Data           8  gd32f303e_eval.o(.data)
    KEY_PORT                                 0x20000054   Data          16  gd32f303e_eval.o(.data)
    KEY_PIN                                  0x20000064   Data          16  gd32f303e_eval.o(.data)
    KEY_CLK                                  0x20000074   Data           8  gd32f303e_eval.o(.data)
    KEY_EXTI_LINE                            0x2000007c   Data          16  gd32f303e_eval.o(.data)
    KEY_PORT_SOURCE                          0x2000008c   Data           4  gd32f303e_eval.o(.data)
    KEY_PIN_SOURCE                           0x20000090   Data           4  gd32f303e_eval.o(.data)
    KEY_IRQn                                 0x20000094   Data           4  gd32f303e_eval.o(.data)
    .data                                    0x20000098   Section        2  at24cxx.o(.data)
    .data                                    0x2000009c   Section        4  stdout.o(.data)
    STACK                                    0x200000a0   Section     1024  startup_gd32f30x_hd.o(STACK)

    Global Symbols

    Symbol Name                              Value     Ov Type        Size  Object(Section)

    BuildAttributes$$THM_ISAv4$E$P$D$K$B$S$7EM$VFPi3$EXTD16$VFPS$VFMA$PE$A:L22UL41UL21$X:L11$S22US41US21$IEEE1$IW$USESV6$~STKCKD$USESV7$~SHL$OSPACE$ROPI$EBA8$MICROLIB$REQ8$PRES8$EABIv2 0x00000000   Number         0  anon$$obj.o ABSOLUTE
    __ARM_use_no_argv                        0x00000000   Number         0  main.o ABSOLUTE
    _printf_a                                0x00000000   Number         0  stubs.o ABSOLUTE
    _printf_c                                0x00000000   Number         0  stubs.o ABSOLUTE
    _printf_charcount                        0x00000000   Number         0  stubs.o ABSOLUTE
    _printf_d                                0x00000000   Number         0  stubs.o ABSOLUTE
    _printf_e                                0x00000000   Number         0  stubs.o ABSOLUTE
    _printf_f                                0x00000000   Number         0  stubs.o ABSOLUTE
    _printf_flags                            0x00000000   Number         0  stubs.o ABSOLUTE
    _printf_fp_dec                           0x00000000   Number         0  stubs.o ABSOLUTE
    _printf_fp_hex                           0x00000000   Number         0  stubs.o ABSOLUTE
    _printf_g                                0x00000000   Number         0  stubs.o ABSOLUTE
    _printf_i                                0x00000000   Number         0  stubs.o ABSOLUTE
    _printf_int_dec                          0x00000000   Number         0  stubs.o ABSOLUTE
    _printf_l                                0x00000000   Number         0  stubs.o ABSOLUTE
    _printf_lc                               0x00000000   Number         0  stubs.o ABSOLUTE
    _printf_ll                               0x00000000   Number         0  stubs.o ABSOLUTE
    _printf_lld                              0x00000000   Number         0  stubs.o ABSOLUTE
    _printf_lli                              0x00000000   Number         0  stubs.o ABSOLUTE
    _printf_llo                              0x00000000   Number         0  stubs.o ABSOLUTE
    _printf_llu                              0x00000000   Number         0  stubs.o ABSOLUTE
    _printf_llx                              0x00000000   Number         0  stubs.o ABSOLUTE
    _printf_longlong_dec                     0x00000000   Number         0  stubs.o ABSOLUTE
    _printf_longlong_hex                     0x00000000   Number         0  stubs.o ABSOLUTE
    _printf_longlong_oct                     0x00000000   Number         0  stubs.o ABSOLUTE
    _printf_ls                               0x00000000   Number         0  stubs.o ABSOLUTE
    _printf_mbtowc                           0x00000000   Number         0  stubs.o ABSOLUTE
    _printf_n                                0x00000000   Number         0  stubs.o ABSOLUTE
    _printf_o                                0x00000000   Number         0  stubs.o ABSOLUTE
    _printf_p                                0x00000000   Number         0  stubs.o ABSOLUTE
    _printf_percent                          0x00000000   Number         0  stubs.o ABSOLUTE
    _printf_pre_padding                      0x00000000   Number         0  stubs.o ABSOLUTE
    _printf_return_value                     0x00000000   Number         0  stubs.o ABSOLUTE
    _printf_s                                0x00000000   Number         0  stubs.o ABSOLUTE
    _printf_sizespec                         0x00000000   Number         0  stubs.o ABSOLUTE
    _printf_str                              0x00000000   Number         0  stubs.o ABSOLUTE
    _printf_truncate_signed                  0x00000000   Number         0  stubs.o ABSOLUTE
    _printf_truncate_unsigned                0x00000000   Number         0  stubs.o ABSOLUTE
    _printf_u                                0x00000000   Number         0  stubs.o ABSOLUTE
    _printf_wc                               0x00000000   Number         0  stubs.o ABSOLUTE
    _printf_wctomb                           0x00000000   Number         0  stubs.o ABSOLUTE
    _printf_widthprec                        0x00000000   Number         0  stubs.o ABSOLUTE
    _printf_x                                0x00000000   Number         0  stubs.o ABSOLUTE
    __cpp_initialize__aeabi_                  - Undefined Weak Reference
    __cxa_finalize                            - Undefined Weak Reference
    __decompress                              - Undefined Weak Reference
    _clock_init                               - Undefined Weak Reference
    _microlib_exit                            - Undefined Weak Reference
    __Vectors_Size                           0x00000130   Number         0  startup_gd32f30x_hd.o ABSOLUTE
    __Vectors                                0x08000000   Data           4  startup_gd32f30x_hd.o(RESET)
    __Vectors_End                            0x08000130   Data           0  startup_gd32f30x_hd.o(RESET)
    __main                                   0x08000131   Thumb Code     0  entry.o(.ARM.Collect$$$$00000000)
    _main_stk                                0x08000131   Thumb Code     0  entry2.o(.ARM.Collect$$$$00000001)
    _main_scatterload                        0x08000135   Thumb Code     0  entry5.o(.ARM.Collect$$$$00000004)
    __main_after_scatterload                 0x08000139   Thumb Code     0  entry5.o(.ARM.Collect$$$$00000004)
    _main_clock                              0x08000139   Thumb Code     0  entry7b.o(.ARM.Collect$$$$00000008)
    _main_cpp_init                           0x08000139   Thumb Code     0  entry8b.o(.ARM.Collect$$$$0000000A)
    _main_init                               0x08000139   Thumb Code     0  entry9a.o(.ARM.Collect$$$$0000000B)
    __rt_final_cpp                           0x08000141   Thumb Code     0  entry10a.o(.ARM.Collect$$$$0000000D)
    __rt_final_exit                          0x08000141   Thumb Code     0  entry11a.o(.ARM.Collect$$$$0000000F)
    Reset_Handler                            0x08000145   Thumb Code     8  startup_gd32f30x_hd.o(.text)
    ADC0_1_IRQHandler                        0x0800015f   Thumb Code     0  startup_gd32f30x_hd.o(.text)
    ADC2_IRQHandler                          0x0800015f   Thumb Code     0  startup_gd32f30x_hd.o(.text)
    CAN0_EWMC_IRQHandler                     0x0800015f   Thumb Code     0  startup_gd32f30x_hd.o(.text)
    CAN0_RX1_IRQHandler                      0x0800015f   Thumb Code     0  startup_gd32f30x_hd.o(.text)
    DMA0_Channel0_IRQHandler                 0x0800015f   Thumb Code     0  startup_gd32f30x_hd.o(.text)
    DMA0_Channel1_IRQHandler                 0x0800015f   Thumb Code     0  startup_gd32f30x_hd.o(.text)
    DMA0_Channel2_IRQHandler                 0x0800015f   Thumb Code     0  startup_gd32f30x_hd.o(.text)
    DMA0_Channel3_IRQHandler                 0x0800015f   Thumb Code     0  startup_gd32f30x_hd.o(.text)
    DMA0_Channel4_IRQHandler                 0x0800015f   Thumb Code     0  startup_gd32f30x_hd.o(.text)
    DMA0_Channel5_IRQHandler                 0x0800015f   Thumb Code     0  startup_gd32f30x_hd.o(.text)
    DMA0_Channel6_IRQHandler                 0x0800015f   Thumb Code     0  startup_gd32f30x_hd.o(.text)
    DMA1_Channel0_IRQHandler                 0x0800015f   Thumb Code     0  startup_gd32f30x_hd.o(.text)
    DMA1_Channel1_IRQHandler                 0x0800015f   Thumb Code     0  startup_gd32f30x_hd.o(.text)
    DMA1_Channel2_IRQHandler                 0x0800015f   Thumb Code     0  startup_gd32f30x_hd.o(.text)
    DMA1_Channel3_4_IRQHandler               0x0800015f   Thumb Code     0  startup_gd32f30x_hd.o(.text)
    EXMC_IRQHandler                          0x0800015f   Thumb Code     0  startup_gd32f30x_hd.o(.text)
    EXTI0_IRQHandler                         0x0800015f   Thumb Code     0  startup_gd32f30x_hd.o(.text)
    EXTI10_15_IRQHandler                     0x0800015f   Thumb Code     0  startup_gd32f30x_hd.o(.text)
    EXTI1_IRQHandler                         0x0800015f   Thumb Code     0  startup_gd32f30x_hd.o(.text)
    EXTI2_IRQHandler                         0x0800015f   Thumb Code     0  startup_gd32f30x_hd.o(.text)
    EXTI3_IRQHandler                         0x0800015f   Thumb Code     0  startup_gd32f30x_hd.o(.text)
    EXTI4_IRQHandler                         0x0800015f   Thumb Code     0  startup_gd32f30x_hd.o(.text)
    EXTI5_9_IRQHandler                       0x0800015f   Thumb Code     0  startup_gd32f30x_hd.o(.text)
    FMC_IRQHandler                           0x0800015f   Thumb Code     0  startup_gd32f30x_hd.o(.text)
    I2C0_ER_IRQHandler                       0x0800015f   Thumb Code     0  startup_gd32f30x_hd.o(.text)
    I2C0_EV_IRQHandler                       0x0800015f   Thumb Code     0  startup_gd32f30x_hd.o(.text)
    I2C1_ER_IRQHandler                       0x0800015f   Thumb Code     0  startup_gd32f30x_hd.o(.text)
    I2C1_EV_IRQHandler                       0x0800015f   Thumb Code     0  startup_gd32f30x_hd.o(.text)
    LVD_IRQHandler                           0x0800015f   Thumb Code     0  startup_gd32f30x_hd.o(.text)
    RCU_CTC_IRQHandler                       0x0800015f   Thumb Code     0  startup_gd32f30x_hd.o(.text)
    RTC_Alarm_IRQHandler                     0x0800015f   Thumb Code     0  startup_gd32f30x_hd.o(.text)
    RTC_IRQHandler                           0x0800015f   Thumb Code     0  startup_gd32f30x_hd.o(.text)
    SDIO_IRQHandler                          0x0800015f   Thumb Code     0  startup_gd32f30x_hd.o(.text)
    SPI0_IRQHandler                          0x0800015f   Thumb Code     0  startup_gd32f30x_hd.o(.text)
    SPI1_IRQHandler                          0x0800015f   Thumb Code     0  startup_gd32f30x_hd.o(.text)
    SPI2_IRQHandler                          0x0800015f   Thumb Code     0  startup_gd32f30x_hd.o(.text)
    TAMPER_IRQHandler                        0x0800015f   Thumb Code     0  startup_gd32f30x_hd.o(.text)
    TIMER0_BRK_IRQHandler                    0x0800015f   Thumb Code     0  startup_gd32f30x_hd.o(.text)
    TIMER0_Channel_IRQHandler                0x0800015f   Thumb Code     0  startup_gd32f30x_hd.o(.text)
    TIMER0_TRG_CMT_IRQHandler                0x0800015f   Thumb Code     0  startup_gd32f30x_hd.o(.text)
    TIMER0_UP_IRQHandler                     0x0800015f   Thumb Code     0  startup_gd32f30x_hd.o(.text)
    TIMER1_IRQHandler                        0x0800015f   Thumb Code     0  startup_gd32f30x_hd.o(.text)
    TIMER2_IRQHandler                        0x0800015f   Thumb Code     0  startup_gd32f30x_hd.o(.text)
    TIMER3_IRQHandler                        0x0800015f   Thumb Code     0  startup_gd32f30x_hd.o(.text)
    TIMER4_IRQHandler                        0x0800015f   Thumb Code     0  startup_gd32f30x_hd.o(.text)
    TIMER5_IRQHandler                        0x0800015f   Thumb Code     0  startup_gd32f30x_hd.o(.text)
    TIMER6_IRQHandler                        0x0800015f   Thumb Code     0  startup_gd32f30x_hd.o(.text)
    TIMER7_BRK_IRQHandler                    0x0800015f   Thumb Code     0  startup_gd32f30x_hd.o(.text)
    TIMER7_Channel_IRQHandler                0x0800015f   Thumb Code     0  startup_gd32f30x_hd.o(.text)
    TIMER7_TRG_CMT_IRQHandler                0x0800015f   Thumb Code     0  startup_gd32f30x_hd.o(.text)
    TIMER7_UP_IRQHandler                     0x0800015f   Thumb Code     0  startup_gd32f30x_hd.o(.text)
    UART3_IRQHandler                         0x0800015f   Thumb Code     0  startup_gd32f30x_hd.o(.text)
    UART4_IRQHandler                         0x0800015f   Thumb Code     0  startup_gd32f30x_hd.o(.text)
    USART0_IRQHandler                        0x0800015f   Thumb Code     0  startup_gd32f30x_hd.o(.text)
    USART1_IRQHandler                        0x0800015f   Thumb Code     0  startup_gd32f30x_hd.o(.text)
    USART2_IRQHandler                        0x0800015f   Thumb Code     0  startup_gd32f30x_hd.o(.text)
    USBD_HP_CAN0_TX_IRQHandler               0x0800015f   Thumb Code     0  startup_gd32f30x_hd.o(.text)
    USBD_LP_CAN0_RX0_IRQHandler              0x0800015f   Thumb Code     0  startup_gd32f30x_hd.o(.text)
    USBD_WKUP_IRQHandler                     0x0800015f   Thumb Code     0  startup_gd32f30x_hd.o(.text)
    WWDGT_IRQHandler                         0x0800015f   Thumb Code     0  startup_gd32f30x_hd.o(.text)
    __aeabi_uldivmod                         0x08000169   Thumb Code    98  uldiv.o(.text)
    __scatterload                            0x080001cd   Thumb Code    28  init.o(.text)
    __scatterload_rt2                        0x080001cd   Thumb Code     0  init.o(.text)
    __aeabi_llsl                             0x080001f1   Thumb Code    30  llshl.o(.text)
    _ll_shift_l                              0x080001f1   Thumb Code     0  llshl.o(.text)
    __aeabi_llsr                             0x0800020f   Thumb Code    32  llushr.o(.text)
    _ll_ushift_r                             0x0800020f   Thumb Code     0  llushr.o(.text)
    BusFault_Handler                         0x0800022f   Thumb Code     4  gd32f30x_it.o(i.BusFault_Handler)
    DebugMon_Handler                         0x08000233   Thumb Code     2  gd32f30x_it.o(i.DebugMon_Handler)
    HardFault_Handler                        0x08000235   Thumb Code     4  gd32f30x_it.o(i.HardFault_Handler)
    MemManage_Handler                        0x08000239   Thumb Code     4  gd32f30x_it.o(i.MemManage_Handler)
    NMI_Handler                              0x0800023d   Thumb Code     2  gd32f30x_it.o(i.NMI_Handler)
    PendSV_Handler                           0x08000269   Thumb Code     2  gd32f30x_it.o(i.PendSV_Handler)
    SVC_Handler                              0x0800026b   Thumb Code     2  gd32f30x_it.o(i.SVC_Handler)
    SysTick_Handler                          0x0800026d   Thumb Code     8  gd32f30x_it.o(i.SysTick_Handler)
    SystemInit                               0x08000275   Thumb Code    66  system_gd32f30x.o(i.SystemInit)
    UsageFault_Handler                       0x080002c5   Thumb Code     4  gd32f30x_it.o(i.UsageFault_Handler)
    __0printf$8                              0x080002c9   Thumb Code    22  printf8.o(i.__0printf$8)
    __1printf$8                              0x080002c9   Thumb Code     0  printf8.o(i.__0printf$8)
    __2printf                                0x080002c9   Thumb Code     0  printf8.o(i.__0printf$8)
    __scatterload_copy                       0x080002e9   Thumb Code    14  handlers.o(i.__scatterload_copy)
    __scatterload_null                       0x080002f7   Thumb Code     2  handlers.o(i.__scatterload_null)
    __scatterload_zeroinit                   0x080002f9   Thumb Code    14  handlers.o(i.__scatterload_zeroinit)
    delay_1ms                                0x0800076d   Thumb Code    16  systick.o(i.delay_1ms)
    delay_decrement                          0x08000781   Thumb Code    18  systick.o(i.delay_decrement)
    eeprom_buffer_read                       0x08000799   Thumb Code    26  at24cxx.o(i.eeprom_buffer_read)
    eeprom_buffer_write                      0x080007bd   Thumb Code   274  at24cxx.o(i.eeprom_buffer_write)
    eeprom_page_write                        0x080008d1   Thumb Code    26  at24cxx.o(i.eeprom_page_write)
    eeprom_wait_standby_state                0x080008f5   Thumb Code   134  at24cxx.o(i.eeprom_wait_standby_state)
    fputc                                    0x08000989   Thumb Code    32  main.o(i.fputc)
    gd_eval_com_init                         0x080009ad   Thumb Code   122  gd32f303e_eval.o(i.gd_eval_com_init)
    gd_eval_led_init                         0x08000a45   Thumb Code    50  gd32f303e_eval.o(i.gd_eval_led_init)
    gd_eval_led_off                          0x08000a85   Thumb Code    16  gd32f303e_eval.o(i.gd_eval_led_off)
    gd_eval_led_on                           0x08000a9d   Thumb Code    16  gd32f303e_eval.o(i.gd_eval_led_on)
    gpio_config                              0x08000ab5   Thumb Code    32  i2c.o(i.gpio_config)
    gpio_init                                0x08000ad9   Thumb Code   164  gd32f30x_gpio.o(i.gpio_init)
    i2c_24c02_test                           0x08000b7d   Thumb Code   180  at24cxx.o(i.i2c_24c02_test)
    i2c_ack_config                           0x08000cb1   Thumb Code    24  gd32f30x_i2c.o(i.i2c_ack_config)
    i2c_ackpos_config                        0x08000cc9   Thumb Code    22  gd32f30x_i2c.o(i.i2c_ackpos_config)
    i2c_buffer_read                          0x08000ce1   Thumb Code   324  i2c.o(i.i2c_buffer_read)
    i2c_buffer_write                         0x08000e2d   Thumb Code   182  i2c.o(i.i2c_buffer_write)
    i2c_clock_config                         0x08000ee9   Thumb Code   288  gd32f30x_i2c.o(i.i2c_clock_config)
    i2c_config                               0x08001015   Thumb Code    48  i2c.o(i.i2c_config)
    i2c_data_receive                         0x0800104d   Thumb Code     8  gd32f30x_i2c.o(i.i2c_data_receive)
    i2c_data_transmit                        0x08001055   Thumb Code     6  gd32f30x_i2c.o(i.i2c_data_transmit)
    i2c_eeprom_init                          0x0800105d   Thumb Code     8  at24cxx.o(i.i2c_eeprom_init)
    i2c_enable                               0x08001069   Thumb Code    10  gd32f30x_i2c.o(i.i2c_enable)
    i2c_flag_clear                           0x08001073   Thumb Code    18  gd32f30x_i2c.o(i.i2c_flag_clear)
    i2c_flag_get                             0x08001085   Thumb Code    50  gd32f30x_i2c.o(i.i2c_flag_get)
    i2c_master_addressing                    0x080010b7   Thumb Code    20  gd32f30x_i2c.o(i.i2c_master_addressing)
    i2c_mode_addr_config                     0x080010cb   Thumb Code    24  gd32f30x_i2c.o(i.i2c_mode_addr_config)
    i2c_start_on_bus                         0x080010e3   Thumb Code    10  gd32f30x_i2c.o(i.i2c_start_on_bus)
    i2c_stop_on_bus                          0x080010ed   Thumb Code    10  gd32f30x_i2c.o(i.i2c_stop_on_bus)
    led_config                               0x080010f7   Thumb Code    52  main.o(i.led_config)
    led_turn_on                              0x0800112b   Thumb Code    82  main.o(i.led_turn_on)
    main                                     0x0800117d   Thumb Code   160  main.o(i.main)
    rcu_clock_freq_get                       0x0800127d   Thumb Code   310  gd32f30x_rcu.o(i.rcu_clock_freq_get)
    rcu_periph_clock_enable                  0x080013d5   Thumb Code    28  gd32f30x_rcu.o(i.rcu_periph_clock_enable)
    rcu_periph_reset_disable                 0x080013f5   Thumb Code    28  gd32f30x_rcu.o(i.rcu_periph_reset_disable)
    rcu_periph_reset_enable                  0x08001415   Thumb Code    28  gd32f30x_rcu.o(i.rcu_periph_reset_enable)
    systick_config                           0x0800154d   Thumb Code    74  systick.o(i.systick_config)
    usart_baudrate_set                       0x0800159d   Thumb Code   140  gd32f30x_usart.o(i.usart_baudrate_set)
    usart_data_transmit                      0x08001631   Thumb Code     8  gd32f30x_usart.o(i.usart_data_transmit)
    usart_deinit                             0x08001639   Thumb Code   136  gd32f30x_usart.o(i.usart_deinit)
    usart_enable                             0x080016c9   Thumb Code    10  gd32f30x_usart.o(i.usart_enable)
    usart_flag_get                           0x080016d3   Thumb Code    30  gd32f30x_usart.o(i.usart_flag_get)
    usart_receive_config                     0x080016f1   Thumb Code    16  gd32f30x_usart.o(i.usart_receive_config)
    usart_transmit_config                    0x08001701   Thumb Code    16  gd32f30x_usart.o(i.usart_transmit_config)
    Region$$Table$$Base                      0x08001710   Number         0  anon$$obj.o(Region$$Table)
    Region$$Table$$Limit                     0x08001730   Number         0  anon$$obj.o(Region$$Table)
    count                                    0x20000000   Data           1  main.o(.data)
    test_data_w                              0x20000001   Data           3  main.o(.data)
    SystemCoreClock                          0x20000008   Data           4  system_gd32f30x.o(.data)
    eeprom_address                           0x20000098   Data           2  at24cxx.o(.data)
    __stdout                                 0x2000009c   Data           4  stdout.o(.data)
    __initial_sp                             0x200004a0   Data           0  startup_gd32f30x_hd.o(STACK)



==============================================================================

Memory Map of the image

  Image Entry point : 0x08000131

  Load Region LR_IROM1 (Base: 0x08000000, Size: 0x000017d0, Max: 0x00080000, ABSOLUTE)

    Execution Region ER_IROM1 (Base: 0x08000000, Size: 0x00001730, Max: 0x00080000, ABSOLUTE)

    Base Addr    Size         Type   Attr      Idx    E Section Name        Object

    0x08000000   0x00000130   Data   RO         4330    RESET               startup_gd32f30x_hd.o
    0x08000130   0x00000000   Code   RO         4552  * .ARM.Collect$$$$00000000  mc_w.l(entry.o)
    0x08000130   0x00000004   Code   RO         4816    .ARM.Collect$$$$00000001  mc_w.l(entry2.o)
    0x08000134   0x00000004   Code   RO         4819    .ARM.Collect$$$$00000004  mc_w.l(entry5.o)
    0x08000138   0x00000000   Code   RO         4821    .ARM.Collect$$$$00000008  mc_w.l(entry7b.o)
    0x08000138   0x00000000   Code   RO         4823    .ARM.Collect$$$$0000000A  mc_w.l(entry8b.o)
    0x08000138   0x00000008   Code   RO         4824    .ARM.Collect$$$$0000000B  mc_w.l(entry9a.o)
    0x08000140   0x00000000   Code   RO         4826    .ARM.Collect$$$$0000000D  mc_w.l(entry10a.o)
    0x08000140   0x00000000   Code   RO         4828    .ARM.Collect$$$$0000000F  mc_w.l(entry11a.o)
    0x08000140   0x00000004   Code   RO         4817    .ARM.Collect$$$$00002712  mc_w.l(entry2.o)
    0x08000144   0x00000024   Code   RO         4331    .text               startup_gd32f30x_hd.o
    0x08000168   0x00000062   Code   RO         4833    .text               mc_w.l(uldiv.o)
    0x080001ca   0x00000002   PAD
    0x080001cc   0x00000024   Code   RO         4846    .text               mc_w.l(init.o)
    0x080001f0   0x0000001e   Code   RO         4848    .text               mc_w.l(llshl.o)
    0x0800020e   0x00000020   Code   RO         4850    .text               mc_w.l(llushr.o)
    0x0800022e   0x00000004   Code   RO          165    i.BusFault_Handler  gd32f30x_it.o
    0x08000232   0x00000002   Code   RO          166    i.DebugMon_Handler  gd32f30x_it.o
    0x08000234   0x00000004   Code   RO          167    i.HardFault_Handler  gd32f30x_it.o
    0x08000238   0x00000004   Code   RO          168    i.MemManage_Handler  gd32f30x_it.o
    0x0800023c   0x00000002   Code   RO          169    i.NMI_Handler       gd32f30x_it.o
    0x0800023e   0x00000002   PAD
    0x08000240   0x00000028   Code   RO          255    i.NVIC_SetPriority  systick.o
    0x08000268   0x00000002   Code   RO          170    i.PendSV_Handler    gd32f30x_it.o
    0x0800026a   0x00000002   Code   RO          171    i.SVC_Handler       gd32f30x_it.o
    0x0800026c   0x00000008   Code   RO          172    i.SysTick_Handler   gd32f30x_it.o
    0x08000274   0x00000050   Code   RO          299    i.SystemInit        system_gd32f30x.o
    0x080002c4   0x00000004   Code   RO          173    i.UsageFault_Handler  gd32f30x_it.o
    0x080002c8   0x00000020   Code   RO         4762    i.__0printf$8       mc_w.l(printf8.o)
    0x080002e8   0x0000000e   Code   RO         4858    i.__scatterload_copy  mc_w.l(handlers.o)
    0x080002f6   0x00000002   Code   RO         4859    i.__scatterload_null  mc_w.l(handlers.o)
    0x080002f8   0x0000000e   Code   RO         4860    i.__scatterload_zeroinit  mc_w.l(handlers.o)
    0x08000306   0x00000002   PAD
    0x08000308   0x00000410   Code   RO         4769    i._printf_core      mc_w.l(printf8.o)
    0x08000718   0x00000024   Code   RO         4770    i._printf_post_padding  mc_w.l(printf8.o)
    0x0800073c   0x0000002e   Code   RO         4771    i._printf_pre_padding  mc_w.l(printf8.o)
    0x0800076a   0x00000002   PAD
    0x0800076c   0x00000014   Code   RO          256    i.delay_1ms         systick.o
    0x08000780   0x00000018   Code   RO          257    i.delay_decrement   systick.o
    0x08000798   0x00000024   Code   RO         4385    i.eeprom_buffer_read  at24cxx.o
    0x080007bc   0x00000112   Code   RO         4386    i.eeprom_buffer_write  at24cxx.o
    0x080008ce   0x00000002   PAD
    0x080008d0   0x00000024   Code   RO         4388    i.eeprom_page_write  at24cxx.o
    0x080008f4   0x00000094   Code   RO         4389    i.eeprom_wait_standby_state  at24cxx.o
    0x08000988   0x00000024   Code   RO            3    i.fputc             main.o
    0x080009ac   0x00000098   Code   RO         4272    i.gd_eval_com_init  gd32f303e_eval.o
    0x08000a44   0x00000040   Code   RO         4275    i.gd_eval_led_init  gd32f303e_eval.o
    0x08000a84   0x00000018   Code   RO         4276    i.gd_eval_led_off   gd32f303e_eval.o
    0x08000a9c   0x00000018   Code   RO         4277    i.gd_eval_led_on    gd32f303e_eval.o
    0x08000ab4   0x00000024   Code   RO         4337    i.gpio_config       i2c.o
    0x08000ad8   0x000000a4   Code   RO         2092    i.gpio_init         gd32f30x_gpio.o
    0x08000b7c   0x00000134   Code   RO         4390    i.i2c_24c02_test    at24cxx.o
    0x08000cb0   0x00000018   Code   RO         2212    i.i2c_ack_config    gd32f30x_i2c.o
    0x08000cc8   0x00000016   Code   RO         2213    i.i2c_ackpos_config  gd32f30x_i2c.o
    0x08000cde   0x00000002   PAD
    0x08000ce0   0x0000014c   Code   RO         4338    i.i2c_buffer_read   i2c.o
    0x08000e2c   0x000000bc   Code   RO         4339    i.i2c_buffer_write  i2c.o
    0x08000ee8   0x0000012c   Code   RO         2214    i.i2c_clock_config  gd32f30x_i2c.o
    0x08001014   0x00000038   Code   RO         4341    i.i2c_config        i2c.o
    0x0800104c   0x00000008   Code   RO         2215    i.i2c_data_receive  gd32f30x_i2c.o
    0x08001054   0x00000006   Code   RO         2216    i.i2c_data_transmit  gd32f30x_i2c.o
    0x0800105a   0x00000002   PAD
    0x0800105c   0x0000000c   Code   RO         4391    i.i2c_eeprom_init   at24cxx.o
    0x08001068   0x0000000a   Code   RO         2222    i.i2c_enable        gd32f30x_i2c.o
    0x08001072   0x00000012   Code   RO         2223    i.i2c_flag_clear    gd32f30x_i2c.o
    0x08001084   0x00000032   Code   RO         2224    i.i2c_flag_get      gd32f30x_i2c.o
    0x080010b6   0x00000014   Code   RO         2229    i.i2c_master_addressing  gd32f30x_i2c.o
    0x080010ca   0x00000018   Code   RO         2230    i.i2c_mode_addr_config  gd32f30x_i2c.o
    0x080010e2   0x0000000a   Code   RO         2239    i.i2c_start_on_bus  gd32f30x_i2c.o
    0x080010ec   0x0000000a   Code   RO         2240    i.i2c_stop_on_bus   gd32f30x_i2c.o
    0x080010f6   0x00000034   Code   RO            4    i.led_config        main.o
    0x0800112a   0x00000052   Code   RO            5    i.led_turn_on       main.o
    0x0800117c   0x00000100   Code   RO            6    i.main              main.o
    0x0800127c   0x00000158   Code   RO         2605    i.rcu_clock_freq_get  gd32f30x_rcu.o
    0x080013d4   0x00000020   Code   RO         2623    i.rcu_periph_clock_enable  gd32f30x_rcu.o
    0x080013f4   0x00000020   Code   RO         2626    i.rcu_periph_reset_disable  gd32f30x_rcu.o
    0x08001414   0x00000020   Code   RO         2627    i.rcu_periph_reset_enable  gd32f30x_rcu.o
    0x08001434   0x00000110   Code   RO          300    i.system_clock_120m_hxtal  system_gd32f30x.o
    0x08001544   0x00000008   Code   RO          301    i.system_clock_config  system_gd32f30x.o
    0x0800154c   0x00000050   Code   RO          258    i.systick_config    systick.o
    0x0800159c   0x00000094   Code   RO         3900    i.usart_baudrate_set  gd32f30x_usart.o
    0x08001630   0x00000008   Code   RO         3904    i.usart_data_transmit  gd32f30x_usart.o
    0x08001638   0x00000090   Code   RO         3905    i.usart_deinit      gd32f30x_usart.o
    0x080016c8   0x0000000a   Code   RO         3909    i.usart_enable      gd32f30x_usart.o
    0x080016d2   0x0000001e   Code   RO         3911    i.usart_flag_get    gd32f30x_usart.o
    0x080016f0   0x00000010   Code   RO         3933    i.usart_receive_config  gd32f30x_usart.o
    0x08001700   0x00000010   Code   RO         3947    i.usart_transmit_config  gd32f30x_usart.o
    0x08001710   0x00000020   Data   RO         4856    Region$$Table       anon$$obj.o


    Execution Region RW_IRAM1 (Base: 0x20000000, Size: 0x000004a0, Max: 0x00010000, ABSOLUTE)

    Base Addr    Size         Type   Attr      Idx    E Section Name        Object

    0x20000000   0x00000004   Data   RW            8    .data               main.o
    0x20000004   0x00000004   Data   RW          259    .data               systick.o
    0x20000008   0x00000004   Data   RW          302    .data               system_gd32f30x.o
    0x2000000c   0x0000008c   Data   RW         4279    .data               gd32f303e_eval.o
    0x20000098   0x00000002   Data   RW         4392    .data               at24cxx.o
    0x2000009a   0x00000002   PAD
    0x2000009c   0x00000004   Data   RW         4830    .data               mc_w.l(stdout.o)
    0x200000a0   0x00000400   Zero   RW         4328    STACK               startup_gd32f30x_hd.o


==============================================================================

Image component sizes


      Code (inc. data)   RO Data    RW Data    ZI Data      Debug   Object Name

       814        166          0          2          0       4867   at24cxx.o
       264         60          0        140          0       3533   gd32f303e_eval.o
       164          0          0          0          0        948   gd32f30x_gpio.o
       502         12          0          0          0       8752   gd32f30x_i2c.o
        32          0          0          0          0       4250   gd32f30x_it.o
       440         46          0          0          0      20480   gd32f30x_rcu.o
       372         16          0          0          0      11617   gd32f30x_usart.o
       612         26          0          0          0       3128   i2c.o
       426        100          0          4          0      36698   main.o
        36          8        304          0       1024        932   startup_gd32f30x_hd.o
       360         30          0          4          0       2195   system_gd32f30x.o
       164         24          0          4          0      28810   systick.o

    ----------------------------------------------------------------------
      4194        488        336        156       1024     126210   Object Totals
         0          0         32          0          0          0   (incl. Generated)
         8          0          0          2          0          0   (incl. Padding)

    ----------------------------------------------------------------------

      Code (inc. data)   RO Data    RW Data    ZI Data      Debug   Library Member Name

         0          0          0          0          0          0   entry.o
         0          0          0          0          0          0   entry10a.o
         0          0          0          0          0          0   entry11a.o
         8          4          0          0          0          0   entry2.o
         4          0          0          0          0          0   entry5.o
         0          0          0          0          0          0   entry7b.o
         0          0          0          0          0          0   entry8b.o
         8          4          0          0          0          0   entry9a.o
        30          0          0          0          0          0   handlers.o
        36          8          0          0          0         68   init.o
        30          0          0          0          0         68   llshl.o
        32          0          0          0          0         68   llushr.o
      1154         54          0          0          0        352   printf8.o
         0          0          0          4          0          0   stdout.o
        98          0          0          0          0         92   uldiv.o

    ----------------------------------------------------------------------
      1406         70          0          4          0        648   Library Totals
         6          0          0          0          0          0   (incl. Padding)

    ----------------------------------------------------------------------

      Code (inc. data)   RO Data    RW Data    ZI Data      Debug   Library Name

      1400         70          0          4          0        648   mc_w.l

    ----------------------------------------------------------------------
      1406         70          0          4          0        648   Library Totals

    ----------------------------------------------------------------------

==============================================================================


      Code (inc. data)   RO Data    RW Data    ZI Data      Debug   

      5600        558        336        160       1024     121502   Grand Totals
      5600        558        336        160       1024     121502   ELF Image Totals
      5600        558        336        160          0          0   ROM Totals

==============================================================================

    Total RO  Size (Code + RO Data)                 5936 (   5.80kB)
    Total RW  Size (RW Data + ZI Data)              1184 (   1.16kB)
    Total ROM Size (Code + RO Data + RW Data)       6096 (   5.95kB)

==============================================================================

