:020000040800F2
:10000000A0040020450100083D0200083502000858
:10001000390200082F020008C50200080000000095
:100020000000000000000000000000006B0200085B
:100030003302000800000000690200086D02000899
:100040005F0100085F0100085F0100085F01000810
:100050005F0100085F0100085F0100085F01000800
:100060005F0100085F0100085F0100085F010008F0
:100070005F0100085F0100085F0100085F010008E0
:100080005F0100085F0100085F0100085F010008D0
:100090005F0100085F0100085F0100085F010008C0
:1000A0005F0100085F0100085F0100085F010008B0
:1000B0005F0100085F0100085F0100085F010008A0
:1000C0005F0100085F0100085F0100085F01000890
:1000D0005F0100085F0100085F0100085F01000880
:1000E0005F0100085F0100085F0100085F01000870
:1000F0005F0100085F0100085F0100085F01000860
:100100005F0100085F0100085F0100085F0100084F
:100110005F0100085F0100085F0100085F0100083F
:100120005F0100085F0100085F0100085F0100082F
:10013000DFF80CD000F04AF800480047010A000838
:10014000A00400200648804706480047FEE7FEE777
:10015000FEE7FEE7FEE7FEE7FEE7FEE7FEE7FEE777
:1001600075020008310100082DE9F05F0546002006
:1001700092469B4688460646814640241BE0284618
:1001800041464746224600F042F853465A46C01AB6
:10019000914110D311461846224600F029F82D1A35
:1001A00067EB01084F4622460120002100F020F8AD
:1001B00017EB00094E41201EA4F10104DFDC484684
:1001C00031462A464346BDE8F09F0000064C074DE5
:1001D00006E0E06840F0010394E807009847103417
:1001E000AC42F6D3FFF7A8FF940F0008B40F000845
:1001F000202A04DB203A00FA02F1002070479140E7
:10020000C2F1200320FA03F3194390407047202ADB
:1002100004DB203A21FA02F00021704721FA02F3B0
:10022000D040C2F12002914008431946704700BFF8
:10023000FEE7704700BFFEE700BFFEE77047000023
:1002400010B5002807DA0A07140E054A00F00F035C
:100250001B1FD45403E00A07130E024A135410BDA7
:1002600018ED00E000E400E07047704710B500F0C2
:100270000BFB10BD10B51048006840F470000E492B
:1002800008600E48006840F001000C49086000203A
:100290004860C86208460068094908400749086084
:1002A0004FF41F0088600846006820F48020086032
:1002B00000F08AFD10BD000088ED00E00010024053
:1002C000FFFFF6FE00BFFEE70FB4054B10B503A914
:1002D000044A029800F018F810BC5DF814FB000006
:1002E000A10800089C00002002E008C8121F08C1F5
:1002F000002AFAD170477047002001E001C1121FA7
:10030000002AFBD1704700002DE9FF4F8DB09B46BE
:100310000F460446002606E025280BD05A460F99C2
:100320009047641C761C20780028F5D111B0304627
:10033000BDE8F08F0025A8460122984900E005435A
:1003400014F8013F203B02FA03F00842F7D120786D
:100350002E2817D114F8010F45F004052A280ED0D5
:100360006FF02F022078A0F1300109290AD808EB9C
:10037000880102EB410100EB0108641CF2E757F829
:10038000048B641C20786C280DD004DC4C2812D01F
:100390006A2811D104E074280DD07A280CD10AE023
:1003A00045F4001507E0617845F48015814202D1DB
:1003B000641C05F58015641C2278692A45D008DC88
:1003C000002AB3D0582A69D0632A10D0642A08D1F1
:1003D0003BE0702A67D0732A13D0752A5CD0782A44
:1003E0005CD010465A460F999047761CD3E017F818
:1003F000040B8DF8000000208DF80100E946012073
:1004000003E057F8049B4FF0FF3069074FF00005F9
:1004100001D40AE06D1C45450DDA8542FADB19F876
:1004200005100029F6D106E06D1C8542FCDB19F8A9
:1004300005100029F8D12E4404E019F8010B5A46A2
:100440000F9990476D1EF8D2A5E00A200021CDE952
:100450000801C5F3025002280DD001CFC117031EB9
:1004600071F100030DDA4FF0000CD0EB0C006CEBD7
:1004700001012D2308E0FF1D27F00707F7E802011F
:10048000EDE72B0504D52B238DF8283001233BE025
:10049000EB0739D02023F7E70A2000E010200021E5
:1004A000CDE9080107E01020002145F00405CDE961
:1004B00008014FF00808C5F3025002280FD001CF01
:1004C00000214FF0000A2B071FD5702A0DD0DDE95F
:1004D00008C38CF0100C5CEA030C0CD015E0FF1D77
:1004E00027F00707F7E80201EBE740228DF8282004
:1004F0004FF0010A0BE050EA010306D030238DF8DB
:1005000028308DF8292002239A46582A04D024A2A4
:100510000DF120090B9209E026A2F9E7DDE9082395
:10052000FFF722FE0B9B9B5C09F8013D50EA01029C
:10053000F4D1ADEB090020300890680701D44FF0EA
:1005400001080899884502DDA8EB010000E00020C1
:100550008046002506E00AA85A46405D0F9990475C
:100560006D1C761C5545F6DB04E030205A460F9989
:100570009047761CB8F10001A8F10108F5DC05E010
:1005800019F8010B5A460F999047761C0899481E96
:1005900008900029F4DC641CC5E60000092801006D
:1005A00030313233343536373839616263646566E9
:1005B00000000000303132333435363738394142AB
:1005C0004344454600000000816841F00801816015
:1005D00000BF816801F008010029FAD1816841F06B
:1005E0000401816000BF816801F004010029FAD193
:1005F000704730B5012902D002291AD10CE0C36A34
:1006000023F47003C362C36A541E4FF4700505EAF5
:1006100004542343C3620DE0836B23F440138363CC
:10062000836B541E4FF4401505EA0454234383633F
:1006300000E000BF00BF30BD21B1826842F400621B
:10064000826003E0826822F4006282607047816801
:1006500001F0010119B9816841F001018160704721
:1006600072B101F001031BB1836843F4801383600E
:1006700001F0020393B1836843F4004383600DE00B
:1006800001F001031BB1836823F48013836001F040
:1006900002031BB1836823F4004383607047012980
:1006A00002D0022910D107E0836823F4602383601D
:1006B00083681343836008E0836823F4E043836026
:1006C00083681343836000E000BF00BF70470000F1
:1006D00010B540F2046000F0BFFA28230422002184
:1006E000014800F03BF910BD0010014010B5FFF7C4
:1006F000EFFF40F2096000F0AFFA022000F0CAF903
:1007000001221102174800F088F84FF4E04202215C
:100710001448FFF7C4FF00211248FFF78DFF0020A7
:1007200000F05EF8022211460E48FFF762FF072331
:100730000D2200210B4800F017F807230F2201219A
:10074000084800F011F8012202210648FFF788FF4F
:100750000448FFF77CFF012000F08CF80148FFF708
:1007600033FF10BD00240140F0B50C46876BC7F382
:100770000156856B371B07EB8707C7F10F0C1F2747
:1007800007FA0CF7BD43371B07EB8707C7F10F07C5
:1007900002FA07F73D4385630A2A0DD2016902EB8D
:1007A000420C072707FA0CF7B94302EB420703FA9A
:1007B00007F73943016112E0122A10D2C168A2F191
:1007C0000A0707EB470C072707FA0CF7B943A2F112
:1007D0000A0707EB470703FA07F73943C160F0BD83
:1007E0000549096821F47021034A1160114609681E
:1007F00001431160704700000424014001F0010230
:100800001AB1826842F48002826001F002021AB1D9
:10081000826842F4001282607047AAB101F48073CA
:100820001BB1436843F48073436001F480631BB1E0
:10083000436843F48063436001F00203CBB18368F3
:1008400043F00203836014E001F480731BB143683A
:1008500023F48073436001F480631BB1436823F485
:100860008063436001F002031BB1836823F002033D
:10087000836070470349086000BF02490968002986
:10088000FBD17047080000200448006820B10348ED
:100890000068401E01490860704700000800002001
:1008A00070B504460D46E1B2054800F003FB00BFF9
:1008B0000721034800F04FFB0028F9D0204670BD07
:1008C0000038014070B5054600241D48854200D11E
:1008D00003E01C48854200D101241B4931F8140073
:1008E00000F0BAF9194931F8140000F0B5F91849C7
:1008F00051F82430174951F824000322182100F040
:100900002DF8154951F82430124951F824000322DA
:10091000042100F023F8284600F0D0FA4FF4E1312A
:10092000284600F07DFA0421284600F023FB082128
:10093000284600F027FB284600F008FB70BD0000A9
:1009400000380140004400404C00002030000020EE
:1009500034000020440000203C000020F0B50C468C
:1009600016460025002204F00F0504F0100747B1D9
:10097000042E05D145F00305C76B1F43C76300E094
:100980003543002118E001278F401F4097B10268CE
:100990004FEA810C0F2707FA0CF7BA438F0005FACC
:1009A00007F73A43282C01D1436102E0482C00D1DB
:1009B000036102604F1CB9B20829E4D308211CE08E
:1009C00001278F401F40B7B14268A1F108074FEAE5
:1009D000870C0F2707FA0CF7BA43A1F10807BF00ED
:1009E00005FA07F73A43282C01D1436102E0482C6D
:1009F00000D1036142604F1CB9B21029E0D3F0BDB1
:100A000000F0E6F9FFF772FE1148FFF75BFF1EE00A
:100A100002211048FFF7F2FE4FF4FA60FFF72AFFB9
:100A20000C483C3000680C4908600A4840300068B7
:100A30000A4908600848016809A0FFF745FC074813
:100A400001680DA0FFF740FC11A0FFF73DFCDFE7B8
:100A50000038014000240140000000200400002074
:100A6000206164632076616C2031206973203078C6
:100A700025780D0A00000000206164632076616C17
:100A8000203220697320307825780D0A000000009C
:100A9000200D0A00184B5968184B1940164BDA6A9A
:100AA00022F000520C2820D2DFE800F006070809E7
:100AB0001F0C1F0D1516171800BF00BF00BF41EA1D
:100AC000803113E000BF20F004004FF0805343EA70
:100AD000803319430AE000BF00BF00BF20F00C00C4
:100AE00041EA803142F0005200E000BF00BF024BFB
:100AF0005960DA627047000000100240FF3FFFEFCC
:100B00002DE9F04F8CB0074600200A904AA090E8EB
:100B1000004CC068CDE905BECDF810A007900FF2DB
:100B20001C1ADAE9000ACDE9020A0FF2101ADAE912
:100B3000000ACDE9000A44484068C0F381000B90E8
:100B40000B9820B1012804D002283FD103E03F4A8E
:100B50003EE03E4A3CE03C48406800F4803CBCF546
:100B6000803F12D13848C06A00F08048B8F1000FC9
:100B700001D1364C00E0364C3348406800F400396F
:100B8000B9F5003F02D1334C00E0324C2E484068AA
:100B9000C0F383412C48406800F0006008B141F088
:100BA00010012948406800F0804008B141F0200160
:100BB0000F2901D2891C06E00F2903D33E2901D851
:100BC000491C00E03F2104FB01F201E01F4A00BF85
:100BD00000BF1D484068C0F3031504A8465D22FA13
:100BE00006F319484068C0F3022502A8465D23FABF
:100BF00006F0099014484068C0F3C2251DF805604E
:100C000023FA06F0089037B1012F06D0022F06D044
:100C1000032F0AD106E00A9208E00A9306E0099839
:100C20000A9003E008980A9000E000BF00BF0A980D
:100C30000CB0BDE8F08F00000000000000000000D4
:100C400001020304060708090010024000127A009E
:100C5000006CDC0200093D00064A02EB90110968B5
:100C600000F01F0301229A401143024B03EB901244
:100C70001160704700100240064A02EB90110968AB
:100C800000F01F0301229A409143024B03EB9012A4
:100C90001160704700100240064A02EB901109688B
:100CA00000F01F0301229A401143024B03EB901204
:100CB0001160704700100240002000213E4A126877
:100CC00042F480323C4B1A6000BF401C3A4A126822
:100CD00002F4003111B9B0F5006FF6D1364A12684E
:100CE00002F400320AB900BFFEE7334AD26942F08B
:100CF0008052314BDA61314A126842F440422F4B44
:100D00001A602D4A52682C4B5A601A4652685A6033
:100D10001A46526842F480625A601A46526822F4B7
:100D200040325A601A46526842F440325A601A46BB
:100D30005268234B1A40204B5A601A465268214B86
:100D40001A431D4B5A601A46126842F080721A60AC
:100D500000BF194A126802F00072002AF9D0174A3F
:100D6000126842F48032154B1A6000BF134A526871
:100D700002F48032002AF9D0104A126842F400329C
:100D80000E4B1A6000BF0D4A526802F40032002A6E
:100D9000F9D0094A526822F00302074B5A601A46FA
:100DA000526842F002025A6000BF034A526802F0E1
:100DB0000802002AF9D0704700100240007000407D
:100DC000FFFFC3B70000340810B5FFF775FF10BD73
:100DD00010B5124800684FF47A71B0FBF1F4601E50
:100DE000B0F1807F01D301200FE0601E4FF0E021C1
:100DF00048610F214FF0FF30FFF722FA00204FF03B
:100E0000E021886107200861002008B100BFFEE7EB
:100E10000021481EFFF714FA10BD00000C0000204E
:100E20002DE9F04704460D460027B946B84600268E
:100E30001E49601A8C421CD006DC1D48204470B14B
:100E4000B0F5806F1FD10FE0B0F5806F16D0B0F510
:100E50006C4F18D10320FFF753FE074614E0022021
:100E6000FFF74EFE07460FE00220FFF749FE074658
:100E70000AE00220FFF744FE074605E00220FFF7E4
:100E80003FFE074600E000BF00BF07EB5500B0FB88
:100E9000F5F64FF6F07006EA000906F00F08A168B3
:100EA00049EA08000143A160BDE8F087004C00401A
:100EB00000BCFFBFC1F308024260704710B5044692
:100EC0002049601A8C4228D006DC1F48204490B18B
:100ED000B0F5806F33D117E0B0F5806F26D0B0F554
:100EE0006C4F2CD140F20E30FFF7D6FE40F20E30A0
:100EF000FFF7C2FE24E040F21140FFF7CDFE40F2C2
:100F00001140FFF7B9FE1BE040F21240FFF7C4FEAC
:100F100040F21240FFF7B0FE12E040F21340FFF73C
:100F2000BBFE40F21340FFF7A7FE09E040F2144079
:100F3000FFF7B2FE40F21440FFF79EFE00E000BF54
:100F400000BF10BD004C004000BCFFBFC16841F4B1
:100F50000051C160704710B5024602EB9110006865
:100F600001F01F040123A340184008B1012010BD67
:100F70000020FCE70A460021C16821F0040111436A
:100F8000C16070470A460021C16821F00801114381
:100F9000C1607047B40F000800000020A0000000EE
:100FA000E802000854100008A0000020000400001F
:100FB000F80200080000000000000000000000002F
:100FC000000E2707001C0140001C0140001C0140CE
:100FD000001C0140010000000200000004000000AD
:100FE000080000000E0611070002000004000000C7
:100FF0000004000008000000000801400008014053
:101000000206020607060706070607060008014053
:1010100000100140001C0140001C014001000000C4
:10102000002000002000000010000000020604065E
:101030000706070601000000002000002000000055
:101040001000000000020505000D05040628170A1F
:04105000000000009C
:0400000508000131BD
:00000001FF
