:020000040800F2
:10000000A0AB002045010008390400081D030008CA
:100010003504000817030008DD0400080000000094
:10002000000000000000000000000000670400085D
:100030001B030008000000006504000869040008B4
:100040005F0100085F0100085F0100085F01000810
:100050005F0100085F0100085F0100085F01000800
:100060005F0100085F0100085F0100085F010008F0
:100070005F0100085F0100085F0100085F010008E0
:100080005F0100085F0100085F0100085F010008D0
:100090005F0100085F0100085F0100085F010008C0
:1000A0005F0100085F0100085F0100085F010008B0
:1000B000C10400085F0100085F0100085F0100083B
:1000C0005F0100085F0100085F0100085F01000890
:1000D0005F0100085F0100085F0100085F01000880
:1000E0005F0100085F0100085F0100085F01000870
:1000F0005F0100085F0100085F0100085F01000860
:100100005F0100085F0100085F0100085F0100084F
:100110005F0100085F0100085F0100085F0100083F
:100120005F0100085F0100085F0100085F0100082F
:10013000DFF80CD000F0B2F800480047A5AF010886
:10014000A0AB00200648804706480047FEE7FEE7D0
:10015000FEE7FEE7FEE7FEE7FEE7FEE7FEE7FEE777
:1001600071040008310100082DE9F05F0546002008
:1001700092469B4688460646814640241BE0284618
:1001800041464746224600F078F853465A46C01A80
:10019000914110D311461846224600F05FF82D1AFF
:1001A00067EB01084F4622460120002100F056F877
:1001B00017EB00094E41201EA4F10104DFDC484684
:1001C00031462A464346BDE8F09FD2B201E000F82E
:1001D000012B491EFBD270470022F6E710B51346EB
:1001E0000A4604461946FFF7F0FF204610BD421E9E
:1001F00012F8013F002BFBD111F8013B02F8013B43
:10020000002BF9D17047421C10F8011B0029FBD1CB
:10021000801A704710B5002200E0521C835C8C5C91
:10022000A34201D1002BF8D1D8B2E1B2401A10BDDF
:1002300030B504460020034600E05B1C934203D225
:10024000E05CCD5C401BF8D030BD034611F8012BBB
:1002500000F8012B002AF9D118467047202A04DB48
:10026000203A00FA02F1002070479140C2F12003C9
:1002700020FA03F3194390407047202A04DB203A08
:1002800021FA02F00021704721FA02F3D040C2F1B6
:10029000200291400843194670470000064C074D64
:1002A00006E0E06840F0010394E807009847103446
:1002B000AC42F6D3FFF740FF64D5020884D50208AC
:1002C00070B58C1810F8015B15F0070301D110F818
:1002D000013B2A1106D110F8012B03E010F8016B45
:1002E00001F8016B5B1EF9D12B0705D40023521EC8
:1002F0000DD401F8013BFAE710F8013BCB1A921C30
:1003000003E013F8015B01F8015B521EF9D5A1422D
:10031000D8D3002070BD00BFFEE7704700BFFEE7E6
:100320002DE9F84F07460D4690469946DDF828B06E
:10033000A8EB0700401C1FFA80FAA9EB0500401C3F
:1003400080B20090002416E0281981B2384600F0EF
:1003500019F80B49088900F063F8002607E004FB50
:100360000A613BF8110000F060F8701C86B2564537
:10037000F5DB601C84B200988442E5DBBDE8F88FB1
:10038000180C002010B503460C460B49488900F0B4
:1003900031F8181200F028F8D8B200F025F8064914
:1003A000888900F027F8201200F01EF8E0B200F073
:1003B0001BF800F025F810BD180C002000B52C200B
:1003C000084908810020C880F02008804FF4A07000
:1003D00048802A2048812B208881C921362000F0BE
:1003E00017F800BD180C002000B5024610460DF0AD
:1003F00072FD00BD00B5024610460DF068FD00BD5F
:1004000000B502490889FFF7F5FF00BD180C002070
:1004100010B503460C46214618460DF087FE10BD68
:1004200000BF4FF0C8410880704700BF4FF0CA417D
:100430000880704700BFFEE77047000010B5002835
:1004400007DA0A07140E054A00F00F031B1FD454E5
:1004500003E00A07130E024A135410BD18ED00E022
:1004600000E400E07047704710B507F027F810BDB2
:1004700010B51048006840F470000E4908600E483E
:10048000006840F001000C49086000204860C86224
:100490000846006809490840074908604FF41F00F2
:1004A00088600846006820F4802008601CF0A0FDE9
:1004B00010BD000088ED00E000100240FFFFF6FED6
:1004C00010B5012188071DF0F5FE30B101201AF0AA
:1004D000E3FA012188071DF0E9FE10BD00BFFEE729
:1004E00002E008C8121F08C1002AFAD170477047FD
:1004F000002001E001C1121F002AFBD1704770B536
:100500000446002508E02168481C2060087830383F
:1005100005EB850100EB41052168087800F004F83F
:100520000028F0D1284670BD0146302903DB392967
:1005300001DC012070470020FCE7000010B54021DD
:10054000084801F00CFD002304221E21064819F082
:10055000F5FF0649086004F061F8002004490870BE
:1005600010BD00002822002009470008DC00002000
:10057000D80000202DE9F04705460F4616461C46D8
:10058000152E30D2DFE806F00B3034495765839AD8
:10059000AFCDD6F9F7F6F5F4F3F2F1F0EF00284617
:1005A0000FF0F6F8814600EBD9704FEA600A384642
:1005B0000FF0EEF8804600EBD870AAEB600000B2B6
:1005C000208028460FF08DF8814600EBD9704FEA65
:1005D000600A38460FF085F8804600EBD870AAEB29
:1005E000600000B260806AE100202080608066E1E7
:1005F00028460FF0CDF8814600EBD9704FEA600A2B
:1006000038460FF0C5F8804600EBD870AAEB6000C2
:1006100000B220800020608051E128460FF0B8F839
:10062000804638460FF0B4F8A8EB000000B22080F6
:100630000020608043E10020208028460FF051F820
:10064000804638460FF04DF8A8EB000000B26080FD
:1006500035E128460FF09CF8814600EBD9704FEA4F
:10066000600A38460FF094F8804600EBD870AAEB89
:10067000600000B2208028460FF033F880463846EC
:100680000FF02FF8A8EB000000B2608017E12846B9
:100690000FF07EF8804638460FF07AF8A8EB00009D
:1006A00000B2208028460FF01CF8804638460FF034
:1006B00018F8A8EB000000B2608000E10020208064
:1006C00028460FF00EF8814600EBD9704FEA600A19
:1006D00038460FF006F8804600EBD870AAEB6000B1
:1006E00000B26080EBE028460FF052F880463846B2
:1006F0000FF04EF8A8EB000000B2208028460EF064
:10070000F0FF814600EBD9704FEA600A38460EF0E0
:10071000E8FF804600EBD870AAEB600000B2608072
:10072000CDE00020208038460EF0DBFF404200B2D2
:100730006080C4E028460FF02BF8814600EBD970AA
:100740004FEA600A38460FF023F8804600EBD87075
:10075000AAEB600000B2208038460EF0C2FF404293
:1007600000B26080ABE09AE082E07AE067E04DE0C2
:1007700043E032E01AE012E0FFE728460FF008F805
:10078000804638460FF004F8A8EB000000B2208045
:1007900038460EF0A6FF404200B260808FE0002095
:1007A000208028460EF09DFF608088E028460EF0ED
:1007B000EFFF814600EBD9704FEA600A38460EF031
:1007C000E7FF804600EBD870AAEB600000B2208003
:1007D00028460EF086FF608071E028460EF0D8FFB4
:1007E000804638460EF0D4FFA8EB000000B220800F
:1007F00028460EF076FF608061E038460EF0C8FFB4
:10080000404200B220800020608058E038460EF060
:10081000BFFF404200B2208028460EF062FF8146B2
:1008200000EBD9704FEA600A38460EF05AFF804656
:1008300000EBD870AAEB600000B260803FE0384661
:100840000EF0A6FF404200B2208028460EF049FF7D
:10085000804638460EF045FFA8EB000000B26080ED
:100860002DE028460EF094FF20800020608026E0D6
:1008700028460EF08DFF208028460EF032FF81467C
:1008800000EBD9704FEA600A38460EF02AFF804626
:1008900000EBD870AAEB600000B260800FE0284641
:1008A0000EF076FF208028460EF01BFF804638466B
:1008B0000EF017FFA8EB000000B2608000BF00BF81
:1008C00020882988084400B220806088698808440C
:1008D00000B26080BDE8F08730B50346B1F9004052
:1008E000B2F90050AC4202DDB1F9004001E0B2F9CA
:1008F00000401C80B1F90240B2F90250AC4202DD66
:10090000B1F9024001E0B2F902405C80B1F9044063
:10091000B2F90450AC4202DAB1F9044001E0B2F994
:1009200004409C80B1F90640B2F90650AC4202DAAC
:10093000B1F9064001E0B2F90640DC800120B3F9CC
:100940000040B3F90450AC4205DCB3F90240B3F9FE
:100950000650AC4200DD002030BDF8B504460D461F
:1009600016460027B4F90000B5F90010884212DBE2
:10097000B4F90200B5F9021088420CDBB4F90400A6
:10098000B5F90410884206DCB4F90600B5F9061082
:10099000884200DC01270FB90020F8BD0EB9012004
:1009A000FBE72088ADF800006088ADF80200324611
:1009B0006946284600F04CF808B90020EDE7A08809
:1009C000ADF800006088ADF802003246694628465E
:1009D00000F03EF808B90020DFE72088ADF80000FD
:1009E000E088ADF8020032466946284600F030F84B
:1009F00008B90020D1E7A088ADF80000E088ADF884
:100A0000020032466946284600F022F808B9002064
:100A1000C3E70120C1E70246B2F90000B1F9043092
:100A2000984213DCB2F90400B1F9003098420DDBB2
:100A3000B2F90200B1F90630984207DCB2F90600BB
:100A4000B1F90230984201DB012070470020FCE739
:100A50002DE9FC5F05460E4614464FF0000AB6F934
:100A60000000B5F90010884213DBB6F90000B5F9B3
:100A7000041088420DDCB6F90200B5F90210884274
:100A800007DBB6F90200B5F90610884201DC4FF029
:100A9000010ABAF1000F02D10020BDE8FC9F002C32
:100AA00001DC0120F9E728460EF072FE834600EBD8
:100AB000DB70471028460EF014FE834600EBDB7017
:100AC0004FEA6008474501DA384600E04046814673
:100AD0004C4500DD4C462888ADF8000028882044AD
:100AE00000B2ADF804006888ADF8020068882044C0
:100AF00000B2ADF80600002231466846FFF7A8FFB5
:100B000080B1BDF80400204400B2ADF80400BDF887
:100B10000600204400B2ADF806003146684618F0E1
:100B200017FCBAE7E888001B00B2ADF80200E888BD
:100B3000ADF80600002231466846FFF789FF80B114
:100B4000BDF80400204400B2ADF80400BDF8020076
:100B5000001B00B2ADF802003146684618F0F8FB01
:100B60009BE7A888001B00B2ADF80000A888ADF88C
:100B70000400002231466846FFF76AFF80B1BDF8E5
:100B80000000001B00B2ADF80000BDF80200001B21
:100B900000B2ADF802003146684618F0D9FB7CE798
:100BA0006888ADF802006888204400B2ADF80600FD
:100BB000002231466846FFF74BFF80B1BDF80000C8
:100BC000001B00B2ADF80000BDF80600204400B2E2
:100BD000ADF806003146684618F0BAFB5DE7012023
:100BE0005BE710B5B1F90030B2F90040A34202DA78
:100BF000B1F9003001E0B2F900300380B1F9023000
:100C0000B2F90240A34202DAB1F9023001E0B2F9CE
:100C100002304380B1F90430B2F90440A34202DD4E
:100C2000B1F9043001E0B2F904308380B1F9063043
:100C3000B2F90640A34202DDB1F9063001E0B2F993
:100C40000630C38010BD2DE9FF4F87B01C46DDE99B
:100C50001478B8F1020F02DA0BB0BDE8F08F07B9D3
:100C6000FAE702F009F9054628460FF095FA8146A1
:100C700009F11006D9F808000690686A10B12846F4
:100C8000696A884704A8DDE90712FFF725FE834655
:100C9000BBF1000F00D1DFE7BDF810003188401A2A
:100CA00000B2ADF81000BDF812007188401A00B211
:100CB000ADF81200BDF814003188401A00B2ADF84A
:100CC0001400BDF816007188401A00B2ADF8160085
:100CD000CCB1287A00F00100A8B904A80EF02EFDCE
:100CE00003904FF0000A0AE014F80A00802801DDA2
:100CF000FF2000E0002004F80A000AF1010A03982E
:100D00008245F1DB00BF686948B1CDE900840297F4
:100D100004AA3046099B06990AF0FCFC16E01698D6
:100D200048B9CDE90084029704AA3046099B069988
:100D30000AF0DEFA0AE01698CDE90084CDE90270E7
:100D400004AA3046099B06990AF020FA00BF83E7FF
:100D50002DE9FF4F89B017461C46DDE91689B9F128
:100D6000020F02DA0DB0BDE8F08FB8F1000F00D12C
:100D7000F8E707A8DDE90912FFF7AEFD069006982F
:100D800000B9EFE702F078F8054628460FF004FABC
:100D900082460AF11006DAF808000590686A10B178
:100DA0002846696A8847BDF81C003188401A00B29D
:100DB000ADF81C00BDF81E007188401A00B2ADF8F5
:100DC0001E00BDF820003188401A00B2ADF82000A6
:100DD000BDF822007188401A00B2ADF82200CCB1F3
:100DE000287A00F00100A8B907A80EF0A7FC04902B
:100DF0004FF0000B0AE014F80B00802801DDFF2003
:100E000000E0002004F80B000BF1010B049883456F
:100E1000F1DB00BF686950B1CDE90079CDE9024846
:100E200007AA30460A9B05991AF0C1FB18E01898EA
:100E300050B9CDE90079CDE9024807AA30460A9BAE
:100E400005991AF0BBF90BE01898CDE90079CDE9C6
:100E50000248049007AA30460A9B05991AF0F2F856
:100E600000BF7FE7D0F88021C2F309428A4207DA47
:100E70000023D0F8802163F31942C0F8802107E0F5
:100E8000D0F88021C1EB124363F31942C0F88021EE
:100E9000704700002DE9FF5F814619F0EDFD0390DA
:100EA000002002906D49D9F80C00086000214846E6
:100EB00019F0F8FC69480068406C60B90021674887
:100EC0000068D0F8800161F3194064490968C1F8ED
:100ED0008001BDE8FF9F18F0DFFC18F021FC5F489F
:100EE0000068D0F88001C0F3094000287ED05B483C
:100EF00000680FF009FA00287FD058480068406960
:100F000000287AD1554800680FF046F9054618F0D8
:100F1000F1FD00BFA8690028FCD100274F490968EE
:100F2000B1F90010480001F061F90746D5F808A0B2
:100F30002968A868884201D1686800E028680190A3
:100F4000464800680FF03FF90646002445E0434854
:100F5000006800F5B170005DE8BB40480068623091
:100F600030F934103D480068623000EBC400B0F93D
:100F7000020006FB00104FEA400838490968623158
:100F800001EBC4000EF0D3FB400000903348006832
:100F9000623000EBC400B0F902B012E0019800EB3F
:100FA00008013846009A01F01FFA0AEB080039469A
:100FB000009A01F019FA08EB46080BF101000FFA4C
:100FC00080FB26480068623000EBC400B0F90600E0
:100FD0005845E3DA00BF601C84B220480068D0F8AE
:100FE0008001C0F30940A042B1DC01E02FE004E041
:100FF00017B1384601F0AAF900BF4FF480711748C5
:101000000068623001F0A2FB20211448006800F55E
:10101000B17001F09BFB002110480068D0F88001FE
:1010200061F319400D490968C1F88001039819F06E
:1010300015FD029009480068806940B107480068C2
:10104000836907480268054802990068984701F0DB
:10105000A1F800F007F800BF3BE700004C000020BB
:101060004800002010B50548006830B1034800680A
:1010700015F0CCFC00200149086010BDF8000020EC
:1010800010B54421014800F06AFF10BD1022002075
:1010900010B51821014800F062FF10BD3422002075
:1010A0002DE9FF4F8BB004469A46199DBAF1000F07
:1010B00011D11898B0F5807F0DD10020208060807C
:1010C0000C98401E00B2A0800D98401E00B2E08037
:1010D0000FB0BDE8F08FB5F90000404218994843C1
:1010E0000121C1EB202000B22080B5F9020040426E
:1010F000189948430121C1EB202000B26080B5F966
:1011000000100C98401A18994843022101EB202046
:1011100000B2A080B5F902100D98401A1899484302
:10112000022101EB202000B2E080BAF1000F14D1BF
:1011300020882988084400B2208060886988084493
:1011400000B26080A0882988084400B2A080E088AE
:101150006988084400B2E080BAE70A209AFBF0F000
:101160000A900A98401C09900A9800EB8000AAEBAC
:10117000400B0A9800B202F0CBFB0890099800B22D
:1011800002F0C6FB07900A985A3000B202F0C0FB8A
:10119000069009985A3000B202F0BAFB0590CBF1E4
:1011A0000A0108984143079800FB0B100A2190FBA5
:1011B000F1F6CBF10A0106984143059800FB0B10AC
:1011C0000A2190FBF1F776117F11B4F90080B4F990
:1011D000029007FB08F006FB1900298801EBA0200C
:1011E00000B2ADF8100006FB08F007FB09006988A3
:1011F00001EBA02000B2ADF81200B4F90480B4F9FC
:10120000029007FB08F006FB1900298801EBA020DB
:1012100000B2ADF80C0006FB08F007FB0900698876
:1012200001EBA02000B2ADF80E00B4F90080B4F9D3
:10123000069007FB08F006FB1900298801EBA020A7
:1012400000B2ADF8080006FB08F007FB090069884A
:1012500001EBA02000B2ADF80A00B4F90480B4F9A3
:10126000069007FB08F006FB1900298801EBA02077
:1012700000B2ADF8040006FB08F007FB090069881E
:1012800001EBA02000B2ADF80600BDF90800BDF9E1
:101290001010884202DABDF9080001E0BDF9100023
:1012A000BDF90410BDF90C20914202DABDF9041019
:1012B00001E0BDF90C1088420BDABDF90800BDF958
:1012C0001010884202DABDF908000DE0BDF91000E7
:1012D0000AE0BDF90400BDF90C10884202DABDF93C
:1012E000040001E0BDF90C002080BDF90800BDF943
:1012F0001010884202DDBDF9080001E0BDF91000C0
:10130000BDF90410BDF90C20914202DDBDF90410B5
:1013100001E0BDF90C1088420BDDBDF90800BDF9F4
:101320001010884202DDBDF908000DE0BDF9100083
:101330000AE0BDF90400BDF90C10884202DDBDF9D8
:10134000040001E0BDF90C00A080BDF90A00BDF960
:101350001210884202DABDF90A0001E0BDF912005C
:10136000BDF90610BDF90E20914202DABDF9061052
:1013700001E0BDF90E1088420BDABDF90A00BDF993
:101380001210884202DABDF90A000DE0BDF9120020
:101390000AE0BDF90600BDF90E10884202DABDF977
:1013A000060001E0BDF90E006080BDF90A00BDF93C
:1013B0001210884202DDBDF90A0001E0BDF91200F9
:1013C000BDF90610BDF90E20914202DDBDF90610EF
:1013D00001E0BDF90E1088420BDDBDF90A00BDF930
:1013E0001210884202DDBDF90A000DE0BDF91200BD
:1013F0000AE0BDF90600BDF90E10884202DDBDF914
:10140000060001E0BDF90E00E08000BF60E60000CC
:101410002DE9F74F86B0044620680590B4F908100E
:101420000798A0EB0108B4F90A100898A0EB01098D
:10143000E089B0F5807F13D1206B00FB08F0E16AF2
:1014400001FB1901606A00EBA10BE06A00FB08F0E8
:10145000216B01FB0901A06A00EBA10004902FE0C1
:10146000A08980B9A06B00FB08F04FEA6018A06B60
:1014700000FB09F04FEA6019606A00EB080BA06AF4
:10148000484404901CE0A06B00FB08F04FEA601891
:10149000A06B00FB09F04FEA6019206B00FB08F01D
:1014A000E16A01FB1901606A00EBA12BE06A00FB15
:1014B00008F0216B01FB0901A06A00EBA120049058
:1014C0004FEA2B2604980712B4F90400B04203DC5B
:1014D000002009B0BDE8F08F002E01DA0020F8E707
:1014E000B4F90600B84201DC0020F2E7002F01DA6F
:1014F0000020EEE73420005DC0F3800050B33420BC
:10150000005DC0F3400078B90225B4F904007843C7
:10151000684306FB050A059800EB0A012A4604F118
:10152000140001F0B5F82CE00325B4F90400784369
:10153000684306FB050A6A1E059800EB0A0104F1E0
:10154000140001F0A5F80AEB0500401E0599095C9E
:10155000A17516E04FF0000A0025208A03463AB232
:1015600031B2019004F1180012F060FA0290BDF857
:101570000800A0823AB231B204F1180012F0B6F9B4
:10158000A0753420005D00F0010060B113480068D0
:10159000029002980190A08ABDF80410884201D1FF
:1015A000002096E700BFE07C08B9012091E70FFA20
:1015B0008BF1A187049801B2E18731B24020015339
:1015C00039B242200153C4F844A084F84850204660
:1015D00000F006F8039003987BE70000DCEF0108B9
:1015E0002DE9F04F8DB00446D4F8009094F83C00FB
:1015F0000C9094F83E000B900C9870280BDA4FF08A
:10160000FF35B4F940002844002800DA00250C9882
:101610008030C7B213E00C9890280EDD0125B4F994
:1016200040002844B4F90410884200DB00250C98DF
:10163000C0F1FF008030C7B201E00025FF270B9802
:1016400070280CDA4FF0FF36B4F94200304400281D
:1016500000DA00260B98803000F0FF0815E00B98A8
:1016600090280FDD0126B4F942003044B4F9061089
:10167000884200DB00260B98C0F1FF00803000F0AC
:10168000FF0802E000264FF0FF08A08A0A90A07D24
:10169000069000200590049003903420005DC0F374
:1016A000800000285BD094F84800626C00FB0520A5
:1016B00000EB0901022209A800F0F6FFA28894F8C5
:1016C000480012FB00F2606C02FB060000EB09010F
:1016D000022208A800F0E8FFA28894F8480012FB54
:1016E00000F2606C02FB060294F8480000FB052043
:1016F00000EB0901022207A800F0D6FF3420005DAC
:10170000C0F3400000287ED094F84800616C00FBD4
:1017100005110844401E19F800000590A18894F8AE
:10172000480011FB00F1606C01FB060194F84800D1
:101730000844401E19F800000490A18894F848005D
:1017400011FB00F1606C01FB060194F8480000FBFE
:1017500005110844401E19F80000039053E0208A48
:101760000090B4F942204020005B284401B204F10B
:101770001800009B12F05AF90990208A009042202C
:10178000005B304402B2B4F9401004F11800009B31
:1017900012F04CF90890208A00904220005B3044FF
:1017A00002B24020005B284401B204F11800009B03
:1017B00012F03CF907903420005DC0F3400010B3F4
:1017C000B4F942204020005B284401B204F1180023
:1017D00012F08CF805904220005B304402B2B4F95C
:1017E000401004F1180012F081F804904220005BD0
:1017F000304402B24020005B284401B204F11800DA
:1018000012F074F80390BA46BB463420005DC0F372
:101810004000E0B306987843C7F1FF0C059B03FB3B
:101820000C00C0F3072104987843C7F1FF0C039B19
:1018300003FB0C00C0F3072201FB08F0C8F1FF0313
:1018400002FB0300030AA375022905DC022A03DC5C
:1018500000200DB0BDE8F08F022901DC4FF0000838
:10186000022A01DC4FF0FF080698022801DC4FF045
:10187000000A0598022801DC4FF0FF0A04980228AC
:1018800001DC4FF0000B0398022803DC00E002E0CB
:101890004FF0FF0B03E0BA46BB46FF21A175BAF13A
:1018A000000F02D1099802900BE0BAF1FF0F02D1AC
:1018B0000A98029005E05246DDE909100EF08CF915
:1018C0000290BBF1000F02D1079801900BE0BBF131
:1018D000FF0F02D10898019005E05A46DDE9071094
:1018E0000EF07AF90190B8F1000F03D1BDF80400B1
:1018F000A0820FE0B8F1FF0F03D1BDF80800A0826D
:1019000008E04246DDE901100EF066F90090BDF8EE
:101910000000A08201209CE72DE9F05F0446B4F9A5
:10192000080001026162B4F90A000102A162B4F97F
:101930000C000A2190FBF1F56F1CB4F90C0005EBCB
:101940008501A0EB4106684200B201F0E1FF80464C
:10195000784200B201F0DCFF8146C5F15A0000B2C6
:1019600001F0D6FF8246C7F15A0000B201F0D0FF65
:101970008346C6F10A0000FB08F009FB06000A21B5
:1019800090FBF1F1E162C6F10A0000FB0AF00BFBEB
:1019900006000A2190FBF1F12163E06A4111E16246
:1019A000206B41112163A07C12F0BBF93421095D49
:1019B00060F3000134200155A07C12F095F9342128
:1019C000095D60F3410134200155A07C042805D055
:1019D000A07C052802D0A07C062807D13420005D19
:1019E00020F00400001D3421085505E03420005D7E
:1019F00020F004013420015521682162A06920F003
:101A0000E000A061A17CA06961F30400A061A1884D
:101A1000A06961F39420A061E188A06961F35F503F
:101A2000A061E08900EBD071491001F5001191FB34
:101A3000F0F2A263FF21A175208AA082BDE8F09F89
:101A40002DE9F35F074600255A48008810B90020A9
:101A5000BDE8FC9F58480668002414E004EBC4006D
:101A600006EB8000006A554988420ADD04EBC40099
:101A700006EB8000006A401E04EBC40106EB810106
:101A80000862601C84B24B4800888442E6DB002474
:101A900042E04FF0000A04EBC40106EB8101486804
:101AA00012F058FF8146B9F1000F12D104EBC400C7
:101AB00006EB80004068B84219D104EBC40006EB85
:101AC00080000089BDF80410884210D14FF0010A4F
:101AD0000DE0B9F1010F0AD104EBC40106EB81015D
:101AE00048683946FEF796FB08B94FF0010ABAF18B
:101AF000000F0FD004EBC40006EB8005296A68696B
:101B000008442862286AB0F57A7F02DD4FF47A70C3
:101B1000286205E0601C84B2264800888442B8DB55
:101B200000BF0DB1284693E7354601240DE004EBD4
:101B3000C40006EB8000006A296A884203DA04EBDD
:101B4000C40006EB8005601C84B21A4800888442F9
:101B5000EDDB686810B1284612F026FD18F08CFF06
:101B600083460020686139462846019A12F08AFDB2
:101B70008046B8F1000F0FD1284612F015FD202144
:101B8000284600F0E3FD2421284600F0DFFD4FF059
:101B90000040286200205BE700202862686918B9CD
:101BA000584618F05BFF6861686908B901206861F0
:101BB00028464DE758000020E0000020010000808A
:101BC00010B51021134800F0CAF912F001FD0446C7
:101BD0006CB900BF20460EF0B9F930B92246002397
:101BE0000DA00EF0B9F900BFFEE700BF10BD0E4911
:101BF000204612F0B1FD0D49204612F0AFFD0C4910
:101C0000204612F0ADFD0B49204612F0A3FD00BFA7
:101C1000ECE70000402200204F7574206F66206DB5
:101C2000656D6F7279000000893D01085942010815
:101C3000E14401084F3D010810B50021084612F0AB
:101C400015FF10BD70B504460D460026102128462C
:101C500000F07CFD2078012804D1208C2880608C45
:101C600068800CE02078022802D1606A686006E093
:101C70002078042803D10A2068600020A8816068C9
:101C800020B129462046626890470646304670BD1E
:101C90007FB504463D49E068086008460068C068B2
:101CA00000B97FBD394800680BF068FF374800680D
:101CB00090F85000C0F3800000B1F2E700BF694621
:101CC00032480068FFF7BEFF0546304800680BF059
:101CD00055FF00202E4908609DF80E002B49096829
:101CE00008772A480068007F012807D118F0C4FE51
:101CF00026490968C968C1F884010EE023480068D4
:101D00000078042809D1BDF80C0030B118F0B4FEF9
:101D10001E490968C968C1F884011C480068007838
:101D2000012805D16946194800680BF00DFC1FE039
:101D3000164800680078022805D1694613480068F3
:101D40000BF066FA14E0114800680078042805D109
:101D500069460E4800680AF065FF09E00B48006814
:101D60000078032804D16946084800680AF0DBFBC4
:101D7000064800680BF002FF002DA0D100200349A7
:101D800008600349086000BF8BE7000034000020B2
:101D9000380000202DE9FF4104460F4614B90EF02B
:101DA000FFF904460CB9BDE8FF813FB90021D4F822
:101DB000800161F31940C4F88001F4E70020ADF818
:101DC0000800ADF80A0020460EF0FDF9401E00B2F2
:101DD000ADF80C0020460EF073FA401E00B2ADF8CC
:101DE0000E0002AA39466846FEF776FD0646002E2A
:101DF0004CD0206918B169462046226990470025D9
:101E00000BE004F1620000EBC50100226846FEF71A
:101E1000A4FD00B1C7E7681C85B2D4F88001C0F307
:101E20000940A842EDDCD4F88001C0F30940202825
:101E30000BDAD4F88011C1F3094204F1620101EB1D
:101E4000C20069460DF0E7FB11E00021D4F88001E3
:101E500061F31940C4F88001D4F88011C1F309423C
:101E600004F1620101EBC20002A90DF0D4FBD4F829
:101E70008001000C401CD4F8801160F31941C4F8B3
:101E800080110321606B18F00DFD00BF00BF8AE7D1
:101E90002DE9F04107460C4615461E4629463846B0
:101EA00000F020F9AEB100222946204619F07AFC54
:101EB00029462046626819F067FC606820B12A460E
:101EC0002046616819F06EFC6560A068B0B9A56035
:101ED00014E029462046A26819F064FC0022294635
:101EE000204619F051FCA06820B12A462046A1687E
:101EF00019F04AFCA560606800B96560BDE8F08132
:101F00000146002001B14868704770B506460024BC
:101F10003046FFF7F5FF054605E0641C29463046CC
:101F200000F005F80546002DF7D1204670BD0246A9
:101F30000AB9002070470B461068001D034418685A
:101F4000F8E702460AB9002070470B4610680344C0
:101F50001868F9E70146002001B18868704700223F
:101F600042608260CA1C22F003010160704770B5B4
:101F70000446216801F1080014F0DCFC0546A5B117
:101F800000222946204619F00DFC294620466268A9
:101F900019F0FAFB606820B12A462046616819F002
:101FA00001FC6560A06800B9A560284670BD2DE9F8
:101FB000F04106460D4606B115B90020BDE8F08196
:101FC0003046FFF79DFFA84206D13046FFF7CFFF0E
:101FD000044624BB0020F1E7316801F1080014F049
:101FE000A9FC04460CB90020E8E729463046FFF773
:101FF000A8FF074622463946304619F0C5FB3A4647
:102000002146304619F0CEFB22462946304619F0CB
:10201000C9FB2A462146304619F0B6FB00BF2046D0
:10202000CCE770B50446216801F1080014F082FC89
:102030000546A5B100222946204619F0A5FB2946F0
:102040002046A26819F0AEFBA06820B12A462046BF
:10205000A16819F099FBA560606800B96560284621
:1020600070BD014609B901207047486818B98868F1
:1020700008B90120F8E70020F6E72DE9F04107460E
:102080000D461646B54201D1BDE8F0812EB131466C
:102090003846FFF756FF044603E03846FFF75AFF7D
:1020A0000446A54200D1EFE72946384600F01AF869
:1020B0002A462146384619F067FB2246294638460B
:1020C00019F070FB2A463146384619F06BFB324650
:1020D0002946384619F058FB06B9BD6004B97D6041
:1020E00000BFD1E72DE9F04104460D462046FFF739
:1020F00007FFA8420FD129462046FFF718FF60606E
:10210000606810B90020A0602FE0002220466168BE
:1021100019F048FB29E02046FFF71CFFA8420FD129
:1021200029462046FFF70DFFA060A06810B90020E7
:1021300060601AE000222046A16819F025FB14E037
:1021400029462046FFF7FDFE064629462046FFF7B2
:10215000EEFE07463A463146204619F015FB324658
:102160003946204619F01EFB00BFBDE8F081F0B5EE
:102170000446059D944201DB2846F0BD8C4201DCFB
:102180001846FAE7571AEE1A601A704390FBF7F0F8
:102190001844F2E710B5002406E00020114901EBD5
:1021A000C4018871601CC4B2022CF6D3002415E06F
:1021B0000D4850F8340078B10B4951F8340014F050
:1021C00025FC0020084941F8340001EBC401887166
:1021D000054901EBC4018880601CC4B2102CE7DB08
:1021E00010BD000008010020582200202DE9F04118
:1021F000054615B90020BDE8F081102D15D8002442
:1022000011E0434800EBC400807900F0010040B9C0
:1022100001203F4901EBC40188713D4850F834006A
:10222000E9E7601CC4B2022CEBD34FF0FF36002468
:102230002CE0384800EBC400807900F0010018BBA6
:10224000344800EBC4008088A8421DD3314800EB1D
:10225000C4008088A84208D101202E4901EBC401A6
:1022600088712C4850F83400C5E7002E01DA66B2B8
:102270000AE0284800EBC4008088264901EBC6012B
:102280008988884200DA66B2601CC4B2102CD0DBA8
:10229000002E08DB01201F4901EBC60188711D4893
:1022A00050F83600A7E7002427E01A4800EBC400E6
:1022B000807900F00100F0B9164951F83400294640
:1022C00014F0E4FB07463FB900BF00221346124852
:1022D0000DF042FE00BFFEE701200E4901EBC401F4
:1022E00088710C4901EBC4018D800A4840F83470B4
:1022F00050F834007FE7601CC4B2102CD5DB00BF5F
:102300000022134605A00DF027FE00BFFEE70000E7
:10231000080100205822002010D502084E6F2066C8
:10232000726565206275666665722E20496E6372FD
:1023300065617365204C565F4D454D5F4255465F64
:102340004D41585F4E554D2E0000000001460020C3
:102350000CE0114A52F830208A4205D100220E4B7F
:1023600003EBC0039A717047421CD0B20228F0D32D
:1023700000200CE0094A52F830208A4205D10022A0
:10238000064B03EBC0039A71EDE7421CD0B2102854
:10239000F0DB00BFE7E70000080100205822002022
:1023A000014609B9002070470448814201D100204C
:1023B000F9E70A1F10684008F5E700000001002057
:1023C0000749084A116011460868016821F00101B7
:1023D000016047F6FC72016862F35F0101607047BB
:1023E00078230020FC0000202DE9F0410F4615461F
:1023F00001463A4601F0030602F0030CB4457DD0D5
:10240000C2E092F8008081F80080491C521C92F8CA
:10241000008081F80080491C521C92F8008081F8ED
:102420000080491C521C92F8008081F80080491CF1
:10243000521C92F8008081F80080491C521C92F8CE
:10244000008081F80080491C521C92F8008081F8BD
:102450000080491C521C92F8008081F80080491CC1
:10246000521C92F8008081F80080491C521C92F89E
:10247000008081F80080491C521C92F8008081F88D
:102480000080491C521C92F8008081F80080491C91
:10249000521C92F8008081F80080491C521C92F86E
:1024A000008081F80080491C521C92F8008081F85D
:1024B0000080491C521C92F8008081F80080491C61
:1024C000521C92F8008081F80080491C521C92F83E
:1024D000008081F80080491C521C92F8008081F82D
:1024E0000080491C521C92F8008081F80080491C31
:1024F000521C92F8008081F8008000E053E0491CF3
:10250000521C92F8008081F80080491C521C92F8FD
:10251000008081F80080491C521C92F8008081F8EC
:102520000080491C521C92F8008081F80080491CF0
:10253000521C92F8008081F80080491C521C92F8CD
:10254000008081F80080491C521C92F8008081F8BC
:102550000080491C521C92F8008081F80080491CC0
:10256000521C92F8008081F80080491C521C92F89D
:10257000008081F80080491C521C92F8008081F88C
:102580000080491C521C203D202D3FF63AAF06E04A
:1025900092F8008081F80080491C521C6D1E002DAD
:1025A000F6D1BDE8F0816EB1C6F1040607E092F8FD
:1025B000008081F80080491C521C761E6D1E0EB1F1
:1025C000002DF4D10B46144630E0D4F80080C3F857
:1025D00000801B1D241DD4F80080C3F800801B1D43
:1025E000241DD4F80080C3F800801B1D241DD4F8DE
:1025F0000080C3F800801B1D241DD4F80080C3F8A0
:1026000000801B1D241DD4F80080C3F800801B1D12
:10261000241DD4F80080C3F800801B1D241DD4F8AD
:102620000080C3F800801B1D241D203D202DCCD828
:1026300006E0D4F80080C3F800801B1D241D2D1F68
:10264000042DF6D81946224606E092F8008081F85B
:102650000080491C521C6D1E002DF6D100BFA0E762
:1026600030B504460B4604E01D782570641C5B1CE5
:10267000521E002AF8D130BD30B504460B4604E0A6
:102680001D782570641C5B1C521E002AF8D130BDD9
:1026900030B504460B4604E01D782570641C5B1CB5
:1026A000521E002AF8D130BD30B504460B4604E076
:1026B0001D782570641C5B1C521E002AF8D130BDA9
:1026C00030B504460B4604E01D782570641C5B1C85
:1026D000521E002AF8D130BDF0B506460B463446EE
:1026E00004F003054DB1C5F1040503E02370641C3B
:1026F000521E6D1E0DB1002AF8D103EB032707EB24
:10270000034707EB0361204610E00160001D0160F4
:10271000001D0160001D0160001D0160001D0160C1
:10272000001D0160001D0160001D203A202AECD828
:1027300002E00160001D121F042AFAD8044602E0DC
:102740002370641C521E002AFAD1F0BD30B5044635
:10275000224602F0030353B1C3F1040304E0002551
:102760001570521C491E5B1E0BB10029F7D1104693
:1027700011E000250560001D0560001D0560001DBD
:102780000560001D0560001D0560001D0560001D41
:102790000560001D20392029EBD803E000250560E5
:1027A000001D091F0429F9D8024603E00025157011
:1027B000521C491E0029F9D130BD30B504462246CD
:1027C00002F0030353B1C3F1040304E0FF251570C5
:1027D000521C491E5B1E0BB10029F7D1104612E0B6
:1027E0004FF0FF350560001D0560001D0560001DF0
:1027F0000560001D0560001D0560001D0560001DD1
:102800000560001D20392029EAD804E04FF0FF358B
:102810000560001D091F0429F8D8024603E0FF25C2
:102820001570521C491E0029F9D130BD2DE9F04127
:1028300007460D4600240CE02146384615F051FAB3
:10284000064606B907E0706865F3CB207060601C2F
:10285000C4B2402CF0DB00BF40240CE021463846D7
:1028600015F03FFA064606B907E0706865F3CB201D
:102870007060601CC4B2FF2CF0DB00BFBDE8F081CB
:102880002DE9FE4F05460E46144627464FEA2729F6
:102890004FF0000AA84626E03146404615F021FADE
:1028A00000903146404615F089F9834607EB0B202E
:1028B00084B201AA2146009800F060FC8246BAF179
:1028C000010F04D1BDF804100846BDE8FE8F09F0E1
:1028D000800000B90AE00EB1002604E0404615F081
:1028E00017F9804600BFB8F1000FD5D100BF24F41E
:1028F000FE44292C02D02A2C08D100E000BF064853
:1029000000680090BDF800100846DEE70020029045
:10291000BDF808100846D8E7D8EF01082DE9FE4FAA
:1029200006460F461546A8464FEA2820029000208A
:102930000090B14613E13946484615F0D2F90446F5
:10294000A088C0F3C020002874D1207900F03F0097
:1029500000286FDDA088C0F3802028B925F4FE424E
:10296000394648461CF040F94FF0000B25F4FE4074
:1029700030286AD024DC112875D010DC05285CD002
:1029800006DC012870D0022845D0042849D153E044
:10299000062850D0072851D01028F7D189E01628F2
:1029A00071D006DC12286FD013286ED01528EDD117
:1029B00089E017286AD0182869D02028E6D190E04D
:1029C000602873D010DC402856D006DC312843D074
:1029D00032286CD03328D9D147E0422868D050281B
:1029E0005DD05428D2D182E048F28102811A90420F
:1029F00019D009DC72287CD0912875D0A0F5004050
:102A000080380028C2D10DE0012979D002296FD089
:102A10001F297CD167E0A088C0F3803008B14FF057
:102A2000010B74E000BF6068C0F3407008B14FF064
:102A3000010B6CE071E000BF00BF00BFA088C0F3D5
:102A4000C03008B14FF0010B61E06068C0F3405046
:102A500008B14FF0010B5AE06068C0F3805008B134
:102A60004FF0010B53E025E012E06068C0F3C05066
:102A700008B14FF0010B4AE06068C0F3006008B194
:102A80004FF0010B43E01FE015E015E01DE01DE0F5
:102A9000A088C0F3003008B14FF0010B37E0606848
:102AA000C0F3806008B14FF0010B30E01EE019E088
:102AB0001BE000BF00BF00BF6068C0F3004008B16A
:102AC0004FF0010B23E000BF00BF00BF6068C0F300
:102AD000404008B14FF0010B19E00AE004E00FE0BC
:102AE00006E000BF00BF00BF00BF00BF00BF00BFC7
:102AF00000BF6068C0F3804008B14FF0010B06E0F2
:102B00006068C0F3807008B14FF0010B00BF00BFD8
:102B1000BBF1000F00D026E000BF3946484615F053
:102B20004DF8824608EB0A2085B201AA29462046C4
:102B300000F070FB00900098012803D1BDF904005B
:102B4000BDE8FE8F029800F0800000B90BE00FB1E5
:102B5000002704E0484614F0DBFF814600BFB9F1CE
:102B6000000F7FF4E8AE00BF25F4FE45222D10D003
:102B700004DC032D09D0072D10D10CE0312D02D03B
:102B8000C02D0BD103E00F20DAE70620D8E7102094
:102B9000D6E7FF20D4E74FF48070D1E70020CFE7DD
:102BA0002DE9FE4F06460F461446A0464FEA282060
:102BB000029000200090B14668E03946484615F082
:102BC00090F80546A888C0F3C02000283DD1287998
:102BD00000F03F00002838DDA888C0F3802028B925
:102BE00024F4FE42394648461BF0FEFF4FF0000B2E
:102BF00024F4FE402C280DD0A0F500400C3810B174
:102C0000A1281CD114E0A888C0F3403008B14FF0CF
:102C1000010B14E06868C0F3005010B1FF20BDE85C
:102C2000FE8F6868C0F3C04008B14FF0010B06E0AA
:102C30006868C0F3007008B14FF0010B00BF00BF1F
:102C4000BBF1000F00D024E000BF3946484614F025
:102C5000B5FF824608EB0A2084B201AA2146284625
:102C600000F024FB00900098012802D19DF8040098
:102C7000D5E7029800F0800000B90AE00FB1002704
:102C800004E0484614F044FF814600BFB9F1000F4C
:102C900093D100BF24F4FE442C2C06D06D2C06D01A
:102CA000A4F50040AD3820B900E000BF00BF00200F
:102CB000B5E7FF20B3E700002DE9FE4F06460F46BB
:102CC0001446A0464FEA2820029000200090B1460A
:102CD00060E03946484615F004F80546A888C0F378
:102CE000C020A0BB287900F03F00002831DDA88873
:102CF000C0F3802028B924F4FE42394648461BF030
:102D000073FF4FF0000B24F4FE406E280DD07F2897
:102D100004D0A0F500408E38A0B90DE06868C0F37B
:102D2000C06008B14FF0010B0CE06868C0F3406070
:102D300008B14FF0010B05E06868C00F08B14FF013
:102D4000010B00BF00BFBBF1000F01D025E000E088
:102D500000BF3946484614F031FF824608EB0A208E
:102D600084B201AA2146284600F0ECFA00900098AF
:102D7000012802D10198BDE8FE8F029800F0800082
:102D800000B90AE00FB1002704E0484614F0C0FE85
:102D9000814600BFB9F1000F9BD100BF24F4FE446F
:102DA0007E2C06D0BE2C07D0A4F500408E3828B962
:102DB00000BF17F0C9FDDEE70148DCE70020DAE7D5
:102DC000E8D302082DE9FF4105460E461446314678
:102DD000284614F086FF074621463846039A00F03D
:102DE000BDFB00232246314628461BF0B5FE24F4E5
:102DF000FE423146284615F037FEBDE8FF812DE939
:102E0000F04106460F4614461D463946304614F03A
:102E100068FF80462A462146404600F0ACFB00236E
:102E20002246394630461BF097FE24F4FE423946CE
:102E3000304615F019FEBDE8F0812DE9F041064657
:102E40000F4614461D463946304614F04AFF804668
:102E50002A462146404600F09EFB00232246394682
:102E600030461BF079FE24F4FE423946304615F018
:102E7000FBFDBDE8F08100000148006870470000DC
:102E80004C000020704730B50002002300BF9C18A2
:102E900004FB04F5854200D823465208002AF6D1E7
:102EA000C3F30F150D801D072D0E4D8030BD2DE98C
:102EB000F04705460E461746B8461DB94FF0FF309D
:102EC000BDE8F087286810B94FF0FF30F8E73146C9
:102ED000284609F043F90446002C02DA4FF0FF308F
:102EE000EEE7A01C2A68111802224046FFF7C4FB37
:102EF0002146284609F0CFF981464FEA162A0AF002
:102F00007F0000EA0900DBE72DE9F04705460E46A1
:102F10001746B8461DB94FF0FF30BDE8F087286866
:102F200010B94FF0FF30F8E73146284609F016F99E
:102F30000446002C02DA4FF0FF30EEE7A01C2A68AE
:102F4000111802224046FFF797FB2146284609F058
:102F5000A2F981464FEA162A0AF07F0000EA09002A
:102F6000DBE770B50546286808B9002070BD00246D
:102F700004E02146304609F0D7F8044621462846A9
:102F800009F092F90646FF28F3D1A01C80B2EDE7C4
:102F90002DE9F04705460E461746B8461DB94FF0D5
:102FA000FF30BDE8F087286810B94FF0FF30F8E730
:102FB0003146284609F0D2F80446002C02DA4FF0D8
:102FC000FF30EEE7A01C2A68111801224046FFF7E7
:102FD00053FB2146284609F05EF981464FEA162A3E
:102FE0000AF07F0000EA0900DBE72DE9F04705461B
:102FF0000E461746B8461DB94FF0FF30BDE8F087C2
:10300000286810B94FF0FF30F8E73146284609F03C
:10301000A5F80446002C02DA4FF0FF30EEE7A01CC2
:103020002A68111804224046FFF726FB214628464D
:1030300009F031F981464FEA162A0AF07F0000EACA
:103040000900DBE72DE9F041044688460CB9BDE8EC
:10305000F0814146204600F0C7F9207900F03F009A
:1030600020B9042013F066FC054608E0227902F03E
:103070003F02521C9100206813F008FD054600BF76
:1030800028460CF063FF30B92A46002316A00CF046
:1030900063FF00BFFEE700BF05B9D8E7002720792E
:1030A000C0F3C01008B1781CC7B22079C0F38010FB
:1030B00008B1781CC7B2207900F03F0606E0701E08
:1030C00055F8200045F82600701EC6B2BE42F6DC58
:1030D00045F827802079401C616860F30501616034
:1030E000256000BFB3E700004F7574206F66206D48
:1030F000656D6F727900000070B504462079C0F3E9
:10310000C01018B1204600F064F970BD042013F01F
:1031100011FC054600BF28460CF018FF30B92A46BE
:10312000002312A00CF018FF00BFFEE700BF0DB98E
:103130000020EAE7284616F026FF29462046FFF73A
:1031400081FF606820F08000803060602079C0F3EB
:10315000801040B1216808682168496822681160C0
:103160002168486000BF2846CFE700004F757420F3
:103170006F66206D656D6F72790000002DE9FC5F50
:1031800004468A46164614B90020BDE8FC9F206814
:1031900008B90020F9E74FEA2A2BD8464FF0FF394B
:1031A00000200190002529E0E9B2204616F088FFB2
:1031B000009001AA51460098FFF779FE074647455F
:1031C00004D1BDF8040030800120DEE72079C0F38F
:1031D000C01058B1002F09DB45B9A088C0F300200A
:1031E00020B9BDF8040030800120CEE74F4503DD53
:1031F000B946BDF804003080681C05B2207900F0A3
:103200003F00A842D0DCB9F1000F01DB0120BCE790
:103210000020BAE72DE9FC5F04468A46164614B939
:103220000020BDE8FC9F206808B90020F9E74FEABC
:103230002A2BD8464FF0FF3900200190002529E0C5
:10324000E9B2204616F03CFF009001AA51460098D2
:10325000FFF75AFE0746474504D1BDF90400308008
:103260000120DEE72079C0F3C01058B1002F09DB40
:1032700045B9A088C0F3002020B9BDF90400308012
:103280000120CEE74F4503DDB946BDF9040030808B
:10329000681C05B2207900F03F00A842D0DCB9F1EB
:1032A000000F01DB0120BCE70020BAE72DE9FC5F3D
:1032B00004468A46164614B90020BDE8FC9F2068E3
:1032C00008B90020F9E74FEA2A2BD8464FF0FF391A
:1032D00000200190002529E0E9B2204616F0F0FE1A
:1032E000009001AA51460098FFF752FE0746474555
:1032F00004D19DF8040030700120DEE72079C0F38E
:10330000C01058B1002F09DB45B9A088C0F30020D8
:1033100020B99DF8040030700120CEE74F4503DD51
:10332000B9469DF804003070681C05B2207900F0A1
:103330003F00A842D0DCB9F1000F01DB0120BCE75F
:103340000020BAE72DE9FC5F04468A46164614B908
:103350000020BDE8FC9F206808B90020F9E74FEA8B
:103360002A2BD8464FF0FF39002526E0E9B2204647
:1033700016F0A6FE009001AA51460098FFF735FE10
:103380000746474503D1019830600120E1E72079E5
:10339000C0F3C01050B1002F08DB3DB9A088C0F3C6
:1033A000002018B9019830600120D2E74F4502DDB6
:1033B000B94601983060681C05B2207900F03F00E2
:1033C000A842D3DCB9F1000F01DB0120C1E70020E6
:1033D000BFE701460879C0F3C01008B90020704764
:1033E00008680068FBE700002DE9F04704460F4637
:1033F000207900F03F0008B9BDE8F0874FF00009E0
:10340000002509E0206850F82500B84202D14FF0AD
:10341000010906E0681CC5B2207900F03F00A8420F
:10342000F0DC00BFB9F1000F00D1E5E7207900F032
:103430003F0001280DD1206813F0E8FA0020206039
:10344000606820F03F006060606820F040006060CD
:10345000D2E7217901F03F01491E880013F06AFA92
:10346000064600BF30460CF071FD30B932460023ED
:1034700016A00CF071FD00BFFEE700BF06B9BBE768
:103480000025A84611E0206850F82500B84200D178
:1034900009E0206850F8250046F8280008F10100EE
:1034A00000F0FF0800BF681CC5B2207900F03F00A3
:1034B000A842E8DC206813F0A9FA2079401E616870
:1034C00060F305016160266000BF95E74F757420C9
:1034D0006F66206D656D6F727900000070B50446EF
:1034E00004B970BD2079C0F3801058B1204616F0A1
:1034F000D6FD05462DB1284616F03EFE284613F0AF
:1035000085FA00BF2079C0F3C01058B12046FFF7FC
:1035100060FF05462DB1284616F02EFE284613F012
:1035200075FA00BF207900F03F00002802DD206816
:1035300013F06CFA00202060606820F03F006060AB
:10354000606820F040006060606820F0800060608B
:10355000606820F48070606000BFC2E7F7B5044681
:103560000D46204608F028FC064629463046029AB9
:1035700000F022F8FEBD2DE9F04104460D46164646
:10358000204608F019FC074632462946384600F026
:10359000E3F8BDE8F0812DE9F04104460D461646FA
:1035A000204608F009FC074632462946384600F016
:1035B0003BF9BDE8F08100002DE9F74781B00546F1
:1035C000BDF80810284608F0C9FD0746002F17DB94
:1035D0003946284608F05FFE8146BDF808004FEAEC
:1035E000102A4FEA4960B0EB4A6F08D12968394484
:1035F000881C022203A9FFF73FF8BDE8FF8700BF40
:103600004FF00408FF20009002262846FFF7A9FC8F
:1036100004460CB9A01984B2201D84B22146284664
:1036200019F001FA00BF28680CF090FC38B929683D
:103630000A46002310A00CF08FFC00BFFEE700BF7D
:1036400005B9DAE729682144A1EB0801881B0222A9
:1036500002A9FFF711F829682144891E881B02225C
:1036600003A9FFF709F829682144881B022269464B
:10367000FFF702F800BFC0E74F7574206F66206D3A
:10368000656D6F72790000002DE9F74781B005463E
:10369000BDF80810284608F061FD0746002F17DB2B
:1036A0003946284608F0F7FD8146BDF808004FEA84
:1036B000102A4FEA4960B0EB4A6F08D129683944B3
:1036C000881C022203A9FEF7D7FFBDE8FF8700BFD1
:1036D0004FF00408FF20009002262846FFF741FC27
:1036E00004460CB9A01984B2201D84B22146284694
:1036F00019F099F900BF28680CF028FC38B929683E
:103700000A46002310A00CF027FC00BFFEE700BF14
:1037100005B9DAE729682144A1EB0801881B0222D8
:1037200002A9FEF7A9FF29682144891E881B0222ED
:1037300003A9FEF7A1FF29682144881B02226946DC
:10374000FEF79AFF00BFC0E74F7574206F66206DCB
:10375000656D6F72790000002DE9F74781B005466D
:10376000BDF80810284608F0F9FC0746002F17DBC3
:103770003946284608F08FFD8146BDF808004FEA1B
:10378000102A4FEA4960B0EB4A6F08D129683944E2
:10379000881C012203A9FEF76FFFBDE8FF8700BF69
:1037A0004FF00308FF20009002262846FFF7D9FBC0
:1037B00004460CB9A01984B2E01C84B22146284604
:1037C00019F031F900BF28680CF0C0FB38B929683E
:1037D0000A46002310A00CF0BFFB00BFFEE700BFAD
:1037E00005B9DAE729682144A1EB0801881B022208
:1037F00002A9FEF741FF29682144491E881B0122C6
:1038000003A9FEF739FF29682144881B0222694673
:10381000FEF732FF00BFC0E74F7574206F66206D62
:10382000656D6F72790000002DE9F74781B005469C
:10383000BDF80810284608F091FC0746002F17DB5A
:103840003946284608F027FD8146BDF808004FEAB2
:10385000102A4FEA4960B0EB4A6F08D12968394411
:10386000881C042203A9FEF707FFBDE8FF8700BFFD
:103870004FF00608FF20009002262846FFF771FB54
:1038800004460CB9A01984B2A01D84B22146284672
:1038900019F0C9F800BF28680CF058FB38B929683E
:1038A0000A46002310A00CF057FB00BFFEE700BF44
:1038B00005B9DAE729682144A1EB0801881B022237
:1038C00002A9FEF7D9FE29682144091F881B04229A
:1038D00003A9FEF7D1FE29682144881B022269460C
:1038E000FEF7CAFE00BFC0E74F7574206F66206DFB
:1038F000656D6F727900000010B518210348FEF75E
:103900002EFB012016F0B2FE10BD0000EC210020BD
:10391000014600204FF4B47291FBF2F302FB131145
:10392000002902DA01F5B47211B25A2903DA134AF6
:1039300032F9110020E05A2908DBB42906DAC1F176
:10394000B40211B20D4A32F9110015E0B4290BDBB3
:10395000B1F5877F08DAA1F1B40211B2074A32F853
:103960001120524210B207E0C1F5B47211B2034AFD
:1039700032F81120524210B27047000004D40208FD
:103980002DE9F04387B00446884691461F460E9DB8
:103990001CB9002007B0BDE8F083B8F1000F01D1D9
:1039A0000020F7E705F0020010B905F0100078B12B
:1039B000002000E0401C215C0A2905D0215C0D2973
:1039C00002D0215C0029F5D1215C01B1401CE1E766
:1039D00005F0020008B147F6184700200690059050
:1039E00037E000200490059808B9012000E000208D
:1039F00006A904AACDE90052CDE902100599601884
:103A00003B464A46414617F055F806460498381A90
:103A100007B23EB9059820B905A92046144A126894
:103A200090471BE005983044059020780A2802D082
:103A300020780D2800D111E00598205C0A2803D0D9
:103A40000598205C0D2803D10598401C059005E0E1
:103A500000BF0598205C08B1002FC2DC00BF0598AC
:103A600020B905A92046024A12689047059891E7B7
:103A7000380100202DE9FF4F83B004460E469046E2
:103A8000DDF848B0DDF8409000202080608016B955
:103A900007B0BDE8F08FB8F1000F00D1F8E70BF0E8
:103AA000020010B147F6184011900025AA4600BF49
:103AB000B8F8080087B22EE07019CDF800B0414682
:103AC000119B069AFFF75CFF8244B4F90200384468
:103AD0004844B0F5004F00D3DAE76088384400B2BC
:103AE00060806088484400B26080AAEB05017019CC
:103AF000CDF800B04246069B00F02CF80290B4F9D5
:103B000000100298814201DA029801E0B4F9000045
:103B10002080554600BF705D0028CDD16DB1681E74
:103B2000305C0A2803D0681E305C0D2805D16088FF
:103B300007EB0901084400B26080608810B938B210
:103B4000608004E06088A0EB090000B2608000BFE4
:103B50009EE700002DE9FE4F05460E4617469846A3
:103B6000DDF830A015B90020BDE8FE8F0FB90020A8
:103B7000FAE7287808B90020F6E700200290002430
:103B800001907EB326E002A92846174A12689047A2
:103B90000090029968180021134A126890478346E2
:103BA0000AF0010028B101A8009900F01FF800B147
:103BB00010E05A46384600990EF056FE0FFA80F98A
:103BC000B9F1000F05DD04EB090004B204EB0800B5
:103BD00004B200BF0298B042D5D3002C02DDA4EBA2
:103BE000080004B22046BFE738010020024600204A
:103BF0000FA31B788B4211D113781BB901231370CB
:103C000001200BE01378012B02D10023137005E093
:103C10001378022B02D10023137001201378012B9B
:103C200004D1202901D10223137001207047000024
:103C30002300000073B582B0064603980190324617
:103C400000210846019B17F09BF9054600200190D2
:103C50000024681C12F06EFE044600BF20460CF0E3
:103C600075F930B92246002309A00CF075F900BFA0
:103C7000FEE700BF14B9002004B070BD00206055FD
:103C80003246691C2046039B17F07AF92046F3E779
:103C90004F7574206F66206D656D6F72790000003E
:103CA0002DE9F04781460E4614461F46DDF820A058
:103CB00035461BE0600800FB075529464846D047BB
:103CC000B0F1000809DD04F0010080F00100C0EB54
:103CD0005404E8190546064608E0B8F1000F02DA78
:103CE0006408354602E02846BDE8F087002CE1D1A3
:103CF0000020F9E7F0B503462BB93020087000200A
:103D000048700846F0BD00220024002B0CDA2D2656
:103D10001046551C6AB20E54002B01DD184600E017
:103D200058420346601C44B210E00A2593FBF5F6A6
:103D300005FB1635E8B200F13005EFB21546561C0A
:103D400072B24F550A2593FBF5F300BF002BECD15F
:103D500000208854501E42B208E0085D8D5C0D556D
:103D60008854551E6AB2651C6CB200BFA242F4DCD6
:103D70000846C7E72DE9FF4F85B08346DDE9158A80
:103D8000DDE91349DDE91775129E05F00200F8B967
:103D90004FB105F0010030B1B9F1000F02D105F0CB
:103DA0000C0000B17F1E03E030222046641C325418
:103DB000544501D2202CF7D303E030222046641C66
:103DC000325405F0010018B1BC4201D2202CF4D3CA
:103DD00005F01000B0B305F4806050B94CB1544503
:103DE00001D0BC4205D1641E1CB1B8F1100F00D146
:103DF000641EB8F1100F09D105F0200030B9202C55
:103E000004D278222046641C325415E0B8F1100F19
:103E100009D105F0200030B1202C04D258222046D0
:103E2000641C325408E0B8F1020F05D1202C03D2F3
:103E300062222046641C3254202C03D230222046B9
:103E4000641C3254202C16D2B9F1000F04D02D225C
:103E50002046641C32540EE005F0040020B12B22F1
:103E60002046641C325406E005F0080018B12022F8
:103E70002046641C3254CDE90275CDE900645846F1
:103E800006A90EC900F0A2F809B0BDE8F08F2DE92F
:103E9000FF4F8FB08046DDE91FABDDE91D96219D08
:103EA0001C9C00270CB925F0100505F4806000B1BA
:103EB000E4B100BFB4FBF6F106FB1141C8B20A2819
:103EC00002DA00F1300107E005F0200109B14121DB
:103ED00000E0612101440A39CBB239467F1C07AAB0
:103EE0005354B4FBF6F40CB1202FE3D307A8CDE96B
:103EF00004AB8DE8810203960695404610A90EC9D1
:103F0000FFF738FF13B0BDE8F08F2DE9FF4F8FB0FA
:103F1000DDE9217BDDF89080209EDDE91C454FF036
:103F20000009002184EA01006940084301D128F01A
:103F3000100808F4806028B1002184EA010069407B
:103F400008432DD000BF32463B4620462946FCF7A9
:103F50000BF902F0FF0ABAF10A0F02DA0AF1300097
:103F600007E008F0200008B1412000E06120504443
:103F70000A38C2B2484609F1010907A90A54324673
:103F80003B4620462946FCF7EFF804460D46002143
:103F900084EA01006940084302D0B9F1200FD2D36E
:103FA0002398CDE9036BCDE9050807A91E98CDE953
:103FB000001902900FA80FC8FFF7DCFE13B0BDE890
:103FC000F08F9A4200D28854704770472DE9FF5F06
:103FD00005461446DDE90EA6DDE91087A34607F085
:103FE000020078B907F0010060B9B14607E0224647
:103FF000641C2020039B0199A84709F10109C145D0
:10400000F5D300BF08E02246641C711E0E461AF864
:104010000100039B0199A847002EF4D107F002008C
:1040200050B105E02246641C2020039B0199A8475B
:10403000A4EB0B004045F5D3204604B0BDE8F09F4B
:104040002DE9FF4F8BB0074600260C9800B9F84FBA
:10405000CEE20E98007825280AD03246761C0E99BA
:104060000878DDE90C13B8470E98401C0E90BFE2AB
:104070000E98401C0E90002400BF0E9800782B284C
:1040800019D004DC20281ED023282CD123E02D2891
:1040900009D0302827D144F001040E98401C0E901E
:1040A00001200A9022E044F002040E98401C0E9079
:1040B00001200A901AE044F004040E98401C0E906F
:1040C00001200A9012E044F008040E98401C0E9063
:1040D00001200A900AE044F010040E98401C0E9053
:1040E00001200A9002E000200A9000BF00BF0A9859
:1040F0000028C2D180460E990878FCF715FA20B145
:104100000EA8FCF7FCF9804612E00E9800782A28E9
:104110000ED1189901C91891002804DA44F002045C
:10412000C0F1000800E080460E99491C0E9100BFC6
:104130004FF000090E9800782E281FD144F48064B7
:104140000E98401C0E900E990878FCF7EDF920B1FE
:104150000EA8FCF7D4F9814610E00E9800782A28C2
:104160000CD1189901C91891002801DD014600E021
:10417000002189460E99491C0E9100BF0E980078C7
:104180006C280AD004DC682816D06A2835D128E0CB
:10419000742820D07A2830D129E044F480740E9815
:1041A000401C0E900E9800786C2804D144F40074E2
:1041B0000E98401C0E9021E044F080040E98401CA4
:1041C0000E900E980078682804D144F040040E98B0
:1041D000401C0E9012E044F480740E98401C0E9027
:1041E0000CE044F400740E98401C0E9006E044F479
:1041F00080740E98401C0E9000E000BF00BF0E9827
:10420000007869281BD00CDC62281DD004DC25282E
:1042100076D0582875D115E0632873D06428F9D179
:104220000CE073286FD004DC6F280CD07028F1D11B
:10423000AAE1752804D07828ECD102E000BF00BFC5
:1042400000BF00BF00BF00BF0E980078782803D0E1
:104250000E980078582801D110250EE00E980078AD
:104260006F2801D1082508E00E980078622801D156
:10427000022502E00A2524F010040E980078582840
:1042800001D144F020040E980078692805D00E98DA
:104290000078642801D024F00C0404F4806008B194
:1042A00024F001040E980078692803D00E98007855
:1042B00064287BD104F40070B0B31898C01D20F0BE
:1042C00007001890D0E900AB189A08321892002025
:1042D000CDE90698CDE904500894BAEB00017BEBD8
:1042E000000001DA012000E00020002102900846D1
:1042F000B1EB0A0170EB0B0006DA5046594609E0B3
:104300005FE168E1C1E0EBE000200146B0EB0A00AC
:1043100061EB0B01CDE9000132463846DDE90C13B3
:10432000FFF7F3FD0646ACE0FFE704F48070D0B180
:10433000189850F804AB18904FEADA70CDE903985A
:1043400002950594BAF1000F01DD514601E0CAF172
:104350000001CDE9001032463846DDE90C13FFF7C5
:1043600096FD06468DE004F0400028B1189810F83C
:10437000041B1890C8B20DE004F0800028B1189812
:1043800030F8041B189008B204E0189800681899D7
:10439000091D189182464FEADA70CDE9039802951B
:1043A0000594BAF1000F02DD514602E00BE0CAF1BC
:1043B0000001CDE9001032463846DDE90C13FFF765
:1043C00066FD06465DE004F40070D0B11898C01D8B
:1043D00020F00700CDE90698089418900020CDE958
:1043E00004500290189903C9189A08321892CDE91E
:1043F000000132463846DDE90C13FFF786FD06461C
:104400003FE004F48070A8B10022CDE90398029542
:104410000594189800681899091DCDE900021891B3
:1044200032463846DDE90C13FFF731FD064628E039
:10443000CB3F000804F0400028B1189810F8041B86
:104440001890C8B20DE004F0800028B1189830F838
:10445000041B189088B204E0189800681899091D88
:10446000189182460020CDE900A0CDE9039802957D
:10447000059432463846DDE90C13FFF708FD064681
:1044800000BF0E98401C0E90B0E0012504F0020021
:1044900050B905E03246761C2020DDE90C13B84700
:1044A00028466D1C4045F5D3189911F8043BD8B245
:1044B0003246761C1891DDE90C13B84704F002006F
:1044C00050B105E03246761C2020DDE90C13B847D8
:1044D00028466D1C4045F5D30E98401C0E9085E093
:1044E000189850F804AB18905046B9F1000F01D05D
:1044F000494601E04FF0FF310A46014600E0491C01
:104500000B781BB11300A2F10102F8D10D1A04F4CB
:10451000806028B14D4501D2284600E04846054656
:1045200004F0020050B905E03246761C2020DDE997
:104530000C13B84728466D1C4045F5D306E01AF821
:10454000010B3246761CDDE90C13B8479AF80000DF
:1045500040B104F480600028F1D05FEA0900A9F1BD
:104560000109ECD104F0020050B105E03246761C9E
:104570002020DDE90C13B84728466D1C4045F5D3D3
:104580000E98401C0E9031E04FF0080844F02104D2
:10459000002510200022CDE9039805940290189878
:1045A00000681899091DCDE9000218913246384675
:1045B000DDE90C13FFF76BFC06460E98401C0E90CD
:1045C00014E03246761C2520DDE90C13B8470E981E
:1045D000401C0E900AE03246761C0E990878DDE900
:1045E0000C13B8470E98401C0E9000BF00BF00BFD0
:1045F0000E98007800287FF42CAD0D98864201D2E9
:10460000304601E00D98401E02460020DDE90C1303
:10461000B84730460FB0BDE8F08F000010B501205C
:10462000084908700848FDF76BFC28B900210748C5
:10463000006816F037F904E004210448006816F019
:1046400031F910BDD800002028220020DC00002015
:1046500010B590B0044694F83A00C0F3400050B949
:10466000208F002807DD208F4FF6FF71884202D08F
:10467000208F401E2087208FE0B9206B30B1206B47
:10468000C0B194F83A00C0F3400098B140222146EE
:104690006846FDF7A9FE21461A48FDF723FD20468E
:1046A00012F0B4F9FFF7BAFF039810B16846039906
:1046B000884724E0606B4042A062206BF8B194F818
:1046C0003A10C1F3400111B9E16A4942A16294F87C
:1046D0003A104908C94394F83A2061F3410284F83A
:1046E0003A20A069216AA161206294F83A10C1F3CE
:1046F000400109B9E16B00E0216B616200BF10B0BD
:1047000010BD0000282200202DE9F04180463948E4
:10471000006816F0A3F906463748007880F00100DB
:10472000354908703548FDF7EBFB044659E0002099
:104730003349087094F83A00C0F380002E49097894
:10474000884241D02C48017894F83A0061F3820005
:1047500084F83A00A06A8719A06A002806DC002FB6
:1047600004DBA06810B12046A1688847A06A3044E5
:10477000A062A06A002826DBD4E90910884201DD86
:10478000606AA062206930B1214604F110002269FC
:104790009047054605E0214604F110000AF09AFE14
:1047A0000546E069A84206D0E561606818B129B203
:1047B000D4E900029047D4E90910884202DB204680
:1047C000FFF746FF00BF00BF0D48007820B10B483F
:1047D000FDF796FB044604E021460848FDF7A7FBD9
:1047E0000446002CA3D116F047F902490860BDE841
:1047F000F0810000D4000020D900002028220020F1
:10480000D800002070B504460D461646A06820B1B9
:1048100032462946A068FFF7F5FF606820B13146AF
:1048200028466268904707E0206828B1324629464A
:10483000024823680068984770BD00004C010020C2
:1048400038B5524800681C3015F096FC50480021DD
:10485000C2684E4800681C3015F0F5FC00200BF0D3
:10486000A5FC00EBC00101EB00105030A02190FB33
:10487000F1F001280BDD00200BF098FC00EBC001EB
:1048800001EB00105030A02190FBF1F000E001207E
:1048900004B2224600213D4800681C3015F0EAFCB5
:1048A00001220021394800681C3015F0D7FC374838
:1048B0000068203015F060FC354890F8200000F0CA
:1048C000020020B133480AF0DDFF009003E03248D7
:1048D0000AF0D8FF009000212C48009A0068203090
:1048E00015F0B1FC00200BF061FC00EBC00101EB06
:1048F00000105030A02190FBF1F001280BDD0020CA
:104900000BF054FC00EBC00101EB00105030A02173
:1049100090FBF1F000E0012004B2224600211B4888
:104920000068203015F0A6FC01220021174800681D
:10493000203015F093FC15480068243015F01CFC5D
:1049400047F6FF72002111480068243015F02DFD54
:10495000002211460D480068243015F00EFD00229B
:1049600011460A480068243015F0D7FC0022114691
:1049700006480068243015F0E8FC00221146034880
:104980000068243015F0EDFC38BD00005001002017
:1049900078A30020D9D7D4004D4945003EB56B48D7
:1049A0000068283015F0E8FB47F6FF7200216748E1
:1049B0000068283015F0F9FCFF22002163480068E8
:1049C000283015F0EDFB624890F8200000F002005E
:1049D00020B160480AF056FF009003E05E480AF0FC
:1049E00051FF009000215948009A0068283015F0C6
:1049F000CCFB5A4800680290554890F8200000F01F
:104A0000020020B156480AF03DFF009001E00298F4
:104A1000009000214D48009A0068283015F077FD7D
:104A20004B480021C26849480068283015F046FC10
:104A30004748C08902460421009044480068283055
:104A400015F03CFC0022114640480068283015F063
:104A500040FC7F2202213D480068283015F039FCD7
:104A60003B4890F8200000F0200008B1002015E03D
:104A700000200BF09BFB502101EB4000A02190FB9C
:104A8000F1F0012809DD00200BF090FB502101EB33
:104A90004000A02190FBF1F000E0012004B222468A
:104AA00000212A480068283015F02BFC002211460E
:104AB00026480068283015F01EFD4C2200212348AE
:104AC0000068283015F00BFD204800682C3015F0E8
:104AD00053FBFF2200211D4800682C3015F060FBBD
:104AE00047F6FF720021194800682C3015F05DFC74
:104AF00017480021C268154800682C3015F045FBA6
:104B000040F688000AF0CCFE0246202100900F48B3
:104B100000682C3015F039FB1048001D006801902A
:104B20000B4890F8200000F0020020B10D480AF078
:104B3000A9FE009001E00198009000210348009A2E
:104B400000682C3015F0E3FC3EBD00005001002051
:104B500078A30020D9D7D4004D494500BCD4020821
:104B60004F4031004F404100FEB5F848006815F055
:104B700003FBFF220021F548006815F011FBF44803
:104B800090F8200000F0020020B1F2480AF07AFE0E
:104B9000029003E0F0480AF075FE02900021EB4815
:104BA000029A006815F0F1FAE94890F8200000F048
:104BB000020020B1E9480AF065FE029003E0E848EF
:104BC0000AF060FE02900021E048029A006815F0A9
:104BD00049FCDF4890F8200000F0020020B1DF48D7
:104BE0000AF050FE029003E0DD480AF04BFE02900E
:104BF0000021D648029A006815F089FCD3480026A7
:104C00000568D34890F8200000F0020020B1D34896
:104C10000AF038FE029003E0D1480AF033FE029019
:104C20000298019048F28A0040EA06212846019A3B
:104C3000FEF7C2FC00BFC54800260568C448C0682E
:104C4000029048F28B0040EA06212846029AFEF7BD
:104C5000B3FC00BFBE4800214269BC48006815F0A3
:104C600061FCBA480068001D15F086FA00200BF0C0
:104C70009DFA502101EBC000A02190FBF1F001282A
:104C800009DD00200BF092FA502101EBC000A021B9
:104C900090FBF1F000E0012005B22A460021AB486C
:104CA0000068001D15F081FBFF220021A748006865
:104CB000001D15F075FAA64890F8200000F00200DB
:104CC00028B16FF07F400AF0DDFD029003E0A548B7
:104CD0000AF0D8FD029000219C48029A0068001D4D
:104CE00015F053FA9A4890F8200000F0020020B125
:104CF0009D480AF0C7FD029003E09C480AF0C2FDFF
:104D0000029000219148029A0068001D15F054FAA3
:104D10008F4890F8200000F0200038B98C4802211C
:104D2000C2688A480068001D15F046FA8848C089A4
:104D300002460421029085480068001D15F03CFAE7
:104D400000200BF033FA502101EB4000A02190FB32
:104D5000F1F0012809DD00200BF028FA502101EBC9
:104D60004000A02190FBF1F000E0012005B22A46AE
:104D7000002176480068001D15F041FA734800686C
:104D8000051D00260127332040EA06213A46284621
:104D9000FEF77AFC00BF6E4890F8200000F0020099
:104DA00020B16E480AF06EFD029004E06FF07F4083
:104DB0000AF068FD029000216448029A0068001D14
:104DC00015F050FB62480021426960480068001DF0
:104DD00015F0A8FB5E4890F8200000F0020020B11A
:104DE0005E480AF04FFD029004E06FF07F400AF049
:104DF00049FD029000215548029A0068001D15F0F7
:104E000086FB534890F8200000F0020020B1534880
:104E10000AF038FD029004E06FF07F400AF032FDA6
:104E2000029000214948029A0068001D15F0FFF920
:104E3000474890F8200000F0020020B147480AF0EF
:104E400021FD029004E06FF07F400AF01BFD02900C
:104E500000213E48029A0068001D15F0F4F9012275
:104E600000213A480068001D15F004FA00200BF0FC
:104E700003FA012816DC00200BF098F9C0EB0010B3
:104E80005030A02190FBF1F0012809DD00200BF04B
:104E90008DF9C0EB00105030A02190FBF1F61BE023
:104EA000012619E000200BF081F9C0EB0010502121
:104EB00001EB4000A02190FBF1F001280BDD002068
:104EC0000BF074F9C0EB0010502101EB4000A02161
:104ED00090FBF1F600E0012600200BF067F950216D
:104EE00001EB4000A02190FBF1F0012809DD00203A
:104EF0000BF05CF9502101EB4000A02190FBF1F098
:104F000000E00120304405B22A4600210F48006825
:104F1000001D15F01AFA00200BF0AEF9012829DC6B
:104F200000200BF043F9C0EB00105030A02190FBA3
:104F3000F1F001281CDD00200BF038F9C0EB001067
:104F40005030A02190FBF1F62EE00000500100202F
:104F500078A30020F3EFEA005A4B4400423E3B00A6
:104F6000ECE9E70073625800E3DDD600978A800021
:104F7000012619E000200BF019F9C0EB00105021B8
:104F800001EB4000A02190FBF1F001280BDD002097
:104F90000BF00CF9C0EB0010502101EB4000A021F8
:104FA00090FBF1F600E0012600200BF0FFF8502105
:104FB00001EB4000A02190FBF1F0012809DD002069
:104FC0000BF0F4F8502101EB4000A02190FBF1F030
:104FD00000E00120304405B22A460021F84800686C
:104FE000001D15F0BEF900200BF046F9012816DC73
:104FF00000200BF0DBF8C0EB00105030A02190FB3C
:10500000F1F0012809DD00200BF0D0F8C0EB001012
:105010005030A02190FBF1F61BE0012619E00020A2
:105020000BF0C4F8C0EB0010502101EB4000A021B0
:1050300090FBF1F001280BDD00200BF0B7F8C0EB7E
:105040000010502101EB4000A02190FBF1F600E0A0
:10505000012600200BF0AAF8502101EB4000A0210E
:1050600090FBF1F0012809DD00200BF09FF85021A2
:1050700001EB4000A02190FBF1F000E00120304462
:1050800005B22A460021CE480068001D15F075F9CA
:1050900000200BF0F1F8012816DC00200BF086F858
:1050A000C0EB00105030A02190FBF1F0012809DD89
:1050B00000200BF07BF8C0EB00105030A02190FBDB
:1050C000F1F61BE0012619E000200BF06FF8C0EBB1
:1050D0000010502101EB4000A02190FBF1F00128CD
:1050E0000BDD00200BF062F8C0EB0010502101EB4B
:1050F0004000A02190FBF1F600E0012600200BF01B
:1051000055F8502101EB4000A02190FBF1F001285F
:1051100009DD00200BF04AF8502101EB4000A021EE
:1051200090FBF1F000E00120304405B22A46002156
:10513000A3480068001D15F0F0F800200BF09CF863
:10514000012816DC00200BF031F8C0EB00105030C5
:10515000A02190FBF1F0012809DD00200BF026F8DA
:10516000C0EB00105030A02190FBF1F01BE00120BB
:1051700019E000200BF01AF8C0EB0010502101EBF1
:105180004000A02190FBF1F001280BDD00200BF086
:105190000DF8C0EB0010502101EB4000A02190FB66
:1051A000F1F000E0012005B22A46002184480068A1
:1051B000001D15F0BEF80022114681480068001D50
:1051C00015F099F9392200217D480068001D15F07D
:1051D00086F97B4800680C3014F0CEFF78480168EF
:1051E000091D00680C3014F0B7FE764890F82000D6
:1051F00000F0020020B174480AF044FB029003E082
:1052000072480AF03FFB029000216D48029A006844
:105210000C3014F0BAFF6B4890F8200000F0020048
:1052200020B16B480AF02EFB029003E069480AF0B7
:1052300029FB029000216248029A00680C3014F0A9
:10524000BBFF604890F8200000F0020020B16248E7
:105250000AF018FB029003E060480AF013FB02908A
:1052600000215748029A00680C3015F0FBF85548A9
:1052700090F8200000F0020020B157480AF002FB2D
:10528000029003E055480AF0FDFA029000214C48D4
:10529000029A00680C3015F03AF94A4890F820005C
:1052A00000F0020020B14C480AF0ECFA029003E052
:1052B0004A480AF0E7FA029000214148029A006841
:1052C0000C3014F0B4FF3F4890F8200000F00200CA
:1052D00020B141480AF0D6FA029003E03F480AF0B4
:1052E000D1FA029000213648029A00680C3014F07E
:1052F000AAFF33480068083014F03EFF314890F8A8
:10530000200000F0020020B135480AF0BBFA0290FC
:1053100003E034480AF0B6FA029010212848029AB5
:105320000068083014F031FF26480121C268244883
:105330000068083014F029FF33212248C0680AF0C1
:1053400042FA0246112102901D480068083014F00C
:105350001CFF1C4890F8200000F0020028B16FF0FC
:105360007F400AF08FFA029003E01F480AF08AFAA1
:10537000029020211248029A0068083014F005FFBC
:10538000002201210E480068083014F038FF332154
:105390000C48C0680AF017FA024612210290084829
:1053A0000068083014F008FF064890F8200000F06C
:1053B0000200D8B140F6CC400AF072FA029019E02F
:1053C0005001002078A30020D9D7D4004D494500D2
:1053D000EDE7DF00404040004F403100ADA8A500A0
:1053E000EEEEEE00574F490073625800FC480AF099
:1053F00049FA02901021FB48029A0068083014F024
:10540000DBFEF94890F8200000F0020020B1F748D8
:105410000AF038FA029003E0F1480AF033FA0290F9
:105420000121F048029A0068083014F0C5FEEE48E9
:1054300090F8200000F0020020B1EC480AF022FAB7
:10544000029003E0E6480AF01DFA02901121E548B7
:10545000029A0068083014F0AFFEE34890F820008C
:1054600000F0020020B1E2480AF00CFA029003E0DA
:10547000DB480AF007FA02902021DA48029A006815
:10548000083014F099FED84890F8200000F002008F
:1054900020B1D6480AF0F6F9029004E06FF07F40A0
:1054A0000AF0F0F902901021CE48029A0068083004
:1054B00014F0D8FFCC4890F8200000F0020028B18A
:1054C0006FF07F400AF0DEF9029004E06FF07F4059
:1054D0000AF0D8F902900121C248029A0068083007
:1054E00014F0C0FFC04890F8200000F0020028B17E
:1054F0006FF07F400AF0C6F9029004E06FF07F4041
:105500000AF0C0F902901121B648029A00680830EA
:1055100014F0A8FFB44890F8200000F0020028B171
:1055200040F6AA200AF0BCF9029004E040F6991077
:105530000AF0B6F902902021AA48029A00680830C1
:1055400014F090FFA84890F8200000F0020020B16D
:10555000A6480AF097F9029004E06FF07F400AF045
:1055600091F9029010219F48029A0068083014F0C7
:105570005EFE9D4890F8200000F0020028B16FF018
:105580007F400AF07FF9029004E06FF07F400AF05C
:1055900079F9029001219348029A0068083014F0CA
:1055A00046FE914890F8200000F0020028B16FF00C
:1055B0007F400AF067F9029004E06FF07F400AF044
:1055C00061F9029011218748029A0068083014F0AE
:1055D0002EFE854890F8200000F0020028B140F629
:1055E000AA200AF05DF9029004E040F699100AF052
:1055F00057F9029020217B48029A0068083014F085
:1056000016FE2922002177480068083014F05BFF5D
:1056100074480068103014F0AFFD47F6FF720021A7
:1056200070480068103014F0C0FEFF2200216D4861
:105630000068103014F0B4FD6B4890F8200000F0C2
:10564000020028B16FF07F400AF01CF9029003E0DD
:1056500068480AF017F9029000216248029A00682F
:10566000103014F092FD604890F8200000F0020025
:10567000B8B15D4890F8200000F0020028B16FF04A
:105680007F400AF0FFF8019003E05A480AF0FAF868
:105690000190332254480199C0680AF03BFB009006
:1056A00016E0514890F8200000F0020028B16FF099
:1056B0007F400AF0E7F8029003E04E480AF0E2F873
:1056C00002904C2248480299C0680AF023FB0090DF
:1056D00010214448009A0068103014F056FD4248EA
:1056E0000121C2683F480068103014F04EFD4C2183
:1056F0003D48C0680AF067F8024611210290394817
:105700000068103014F041FD374890F8200000F098
:10571000020028B16FF07F400AF0B4F8029003E075
:1057200034480AF0AFF8029020212E48029A00680F
:10573000103014F02AFD2C4890F8200000F00200F0
:1057400028B140F6CC400AF0ABF8029004E040F6F5
:1057500088000AF0A5F8029021212248029A0068E8
:10576000103014F012FD20480021C2681D48006866
:10577000103014F021FD1C481021C268194800683F
:10578000103014F019FD184890F8200000F00200C5
:1057900028B140F688000AF083F8029003E016482A
:1057A0000AF070F8029020210E48029A006810302A
:1057B00014F002FD00200AF0F9FC502101EB40003A
:1057C000A02190FBF1F0012818DD00200AF0EEFC8A
:1057D000502101EB4000A02190FBF1F00FE0000010
:1057E0006E655F005001002078A30020423E3B0020
:1057F000E3DDD6007362580040404000012005B24E
:105800002A460021FE480068103014F0F8FC0022FF
:105810000121FB480068103014F0D9FCF94890F8D9
:10582000200000F0020020B1F7480AF02BF80290A7
:1058300004E06FF07F400AF025F802900021F04864
:10584000029A0068103014F00DFEEE4890F8200027
:1058500000F0020020B1EC480AF014F8029004E0D5
:105860006FF07F400AF00EF802901021E448029A8F
:105870000068103014F0F6FD6FF07F400AF002F877
:10588000024601210290DE480068103014F0EAFD63
:105890006FF07F4009F0F6FF024611210290D848D0
:1058A0000068103014F0DEFDD64890F8200000F0BB
:1058B000020020B1D54809F0E5FF029003E0D3488B
:1058C00009F0E0FF02902021CD48029A00681030D4
:1058D00014F0C8FDCB4890F8200000F0020020B181
:1058E000C94809F0CFFF029004E06FF07F4009F053
:1058F000C9FF02900021C248029A0068103014F0DB
:1059000096FCC04890F8200000F0020020B1BE488C
:1059100009F0B8FF029004E06FF07F4009F0B2FF99
:1059200002901021B648029A0068103014F07FFCF3
:105930006FF07F4009F0A6FF024610210290B048A8
:105940000068103014F073FC6FF07F4009F09AFF8C
:10595000024611210290AA480068103014F067FC3A
:10596000A84890F8200000F0020020B1A74809F0F4
:1059700089FF029003E0A54809F084FF02902021EE
:105980009F48029A0068103014F051FC9D4890F82E
:10599000200000F0020020B19B4809F073FF029044
:1059A00004E06FF07F4009F06DFF02900021944801
:1059B000029A0068103014F0AAFD924890F8200076
:1059C00000F0020020B1904809F05CFF029004E072
:1059D0006FF07F4009F056FF029010218848029A2C
:1059E0000068103014F093FD6FF07F4009F04AFF1B
:1059F00002460121029082480068103014F087FDB1
:105A00006FF07F4009F03EFF0246112102907C4872
:105A10000068103014F07BFD7A4890F8200000F008
:105A2000020020B1794809F02DFF029003E0774889
:105A300009F028FF029020217148029A0068103076
:105A400014F065FD00200AF0B1FB00EB800050214E
:105A500001EBC000A02190FBF1F001280BDD00203C
:105A60000AF0A4FB00EB8000502101EBC000A02154
:105A700090FBF1F000E0012005B22A4600216048C9
:105A80000068103014F061FC00200AF08FFB00EB7E
:105A90008000502101EBC000A02190FBF1F0012813
:105AA0000BDD00200AF082FB00EB8000502101EBAF
:105AB000C000A02190FBF1F000E0012005B22A46D1
:105AC00000214F480068103014F04BFC00200AF011
:105AD0006DFBC0EB00105030A02190FBF1F00128CD
:105AE00009DD00200AF062FBC0EB00105030A0215D
:105AF00090FBF1F000E0012005B22A460021404869
:105B00000068103014F039FC00200AF04FFBC0EBA5
:105B100000105030A02190FBF1F0012809DD002099
:105B20000AF044FBC0EB00105030A02190FBF1F0D4
:105B300000E0012005B22A460021314800681030FB
:105B400014F0EBFB00200AF031FB00EB8000502149
:105B500001EB8000A02190FBF1F001280BDD00207B
:105B60000AF024FB00EB8000502101EB8000A02113
:105B700090FBF1F000E0012005B22A460021204808
:105B80000068103014F0D5FB1E4890F8200000F09B
:105B9000200008B1002015E000200AF007FB50218A
:105BA00001EB4000A02190FBF1F0012809DD00206D
:105BB0000AF0FCFA502101EB4000A02190FBF1F02B
:105BC00000E0012005B22A4600210D48006810308F
:105BD00014F097FB0022114609480068103014F0B9
:105BE00078FB7F22022106480068103014F071FB18
:105BF00004480021C26802480068103008E0000034
:105C00005001002078A300204F4031008888880090
:105C100014F054FB7248C089024604210290714876
:105C20000068103014F04AFB002211466D480068ED
:105C3000103014F060FC6B48006800F1100500267D
:105C40003C27B52040EA06213A462846FDF71CFDD0
:105C500000BF2922002163480068103014F033FC93
:105C60004C2200215F480068103014F038FC0022FC
:105C700011465C480068103014F019FC0022102115
:105C800058480068103014F012FC56480068143070
:105C900014F072FA00200AF0EFFA01281ADC002052
:105CA0000AF084FA00EB8000502101EB8000A02173
:105CB00090FBF1F001280BDD00200AF077FA00EBF1
:105CC0008000502101EB8000A02190FBF1F01BE04F
:105CD000012019E000200AF069FA00EB8000502151
:105CE00001EBC000A02190FBF1F001280BDD0020AA
:105CF0000AF05CFA00EB8000502101EBC000A0210B
:105D000090FBF1F000E0012005B22A460021354861
:105D10000068143014F00DFB32480068183014F09D
:105D20002BFA00200AF0A8FA01281ADC00200AF059
:105D30003DFA00EB8000502101EB4000A02190FBD8
:105D4000F1F001280BDD00200AF030FA00EB8000B2
:105D5000502101EB4000A02190FBF1F01BE001205D
:105D600019E000200AF022FA00EB8000502101EB3C
:105D70008000A02190FBF1F001280BDD00200AF04B
:105D800015FA00EB8000502101EB8000A02190FB70
:105D9000F1F000E0012004B2224600211148006821
:105DA000183014F0D2FA224600210E48006818304C
:105DB00014F0D7FA224600210A480068183014F07F
:105DC000DCFA2246002107480068183014F0A5FAD2
:105DD0002246002103480068183014F0AAFAFEBDDC
:105DE00078A3002050010020F0B51446032B19D1F0
:105DF0000423082C15D2DFE804F00406080A0C0E70
:105E0000101200240DE002240BE0042409E0062413
:105E100007E0092405E00B2403E00D2401E00F2432
:105E200000BF00BFC1F3CF0201F00701C1F10806B6
:105E3000F11A01269E40761EF5B2865CEF438F4034
:105E40003E408654865C04FA01F73E438654F0BD1A
:105E50007047704710B586B0F7480068343014F0CA
:105E60008BF900221146F4480068343014F085FAAA
:105E700000200AF001FA012816DC00200AF096F949
:105E8000C0EB00105030A02190FBF1F0012809DD9B
:105E900000200AF08BF9C0EB00105030A02190FBDD
:105EA000F1F01BE0012019E000200AF07FF9C0EBBF
:105EB0000010502101EB4000A02190FBF1F00128DF
:105EC0000BDD00200AF072F9C0EB0010502101EB4D
:105ED0004000A02190FBF1F000E0012004B2224636
:105EE0000021D5480068343014F02FFA00200AF061
:105EF000C3F9012816DC00200AF058F9C0EB0010A5
:105F00005030A02190FBF1F0012809DD00200AF0BB
:105F10004DF9C0EB00105030A02190FBF1F01BE0D8
:105F2000012019E000200AF041F9C0EB00105021D7
:105F300001EB4000A02190FBF1F001280BDD0020D7
:105F40000AF034F9C0EB0010502101EB4000A02111
:105F500090FBF1F000E0012004B222460021B64897
:105F60000068343014F0FDF900221146B248006890
:105F7000343014F0D2F900200AF07EF9012816DC42
:105F800000200AF013F9C0EB00105030A02190FB64
:105F9000F1F0012809DD00200AF008F9C0EB00103B
:105FA0005030A02190FBF1F01BE0012019E000200F
:105FB0000AF0FCF8C0EB0010502101EB4000A021DA
:105FC00090FBF1F001280BDD00200AF0EFF8C0EBA8
:105FD0000010502101EB4000A02190FBF1F000E007
:105FE000012004B22246002193480068343014F0A6
:105FF00059F900200AF040F9012816DC00200AF0C7
:10600000D5F8C0EB00105030A02190FBF1F0012832
:1060100009DD00200AF0CAF8C0EB00105030A021C2
:1060200090FBF1F01BE0012019E000200AF0BEF81F
:10603000C0EB0010502101EB4000A02190FBF1F0DB
:1060400001280BDD00200AF0B1F8C0EB0010502150
:1060500001EB4000A02190FBF1F000E0012004B230
:106060002246002174480068343014F00FF9734858
:1060700000680590724890F8200000F0020020B1FE
:10608000704809F0FFFB009001E005980090102196
:106090006948009A0068343014F0E4F966480068F2
:1060A000383014F069F8664890F8200000F00200DB
:1060B00020B1654809F0E6FB009004E040F6EE6090
:1060C00009F0EEFB009000215B48009A0068383030
:1060D00014F0C8F900200AF0CFF8012816DC0020DF
:1060E0000AF064F8C0EB00105030A02190FBF1F0F2
:1060F000012809DD00200AF059F8C0EB00105030EB
:10610000A02190FBF1F01BE0012019E000200AF033
:106110004DF8C0EB0010502101EB4000A02190FB96
:10612000F1F001280BDD00200AF040F8C0EB001070
:10613000502101EB4000A02190FBF1F000E0012094
:1061400004B2224600213C480068383014F0FDF8C3
:1061500000200AF091F8012816DC00200AF026F849
:10616000C0EB00105030A02190FBF1F0012809DDB8
:1061700000200AF01BF8C0EB00105030A02190FB6B
:10618000F1F01BE0012019E000200AF00FF8C0EB4D
:106190000010502101EB4000A02190FBF1F00128FC
:1061A0000BDD00200AF002F8C0EB0010502101EBDB
:1061B0004000A02190FBF1F000E0012004B2224653
:1061C00000211D480068383014F0CBF800200AF098
:1061D00053F8012816DC002009F0E8FFC0EB00109E
:1061E0005030A02190FBF1F0012809DD002009F0DA
:1061F000DDFFC0EB00105030A02190FBF1F026E055
:10620000012024E0002009F0D1FFC0EB0010502154
:1062100001EB4000A02190FBF1F0012816DD0020E9
:1062200009F0C4FFC0EB0010502101EB4000A02199
:1062300090FBF1F00BE0000050010020D8D40208E0
:1062400078A30020888888004F403100012004B2E4
:1062500022460021C5480068383014F05EF8C34873
:106260000068303013F088FF002009F09FFF5021B4
:1062700001EB8000A02190FBF1F0012809DD002056
:1062800009F094FF502101EB8000A02190FBF1F078
:1062900000E0012004B222460021B44800683030FA
:1062A00014F083F8B24800680490B24890F82000D7
:1062B00000F0020020B1B04809F0E4FA009001E0DB
:1062C000049800900121A948009A0068303014F029
:1062D000C9F8A748001D006803902021A348039A2D
:1062E0000068303014F0BEF8A24890F8200000F0AA
:1062F000020008B1332000E06620024601219B48DD
:106300000068303013F04CFF3322102197480068AA
:10631000303013F045FFFF220221944800683030EE
:1063200013F03EFF924808300068029002218F4827
:10633000029A0068303014F095F88E480221C26845
:106340008A480068303013F020FF89480C3000681C
:106350000190884890F8200000F0020020B18748A2
:1063600009F090FA009001E00198009000217F4828
:10637000009A0068303013F008FF7E480121C2689F
:106380007A480068303013F000FF0222012177487C
:106390000068303013F033FF042201217348006895
:1063A000303013F020FF73480121C2686F48006845
:1063B000303013F001FF002009F0F8FE00EB400040
:1063C0005030A02190FBF1F0012809DD002009F0F8
:1063D000EDFE00EB40005030A02190FBF1F000E01A
:1063E000012004B22246002160480068303013F0DA
:1063F000A0FF002009F040FF012816DC002009F072
:10640000D5FEC0EB00105030A02190FBF1F0012828
:1064100009DD002009F0CAFEC0EB00105030A021B9
:1064200090FBF1F01BE0012019E0002009F0BEFE16
:10643000C0EB0010502101EB4000A02190FBF1F0D7
:1064400001280BDD002009F0B1FEC0EB0010502147
:1064500001EB4000A02190FBF1F000E0012004B22C
:106460002246002141480068303013F06EFF0020C2
:1064700009F002FF012816DC002009F097FEC0EBAE
:1064800000105030A02190FBF1F0012809DD002020
:1064900009F08CFEC0EB00105030A02190FBF1F011
:1064A0001BE0012019E0002009F080FEC0EB001085
:1064B000502101EB4000A02190FBF1F001280BDD01
:1064C000002009F073FEC0EB0010502101EB4000EA
:1064D000A02190FBF1F000E0012004B2224600214F
:1064E00022480068303013F03CFF002009F0C4FE61
:1064F000012816DC002009F059FEC0EB00105030D6
:10650000A02190FBF1F0012809DD002009F04EFEEA
:10651000C0EB00105030A02190FBF1F01BE00120F7
:1065200019E0002009F042FEC0EB0010502101EB01
:106530004000A02190FBF1F001280BDD002009F0C4
:1065400035FEC0EB0010502101EB4000A02190FB74
:10655000F1F000E0012004B2224600210348006867
:10656000303013F0DAFE06B010BD000050010020FC
:10657000DCD4020878A300204F4031006666660034
:10658000F8B593480068443013F0F6FD914890F850
:10659000200000F0020088B18E4890F8200000F042
:1065A000020028B140F6AA2009F07AF9009009E02B
:1065B00040F6991009F074F9009003E0864809F05C
:1065C00061F9009000218248009A0068443013F07D
:1065D00049FF7F480068483013F0CEFD002009F0E5
:1065E000E5FD5030A02190FBF1F0012807DD0020EF
:1065F00009F0DCFD5030A02190FBF1F000E001201B
:1066000004B22246002172480068483013F032FE7E
:106610006F48006800F148040025002009F0C6FD1D
:1066200000EB8000502101EB4000A02190FBF1F035
:1066300001280BDD002009F0B9FD00EB800050219E
:1066400001EB4000A02190FBF1F000E0012006B238
:10665000922040EA052132462046FDF715F800BF9A
:106660005B48006800F148040025002009F09EFD09
:1066700000EB8000502101EB4000A02190FBF1F0E5
:1066800001280BDD002009F091FD00EB8000502176
:1066900001EB4000A02190FBF1F000E0012006B2E8
:1066A000932040EA052132462046FCF7EDFF00BF6B
:1066B000484890F8200000F0020020B1474809F057
:1066C000E1F8009003E0464809F0DCF80090002172
:1066D0003F48009A0068483013F0B5FD3C48006818
:1066E0004C3013F049FD002009F060FD00EB400044
:1066F0005030A02190FBF1F0012809DD002009F0C5
:1067000055FD00EB40005030A02190FBF1F000E07F
:10671000012004B2224600212D4800684C3013F0BD
:10672000A9FD002009F042FD502101EB8000A021CD
:1067300090FBF1F0012809DD002009F037FD502120
:1067400001EB8000A02190FBF1F000E0012004B2F9
:10675000224600211E4800684C3013F077FE0020CE
:1067600009F024FD502101EB4000A02190FBF1F045
:10677000012809DD002009F019FD502101EB40003E
:10678000A02190FBF1F000E0012004B2224600219C
:106790000F4800684C3013F0CCFD002009F006FDD6
:1067A0005030A02190FBF1F0012807DD002009F016
:1067B000FDFC5030A02190FBF1F000E0012004B27C
:1067C00022460021024800684C3013F0EEFDF8BD6F
:1067D0005001002078A30020BDADA100E3DDD6006C
:1067E000978A80007CB5CF480068503013F0C4FC15
:1067F000002009F0DBFC502101EB8000A02190FB80
:10680000F1F0012809DD002009F0D0FC502101EB56
:106810008000A02190FBF1F000E0012004B22246AC
:106820000021C0480068503013F0BFFD002009F07F
:10683000BDFC00EB8000502101EB4000A02190FB4B
:10684000F1F001280BDD002009F0B0FC00EB800026
:10685000502101EB4000A02190FBF1F000E001206D
:1068600004B222460021AF480068503013F061FDA9
:10687000AD480021C268AB480068503013F01EFDDF
:1068800000221146A7480068503013F022FD7F22F5
:106890000221A4480068503013F01BFDA24890F874
:1068A000200000F0200008B1002015E0002009F0D1
:1068B0007DFC502101EB4000A02190FBF1F001286C
:1068C00009DD002009F072FC502101EB4000A021FD
:1068D00090FBF1F000E0012004B222460021914833
:1068E0000068503013F00DFD002009F05FFC00EB54
:1068F0008000502101EB4000A02190FBF1F0012825
:106900000BDD002009F052FC00EB8000502101EB70
:106910004000A02190FBF1F000E0012004B22246EB
:10692000002180480068503013F0DFFC002211463F
:106930007C480068503013F0DEFD4C22002179487D
:106940000068503013F0CBFD76480068543013F0E7
:1069500013FC0022022173480068543013F0B9FC84
:10696000002009F023FC502101EB8000A02190FBC6
:10697000F1F0012809DD002009F018FC502101EB9D
:106980008000A02190FBF1F000E0012004B222463B
:10699000002164480068543013F007FD6148006826
:1069A00000F15404012561A66E2040EA052132461B
:1069B0002046FCF739FF00BF5D4800680190594848
:1069C000006800F1540401980090692040EA052114
:1069D0002046009AFCF7F0FD00BF00221146514806
:1069E0000068543013F0D5FCFF2201214D480068A7
:1069F000543013F0CEFC4B48006800F154040025DD
:106A00006C26B42040EA052132462046FCF73CFEC5
:106A100000BF4448006800F154040125424806695B
:106A200048F28E0040EA052132462046FCF7FCFE83
:106A300000BF002009F0BAFB00EB40005030A0215D
:106A400090FBF1F0012809DD002009F0AFFB00EB1D
:106A500040005030A02190FBF1F000E0012004B292
:106A6000224600212F480068543013F06EFC0020AD
:106A700009F09CFB00EB40005030A02190FBF1F0AE
:106A8000012809DD002009F091FB00EB40005030A7
:106A9000A02190FBF1F000E0012004B22246002189
:106AA00020480068543013F05CFC002009F07EFBA5
:106AB00000EB40005030A02190FBF1F0012809DDEF
:106AC000002009F073FB00EB40005030A02190FB48
:106AD000F1F000E0012004B22246002111480068D4
:106AE000543013F04AFC002009F060FB00EB40003A
:106AF0005030A02190FBF1F0012809DD002009F0C1
:106B000055FB00EB40005030A02190FBF1F000E07D
:106B1000012004B22246002102480068543013F0DC
:106B2000FCFB7CBD5001002078A30020EF808C008E
:106B3000F4D4020870B505460C46292C75D2DFE85E
:106B400004F015161B6B3C252AF6528BF520F4F346
:106B5000F2575C3361A266FCF0EF9499F7A7DF7EF1
:106B6000EDEC7545EBB4C9EAD2E9E8008CE100210F
:106B7000284610F012F987E10021284610F00DF99F
:106B800082E10021284610F008F97DE10021284625
:106B900010F003F978E10021284610F0FEF80121F9
:106BA000284610F0FAF86FE10021284610F0F5F8B9
:106BB0000121284610F0F1F866E10021284610F086
:106BC000ECF80121284610F0E8F85DE100212846A4
:106BD00010F0E3F80121284610F0DFF802212846E2
:106BE00010F0DBF850E10021284610F0D6F84BE118
:106BF0000021284610F0D1F846E10021284610F087
:106C0000CCF841E10021284610F0C7F83CE1002112
:106C1000284610F0C2F837E10021284610F0BDF8F0
:106C20000121284610F0B9F82EE12CE10021284678
:106C300010F0B3F80121284610F0AFF824E100214C
:106C4000284610F0AAF80121284610F0A6F80221E3
:106C5000284610F0A2F817E10021284610F09DF810
:106C60004021284610F099F80EE10021284610F046
:106C700094F809E14021284610F08FF84121284678
:106C800010F08BF800E10021284610F086F8FBE0B8
:106C90000021284610F081F84021284610F07DF8A8
:106CA0000121284610F079F8EEE00021284610F086
:106CB00074F84021284610F070F84121284610F061
:106CC0006CF84321284610F068F84221284610F05D
:106CD00064F8D9E00021284610F05FF840212846EA
:106CE00010F05BF8D0E00021284610F056F80121A2
:106CF000284610F052F80221284610F04EF8C3E062
:106D00000021284610F049F80321284610F045F8E4
:106D1000BAE068E056E06BE03FE083E079E007E04E
:106D20009FE017E009E0A1E019E091E028E07EE0B3
:106D30000021284610F031F8A6E00021284610F086
:106D40002CF84021284610F028F80121284610F0A0
:106D500024F899E00021284610F01FF894E0002163
:106D6000284610F01AF84021284610F016F8412164
:106D7000284610F012F84221284610F00EF883E061
:106D80000021284610F009F80121284610F005F8E6
:106D90000221284610F001F876E0002128460FF085
:106DA000FCFF012128460FF0F8FF022128460FF0D2
:106DB000F4FF032128460FF0F0FF042128460FF0CE
:106DC000ECFF61E0002128460FF0E7FF4221284652
:106DD0000FF0E3FF412128460FF0DFFF4021284656
:106DE0000FF0DBFF50E0002128460FF0D6FF4BE00C
:106DF000002128460FF0D1FF042128460FF0CDFFD7
:106E0000032128460FF0C9FF012128460FF0C5FFD6
:106E10003AE0002128460FF0C0FF032128460FF07A
:106E2000BCFF31E0002128460FF0B7FF2CE0002125
:106E300028460FF0B2FF032128460FF0AEFF0121D4
:106E400028460FF0AAFF022128460FF0A6FF1BE0FC
:106E5000002128460FF0A1FF012128460FF09DFFD9
:106E600012E0002128460FF098FF0DE0002128468F
:106E70000FF093FF012128460FF08FFF02212846D3
:106E80000FF08BFF00E000BF00BF70BD37B582B0D0
:106E90001546022D04DCBDF80C10084605B030BDC7
:106EA000BDF80C00C00ABDF8081000EBD1241F2C5F
:106EB00001D2204600E01F20BDF8081060F3CF216A
:106EC0000291BDF80C00C0F34510BDF80810C1F3E5
:106ED000451144183F2C01D2204600E03F20BDF868
:106EE000081060F34A110291BDF80C0000F01F0079
:106EF000BDF8081001F01F0144181F2C01D22046D4
:106F000000E01F20BDF8081060F304010291FF2D7E
:106F100003D1BDF808100846C0E72A46DDE90201A2
:106F200008F0BCFD0190BDF804100846B6E737B57F
:106F300082B01546022D04DCBDF80C10084605B0E1
:106F400030BDBDF80C00C00ABDF80810A0EBD1247C
:106F5000002C01DD204600E00020BDF8081060F3A1
:106F6000CF210291BDF80C00C0F34510BDF8081008
:106F7000C1F34511441A002C01DD204600E0002039
:106F8000BDF8081060F34A110291BDF80C0000F042
:106F90001F00BDF8081001F01F01441A002C01DD8C
:106FA000204600E00020BDF8081060F304010291C3
:106FB000FF2D03D1BDF808100846C0E72A46DDE9D9
:106FC000020108F06BFD0190BDF804100846B6E719
:106FD000704700003EB59C4800683C3013F0CCF888
:106FE000002009F0E3F8C0EB0010502101EB400055
:106FF000A02190FBF1F001280BDD002009F0D6F86C
:10700000C0EB0010502101EB4000A02190FBF1F0FB
:1070100000E0012004B2224600218B4800683C3089
:1070200013F0F1F9FF220021874800683C3013F08B
:10703000B7F8864890F8200000F0020020B184489C
:1070400008F020FC009003E0824808F01BFC009050
:1070500000217D48009A00683C3013F096F800202B
:1070600009F0A4F800EB8000502101EB8000A02182
:1070700090FBF1F001280BDD002009F097F800EB00
:107080008000502101EB8000A02190FBF1F000E096
:10709000012004B2224600216B4800683C3013F006
:1070A00048F947F6FF720021674800683C3013F04A
:1070B0007CF965480068403013F05EF847F6FF72CF
:1070C000002161480068403013F06FF962480068A1
:1070D000029000215C48029A0068403013F055F895
:1070E000FF22002158480068403013F059F802226E
:1070F000002155480068403013F081F85648001DC3
:107100000068019000215048019A0068403013F057
:1071100053F84E480221C2684B480068403013F0D3
:107120004BF84A48C089024604210090464800684E
:10713000403013F041F8002009F038F800EB8001EE
:1071400001EBC0005030A02190FBF1F001280BDDD5
:10715000002009F02BF800EB800101EBC00050305B
:10716000A02190FBF1F000E0012004B222460021B2
:1071700035480068403013F0E8F8002009F016F8B0
:1071800000EB800101EBC0005030A02190FBF1F03A
:1071900001280BDD002009F009F800EB800101EB6C
:1071A000C0005030A02190FBF1F000E0012004B2BB
:1071B0002246002124480068403013F0D2F8002015
:1071C00008F0F4FF00EB800101EBC0005030A0217B
:1071D00090FBF1F001280BDD002008F0E7FF00EB49
:1071E000800101EBC0005030A02190FBF1F000E0E5
:1071F000012004B22246002113480068403013F0F9
:10720000BCF8002008F0D2FF00EB800101EBC000C9
:107210005030A02190FBF1F001280BDD002008F098
:10722000C5FF00EB800101EBC0005030A02190FBB6
:10723000F1F000E0012004B222460021024800687B
:10724000403013F06AF83EBD5001002078A30020C2
:10725000F3EFEA005A4B4400ECD4020838B5444836
:107260000068583012F088FF002008F09FFF00EB04
:107270008000502101EB8000A02190FBF1F001285B
:107280000BDD002008F092FF00EB8000502101EBA5
:107290008000A02190FBF1F000E0012004B2224622
:1072A000002133480068583013F0E8F8012200212B
:1072B0002F480068583012F0AEFF2D4800685C304F
:1072C00012F05AFFFF220021294800685C3012F0BA
:1072D00067FF28480021C268254800685C3012F02A
:1072E00054FF244890F8200000F0020028B140F636
:1072F000FF7008F0D5FA009004E040F6FF7008F047
:10730000CFFA009000211A48009A00685C3013F010
:10731000A9F8184890F8200000F0020020B11648A3
:1073200008F0B0FA009003E0144808F0ABFA0090BF
:1073300010210F48009A00685C3012F026FF0D48BB
:1073400090F8200000F0020020B10D4808F09AFAF1
:10735000009004E06FF07F4008F094FA0090102154
:107360000348009A00685C3013F07CF838BD0000D8
:107370005001002078A30020EEEEEE00574F4900A8
:10738000423E3B002DE9FF4F81B0804616460E9FDE
:107390004FF00009BA46032F01D14FF0040A00BF95
:1073A0003448C0F800803448077000203349087022
:1073B00033490860334908703349087000BF3046CC
:1073C000FAF714FF0546002000900F9818B13046D8
:1073D000FAF70CFF00903146284600F057F80024D9
:1073E00008E02A5D3B4649460298FEF7FDFCD14481
:1073F000601C04B2B442F4DB4FF0010B2DE00F9897
:10740000B0B13146009800F041F800240DE000983A
:10741000005D295D484028552A5D3B464946029853
:10742000FEF7E2FCD144601C04B2B442EFDB10E092
:107430003146284600F02AF8002408E02A5D3B4641
:1074400049460298FEF7D0FCD144601C04B2B44215
:10745000F4DB0BF101000FFA80FB04988345CEDBCF
:107460002846FAF773FF0098FAF770FF05B0BDE8F9
:10747000F08F000060000020640000206700002002
:107480005C000020650000206600002070B5054605
:107490000E46002404E014F071FD2855601C04B26F
:1074A000B442F8DB70BD00000349086000BF024928
:1074B00009680029FBD170470000002004480068DB
:1074C00020B103480068401E014908607047000071
:1074D00000000020F8B506460C4615460095B4F9A4
:1074E0000630B4F90420B4F90210B4F90000F8F73A
:1074F00017FF304608F04AFEF8BD70472DE9F74FF8
:10750000A2B01446207B022802DC25B0BDE8F08F33
:1075100020A8229908F0AAF8B4F91000012828DD63
:10752000207DFD2825DB208818B3BDF88000A17CD4
:10753000C1F38001084400B2ADF88000BDF88200BC
:10754000A17CC1F34001084400B2ADF88200BDF84F
:107550008400A17CC1F3C001401A00B2ADF88400E0
:10756000BDF88600A17C01F00101401A00B2ADF81F
:107570008600267BFD2E00DDFF26FBF77DFC1F909D
:107580001F9808F009FE804620A91DA8239AF9F744
:10759000A3F91C901C9800B9B7E708F1100ABDF8D0
:1075A0007400BAF80010401A00B2ADF87400BDF8CB
:1075B0007600BAF80210401A00B2ADF87600BDF8B5
:1075C0007800BAF80010401A00B2ADF87800BDF8A3
:1075D0007A00BAF80210401A00B2ADF87A001DA87D
:1075E00008F0CFF81B901B98FAF700FE1A90A779C5
:1075F0006088A188884200D100270AF077FA1990A4
:1076000001201890199810B10020189003E0022F63
:1076100001D1002018904FF0FF30179020A808F0FB
:10762000B0F8169020A808F055F81590B4F900505D
:10763000DDE91501814201DA169800E015981490F1
:107640001498B5EB600F01DD14984510189878B1C7
:1076500075B96FB9607B0121CDE900160290608891
:107660000023024620A913902398F9F7ECFAD6E1FB
:10767000002D0ADD00232AB220A90DA80AF088FEF9
:1076800000210DA809F044FF17904FF00109608810
:107690000C9000200B90022F1ED116994800FAF78B
:1076A000A5FD0B900020069011E0069802B21698F6
:1076B00001B2204604F0CEFE059006990B9800EB2F
:1076C0004100BDF8141001800698401C06901699E0
:1076D00006988842E9DB00BF00200A9020A808F045
:1076E00050F8022101FB1500322801DD01200A902B
:1076F000BDF88000ADF81C00BDF88400ADF8200096
:10770000BAF80200BDF87610084400B2ADF81E00C9
:10771000BDF81E00ADF82200BDF976B004E1B8F95D
:107720001200584406900996BDF982002844401C76
:107730000699884220DABDF98600401B401E069952
:10774000884219DD4FF00109189850BB3146DDE938
:107750001A02FAF7C1FFB8F81000BDF874301844E7
:1077600001B2B8F81200584402B21B9803B21A983A
:107770000AF090F9814614E03146DDE91A02FAF781
:10778000ABFFB8F81000BDF87430184401B2B8F877
:107790001200584402B21B9803B21A980AF07AF900
:1077A0008146B9F1020F01D1FF200990012F0DD1BF
:1077B00020A807F08FFF0590BDF882100698401AA8
:1077C00002B22046059904F045FE0C901898002856
:1077D00071D00A9800286ED0BDF982002844401C60
:1077E0000699884206DCBDF98600401B401E0699BA
:1077F000884260DABDF88000ADF81000BDF8800066
:107800002844401E00B2ADF81400BDF81E00ADF8CB
:107810001200BDF82200ADF81600617B0998CDE991
:107820000090029104A91A9B0C9A2398F9F70BFA7D
:10783000012F16D1BDF88000284400B2ADF8100029
:10784000BDF88400401B00B2ADF81400607B01213C
:107850000023CDE90016029004A90C9A2398F9F7A9
:10786000F2F9BDF88400401B401C00B2ADF81000D6
:10787000BDF88400ADF81400B8F91000BDF974101B
:107880000144BDF98400401B401C401A039003983A
:10789000002801DA00200390607B0999CDE900916E
:1078A000029003991A98431804A90C9A2398F9F79F
:1078B000CAF92BE0FFE7022F0BD1607B0999CDE9D4
:1078C0000091029007A91A9B0B9A2398F9F740FAA6
:1078D0001CE0012F0BD1617B0998CDE9009002914A
:1078E00007A91A9B0C9A2398F9F7ADF90EE019989D
:1078F00008B90A9850B9607B0999CDE900910290C6
:1079000007A91A9B0C9A2398F9F79DF9BDF81E0058
:10791000401C00B2ADF81E00BDF82200401C00B2B1
:10792000ADF822000BF1010BBDF97A005845BFF606
:10793000F6AEEFBB1998D8BB0A98C8B3BDF8800063
:10794000284400B2ADF81C00BDF88400401B00B212
:10795000ADF82000BDF88200ADF81E00BDF8820031
:10796000284400B2ADF82200607B0121CDE9001669
:10797000029060880023024607A906902398F9F731
:1079800062F9BDF88600401B00B2ADF81E00BDF9DB
:107990001E00BDF92210884205DCBDF82200401C03
:1079A00000B2ADF81E00BDF88600ADF8220000E080
:1079B0002FE0607B0121CDE9001602906088002352
:1079C000024607A906902398F9F73DF9BDF8800013
:1079D000ADF81C00BDF88400ADF82000BDF88200B1
:1079E0002844401C00B2ADF81E00BDF88600401BC4
:1079F000401E00B2ADF82200607B0121CDE90016E7
:107A0000029060880023024607A906902398F9F7A0
:107A10001AF90B9810B10B98FAF798FC00BF179859
:107A20000AF002FD1A98FAF791FC00BF6DE52DE906
:107A3000F74FA8B006461446207D022802DC2BB082
:107A4000BDE8F08F208A00B9F9E7608A00B9F6E74F
:107A5000A07D00F0010000B1F1E7304607F091FE93
:107A60002790304607F036FE2690B4F90050DDE945
:107A70002601814201DA279800E026982590259872
:107A8000B5EB600F01DD25984510314623A807F0BE
:107A9000EDFDBDF98C10A07C00F0040010B1B4F92C
:107AA000100003E0B4F9100028444042084400B23A
:107AB000ADF88C00BDF99010A07C00F0080010B16A
:107AC000B4F9100003E0B4F9100028444042081A49
:107AD00000B2ADF89000BDF98E10A07C00F002005D
:107AE00010B1B4F9100003E0B4F91000284440428A
:107AF000084400B2ADF88E00BDF99210A07C00F0F1
:107B0000010010B1B4F9100003E0B4F910002844EA
:107B10004042081A00B2ADF89200608A0F2810D1D6
:107B2000607D217DCDE90210E089ADF804000020E0
:107B30000090B4F90030314623A8299A00F016F9D4
:107B400011E1207D22902298FD2801DDFF20229066
:107B5000FBF792F92190219808F01EFB80463146F0
:107B60001FA8299AF8F7B8FE1E901E9800B966E77C
:107B700008F11007BDF87C003988401A00B2ADF852
:107B80007C00BDF87E007988401A00B2ADF87E0016
:107B9000BDF880003988401A00B2ADF88000BDF809
:107BA00082007988401A00B2ADF882001FA807F061
:107BB000E8FD81464846FAF719FB1D904FF0FF306B
:107BC0001C90002D0ADD00232AB2314615A80AF0C8
:107BD000DFFB002115A809F09BFC1C90B4F91000F4
:107BE000281A14901498002801DA00201490208A92
:107BF000281A02B2012323A90DA80AF0C9FB00210B
:107C00000DA809F085FC0C90B4F91000401EA842A4
:107C100001DA284602E0B4F91000401E8246E089ED
:107C20000890607D07903088ADF82400B088ADF8EA
:107C300028007888BDF87E10084400B2ADF8260010
:107C4000BDF82600ADF82A0000200690608A0428BE
:107C500005D13088504400B2ADF828000EE0608AAB
:107C600008280BD1B088A0EB0A0000B2ADF82400C0
:107C7000BDF92400B6F90010401A069000200590C6
:107C80000490608A022801D101200590608A0128B1
:107C900000D10490608A032802D10120059004904D
:107CA0009DF8140020B99DF8100008B9012000E0EB
:107CB00000200390BDF97EB047E09DF80C00A0B90C
:107CC0009DF8140030B1BDF92600B6F902105144F8
:107CD00088420ADD9DF8100048B3BDF92600B6F9C8
:107CE0000610A1EB0A01884221DB49461D98FAF7EC
:107CF00064FDB8F81000BDF87C30184401B2B8F843
:107D00001200584402B20FFA89F31D9809F0C2FE1E
:107D10000B90229A07990B98CDE9012100900699C2
:107D20001D98431809A9089A2998F8F78CFFBDF8FF
:107D30002600401C00B2ADF82600BDF82A00401C09
:107D400000B2ADF82A000BF1010BBDF982005845D5
:107D5000B3DA0C980AF068FB1C980AF065FB1D98D2
:107D6000FAF7F4FA00BF00BF69E670472DE9FF4F4C
:107D7000A9B00C46DDE9389A09F0B8FE2890012038
:107D80002790289808B100202790299807F0F9FC3F
:107D90002690299807F09EFC2590A1882998808834
:107DA000081A0FFA80FB204607F0EBFC24902046CF
:107DB00007F090FC2390369898B12C992291DDE938
:107DC0002521914201DA269900E025990846229959
:107DD000B1EB600F01DD41102291229901EB0B05FF
:107DE00015E02C9DDDE92321914201DA249900E080
:107DF00023990846B5EB600F00DD4510A5EB0B019C
:107E000022912299002901DA0021229100BFFBF77B
:107E100033F82190219808F0BFF9074621461FA8A2
:107E20002B9AF8F759FD1E901E9810B92DB0BDE899
:107E3000F08F07F11008BDF87C00B8F80010401A68
:107E400000B2ADF87C00BDF87E00B8F80210401A10
:107E500000B2ADF87E00BDF88000B8F80010401AFE
:107E600000B2ADF88000BDF88200B8F80210401AE8
:107E700000B2ADF882001FA807F083FC1D9001231B
:107E8000229802B216A829990AF082FA002116A8AF
:107E900009F03EFB159000232AB221460EA80AF0F5
:107EA00077FA00210EA809F033FB0D901D98FAF720
:107EB0009DF90C90ABF10100A84201DA284601E0DF
:107EC000ABF101000B90279800287DD0B4F9020097
:107ED000B8F90210411A0B98084407902088ADF8B1
:107EE0002000A088ADF82400B8F80200BDF87E108C
:107EF000084400B2ADF82200BDF82200ADF826001B
:107F0000BDF97E6078E01D990C98FAF756FC388A26
:107F1000BDF87C30184401B2788A304402B21D9812
:107F200003B20C9809F0B6FD0A90BDF82200ADF836
:107F30001200BDF82600ADF816002088ADF810003C
:107F400020882844401E00B2ADF814000A988DE83D
:107F5000010604A90C9B379A2B98F8F774FEBDF91B
:107F60001600B4F902105944884212DA20882844D5
:107F700000B2ADF81000A088401B00B2ADF81400AC
:107F8000012000238DE8010604A9379A2B98F8F701
:107F90005AFEA088401B401C00B2ADF81000A0881B
:107FA000ADF81400B7F91000BDF97C100144B4F924
:107FB0000400401B401C401A03900398002801DA7B
:107FC000002003900A9800E0E5E08DE8010603999F
:107FD0000C98431804A9379A2B98F8F734FEBDF88B
:107FE0002200401C00B2ADF82200BDF82600401C63
:107FF00000B2ADF82600761C0798864283DDB4F9FE
:108000000600B8F90210411A0B98081A0690DDE92B
:108010000601884202DC0798401C0690B8F802105E
:108020000698084400B2ADF82200BDF82200ADF871
:108030002600069E77E01D990C98FAF7BEFB388A59
:10804000BDF87C30184401B2788A304402B21D98E1
:1080500003B20C9809F01EFD0A902088ADF81000BC
:1080600020882844401E00B2ADF81400BDF822005C
:10807000ADF81200BDF82600ADF816000A988DE89C
:10808000010604A90C9B379A2B98F8F7DCFDBDF983
:108090001600B4F90610A1EB0B01884212DD20880E
:1080A000284400B2ADF81000A088401B00B2ADF823
:1080B0001400012000238DE8010604A9379A2B98AB
:1080C000F8F7C1FDA088401B401C00B2ADF81000BD
:1080D000A088ADF81400B7F91000BDF97C10014478
:1080E000B4F90400401B401C401A03900398002878
:1080F00001DA002003900A988DE8010603990C9894
:10810000431804A9379A2B98F8F79DFDBDF8220073
:10811000401C00B2ADF82200BDF82600401C00B2A1
:10812000ADF82600761CBDF98200B04283DA618882
:108130000B980844401C00B2ADF82200E1880B986F
:10814000081A401E00B2ADF826002088ADF82000C5
:1081500020885844401E00B2ADF8240001200023BE
:108160008DE8010608A9379A2B98F8F76CFDA088CE
:10817000A0EB0B00401C00B2ADF82000A088ADF8C9
:108180002400012000238DE8010608A9379A2B98C6
:10819000F8F759FD40E02088ADF82000A088ADF840
:1081A0002400B8F80200BDF87E10084400B2ADF813
:1081B0002200BDF82200ADF82600BDF97E6027E060
:1081C0001D990C98FAF7F9FA388ABDF87C301844F2
:1081D00001B2788A304402B21D9803B20C9809F0BB
:1081E00059FC0A900A988DE8010608A90C9B379A59
:1081F0002B98F8F728FDBDF82200401C00B2ADF81E
:108200002200BDF82600401C00B2ADF82600761C06
:10821000BDF98200B042D3DA15980AF005F90D983D
:108220000AF002F90C98FAF791F800BFFEE5000099
:108230002DE9FF4F99B007468A461C461B98857A60
:10824000032D00D10425012D06D0022D0BD0042DC5
:1082500010D0082D1DD114E0DFF8E8824FF0800B1C
:108260000220179018E0DFF8E0824FF0C00B0420E6
:10827000179011E0DFF8D4824FF0F00B1020179028
:108280000AE0DFF8CC824FF0FF0B4FF480701790BC
:1082900002E01DB0BDE8F08F00BF2898FD2823DA6A
:1082A000AC4801782898814203D1AB480068A842C5
:1082B00013D000200DE018F80010FF2901D12899F3
:1082C00004E018F80010289A51430912A34A1154E7
:1082D000401C17998842EED300BFDFF880829D4989
:1082E000289808709C4805601B98408814901B983B
:1082F00080881390149868431290B4F90000B84233
:1083000001DC002002E0B4F90000C01B11901498B9
:108310003844B4F90410884201DC149803E0B4F93D
:108320000400C01B401C1090B4F90200504501DC51
:10833000002003E0B4F90200A0EB0A000F901398AC
:108340005044B4F90610884201DC139804E0B4F9F3
:108350000600A0EB0A00401C0E9012990F984843AB
:10836000119901FB05000D9026990D9801EBD000A5
:1083700026900D9800F00706FAF77EFD039007F0AF
:1083800022FF0B90DDE9131041430B98814201DD80
:108390000B9802E0DDE9131048430A900A98F9F7B8
:1083A00025FF8146002009901198384400B2ADF8AD
:1083B0001C0010983844401E00B2ADF820000F9801
:1083C000504400B2ADF81E00BDF81E00ADF822000A
:1083D00009F08CFB0690C5F10800059011991498DE
:1083E00001441098081A684304900F98159084E08F
:1083F000099803902BFA06F018901198169028E02F
:1084000026980078189908400599891BC8400C9057
:108410000C9830B10C9818F80010099809F8001061
:1084200003E00021099809F800100598864204D25B
:108430002E441898E840189005E00026CDF860B06A
:108440002698401C26900998401C09901698401CBC
:108450001690109916988842D2DB0698D8B107A8D2
:1084600007F07AF90190BDF92220BDF91C10039B99
:1084700009EB0300019B09F00DFB0290029848B93B
:1084800007A807F069F90190039909EB0100019928
:10849000FAF75CF900BFDDE91001411A09980144BF
:1084A0000A98814206D2BDF82200401C00B2ADF805
:1084B000220017E0FF21022229984B46CDE9002136
:1084C000029007A92046279AF8F7BDFBBDF82200C5
:1084D000401C00B2ADF81E00BDF81E00ADF8220031
:1084E0000020099004980644269800EBD6002690B8
:1084F00006F007061598401C15900E9915988842AD
:10850000FFF676AFBDF91E00BDF92210884213D0E8
:10851000BDF82200401E00B2ADF82200FF21022269
:1085200029984B46CDE90021029007A92046279AB9
:10853000F8F789FB002009904846F9F707FF00BFCC
:10854000A7E60000E8EF0108EAEF0108F6EF0108EE
:1085500006F001085000002054000020EC2000200C
:108560002DE9FF4F9FB0064688461D462198847A24
:10857000032C00D10424012C06D0022C09D0042C99
:108580000CD0082C14D10EE0FE481E9080201D90C7
:1085900011E0FD481E90C0201D900CE0FB481E908D
:1085A000F0201D9007E0FA481E90FF201D9002E089
:1085B00023B0BDE8F08F00BF219840881990219822
:1085C00080881890199860431790B5F90000B04260
:1085D00001DC002004E0B5F90000801B00EB400046
:1085E00081460321199890FBF1F03044B5F904104D
:1085F000884201DC199805E0B5F90400801B401C95
:1086000000EB40001690B5F90200404501DC002067
:1086100003E0B5F90200A0EB08001590189840445B
:10862000B5F90610884201DC189804E0B5F9060097
:10863000A0EB0800401C149017991598484309FBBB
:10864000040013902C99139801EBE0002C901398E0
:1086500000F00707DDE918104843F02801DDF0219C
:1086600003E0219841888088414310911098F9F7E0
:10867000BDFD82464FF0000B10994800F9F7B6FD9A
:108680000F90FAF7F9FB0E900E9807F085FD0D900C
:108690000D98103007F060F80C900D9880680B90E2
:1086A0000D98B0F91200A8EB00010C9801FB0061D5
:1086B0000D98B0F91000091A0B9800EB41000B90CF
:1086C000032099FBF0F20C99159800FB01210B98FF
:1086D00000EB41000B90032099FBF0F0304400B216
:1086E000ADF824000321169890FBF1F03044401EB1
:1086F00000B2ADF828001598404400B2ADF826004D
:10870000BDF82600ADF82A0009F0F0F90890BDF890
:10871000B400C00A8DF81800BDF8B400C0F34510CD
:108720008DF81900BDF8B40000F01F008DF81A0094
:1087300015981A901DE1002005901D98F8401C9096
:10874000CDF810B0CDF86C90AEE02C9800781C9964
:108750000840C7F10801091BC84012901298D0B117
:108760002E98FF2808D1082C01D1129802E0129906
:108770001E98405C119010E0082C04D12E9912989C
:108780004843000A05E012991E98405C2E99484320
:10879000000A119001E00020119007AA0599119894
:1087A00050540598401C0590059803286AD1002074
:1087B00005900B980088C00A8DF808000B98008877
:1087C000C0F345108DF809000B98007800F01F00E9
:1087D0008DF80A009DF818009DF81C1010FB01F0A0
:1087E0009DF808109DF81C20C2F1FF0211FB020049
:1087F000010ABDF80C0061F3CF2003909DF81A0028
:108800009DF81E1010FB01F19DF80A009DF81E2036
:10881000C2F1FF0210FB0210010ABDF80C0061F367
:10882000040003909DF819009DF81D1010FB01F045
:108830009DF809109DF81D20C2F1FF0211FB0200F6
:10884000010ABDF80C0061F34A1003909DF81C006A
:1088500048B99DF81D0030B99DF81E0018B90020D8
:108860000AF80B0002E0FF200AF80B000F9800EB5B
:108870004B00BDF80C1001800BF1010B0B98801C14
:108880000B9000BFC4F10800B84204DD27441C98D7
:10889000E0401C9005E000271D981C902C98401C7F
:1088A0002C901B98401C1B9016991B988842FFF631
:1088B0004CAF0898D8B109A806F04EFF0290BDF958
:1088C0002A20BDF92410049B0AEB0300029B09F047
:1088D000E1F80390039848B909A806F03DFF02901B
:1088E00004990AEB01000299F9F730FF00BF1698CE
:1088F000A0EB090000EB0B011098814206DABDF8ED
:108900002A00401C00B2ADF82A0017E00222DDE97F
:108910002E105346CDE90021029009A928460F9A4E
:10892000F8F716FABDF82A00401C00B2ADF8260090
:10893000BDF82600ADF82A004FF0000B16991998E3
:10894000401A484400FB04772C9800EBE7002C9079
:1089500007F007071698A0EB0900032190FBF1F13F
:108960000C98411A0B9800EB41000B901A98401C90
:108970001A9014991A988842FFF6DDAEBDF92600C8
:1089800008E00000E8EF0108EAEF0108F6EF01084F
:1089900006F00108BDF92A10884211D0BDF82A005E
:1089A000401E00B2ADF82A000222DDE92E10534627
:1089B000CDE90021029009A928460F9AF8F7C8F9D5
:1089C0005046F9F7C3FC0F98F9F7C0FC00BFEFE57C
:1089D0002DE9FF4F93B005460F461C46207A1290B2
:1089E000FAF74AFA1190119807F0D6FB814609F17F
:1089F0001006B4F90200401E1090109840100F901D
:108A0000109800F001010F9808440E90E08818B10A
:108A1000A08808B1012000E000200D9001200C90FA
:108A200009F064F810B100200C9003E00D9808B133
:108A300000200C90B5F90000B7F90010884202DA66
:108A4000B5F9000001E0B7F90000ADF82800B5F96C
:108A50000000B7F90010884202DDB5F9000001E01E
:108A6000B7F90000401E00B2ADF82C0069880E98DE
:108A7000081A00B2ADF82A0069880F98084400B2BD
:108A8000ADF82E000C9880B1607A00F0030001224E
:108A90001299CDE9002102902088002302460AA9FC
:108AA00009901598F8F7CFF8C0E00AAA0AA8159916
:108AB000F7F712FF0990099810B917B0BDE8F08FC9
:108AC000BDF828003188401A00B2ADF82800BDF882
:108AD0002A007188401A00B2ADF82A00BDF82C00B7
:108AE0003188401A00B2ADF82C00BDF82E00718814
:108AF000401A00B2ADF82E000AA806F034FE8046F7
:108B0000BDF828003188084400B2ADF81C00BDF85B
:108B10002C003188084400B2ADF82000BDF82A00CE
:108B20007188084400B2ADF81E00BDF81E00ADF813
:108B30002200002006900D9878B1B9F91000BDF917
:108B400028100844B4F90610B4F90420114490FB2D
:108B5000F1F201FB120000B206904046F9F746FB25
:108B60008246BDF92AB059E041465046F9F725FE44
:108B7000B9F81000BDF82830184401B2B9F8120055
:108B8000584402B20FFA88F3504608F083FF05906C
:108B90000D9828B3059818B3069800211BE0B4F986
:108BA0000420824207DBA3881B1A1AB28B1819B261
:108BB000831818B20BE0B4F90620B4F904301A4453
:108BC000824201DC002002E000220AF801204A1C57
:108BD00011B2421C10B24145E1DB0222059200BFF6
:108BE000607A00F00300217A059ACDE90021029015
:108BF00020885346024607A904901598F8F723F8F1
:108C0000BDF81E00401C00B2ADF81E00BDF82200E9
:108C1000401C00B2ADF822000BF1010BBDF92E0093
:108C20005845A1DA5046F9F791FB00BF00BF44E771
:108C30002DE9FF4FC7B083461E46BBF90210489886
:108C4000B0F90200814210DABBF80200ADF81A0157
:108C500048984088ADF81601BBF80000ADF818013F
:108C600048980088ADF814010FE048984088ADF8A6
:108C70001A01BBF80200ADF8160148980088ADF85B
:108C80001801BBF80000ADF81401BDF91401BDF9DD
:108C90001811441ABDF91601BDF91A11471A002C12
:108CA00001DD204600E06042002F01DD394600E092
:108CB0007942884201DD012000E000204490B6F9AD
:108CC000028000204390449870B1002F01DD3846A7
:108CD00000E078424101002C01DD204600E06042C6
:108CE00091FBF0F043900DE0002C01DD204600E008
:108CF00060424101002F01DD384600E0784291FBDF
:108D0000F0F04390FC494398085C00FB08F03F30CA
:108D10004FEAE0184FEA680908F0010000EB090A81
:108D2000BDF91801BDF91411884202DABDF9180124
:108D300001E0BDF91401A0EB080000B2ADF8040198
:108D4000BDF91801BDF91411884202DDBDF9180101
:108D500001E0BDF91401404400B2ADF80801BDF9CD
:108D60001A01BDF91611884202DABDF91A0101E0B3
:108D7000BDF91601A0EB080000B2ADF80601BDF97F
:108D80001A01BDF91611884202DDBDF91A0101E090
:108D9000BDF91601404400B2ADF80A0141A941A84D
:108DA000499AF7F799FD4090409810B94BB0BDE84B
:108DB000F08F4498F0B3002C26DD0021BDF8160199
:108DC000A0EB090000B2CDE90001BDF91431BDF8F6
:108DD0001A01A0EB090002B2BDF9181135A808F07C
:108DE00051FF0121BDF81601504400B2CDE9000148
:108DF000BDF91431BDF81A01504402B2BDF9181181
:108E00002AA808F03FFF4EE00021BDF816015044AB
:108E100000B2CDE90001BDF91431BDF81A0150448A
:108E200002B2BDF9181135A808F02CFF0121BDF8D8
:108E3000160100E011E0A0EB090000B2CDE900014D
:108E4000BDF91431BDF81A01A0EB090002B2BDF959
:108E500018112AA808F016FF25E00021BDF9160117
:108E6000CDE90001BDF81401504403B2BDF91A2147
:108E7000BDF81801504401B235A808F003FF0121E4
:108E8000BDF91601CDE90001BDF81401A0EB090000
:108E900003B2BDF91A21BDF81801A0EB090001B217
:108EA0002AA808F0EFFE002135A808F031FB139046
:108EB00000212AA808F02CFB12904FF0FF301190EF
:108EC0001090707AC0F3001068BB0321BDF81A013E
:108ED000204400B2CDE90001BDF81801C01B03B267
:108EE000BDF91A21BDF918111FA808F0CBFE022107
:108EF000BDF81601204400B2CDE90001BDF814010F
:108F0000C01B03B2BDF91621BDF9141114A808F055
:108F1000B9FE00211FA808F0FBFA1190002114A847
:108F200008F0F6FA1090F9F7A7FF0F900F9807F0E6
:108F300033F90E900E9800F11005BDF80401298850
:108F4000401A00B2ADF80401BDF806016988401A64
:108F500000B2ADF80601BDF808012988401A00B238
:108F6000ADF80801BDF80A016988401A00B2ADF8F1
:108F70000A0141A806F0F7FB0D900F9807F023F9BE
:108F80000B9041A806F0BBFB01460B98814203D22F
:108F900041A806F0B4FB00E00B980A900A98F9F794
:108FA00025F90990BDF804012988084400B2ADF8FC
:108FB0001C00BDF808012988084400B2ADF8200063
:108FC000BDF806016988084400B2ADF81E00BDF87E
:108FD0001E00ADF822000E98B0F91000BDF9041182
:108FE0000844069000200590DDE90901F9F7E5FB4A
:108FF000BDF90601B5F9021008440C9047E0059A46
:10900000099988180D990BB20C990AB2069909B200
:1090100008F040FD0490049828B9059A0999881829
:109020000D99F9F793FB0D990598084405900D9952
:10903000059801440A98814206D2BDF82200401CDE
:1090400000B2ADF822001FE0707A00F00300317A20
:109050000222CDE90021029030880390024607A841
:10906000099B4999F7F7EFFDBDF82200401C00B2BB
:10907000ADF81E00BDF81E00ADF8220000200590DE
:10908000DDE90901F9F799FB0C98401C0C90BDF93A
:109090000A01B5F9021001440C988142AFDABDF91A
:1090A0001E00BDF92210884215D0BDF82200401ED6
:1090B00000B2ADF82200707A00F00300317A02228B
:1090C000CDE90021029030880490024607A8099B50
:1090D0004999F7F7B8FD0998F9F738F9139809F0A5
:1090E000A3F9129809F0A0F9119809F09DF91098C8
:1090F00009F09AF900BF59E60AF101082DE9F04F8D
:1091000095B006460F4693461C46207A1490F9F710
:10911000B3FE1390139807F03FF8054605F11000D1
:109120001290B4F90200401E119011984010109056
:10913000119800F00101109808440F90E08818B1D0
:10914000A08808B1012000E000200E9001200D90C1
:1091500008F0CCFC10B100200D9003E00E9808B18F
:1091600000200D9031880F98081A00B2ADF82C003D
:1091700031881098084400B2ADF83000B6F902000A
:10918000B7F90210884202DAB6F9020001E0B7F935
:109190000200ADF82E00B6F90200B7F902108842BD
:1091A00002DDB6F9020001E0B7F90200401E00B28C
:1091B000ADF832000D9880B1607A00F00300012212
:1091C0001499CDE9002102902088002302460BA9C2
:1091D0000A905846F7F737FDB0E00BAA59460BA89E
:1091E000F7F77AFB0A900A9810B915B0BDE8F08F2E
:1091F000BDF82C00298A401A00B2ADF82C00BDF849
:109200002E10688A081A00B2ADF82E00BDF83000A2
:10921000298A401A00B2ADF83000BDF83210688AD1
:10922000081A00B2ADF832000BA806F09CFA80468E
:10923000BDF82C1012980088084400B2ADF8200048
:10924000BDF8301012980088084400B2ADF8240030
:10925000BDF82E1012984088084400B2ADF82200E4
:10926000BDF82200ADF826004046F8F7BFFF079092
:10927000002006900E9878B1B5F91200BDF92E10B5
:109280000844B4F90610B4F90420114490FBF1F23B
:1092900001FB120000B20690DDF81890BDF92EA077
:1092A00044E041460798F9F788FA288ABDF82C303F
:1092B000184401B2688A504402B20FFA88F3079842
:1092C00008F0E8FB05900E98A0B1059870B1B4F9CC
:1092D0000400484501DA00200590B4F90600B4F90D
:1092E00004100844484501DC4FF0000909F1010071
:1092F0000FFA80F90022207A0599CDE90102009148
:1093000020880490024608A95846079BF7F79BFC63
:10931000BDF82200401C00B2ADF82200BDF82600C6
:10932000401C00B2ADF826000AF1010ABDF9320076
:109330005045B6DA0798F9F709F800BF00BF54E7BF
:109340002DE9F04389B0074688461446A07F0228DD
:1093500002DC09B0BDE8F083608B00B9F9E794F84E
:109360001E90B9F1FD0F01DD4FF0FF09394607A846
:1093700006F07CF9A08B18B9B4F91C00401E01E07E
:10938000B4F91C0005B2BDF81C00401B00B2ADF8DA
:109390001C00BDF81E00401B00B2ADF81E00BDF859
:1093A0002000284400B2ADF82000BDF82200284477
:1093B00000B2ADF8220007A905A806F057F9A08B66
:1093C00018B9B4F91A00401C01E0B4F91A0006B249
:1093D000BDF81400801B00B2ADF81400BDF81800F1
:1093E000304400B2ADF81800BDF81600801B00B282
:1093F000ADF81600BDF81A00304400B2ADF81A00FE
:10940000E07FA17FCDE90210208BADF804000120A0
:109410000090B4F90030424605A907A8FEF7A6FC63
:1094200000BF96E72DE9F74F9AB007461446E06A69
:1094300010B91DB0BDE8F08F94F83600022800DCAA
:10944000F7E7E06A0BF086FA8046B8F1010F02D028
:10945000B8F1000F1CD103A9E06A0BF0DFF88146D8
:10946000B9F1010F00D0E4E70398C0F38A2603980E
:10947000450D16A807F09CF894F836008DF85800B2
:1094800094F837008DF86200A08EADF8640029E0F2
:10949000B8F1020F1FD10DA807F0B8FBA08EADF8F0
:1094A0003400206B0F9094F836008DF840000021B6
:1094B00047F61842BDF94200CDE901210090BDF9FF
:1094C00044300F9A03A8E16AFAF7D4FABDF90C60A8
:1094D000BDF90E5006E000231A4638461B9907F0E6
:1094E00041F8A6E706B105B9A3E794F8380000F003
:1094F000010000287DD0B4F900200023394604A8DB
:1095000008F046FF002104A808F002F8039038464E
:1095100006F037F98346384606F033F990FBF6F04B
:1095200000FB16BA0AEBDA704FEA6009384606F01B
:10953000D1F88346384606F0CDF890FBF5F000FBF5
:1095400015BA0AEBDA704010029079880298081A6E
:1095500000B2ADF82E00BDF82E002844401E00B227
:10956000ADF832003DE03888A0EB090000B2ADF85C
:109570002C00BDF82C003044401E00B2ADF8300085
:109580001DE0B8F1020F08D1002000900DAAE36A97
:109590000BA81B9907F01EF805E016ABE26A0BA8B2
:1095A0001B9906F0DFFFBDF82C00304400B2ADF887
:1095B0002C00BDF83000304400B2ADF83000BDF9E9
:1095C0002C00B7F904108842DBDDBDF82E002844DA
:1095D00000B2ADF82E00BDF83200284400B2ADF85C
:1095E0003200BDF92E00B7F906108842BBDD0398A2
:1095F00000E002E008F018FF68E0384606F0C1F825
:109600008346384606F066F88146ABEB060000EB71
:10961000D0713A8802EB610109B2ADF82C10A9EBC8
:10962000050000EBD0717A8802EB610109B2ADF858
:109630002E10BDF82C003044401E00B2ADF83000B2
:10964000BDF82E002844401E00B2ADF83200B8F13B
:10965000020F10D1A9EB050101F00100BDF82E1099
:10966000014409B2ADF82E10BDF83210014409B220
:10967000ADF8321000BF4FF0FF3AB4F90020394680
:109680000BA8F7F76AF958B9B4F900200023394656
:1096900004A808F07DFE002104A807F039FF8246E7
:1096A000B8F1020F08D1002000900DAAE36A0BA8C0
:1096B0001B9906F08FFF05E016ABE26A0BA81B9919
:1096C00006F050FF504608F0AFFE00BF00BFB0E606
:1096D0007CB50446608900284FD1A08900284CD170
:1096E000E0882189884248DAE18808B2FAF710F95F
:1096F000B4F90410B4F90E20891A4843618801EBCB
:10970000E03000B2ADF80200E1885A3108B2FAF751
:10971000FFF8A18810FB01F0218801EBE03000B2D6
:10972000ADF80400218908B2FAF7F2F8A18810FB1D
:1097300001F0618801EBE03000B2ADF8060021894C
:109740005A3108B2FAF7E4F8B4F90410B4F90E206B
:10975000891A4843218801EBE03000B2ADF80000DF
:1097600069466846A269F7F7B7F8054625B1694624
:10977000D4E9042008F06AFEACE0608910B1A08949
:1097800000286CD1608998BB2088ADF80000608803
:10979000A188084400B2ADF80600E18808B2FAF7E3
:1097A000B7F8B4F90410B4F90E20891A4843618857
:1097B00001EBE03000B2ADF80200E1885A3108B2A6
:1097C000FAF7A6F8A18810FB01F0218801EBE03040
:1097D00000B2ADF8040069466846A269F7F77CF864
:1097E000054625B16946D4E9042008F02FFE00BFE4
:1097F000A08900286ED12088A188084400B2ADF865
:1098000004006088ADF80200218908B2FAF780F8F8
:10981000A18810FB01F0618801EBE03000B2ADF8E7
:10982000060021895A3108B2FAF772F8B4F9041027
:10983000B4F90E20891A4843218801EBE03000B2C8
:10984000ADF8000069466846A269F7F745F8054695
:1098500025B16946D4E9042008F0F8FD3AE06089B2
:10986000A189884205D1608918B12089E1888842A0
:1098700011DB6089022802D1A08901280BD0608900
:10988000032802D1A089022805D06089032821D1AC
:10989000A08901281ED12088ADF800006088ADF8AD
:1098A00002002088A188084400B2ADF80400608856
:1098B000A188084400B2ADF8060069466846A2696E
:1098C000F7F70AF8054625B16946D4E9042008F0FF
:1098D000BDFD00BF7CBD7CB50446608901284FD129
:1098E000A08901284CD1E0882189884248DAE188A2
:1098F00008B2FAF70DF8A18810FB01F0618801EBBE
:10990000E03000B2ADF80600E1885A3108B2F9F74C
:10991000FFFFB4F90410B4F90E20891A48432188D6
:1099200001EBE03000B2ADF80400218908B2F9F78C
:10993000EFFFB4F90410B4F90E20891A4843618886
:1099400001EBE03000B2ADF8020021895A3108B2D3
:10995000F9F7DEFFA18810FB01F0218801EBE03070
:1099600000B2ADF8000069466846A269F6F7B4FF98
:10997000054625B16946D4E9042008F067FDB2E048
:109980006089012802D0A089012870D1608901284E
:1099900033D12088A188401A00B2ADF80000608859
:1099A000ADF80200E18808B2F9F7B2FFA18810FB18
:1099B00001F0618801EBE03000B2ADF80600E1880B
:1099C0005A3108B2F9F7A4FFB4F90410B4F90E2023
:1099D000891A4843218801EBE03000B2ADF8040059
:1099E00069466846A269F6F777FF054625B16946DC
:1099F000D4E9042008F02AFD00BFA089012872D113
:109A00002088401E00B2ADF804006088A188084498
:109A100000B2ADF80600218908B2F9F779FFB4F970
:109A20000410B4F90E20891A4843618801EBE03034
:109A300000B2ADF8020021895A3108B2F9F768FF87
:109A4000A18810FB01F0218801EBE03000B2ADF8F5
:109A5000000069466846A269F6F73EFF054625B153
:109A60006946D4E9042008F0F1FC3CE0FFE7608996
:109A7000A189884206D16089012803D02089E18824
:109A800088420FDB608910B9A08902280AD060895A
:109A900010B9A089032805D06089032823D1A089A3
:109AA000022820D12088A188401A00B2ADF8000019
:109AB0006088ADF802002088401E00B2ADF80400B6
:109AC0006088A188084400B2ADF80600694668467F
:109AD000A269F6F701FF054625B16946D4E90420DD
:109AE00008F0B4FC00BF7CBD7CB504466089022848
:109AF0004FD1A08902284CD1E0882189884248DAD8
:109B0000E1885A3108B2F9F703FFA18810FB01F090
:109B1000218801EBE03000B2ADF80000E18808B226
:109B2000F9F7F6FEB4F90410B4F90E20891A484387
:109B3000618801EBE03000B2ADF80600218908B27F
:109B4000F9F7E6FEA18810FB01F0618801EBE03037
:109B500000B2ADF8020021895A3108B2F9F7D8FEF7
:109B6000B4F90410B4F90E20891A4843218801EB96
:109B7000E03000B2ADF8040069466846A269F6F725
:109B8000ABFE054625B16946D4E9042008F05EFC29
:109B9000B6E06089022802D0A089022872D16089CB
:109BA000022835D12088401E00B2ADF8040060883C
:109BB000A188401A00B2ADF80200E1885A3108B21B
:109BC000F9F7A6FEA18810FB01F0218801EBE03037
:109BD00000B2ADF80000E18808B2F9F799FEB4F9D7
:109BE0000410B4F90E20891A4843618801EBE03073
:109BF00000B2ADF8060069466846A269F6F76CFE49
:109C0000054625B16946D4E9042008F01FFC00BFD1
:109C1000A089022874D12088A188401A00B2ADF82A
:109C200000006088401E00B2ADF8060021895A315C
:109C300008B2F9F76DFEB4F90410B4F90E20891AD0
:109C40004843218801EBE03000B2ADF804002189DF
:109C500008B2F9F75DFEA18810FB01F0618801EB05
:109C6000E03000B2ADF8020069466846A269F6F736
:109C700033FE054625B16946D4E9042008F0E6FB29
:109C80003EE0FFE76089A189884206D16089022809
:109C900003D02089E18888420FDB608910B9A08950
:109CA00003280AD06089012802D1A089032804D0A2
:109CB0006089012824D1A08910BB2088A188401A7E
:109CC00000B2ADF800006088A188401A00B2ADF87B
:109CD00002002088401E00B2ADF804006088401EDB
:109CE00000B2ADF8060069466846A269F6F7F4FDD1
:109CF000054625B16946D4E9042008F0A7FB00BF5A
:109D00007CBD7CB50446608903284FD1A089032817
:109D10004CD1E0882189884248DAE1885A3108B27A
:109D2000F9F7F6FDB4F90410B4F90E20891A484386
:109D3000218801EBE03000B2ADF80000E18808B204
:109D4000F9F7E6FDA18810FB01F0618801EBE03036
:109D500000B2ADF8020021895A3108B2F9F7D8FDF6
:109D6000A18810FB01F0218801EBE03000B2ADF8D2
:109D70000400218908B2F9F7CBFDB4F90410B4F955
:109D80000E20891A4843618801EBE03000B2ADF83B
:109D9000060069466846A269F6F79EFD054625B1AC
:109DA0006946D4E9042008F051FBB2E06089032839
:109DB00002D0A089032870D16089032835D120887A
:109DC000A188084400B2ADF804006088401E00B2CB
:109DD000ADF80600E1885A3108B2F9F799FDB4F9F7
:109DE0000410B4F90E20891A4843218801EBE030B1
:109DF00000B2ADF80000E18808B2F9F789FDA1884A
:109E000010FB01F0618801EBE03000B2ADF8020018
:109E100069466846A269F6F75FFD054625B16946C1
:109E2000D4E9042008F012FB00BFA089032870D1F8
:109E30002088ADF800006088A188401A00B2ADF813
:109E4000020021895A3108B2F9F762FDA18810FB9E
:109E500001F0218801EBE03000B2ADF80400218967
:109E600008B2F9F755FDB4F90410B4F90E20891AB7
:109E70004843618801EBE03000B2ADF80600694666
:109E80006846A269F6F728FD054625B16946D4E97A
:109E9000042008F0DBFA3CE0FFE76089A1898842F2
:109EA00006D16089032803D02089E18888420FDB2E
:109EB0006089022801D1A08950B16089012801D1AF
:109EC000A08928B16089022823D1A089012820D146
:109ED0002088ADF800006088A188401A00B2ADF873
:109EE00002002088A188084400B2ADF80400608810
:109EF000401E00B2ADF8060069466846A269F6F752
:109F0000EBFC054625B16946D4E9042008F09EFA29
:109F100000BF7CBD17B5B1B03398408C08B934B0E0
:109F200010BD339890F82A00022800DCF7E7339838
:109F3000408C01280BD13398808C40B93398C08C69
:109F400028B93398B0F92800002800DCE7E73398F7
:109F5000B0F922003090319801883398808C014408
:109F60003398008D081A00B2ADF8B8003198818896
:109F70003398808C01443398008D084400B2ADF8CA
:109F8000BC00319841883398C08C01443398008DCF
:109F9000081A00B2ADF8BA003198C1883398C08C65
:109FA00001443398008D084400B2ADF8BE003098EB
:109FB000099000EBD070BDF8B810A1EB6000401E16
:109FC00000B2ADF8B0003098099000EBD070BDF849
:109FD000BC1001EB6000401C00B2ADF8B40030983A
:109FE000099000EBD070BDF8BA10A1EB6000401EE4
:109FF00000B2ADF8B2003098099000EBD070BDF817
:10A00000BE1001EB6000401C00B2ADF8B600339802
:10A0100090F82A002B902B98FD2801DDFF202B9033
:10A02000F8F72AFF2A902A9806F0B6F829902CA96A
:10A0300027A8329AF6F750FC2690269800B96EE7CA
:10A04000299810302590BDF89C1025980088081A92
:10A0500000B2ADF89C00BDF89E1025984088081A03
:10A0600000B2ADF89E00BDF8A01025980088081A2F
:10A0700000B2ADF8A000BDF8A21025984088081ADB
:10A0800000B2ADF8A20023A8319905F0EFFABDF8AF
:10A090008C00401C00B2ADF88C00BDF88E00401C56
:10A0A00000B2ADF88E00BDF89000401E00B2ADF8D1
:10A0B0009000BDF89200401E00B2ADF892003398B7
:10A0C000B0F90000229023A805F05BFB044623A80A
:10A0D00005F000FB844203DA23A805F052FB02E0FE
:10A0E00023A805F0F7FA2190DDE92101B1EB600F1B
:10A0F00002DD2198401022903398B0F900002090A2
:10A100002EA805F03EFB04462EA805F0E3FA844293
:10A1100003DA2EA805F035FB02E02EA805F0DAFAE6
:10A120002190DDE92001B0EB610F02DD21984010A4
:10A1300020902099309808441F901F984043400079
:10A140000990F8F753F81E903398B0F9220009905F
:10A15000209803B22EA8099A1E9912F0CDF82CA8C7
:10A1600005F0B8FA099000EBD070BDF8B21001EB21
:10A17000600000B21D902CA805F003FB099000EBD5
:10A18000D070BDF8B01001EB600000B21C9001204F
:10A190001B9007F0ABFC002802DD00201B900DE0B7
:10A1A0003398808C10B93398C08C10B100201B906C
:10A1B00004E03398008D08B100201B902CA805F016
:10A1C000E0FA0990F8F712F819900123229802B2E8
:10A1D00023A912A808F0DCF8002112A807F098F9CA
:10A1E0001190BDF8B400ADF84000BDF840101F98C4
:10A1F000081A401C00B2ADF83C00BDF8B200ADF842
:10A200003E00BDF83E101F980844401E00B2ADF855
:10A2100042000FA90BA8329AF6F75EFB0A900A9843
:10A2200000287DD0229802B223A90FA8F6F795FB4B
:10A2300000287CD1BDF932101D98814202DD1D98A5
:10A24000ADF83200BDF92C101C98814204DC1C983A
:10A25000401C00B2ADF82C000BA805F03BFA0990A9
:10A260000BA805F08EFA0890089800285EDDBDF96D
:10A270002C00BDF93C10411A1E9808440D90BDF900
:10A280002E10BDF93E000A1A1F990D9801FB02001D
:10A290000D900BA906A805F0E9F9BDF81A00ADF874
:10A2A0001E0000200E903AE0089A0D991998F8F7D0
:10A2B0009BF8BDF91A000590BDF9180004900146FD
:10A2C000089B059A199807F0E5FB1A901A9801283F
:10A2D00001D102201A90339890F82B002B9A1A99EA
:10A2E000CDE9001202903398008C0590024606A931
:10A2F000199B3298F6F7A7FCBDF81A00401C00B273
:10A30000ADF81A00BDF81E00401C00B2ADF81E00EA
:10A310001F990D9808440D900E98401C0E9000E077
:10A3200005E009990E988842BEDB00BF00BFBDF86A
:10A33000B400ADF84000BDF840101F98081A401C4A
:10A3400000B2ADF83C00BDF8B6101F98081A401CCA
:10A3500000B2ADF83E00BDF8B600ADF842000FA95E
:10A360000BA8329AF6F7B8FA0A900A9800287DD01E
:10A37000229802B223A90FA8F6F7EFFA00287ED19F
:10A38000BDF92E101D98814204DC1D98401C00B2BE
:10A39000ADF82E00BDF92C101C98814204DC1C98ED
:10A3A000401C00B2ADF82C000BA805F093F9099001
:10A3B0000BA805F0E6F90890089800285EDDBDF9C5
:10A3C0002C00BDF93C10411A1E9808440D90BDF9AF
:10A3D0004200BDF93210421A1F990D9801FB02008C
:10A3E0000D900BA906A805F041F9BDF81E00ADF8C7
:10A3F0001A0000200E903CE0089A0D991998F7F782
:10A40000F3FFBDF91A000590BDF91800049001464C
:10A41000089B059A199807F03DFB1A901A98012895
:10A4200001D102201A90339890F82B002B9A1A9998
:10A43000CDE9001202903398008C0590024606A9DF
:10A44000199B3298F6F7FFFBBDF81A00401E00B2C8
:10A45000ADF81A00BDF81E00401E00B2ADF81E0097
:10A460001F990D9808440D900E9800E007E0401CDD
:10A470000E9009990E988842BEDB00BF00BFBDF860
:10A48000B400ADF84000BDF840101F98081A401CF9
:10A4900000B2ADF83C00BDF8B2101F98084400B2FD
:10A4A000ADF83E00BDF8B6101F98081A00B2ADF81E
:10A4B00042000FA90BA8329AF6F70EFA0A900A98F2
:10A4C00000287DD0229802B223A90FA8F6F745FAFA
:10A4D00000287DD11B9870B1BDF92C103198B0F9CE
:10A4E0000400814202DDBDF92C0002E03198B0F990
:10A4F0000400ADF82C000BA805F043F90990099869
:10A50000002864DD0BA805F0E5F808901F98401EB0
:10A51000DDE91E1202FB00100D90BDF92C10BDF9F3
:10A520003C00091A0D9808440D900BA906A805F0E7
:10A530009DF8BDF81A00ADF81E0001201A90002009
:10A540000E903FE0099A0D991998F7F74DFF1B9867
:10A5500010B102201A9011E0BDF91A000590BDF962
:10A56000180004900146099B059A199807F092FA81
:10A570001A901A98012801D102201A90339890F865
:10A580002B00339991F82A101A9ACDE900210290F4
:10A590003398008C0590024606A9199B3298F6F76D
:10A5A00052FBBDF81A00401C00B2ADF81A00BDF80D
:10A5B0001E00401C00B2ADF81E000E98401C00E0CA
:10A5C00006E00E9008990E988842BBDB00BF00BFE2
:10A5D0001E980D9000200E9028E00020099016E0B3
:10A5E00009990D98405C089009991F98401A401EDF
:10A5F0000D990A5C084609994254DDE908021F9941
:10A60000891A491E0D9A50540998401C09901F98A8
:10A6100000EBD07108900998B0EB610FE0DB1F9957
:10A620000D9808440D900E98401C0E901F990E989E
:10A630008842D2DBBDF8B000ADF83C00BDF83C105C
:10A640001F980844401E00B2ADF84000BDF8B200AB
:10A65000ADF83E00BDF83E101F980844401E00B201
:10A66000ADF842000FA90BA8329AF6F735F90A9017
:10A670000A9800287ED0229802B223A90FA8F6F7E4
:10A680006CF900287AD1BDF932101D98814202DDA3
:10A690001D98ADF83200BDF930101C98814202DDE2
:10A6A0001C98ADF830000BA805F014F809900BA821
:10A6B00005F067F80890089800285EDDBDF92C00C9
:10A6C000BDF93C10411A1E9808440D90BDF92E00AA
:10A6D000BDF93E10421A1F990D9801FB02000D9022
:10A6E0000BA906A804F0C2FFBDF81A00ADF81E00C1
:10A6F00000200E903AE0089A0D991998F7F774FE29
:10A70000BDF91A000590BDF9180004900146089B98
:10A71000059A199807F0BEF91A901A98012801D1E4
:10A7200002201A90339890F82B002B9A1A99CDE9B1
:10A73000001202903398008C0590024606A9199BDE
:10A740003298F6F780FABDF81A00401C00B2ADF856
:10A750001A00BDF81E00401C00B2ADF81E001F9983
:10A760000D9808440D900E98401C0E9009990E9873
:10A77000884200E002E0BEDB00BF00BFBDF8B000D1
:10A78000ADF83C00BDF83C101F980844401E00B2D4
:10A79000ADF84000BDF8B6101F98081A401C00B272
:10A7A000ADF83E00BDF8B600ADF842000FA90BA809
:10A7B000329AF6F791F80A900A98002840D0229829
:10A7C00002B223A90FA8F6F7C8F8C8BBBDF92E102E
:10A7D0001D98814204DC1D98401C00B2ADF82E008B
:10A7E000BDF930101C98814202DD1C98ADF8300094
:10A7F0000BA804F06FFF09900BA804F0C2FF0890AB
:10A80000089800285DDDBDF92C00BDF93C10411A07
:10A810001E9808440D90BDF94200BDF93210421A4D
:10A820001F990D9801FB02000D900BA906A804F0DA
:10A830001DFFBDF81E00ADF81A0000200E903BE091
:10A8400040E0089A0D991998F7F7CEFDBDF91A0066
:10A850000590BDF9180004900146089B059A1998C7
:10A8600007F018F91A901A98012801D102201A90BD
:10A87000339890F82B002B9A1A99CDE90012029088
:10A880003398008C0590024606A9199B3298F6F77A
:10A89000DAF9BDF81A00401E00B2ADF81A00BDF892
:10A8A0001E00401E00B2ADF81E001F990D9808440E
:10A8B0000D900E98401C0E9009990E988842C0DBAE
:10A8C00000BF00BFBDF8B000ADF83C00BDF83C10C3
:10A8D0001F980844401E00B2ADF84000BDF8B21009
:10A8E0001F98084400B2ADF83E00BDF8B6101F989E
:10A8F000081A00B2ADF842000FA90BA8329AF5F77A
:10A90000EBFF0A900A9800283CD0229802B223A9B3
:10A910000FA8F6F722F8A8BB1B9870B13198B0F9D0
:10A920000010BDF93000814203DA3198B0F900001F
:10A9300001E0BDF93000ADF830000BA804F021FFB4
:10A9400009900998002861DD0BA804F0C3FE089067
:10A950001F98401EDDE91E1202FB00100D90BDF98C
:10A960002C00BDF93C10411A0D9808440D900BA91C
:10A9700006A804F07BFEBDF81A00ADF81E0000200A
:10A980000E903EE043E0099A0D991998F7F72CFDD7
:10A990001B9810B102201A9011E0BDF91A00059021
:10A9A000BDF9180004900146099B059A199807F013
:10A9B00071F81A901A98012801D102201A90339840
:10A9C00090F82B00339991F82A101A9ACDE90021BA
:10A9D00002903398008C0590024606A9199B329884
:10A9E000F6F731F9BDF81A00401C00B2ADF81A00B4
:10A9F000BDF81E00401C00B2ADF81E000E98401CB1
:10AA00000E9008990E988842BDDB00BF00BFBDF8CC
:10AA1000B0101F98084400B2ADF83C00BDF8B41067
:10AA20001F98081A00B2ADF84000BDF8B200ADF8AA
:10AA30003E00BDF8B2101F980844401E00B2ADF8A9
:10AA400042000FA90BA8329AF5F746FF0A900A9820
:10AA500000287CD0229802B223A90FA8F5F77DFF29
:10AA6000002874D11B9870B1BDF932103198B0F93B
:10AA70000200814202DABDF9320002E03198B0F9F9
:10AA80000200ADF832000BA804F07BFE09900BA881
:10AA900004F020FE0890DDE91E010844401E0D90E0
:10AAA000BDF92E00BDF93E10421A1F990D9801FB09
:10AAB00002000D900BA906A804F0D8FDBDF81A00FD
:10AAC000ADF81E0001201A9000200E904FE00D9866
:10AAD000007805900598FF2802D12B98FF2804D014
:10AAE00005992B98484300120590099A05991998E1
:10AAF000F7F7F2FD1B9810B102201A9011E0BDF992
:10AB00001A000490BDF9180003900146099B049AAD
:10AB1000199806F0BFFF1A901A98012801D1022057
:10AB20001A90339890F82B00FF221A99CDE9001261
:10AB300002903398008C0490024606A9199B329823
:10AB4000F6F781F8BDF81A00401C00B200E013E0EF
:10AB5000ADF81A00BDF81E00401C00B2ADF81E0092
:10AB60001F990D9808440D900E98401C0E9008995E
:10AB70000E988842ABDB00BFBDF8B0101F980844A8
:10AB800000B2ADF83C00BDF8B4101F98081A00B22E
:10AB9000ADF84000BDF8B6101F98081A401C00B26E
:10ABA000ADF83E00BDF8B600ADF842000FA90BA805
:10ABB000329AF5F791FE0A900A98C8B3229802B229
:10ABC00023A90FA8F5F7C9FE90BB1B9870B1BDF97A
:10ABD0002E103198B0F90600814202DDBDF92E0039
:10ABE00002E03198B0F90600ADF82E000BA804F091
:10ABF000C8FD09900BA804F06DFD0890DDE91E0169
:10AC00000844401E0D90BDF94200BDF93210421AB1
:10AC10001F990D9801FB02000D900BA906A804F0E6
:10AC200025FDBDF81E00ADF81A0000200E904EE084
:10AC300052E00D98007805900598FF2802D12B98D6
:10AC4000FF2804D005992B98484300120590099AD3
:10AC500005991998F7F740FD1B9810B102201A903A
:10AC600011E0BDF91A000490BDF9180003900146E7
:10AC7000099B049A199806F00DFF1A901A9801285A
:10AC800001D102201A90339890F82B00FF221A99D4
:10AC9000CDE9001202903398008C0490024606A978
:10ACA000199B3298F5F7CFFFBDF81A00401E00B28D
:10ACB000ADF81A00BDF81E00401E00B2ADF81E002F
:10ACC0001F990D9808440D900E98401C0E900899FD
:10ACD0000E988842ADDB00BFBDF8B0101F98084445
:10ACE00000B2ADF83C00BDF8B4101F98081A00B2CD
:10ACF000ADF84000BDF8B2101F98084400B2ADF89E
:10AD00003E00BDF8B6101F98081A00B2ADF8420018
:10AD10000FA90BA8329AF5F7DFFD0A900A98E0B365
:10AD20001B98D0BB229802B223A90FA8F5F715FEF5
:10AD300098BB0BA804F025FD09900BA804F0CAFCF1
:10AD400008900BA906A804F091FCBDF81A00ADF814
:10AD50001E0000200E903CE0339890F82A000590E9
:10AD60000146099A1998F7F7B7FCBDF91A00059042
:10AD7000BDF9180004900146099B059A199806F040
:10AD800089FE1A901A98012801D102201A9033984E
:10AD900090F82B00FF221A9900E01FE0CDE9001285
:10ADA00002903398008C0590024606A9199B3298B0
:10ADB000F5F749FFBDF81A00401C00B2ADF81A00C3
:10ADC000BDF81E00401C00B2ADF81E000E98401CDD
:10ADD0000E9008990E988842BEDB00BF119807F0CC
:10ADE00023FB1998F7F7B2FA1E98F7F7AFFA00BFEE
:10ADF000FFF795B8F0B591B006460F461446E06BE4
:10AE000008B911B0F0BD94F84400022800DCF8E75E
:10AE100054F83C5F002147F61842B4F91200CDE91E
:10AE200001210090B4F91030294610A86268F8F7A3
:10AE300021FE0020ADF83800ADF83A00BDF8400022
:10AE4000401E00B2ADF83C00BDF84200401E00B20A
:10AE5000ADF83E00227D0DAB0EA93046F5F78AFB1A
:10AE6000BDF83400A1890844BDF83810084400B288
:10AE7000ADF83800BDF83600E1890844BDF83A1055
:10AE8000084400B2ADF83A00BDF83400A189084486
:10AE9000BDF83C10084400B2ADF83C00BDF83600E7
:10AEA000E1890844BDF83E10084400B2ADF83E0008
:10AEB00004A805F0ABFE60680690208AADF820007B
:10AEC000608AADF81E006089ADF81000207A3C3C25
:10AED0008DF81C0000202B4604AA394600900EA8CD
:10AEE00005F078FB00BF8CE770B504460D460026E0
:10AEF000207800F0010068B92068B5EB500F09D840
:10AF00002946204600F020F8206820F00100401C6F
:10AF10002060261D304670BD10B50146002011B9D5
:10AF2000084A10680CE00A1D0B6802EB5300031D71
:10AF3000044C246804F50044A34200D3002000BF61
:10AF400010BD0000FC00002030B5CA1C22F0030137
:10AF50000A1D0368B2EB530F01D102685108026861
:10AF6000B1EB520F12D0031D5A18146824F00104DB
:10AF700014600468C1EB5404241F156864F35F0572
:10AF80001560046861F35F04046000BF30BD000019
:10AF900000B597B04FF4A16010F044FF40F2056097
:10AFA00010F040FF40F2066010F03CFF4FF4C1602B
:10AFB00010F038FF4CF2037303221821234801F0EC
:10AFC000AFF94FF6807303221821214801F0A8F948
:10AFD0000423032218211E4801F0A2F93023032282
:10AFE00018211A4801F09CF94FF40073032218212C
:10AFF000184801F095F9002001900290039002207A
:10B00000049012200590032006900820079001204C
:10B010000890002009900A900B900C9001200D9050
:10B0200000200E900F901090119010201290002090
:10B030001390149001A81590169008A800F018F825
:10B04000012000F009F817B000BD00000014014015
:10B050000018014000200140C100A1F1C041096871
:10B0600041F00102C100A1F1C0410A607047000037
:10B0700070B50021002200230468E400A4F1C0445C
:10B080002168414C2140D0E90B4544EA4504856ADA
:10B090002C43456A44EA0524056A2C43C56944EA01
:10B0A000852485692C43456944EA0534056944EAE9
:10B0B0004534856844EA8534C56844EAC534456842
:10B0C0002C432143446B247E641E04F00F04456B23
:10B0D0006D696D1EF02606EA05152C43456B2D693A
:10B0E0006D1E4FF47F4606EA05252C43456BAD895E
:10B0F0006D1E4FF4702606EA05452C43456BAD687E
:10B100002C43456B6D682C43456B2D6844EA050262
:10B11000C46A082C01D141F040018468012C20D17F
:10B12000846B247E641E04F00F04856B6D696D1EB4
:10B13000F02606EA05152C43856B2D696D1E4FF42C
:10B140007F4606EA05252C43856BAD896D1E4FF4BD
:10B15000702606EA05452C43856B2D6844EA0503F5
:10B1600001E06FF070430468E400A4F1C044216082
:10B170000468E400A4F1C04462600468E400A4F13F
:10B18000C044C4F8043170BD8100F7FF2DE9FF4FC2
:10B1900087B08B461546079804F0D0FA8246688837
:10B1A00010FB0AF00BEB40061798012802D002288A
:10B1B00006D102E0DFF8309105E0DFF8309102E0DF
:10B1C0000BB0BDE8F08F00BF1698012834D10020E5
:10B1D000069006980590149A05990A9804F05EFC6A
:10B1E0000490B5F9027022E0B5F9004018E0BDF80E
:10B1F000140036F8141088420CD006EB4400008886
:10B20000059006EB4400008803900146149A0A98C2
:10B21000C847049006EB4400BDF810100180641C80
:10B22000B5F90400A042E2DA06EB4A067F1CB5F944
:10B230000600B842D8DA54E0284604F07FFA0690B7
:10B24000B5F900101598A0EB010800200390308894
:10B25000059030880490B5F902703DE0B5F90040E2
:10B2600031E018F8040000B92CE018F80410039835
:10B27000814205D1BDF8140036F8141088421BD065
:10B2800018F80400FD2801DB149804E018F8040005
:10B2900014994843000A029006EB4400008801908C
:10B2A0000146029A0A98C847049018F804000390CF
:10B2B00036F81400059000BF06EB4401BDF81000FD
:10B2C000088000BF641CB5F90400A042C9DA06EB8F
:10B2D0004A06069880447F1CB5F90600B842BDDADC
:10B2E00000BF00BF6CE700008D6E00082F6F0008E4
:10B2F0002DE9FF4F89B09246DDF85880F7F7BCFD85
:10B300000890099804F01AFA0790504604F016FACB
:10B310008146504604F0C9F90690BAF80210079821
:10B3200011FB00F10A9800EB4100BAF9001000EBA4
:10B3300041051898012875D1B8F1FD0F25DD089851
:10B34000C06A98B1504604F0DAF9F0280ED9BDF879
:10B350003000ADF8000008985346C66A079802B25C
:10B360000A990898B0470DB0BDE8F08F002708E0B3
:10B370004A4628460C9904F036FA079805EB400532
:10B380007F1C06988742F3DBBFE10898806A18B3F8
:10B39000504604F0B4F9F0281ED9002405E0BDF8A9
:10B3A0003000DB4921F81400641C4C45F7DBBAF986
:10B3B00002700CE0CDF8008008984B46D44A29462C
:10B3C000D0F828C0E047079805EB40057F1CBAF984
:10B3D0000600B842EEDAC6E7002005900598049012
:10B3E000424604990C9804F059FB03900C9901A86B
:10B3F0000091BDF80010C90A01FB08F10180BDF8F9
:10B400000010C1F3451101FB08F14180BDF80010A7
:10B4100001F01F0101FB08F1818000BFC8F1FF06A8
:10B42000002722E025E0002419E0BDF8100035F8DF
:10B43000141088420DD005EB44000088049005EB01
:10B440004400008832460146009001A804F000FD47
:10B45000039005EB4400BDF80C100180641C4C45C2
:10B46000E3DB079805EB40057F1C06988742DADB93
:10B470004BE1002003902888059028880490A9F1CA
:10B4800004000290B8F1FD0F70DD0027EBE0179E7D
:10B4900000241BE03078B8B13078FF2805D105EBE7
:10B4A0004400BDF8301001800EE0327805EB440016
:10B4B0000088014600900C9804F0F0FA019005EB2A
:10B4C0004400BDF804100180761C641C4C4503DA6E
:10B4D00006F003000028DDD1B34699E0DBF8000058
:10B4E00000281AD0DBF80000401CB8B905EB440076
:10B4F000BDF830100180601C05EB4000BDF8301035
:10B500000180A01C05EB4000BDF830100180E01C5C
:10B5100005EB4000BDF83010018076E05E463078E3
:10B52000B8B13078FF2805D105EB4400BDF83010E4
:10B5300001800EE0327805EB44000088014600905F
:10B540000C9804F0ABFA019005EB4400BDF8041030
:10B550000180761C3078D8B13078FF2807D1601C84
:10B5600005EB4000BDF83010018011E080E032783A
:10B57000601C05EB40000088014600900C9804F028
:10B580008DFA0190601C05EB4000BDF804100180AD
:10B59000761C3078D0B13078FF2806D1A01C05EB9E
:10B5A0004000BDF83010018010E03278A01C05EB9F
:10B5B00040000088014600900C9804F06FFA01905A
:10B5C000A01C05EB4000BDF804100180761C30780B
:10B5D000D0B13078FF2806D1E01C05EB4000BDF863
:10B5E0003010018010E03278E01C05EB400000884C
:10B5F000014600900C9804F051FA0190E01C05EB14
:10B600004000BDF804100180761C0BF1040B241DD2
:10B61000029884427FF762AF5E461BE03078B8B193
:10B620003078FF2805D105EB4400BDF830100180CB
:10B630000EE0327805EB44000088014600900C983B
:10B6400004F02CFA019005EB4400BDF804100180D1
:10B65000761C641C4C45E1DB079805EB4005179808
:10B66000484417907F1C06988742FFF610AF4BE0C6
:10B670004FF0000BBAF9027041E0179E002435E04C
:10B68000307888B331780398814209D03078FF2828
:10B6900001D1404603E0307800FB08F0000A834601
:10B6A00031780398814205D1BDF8140035F81410A3
:10B6B000884214D0BBF1FF0F02D10C98049009E02E
:10B6C00005EB440000885A46014601900C9804F0AE
:10B6D000E5F904903078039035F81400059005EBF7
:10B6E0004400BDF810100180761C641C4C45C7DB7B
:10B6F000079805EB40051798484417907F1CBAF946
:10B700000600B842B9DA00BF00BF00BF2BE6000058
:10B710000C1F00202DE9FF4F85B01446DDE9129B78
:10B72000F7F7AAFB0746059804F008F88246149834
:10B73000012820D1B4F9026018E0B4F9005010E0FB
:10B74000CDF80890BDF82000ADF8040030B20090AC
:10B750002BB20FFA8AF2D7F814C038460699E047A0
:10B760006D1CB4F90400A842EADA761CB4F90600AC
:10B77000B042E2DA31E0B4F90000ABEB0008204659
:10B7800003F0DCFF0490B4F9026021E0B4F900504A
:10B7900017E018F8050098B118F8050000FB09F04B
:10B7A000000A0290BDF82000ADF8040030B200900D
:10B7B0002BB20FFA8AF2D7F814C038460699E04740
:10B7C0006D1CB4F90400A842E3DA04988044761CA6
:10B7D000B4F90600B042D9DA00BF09B0BDE8F08F75
:10B7E0002DE9F84F044688469146207D00F001007F
:10B7F00008B1BDE8F88FE56800264FF0010A4FF068
:10B80000010B00BF85B9207DC0F3001000B956B907
:10B81000BBF1000F00D1ECE72046C04705464FF0D2
:10B82000000AD34600E0E4E716B92E4606B9E0E781
:10B83000BAF1000F06D029462046C8470546B54252
:10B8400000D1D6E74FF0010A05B9DBE700212868EF
:10B850000CF0B4F900F0200000B1D3E728680CF038
:10B860003BF900B900E0CDE700BFE068A84200D195
:10B87000BFE7E068A8B1E168086800221721C36942
:10B880009847E168002208680E2106F05FFE0090EC
:10B890000098012800D0ACE7E16808680CF088FF48
:10B8A00000BFE560E168086800221621C369984777
:10B8B000E168002208680D2106F048FE0746012FC6
:10B8C00000D096E7E168086810F0EFF9E1680868D1
:10B8D0000CF06EFF206910B120462169884700BF37
:10B8E00087E70000FEB5FE48006860300EF044FCBB
:10B8F00040F6880003F0D4FF024600210090F8488B
:10B90000006860300EF09FFC40F6880003F0C8FF2E
:10B91000024600210090F248006860300EF068FD99
:10B92000F0480021C268EE48006860300EF049FD22
:10B93000002004F03BFC00EB80005030A02190FB85
:10B94000F1F0012809DD002004F030FC00EB80005C
:10B950005030A02190FBF1F000E0012004B222461B
:10B960000021DF48006860300EF084FC002004F005
:10B970001DFC502101EB8000A02190FBF1F001287B
:10B9800009DD002004F012FC502101EB8000A02111
:10B9900090FBF1F000E0012004B222460021D048E3
:10B9A000006860300EF018FDCD48006800F16004BA
:10B9B0000025002004F0FAFB502101EBC000A0217B
:10B9C00090FBF1F0012809DD002004F0EFFB50218D
:10B9D00001EBC000A02190FBF1F000E0012006B2D5
:10B9E000C22040EA052132462046F7F74DFE00BF4F
:10B9F000002004F0DBFB00EB8000502101EB800015
:10BA0000A02190FBF1F001280BDD002004F0CEFB1B
:10BA100000EB8000502101EB8000A02190FBF1F0B1
:10BA200000E0012004B222460021AD4800686030E9
:10BA30000EF08BFC002004F0B9FB00EB80005021DD
:10BA400001EB8000A02190FBF1F001280BDD00202C
:10BA500004F0ACFB00EB8000502101EB8000A02142
:10BA600090FBF1F000E0012004B2224600219C4846
:10BA7000006860300EF075FC002004F097FB00EBCE
:10BA80008000502101EB8000A02190FBF1F0012803
:10BA90000BDD002004F08AFB00EB8000502101EB5D
:10BAA0008000A02190FBF1F000E0012004B22246CA
:10BAB00000218B48006860300EF05FFC002004F02D
:10BAC00075FB00EB8000502101EB8000A02190FB72
:10BAD000F1F001280BDD002004F068FB00EB800092
:10BAE000502101EB8000A02190FBF1F000E001204B
:10BAF00004B2224600217A48006860300EF019FC3A
:10BB0000002004F053FBC0EB00105030A02190FB4C
:10BB1000F1F0012809DD002004F048FBC0EB001023
:10BB20005030A02190FBF1F000E0012004B2224649
:10BB300000216B48006860300EF065FC47F6FF722C
:10BB400000216748006860300EF02FFC64480068F0
:10BB500064300EF011FB40F6880003F0A1FE0246AF
:10BB6000002100905E48006864300EF06CFB40F6E7
:10BB7000880003F095FE02460021009058480068B6
:10BB800064300EF035FC57480021C2685448006804
:10BB900064300EF016FC002004F008FB502101EB8D
:10BBA000C000A02190FBF1F0012809DD002004F085
:10BBB000FDFA502101EBC000A02190FBF1F000E064
:10BBC000012004B2224600214548006864300EF08E
:10BBD00051FB002004F0EAFA502101EBC000A02143
:10BBE00090FBF1F0012809DD002004F0DFFA50217C
:10BBF00001EBC000A02190FBF1F000E0012004B2B5
:10BC0000224600213648006864300EF0E5FB002033
:10BC100004F0CCFA00EBC00101EB00105030A02181
:10BC200090FBF1F001280BDD002004F0BFFA00EBDF
:10BC3000C00101EB00105030A02190FBF1F000E0BA
:10BC4000012004B2224600212548006864300EF02D
:10BC5000DAFB2348006868300EF08EFA224800684C
:10BC60000290204890F8200000F0020020B11F4808
:10BC700003F008FE009001E00298009000211848AF
:10BC8000009A006868300EF0DEFA002004F08EFAA8
:10BC9000502101EBC000A02190FBF1F0012809DD4B
:10BCA000002004F083FA502101EBC000A02190FB9A
:10BCB000F1F000E0012004B22246002108480068AB
:10BCC00068300EF0D7FAFF2200210548006868307E
:10BCD0000EF066FA0448001D00680190014807E074
:10BCE0005001002078A30020D0D402085B4B46000E
:10BCF00090F8200000F0020020B12D4803F0C2FDB2
:10BD0000009001E00198009000212A48009A006804
:10BD100068300EF03AFA47F6FF72002125480068B5
:10BD200068300EF042FB002004F040FAC0EB001037
:10BD3000502101EB4000A02190FBF1F001280BDD28
:10BD4000002004F033FAC0EB0010502101EB40005A
:10BD5000A02190FBF1F000E0012004B22246002176
:10BD60001448006868300EF071FB002004F01EFAE1
:10BD700000EB8000502101EB4000A02190FBF1F08E
:10BD800001280BDD002004F011FA00EB80005021A7
:10BD900001EB4000A02190FBF1F000E0012004B293
:10BDA000224600210348006868300EF0C2FAFEBD4A
:10BDB0005B4B46005001002070B505462879C0F362
:10BDC000801030B12879C0F3C01128460EF078F900
:10BDD00070BD04200AF0AEFD044600BF204604F00A
:10BDE000B5F830B9224600230BA004F0B5F800BF27
:10BDF000FEE700BF0CB90020EAE720460EF0C3F8CA
:10BE000021462846F7F71EF9686820F040004030C8
:10BE100068602046DCE700004F7574206F66206D77
:10BE2000656D6F7279000000F0B504460B46092A73
:10BE300010D2DFE802F00F0507090B0F0F0F0D00FE
:10BE400001210CE003210AE0072108E00F2106E0B0
:10BE5000FF2104E001209040401EC1B200BF00BF9E
:10BE6000DD0803F00703981808280CD3681C205C31
:10BE7000675D00EB072086B2C3F11000871A46FA0F
:10BE800007F00840F0BD605DC3F10806B61A304106
:10BE90000840F7E770B504460CB9002070BD254690
:10BEA00003E028460BF034FE054628460BF03CFC28
:10BEB00008B1002DF5D12846F0E700002DE9FC4738
:10BEC00081460E4616B90020BDE8FC87D9F810401F
:10BED0006069B04201D1A069F6E70025ADE005EB4D
:10BEE0008501A06850F82100371A05EB8501A0688C
:10BEF00000EB81008088B84200D29CE04FF000083F
:10BF000005EB8501A06800EB8100807C022808D148
:10BF100005EB8501A06800EB8100C08800EB0708F5
:10BF200084E005EB8501A06800EB8100807C78B996
:10BF300005EB8502A16801EB8201C86805EB85026B
:10BF4000A16801EB8201C988C25D01EB02086DE0C6
:10BF500005EB8501A06800EB8100807C03282AD1D5
:10BF6000B8B201903A48009005EB8503A06800EB59
:10BF70008300028A05EB8503A06800EB830002239F
:10BF8000816801A8F7F78CFE8246BAF1000F11D044
:10BF900005EB8502A16801EB82018968AAEB01012A
:10BFA000481005EB8502A16801EB8201C98801EB0D
:10BFB000000800BF3AE005EB8501A06800EB8100B6
:10BFC000807C012832D1B8B201902148009005EB65
:10BFD0008503A06800EB8300028A05EB8503A06857
:10BFE00000EB83000223816801A8F7F759FE82461F
:10BFF000BAF1000F19D005EB8503A26802EB8302AA
:10C000009268AAEB0202501005EB8503A26802EBCE
:10C010008302D16805EB8503A26802EB8302D28814
:10C0200031F8103002EB030800BF00BF6661C4F8AE
:10C030001880404648E7681C85B2608AC0F3080053
:10C04000A8423FF74CAF66610020A06100BF3BE70C
:10C05000DDEB01082DE9FC5F80460D461646D8F859
:10C0600010704FF0000A788AC0F34030002840D1A9
:10C07000FC68A068800FD8B9D4F8009005EB0620C2
:10C0800080B2019026480090A06820F04042022330
:10C09000494601A8F7F704FE8346BBF1000F06D01E
:10C0A000ABEB09014810616811F900A000BF1FE067
:10C0B0000121A068B1EB907F1AD1D4F8009005EB74
:10C0C0000640019017480090A06820F040420423E9
:10C0D000494601A8F7F7E4FD8346BBF1000F06D0FF
:10C0E000ABEB09018810616811F900A000BF00BF27
:10C0F00012E0F8684368595D83689A5D00290ADD9B
:10C10000002A08DD531E4C1E90F80DC004FB0C33B2
:10C11000046814F903A000BF5046BDE8FC9F00006E
:10C12000B3DC000893DC000870B505460C462846D1
:10C1300000F002F8204470BD014601F00F0102201A
:10C14000092901DA801C08E00C2901DA801C04E0CE
:10C150000E2901DA401C00E0001D70472DE9F84F60
:10C1600081460E46D9F8000018B94FF0FF30BDE8FF
:10C17000F88F06F0FF0A370A4FF0FF3B5846009051
:10C1800000241EE0D04517D12146484600F083F830
:10C1900005466806B0EB476F01D12046E7E705F09A
:10C1A0007F00B84338B905F07F00584503DD05F03E
:10C1B0007F0B20B2009000BF21464046FFF7B4FF3E
:10C1C00004462146484600F06FF88046FF28D9D142
:10C1D0000098CCE72DE9FC5F83468A4690461D46D1
:10C1E000082001907F200090404608EBD0714C1051
:10C1F00008F0010080F00109CBF15A0108B2F7F70D
:10C2000087FBAAEB04014843C6115846F7F780FBA9
:10C21000AAEB04014843C711002E0ADDA6F17F00F6
:10C220000612301B484400B22880301900B2A880A2
:10C230000AE006F17F000612301B00B22880301998
:10C24000A0EB090000B2A880002F0ADDA7F17F0053
:10C250000712381B484400B26880381900B2E880E1
:10C260000AE007F17F000712381B00B26880381916
:10C27000A0EB090000B2E880BDE8FC9F18B50246BB
:10C280006B461068405C1870481C1468205C58703D
:10C29000BDF8000018BD70B504460D46294620467D
:10C2A000FFF7ECFF000A70BD70B504460D46294645
:10C2B0002046FFF7E3FFC0B270BD2DE9F047054609
:10C2C0000C46214628460BF07BF9002128460BF04E
:10C2D000A8FD0646002128460BF0BEFD07460021BA
:10C2E00028460BF0D4FD8046002128460BF06CFD5B
:10C2F00081462088304400B22080A088C01B00B254
:10C30000A0806088404400B26080E088A0EB090013
:10C3100000B2E080BDE8F08741617047016170477D
:10C32000F0B50C4616460025002204F00F0504F077
:10C33000100747B1042E05D145F00305C76B1F4315
:10C34000C76300E03543002118E001278F401F40FC
:10C3500097B102684FEA810C0F2707FA0CF7BA432E
:10C360008F0005FA07F73A43282C01D1436102E018
:10C37000482C00D1036102604F1CB9B20829E4D3F4
:10C3800008211CE001278F401F40B7B14268A1F18E
:10C3900008074FEA870C0F2707FA0CF7BA43A1F1F9
:10C3A0000807BF0005FA07F73A43282C01D143617B
:10C3B00002E0482C00D1036142604F1CB9B2102941
:10C3C000E0D3F0BD02469068084008B101207047F4
:10C3D0000020FCE72DE9FE4381460D4616461F4628
:10C3E000DDF82880002412E006EB4400008801906C
:10C3F00005EB4400008842460090019903F0B0FA32
:10C40000029005EB4400BDF808100180641CBC429A
:10C41000EAD3BDE8FE83F0B50546B3F902605643A2
:10C4200001EB4601B3F902400FE0B3F9000005E06B
:10C4300001EB4006BDF814703780401CB3F904606E
:10C440008642F5DA01EB4201641CB3F90660A642AC
:10C45000EBDAF0BD2DE9F04786B004460E461546EE
:10C46000B4F9080070430712BD4207DC60880590EC
:10C47000BDF81410084606B0BDE8F087B4F90A000C
:10C4800070434FEA202A554505DBA0880490BDF88B
:10C4900010100846EFE7B4F90A00B4F90810A0EB51
:10C4A000010806FB08F04FEA2028E81B05B2C5EB9F
:10C4B000052090FBF8F000F0FF0960880290A0884A
:10C4C0004A460190029903F038FB0390BDF80C1026
:10C4D0000846D0E701460020302905DB392903DC76
:10C4E000A1F13002D0B21CE0612902DBA1F12002EF
:10C4F000D1B2A1F14102062A10D2DFE802F0030511
:10C5000007090B0D0A200BE00B2009E00C2007E0C7
:10C510000D2005E00E2003E00F2001E0002000BF09
:10C5200000BF704770472DE9F04104460D46E06DAD
:10C5300008B9BDE8F081E06DA96830F92160E06DCF
:10C54000A96800EB8100B0F90270A87B01280BD12B
:10C55000B4F92400B04203D1B4F92600B84203D0A4
:10C5600004F11C0001F030FA04F11C0001F040FB62
:10C5700000B1DEE726846784A87B012804D104F19A
:10C580001C0001F039F803E004F11C0001F01CFA72
:10C5900004F11C0001F02CFB00B1CAE7218CA1843E
:10C5A000618CE18400BFC4E72DE9F04104465C489A
:10C5B00000680BF041FA05462021594800680CF04C
:10C5C000ABF9002874D1206AA84271D028460BF03C
:10C5D0004DFA0646206A18B1206A0BF047FA00E0CF
:10C5E00000200746BE4235D14EB1284607F046F836
:10C5F000204601F0FDFA00286FD0BDE8F081206AE6
:10C6000098B100221721206A0DF092FC204601F01B
:10C61000EFFA00B1F1E700220E21206A05F096FF43
:10C62000204601F0E5FA00B1E7E70022162128468E
:10C630000DF07EFC204601F0DBFA00B1DDE70022C0
:10C640000D21284605F082FF204601F0D1FA00288E
:10C6500062D0D2E7AFB9206A98B100221721206AD0
:10C660000DF066FC204601F0C3FA00B1C5E70022D8
:10C670000E21206A05F06AFF204601F0B9FA68B37E
:10C68000BBE7206A50B3A7B900221721206A0DF03A
:10C690004FFC204601F0ACFA00B1AEE700220E21BB
:10C6A000206A05F053FF204601F0A2FAB0B1A4E7DA
:10C6B00034E000221521206A0DF03AFC204601F0FA
:10C6C00097FA00B199E700220F21206A05F03EFF9A
:10C6D000204601F08DFA08B18FE71DE0FFE73EB17B
:10C6E000284606F0CBFF204601F082FAA0B184E78D
:10C6F0000022162128460DF01BFC204601F078FA96
:10C7000000B17AE700220D21284605F01FFF2046E0
:10C7100001F06EFA00B170E7256200BF00BF6CE760
:10C72000380000202DE9F04F87B00446A069FFF7DC
:10C73000B1FB0646002716B907B0BDE8F08F3046BA
:10C740000AF0BAFF00B9F7E730460AF0D1FF054614
:10C7500094F82A0000F00100002859D1238AA28908
:10C760001A4413B22382638AE2891A4413B26382A1
:10C7700000BF0021012D01D0032D00D10120022D89
:10C7800001D0032D00D10121042D18D1B4F91020BE
:10C79000002A02DDB4F9102002E0B4F91020524260
:10C7A000B4F91230002B02DDB4F9123002E0B4F912
:10C7B00012305B429A4201DD012000E0012170B19C
:10C7C000B4F91020002A02DDB4F9102002E0B4F917
:10C7D00010205242A64B1B681B7D9A420FDAB1B162
:10C7E000B4F91220002A02DDB4F9122002E0B4F9F3
:10C7F000122052429E4B1B681B7D9A4207DB94F825
:10C800002A2022F00102521C84F82A20012700BFAE
:10C8100094F82A0000F0010000287CD0A08910B90B
:10C82000E0890028F9D0B6F910000690B6F9120098
:10C83000059030460BF06CF983460BF051FC0490E8
:10C8400030460BF065F983460BF02AF90390304629
:10C850000BF062FC804630460BF084FC8146032DD1
:10C8600011D1002F69D094F82A0020F01C000C3060
:10C8700084F82A00208A40440FFA80F8608A4844ED
:10C880000FFA80F959E0012D0FD1002F55D094F8FF
:10C890002A0020F01C00001D84F82A00002161827B
:10C8A000208A40440FFA80F847E0022D0ED19FB352
:10C8B00094F82A0020F01C00083084F82A00002197
:10C8C0002182608A48440FFA80F936E0042D34D181
:10C8D00017B3B4F91000002802DDB4F9100002E02B
:10C8E000B4F910004042B4F91210002902DDB4F985
:10C8F000121002E0B4F912104942884210DD94F897
:10C900002A0020F01C00001D84F82A00002161820A
:10C91000208A404401E0A9E00FE00FFA80F80CE023
:10C9200094F82A0020F01C00083084F82A00002126
:10C930002182608A48440FFA80F9012D19D0032D15
:10C9400017D0042D19D1B4F91000002802DDB4F974
:10C95000100002E0B4F910004042B4F912100029AE
:10C9600002DDB4F9121002E0B4F912104942884213
:10C9700003DDA08940440FFA80F8022D19D0032D61
:10C9800017D0042D19D1B4F91000002802DDB4F934
:10C99000100002E0B4F910004042B4F9121000296E
:10C9A00002DDB4F9121002E0B4F9121049428842D3
:10C9B00003DAE08948440FFA80F92D490968C8680C
:10C9C00003F019FC82464A46414630460CF0C8F94D
:10C9D00094F82A0020F00200801C84F82A00B6F99E
:10C9E0001010069881422AD1B6F91210059881429A
:10C9F00025D130460BF08CF801900BF071FB83468B
:10CA000030460BF085F801900BF04AF8029004983C
:10CA1000834513D1DDE9020188420FD11449096829
:10CA2000C86803F0E8FB0190019AA2EB0A0291B2F8
:10CA30000F4A1268D068F4F715FA00BF00BFA7B11B
:10CA40000B48F3691121026830469847204601F0EF
:10CA5000CFF800B170E600220821304605F076FDDF
:10CA6000204601F0C5F800B166E600BF00BF63E6EE
:10CA7000340000202DE9FF41044694F82A00C0F359
:10CA8000400008B9BDE8FF81E069FFF703FA0546F9
:10CA900005B9F7E728460AF04DFEB0B994F82A0028
:10CAA00020F0020184F82A105D48EB691321026826
:10CAB00028469847204601F09BF800B1E2E70022A3
:10CAC0000921284605F042FDDCE728460AF010FE61
:10CAD0000646A08A52490968497DC1F1640110FBEC
:10CAE00001F0642190FBF1F001B2A182E08A4C498F
:10CAF0000968497DC1F1640110FB01F0642190FBDC
:10CB0000F1F001B2E182A08A10B9E08A002869D070
:10CB100002A928460AF054FD28460BF0FDFAA18A26
:10CB200008440FFA80F828460BF01CFB0146E08A07
:10CB3000084407B2032E05D13A46414628460CF078
:10CB40000FF91AE0012E04D1414628460CF026FBCD
:10CB500013E0022E04D1394628460CF041FB0CE0CC
:10CB6000042E0AD1208A20B1414628460CF016FB3B
:10CB700003E0394628460CF033FB694628460AF0A4
:10CB80001FFDBDF90800BDF90010884201D0A08A40
:10CB900038BBBDF90A00BDF90210884201D0E08A15
:10CBA000F8B994F82A0020F0020184F82A10002134
:10CBB000A181E181A182E1821948EB691321026818
:10CBC00028469847204601F013F800B15AE70022A2
:10CBD0000921284605F0BAFC204601F009F800B109
:10CBE00050E71AE094F82A0020F0020184F82A1095
:10CBF0000B48EB691321026828469847204600F04D
:10CC0000F7FF00B13EE700220921284605F09EFC0F
:10CC1000204600F0EDFF00B134E700BF32E700002E
:10CC2000340000202DE9F84304460D46A87B012876
:10CC300006D194F85000C0F3C00008B1BDE8F883F5
:10CC400094F85000C0F3C00080B194F8500020F078
:10CC5000080184F850100021A16494F8500020F0DD
:10CC6000010184F8501000212020015594F8208003
:10CC7000A97B2020015569686162A76D07B9DDE7CE
:10CC8000384606F073FDFA4908600846006800B9A6
:10CC9000D4E7A87B08B10020A881384606F066FDDD
:10CCA000F34908600846006800B9C7E7A87B012877
:10CCB0005DD1B8F1000F5AD10DF0DEFEA0646868B6
:10CCC0000A282BD100200090E94800686A46192103
:10CCD000C369E74800689847384606F03FFD10B939
:10CCE0009DF80000C8B9E248006800220B21C36922
:10CCF000DF480068984704F11C0000F079FF00B19C
:10CD00009CE700221146DA48006805F01FFC04F198
:10CD10001C0000F06DFF00B190E77EE16868142808
:10CD200004D1A889401E00B2A88176E16868132862
:10CD300004D1A889401C00B2A8816EE168681B2854
:10CD400010D11B21384606F083FD00221421C8486B
:10CD5000006805F0FBFB04F11C0000F049FF00280F
:10CD6000DBD06BE73846696806F072FD55E1A87BB9
:10CD700001287AD1B8F1010FFBD194F8500000F0EE
:10CD80000100002851D1A06C0DF068FE218B884273
:10CD90004BD994F8500020F00100401C84F850005A
:10CDA0000DF06AFEE06468680A2836D10020009021
:10CDB000AF4800686A461921C369AD4800689847C2
:10CDC0009DF8000070B13846F5F79FF8012823D987
:10CDD000384606F0C3FC80F001063146384606F0BE
:10CDE00056FD19E0A248006800220F21C369A0483F
:10CDF0000068984704F11C0000F0FAFE00B11DE73E
:10CE0000002204219A48006805F0A0FB04F11C00F0
:10CE100000F0EEFE00B111E700BF94F8500020F0E2
:10CE20000100401C84F85000F7E094F8500000F036
:10CE3000010000289AD0E06C0DF010FE618B884252
:10CE400094D90DF019FEE06468680A281BD188485F
:10CE5000006800221021C36985480068984704F1E2
:10CE60001C0000F0C5FE08B1E8E627E0002205211D
:10CE70007F48006805F06AFB04F11C0000F0B8FE72
:10CE80000028D1D0DAE66868142804D1A889401EA9
:10CE900000B2A881C1E06868132804D1A889401CA9
:10CEA00000B2A881B9E03846696806F0D1FC04F107
:10CEB0001C0000F09DFE0028B6D0BFE6A87B00282D
:10CEC000B2D1B8F1010FAFD168680A2878D100203B
:10CED0000090674800686A461921C3696448006881
:10CEE00098479DF80000B0BB6148006800220E2101
:10CEF000C3695F480068984704F11C0000F078FEA1
:10CF000000B19BE694F8500000F0010028B900221F
:10CF100003215748006805F019FB04F11C0000F0DC
:10CF200067FE00B18AE6002206215148006805F03C
:10CF30000DFB04F11C0000F05BFE00B17EE6002258
:10CF400007214B48006805F001FB04F11C0000F0CC
:10CF50004FFEB0B372E6FFE7387DC0F3400088B300
:10CF600094F8500000F0010020B13846F4F7CDFFEE
:10CF7000012849D83E48006800220E21C3693C4878
:10CF80000068984704F11C0000F032FE00B155E63D
:10CF9000002203213648006805F0D8FA04F11C008D
:10CFA00000F026FE00B149E6002206213048006864
:10CFB00005F0CCFA04F11C0000F01AFE18B13DE6B1
:10CFC00023E021E010E0002207212948006805F055
:10CFD000BDFA04F11C0000F00BFE00B12EE60A21A0
:10CFE000384606F035FC0FE09DF8000060B1387D52
:10CFF000C0F3400040B994F8500000F0010018B9A7
:10D000000121384606F043FC00BF0021A16494F8DA
:10D01000500020F0010184F85010002014490860ED
:10D02000A88918B3384606F099FB00B3B5F90C008F
:10D0300000280CDA002604E01421384606F008FC2B
:10D04000761CB5F90C004042B042F5DC0EE0B5F9B3
:10D050000C0000280ADD002604E01321384606F003
:10D06000F7FB761CB5F90C00B042F6DC21E001E0DC
:10D0700038000020B5F90C0000280BDA002603E088
:10D08000384606F05FFB761CB5F90C004042B04212
:10D09000F6DC0DE0B5F90C00002809DD002603E000
:10D0A000384606F0DFFA761CB5F90C00B042F7DC22
:10D0B00000BF00BFC2E5000070B5044694F82A0026
:10D0C000C0F3401000B170BDA56903E028460AF026
:10D0D0001FFD054625B128460AF0C1FC0028F5D100
:10D0E00005B9F0E7B4F90C00002802DDB4F90C0032
:10D0F00002E0B4F90C00404244490968897D884245
:10D1000011DAB4F90E00002802DDB4F90E0002E0D5
:10D11000B4F90E0040423D490968897D884202DA2F
:10D120000021E1842185E18CA089084401B2E184D9
:10D13000218DE089084401B22185B4F92600002838
:10D1400002DDB4F9260002E0B4F9260040422F497E
:10D150000968C97D88420EDCB4F92800002802DD88
:10D16000B4F9280002E0B4F92800404227490968D0
:10D17000C97D884248DD94F82A0020F02000203044
:10D1800084F82A00B4F92600002802DDB4F926004C
:10D1900002E0B4F926004042B4F92810002902DD6B
:10D1A000B4F9281002E0B4F92810494288420BDD96
:10D1B000B4F92600002803DD032184F824100EE0D2
:10D1C000022184F824100AE0B4F92800002803DDC5
:10D1D000012184F8241002E0002184F824100B4877
:10D1E000EB691421026828469847204600F000FDAC
:10D1F00000B168E700220B21284605F0A7F9204678
:10D2000000F0F6FC00B15EE700BF5CE734000020F0
:10D210002DE9F04104460D46A87B012806D194F87B
:10D220005000C0F3C00008B1BDE8F08194F8500090
:10D23000C0F3C00080B194F8500020F0080184F8D9
:10D2400050100021A16494F8500020F0010184F8EE
:10D250005010002120200155A76D07B9E4E738469A
:10D2600006F084FAB74908600846006800B9DBE7B1
:10D27000D4F82480696861622020065DA97B01558D
:10D28000A87B012861D1002E5FD10DF0F5FBA064D1
:10D2900068680A281ED10A21384606F0D9FAA9483A
:10D2A000006800220B21C369A6480068984704F172
:10D2B0001C0000F09DFC00B1B6E700221146A14819
:10D2C000006805F043F904F11C0000F091FC00280F
:10D2D0003AD0A9E768681B2810D11B21384606F010
:10D2E000B7FA002214219748006805F02FF904F1DD
:10D2F0001C0000F07DFC0028EAD095E7686809284A
:10D300000DD10021384606F0C2FA384606F0AAF9D7
:10D3100004F11C0000F06CFC0028D9D084E7686898
:10D320000B280DD10021384606F0B1FA384606F038
:10D3300009FA04F11C0000F05BFC0028C8D073E778
:10D340003846696806F084FAF6E0A87B012871D1B6
:10D35000012EFCD168680A2819D17A480068002299
:10D360000C21C36977480068984704F11C0000F05D
:10D370003FFC00B158E7002201217248006805F027
:10D38000E5F804F11C0000F033FC00B14CE794F820
:10D39000500000F0010068BBA06C0DF05FFB218B1A
:10D3A000884227D994F8500020F00100401C84F8EE
:10D3B000500068680A28C7D10DF05EFBE064614840
:10D3C000006800220F21C3695E480068984704F195
:10D3D0001C0000F00DFC00B126E700220421594892
:10D3E000006805F0B3F804F11C0000F001FC00280F
:10D3F000AAD019E794F8500000F001000028A3D04B
:10D40000E06C0DF02BFB618B88429DD90DF034FB55
:10D41000E06468680A281BD14A480068002210218D
:10D42000C36948480068984704F11C0000F0E0FB1D
:10D4300008B1F9E637E0002205214248006805F00E
:10D4400085F804F11C0000F0D3FB002874D0EBE653
:10D45000686809280DD10021384606F018FA3846C8
:10D4600006F000F904F11C0000F0C2FB002863D0B4
:10D47000DAE668680B280CD10021384606F007FA76
:10D48000384606F05FF904F11C0000F0B1FB90B3E0
:10D49000CAE63846696806F0DBF904F11C0000F0C2
:10D4A000A7FB40B3C0E6A87B28BB012E44D1C5F83A
:10D4B000048068680A2837D12248006800220E21BB
:10D4C000C36920480068984704F11C0000F090FBF5
:10D4D00000B1A9E694F8500000F0010060B9002204
:10D4E00003211848006805F031F804F11C0000F031
:10D4F0007FFB08B198E61FE0002206211148006872
:10D5000005F024F804F11C0000F072FB00B18BE67A
:10D51000002207210B48006805F018F804F11C00F0
:10D5200000F066FB00B17FE60021A16494F8500092
:10D5300020F0010184F8501000200249086000BF6B
:10D5400072E600003800002070B504460D46E6681B
:10D55000307AC0F34100022804D0307AC0F3410091
:10D5600003280BD130882988401A401E00B2288039
:10D5700070886988401A401E00B26880307AC0F313
:10D580004100012804D0307AC0F34100032809D1BA
:10D59000B5F90200298869807188091A491E09B203
:10D5A000298000BF606D90B1B4F92400B5F9001076
:10D5B000884205D1B4F92600B5F90210884206D098
:10D5C000B5F90220B5F90010606D0BF0C9FB298890
:10D5D000218469886184207F012804D104F11C0022
:10D5E00000F00AF803E004F11C0000F0EDF9218CD2
:10D5F000A184618CE18470BD2DE9F0410446F049BD
:10D60000A069086094F83400C0F3C00008B1BDE818
:10D61000F081EC480068C6680027E948006810BB44
:10D62000304602F0EEFD0546211D07F075FAE4498B
:10D6300008600846006840B9304602F0EDFD054636
:10D64000211D07F069FADE490860DD48006840B92D
:10D65000304602F0FBFD0546211D07F05DFAD84972
:10D66000086001272CE094F82A00C0F3400038BB82
:10D670001021D34800680BF04FF908BB304602F088
:10D68000C0FD0546211D07F047FACD490860084650
:10D69000006840B9304602F0BFFD0546211D07F085
:10D6A0003BFAC7490860C648006840B9304602F0F6
:10D6B000CDFD0546211D07F02FFAC149086001275D
:10D6C0003FB1E06928B10021A182E1822046FFF745
:10D6D000D1F9BB49A0690968884272D0A18821812B
:10D6E000E1886181A069B0B1A569B648EB690D21F7
:10D6F000026828469847204600F07AFA00B186E78B
:10D7000000220221284604F021FF204600F070FA92
:10D7100000B17CE700BFAA480168A1610168E1612E
:10D72000006800286CD00DF0A7F9E06294F834008E
:10D7300020F0010084F8340094F82A0020F0010160
:10D7400084F82A1094F82A0020F0020184F82A10A4
:10D7500000212182618294F82A0020F01C000C3004
:10D7600084F82A0094F82A0020F0200184F82A1076
:10D770000021E1842185A181E181914805688846E5
:10D7800009E095F83400C0F3401000B1A8462846DF
:10D790000AF0BEF90546002DF3D1B8F1000F02D012
:10D7A00040460BF0D9F886480068C36985480B21CC
:10D7B0000268834800689847204600F019FA08B1CB
:10D7C00025E71DE0002211467D48006804F0BEFEFA
:10D7D000204600F00DFA00B119E77A48006890F889
:10D7E0005000C0F3C00000B111E7764800681C305B
:10D7F000FEF7DAFE204600F0FBF900B107E700BFB4
:10D80000A1882089081A01B2A181E1886089081ADB
:10D8100001B2E181B4F9140000EB8000C010A082D5
:10D82000B4F9160000EB8000C110E182B4F91400D5
:10D83000002804DAA08A401C01B2A18207E0B4F9F2
:10D840001400002803DDA08A401E01B2A182B4F9B1
:10D850001600002804DAE08A401C01B2E18207E0E9
:10D86000B4F91600002803DDE08A401E01B2E1820F
:10D87000A18AB4F90C00800001EBE00001B2A182A2
:10D88000E18AB4F90E00800001EBE00001B2E18210
:10D890004B48006800287DD049480068C369494862
:10D8A0000C210268464800689847204600F0A0F91D
:10D8B00000B1ACE6002201214148006804F046FEB8
:10D8C000204600F095F900B1A1E63E48006890F8C6
:10D8D0005000C0F3C00000B199E62046FEF722FFD9
:10D8E0002046FFF7E9FB204600F082F900B18EE602
:10D8F00094F82A00C0F3400078BB94F8340000F09C
:10D90000010050BBE06A0DF0A9F82E490968098BA7
:10D91000884222D92A480068C3692A480F21026830
:10D92000274800689847204600F062F900B16EE68B
:10D93000002204212248006804F008FE204600F07E
:10D9400057F900B163E694F8340020F00100401C60
:10D9500084F834000DF090F8206394F82A00C0F3A6
:10D960004000B8B994F8340000F0010090B1206B89
:10D970000DF074F813490968498B88421DD9104885
:10D980000068C3690F48102102680D480068984775
:10D99000204600E011E000F02BF900B137E600224C
:10D9A00005210748006804F0D1FD204600F020F969
:10D9B00000B12CE60DF060F8206300BF27E6000000
:10D9C000380000203400002070B5044694F834007C
:10D9D000C0F3C00058B10021A161E1610020E06204
:10D9E000206394F8340020F0080084F83400614982
:10D9F000A069086008460068002873D010215D48BF
:10DA000000680AF089FF002839D05A480068C369C5
:10DA100059480E210268574800689847204600F090
:10DA2000E7F800B170BD94F82A00C0F34000D0B907
:10DA300094F8340000F0010050B9002203214D4851
:10DA4000006804F083FD204600F0D2F800B1E9E759
:10DA5000002206214748006804F078FD204600F0C7
:10DA6000C7F800B1DEE7002207214248006804F051
:10DA70006DFD204600F0BCF800283FD0D2E73D48BD
:10DA80000068C3693C480E2102683A48006898471C
:10DA9000204600F0ADF800B1C4E794F8340000F07F
:10DAA000010078B994F82A00C0F3400050B9002270
:10DAB00003213048006804F049FD204600F098F842
:10DAC00000B1AFE794F82A00C0F3400058B9002233
:10DAD00006212848006804F039FD204600F088F847
:10DAE00008B19FE735E0002207212248006804F0D2
:10DAF0002DFD204600F07CF800B193E71D4800683A
:10DB0000FEF7C8F90546F5B1284609F013FED0B175
:10DB100094F82A00C0F34000A8B1E86920B10022BF
:10DB200012212846EB699847204600F061F800B1C1
:10DB300078E700220A21284604F008FD204600F07C
:10DB400057F800B16EE70021A1610020E062206378
:10DB500000BFE06960B194F83400C0F3400038B908
:10DB60002046FEF787FF204600F042F800B159E753
:10DB700000BF57E7380000203400002090F8501014
:10DB8000C1F34001002930D000224263826390F843
:10DB9000461021F0010280F8462090F8461021F04E
:10DBA000020280F8462090F8501021F0010280F81F
:10DBB000502000228264C2648285C28590F846109B
:10DBC00021F01C020C3280F8462000220286428698
:10DBD00042210A5244210A5290F8501021F00202C8
:10DBE00080F850200021014A116070473800002061
:10DBF000014691F83400C0F3400010B10020034A00
:10DC0000106091F83400C0F34000704738000020E5
:10DC10002DE9F04180460C46174638460EF07BFE53
:10DC200008B9BDE8F08100240CE0214640460AF026
:10DC300058F8064606B907E0706820F48060706006
:10DC4000601CC4B2402CF0DB00BF40240CE0214635
:10DC500040460AF046F8064606B907E0706820F428
:10DC600080607060601CC4B2FF2CF0DB00BF00213C
:10DC7000404609F063FC054607E0284611F032F9FA
:10DC80002946404609F05AFC0546002DF5D100BF53
:10DC9000C7E730B5024614460B4620881D88A842C7
:10DCA00003D020881D88401B30BD60885D88401BE4
:10DCB000FAE730B5024614460B4620781D78A84294
:10DCC00003D020781D78401B30BD60785D78401B04
:10DCD000FAE700001CB57A4800686C300CF04CFA8A
:10DCE00000221146764800686C300CF05EFB002084
:10DCF00002F05CFA502101EB8000A02190FBF1F0D2
:10DD0000012809DD002002F051FA502101EB8000CA
:10DD1000A02190FBF1F000E0012004B22246002196
:10DD2000674800686C300CF06AFA022200216448EF
:10DD300000686C300CF057FA00200190614890F8B0
:10DD4000200000F0020080B15E4890F8200000F052
:10DD5000020020B15C4801F095FD009007E06FF0F3
:10DD60007F4001F08FFD009001E0019800900021BC
:10DD70005348009A00686C300CF01EFA5148C08974
:10DD80000246042100904E4800686C300CF014FAF2
:10DD9000002002F00BFA00EB80005030A02190FB35
:10DDA000F1F0012809DD002002F000FA00EB80000C
:10DDB0005030A02190FBF1F000E0012004B2224697
:10DDC00000213F4800686C300CF0BFFA002002F0E0
:10DDD000EDF900EB80005030A02190FBF1F001281C
:10DDE00009DD002002F0E2F900EB80005030A021B4
:10DDF00090FBF1F000E0012004B2224600213048FF
:10DE000000686C300CF0ADFA002002F0CFF900EBA6
:10DE100080005030A02190FBF1F0012809DD0020A6
:10DE200002F0C4F900EB80005030A02190FBF1F02B
:10DE300000E0012004B222460021214800686C3035
:10DE40000CF09BFA002002F0B1F900EB800050309A
:10DE5000A02190FBF1F0012809DD002002F0A6F9D5
:10DE600000EB80005030A02190FBF1F000E0012099
:10DE700004B222460021124800686C300CF04DFAC2
:10DE8000002002F093F900EB40005030A02190FBFD
:10DE9000F1F0012809DD002002F088F900EB4000D4
:10DEA0005030A02190FBF1F000E0012004B22246A6
:10DEB0000021034800686C300CF03BFA1CBD0000E8
:10DEC0005001002078A30020423E3B0070474FF0F5
:10DED000C841088070474FF0CA410880704708B5B4
:10DEE000F2F76CFACF20F2F785FA0020F2F77CFA0D
:10DEF000C120F2F779FA3020F2F776FAED20F2F746
:10DF000079FA6420F2F770FA0320F2F76DFA122022
:10DF1000F2F76AFA8120F2F767FAE820F2F76AFA74
:10DF20008520F2F761FA1020F2F75EFA7A20F2F714
:10DF30005BFACB20F2F75EFA3920F2F755FA2C2083
:10DF4000F2F752FA0020F2F74FFA3420F2F74CFAC7
:10DF50000220F2F749FAF720F2F74CFA2020F2F704
:10DF600043FAEA20F2F746FA0020F2F73DFA0020E1
:10DF7000F2F73AFAC020F2F73DFA1B20F2F734FA32
:10DF8000C120F2F737FA0120F2F72EFAC520F2F796
:10DF900031FA3020F2F728FA3020F2F725FAC720BC
:10DFA000F2F728FAB720F2F71FFA3620F2F722FA32
:10DFB0004820F2F719FA3A20F2F71CFA5520F2F746
:10DFC00013FAB120F2F716FA0020F2F70DFA1A2030
:10DFD000F2F70AFAB620F2F70DFA0A20F2F704FA7D
:10DFE000A220F2F701FAF220F2F704FA0020F2F789
:10DFF000FBF92620F2F7FEF90120F2F7F5F9E0200F
:10E00000F2F7F8F90F20F2F7EFF92A20F2F7ECF91E
:10E010002820F2F7E9F90820F2F7E6F90E20F2F7E6
:10E02000E3F90820F2F7E0F95420F2F7DDF9A9202E
:10E03000F2F7DAF94320F2F7D7F90A20F2F7D4F928
:10E040000F20F2F7D1F90020F2F7CEF90020F2F715
:10E05000CBF90020F2F7C8F90020F2F7C5F9E1206A
:10E06000F2F7C8F90020F2F7BFF91520F2F7BCF972
:10E070001720F2F7B9F90720F2F7B6F91120F2F7F5
:10E08000B3F90620F2F7B0F92B20F2F7ADF95620DC
:10E09000F2F7AAF93C20F2F7A7F90520F2F7A4F964
:10E0A0001020F2F7A1F90F20F2F79EF93F20F2F7C6
:10E0B0009BF93F20F2F798F90F20F2F795F92B2002
:10E0C000F2F798F90020F2F78FF90020F2F78CF9B7
:10E0D0000120F2F789F93F20F2F786F92A20F2F7BA
:10E0E00089F90020F2F780F90020F2F77DF900208D
:10E0F000F2F77AF9EF20F2F777F91120F2F77AF9CF
:10E100007820F9F7D1F92920F2F774F9F2F756F9E6
:10E110004CF25030009004E0BDF80000401E80B288
:10E120000090BDF800000028F6DC08BD4FF0C842A2
:10E1300010804FF0CA42118070470000F8B5414886
:10E14000006870300CF018F8FF2200213D4800688C
:10E1500070300CF025F83C480021C268394800684E
:10E1600070300CF012F8022200213648006870303E
:10E170000CF045F87F2200213248006870300CF026
:10E1800026F84C213048C06801F0A6FB0246002169
:10E1900000902C48006870300CF00EF847F6FF72C3
:10E1A00000212848006870300CF0FFF8002001F0D2
:10E1B000FDFFC0EB00105030A02190FBF1F00128D2
:10E1C00009DD002001F0F2FFC0EB00105030A0216B
:10E1D00090FBF1F000E0012004B222460021194832
:10E1E000006870300CF026F917480021C268154805
:10E1F000006870300CF013F91248006800F17004E8
:10E200000025002001F0D2FF00EB80005030A0215B
:10E2100090FBF1F0012809DD002001F0C7FF00EBC1
:10E2200080005030A02190FBF1F000E0012006B208
:10E23000532040EA052132462046F5F725FA00BF73
:10E24000F8BD00005001002078A3002070472DE9A0
:10E25000F04F85B007468B4691461E460E9DE869F5
:10E2600000FB0BF080120490E86900280DDD049893
:10E27000484516DD95F82800C0F3400018B101208C
:10E2800005B0BDE8F08F0020FAE70498484508DAA9
:10E2900095F82800C0F3400008B10120F0E7002005
:10E2A000EEE70BEB0601E869484380120490E86949
:10E2B00000280BDD0498484514DA95F82800C0F3CF
:10E2C000400008B10020DBE70120D9E70498484569
:10E2D00008DD95F82800C0F3400008B10020CFE722
:10E2E0000120CDE7E869002806DD4FEA0920A96989
:10E2F00048438012039006E009F101000002A96979
:10E300004843801203900398001202900398C0B211
:10E310000190019810B94FF0FF0807E00198C0F193
:10E32000FF00696A4843FF21A1EB20280298A0EB77
:10E330000B040198D8B1002C18DBB44216DA01980E
:10E34000C0F1FF00C8F1FF014843FF21A1EB6020AD
:10E3500000F0FF0A95F82800C0F3400008B1CAF1A8
:10E36000FF0A385D51460DF0B0F93855641C1BE0CA
:10E37000002C12DBB44210DAA88CA8EB600000F08D
:10E38000FF0A95F82800C0F3400008B1CAF1FF0A5F
:10E39000385D51460DF099F93855686AA8EB0008C8
:10E3A000641CB44200DB02E0686A4045E0DB00BF69
:10E3B000B4421DDA002C1BDBA86900FB08F08012B8
:10E3C0000090009800FB08F0C0F3472AE869002895
:10E3D00001DACAF1FF0A95F82800C0F3400008B13D
:10E3E000CAF1FF0A385D51460DF06FF9385500BF8C
:10E3F00095F82800C0F3400068B10298A0EB0B0428
:10E40000B44201DD00203BE7002C0FDB21463846FB
:10E41000F4F79CF90AE0641C002C01DA00202FE7D5
:10E42000B44203DC311B3819F4F790F9022027E7D6
:10E430002DE9FF4F87B007468A461E46149DA869FE
:10E440000999484380120690A869002802DD0698C1
:10E45000401C0690069850450ADA95F82800C0F34B
:10E46000400018B101200BB0BDE8F08F0020FAE7A2
:10E47000A86909994843801206900AEB060106989C
:10E48000814208DA95F82800C0F3400008B1002066
:10E49000E9E70120E7E709980002A96948438012EB
:10E4A000059005984FEA202B0598C0B20490099872
:10E4B000401C0002A969484380120390039800128F
:10E4C00002900398C0B20190ABEB0A040298834516
:10E4D00009D0A869002806DA049820B9FF20049022
:10E4E000DDF808B0641E0298834534D1002C12DB9D
:10E4F000B44210DA019904980844C0F3470895F82B
:10E500002800C0F3400008B1C8F1FF08385D41465B
:10E510000DF0DBF83855641C95F82800C0F3400076
:10E5200060B1ABEB0A04B44201DB00209BE7002C96
:10E5300003DB21463846F4F709F9C9E0B44200DDAF
:10E5400034460CB900208EE7002CF6DD311B38195B
:10E55000F4F7FCF8BCE0A86900285ADAE869404200
:10E56000049948434FEAA029002C12DBB44210DA88
:10E57000049809FB00F0C0F3472895F82800C0F381
:10E58000400008B1C8F1FF08385D41460DF09DF824
:10E590003855641EC9F1FF00A969494248438012F9
:10E5A0000090002C16DBB44214DAC9F1FF00009988
:10E5B0004843FF21A1EB602000F0FF0895F82800F8
:10E5C000C0F3400008B1C8F1FF08385D41460DF0C6
:10E5D0007CF83855A41C95F82800C0F3400068B1B9
:10E5E000ABEB0A00441EB44201DD344610E0002CBF
:10E5F0000EDD21463846F4F7A9F809E0B44201DD02
:10E60000012030E7002C03DB311B3819F4F79EF8AA
:10E610005DE00498C0F1FF00E96948434FEAA02992
:10E62000002C17DBB44215DA0498C0F1FF0000FBA0
:10E6300009F0FF21A1EB602000F0FF0895F8280009
:10E64000C0F3400008B1C8F1FF08385D41460DF045
:10E650003CF83855641CC9F1FF00A9694843801291
:10E660000090002C13DBB44211DAC9F1FF000099CD
:10E670004843C0F3472895F82800C0F3400008B18C
:10E68000C8F1FF08385D41460DF01FF83855641C8D
:10E6900095F82800C0F3400060B1ABEB0A04B44227
:10E6A00001DD0020DFE6002C10DB21463846F4F7C0
:10E6B0004DF80BE0B44200DD34460CB90020D2E640
:10E6C000002C03DD311B3819F4F740F800BF00BF00
:10E6D0000220C8E638B58A48006874300BF04CFD5B
:10E6E00047F6FF7200218648006874300BF05DFE2B
:10E6F000002001F05BFD00EB8000502101EB800069
:10E70000A02190FBF1F001280BDD002001F04EFD6F
:10E7100000EB8000502101EB8000A02190FBF1F084
:10E7200000E0012004B222460021754800687430E0
:10E730000BF00BFE002001F039FD00EB80005021B2
:10E7400001EB8000A02190FBF1F001280BDD0020FF
:10E7500001F02CFD00EB8000502101EB8000A02196
:10E7600090FBF1F000E0012004B222460021644851
:10E77000006874300BF0F5FD002001F017FD00EB90
:10E780008000502101EB8000A02190FBF1F00128D6
:10E790000BDD002001F00AFD00EB8000502101EBB1
:10E7A0008000A02190FBF1F000E0012004B222469D
:10E7B00000215348006874300BF0DFFD002001F0A9
:10E7C000F5FCC0EB0010502101EB4000A02190FBB4
:10E7D000F1F001280BDD002001F0E8FCC0EB001097
:10E7E000502101EB4000A02190FBF1F000E001205E
:10E7F00004B2224600214248006874300BF099FDB3
:10E80000002001F0D3FC00EBC00101EB0010503000
:10E81000A02190FBF1F001280BDD002001F0C6FCE7
:10E8200000EBC00101EB00105030A02190FBF1F093
:10E8300000E0012004B22246002131480068743013
:10E840000BF0E1FD2F480021C2682D4800687430AC
:10E850000BF0F9FC2B480021C2682948006874308D
:10E860000BF0C6FD40F6880001F01AF802460021C0
:10E8700000902348006874300BF0A3FD002001F0E5
:10E8800095FC00EB8000502101EB4000A02190FBA3
:10E89000F1F001280BDD002001F088FC00EB800086
:10E8A000502101EB4000A02190FBF1F000E001209D
:10E8B00004B2224600211248006874300BF0DAFCE2
:10E8C000002001F073FCC0EBC0005030A02190FB91
:10E8D000F1F0012809DD002001F068FCC0EBC00068
:10E8E0005030A02190FBF1F000E0012004B222465C
:10E8F00000210348006874300BF06EFD38BD000045
:10E900005001002078A3002038B5FA48006878301C
:10E910000BF032FC01220021F648006878300BF041
:10E920007AFC00221146F348006878300BF00DFDA8
:10E9300000221146EF48006878300BF012FD0022EB
:10E940001146EC48006878300BF017FD00221146A4
:10E95000E848006878300BF0E0FC00221146E548FA
:10E96000006878300BF0E5FCE24800687C300BF082
:10E9700003FCFF220021DF4800687C300BF010FC14
:10E98000DD4890F8200000F0020028B16FF07F40D1
:10E9900000F078FF009003E0D84800F073FF00908B
:10E9A0000021D448009A00687C300BF0EEFBD2487E
:10E9B00090F8200000F0020020B1D14800F062FF82
:10E9C000009003E0CF4800F05DFF00901021C9489F
:10E9D000009A00687C300BF0D8FBC74890F8200004
:10E9E00000F0020028B16FF07F4000F04BFF009074
:10E9F00003E0C24800F046FF00902021BD48009A85
:10EA000000687C300BF0C1FBBB480121C268B948EB
:10EA100000687C300BF0B9FB3321B748C06800F0C8
:10EA2000D2FE024611210090B24800687C300BF003
:10EA3000ACFBB14890F8200000F0020020B1B248D1
:10EA400000F020FF009004E06FF07F4000F01AFF1C
:10EA500000900021A748009A00687C300BF002FD6E
:10EA6000A54890F8200000F0020028B16FF07F4028
:10EA700000F008FF009004E06FF07F4000F002FF1C
:10EA8000009001219B48009A00687C300BF0EAFC62
:10EA9000994890F8200000F0020028B140F6AA2022
:10EAA00000F0FEFE009004E040F6991000F0F8FE41
:10EAB000009020218F48009A00687C300BF0D2FC37
:10EAC0008D4890F8200000F0020020B18E4800F040
:10EAD000D9FE009004E06FF07F4000F0D3FE00907C
:10EAE00000218448009A00687C300BF0A0FB82482B
:10EAF00090F8200000F0020028B16FF07F4000F095
:10EB0000C1FE009004E06FF07F4000F0BBFE00907B
:10EB100001217848009A00687C300BF088FB764829
:10EB200090F8200000F0020028B140F6AA2000F082
:10EB3000B7FE009004E040F6991000F0B1FE00909E
:10EB400020216C48009A00687C300BF070FB012299
:10EB50000021684800687C300BF045FB664890F85F
:10EB6000200000F0020020B1684800F08BFE009009
:10EB700003E0674800F086FE009000215D48009A9F
:10EB800000687C300BF018FB5B480221C2685948D2
:10EB900000687C300BF010FB012200215548006812
:10EBA0007C300BF02CFB5448C089024602210090B7
:10EBB000504800687C300BF081FB4F4890F82000F3
:10EBC00000F0200008B1002015E0002001F0EEFA6E
:10EBD000502101EB4000A02190FBF1F0012809DD5C
:10EBE000002001F0E3FA502101EB4000A02190FB4E
:10EBF000F1F000E0012004B2224602213D48006805
:10EC00007C300BF07EFB002001F0D0FA502101EBAC
:10EC10004000A02190FBF1F0012809DD002001F067
:10EC2000C5FA502101EB4000A02190FBF1F000E07B
:10EC30000120404204B2224602212E4800687C3066
:10EC40000BF053FB002001F017FB012816DC00201D
:10EC500001F0ACFAC0EB00105030A02190FBF1F0B5
:10EC6000012809DD002001F0A1FAC0EB00105030AE
:10EC7000A02190FBF1F01BE0012019E0002001F041
:10EC800095FAC0EB0010502101EB4000A02190FB51
:10EC9000F1F001280BDD002001F088FAC0EB001034
:10ECA000502101EB4000A02190FBF1F000E0012099
:10ECB00004B2224600210F4800687C300BF045FB6F
:10ECC000002001F0D9FA012826DC002001F06EFABC
:10ECD000C0EB00105030A02190FBF1F0012819DDAD
:10ECE000002001F063FAC0EB00105030A02190FB2F
:10ECF000F1F02BE05001002078A30020736258004F
:10ED0000EEEEEE00574F4900423E3B00E3DDD600F9
:10ED1000978A8000012019E0002001F047FAC0EB3B
:10ED20000010502101EB4000A02190FBF1F00128E0
:10ED30000BDD002001F03AFAC0EB0010502101EB8E
:10ED40004000A02190FBF1F000E0012004B2224637
:10ED50000021C84800687C300BF003FB002001F064
:10ED60008BFA012816DC002001F020FAC0EB00101D
:10ED70005030A02190FBF1F0012809DD002001F0C6
:10ED800015FAC0EB00105030A02190FBF1F01BE011
:10ED9000012019E0002001F009FAC0EB0010502119
:10EDA00001EB4000A02190FBF1F001280BDD0020D9
:10EDB00001F0FCF9C0EB0010502101EB4000A02154
:10EDC00090FBF1F000E0012004B222460021A948A6
:10EDD00000687C300BF0D1FA002001F04DFA0128D8
:10EDE00016DC002001F0E2F9C0EB00105030A02149
:10EDF00090FBF1F0012809DD002001F0D7F9C0EB0C
:10EE000000105030A02190FBF1F01BE0012019E030
:10EE1000002001F0CBF9C0EB0010502101EB4000C5
:10EE2000A02190FBF1F001280BDD002001F0BEF9DC
:10EE3000C0EB0010502101EB4000A02190FBF1F04D
:10EE400000E0012004B2224600218A4800687C309C
:10EE50000BF063FA002001F00FFA012816DC002005
:10EE600001F0A4F9C0EB00105030A02190FBF1F0AC
:10EE7000012809DD002001F099F9C0EB00105030A5
:10EE8000A02190FBF1F01BE0012019E0002001F02F
:10EE90008DF9C0EB0010502101EB4000A02190FB48
:10EEA000F1F001280BDD002001F080F9C0EB00102B
:10EEB000502101EB4000A02190FBF1F000E0012087
:10EEC00004B2224600216B4800687C300BF031FA16
:10EED000002001F0D1F9012816DC002001F066F9CC
:10EEE000C0EB00105030A02190FBF1F0012809DDAB
:10EEF000002001F05BF9C0EB00105030A02190FB26
:10EF0000F1F01BE0012019E0002001F04FF9C0EB07
:10EF10000010502101EB4000A02190FBF1F00128EE
:10EF20000BDD002001F042F9C0EB0010502101EB95
:10EF30004000A02190FBF1F000E00120404204B22B
:10EF4000224600214B4800687C300BF0A4FA0020D8
:10EF500001F02CF9502101EB4000A02190FBF1F0D1
:10EF6000012809DD002001F021F9502101EB4000CA
:10EF7000A02190FBF1F000E00120404204B22246C3
:10EF800010213C4800687C300BF085FA002001F02D
:10EF90000DF9502101EB4000A02190FBF1F0012878
:10EFA00009DD002001F002F9502101EB4000A02111
:10EFB00090FBF1F000E00120404204B22246012122
:10EFC0002C4800687C300BF066FA002001F0EEF867
:10EFD000502101EB4000A02190FBF1F0012809DD58
:10EFE000002001F0E3F8502101EB4000A02190FB4C
:10EFF000F1F000E00120404204B2224620211D48E9
:10F0000000687C300BF047FA002001F0CFF8502167
:10F0100001EB4000A02190FBF1F0012809DD002068
:10F0200001F0C4F8502101EB4000A02190FBF1F069
:10F0300000E00120404204B2224602210D4800684F
:10F040007C300BF028FA002211460A4800687C3018
:10F050000BF051FA29220021064800687C300BF0A1
:10F060003EFA04220021034800687C300BF02BFAA2
:10F0700038BD00005001002070B50C200BF0ACFF33
:10F080001549086000BF01F08BF8054601F0DEF875
:10F090000446002107F0BCFE0F490968086001F032
:10F0A0007FF8064601F00CF9044601F079F80646AF
:10F0B00001F089F80546084909682246086829468A
:10F0C00009F0D0FE04490968086800210AF088F8B0
:10F0D00000F086F870BD00006401002070B58AB0B1
:10F0E00005460C4622460021284604F0D7F83C2C61
:10F0F00022DB002432480068401C31490860084681
:10F1000000680C2190FBF1F201FB120020B92D48A0
:10F110000068401C2B490860294800683C2802DB35
:10F12000002027490860274800683C2804DB0020AD
:10F1300024490860224908602148012102682846C4
:10F1400004F0ACF81F4802210268284604F0A6F833
:10F15000202102A8F1F740F81A480068052190FB29
:10F16000F1F00A2801DB18A000E018A0064631469D
:10F1700002A8F1F73CF8124800680A2801DB12A047
:10F1800000E012A0014602A8F1F731F80A2C01DBD9
:10F1900010A000E010A0014602A8F1F728F80948E5
:10F1A0000068052190FBF1F60C4900940968886815
:10F1B000034932460B6802A906F04EFE0AB070BD44
:10F1C000740100207001002025643A003025643A63
:10F1D0000000000025640000302564006401002068
:10F1E000F0B595B001A800F04DF900203C21079042
:10F1F0000890099100BF4EF660200A9000BF01A858
:10F200004FF6FF71018700BF00F0AAF96F48006850
:10F2100014906F48BDF8501001806C48001D0068C4
:10F2200013906B48BDF84C10418068480830006866
:10F2300012906748BDF848108180664909680868DF
:10F24000002103F029FC63490968486000201190FF
:10F250006048006800252E464468119800902920D7
:10F2600040EA062229462046009BF3F7ABFD00BF8B
:10F27000584800682F46446848F28C0040EA06224D
:10F280003B4629462046F3F7BAFD00BF51480068C7
:10F2900044689C2040EA06223B4629462046F3F774
:10F2A000AEFD00BF4B4800683C2644683246294604
:10F2B000204607F051FA00BF46480068B42544686C
:10F2C0002946204607F036FA00BF424909680D2357
:10F2D0003C224868690003F0B5FF3E4909683C4A92
:10F2E0004868032103F024FF3A490968FA22486874
:10F2F000114609F0B7FD374909684868012109F04E
:10F30000EBFC002033490090096800231A46486846
:10F31000194607F01DFC2F49096804231A4648685E
:10F320002D4903F067FF2B48006802250026FF27C0
:10F33000446848F2AD0040EA06223B462946204692
:10F34000F3F75DFD00BF234909680868002105F057
:10F3500081FC2049096888601E48006800252E4607
:10F360001E4F846848F28E0040EA06223B4629463A
:10F370002046F3F762FD00BF19A016490090096806
:10F3800017A318A2886818A106F066FD0020114A8C
:10F390000090126851680F4A1268002390680D228D
:10F3A00007F0D6FB0B4909682D224868022103F0BB
:10F3B00075FF084909684868019000BF0D48029030
:10F3C00000BF01A800F0CCF815B0F0BD04D50208CC
:10F3D0006801002064010020040C0020B40000201B
:10F3E000303000003039000025733A25733A257318
:10F3F00000000000DDF000082DE9F04107460D4651
:10F400004FF000081048F2F77BFD044617E0214654
:10F410000D48F2F78CFD06462068B8420ED16068B0
:10F42000A84200D055B921460748F2F75BFE2046B6
:10F4300007F0ECFAF5F7F2F84FF001083446002C2B
:10F44000E5D14046BDE8F0812822002070B5054690
:10F450000E460B48F2F754FD04460CE02068A84223
:10F4600004D16068B04201D1204670BD21460448F5
:10F47000F2F75DFD0446002CF0D10020F5E7000016
:10F480002822002070B5044640212046F3F75EF99B
:10F490004FF4FA7060620020A0616420206204F1E1
:10F4A00010010B4A04200B46154604E02E781E700E
:10F4B0005B1C6D1C401E0028F8D100BF0120208776
:10F4C00094F83A0020F00100401C84F83A0070BD26
:10F4D000E8D30208F8B507460C464FF48060009068
:10F4E00000231946D4E90920F2F741FE0646A16936
:10F4F000206A401A00FB06F5AD12A069054428B247
:10F50000F8BD4A428262704741607047416070476F
:10F5100001637047C160704701877047416270475F
:10F52000416270478161C161026270478161C1615E
:10F5300002627047016070470160704730B5034652
:10F540008D1A002D01DD8D1A00E0551A2C464FF45E
:10F550007A756543B5FBF3F000B9401C30BD00007F
:10F5600070B50546686818B1D5E90001FFF744FF9A
:10F570001D48F2F776FD18B10BF07EFA1B490860C2
:10F580001948F2F7F4FC044600BF204600F0DEFC08
:10F5900030B92246002316A000F0DEFC00BFFEE7D3
:10F5A00000BF04B970BD686AE8631548017895F832
:10F5B0003A0061F3820085F83A004022294620464D
:10F5C000F2F712FF94F83A0000F0010040B16068D1
:10F5D00030B1206820B1238B19B2D4E900029047E2
:10F5E000F5F71CF800BFDDE728220020D40000203A
:10F5F0004F7574206F66206D656D6F727900000025
:10F60000D900002070B504460D4608222946204640
:10F61000F3F726F870BDF0B5024613460C460820F5
:10F620001D46264604E037782F706D1C761C401E60
:10F630000028F8D100BFF0BD70B504460D46082281
:10F6400029462046F3F724F870BDF0B5024613466C
:10F650000C4608201D46264604E037782F706D1CA6
:10F66000761C401E0028F8D100BFF0BDF0B5024660
:10F6700013460C4608201D46264604E037782F70B6
:10F680006D1C761C401E0028F8D100BFF0BD01465D
:10F69000C8884A88801A401C00B270470146C88852
:10F6A0004A88801A401C00B270470146C8884A88C0
:10F6B000801A401C00B270470146C8884A88801AE8
:10F6C000401C00B270470146C8884A88801A401C16
:10F6D00000B270470146C8884A88801A401C00B2B0
:10F6E00070470146C8884A88801A401C00B270479B
:10F6F0000146C8884A88801A401C00B2704710B57D
:10F700000146B1F90420B1F90030D21A521CB1F906
:10F710000630B1F902401B1B5B1C02FB03F010BD5D
:10F72000014688880A88801A401C00B2704701464A
:10F7300088880A88801A401C00B270470146888871
:10F740000A88801A401C00B27047014688880A88DF
:10F75000801A401C00B27047014688880A88801AC7
:10F76000401C00B27047014688880A88801A401CF5
:10F7700000B27047014688880A88801A401C00B28F
:10F780007047014688880A88801A401C00B270477A
:10F79000014688880A88801A401C00B270470146DA
:10F7A00088880A88801A401C00B2704710B5029CF5
:10F7B000018042808380C48010BD42880A44521E6A
:10F7C00012B2C280704713B582B00C46002001907F
:10F7D0002246DDE9010100F04EFA0090BDF800106C
:10F7E000084604B010BD37B503461C4604F00305B7
:10F7F00025B1BDF804501D809B1C521EBDF804505D
:10F8000005EB0541184610E00160001D0160001D78
:10F810000160001D0160001D0160001D0160001DF0
:10F820000160001D0160001D103A102AECD803464B
:10F8300004E0BDF804501D809B1C521E002AF8D124
:10F840003EBD3CB50146C1F30740C1F30722CBB230
:10F85000DD08BDF8004065F3040495080094BDF888
:10F86000004065F34A14C5080094BDF8004065F3F4
:10F87000CF240094BDF800502C460194BDF804201C
:10F8800010463CBD38B50446E2B2C4F30721C4F3C8
:10F89000074000F04DF80090BDF80010084638BD54
:10F8A00038B5044604F00F05234665F31F131A46C6
:10F8B00004F0F003C4F3031543EA0501F02303EA5F
:10F8C0001413C4F3032543EA050000F031F8009057
:10F8D000BDF80010084638BD13B582B00C46074885
:10F8E000006801902246DDE9010100F0C4F90090B2
:10F8F000BDF80010084604B010BD0000F0D30208A7
:10F9000018B50346D408BDF8000064F304008C0861
:10F910000090BDF8000064F34A10DC080090BDF8C8
:10F92000000064F3CF200090BDF80040204618BDD1
:10F9300018B50346D408BDF8000064F304008C0831
:10F940000090BDF8000064F34A10DC080090BDF898
:10F95000000064F3CF200090BDF80040204618BDA1
:10F9600007B581B0BDF80800C00AC2F1FF014843E5
:10F97000BDF80410C90A01FB0200803000EBC01181
:10F9800001EBC030C00DBDF8001060F3CF21009135
:10F99000BDF80800C0F34510C2F1FF014843BDF8AF
:10F9A0000410C1F3451101FB0200803000EBC011CF
:10F9B00001EBC030C00DBDF8001060F34A1100919A
:10F9C000BDF8080000F01F00C2F1FF014843BDF878
:10F9D000041001F01F0101FB0200803000EBC01198
:10F9E00001EBC030C00DBDF8001060F304010091C0
:10F9F00000BF00BFBDF80010084604B000BD07B549
:10FA000081B0BDF80800C00AC2F1FF014843BDF84B
:10FA10000410C90A01FB0200803000EBC01101EBA9
:10FA2000C030C00DBDF8001060F3CF210091BDF8CB
:10FA30000800C0F34510C2F1FF014843BDF80410AF
:10FA4000C1F3451101FB0200803000EBC01101EB56
:10FA5000C030C00DBDF8001060F34A110091BDF830
:10FA6000080000F01F00C2F1FF014843BDF8041078
:10FA700001F01F0101FB0200803000EBC01101EB1F
:10FA8000C030C00DBDF8001060F30401009100BF4C
:10FA900000BFBDF80010084604B000BD07B581B036
:10FAA000BDF80800C00AC2F1FF014843BDF80410C8
:10FAB000C90A01FB0200803000EBC01101EBC0302D
:10FAC000C00DBDF8001060F3CF210091BDF8080013
:10FAD000C0F34510C2F1FF014843BDF80410C1F363
:10FAE000451101FB0200803000EBC01101EBC0307A
:10FAF000C00DBDF8001060F34A110091BDF8080078
:10FB000000F01F00C2F1FF014843BDF8041001F0EE
:10FB10001F0101FB0200803000EBC01101EBC0307F
:10FB2000C00DBDF8001060F30401009100BF00BFDC
:10FB3000BDF80010084604B000BD07B581B0BDF89F
:10FB40000800C00AC2F1FF014843BDF80410C90A09
:10FB500001FB0200803000EBC01101EBC030C00D92
:10FB6000BDF8001060F3CF210091BDF80800C0F38C
:10FB70004510C2F1FF014843BDF80410C1F345111F
:10FB800001FB0200803000EBC01101EBC030C00D62
:10FB9000BDF8001060F34A110091BDF8080000F0B4
:10FBA0001F00C2F1FF014843BDF8041001F01F011E
:10FBB00001FB0200803000EBC01101EBC030C00D32
:10FBC000BDF8001060F30401009100BF00BFBDF854
:10FBD0000010084604B000BD07B581B0BDF80800AC
:10FBE000C00AC2F1FF014843BDF80410C90A01FB75
:10FBF0000200803000EBC01101EBC030C00DBDF839
:10FC0000001060F3CF210091BDF80800C0F345104B
:10FC1000C2F1FF014843BDF80410C1F3451101FBD7
:10FC20000200803000EBC01101EBC030C00DBDF808
:10FC3000001060F34A110091BDF8080000F01F00A9
:10FC4000C2F1FF014843BDF8041001F01F0101FBA0
:10FC50000200803000EBC01101EBC030C00DBDF8D8
:10FC6000001060F30401009100BF00BFBDF8001058
:10FC7000084604B000BD07B581B0BDF80800C00A51
:10FC8000C2F1FF014843BDF80410C90A01FB02009C
:10FC9000803000EBC01101EBC030C00DBDF800108A
:10FCA00060F3CF210091BDF80800C0F34510C2F108
:10FCB000FF014843BDF80410C1F3451101FB0200E8
:10FCC000803000EBC01101EBC030C00DBDF800105A
:10FCD00060F34A110091BDF8080000F01F00C2F166
:10FCE000FF014843BDF8041001F01F0101FB0200B1
:10FCF000803000EBC01101EBC030C00DBDF800102A
:10FD000060F30401009100BF00BFBDF80010084679
:10FD100004B000BD07B581B0BDF80800C00AC2F14B
:10FD2000FF014843BDF80410C90A01FB02008030FE
:10FD300000EBC01101EBC030C00DBDF8001060F346
:10FD4000CF210091BDF80800C0F34510C2F1FF01BA
:10FD50004843BDF80410C1F3451101FB0200803097
:10FD600000EBC01101EBC030C00DBDF8001060F316
:10FD70004A110091BDF8080000F01F00C2F1FF0118
:10FD80004843BDF8041001F01F0101FB0200803060
:10FD900000EBC01101EBC030C00DBDF8001060F3E6
:10FDA0000401009100BF00BFBDF80010084604B078
:10FDB00000BD07B581B0BDF80800C00AC2F1FF015F
:10FDC0004843BDF80410C90A01FB0200803000EB73
:10FDD000C01101EBC030C00DBDF8001060F3CF21A1
:10FDE0000091BDF80800C0F34510C2F1FF0148437F
:10FDF000BDF80410C1F3451101FB0200803000EB97
:10FE0000C01101EBC030C00DBDF8001060F34A1105
:10FE10000091BDF8080000F01F00C2F1FF01484347
:10FE2000BDF8041001F01F0101FB0200803000EB5F
:10FE3000C01101EBC030C00DBDF8001060F304012B
:10FE4000009100BF00BFBDF80010084604B000BD1F
:10FE500007B581B003461888BDF80810C90A01FB30
:10FE60000200803000EBC01101EBC030C00DBDF8C6
:10FE7000001060F3CF2100915888BDF80810C1F33D
:10FE8000451101FB0200803000EBC01101EBC030D6
:10FE9000C00DBDF8001060F34A1100919888BDF8BC
:10FEA000081001F01F0101FB0200803000EBC011BF
:10FEB00001EBC030C00DBDF8001060F304010091EB
:10FEC00000BF00BFBDF80010084604B000BD07B574
:10FED00081B003461888BDF80810C90A01FB02006A
:10FEE000803000EBC01101EBC030C00DBDF8001038
:10FEF00060F3CF2100915888BDF80810C1F3451177
:10FF000001FB0200803000EBC01101EBC030C00DDE
:10FF1000BDF8001060F34A1100919888BDF80810F0
:10FF200001F01F0101FB0200803000EBC01101EB6A
:10FF3000C030C00DBDF8001060F30401009100BF97
:10FF400000BFBDF80010084604B000BD014609B16D
:10FF5000012070470020FCE72DE9F047C0B0814642
:10FF6000174698464846F0F74EF905464FF0040A02
:10FF7000E62D2AD26C462A4649462046F2F734FA44
:10FF80002C4420202070641C28202070641C302009
:10FF90002070641C78202070641C0120C0EB4A0093
:10FFA00046B20AE0B10027FA01F101F00F0008495A
:10FFB000095C2170641C701E46B2002EF2DA292002
:10FFC0002070641C0020207000BF40B0BDE8F087A6
:10FFD000F2D302082DE9F04104460F4615461E46AD
:10FFE00024212046F2F7B2FB276065602068A060FC
:10FFF000E660BDE8F081000038B5044634212046B3
:020000040801F1
:10000000F2F7A4FB0020E060F02020804FF4A07005
:10001000608000206060A06820F00600A060A068FA
:1000200020F00800A0600A4800680090BDF80000B9
:1000300020868221A06861F30D10A060A06820F0E6
:100040000100401CA0600020A062E062606138BD39
:10005000E0D30208F8B505464448F1F788FF0446A6
:1000600074B900BF2046FFF771FF30B92246002364
:100070003FA0FFF771FF00BFFEE700BF0020F8BD03
:100080004FF4C4712046F2F761FB34222946204622
:10009000F2F7AAF94C2104F13800F1F760FF0020D3
:1000A000C4F884013648006808B93548046034480B
:1000B00006680460234603221E2132480AF03EFAF5
:1000C000606300BF606BFFF741FF38B9616B0A46A0
:1000D000002327A0FFF740FF00BFFEE700BF606BD3
:1000E00008B90020CBE70021D4F8800161F3194062
:1000F000C4F880010020C4F88401234800680090FF
:10010000BDF80000A4F85A000020E065FF2084F844
:1001100060000020A064084606F07AFE60640021BA
:10012000084606F075FE20650021084606F070FEC0
:1001300060650021206D08F086FD0021606D08F0EB
:1001400082FD0021206D08F08BFD0021606D08F01C
:1001500087FD606C08F02CFB09480660606B0AF0B4
:1001600097FB204600F0D0F8204688E7F8210020D1
:100170004F7574206F66206D656D6F727900000099
:10018000C8000020950E0008E4D302080021426850
:1001900091614268D161704701464868704700002C
:1001A0000148006870470000C800002000B5014603
:1001B00011B9FFF7F5FF014609B9822000BD088992
:1001C000C0F30910FAE700B5014611B9FFF7E8FFDF
:1001D000014609B9F02000BD087AC0F341000128AA
:1001E00002D0032804D100E000BFB1F90200F2E719
:1001F000B1F90000EFE70146D1F88001C0F30940F2
:10020000704710B5044614B9FFF7CAFF04460CB98D
:10021000002010BD606DFCE710B5044614B9FFF76F
:10022000BFFF04460CB9002010BD206DFCE70000A4
:1002300010B504461CB90448F1F762FE10BD214612
:100240000148F1F774FEF9E7F821002010B50446E3
:1002500014B9FFF7A5FF04460CB9002010BD606C6F
:10026000FCE710B5044614B9FFF79AFF04460CB931
:10027000002010BDA06CFCE710B5034613B9FFF7D2
:100280008FFF03460BB9F02203E01846FFF79BFFF0
:1002900002461846FFF78AFF044602EB8200400040
:1002A000B0FBF4F21E2A01D2002010BD322A01D286
:1002B0000120FAE7462A01D20220F6E70320F4E7FC
:1002C00000B5014611B9FFF76BFF014611B94FF4B4
:1002D000A07000BD087AC0F34100012802D00328B5
:1002E00004D100E000BFB1F90000F2E7B1F902006B
:1002F000EFE701464868006820B14868406808B1E7
:10030000012070470020FCE700B5024610885188A4
:1003100010FB01F31046FFF7ECFF28B15068C068EE
:10032000984201D1012000BD0020FCE72DE9F04FEB
:10033000BBB08046894617461C46449E469D287A97
:10034000022802DC3BB0BDE8F08F688800B9F9E70D
:10035000B44200D1F6E7B5F902A0BA4501DD0FFAC3
:1003600087FA26A802F0A2F847F6FF70ADF89800C9
:1003700000208DF8A400287A8DF8AC002888ADF80C
:10038000A600ADF8A8A0687A00F003008DF8AD00D3
:10039000A8EB070000B2ADF89000A9EB070000B28F
:1003A000ADF8920008EB0700401E00B2ADF89400D3
:1003B00009EB0700401E00B2ADF8960004F5B470DA
:1003C000B04203D006F5B470844205D126AA24A811
:1003D000459902F03BF8B5E7B4F5B47F02DBA4F52C
:1003E000B47084B2B6F5B47F02DBA6F5B47086B201
:1003F00030B223B24A464146009009A801F0BEFA45
:10040000002109A801F084F80890A64203DD301B02
:10041000C0F5B47B01E0A4EB060BBBF13C0F2FDD74
:100420000A2F2DDDADF80480ADF8069038B2ADF896
:100430000800ADF80A40ADF80C605A2094FBF0F0CB
:1004400000F00300ADF80E005A2096FBF0F000F02B
:100450000300ADF81000ADF812A026A8059024A85E
:1004600006904598079001A8F9F732F901A8F9F725
:1004700032FA01A8F9F738FB01A8F9F742FC04E0C9
:1004800026AA24A8459901F0E1FF089801F0CCFFC5
:10049000687AC0F3800020B9687AC0F3C0000028F1
:1004A0005ED02888ADF89A00287A8DF8A400687A82
:1004B00000F003008DF8A5000020ADF8A800687AD0
:1004C000C0F3800018B30AF0FF0206AB39B220B2C5
:1004D000FBF780FEBDF81800404400B2ADF81800EC
:1004E000BDF81C00404400B2ADF81C00BDF81A0075
:1004F000484400B2ADF81A00BDF81E00484400B2EE
:10050000ADF81E0026AA06A8459901F09FFF687A5B
:10051000C0F3C00018B30AF0FF0206AB39B230B224
:10052000FBF758FEBDF81800404400B2ADF81800C3
:10053000BDF81C00404400B2ADF81C00BDF81A0024
:10054000484400B2ADF81A00BDF81E00484400B29D
:10055000ADF81E0026AA06A8459901F077FF00BF56
:1005600000BFEFE62DE9F0410746884615461E46D6
:1005700035B90DA2414638460BF0A0FFBDE8F08129
:100580003078022800DCF9E733462A4641463846EF
:1005900004F0E8F804462CB903A2414638460BF0B3
:1005A0008DFFEBE700BFE9E74E6F0A6461746100FD
:1005B00038B5044610212046F2F7C8F80020009014
:1005C000BDF80000A081FF202070401C2081012088
:1005D000E07338BD2DE9FF4FB7B0814614461E4683
:1005E000449F207B022802DC3BB0BDE8F08FD4F8AA
:1005F00008A0307800B9F7E7494634A8389AF0F7F0
:100600006BF93390339800B9EEE794F8210000F0CD
:10061000020020B94846FFF79FF8369013E094F89F
:10062000210047F61842B4F90E10CDE900120290ED
:10063000B4F9103031460AA8A268F3F71BFABDF9E5
:100640002800369000BF00BFBAF908003290B4F914
:100650000E1032980844319000203090B9F8000014
:10066000ADF8BC00B9F80200ADF8BE0000202E9035
:100670002D90B4F91C002E90B4F91E002D90BDF8F9
:10068000BE102D98084400B2ADF8BE000025681ECB
:100690002C90FFB12D98E8B9B9F90200002819DAB9
:1006A000B9F90210B868401A002804DDB9F902103F
:1006B000B868401A03E0B9F90200B968401A3199E4
:1006C0004900C1F58061884202DD4FF0FF3038609B
:1006D00038682C9057B12C98002807DB2C9DBDF86A
:1006E000BE00B988084400B2ADF8BE0094F82100FD
:1006F0000090B4F91020701936990BB25146F3F7F7
:100700003FF900EB050829E0454694F821000090E8
:10071000B4F91020701936990BB25146F3F730F93D
:100720008044BDF8BE103198084400B2ADF8BE0058
:100730008FB1BDF9BE0010F5806F0CDB3868002862
:1007400009DA3D60BDF9BE00B9F90210401A7860BF
:10075000B9F90200B860705D00B945E7BDF9BE1097
:10076000329801443898B0F902008142CCDB94F809
:10077000210000F00400D8B194F821000090B4F9F1
:100780001030A8EB050170195246F3F7E3F93090E9
:100790004846FEF7E1FF3099A0EB010B0BEBDB7055
:1007A000BDF8BC1001EB600000B2ADF8BC001BE06E
:1007B00094F8210000F00800B0B194F821000090F6
:1007C000B4F91030A8EB050170195246F3F7C2F9DD
:1007D00030904846FEF7C0FF3099401ABDF8BC1073
:1007E000084400B2ADF8BC00207B2B9060692A90D1
:1007F000A1692991DDE92910884204D92A9829990B
:100800002A91299000BF94F8220000F0010020B93D
:1008100094F8220000F00200C8B126A800F095FB71
:100820002088ADF898009AF80E0010B19AF90E00E1
:1008300000E00120ADF89A00207B8DF8A00094F82C
:1008400023109DF8A10061F301008DF8A1000020A4
:10085000259023900CA801F029FEA088ADF8320065
:10086000BDF9BC000B90C4E1BDF8BC102E98084443
:1008700000B2ADF8BC0000202590249070190A90B9
:1008800003E1002009904FF6FF712A98884209D0B1
:100890002998884206D0249829183046D84A1268E8
:1008A0009047099024A9D74A0A981268904708905F
:1008B000249A0A9988180021D24A12689047079012
:1008C00094F8210000F0010000287DD0CEA001782E
:1008D0000898814212D1259820B9249823900120AC
:1008E0002590D2E02598012802D10020259005E02E
:1008F0002598022802D100202590C6E025980128DD
:1009000068D10898202864D1DDE92301081A072856
:100910005BD104A9DDF88CC00A9B03EB0C02062016
:100920000B46944607E09CF800B083F800B05B1CCF
:100930000CF1010C401E0028F5D100BF8DF8160007
:100940009DF81100FBF7C6FD83469DF81000FBF7EC
:10095000C1FD0BEB001303939DF81300FBF7BAFDE9
:1009600083469DF81200FBF7B5FD0BEB00130293D5
:100970009DF81500FBF7AEFD83469DF81400FBF7CC
:10098000A9FD0BEB00130193039BD8B2029BD9B2D4
:10099000019BDAB24FEAD20CBDF800306CF30403CD
:1009A0004FEA910C0093BDF800306CF34A134FEA04
:1009B000D00C0093BDF800306CF3CF230093BDF84A
:1009C00000C06346229302E004E0208822900220C7
:1009D00025905AE0206806902598022801D1229897
:1009E00006905046DDE9072101F03EFF21904FF6C9
:1009F000FF712A9888422CD02998884229D02A99B8
:100A00000998884225D329990998884221D2BDF8AE
:100A1000BC00ADF81000BDF8BE00ADF81200BDF886
:100A2000BC1021980844218A0844401E00B2ADF849
:100A30001400BDF8BE1031980844401E00B2ADF855
:100A400016000CAA04A8389901F000FD60880690F1
:100A500000BF94F823002B99CDE90110BDF81800D0
:100A6000ADF8000052462FA8089B389900F0F4F822
:100A70002198002808DDBDF8BC10228A2198104476
:100A8000084400B2ADF8BC0000BFA8EB05002499F3
:100A900088423FF6F6AE94F8220000F0020020B340
:100AA0000B9800B2ADF82400A268B2F9081001EB6F
:100AB000D172BDF8BE3003EB6202BDF99A0000EBC3
:100AC000D07302EB630212B2ADF82620BDF8BC0071
:100AD000ADF82000BDF82600ADF8220026AB08A92D
:100AE00009A8389A00F037F900BF94F8220000F006
:100AF000010000B30B9800B2ADF82400BDF8BE00B1
:100B0000A16809890844A1684989401A9AF90D1019
:100B1000401A00B2ADF82600BDF8BC00ADF82000C8
:100B2000BDF82600ADF8220026AB08A909A8389A1E
:100B300000F011F900BF454694F821000090B4F987
:100B40001020701936990BB25146F2F719FF804404
:100B5000B9F80000ADF8BC0094F8210000F00400E2
:100B6000D8B194F821000090B4F91030A8EB050139
:100B700070195246F2F7EEFF30904846FEF7ECFD52
:100B80003099A0EB010B0BEBDB70BDF8BC1001EB57
:100B9000600000B2ADF8BC001BE094F8210000F04A
:100BA0000800B0B194F821000090B4F91030A8EB1F
:100BB000050170195246F2F7CDFF30904846FEF716
:100BC000CBFD3099401ABDF8BC10084400B2ADF816
:100BD000BC00BDF8BE103198084400B2ADF8BE00AC
:100BE000BDF9BE103898B0F90600814200DDFBE483
:100BF00000BF705D00287FF437AE00BFF4E4000052
:100C00004401002038010020230000003EB50446C6
:100C100024212046F1F79AFDFF2020730020029046
:100C2000BDF8080020800A48A0604FF6FF706061A0
:100C3000A06100200190BDF80400608005480068B4
:100C40000090BDF80000A080002084F820003EBD88
:100C50008400002008F101082DE9FF4F87B082468B
:100C60000C461546DDF85490B9F1020F02DA0BB0CC
:100C7000BDE8F08FB9F1FD0F01DD4FF0FF0905B9B7
:100C8000F5E7002304A928460A9A01F081FD83466E
:100C9000BBF1000F00D1EAE7BDF8140010B1BDF8B8
:100CA000120000B9E3E7BAF90000BDF916104618C2
:100CB000B5F90800B5F90A10401ABAF9021008444B
:100CC000BDF81410401ABDF91810471ABDF81200EB
:100CD0003044B4F9001088420EDBB4F90400B0428D
:100CE0000ADBBDF814003844B4F90210884203DB73
:100CF000B4F90600B84200DAB9E728460A9901F0CB
:100D00003FFD8046B8F1000F00D1B0E7287B00F02E
:100D1000030078B11698CDE90290BDF85000ADF807
:100D20000400234604AA39B230B2CDF80080F7F7A8
:100D300017FC0EE01698CDE90290BDF85000ADF812
:100D40000400234604AA39B230B2CDF80080F7F788
:100D50006FFA00BF8BE72DE9F0479AB004460D46C5
:100D600092461E46708810B91AB0BDE8F087307AF6
:100D7000022800DCF8E7B4F90000B5F90010884259
:100D800006D1B4F90200B5F90210884200D1EBE7B0
:100D9000B4F90010B5F90020914202DAB4F900105C
:100DA00001E0B5F90010B6F9020000EBD072A1EB3A
:100DB000620109B2ADF86010B4F90010B5F9002075
:100DC000914202DDB4F9001001E0B5F90010B6F966
:100DD000020000EBD07201EB620109B2ADF86410C1
:100DE000B4F90210B5F90220914202DAB4F9021006
:100DF00001E0B5F90210B6F9020000EBD072A1EBE8
:100E0000620109B2ADF86210B4F90210B5F902201E
:100E1000914202DDB4F9021001E0B5F90210B6F911
:100E2000020000EBD07201EB620109B2ADF866106E
:100E3000524618A918A8EFF74FFD8146B9F1000FE7
:100E400000D191E7B4F90200B5F90210884206D149
:100E5000334618AA29462046F7F7BAFD12E0B4F93E
:100E60000000B5F90010884206D1334618AA294679
:100E70002046F8F743F905E0334618AA29462046EC
:100E8000F7F7D6FE707AC0F3C00020B9707AC0F3CD
:100E90008000002857D003A801F008FB3088ADF887
:100EA0000E0047F6FF70ADF80C00307A8DF8180090
:100EB000B6F902004710B07800F0010080F0010898
:100EC000707AC0F38000E0B12088C01B00B2ADF89A
:100ED00004006088C01B00B2ADF8060020883844CA
:100EE000A0EB080000B2ADF8080060883844A0EB21
:100EF000080000B2ADF80A0003AA514601A801F0AB
:100F0000A5FA707AC0F3C000E0B12888C01B00B217
:100F1000ADF804006888C01B00B2ADF80600288850
:100F20003844A0EB080000B2ADF8080068883844E7
:100F3000A0EB080000B2ADF80A0003AA514601A8D0
:100F400001F084FA00BF00BF0EE738B504460A215D
:100F50002046F1F7FBFB01206080FF20207200207B
:100F60000090BDF80000208038BD00002DE9FF4F43
:100F7000B1B082461C46DDF8FC902FA83299FEF7EE
:100F80005BFBF1F779FF2E902E98FFF705F92D9076
:100F90002D9800F11006BDF8BC003188401A00B24F
:100FA000ADF8BC00BDF8BE007188401A00B2ADF8C3
:100FB000BE00BDF8C0003188401A00B2ADF8C000D4
:100FC000BDF8C2007188401A00B2ADF8C20000F04E
:100FD0008DFD2C902C98C8B96088B8B92089B0F5DF
:100FE000807F13D13E9888B9B9F1000F0ED1A07A55
:100FF00060B9A07B217801220023CDE90021029075
:101000005146DDE93202EFF7A3FE7DE2B9F1000FB0
:1010100001D0032000E0022083465046FEF795FBF6
:101020002A9033982990BAF90200B6F90210401AB2
:10103000BDF9BE10091A2A984143299801FB0B00FB
:101040002990BAF90000B6F90010401ABDF9BC1099
:10105000091A299801FB0B002990FE4800682B9083
:101060002B9827900025BDF8BC003188084400B2B9
:10107000ADF894002FA8FEF768FBBDF89410084463
:10108000401E00B2ADF898007088BDF8BE1008444C
:1010900000B2ADF89600BDF89600ADF89A002FA802
:1010A000FEF70AFB24902FA8FEF74FFB23906088E1
:1010B00018B92089B0F5807F01D0012000E0002020
:1010C00022902C9800287DD122980028FBD13E98B0
:1010D0000028F8D1A07A0028F5D1B9F1000F71D01D
:1010E0002E98FFF770F821902FA8FEF708FB2199A2
:1010F000884201D9219802E02FA8FEF700FB20903A
:1011000020994800F1F772F807462098F1F76EF839
:101110001F9000201D9047E0DDF8A48000201E9065
:1011200011E098F802001F99485538B198F800105E
:1011300098F8012001EB022127F815101E98401C99
:101140001E90D8446D1C23991E988842E9DBDDE986
:10115000290101FB0B0029902FA8FEF7F6FA41198F
:101160002098814206D2BDF89A00401C00B2ADF82A
:101170009A0016E0A07B21780222CDE9002102909E
:101180003A4625A91F9B3298EFF7E2FDBDF89A0079
:10119000401C00B2ADF89600BDF89600ADF89A007C
:1011A00000251D98401C1D9024991D988842B3DB92
:1011B000BDF99600BDF99A10884213D0BDF89A0087
:1011C000401E00E015E000B2ADF89A00A07B217847
:1011D0000222CDE9002102903A4625A91F9B3298B0
:1011E000EFF7B6FD1F98F1F7B1F83846F1F7AEF812
:1011F00089E12E98FEF7E7FF21902FA8FEF77FFAEE
:101200002199884201D9219802E02FA8FEF777FAA8
:10121000209020994800F0F7E9FF1F902098F0F700
:10122000E5FF07464C210CA8F1F790FA229890B3FD
:1012300004200490B9F1000F02D00520049003E0CF
:101240003E9808B106200490608800B2ADF83C00DA
:101250002089ADF83E0033980C902A9800B2ADF882
:1012600034005046FEF728FAADF8360004988DF8A1
:101270004200A088ADF83800E088ADF83A00A089B7
:10128000ADF84000E07B00F001008DF843000CA8B1
:10129000F0F742FB00BF00200A900B90A07AC0F14B
:1012A000FF000990A07AC8B1A2890492A07A0AA985
:1012B000BDF81020D20A12FB00F20A80BDF81020FF
:1012C000C2F3451212FB00F24A80BDF8102002F072
:1012D0001F0212FB00F28A8000BF00BFB9F1000FAD
:1012E00007D13E9828B9608818B92089B0F5807F69
:1012F00001D0022000E0012008902C9818B1384657
:101300002099F1F75AFAB6F90200BDF9BE10084467
:10131000BAF90210401A059000200690CFE0DDF8DF
:10132000A4800495B6F90000BDF9BC100844BAF9D0
:101330000010401A0390002007904AE02298B8B1AC
:10134000DDE90503184402B2079B0398184401B273
:101350000CA8F0F75DF80290029810B900207855BB
:1013600032E00CA8807D7855BDF8440028901DE03F
:10137000B9F1000F05D098F80200785500B923E0C4
:1013800001E0FF20785598F8000098F8011000EB74
:10139000012080B228903E9840B1BDF8A000BDF871
:1013A0009C10884202D1002078550DE0A07A28B127
:1013B0000AA8099A2899FEF78AFD2890BDF8A0107E
:1013C0001F9820F8151000BF0798401C0790D844BC
:1013D0006D1C239907988842B0DB2C9850B32FA836
:1013E000FEF7B3F90190BDF8BEC0069B9C442D9B4F
:1013F0005B8A63441AB2BDF8BCC02D9B1B8A634450
:1014000019B2049BF818019B00F044FB029002986B
:1014100058B92FA8FEF799F9019004997818019905
:10142000F1F794F90220089003E00298022800D115
:10143000089000BFDDE9291000FB0B1029902FA8B0
:10144000FEF783F941192098814209D2BDF89A002C
:10145000401C01E0E0EF010800B2ADF89A002BE07B
:10146000A07B2178089A3B46CDE90021029025A96E
:101470001F9A3298EFF76CFCBDF89A00401C00B23E
:10148000ADF89600BDF89600ADF89A000025B9F1C8
:10149000000F07D13E9828B9608818B92089B0F5A7
:1014A000807F01D0022000E0012008902C9818B124
:1014B00038462099F1F781F90698401C0690249946
:1014C00006988842FFF62BAFBDF99610BDF99A0039
:1014D000814211D0BDF89A00401E00B2ADF89A00CA
:1014E000A07B2178089A3B46CDE90021029025A9EE
:1014F0001F9A3298EFF72CFC3846F0F727FF1F9819
:10150000F0F724FF00BF00BF35B0BDE8F08F00004A
:1015100002460B46002106E00B4850F8310000B9A6
:1015200003E0481CC1B21029F6DB00BF102902DB22
:101530004FF0FF307047044840F8312000EBC10005
:1015400043600846F6E70000D82200202DE9F04F5E
:1015500087B081468A4616461D46109CB4F90A009B
:10156000301A0690B4F90800AAEB00000590B4F90F
:101570000C00B4287EDAB4F90E00B428FADAA08997
:10158000002877D0E0890028FBD0B4F90C10B4F91A
:101590000E0081426EDDB4F90A00B04203DD012085
:1015A00007B0BDE8F08F606D069948438012049043
:1015B000A16A0698401C41434FEAA128B4F90C00E7
:1015C000B0F5877F0ADDB4F90C00B0F5B47F05DA19
:1015D000B8F1000F02DA4FF000081BE0B4F90C007C
:1015E000002809DDB4F90C005A2805DCB8F1000F19
:1015F00002DA4FF000080DE0B4F90C005A2809DDBA
:10160000B4F90C00B0F5877F04DAB8F1000F01DD02
:101610004FF00008B4F90E00B0F5877F0ADDB4F989
:101620000E00B0F5B47F05DAB8F1000F02DA4FF022
:1016300000081BE0B4F90E00002809DDB4F90E0023
:101640005A2805DCB8F1000F02DA4FF000080DE06F
:10165000B4F90E005A2809DDB4F90E00B0F5877F01
:1016600004DAB8F1000F01DD4FF000080498A0EB98
:10167000080000E042E0401003904FF0010B012011
:101680000290039808EB000105980F1AAF4200DDA5
:101690002F46002F10DD04F110003BB232465146B8
:1016A0000090484600F032FA8346BBF1000F03D1A8
:1016B00039464846F1F74AF8AF4200DD2F46002F81
:1016C00000DA002704F13C00EA1B13B20AEB070220
:1016D00011B2009009EB0700324600F017FA0290B1
:1016E000029820B9E91B09EB0700F1F72FF80298DF
:1016F000834501D1584653E7022051E7B4F90C0065
:10170000B4287DDDB4F90E00B428FADDB4F90C106C
:10171000B4F90E008142F4DDB4F90A00B04201DAF6
:1017200001203DE7606D0699484380120490A16A4C
:101730000698401C41434FEAA128B4F90C00B0F5CB
:10174000877F0ADDB4F90C00B0F5B47F05DAB8F193
:10175000000F02DA4FF000081BE0B4F90C0000287B
:1017600009DDB4F90C005A2805DCB8F1000F02DAE3
:101770004FF000080DE0B4F90C005A2809DDB4F967
:101780000C00B0F5877F04DAB8F1000F01DD4FF0EF
:101790000008B4F90E00B0F5877F0ADDB4F90E0039
:1017A000B0F5B47F05DAB8F1000F02DA4FF00008A7
:1017B0001BE0B4F90E00002809DDB4F90E005A2828
:1017C00005DCB8F1000F02DA4FF000080DE0B4F9C3
:1017D0000E005A2809DDB4F90E00B0F5877F04DA4F
:1017E000B8F1000F01DD4FF000080498A0EB0800ED
:1017F000401003904FF0010B01200290039800E08D
:101800003BE008EB000105980F1AAF4200DD2F46C0
:10181000002F10DD04F13C003BB2324651460090EF
:10182000484600F073F98346BBF1000F03D13946F7
:101830004846F0F78BFFAF4200DD2F46002F00DA5D
:10184000002704F11000EA1B13B20AEB070211B2E1
:10185000009009EB0700324600F058F90290029818
:1018600020B9E91B09EB0700F0F770FF02988345E8
:1018700001D1584694E6022092E60127B846B4F911
:101880000C00B42806D1B4F90A00B04200DD27E00C
:10189000032725E0A08938B9B4F90A00B04201DD78
:1018A00003271DE001271BE0B4F90C00B42803DA7C
:1018B000B4F90A00B04207DCB4F90C00B42805DD25
:1018C000B4F90A00B04201DC032709E004F110007A
:1018D0002B46324651460090484600F017F907461D
:1018E000B4F90E00B42809D1B4F90A00B04202DDFF
:1018F0004FF003082BE04FF0010828E0E08948B9D9
:10190000B4F90A00B04202DD4FF001081FE04FF0C9
:1019100003081CE0B4F90E00B42803DAB4F90A0095
:10192000B04207DCB4F90E00B42806DDB4F90A00B1
:10193000B04202DC4FF0030809E004F13C002B4602
:10194000324651460090484600F0E0F8804617B114
:10195000B8F1000F01D1002022E6032F04D1B8F125
:10196000030F01D100201BE6012F04D1B8F1010FB4
:1019700001D1012014E6022012E600002DE9F84F03
:101980000646894692461C460A9D002C01DA002430
:1019900004E0B4F5B47F01DB40F26714002D01DAF6
:1019A000002504E0B5F5B47F01DB40F26715A542E0
:1019B00005DAC4F5B4702844A6F8680007E0281BCF
:1019C000002801DD281B00E0601BA6F86800B48138
:1019D000F581A6F80890A6F80AA0214830600120F9
:1019E0003071002C03DBB42C01DA00270EE0B42C9C
:1019F00004DBB4F5B47F01DA012707E000BF22461B
:101A0000002318A0FEF7A8FA00BFFEE7002D04DBB4
:101A1000B42D02DA4FF001080FE0B42D05DBB5F567
:101A2000B47F02DA4FF0000807E000BF2A46002327
:101A300012A0FEF791FA00BFFEE723465246494640
:101A400006F11000009700F0F7F82B465246494681
:101A500006F13C00CDF8008000F0EEF8BDE8F88F0C
:101A60004D150108556E6578706563746564207363
:101A7000746172745F616E676C650000556E6578A5
:101A800070656374656420656E645F616E676C6524
:101A9000000000002DE9F84F0746884691469A4617
:101AA0004FF0000B104C15E02568012620680090CF
:101AB00053464A4641463846D5F800C0E0470646F8
:101AC00016B90020BDE8F88F022E01D14FF0010BAE
:101AD000083400BF20680028E6D1BBF1000F01D018
:101AE0000220EFE70120EDE7D822002000200021AE
:101AF00007E0054A52F831200AB1421CD0B24A1C14
:101B0000D1B21029F5DB7047D82200202DE9F84F1B
:101B100082460D4690461E460A9CA08AA8EB00000D
:101B20000FFA80F8608A281A05B2206A00286BD163
:101B300094F8280000F0010010B3207C00F00300AE
:101B400020B1207C00F00300012802D10120BDE873
:101B5000F88F207C00F00300022805D108F1010075
:101B6000002801DA0120F2E7207C00F003000328BE
:101B700004D1B8F1000F01DD0120E8E70020E6E71D
:101B8000207C00F00300022804D0207C00F0030039
:101B9000032801D10120DAE7207C00F003000128AE
:101BA00002D1002D00DDD2E7207C00F00300A0B9B7
:101BB000A819002801DA0120C9E76F42002F01DAD5
:101BC0000020C4E7002F06DBB74204DAF11B0AEB62
:101BD0000700F0F7BBFD0220B9E7A819002801DAD9
:101BE0000020B4E76F42002F00DA0027B74201DB84
:101BF0000020ACE7002F05DBB74203DA3946504638
