:020000040800F2
:100000009004002045010008B7010008AF01000876
:10001000B30100088D01000815020008000000006F
:10002000000000000000000000000000BB0100080C
:100030009101000800000000B9010008BD0100089E
:100040005F0100085F0100085F0100085F01000810
:100050005F0100085F0100085F0100085F01000800
:100060005F0100085F0100085F0100085F010008F0
:100070005F0100085F0100085F0100085F010008E0
:100080005F0100085F0100085F0100085F010008D0
:100090005F0100085F0100085F0100085F010008C0
:1000A0005F0100085F0100085F0100085F010008B0
:1000B0005F0100085F0100085F0100085F010008A0
:1000C0005F0100085F0100085F0100085F01000890
:1000D0005F0100085F0100085F0100085F01000880
:1000E000930100085F0100085F0100085F0100083C
:1000F0005F0100085F0100085F0100085F01000860
:100100005F0100085F0100085F0100085F0100084F
:100110005F0100085F0100085F0100085F0100083F
:100120005F0100085F0100085F0100085F0100082F
:10013000DFF80CD000F018F8004800475905000817
:10014000900400200648804706480047FEE7FEE787
:10015000FEE7FEE7FEE7FEE7FEE7FEE7FEE7FEE777
:10016000C501000831010008064C074D06E0E068B3
:1001700040F0010394E8070098471034AC42F6D3EE
:10018000FFF7DAFF480700086807000800BFFEE72E
:10019000704710B54FF4005000F0BCF810B10020CB
:1001A00000F0EAF84FF4005000F0AEF810BD00BFC8
:1001B000FEE700BFFEE770477047704710B500F0DC
:1001C0003BF810BD10B51048006840F470000E49AF
:1001D00008600E48006840F001000C4908600020EB
:1001E0004860C86208460068094908400749086035
:1001F0004FF41F0088600846006820F480200860E3
:1002000000F09EFA10BD000088ED00E000100240F2
:10021000FFFFF6FE00BFFEE702E008C8121F08C19C
:10022000002AFAD170477047002001E001C1121F77
:10023000002AFBD1704700000448006820B1034841
:100240000068401E0149086070470000000000205F
:1002500010B52C4B1B6883432A4C2360231D1B685D
:100260008343241D2360231D1B688343241D2360B7
:10027000231D1B688343241D236011B101290ED166
:1002800005E0204B1B6803431E4C236008E01D4B18
:100290001B1D1B6803431B4C241D236000E000BF93
:1002A00000BF22B1012A0FD0022A27D119E0154B35
:1002B00008331B680343134C08342360231D1B6859
:1002C0008343241D23601AE00E4B08331B688343CD
:1002D0000C4C08342360231D1B680343241D23603A
:1002E0000DE0084B08331B680343064C08342360B9
:1002F000231D1B680343241D236000E000BF00BFD3
:1003000010BD000000040140014908607047000072
:100310001404014001460748006800EA010205484C
:100320001438006800EA010312B10BB101207047D4
:100330000020FCE71404014010B504460B4931F8D5
:10034000140000F065F90A4951F82430094951F8C0
:1003500024000322102100F07DF8054850F8240005
:10036000044951F82410486110BD000044000020E9
:10037000140000200400002070B504460A4A52F818
:1003800024100A4A52F8240000F0B6F8C0F1010027
:10039000C5B2054A52F82410044A52F824002A46ED
:1003A00000F006F870BD00001400002004000020DA
:1003B0000AB1016100E041617047000010B5002200
:1003C0008B071C0F0F2303FA04F204290EDA204BCB
:1003D0009B6893431E4CA36023469B688C07240FA5
:1003E00000FA04F423431A4CA3602FE008290EDA24
:1003F000174BDB689343164CE3602346DB688C079E
:10040000240F00FA04F42343114CE3601EE00C298E
:100410000EDA0F4B1B6993430D4C236123461B6976
:100420008C07240F00FA04F42343094C23610DE0E8
:10043000074B5B699343064C636123465B698C07FA
:10044000240F00FA04F42343014C636110BD000043
:1004500000000140F0B50C4616460025002204F0CD
:100460000F0504F0100747B1042E05D145F0030530
:10047000C76B1F43C76300E03543002118E0012725
:100480008F401F4097B102684FEA810C0F2707FA8F
:100490000CF7BA438F0005FA07F73A43282C01D12D
:1004A000436102E0482C00D1036102604F1CB9B2E5
:1004B0000829E4D308211CE001278F401F40B7B171
:1004C0004268A1F108074FEA870C0F2707FA0CF7DB
:1004D000BA43A1F10807BF0005FA07F73A43282CF1
:1004E00001D1436102E0482C00D1036142604F1CFE
:1004F000B9B21029E0D3F0BD02469068084008B1B7
:10050000012070470020FCE710B54FF4C06000F0F8
:100510007FF800220221282000F028F80D21022077
:10052000FFF74CFF012200215003FFF791FE4FF42B
:100530000050FFF7E9FE10BD10B540F2046000F076
:1005400067F84FF40053032204210248FFF782FFAB
:1005500010BD0000001001400020FFF7EDFEFFF786
:10056000EBFFFFF7D1FF00BFFEE70000F0B50B4641
:10057000002100240025244E366806F4E066B6F516
:10058000E06F02D100BF042526E01F4E366806F456
:10059000E066B6F5C06F02D1012403251CE01A4EB7
:1005A000366806F4E066B6F5A06F02D10224022593
:1005B00012E0154E366806F4E066B6F5806F02D19B
:1005C0000324012508E0104E366806F4E066B6F50F
:1005D000407F01D104240025C4F1040603FA06F18A
:1005E000C5F104070F26FE40164031430901074EAE
:1005F000315400F01F070126BE404711BF0007F12C
:10060000E027C7F80061F0BD0CED00E000E400E079
:10061000064A02EB9011096800F01F0301229A407C
:100620001143024B03EB901211607047001002401F
:10063000002000213E4A126842F480323C4B1A608E
:1006400000BF401C3A4A126802F4003111B9B0F5FB
:10065000006FF6D1364A126802F400320AB900BFC0
:10066000FEE7334AD26942F08052314BDA61314AB7
:10067000126842F440422F4B1A602D4A52682C4BAC
:100680005A601A4652685A601A46526842F48062AA
:100690005A601A46526822F440325A601A4652682A
:1006A00042F440325A601A465268234B1A40204B9B
:1006B0005A601A465268214B1A431D4B5A601A461B
:1006C000126842F080721A6000BF194A126802F084
:1006D0000072002AF9D0174A126842F48032154B92
:1006E0001A6000BF134A526802F48032002AF9D01F
:1006F000104A126842F400320E4B1A6000BF0D4AD5
:10070000526802F40032002AF9D0094A526822F0F5
:100710000302074B5A601A46526842F002025A60BE
:1007200000BF034A526802F00802002AF9D070475D
:100730000010024000700040FFFFC3B70000340803
:1007400010B5FFF775FF10BD680700080000002016
:100750009000000018020008F80700089000002030
:10076000000400002802000800000000001C0140F6
:10077000001C0140001C0140001C01400100000061
:100780000200000004000000080000000E0611072F
:100790000002000004000000000400000800000047
:1007A000000801400008014002060206070607068D
:1007B000070607060008014000100140001C014028
:1007C000001C01400100000000200000200000008B
:1007D00010000000020604060706070601000000DC
:1007E00000200000200000001000000000020505AD
:0807F000000D05040628170A9C
:0400000508000131BD
:00000001FF
