:020000040800F2
:10000000D8040020450100088D0200089301000873
:10001000890200088D010008150300080000000097
:10002000000000000000000000000000BB0200080B
:100030009101000800000000B9020008BD0200089C
:100040005F0100085F0100085F0100085F01000810
:100050005F0100085F0100085F0100085F01000800
:100060005F0100085F0100085F0100085F010008F0
:100070005F0100085F0100085F0100085F010008E0
:100080005F0100085F0100085F0100085F010008D0
:100090005F0100085F0100085F0100085F010008C0
:1000A0005F0100085F0100085F0100085F010008B0
:1000B0005F0100085F0100085F0100085F010008A0
:1000C0005F0100085F0100085F0100085F01000890
:1000D0005F0100085F0100085F0100085F01000880
:1000E0005F0100085F0100085F0100085F01000870
:1000F0005F0100085F0100085F0100085F01000860
:100100005F0100085F0100085F0100085F0100084F
:100110005F0100085F0100085F0100085F0100083F
:100120005F0100085F0100085F0100085F0100082F
:10013000DFF80CD000F018F8004800476D0F0008F9
:10014000D80400200648804706480047FEE7FEE73F
:10015000FEE7FEE7FEE7FEE7FEE7FEE7FEE7FEE777
:10016000C502000831010008064C074D06E0E068B2
:1001700040F0010394E8070098471034AC42F6D3EE
:10018000FFF7DAFF38A1000858A1000800BFFEE71A
:10019000704700BFFEE7000010B503460C460B4950
:1001A000488900F05BF8181200F052F8D8B200F05D
:1001B0004FF80649888900F051F8201200F048F8FD
:1001C000E0B200F045F800F04FF810BDC800002084
:1001D00000B52C20084908810020C880F020088044
:1001E0004FF4A07048802A2048812B208881C921A3
:1001F000362000F041F800BDC800002070B504466C
:100200000D4616461149488900F028F8201200F0E2
:100210001FF8E0B200F01CF8301200F019F8F0B24C
:1002200000F016F80949888900F018F8281200F043
:100230000FF8E8B200F00CF8181200F009F8D8B284
:1002400000F006F800F010F870BD0000C8000020B3
:1002500000B50246104600F0E9FC00BD00B50246BC
:10026000104600F0DFFC00BD00B502490889FFF729
:10027000F5FF00BDC800002010B503460C4621461E
:10028000184600F06CFE10BD00BFFEE7704700008E
:1002900010B5002807DA0A07140E054A00F00F030C
:1002A0001B1FD45403E00A07130E024A135410BD57
:1002B00018ED00E000E400E07047704710B500F072
:1002C000BFF910BD10B51048006840F470000E4929
:1002D00008600E48006840F001000C4908600020EA
:1002E0004860C86208460068094908400749086034
:1002F0004FF41F0088600846006820F480200860E2
:1003000001F040F810BD000088ED00E00010024050
:10031000FFFFF6FE00BFFEE702E008C8121F08C19B
:10032000002AFAD170477047002001E001C1121F76
:10033000002AFBD170470000FEB50646B348DFF83F
:10034000D0C20090BCF800C00CF14F0C1FFA8CF327
:10035000DFF8C0C2BCF800C00CF1450C1FFA8CF2EB
:10036000DFF8ACC2BCF800C00CF1280C1FFA8CF10D
:10037000DFF8A0C2BCF800C00CF11E0C1FFA8CF014
:1003800000F07FFDA148DFF888C20090BCF800C0F3
:100390000CF14F0C1FFA8CF3DFF87CC2BCF800C0E4
:1003A0000CF1450C1FFA8CF2DFF864C2BCF800C0F7
:1003B0000CF1280C1FFA8CF1DFF85CC2BCF800C00D
:1003C0000CF11E0C1FFA8CF000F05BFD8F48DFF87B
:1003D0004CC20090BCF800C00CF14F0C1FFA8CF31B
:1003E000DFF830C2BCF800C00CF1450C1FFA8CF2EB
:1003F000DFF828C2BCF800C00CF1280C1FFA8CF101
:10040000DFF810C2BCF800C00CF11E0C1FFA8CF013
:1004100000F037FD7D48DFF804C20090BCF800C052
:100420000CF14F0C1FFA8CF3DFF8ECC1BCF800C0E4
:100430000CF1450C1FFA8CF2DFF8E0C1BCF800C0EB
:100440000CF1280C1FFA8CF1DFF8CCC1BCF800C00D
:100450000CF11E0C1FFA8CF000F013FD1827704DE4
:100460004FF6FF706F498880002411E06D484068A6
:10047000009015F8012BE1001E3188B269490B6824
:10048000019349680291BE2100F0FCFA601C84B21D
:10049000BC42EBDB36B1012E29D0022E4CD0032E0C
:1004A0006FD16FE06048DFF868C10090BCF800C011
:1004B0000CF14F0C1FFA8CF3DFF858C1BCF800C0E8
:1004C0000CF1450C1FFA8CF2DFF844C1BCF800C0F7
:1004D0000CF1280C1FFA8CF1DFF838C1BCF800C011
:1004E0000CF11E0C1FFA8CF000F0CBFC8BE04E4898
:1004F000DFF81CC10090BCF800C00CF14F0C1FFAD3
:100500008CF3DFF814C1BCF800C00CF1450C1FFAE5
:100510008CF2DFF8FCC0BCF800C00CF1280C1FFA0C
:100520008CF1DFF8F4C0BCF800C00CF11E0C1FFA0F
:100530008CF000F0A6FC66E03B48DFF8E0C00090DD
:10054000BCF800C00CF14F0C1FFA8CF3DFF8C4C0EC
:10055000BCF800C00CF1450C1FFA8CF2DFF8BCC0EF
:10056000BCF800C00CF1280C1FFA8CF1DFF8A4C015
:10057000BCF800C00CF11E0C1FFA8CF000F081FCDE
:1005800041E024E02848DFF894C00090BCF800C0A7
:100590000CF14F0C1FFA8CF3DFF87CC0BCF800C0E4
:1005A0000CF1450C1FFA8CF2DFF870C0BCF800C0EB
:1005B0000CF1280C1FFA8CF1DFF85CC0BCF800C00D
:1005C0000CF11E0C1FFA8CF000F05BFC1BE0144DCC
:1005D0004FF4784013498880002411E011484068A6
:1005E000009015F8012BE1001E3188B20D490B680F
:1005F000019349680291BE2100F044FA601C84B264
:10060000BC42EBDB00BF00BFFEBD0000D0230008F2
:10061000060000200000002002000020080000204A
:100620000C0000202600002048170008034908603D
:1006300000BF024909680029FBD170473000002043
:100640000448006820B103480068401E0149086062
:10065000704700003000002000B597B04FF4A16053
:1006600000F0C0FD40F2056000F0BCFD40F2066005
:1006700000F0B8FD4FF4C16000F0B4FD4CF203731C
:1006800003221821234800F0A3F94FF680730322B8
:100690001821214800F09CF90423032218211E4848
:1006A00000F096F93023032218211A4800F090F93F
:1006B0004FF4007303221821184800F089F9002034
:1006C00001900290039002200490122005900320D4
:1006D00006900820079001200890002009900A90B9
:1006E0000B900C9001200D9000200E900F90109018
:1006F00011901020129000201390149001A81590D2
:10070000169008A800F018F8012000F009F817B0BA
:1007100000BD00000014014000180140002001400D
:10072000C100A1F1C041096841F00102C100A1F17D
:10073000C0410A607047000070B50021002200230C
:100740000468E400A4F1C0442168414C2140D0E990
:100750000B4544EA4504856A2C43456A44EA05246E
:10076000056A2C43C56944EA852485692C4345699B
:1007700044EA0534056944EA4534856844EA853429
:10078000C56844EAC53445682C432143446B247E44
:10079000641E04F00F04456B6D696D1EF02606EAB9
:1007A00005152C43456B2D696D1E4FF47F4606EAF7
:1007B00005252C43456BAD896D1E4FF4702606EA66
:1007C00005452C43456BAD682C43456B6D682C4348
:1007D000456B2D6844EA0502C46A082C01D141F03A
:1007E00040018468012C20D1846B247E641E04F0B7
:1007F0000F04856B6D696D1EF02606EA05152C4306
:10080000856B2D696D1E4FF47F4606EA05252C4346
:10081000856BAD896D1E4FF4702606EA05452C43A5
:10082000856B2D6844EA050301E06FF070430468AE
:10083000E400A4F1C04421600468E400A4F1C044D1
:1008400062600468E400A4F1C044C4F8043170BDDF
:100850008100F7FF0146002231F812004B889842D0
:1008600000DA012231F812008B88984200DA022265
:1008700031F81200CB88984200DA032231F81200D6
:1008800000B90422D0B2704710B504460B4931F8C4
:10089000140000F0A7FC0A4951F82430094951F826
:1008A00024000322102100F093F8054850F824009A
:1008B000044951F82410486110BD00007800002060
:1008C0004800002038000020034951F82010034A56
:1008D00052F8202051617047480000203800002065
:1008E000034951F82010034A52F820201161704743
:1008F00048000020380000202F4B1B8846339842C8
:1009000012DA2D4B1B881E3398420DDD2B4B1B88B2
:100910001E33994208DD294B1B884633994203DA7E
:1009200013885B1C138046E0254B1B884633984296
:1009300012DA234B1B881E3398420DDD1F4B1B8898
:100940001E33994208DD1D4B1B884633994203DA5A
:1009500053885B1C53802EE0174B1B88463398420C
:1009600012DA154B1B881E3398420DDD154B1B8880
:100970001E33994208DD134B1B884633994203DA34
:1009800093885B1C938016E00D4B1B88463398427E
:1009900011DA0B4B1B881E3398420CDD094B1B8868
:1009A0001E33994207DD074B1B884633994202DA12
:1009B000D3885B1CD3807047000000200600002015
:1009C000020000200800002041617047016170476B
:1009D000F0B50C4616460025002204F00F0504F081
:1009E000100747B1042E05D145F00305C76B1F431F
:1009F000C76300E03543002118E001278F401F4006
:100A000097B102684FEA810C0F2707FA0CF7BA4337
:100A10008F0005FA07F73A43282C01D1436102E021
:100A2000482C00D1036102604F1CB9B20829E4D3FD
:100A300008211CE001278F401F40B7B14268A1F197
:100A400008074FEA870C0F2707FA0CF7BA43A1F102
:100A50000807BF0005FA07F73A43282C01D1436184
:100A600002E0482C00D1036142604F1CB9B210294A
:100A7000E0D3F0BD02469068084008B101207047FD
:100A80000020FCE70FB42DE9F04706460F469046DC
:100A900000250024A146A246BDF82C0000284DD117
:100AA00000BF48E0A8F1200005EB00104D4911F807
:100AB0000090BDF82E00F0B9002419E0C4F1070041
:100AC00049FA00F000F0010040B1BDF830203B19B8
:100AD00099B2731B98B200F0FEF907E0BDF832201E
:100AE0003B1999B2731B98B200F0F5F9601C84B2FF
:100AF000082CE3DB1DE0002419E0C4F1070049FAEB
:100B000000F000F0010040B1BDF830207B1999B22F
:100B1000331998B200F0DFF907E0BDF832207B19F5
:100B200099B2331998B200F0D6F9601C84B2082C3F
:100B3000E3DB681C85B2102DB4DB4EE0BDF82C0061
:100B400001284AD1002546E0A8F1200000EB400032
:100B500005EBC000244931F810A0BDF82E00E0B923
:100B6000002417E04AFA04F000F0010040B1BDF89B
:100B700030203B1999B2731B98B200F0ACF907E032
:100B8000BDF832203B1999B2731B98B200F0A3F95B
:100B9000601C84B2102CE5DB1BE0002417E04AFA4D
:100BA00004F000F0010040B1BDF830207B1999B28B
:100BB000331998B200F08FF907E0BDF832207B19A5
:100BC00099B2331998B200F086F9601C84B2102CE7
:100BD000E5DB681C85B2182DB6DBBDE8F0075DF8D3
:100BE00014FB000068890008688F000830B50446CF
:100BF00000250B484088401E83B209480088401EEB
:100C000082B200210846FFF7F9FA00BF03E04FF077
:100C1000CA4004806D1CB5F5963FF8D330BD000086
:100C2000C80000204FF0C841088070474FF0CA410B
:100C30000880704708B5FFF7CBFACF20FFF70EFB0F
:100C40000020FFF705FBC120FFF702FB3020FFF774
:100C5000FFFAED20FFF702FB6420FFF7F9FA03200B
:100C6000FFF7F6FA1220FFF7F3FA8120FFF7F0FA08
:100C7000E820FFF7F3FA8520FFF7EAFA1020FFF7E4
:100C8000E7FA7A20FFF7E4FACB20FFF7E7FA3920FA
:100C9000FFF7DEFA2C20FFF7DBFA0020FFF7D8FA87
:100CA0003420FFF7D5FA0220FFF7D2FAF720FFF73A
:100CB000D5FA2020FFF7CCFAEA20FFF7CFFA002080
:100CC000FFF7C6FA0020FFF7C3FAC020FFF7C6FA05
:100CD0001B20FFF7BDFAC120FFF7C0FA0120FFF784
:100CE000B7FAC520FFF7BAFA3020FFF7B1FA302083
:100CF000FFF7AEFAC720FFF7B1FAB720FFF7A8FA5F
:100D00003620FFF7ABFA4820FFF7A2FA3A20FFF7A8
:100D1000A5FA5520FFF79CFAB120FFF79FFA0020B3
:100D2000FFF796FA1A20FFF793FAB620FFF796FA24
:100D30000A20FFF78DFAA220FFF78AFAF220FFF7C8
:100D40008DFA0020FFF784FA2620FFF787FA0120AA
:100D5000FFF77EFAE020FFF781FA0F20FFF778FA1D
:100D60002A20FFF775FA2820FFF772FA0820FFF70C
:100D70006FFA0E20FFF76CFA0820FFF769FA54208B
:100D8000FFF766FAA920FFF763FA4320FFF760FA3E
:100D90000A20FFF75DFA0F20FFF75AFA0020FFF74D
:100DA00057FA0020FFF754FA0020FFF751FA00200D
:100DB000FFF74EFAE120FFF751FA0020FFF748FA5B
:100DC0001520FFF745FA1720FFF742FA0720FFF733
:100DD0003FFA1120FFF73CFA0620FFF739FA2B20E3
:100DE000FFF736FA5620FFF733FA3C20FFF730FAC8
:100DF0000520FFF72DFA1020FFF72AFA0F20FFF742
:100E000027FA3F20FFF724FA3F20FFF721FA0F20AF
:100E1000FFF71EFA2B20FFF721FA0020FFF718FA40
:100E20000020FFF715FA0120FFF712FA3F20FFF725
:100E30000FFA2A20FFF712FA0020FFF709FA002024
:100E4000FFF706FA0020FFF703FAEF20FFF700FA9A
:100E50001120FFF703FA7820FFF7E8FB2920FFF7BE
:100E6000FDF9FFF7B5F94CF25030009004E0BDF801
:100E70000000401E80B20090BDF800000028F6DCA3
:100E800008BD2DE9F84F04460E4617469946DDF891
:100E900028B02546B046381B401CA9EB0601491C6A
:100EA000484300904FF0000A10E03BF8022B414607
:100EB000284600F010F8681C85B2BD4204DD08F138
:100EC00001001FFA80F825460AF1010A00988245C0
:100ED000EBD3BDE8F88F70B505460E461446314693
:100EE0002846FFF759F92046FFF7B2F970BD2DE902
:100EF000F04706460F4690469946DDF820A0344656
:100F00003D4600BF06E0524629462046FFF7E3FF74
:100F1000601C84B24445F6DB3D4606E05246294655
:100F20002046FFF7D8FF681C85B24D45F6DB4446E6
:100F300006E0524629462046FFF7CDFF601E84B2E8
:100F4000B442F6DC4D4606E0524629462046FFF7FD
:100F5000C2FF681E85B2BD42F6DCBDE8F0874FF0E7
:100F6000C84210804FF0CA42118070478AB00020FA
:100F7000089009900025914BD3E90012D3E90203B0
:100F8000CDE90603CDE9041200260020FFF77CFC22
:100F90000120FFF779FC0220FFF776FC0320FFF722
:100FA00073FC00F0F3F9FFF757FB00F0E7FA32208B
:100FB000FFF73CFBFFF73EFE4FF6FF70FFF716FE14
:100FC0007F484FF49873B322D22100903C20FFF762
:100FD00058FF1F204FF49B73E6220A210090084619
:100FE000FFF785FF1F20774988804FF6FF70C88084
:100FF0000120488000200880002461E0714840689A
:1010000004AB00901A5D704B1B88143399B26F4B80
:101010001B882333082707FB043398B2694B1F68EA
:1010200002975B6803933B46FFF72CFD65484068D9
:1010300005AB00901A5D644B1B88143399B2644B66
:101040001B882333082707FB043398B25D4B1F68C6
:1010500002975B6803933B46FFF714FD59484068CD
:1010600006AB00901A5D5B4B1B88143399B2574B4B
:101070001B882333082707FB043398B2514B1F68A2
:1010800002975B6803933B46FFF7FCFC4D484068C2
:1010900007AB00901A5D4F4B1B88143399B24C4B31
:1010A0001B882333082707FB043398B2454B1F687E
:1010B00002975B6803933B46FFF7E4FC601C84B235
:1010C000042C9BDB4448404F00903F884F37BBB215
:1010D0003E4F3F884537BAB23B4F3F882837B9B2B9
:1010E0003A4F3F881E37B8B2FFF7CBFE3A48364F2B
:1010F00000903F884F37BBB2354F3F884537BAB273
:10110000314F3F882837B9B2314F3F881E37B8B2C8
:10111000FFF7B7FE30482F4F00903F884F37BBB2E4
:101120002A4F3F884537BAB22A4F3F882837B9B28D
:10113000264F3F881E37B8B2FFF7A3FE2648254F3B
:1011400000903F884F37BBB2214F3F884537BAB236
:10115000204F3F882837B9B21D4F3F881E37B8B29D
:10116000FFF78FFE29E000F05BFA01280FD1681C21
:10117000C5B21A48008800F0A5F90746184800884B
:1011800000F08BF9804608AA3946FFF7B5FB142D0D
:1011900013D108A8FFF75EFB0646304600F093FA2D
:1011A0003046FFF7C9F80020ADF82600ADF824005E
:1011B000ADF82200ADF820000025D4E73017000874
:1011C0005830000826000020060000200000002003
:1011D0000200002008000020D0230008C6000020E4
:1011E000C4000020064A02EB9011096800F01F03BA
:1011F00001229A401143024B03EB90121160704799
:101200000010024010B5044624B120210448FFF725
:10121000DDFB03E020210248FFF7D6FB10BD0000F4
:101220000008014010B5044624B110210448FFF71E
:10123000CDFB03E010210248FFF7C6FB10BD000004
:101240000018014010B540210148FFF713FC10BD04
:101250000008014010B5044624B180210448FFF77E
:10126000B5FB03E080210248FFF7AEFB10BD000094
:1012700000080140002000213E4A126842F48032FA
:101280003C4B1A6000BF401C3A4A126802F400311D
:1012900011B9B0F5006FF6D1364A126802F4003287
:1012A0000AB900BFFEE7334AD26942F08052314B9F
:1012B000DA61314A126842F440422F4B1A602D4ADB
:1012C00052682C4B5A601A4652685A601A46526845
:1012D00042F480625A601A46526822F440325A60E0
:1012E0001A46526842F440325A601A465268234BFA
:1012F0001A40204B5A601A465268214B1A431D4B24
:101300005A601A46126842F080721A6000BF194A89
:10131000126802F00072002AF9D0174A126842F4EB
:101320008032154B1A6000BF134A526802F48032B3
:10133000002AF9D0104A126842F400320E4B1A60AB
:1013400000BF0D4A526802F40032002AF9D0094A5F
:10135000526822F00302074B5A601A46526842F064
:1013600002025A6000BF034A526802F00802002AD3
:10137000F9D070470010024000700040FFFFC3B773
:101380000000340810B5FFF775FF10BD10B5124806
:1013900000684FF47A71B0FBF1F4601EB0F1807F09
:1013A00001D301200FE0601E4FF0E02148610F21C2
:1013B0004FF0FF30FEF76CFF00204FF0E021886116
:1013C00007200861002008B100BFFEE70021481E89
:1013D000FEF75EFF10BD00003400002010B500F0E5
:1013E000FDF808B1002010BD00F03EF9002000F02B
:1013F0004CF9D22000F049F900F0F8F8F3E72DE9B4
:10140000F04704460D4600260027B046B146D220DC
:1014100000F06EF80646922000F06AF80746D220E7
:1014200000F066F88046922000F062F88146A6EB54
:101430000801002901DB0A4600E04A42062A08DCCE
:10144000A7EB0900002801DB024600E04242062A21
:1014500002DD0020BDE8F08706EB080000EBD0714C
:10146000C1F34F01218007EB090000EBD071C1F3FC
:101470004F0129800120EDE710B500F0AFF808B169
:10148000002010BD00F0F0F8002000F0FEF89220DF
:1014900000F0FBF800F0AAF8F3E7034600BFA3F55D
:1014A000967202EB0210C0EB022240F6DE50B2FB55
:1014B000F0F081B2002901DDF02901DD0020704744
:1014C0000846FCE7034600BFA3F1DC02C2EB821032
:1014D00000EB022240F62E60B2FBF0F081B2002950
:1014E00002DDB1F5A07F01DD002070470846FCE772
:1014F0002DE9FE430646002400250027A04600BF34
:101500000CE0D22E04D1FFF769FF2DF8140003E0A0
:10151000FFF7B2FF2DF81400601C84B2052CF0DB3D
:10152000002416E0601C85B20FE03DF814003DF881
:101530001510884207DD3DF814803DF815002DF8A0
:1015400014002DF81580681C85B2052DEDDB601C9C
:1015500084B2042CE6DB0027012405E03DF81400EA
:10156000384487B2601C84B2042CF7DB032097FB5D
:10157000F0F01FFA80F84046BDE8FE8310B540F257
:101580000260FFF72FFE40F20660FFF72BFE2023DC
:10159000032210210F48FFF71BFA8023032210219A
:1015A0000C48FFF715FA4023032204210948FFF7EE
:1015B0000FFA1023032219460748FFF709FA2023E0
:1015C000032204210448FFF703FA10210248FFF721
:1015D000FDF910BD000801400018014010B52021A0
:1015E0000148FFF747FA10BD0018014070B500240C
:1015F000002510E04FF6FF7000EA44040120FFF7D9
:1016000001FE0020FFF7FEFDFFF71CFE08B1601C85
:1016100084B2681CC5B20C2DECDB204670BD000006
:1016200010B50024FFF7DAFF90B901E0601CC4B2E6
:101630000B490C48FFF7E3FE012801D0142CF5DB21
:10164000142C0BDB0020074908800549088010BDD9
:1016500000200449088002490880F8E70120F6E7E5
:10166000C6000020C400002010B50020FFF7CAFD0E
:101670000120FFF7D7FD0120FFF7ECFD0120FFF768
:10168000C1FD0020FFF7CEFD10BD70B5064600205D
:10169000FFF7B8FD002413E0C4F1070046FA00F09C
:1016A00000F001052846FFF7D5FD0020FFF7AAFD51
:1016B0000120FFF7A7FD0020FFF7A4FD601CC4B2C6
:1016C000082CE9DB70BD10B504460020FFF7FCF8DC
:1016D0000120FFF7F9F80220FFF7F6F80320FFF7E3
:1016E000F3F834B1012C08D0022C0AD0032C10D10D
:1016F0000BE00020FFF7F4F818E00120FFF7F0F806
:1017000014E00220FFF7ECF810E00320FFF7E8F800
:101710000CE00020FFF7E4F80120FFF7E1F80220D9
:10172000FFF7DEF80320FFF7DBF800BF00BF10BDB6
:101730004C4544324C4544334C4544344C45443587
:10174000001028002800011BFFFFFFFFFFFFFFFF25
:10175000FFFFFFFFFFFFFFFFFFFFFFFFFFFFFFFF99
:10176000FFFFFFFFFFFFFFFFFFFFFFFFFFFFFFFF89
:10177000FFFFFFFFFFFFFFFFFFFFFFFFFFFFFFFF79
:10178000FFFFFFFFFFFFFFFFFFFFFFFFFFFFFFFF69
:10179000FFFFFFFFFFFFFFFFFFFFFFFFFFFFFFFF59
:1017A000FFFFFFFFFFFFFFFFFFFFFFFFFFFFFFFF49
:1017B000FFFFFFFFFFFF3BFFD8FE76FE34F614F677
:1017C00014F6F4F515F697FE3BFFFFFFFFFFFFFF52
:1017D000FFFFFFFFFFFFFFFFFFFFFFFFFFFFFFFF19
:1017E000FFFFFFFFFFFFFFFFFFFFFFFFFFFFFFFF09
:1017F000FFFFFFFFFFFFFFFFFFFFFFFFFFFFFFFFF9
:101800007DFFF2F58EF54BEDC9EC47ECC5EBA5EB92
:1018100064EB24EB04EB25EB67EB0AEC0FF57CFFA4
:10182000FFFFFFFFFFFFFFFFFFFFFFFFFFFFFFFFC8
:10183000FFFFFFFFFFFFFFFFFFFFFFFFFFFFFFFFB8
:10184000FFFFFFFFFFFFFFFFFFFFFFFFBFFFEBEC0F
:1018500029EDAAED6AED2AEDE9ECA9EC48EC08ECDB
:10186000C7EBA7EB66EB25EBE5EAA4EA63EA42EAFD
:1018700046EB7CFFFFFFFFFFFFFFFFFFFFFFFFFFC8
:10188000FFFFFFFFFFFFFFFFFFFFFFFFFFFFFFFF68
:10189000FFFFFFFFFFFFFFFFBEFF90F504EC4AEDE7
:1018A0006BED6BED4AED0AEDC9EC89EC48EC07EC09
:1018B000C7EB86EB66EB26EB06EBE5EAC5EAA4EAA6
:1018C00023EA80E94CF47CFFFFFFFFFFFFFFFFFFEF
:1018D000FFFFFFFFFFFFFFFFFFFFFFFFFFFFFFFF18
:1018E000FFFFFFFFFFFFF9FE8AEC26ECC9EC0AEDD3
:1018F0000AED0AED0AEDC9ECA9EC68EC28ECE7EB7F
:10190000A7EB86EB46EB26EB05EBE5EAC5EAA4EA96
:1019100084EA64EAC1E9A5EA35FEFFFFFFFFFFFFA5
:10192000FFFFFFFFFFFFFFFFFFFFFFFFFFFFFFFFC7
:10193000FFFFFFFFD9FEA6EBE6EB69EC89ECA9EC13
:10194000C9ECC9ECC9EC89EC68EC48EC08ECC7EBD5
:10195000A7EB66EB46EB26EB05EBC5EAA5EAA4EAA6
:1019600084EA64EA44EAE2E9C1E914F6FFFFFFFF12
:10197000FFFFFFFFFFFFFFFFFFFFFFFFFFFFFFFF77
:10198000FFFFD9FE65EBA6EB08EC28EC48EC68EC11
:1019900069EC89EC68EC48EC28EC08ECC7EBA7EBA9
:1019A00086EB66EB26EB05EBE5EAC5EAA5EA84EAF9
:1019B00064EA64EA44EA43EA03EAA1E9F4F5FFFFD2
:1019C000FFFFFFFFFFFFFFFFFFFFFFFFFFFFFFFF27
:1019D000BEFFC8EB25EBA7EBC7EBE7EB08EC28EC69
:1019E00028EC28EC28EC08ECE7EBC7EBA7EB86EB40
:1019F00066EB46EB05EB05EBE5EAC5EAA4EA84EA0B
:101A000064EA44EA44EA23EA23EAC2E943EA3BFF00
:101A1000FFFFFFFFFFFFFFFFFFFFFFFFFFFFFFFFD6
:101A200030F5A3EA66EB86EBA7EBC7EBC7EBE7EB7A
:101A3000E7EBE7EBE7EBC7EBC7EBA7EB86EB66EB78
:101A400046EB26EB05EBE5EAC5EAA5EA84EA84EA7B
:101A500064EA44EA44EA23EA03EA03EA60E9CAEBF7
:101A6000FFFFFFFFFFFFFFFFFFFFFFFFFFFFFFFF86
:101A700020EA06EB46EB46EB86EB87EBA7EBA7EB02
:101A8000A7EBC7EBA7EBA7EB86EB86EB66EB46EB8A
:101A900026EB05EBE5EAC5EAC5EAA4EA84EA64EACE
:101AA00064EA44EA24EA23EA03EA03EAE3E920E1F8
:101AB0005CFFFFFFFFFFFFFFFFFFFFFFFFFF0FF5D3
:101AC00042EA05EB05EB26EB46EB46EB66EB66EBF5
:101AD00066EB66EB66EB66EB46EB46EB46EB06EB3E
:101AE00005EBE5EAC5EAC5EAA4EA84EA64EA64EA41
:101AF00044EA43EA23EA03EA03EAE3E9E3E961E9C2
:101B000088EBFFFFFFFFFFFFFFFFFFFFFFFFE5EA9F
:101B1000A4EAE5EAE5EA05EB25EB26EB46EB46EB26
:101B200046EB46EB46EB46EB26EB25EB05EB05EBF0
:101B3000E5EAC5EAA5EAA5EAA4EA84EA64EA64EA71
:101B400044EA24EA23EA03EA03EAE3E9E3E9E3E90E
:101B5000E1E9FFFFFFFFFFFFFFFFFFFFFFFF43EA9A
:101B6000A4EAC5EAC5EAE5EA05EB05EB25EB25EBBA
:101B700026EB26EB26EB25EB05EB05EBE5EAE5EAA4
:101B8000C5EAA5EAA5EA84EA84EA64EA64EA44EAE2
:101B900024EA23EA23EA03EA03EAE3E903EAE3E9BE
:101BA000C2E91AFFFFFFFFFFFFFFFFFFFAEE43EA64
:101BB000A4EAA5EAC5EAC5EAC5EAE5EAE5EA05EB6D
:101BC00005EB05EB05EBE5EAE5EAE5EAC5EAC5EA7A
:101BD000A4EAA5EA84EA84EA64EA64EA44EA43EA15
:101BE00023EA23EA03EA03EAE3E903EA03EAE3E98F
:101BF00081E9D5EDFFFFFFFFFFFFFFF758DE23EA86
:101C000084EA84EAA4EAA5EAC5EAC5EAC5EAC5EA1F
:101C1000C5EAE5EAC5EAC5EAC5EAC5EAA5EAA5EA6C
:101C2000A4EA84EA84EA64EA64EA44EA44EA23EA45
:101C300023EA03EA03EAE3E9E3E9E3E9E3E9E3E9C1
:101C4000A1E953DDFFF7FFFFFFFF9EE738C643EA38
:101C500064EA84EAA4EAA5EAA4EAC5EAC5EAC5EA10
:101C6000C5EAC5EAC5EAA5EAA5EAA4EAA5EA84EABE
:101C700084EA64EA64EA64EA44EA44EA23EA23EA96
:101C800003EA03EA03EAE3E9E3E9E3E9E3E9E3E991
:101C9000A2E933CD9FE7FFFFFFFF1CDF39BE83EAD8
:101CA00064EA84EA84EAA4EAA4EAA5EAA5EAA5EA41
:101CB000A5EAA5EAA5EAA5EAA4EAA4EA84EA84EAF0
:101CC00084EA64EA64EA44EA44EA44EA24EA23EA65
:101CD00003EA03EAE3E9E3E9E3E9E3E9E3E9E3E962
:101CE000C2E975CDFDCEFFFFDFFF5AC63BB6C4EAA1
:101CF00044EA84EA84EA84EAA5EAA4EAA4EAA4EA33
:101D0000A4EAA4EAA4EAA4EA84EA84EA84EA64EA03
:101D100064EA64EA44EA44EA23EA23EA23EA03EAB7
:101D200003EAE3E903EAE3E9E3E9E3E903EAE3E9F0
:101D3000C2E9B7BD5ABEDFFFDFFFD8B57CA663EAB4
:101D4000A4EA84EA84EAA5EAA4EAA4EAA4EAA4EA62
:101D5000A4EAA5EAA4EA84EA84EA84EA84EA64EAD2
:101D600064EA44EA44EA44EA23EA23EA03EA03EAA7
:101D700003EAE3E903EAE3E9E3E903EAE3E903EA7F
:101D8000C2E1F9B5B8ADBEF7BFF797AD3B9E24E20F
:101D900005EB84EAA4EAA5EAA5EAA5EAA5EAA5EA8C
:101DA000A5EAA4EAA4EA84EA84EA84EA64EA64EAA2
:101DB00064EA64EA44EA44EA23EA23EA03EA03EA37
:101DC00003EA03EA03EAE3E9E3E9E3E903EA23EAEE
:101DD00081E11AA677A5BEF7BEF776A5FA9D86D251
:101DE00063F205EBA4EAC5EAC5EAC5EAC5EAC5EAB5
:101DF000A5EAA5EAA5EAA4EA84EA84EA64EA64EA30
:101E000064EA64EA44EA44EA23EA23EA03EA03EAE6
:101E100003EA03EA03EAE3E903EA03EA23F2C3D9A4
:101E2000A2D91A96369DBEF79EF756A5B99D4BBB13
:101E3000C1F105EB05EBE5EAE5EAE5EAC5EAC5EA45
:101E4000C5EAC5EAA5EAA5EA84EA84EA84EA64EA7E
:101E500064EA44EA44EA44EA24EA23EA23EA03EA95
:101E600003EA03EAE3E9E3E9E3E903F2E3D941C979
:101E700066C2F995369D9EF79EF7359D98A53194DB
:101E8000A0F944EA66EB26EBE5EA05EB05EB05EB8A
:101E9000E5EAC5EAC5EAA5EAA4EA84EA84EA84EAAE
:101EA00064EA44EA44EA44EA24EA24EA23EA03EA44
:101EB00003EA03EAE3E9E3E923F2E3E163B120D1D2
:101EC0006D9BB89D56A59EF79EF7359D77A51595F8
:101ED000E2D923F264EAA7EB66EB46EB66EB46EB4E
:101EE00026EBE5EAC5EAA5EAA4EAA4EA84EA84EADC
:101EF00064EA64EA44EA44EA44EA23EA23EA03EAB5
:101F000003EA03EAE3E923FAE3D903A143B100C9F1
:101F1000938C97A576ADBEF7DFFF55A5569D76A5A8
:101F20000BA302FA44EA64EA66EBC7EBC7EBA7EB44
:101F300066EB26EBC5EAC5EAC5EAA4EAA5EA84EAA7
:101F400084EA64EA64EA44EA44EA43EA24EA03EA03
:101F500003EA03F203F283C1E29023A101C1489294
:101F6000369D77A5D8BDDEFFFFFFD7BD369D77A58F
:101F700031A466C223F264EA84EAE5EAC7EBE7EB40
:101F8000A7EB46EBE5EAE5EAC5EAC5EAA5EAA4EA75
:101F900084EA84EA64EA64EA44EA24EA23EA43F24B
:101FA00023F2C3D1E290A280029902A964A1CF8B4F
:101FB00036A5B8AD9ACEDFFFFFFF99D656A598A5F6
:101FC000B3ACAE9B23DA64F2A4EAA5EAC5EA26EB39
:101FD00066EB66EB46EBE5EAC5EAC5EAA4EA84EA05
:101FE00084EA64EA64EA64F264F284FA23E2A3C154
:101FF00023A18270A280E290029902A90C83529CD4
:1020000077A559C6DBDEFFFFFFFF5DEF56A5F9B5EB
:10201000D4AC71B46D8B02F284F2A5EAC5EAC5EACC
:10202000A5EAA5E284E2C5E205EB05EB25EB25F385
:1020300005F3E5F2A4EA44DAC3C12399C388A28078
:102040008278A280C288E29080A0CB7A319C729C78
:1020500019BE7ACE3CEFFFFFFFFFFFFF58CEB8ADB1
:1020600039C671B492BC6E8B64DA84F2C5F2C5EAEB
:10207000A5EA84EA44E203DAC3D183C962C102B1AA
:1020800002A1E298C290C288C288C288C288A2888F
:10209000C280A280A288A290EC72529C119C97AD43
:1020A00039C69ACEFFFFFFFFFFFFFFFFBEF796ADD9
:1020B0007AC618CE30B450BCAE9BA7BA84E2A4FA5C
:1020C000A4EA64E244E223DAE3D1C3D1A3C163B951
:1020D00043B123A903A10299E390C390C288C288A7
:1020E0008288818045790D7BF09B10A4D4A496ADA5
:1020F000F8BD9EF7FFFFFFFFFFFFFFFFFFFF3CE77D
:10210000B7B51DD7BBDE0FBCCEB3EFAB2BA365C2FB
:1021100063EA63F244E204DAE3D1C3D1A3C963B949
:1021200043B123A923A10299E298E290A290618889
:1021300003796A7A6E8BCF9B11A4728CB38C35A510
:102140003CE7FFFFFFFFFFFFFFFFFFFFFFFFFFFF7A
:10215000BAD618BE7EE7BEEF55CDD2CCB2CC8DB389
:102160000BA367AA03D2E2E9C2D9A3D182C962C193
:1021700042B922A902A9E2A0A198C28865796A7A27
:102180002D8B8F93AFA311A48F6BD06B928CDBDE62
:10219000FFFFFFFFFFFFFFFFFFFFFFFFFFFFFFFF4F
:1021A000FFFFDADE59C69EEFFFFFFFFF18E6EEC322
:1021B0008CC38DBB6CABEB9A88A247AAE5A9C5A1DD
:1021C000A5A1A591C68907828A7AEC822D934EA398
:1021D0008EA38F934E73293A8B4A728C3CE7FFFF94
:1021E000FFFFFFFFFFFFFFFFFFFFFFFFFFFFFFFFFF
:1021F000FFFFFFFF1BE779CE7DEFFFFFFFFFFBEE49
:1022000095DD91CC8CCBE9C2EABAEABACAAAA9AAEE
:10221000A9A2AAA2AA9AAAA2CBA26EABAF9B6E83D6
:102220002D6B6A426629093AB394BEF7FFFFFFFFA0
:10223000FFFFFFFFFFFFFFFFFFFFFFFFFFFFFFFFAE
:10224000FFFFFFFFFFFF9EF79AD6BAD6FFFFFFFF03
:10225000FFFF7EEFDBDE39D655CDB2C42FC4EFC30E
:10226000EEBBEFB3F0AB109C118C6E6B0D5BAB4A09
:10227000E8310419EC5A38C6FFFFFFFFFFFFFFFFEC
:10228000FFFFFFFFFFFFFFFFFFFFFFFFFFFFFFFF5E
:10229000FFFFFFFFFFFFFFFFFFFF7DEF38C6FBDE05
:1022A000BEF77EEF3DDFFCCE9BC63AB6D8A5779D44
:1022B000D58C737CB06B4F630D53AC526B4A294283
:1022C0000C6399D6FFFFFFFFFFFFFFFFFFFFFFFF3C
:1022D000FFFFFFFFFFFFFFFFFFFFFFFFFFFFFFFF0E
:1022E000FFFFFFFFFFFFFFFFFFFFFFFFFFFF7DEF90
:1022F000BAD69AD6BAD67ACE19BED8B576A5F594FE
:10230000938C127CB06BB06BAF73318455AD1CE70E
:10231000FFFFFFFFFFFFFFFFFFFFFFFFFFFFFFFFCD
:10232000FFFFFFFFFFFFFFFFFFFFFFFFFFFFFFFFBD
:10233000FFFFFFFFFFFFFFFFFFFFFFFFFFFFFFFFAD
:10234000FFFFFFFF9DF73CE71CE7DBDE9AD67ACE66
:1023500059CE59CE9AD6FBDE7DEFFFFFFFFFFFFF80
:10236000FFFFFFFFFFFFFFFFFFFFFFFFFFFFFFFF7D
:10237000FFFFFFFFFFFFFFFFFFFFFFFFFFFFFFFF6D
:10238000FFFFFFFFFFFFFFFFFFFFFFFFFFFFFFFF5D
:10239000FFFFFFFFFFFFFFFFFFFFFFFFFFFFFFFF4D
:1023A000FFFFFFFFFFFFFFFFFFFFFFFFFFFFFFFF3D
:1023B000FFFFFFFFFFFFFFFFFFFFFFFFFFFFFFFF2D
:1023C000FFFFFFFFFFFFFFFF001028002800011B99
:1023D000FFFFFFFFFFFFFFFFFFFFFFFFFFFFFFFF0D
:1023E000FFFFFFFFFFFFFFFFFFFFFFFFFFFFFFFFFD
:1023F000FFFFFFFFFFFFFFFFFFFFFFFFFFFFFFFFED
:10240000FFFFFFFFFFFFFFFFFFFFFFFFFFFFFFFFDC
:10241000FFFFFFFFFFFFFFFFFFFFFFFFFFFFFFFFCC
:10242000FFFFFFFFFFFFFFFFFFFFFFFFFFFFFFFFBC
:10243000FFFFFFFFFFFFFFFFFFFFFFFFFFFFFFFFAC
:10244000DCEFB8DF95D774CF73CF75D797DFDBEFAD
:10245000FFFFFFFFFFFFFFFFFFFFFFFFFFFFFFFF8C
:10246000FFFFFFFFFFFFFFFFFFFFFFFFFFFFFFFF7C
:10247000FFFFFFFFFFFFFFFFFFFFFFFFFFFFFFFF6C
:10248000FFFFFFFFFFFFFFFFFFFF95D74DC707B718
:1024900008B708AF08A7E79EC796C68EA586A57E93
:1024A000A47EE99653C7FEFFFFFFFFFFFFFFFFFF7C
:1024B000FFFFFFFFFFFFFFFFFFFFFFFFFFFFFFFF2C
:1024C000FFFFFFFFFFFFFFFFFFFFFFFFFFFFFFFF1C
:1024D000FFFFFFFFDDF74FC728BF6AD74BCF4BC7C2
:1024E0002ABF2AB709AFE9A6E89EC896C78EA78675
:1024F000A786A67E8576836EEA96DBEFFFFFFFFF59
:10250000FFFFFFFFFFFFFFFFFFFFFFFFFFFFFFFFDB
:10251000FFFFFFFFFFFFFFFFFFFFFFFFFFFFFFFFCB
:10252000FFFF50C707AF4AC74BCF4BCF4BC72ABFA0
:102530002AB709AF09A7E8A6E89EC896C78EA7865E
:10254000A786A67EA67E8676856E6366EC9EFFFFD6
:10255000FFFFFFFFFFFFFFFFFFFFFFFFFFFFFFFF8B
:10256000FFFFFFFFFFFFFFFFFFFFFFFFFFFFFDF785
:10257000E8A608AF2AB72ABF2ABF2AC72ABF2ABFA0
:102580000AB709AF09A7E89EE896C896C78EC7861E
:10259000A786A77E867E86768676866E6466646E5D
:1025A000BAE7FFFFFFFFFFFFFFFFFFFFFFFFFFFF98
:1025B000FFFFFFFFFFFFFFFFFFFFFFFFDBEFC59602
:1025C000E8A609AF09B72AB72AB72AB72AB70AB7C0
:1025D00009AF09A7E9A6E89EC896C78EC78EA78649
:1025E000A786A67EA67E86768676866E856E6566CC
:1025F000425E97D7FFFFFFFFFFFFFFFFFFFFFFFFD9
:10260000FFFFFFFFFFFFFFFFFFFFDDF7A58EE89E47
:10261000E89E09A709AF09AF09AF09AF09AF09AF34
:1026200009A7E9A6E89EE896C896C78EA786A7865A
:10263000A77EA67EA67686768676866E866E656E82
:1026400065664256B9E7FFFFFFFFFFFFFFFFFFFF91
:10265000FFFFFFFFFFFFFFFFFFFFC68EC78EC8967D
:10266000E89EE89EE9A609A709A709A709A7E9A680
:10267000E89EE89EE896C896C78EC78EA786A7866E
:10268000A67EA67E867686768676866E856E856E34
:1026900065666566635EFFFFFFFFFFFFFFFFFFFFED
:1026A000FFFFFFFFFFFFFFFF30B7A686C78EC8966C
:1026B000C896E896E89EE89EE89EE89EE89EE89E1A
:1026C000E89EC896C896C78EC78EA786A786A77E9F
:1026D000A67EA67686768676866E856E656E856E15
:1026E00065666566445ECA8EFFFFFFFFFFFFFFFF62
:1026F000FFFFFFFFFFFFFFFF8476A786C78EC78E11
:10270000C88EC896C896E896E896E896E896C89661
:10271000C896C88EC78EC78EA786A786A77EA67EB8
:10272000867E867686768676866E856E656E65662C
:102730006566656665664256BAE7FFFFFFFFFFFF05
:10274000FFFFFFFFFFFF52BF8576A786A786C786DC
:10275000C78EC78EC78EC88EC896C896C88EC78EBD
:10276000C78EC78EC78EA786A786A77EA67EA67EA3
:10277000867686768676866E856E656E856E6566ED
:10278000656665666566445EEC9EFFFFFFFFFFFFC2
:10279000FFFFFFFFFFFFC88E867EA77EA786A78666
:1027A000A786C786C78EC78EC78EC78EC78EC78EB1
:1027B000C786A786A786A786A77EA67EA67EA676BC
:1027C000867686768676866E856E656E65666566C5
:1027D000656665666566655E6366FFFFFFFFFFFF12
:1027E000FFFFFFFFFFFF636E867EA67EA67EA77EAD
:1027F000A786A786A786A786A786A786A786A78671
:10280000A786A786A77EA77EA67EA67E86768676E4
:1028100086768676866E856E656E856E656665667D
:102820006566656665666566435EDCEFFFFFFFFF14
:10283000FFFFFFFF7CEF846E8676A67EA67EA67ED7
:10284000A67EA77EA77EA786A786A786A786A77E41
:10285000A77EA67EA67EA67E867E867686768676EF
:102860008676866E866E656E856E6566656665665D
:102870006566656665666566435E37CFFFFFFFFF89
:10288000FFFFFFFFB9CE846E867686768676A67EBB
:10289000A67EA67EA67EA67EA67EA67EA67EA67E18
:1028A000A67EA67EA67E86768676867686768676D0
:1028B000866E866E856E856E65666566656665661E
:1028C0006566656665666566635E94B6FFFFFFFFD5
:1028D000FFFF7EEF79C6846E86768676867686766C
:1028E000A676A67EA67EA67EA67EA67E867E867E10
:1028F000867E867686768676867686768676866EF8
:10290000856E856E856E65666566656665666566F7
:102910006566656665666566635E75B63EE7FFFF7C
:10292000FFFFDBD63BC6A4768676867686768676ED
:1029300086768676867EA67EA67EA67EA676A676F7
:10294000A67686768676867686768676866E866E97
:10295000656E856E656E65666566656665666566E7
:102960006566656665666566635E57B67BCEFFFF26
:10297000FFFF19BE1BC6A576867686768676867696
:10298000A676A676A676A6768676867686768676E7
:1029900086768676867686768676866E866E856E70
:1029A000856E656E6566656665666566656665669F
:1029B0006566656665666566635E19BEF9B5FFFFA7
:1029C000FFFFB7ADDABD877E867686768676867619
:1029D0008676A676867686768676867686768676F7
:1029E0008676867686768676866E866E866E856E28
:1029F000656E856E6566656665666566656665664F
:102A00006566656665666566635EDABDD8ADDFFFDF
:102A1000FFFF77A599B5276EC78686768676867E70
:102A2000A67EA67EA67E867686768676867686764E
:102A30008676867686768676866E866E856E656EF8
:102A4000856E656665666566656665666566656606
:102A50006566656665668566E35599B597ADBEF7AB
:102A6000DFFF56A578ADE96DA676A77E867EA67EA9
:102A7000A67EA67EA67EA67E867E867686768676CE
:102A80008676867686768676866E866E856E856E88
:102A9000656E6566656665666566656665666566D6
:102AA000656665668566E45DC55D79AD77A59EF76B
:102AB000BEF7369D58A58C758466C78EA67EA77E08
:102AC000A77EA67EA67EA67EA67EA67EA67E86760D
:102AD0008676867686768676866E866E856E856E38
:102AE000856E656665666566656665666566656666
:102AF000656685662566634D886558AD369D9EF78B
:102B00009EF7359D77A5F184A4666566C896A7866D
:102B1000A786A786A786A786A67EA67EA67EA67679
:102B20008676867686768676866E866E866E856EE6
:102B3000656E656E6566656665666566656665662D
:102B400085664566C344A34DED7458A5369D9EF732
:102B5000BEF7159D77A5F5942566856E656EE89E92
:102B6000C78EC78EC78EC78EA786A67EA67EA67E78
:102B700086768676867686768676866E866E866E8D
:102B8000856E856E656E6566656665666566A56655
:102B9000255E623C0345824D938C77A576ADBEF7EA
:102BA000FFFF159D77A576A5EB6CA46E866E866EED
:102BB000C88EE89EE89EE896C88EA786A67EA67E6A
:102BC000A67EA6768676867686768676866E866EED
:102BD000856E856E8566656665668566C56E444DDF
:102BE000022CA33C2245885C359D569DF8BDDFFF35
:102BF000FFFF96B557A576A5F28CC665A56E8676BD
:102C00008676A77EE89EE99EC896C786A77EA67EA2
:102C1000A67EA67EA676867686768676866E866E74
:102C2000856E656E856E856EC56E045EE22BC22B69
:102C30004234A23CC344707C559DB8AD59CEFFFFD1
:102C4000FFFF9AD6369D77ADB3958F7C6566A676E5
:102C50008676A67EA67EA786C88EC896A786A77EFD
:102C6000A67EA67EA67E8676867686768676866E14
:102C7000A66EA66EC676A45502344123A12B022C63
:102C80004234A134ED63328D56A59BCE9AD6FFFF18
:102C9000FFFFBEF735A5F9B5749DB2956D74656EED
:102CA000A676867EA67EA67E867666766676667E24
:102CB000867EA77EA786C786C77EA67E66760566C1
:102CC0006455833C812381238123A123C22B022CC1
:102CD0004134CB5B1185138D19BE59C69EF7FFFF9A
:102CE000FFFFFFFF59CEB8AD3AC6918DB2956E7415
:102CF000256EC67EA67EA67E86766676456E0566BF
:102D0000E45DA455444D0345A33C623422340234AF
:102D1000E22BE22BC22BC22BA12BA12BE12BE12B0F
:102D2000AB5BF184F07C97AD39C679CEFFFFFFFF36
:102D3000FFFFFFFFDFFF96AD7BC699C69085D18D63
:102D4000AF7C4865C57EA67E86766676456E25662E
:102D5000E55DC45D6455244DE344A33C623C4234CC
:102D60002234022CE22BC22BC12BC0238433ED630F
:102D7000F07C107D349597B5D7BDBEF7FFFFFFFF00
:102D8000FFFFFFFFFFFF3CE7B7B5FCD6FBD6908DFA
:102D9000B08D70858C6CA76DC576856E656E256669
:102DA000E55DA4558455444DE344A33C623C423464
:102DB0002234022CE12BE123832B894B6E74EF7CB0
:102DC000107DD28C939455A53CEFFFFFFFFFFFFFD2
:102DD000FFFFFFFFFFFFFFFFDBDE19BE5EE79FF790
:102DE00075AE54A6329E6F85AC6C2865A5654466A9
:102DF000045EE4558455434D0345C23C823C623435
:102E0000212CC233853BAA534D6CAE74EE74F08412
:102E10008F6BD073938CFBE6FFFFFFFFFFFFFFFF7D
:102E2000FFFFFFFFFFFFFFFFFFFFDBDE39C6BFF73E
:102E3000FFFFFFFFF8C6AD7DCE7DAE7D4D75CB6C3F
:102E4000C95CC75CA654854C65442544E643E74B02
:102E5000EA534B648C6CAD6CCD6CF07C6D632A4294
:102E6000CC5231843CE7FFFFFFFFFFFFFFFFFFFF76
:102E7000FFFFFFFFFFFFFFFFFFFFFFFF3CE738C63D
:102E8000FFFFFFFFFFFFDFFFD6BEEF8DAB75AC7519
:102E9000AC758B754B6D2A6DEA64CA64CA64CB64E9
:102EA000CB64CB640E758F7C6E63E839C831E8392A
:102EB000B394BEF7FFFFFFFFFFFFFFFFFFFFFFFF22
:102EC000FFFFFFFFFFFFFFFFFFFFFFFFFFFFDFFF32
:102ED00059CEFBDEFFFFFFFFFFFFBFFF5DE7B8C678
:102EE00054AE1196F08DAF858E856F852F85F08459
:102EF000907CF073ED5A4A4A093A8629CB5A9AD601
:102F0000FFFFFFFFFFFFFFFFFFFFFFFFFFFFFFFFD1
:102F1000FFFFFFFFFFFFFFFFFFFFFFFFFFFFFFFFC1
:102F2000FFFF7DEF79CEFBDE9EF77EEF3DDFDCD647
:102F30007BCEFABD98AD37A5B5943384B1734F639A
:102F40000E5BCC526B4A09426E6B38C6FFFFFFFF27
:102F5000FFFFFFFFFFFFFFFFFFFFFFFFFFFFFFFF81
:102F6000FFFFFFFFFFFFFFFFFFFFFFFFFFFFFFFF71
:102F7000FFFFFFFFFFFFBEF7DBDE7ACE7ACE59C63A
:102F800039BED8B577A515959384F1736F632E5B21
:102F90006F6B318476AD5DEFFFFFFFFFFFFFFFFF3B
:102FA000FFFFFFFFFFFFFFFFFFFFFFFFFFFFFFFF31
:102FB000FFFFFFFFFFFFFFFFFFFFFFFFFFFFFFFF21
:102FC000FFFFFFFFFFFFFFFFFFFFFFFFDFFF7DEFC3
:102FD0001CE7DBDE9AD679CE59CE7ACEDBDE7DEFEA
:102FE000DFFFFFFFFFFFFFFFFFFFFFFFFFFFFFFF11
:102FF000FFFFFFFFFFFFFFFFFFFFFFFFFFFFFFFFE1
:10300000FFFFFFFFFFFFFFFFFFFFFFFFFFFFFFFFD0
:10301000FFFFFFFFFFFFFFFFFFFFFFFFFFFFFFFFC0
:10302000FFFFFFFFFFFFFFFFFFFFFFFFFFFFFFFFB0
:10303000FFFFFFFFFFFFFFFFFFFFFFFFFFFFFFFFA0
:10304000FFFFFFFFFFFFFFFFFFFFFFFFFFFFFFFF90
:10305000001078005F00011BFFFFFFFFFFFFFFFF75
:10306000FFFFFFFFFFFFFFFFFFFFFFFFFFFFFFFF70
:10307000FFFFFFFFFFFFFFFFFFFFFFFFFFFFFFFF60
:10308000FFFFFFFFFFFFFFFFFFFFFFFFFFFFFFFF50
:10309000FFFFFFFFFFFFFFFFFFFFFFFFFFFFFFFF40
:1030A000FFFFFFFFFFFFFFFFFFFFFFFFFFFFFFFF30
:1030B000FFFFFFFFFFFFFFFFFFFFFFFFFFF7BFE780
:1030C0007ECFFEAE3D8EFC6DBC4D7B3D3B353B2D3A
:1030D0007B3D7C45BC5D3C767D96FEBE7EDFBFEFD2
:1030E000FFFFFFFFFFFFFFFFFFFFFFFFFFFFFFFFF0
:1030F000FFFFFFFFFFFFFFFFFFFFFFFFFFFFFFFFE0
:10310000FFFFFFFFFFFFFFFFFFFFFFFFFFFFFFFFCF
:10311000FFFFFFFFFFFFFFFFFFFFFFFFFFFFFFFFBF
:10312000FFFFFFFFFFFFFFFFFFFFFFFFFFFFFFFFAF
:10313000FFFFFFFFFFFFFFFFFFFFFFFFFFFFFFFF9F
:10314000FFFFFFFFFFFFFFFFFFFFFFFFFFFFFFFF8F
:10315000FFFFFFFFFFFFFFFFFFFFFFFFFFFFFFFF7F
:10316000FFFFFFFFFFFFFFFFFFFFFFFFFFFFFFFF6F
:10317000FFFFFFFFFFFFFFFFFFFFFFFFFFFFFFFF5F
:10318000FFFFFFFFFFFFFFFFFFFFFFFFFFFFFFFF4F
:10319000FFFFFFFFFFFFFFFFFFFFFFFFFFFFFFFF3F
:1031A000FFFFFFFFFFFFFFF77EE7BDAEFC6D3B3586
:1031B0007A0C79047A04BA04BA04BA04BA04BA04D8
:1031C000BA04BA047A047A047A04BA04FB24BC4D23
:1031D0007D863ECFBFEFFFFFFFFFFFFFFFFFFFFF3B
:1031E000FFFFFFFFFFFFFFFFFFFFFFFFFFFFFFFFEF
:1031F000FFFFFFFFFFFFFFFFFFFFFFFFFFFFFFFFDF
:10320000FFFFFFFFFFFFFFFFFFFFFFFFFFFFFFFFCE
:10321000FFFFFFFFFFFFFFFFFFFFFFFFFFFFFFFFBE
:10322000FFFFFFFFFFFFFFFFFFFFFFFFFFFFFFFFAE
:10323000FFFFFFFFFFFFFFFFFFFFFFFFFFFFFFFF9E
:10324000FFFFFFFFFFFFFFFFFFFFFFFFFFFFFFFF8E
:10325000FFFFFFFFFFFFFFFFFFFFFFFFFFFFFFFF7E
:10326000FFFFFFFFFFFFFFFFFFFFFFFFFFFFFFFF6E
:10327000FFFFFFFFFFFFFFFFFFFFFFFFFFFFFFFF5E
:10328000FFFFFFFFFFFFFFFFFFFFFFFFFFFFFFFF4E
:10329000FFFFBFEFFDC67B7D3934570B16031603C6
:1032A000560356039703D8033904BA04BB04BB047E
:1032B000BA04BA04BA04BA04BA04BA047A047A049E
:1032C0007A04FA1CBC55BDA67FDFFFFFFFFFFFFF9E
:1032D000FFFFFFFFFFFFFFFFFFFFFFFFFFFFFFFFFE
:1032E000FFFFFFFFFFFFFFFFFFFFFFFFFFFFFFFFEE
:1032F000FFFFFFFFFFFFFFFFFFFFFFFFFFFFFFFFDE
:10330000FFFFFFFFFFFFFFFFFFFFFFFFFFFFFFFFCD
:10331000FFFFFFFFFFFFFFFFFFFFFFFFFFFFFFFFBD
:10332000FFFFFFFFFFFFFFFFFFFFFFFFFFFFFFFFAD
:10333000FFFFFFFFFFFFFFFFFFFFFFFFFFFFFFFF9D
:10334000FFFFFFFFFFFFFFFFFFFFFFFFFFFFFFFF8D
:10335000FFFFFFFFFFFFFFFFFFFFFFFFFFFFFFFF7D
:10336000FFFFFFFFFFFFFFFFFFFFFFFFFFFFFFFF6D
:10337000FFFFFFFFFFFFFFFFFFFFFFFFFFFFFFFF5D
:103380003DCF3A655613D602D6021603160316032E
:10339000160316031603560356035703D903BA043C
:1033A000BB04BA04BA04BA04BA04BA04BA04BA042C
:1033B000BA047A047A04BA043B35BD9EBFE7FFFF26
:1033C000FFFFFFFFFFFFFFFFFFFFFFFFFFFFFFFF0D
:1033D000FFFFFFFFFFFFFFFFFFFFFFFFFFFFFFFFFD
:1033E000FFFFFFFFFFFFFFFFFFFFFFFFFFFFFFFFED
:1033F000FFFFFFFFFFFFFFFFFFFFFFFFFFFFFFFFDD
:10340000FFFFFFFFFFFFFFFFFFFFFFFFFFFFFFFFCC
:10341000FFFFFFFFFFFFFFFFFFFFFFFFFFFFFFFFBC
:10342000FFFFFFFFFFFFFFFFFFFFFFFFFFFFFFFFAC
:10343000FFFFFFFFFFFFFFFFFFFFFFFFFFFFFFFF9C
:10344000FFFFFFFFFFFFFFFFFFFFFFFFFFFFFFFF8C
:10345000FFFFFFFFFFFFFFFFFFFFFFFFFFFFFFFF7C
:10346000FFFFFFFFFFFFFFFFFFFFFFFF7EDF7B850B
:10347000971BD5021603160356035603560356032D
:103480005603560356035603560316035603970373
:103490007904FB04BA04BA04BA04BA04BA04BA043C
:1034A000BA04BA04BA04BA047A047A0CBB4DFDAE6D
:1034B000FFF7FFFFFFFFFFFFFFFFFFFFFFFFFFFF24
:1034C000FFFFFFFFFFFFFFFFFFFFFFFFFFFFFFFF0C
:1034D000FFFFFFFFFFFFFFFFFFFFFFFFFFFFFFFFFC
:1034E000FFFFFFFFFFFFFFFFFFFFFFFFFFFFFFFFEC
:1034F000FFFFFFFFFFFFFFFFFFFFFFFFFFFFFFFFDC
:10350000FFFFFFFFFFFFFFFFFFFFFFFFFFFFFFFFCB
:10351000FFFFFFFFFFFFFFFFFFFFFFFFFFFFFFFFBB
:10352000FFFFFFFFFFFFFFFFFFFFFFFFFFFFFFFFAB
:10353000FFFFFFFFFFFFFFFFFFFFFFFFFFFFFFFF9B
:10354000FFFFFFFFFFFFFFFFFFFFFFFFFFFFFFFF8B
:10355000FFFFFFFFFFFFFFFFFFFF7CB63834950240
:10356000D602560356035603560356035603560314
:1035700056035603560356035603560356031603C3
:1035800056033904FB04BA04BA04BA04BA04BA04F0
:10359000BA04BA04BA04BA04BA04BA047A04BB0C72
:1035A0003C76BFE7FFFFFFFFFFFFFFFFFFFFFFFFCF
:1035B000FFFFFFFFFFFFFFFFFFFFFFFFFFFFFFFF1B
:1035C000FFFFFFFFFFFFFFFFFFFFFFFFFFFFFFFF0B
:1035D000FFFFFFFFFFFFFFFFFFFFFFFFFFFFFFFFFB
:1035E000FFFFFFFFFFFFFFFFFFFFFFFFFFFFFFFFEB
:1035F000FFFFFFFFFFFFFFFFFFFFFFFFFFFFFFFFDB
:10360000FFFFFFFFFFFFFFFFFFFFFFFFFFFFFFFFCA
:10361000FFFFFFFFFFFFFFFFFFFFFFFFFFFFFFFFBA
:10362000FFFFFFFFFFFFFFFFFFFFFFFFFFFFFFFFAA
:10363000FFFFFFFFFFFFFFFFFFFFFFFFFFFFFFFF9A
:10364000FFFFFFFFFFFFBFEFBB7D56139602560340
:1036500056035603560356035603560356035603A2
:103660005603560356035603560356035603560392
:10367000160316033904FB04BA04BA04BA04BA04E4
:10368000BA04BA04BA04BA04BA04BA04BA047A048A
:103690007A04BC4D7EDFFFFFFFFFFFFFFFFFFFFF50
:1036A000FFFFFFFFFFFFFFFFFFFFFFFFFFFFFFFF2A
:1036B000FFFFFFFFFFFFFFFFFFFFFFFFFFFFFFFF1A
:1036C000FFFFFFFFFFFFFFFFFFFFFFFFFFFFFFFF0A
:1036D000FFFFFFFFFFFFFFFFFFFFFFFFFFFFFFFFFA
:1036E000FFFFFFFFFFFFFFFFFFFFFFFFFFFFFFFFEA
:1036F000FFFFFFFFFFFFFFFFFFFFFFFFFFFFFFFFDA
:10370000FFFFFFFFFFFFFFFFFFFFFFFFFFFFFFFFC9
:10371000FFFFFFFFFFFFFFFFFFFFFFFFFFFFFFFFB9
:10372000FFFFFFFFFFFFFFFFFFFFFFFFFFFFFFFFA9
:10373000FFFFFFFFBEE7F95CD502D6025603560332
:1037400056035603560356035603560356035603B1
:1037500056035603560356035603560356035603A1
:103760005603160357037A04BB04BA04BA04BA0416
:10377000BA04BA04BA04BA04BA04BA04BA04BA0459
:10378000BA047A047C4DBFE7FFFFFFFFFFFFFFFF96
:10379000FFFFFFFFFFFFFFFFFFFFFFFFFFFFFFFF39
:1037A000FFFFFFFFFFFFFFFFFFFFFFFFFFFFFFFF29
:1037B000FFFFFFFFFFFFFFFFFFFFFFFFFFFFFFFF19
:1037C000FFFFFFFFFFFFFFFFFFFFFFFFFFFFFFFF09
:1037D000FFFFFFFFFFFFFFFFFFFFFFFFFFFFFFFFF9
:1037E000FFFFFFFFFFFFFFFFFFFFFFFFFFFFFFFFE9
:1037F000FFFFFFFFFFFFFFFFFFFFFFFFFFFFFFFFD9
:10380000FFFFFFFFFFFFFFFFFFFFFFFFFFFFFFFFC8
:10381000FFFFFFFFFFFFFFFFFFFFFFFFFFFFFFFFB8
:10382000FFFF7EDFB944D602160356035603560344
:1038300056035603560356035603560356035603C0
:1038400056035603560356035603560356035603B0
:103850005603560316039703BB04BB04BA04BA0409
:10386000BA04BA04BA04BA04BA04BA04BA04BA0468
:10387000BA04BA047A04FC75FFF7FFFFFFFFFFFFED
:10388000FFFFFFFFFFFFFFFFFFFFFFFFFFFFFFFF48
:10389000FFFFFFFFFFFFFFFFFFFFFFFFFFFFFFFF38
:1038A000FFFFFFFFFFFFFFFFFFFFFFFFFFFFFFFF28
:1038B000FFFFFFFFFFFFFFFFFFFFFFFFFFFFFFFF18
:1038C000FFFFFFFFFFFFFFFFFFFFFFFFFFFFFFFF08
:1038D000FFFFFFFFFFFFFFFFFFFFFFFFFFFFFFFFF8
:1038E000FFFFFFFFFFFFFFFFFFFFFFFFFFFFFFFFE8
:1038F000FFFFFFFFFFFFFFFFFFFFFFFFFFFFFFFFD8
:10390000FFFFFFFFFFFFFFFFFFFFFFFFFFFFFFFFC7
:10391000BEE7794CD60256035603560356035603A8
:1039200056035603560356035603560356035603CF
:1039300056035603560356035603560356035603BF
:103940005603560356031603D903BB04BA04BA043C
:10395000BA04BA04BA04BA04BA04BA04BA04BA0477
:10396000BA04BA04BA04BB0CFEB6FFFFFFFFFFFFA8
:10397000FFFFFFFFFFFFFFFFFFFFFFFFFFFFFFFF57
:10398000FFFFFFFFFFFFFFFFFFFFFFFFFFFFFFFF47
:10399000FFFFFFFFFFFFFFFFFFFFFFFFFFFFFFFF37
:1039A000FFFFFFFFFFFFFFFFFFFFFFFFFFFFFFFF27
:1039B000FFFFFFFFFFFFFFFFFFFFFFFFFFFFFFFF17
:1039C000FFFFFFFFFFFFFFFFFFFFFFFFFFFFFFFF07
:1039D000FFFFFFFFFFFFFFFFFFFFFFFFFFFFFFFFF7
:1039E000FFFFFFFFFFFFFFFFFFFFFFFFFFFFFFFFE7
:1039F000FFFFFFFFFFFFFFFFFFFFFFFFFFFF7EEF68
:103A0000B94CD602560356035603560356035603C3
:103A100056035603560356035603560356035603DE
:103A200056035603560356035603560356035603CE
:103A300056035603560316035703BA04FB04BA048D
:103A4000BA04BA04BA04BA04BA04BA04BA04BA0486
:103A5000BA04BA04BA047A047B4DBFE7FFFFFFFF44
:103A6000FFFFFFFFFFFFFFFFFFFFFFFFFFFFFFFF66
:103A7000FFFFFFFFFFFFFFFFFFFFFFFFFFFFFFFF56
:103A8000FFFFFFFFFFFFFFFFFFFFFFFFFFFFFFFF46
:103A9000FFFFFFFFFFFFFFFFFFFFFFFFFFFFFFFF36
:103AA000FFFFFFFFFFFFFFFFFFFFFFFFFFFFFFFF26
:103AB000FFFFFFFFFFFFFFFFFFFFFFFFFFFFFFFF16
:103AC000FFFFFFFFFFFFFFFFFFFFFFFFFFFFFFFF06
:103AD000FFFFFFFFFFFFFFFFFFFFFFFFFFFFFFFFF6
:103AE000FFFFFFFFFFFFFFFFFFFFFFFFFFFF3A6D3D
:103AF000D60256035603560356035603560356037F
:103B000056035603560356035603560356035603ED
:103B100056035603560356035603560356035603DD
:103B2000560356035603560316033A04BB04BA045D
:103B3000BA04BA04BA04BA04BA04BA04BA04BA0495
:103B4000BA04BA04BA04BA04FA143EBFFFFFFFFF76
:103B5000FFFFFFFFFFFFFFFFFFFFFFFFFFFFFFFF75
:103B6000FFFFFFFFFFFFFFFFFFFFFFFFFFFFFFFF65
:103B7000FFFFFFFFFFFFFFFFFFFFFFFFFFFFFFFF55
:103B8000FFFFFFFFFFFFFFFFFFFFFFFFFFFFFFFF45
:103B9000FFFFFFFFFFFFFFFFFFFFFFFFFFFFFFFF35
:103BA000FFFFFFFFFFFFFFFFFFFFFFFFFFFFFFFF25
:103BB000FFFFFFFFFFFFFFFFFFFFFFFFFFFFFFFF15
:103BC000FFFFFFFFFFFFFFFFFFFFFFFFFFFFFFFF05
:103BD000FFFFFFFFFFFFFFFFFFFFFFFFFB95560B00
:103BE000160356035603560356035603560356034D
:103BF00056035603560356035603560356035603FD
:103C000056035603560356035603560356035603EC
:103C100056035603560356031603D803BB04BB04CE
:103C2000BA04BA04BA04BA04BA04BA04BA04BA04A4
:103C3000BA04BA04BA04BA047A047C86FFF7FFFF18
:103C4000FFFFFFFFFFFFFFFFFFFFFFFFFFFFFFFF84
:103C5000FFFFFFFFFFFFFFFFFFFFFFFFFFFFFFFF74
:103C6000FFFFFFFFFFFFFFFFFFFFFFFFFFFFFFFF64
:103C7000FFFFFFFFFFFFFFFFFFFFFFFFFFFFFFFF54
:103C8000FFFFFFFFFFFFFFFFFFFFFFFFFFFFFFFF44
:103C9000FFFFFFFFFFFFFFFFFFFFFFFFFFFFFFFF34
:103CA000FFFFFFFFFFFFFFFFFFFFFFFFFFFFFFFF24
:103CB000FFFFFFFFFFFFFFFFFFFFFFFFFFFFFFFF14
:103CC000FFFFFFFFFFFFFFFFFFFFFDBE971B160378
:103CD000560356035603560356035603560356031C
:103CE000560356035603560356035603560356030C
:103CF00056035603560356035603560356035603FC
:103D0000560356035603560356039703BB04BB04DE
:103D1000BA04BA04BA04BA04BA04BA04BA04BA04B3
:103D2000BA04BA04BA04BA047A04BC5DBFEFFFFF58
:103D3000FFFFFFFFFFFFFFFFFFFFFFFFFFFFFFFF93
:103D4000FFFFFFFFFFFFFFFFFFFFFFFFFFFFFFFF83
:103D5000FFFFFFFFFFFFFFFFFFFFFFFFFFFFFFFF73
:103D6000FFFFFFFFFFFFFFFFFFFFFFFFFFFFFFFF63
:103D7000FFFFFFFFFFFFFFFFFFFFFFFFFFFFFFFF53
:103D8000FFFFFFFFFFFFFFFFFFFFFFFFFFFFFFFF43
:103D9000FFFFFFFFFFFFFFFFFFFFFFFFFFFFFFFF33
:103DA000FFFFFFFFFFFFFFFFFFFFFFFFFFFFFFFF23
:103DB000FFFFFFFFFFFFFFFFFFF77954D602560317
:103DC000560356035603560356035603560356032B
:103DD000560356035603560356035603560356031B
:103DE000560356035603560356035603560356030B
:103DF000560356035603560316035703BA04FB042F
:103E0000BA04BA04BA04BA04BA04BA04BA04BA04C2
:103E1000BA04BA04BA04BA047A043B35BFE7FFFF18
:103E2000FFFFFFFFFFFFFFFFFFFFFFFFFFFFFFFFA2
:103E3000FFFFFFFFFFFFFFFFFFFFFFFFFFFFFFFF92
:103E4000FFFFFFFFFFFFFFFFFFFFFFFFFFFFFFFF82
:103E5000FFFFFFFFFFFFFFFFFFFFFFFFFFFFFFFF72
:103E6000FFFFFFFFFFFFFFFFFFFFFFFFFFFFFFFF62
:103E7000FFFFFFFFFFFFFFFFFFFFFFFFFFFFFFFF52
:103E8000FFFFFFFFFFFFFFFFFFFFFFFFFFFFFFFF42
:103E9000FFFFFFFFFFFFFFFFFFFFFFFFFFFFFFFF32
:103EA000FFFFFFFFFFFFFFFFFB95160B56035603B7
:103EB000560356035603560356035603560356033A
:103EC000560356035603560356035603560356032A
:103ED000560356035603560356035603560356031A
:103EE0005603560356035603160356037A04BB04BF
:103EF000BA04BA04BA04BA04BA04BA04BA04BA04D2
:103F0000BA04BA04BA04BA047A04FA2C7FD7FFFFC1
:103F1000FFFFFFFFFFFFFFFFFFFFFFFFFFFFFFFFB1
:103F2000FFFFFFFFFFFFFFFFFFFFFFFFFFFFFFFFA1
:103F3000FFFFFFFFFFFFFFFFFFFFFFFFFFFFFFFF91
:103F4000FFFFFFFFFFFFFFFFFFFFFFFFFFFFFFFF81
:103F5000FFFFFFFFFFFFFFFFFFFFFFFFFFFFFFFF71
:103F6000FFFFFFFFFFFFFFFFFFFFFFFFFFFFFFFF61
:103F7000FFFFFFFFFFFFFFFFFFFFFFFFFFFFFFFF51
:103F8000FFFFFFFFFFFFFFFFFFFFFFFFFFFFFFFF41
:103F9000FFFFFFFFFFFF7EE7D733160356035603ED
:103FA0005603560356035603560356035603560349
:103FB0005603560356035603560356035603560339
:103FC0005603560356035603560356035603560329
:103FD0005603560356035603160356037A04BB04CE
:103FE000BA04BA04BA04BA04BA04BA04BA04BA04E1
:103FF000BA04BA04BA04BA047A04FA2C7FDFFFFFC9
:10400000FFFFFFFFFFFFFFFFFFFFFFFFFFFFFFFFC0
:10401000FFFFFFFFFFFFFFFFFFFFFFFFFFFFFFFFB0
:10402000FFFFFFFFFFFFFFFFFFFFFFFFFFFFFFFFA0
:10403000FFFFFFFFFFFFFFFFFFFFFFFFFFFFFFFF90
:10404000FFFFFFFFFFFFFFFFFFFFFFFFFFFFFFFF80
:10405000FFFFFFFFFFFFFFFFFFFFFFFFFFFFFFFF70
:10406000FFFFFFFFFFFFFFFFFFFFFFFFFFFFFFFF60
:10407000FFFFFFFFFFFFFFFFFFFFFFFFFFFFFFFF50
:10408000FFFFFFFFFFFFFB8D160B56035603560382
:104090005603560356035603560356035603560358
:1040A0005603560356035603560356035603560348
:1040B0005603560356035603560356035603560338
:1040C0005603560356035603560357037A04BB049C
:1040D000BA04BA04BA04BA04BA04BA04BA04BA04F0
:1040E000BA04BA04BA04BA047A043B3DBFE7FFFF3E
:1040F000FFFFFFFFFFFFFFFFFFFFFFFFFFFFFFFFD0
:10410000FFFFFFFFFFFFFFFFFFFFFFFFFFFFFFFFBF
:10411000FFFFFFFFFFFFFFFFFFFFFFFFFFFFFFFFAF
:10412000FFFFFFFFFFFFFFFFFFFFFFFFFFFFFFFF9F
:10413000FFFFFFFFFFFFFFFFFFFFFFFFFFFFFFFF8F
:10414000FFFFFFFFFFFFFFFFFFFFFFFFFFFFFFFF7F
:10415000FFFFFFFFFFFFFFFFFFFFFFFFFFFFFFFF6F
:10416000FFFFFFFFFFFFFFFFFFFFFFFFFFFFFFFF5F
:10417000FFFFFFFFBEE7783CD60256035603560307
:104180005603560356035603560356035603560367
:104190005603560356035603560356035603560357
:1041A0005603560356035603560356035603560347
:1041B00056035603560356031603D703BB04BB042A
:1041C000BA04BA04BA04BA04BA04BA04BA04BA04FF
:1041D000BA04BA04BA04BA047A04FC5DBFEFFFFF64
:1041E000FFFFFFFFFFFFFFFFFFFFFFFFFFFFFFFFDF
:1041F000FFFFFFFFFFFFFFFFFFFFFFFFFFFFFFFFCF
:10420000FFFFFFFFFFFFFFFFFFFFFFFFFFFFFFFFBE
:10421000FFFFFFFFFFFFFFFFFFFFFFFFFFFFFFFFAE
:10422000FFFFFFFFFFFFFFFFFFFFFFFFFFFFFFFF9E
:10423000FFFFFFFFFFFFFFFFFFFFFFFFFFFFFFFF8E
:10424000FFFFFFFFFFFFFFFFFFFFFFFFFFFFFFFF7E
:10425000FFFFFFFFFFFFFFFFFFFFFFFFFFFFFFFF6E
:10426000FFFFFFFF3B9E56131603560356035603EC
:104270005603560356035603560356035603560376
:104280005603560356035603560356035603560366
:104290005603560356035603560356035603560356
:1042A000560356035603560316033804BB04BB04D7
:1042B000BA04BA04BA04BA04BA04BA04BA04BA040E
:1042C000BA04BA04BA04BA04BA047D8EFFFFFFFF31
:1042D000FFFFFFFFFFFFFFFFFFFFFFFFFFFFFFFFEE
:1042E000FFFFFFFFFFFFFFFFFFFFFFFFFFFFFFFFDE
:1042F000FFFFFFFFFFFFFFFFFFFFFFFFFFFFFFFFCE
:10430000FFFFFFFFFFFFFFFFFFFFFFFFFFFFFFFFBD
:10431000FFFFFFFFFFFFFFFFFFFFFFFFFFFFFFFFAD
:10432000FFFFFFFFFFFFFFFFFFFFFFFFFFFFFFFF9D
:10433000FFFFFFFFFFFFFFFFFFFFFFFFFFFFFFFF8D
:10434000FFFFFFFFFFFFFFFFFFFFFFFFFFFFFFFF7D
:10435000FFFFBFF7B95CD502560356035603560359
:104360005603560356035603560356035603560385
:104370005603560356035603560356035603560375
:104380005603560356035603560356035603560365
:10439000560356035603560316037904FB04BA0466
:1043A000BA04BA04BA04BA04BA04BA04BA04BA041D
:1043B000BA04BA04BA047A04BA1C3ECFFFFFFFFF66
:1043C000FFFFFFFFFFFFFFFFFFFFFFFFFFFFFFFFFD
:1043D000FFFFFFFFFFFFFFFFFFFFFFFFFFFFFFFFED
:1043E000FFFFFFFFFFFFFFFFFFFFFFFFFFFFFFFFDD
:1043F000FFFFFFFFFFFFFFFFFFFFFFFFFFFFFFFFCD
:10440000FFFFFFFFFFFFFFFFFFFFFFFFFFFFFFFFBC
:10441000FFFFFFFFFFFFFFFFFFFFFFFFFFFFFFFFAC
:10442000FFFFFFFFFFFFFFFFFFFFFFFFFFFFFFFF9C
:10443000FFFFFFFFFFFFFFFFFFFFFFFFFFFFFFFF8C
:10444000FFFF3DCFD82BD602560356035603560323
:104450005603560356035603560356035603560394
:104460005603560356035603560356035603560384
:104470005603560356035603560356035603560374
:1044800056035603560356039703BB04BB04BA04F2
:10449000BA04BA04BA04BA04BA04BA04BA04BA042C
:1044A000BA04BA04BA047A04FC65BFEFFFFFFFFF49
:1044B000FFFFFFFFFFFFFFFFFFFFFFFFFFFFFFFF0C
:1044C000FFFFFFFFFFFFFFFFFFFFFFFFFFFFFFFFFC
:1044D000FFFFFFFFFFFFFFFFFFFFFFFFFFFFFFFFEC
:1044E000FFFFFFFFFFFFFFFFFFFFFFFFFFFFFFFFDC
:1044F000FFFFFFFFFFFFFFFFFFFFFFFFFFFFFFFFCC
:10450000FFFFFFFFFFFFFFFFFFFFFFFFFFFFFFFFBB
:10451000FFFFFFFFFFFFFFFFFFFFFFFFFFFFFFFFAB
:10452000FFFFFFFFFFFFFFFFFFFFFFFFFFFFFFFF9B
:10453000FFFF7CA6161316035603560356035603B5
:1045400056035603560356035603560356035603A3
:104550005603560356035603560356035603560393
:104560005603560356035603560356035603560383
:1045700056035603560316033904BB04BA04BA049F
:10458000BA04BA04BA04BA04BA04BA04BA04BA043B
:10459000BA04BA047A04FB243ECFFFFFFFFFFFFFFB
:1045A000FFFFFFFFFFFFFFFFFFFFFFFFFFFFFFFF1B
:1045B000FFFFFFFFFFFFFFFFFFFFFFFFFFFFFFFF0B
:1045C000FFFFFFFFFFFFFFFFFFFFFFFFFFFFFFFFFB
:1045D000FFFFFFFFFFFFFFFFFFFFFFFFFFFFFFFFEB
:1045E000FFFFFFFFFFFFFFFFFFFFFFFFFFFFFFFFDB
:1045F000FFFFFFFFFFFFFFFFFFFFFFFFFFFFFFFFCB
:10460000FFFFFFFFFFFFFFFFFFFFFFFFFFFFFFFFBA
:10461000FFFFFFFFFFFFFFFFFFFFFFFFFFFFFFFFAA
:10462000FFFF7A75D6025603560356035603560308
:1046300056035603560356035603560356035603B2
:1046400056035603560356035603560356035603A2
:104650005603560356035603560356035603560392
:104660005603560356039703BB04BB04BA04BA04AB
:10467000BA04BA04BA04BA04BA04BA04BA04BA044A
:10468000BA047A04BA0CBEA6FFFFFFFFFFFFFFFFCC
:10469000FFFFFFFFFFFFFFFFFFFFFFFFFFFFFFFF2A
:1046A000FFFFFFFFFFFFFFFFFFFFFFFFFFFFFFFF1A
:1046B000FFFFFFFFFFFFFFFFFFFFFFFFFFFFFFFF0A
:1046C000FFFFFFFFFFFFFFFFFFFFFFFFFFFFFFFFFA
:1046D000FFFFFFFFFFFFFFFFFFFFFFFFFFFFFFFFEA
:1046E000FFFFFFFFFFFFFFFFFFFFFFFFFFFFFFFFDA
:1046F000FFFFFFFFFFFFFFFFFFFFFFFFFFFFFFFFCA
:10470000FFFFFFFFFFFFFFFFFFFFFFFFFFFFFFFFB9
:10471000BEEFB954D502560356035603560356034B
:1047200056035603560356035603560356035603C1
:1047300056035603560356035603560356035603B1
:1047400056035603560356035603560356035603A1
:104750005603560356033904BB04BA04BA04BA0418
:10476000BA04BA04BA04BA04BA04BA04BA04BA0459
:104770007A047A043D7EFFF7FFFFFFFFFFFFFFFF94
:10478000FFFFFFFFFFFFFFFFFFFFFFFFFFFFFFFF39
:10479000FFFFFFFFFFFFFFFFFFFFFFFFFFFFFFFF29
:1047A000FFFFFFFFFFFFFFFFFFFFFFFFFFFFFFFF19
:1047B000FFFFFFFFFFFFFFFFFFFFFFFFFFFFFFFF09
:1047C000FFFFFFFFFFFFFFFFFFFFFFFFFFFFFFFFF9
:1047D000FFFFFFFFFFFFFFFFFFFFFFFFFFFFFFFFE9
:1047E000FFFFFFFFFFFFFFFFFFFFFFFFFFFFFFFFD9
:1047F000FFFFFFFFFFFFFFFFFFFFFFFFFFFFFFFFC9
:104800003DD7D82BD60256035603560356035603FC
:1048100056035603560356035603560356035603D0
:1048200056035603560356035603560356035603C0
:1048300056035603560356035603560356035603B0
:10484000560356039703BA04BB04BA04BA04BA0465
:10485000BA04BA04BA04BA04BA04BA04BA047A04A8
:10486000BB143D86FFF7FFFFFFFFFFFFFFFFFFFFCA
:10487000FFFFFFFFFFFFFFFFFFFFFFFFFFFFFFFF48
:10488000FFFFFFFFFFFFFFFFFFFFFFFFFFFFFFFF38
:10489000FFFFFFFFFFFFFFFFFFFFFFFFFFFFFFFF28
:1048A000FFFFFFFFFFFFFFFFFFFFFFFFFFFFFFFF18
:1048B000FFFFFFFFFFFFFFFFFFFFFFFFFFFFFFFF08
:1048C000FFFFFFFFFFFFFFFFFFFFFFFFFFFFFFFFF8
:1048D000FFFFFFFFFFFFFFFFFFFFFFFFFFFFFFFFE8
:1048E000FFFFFFFFFFFFFFFFFFFFFFFFFFFFFFFFD8
:1048F000BDBE571B160356035603560356035603F5
:1049000056035603560356035603560356035603DF
:1049100056035603560356035603560356035603CF
:1049200056035603560356035603560356035603BF
:1049300056031603D803BB04BB04BA04BA04BA0472
:10494000BA04BA04BA04BA04BA047A04BA043B3DFD
:10495000FEAEFFFFFFFFFFFFFFFFFFFFFFFFFFFFB9
:10496000FFFFFFFFFFFFFFFFFFFFFFFFFFFFFFFF57
:10497000FFFFFFFFFFFFFFFFFFFFFFFFFFFFFFFF47
:10498000FFFFFFFFFFFFFFFFFFFFFFFFFFFFFFFF37
:10499000FFFFFFFFFFFFFFFFFFFFFFFFFFFFFFFF27
:1049A000FFFFFFFFFFFFFFFFFFFFFFFFFFFFFFFF17
:1049B000FFFFFFFFFFFFFFFFFFFFFFFFFFFFFFFF07
:1049C000FFFFFFFFFFFFFFFFFFFFFFFFFFFFFFFFF7
:1049D000FFFFFFFFFFFFFFFFFFFFFFFFFFFFFFFFE7
:1049E0007CAE160B160356035603560356035603A6
:1049F00056035603560356035603560356035603EF
:104A000056035603560356035603560356035603DE
:104A100056035603560356035603560356035603CE
:104A2000560316033904BB04BA04BA04BA04BA0420
:104A30007A04BA047A04BA04BA0C3B2D3D7EBEE770
:104A4000FFFFFFFFFFFFFFFFFFFFFFFFFFFFFFF77E
:104A5000FFEFFFF7FFFFFFFFFFFFFFFFFFFFFFFF7E
:104A6000FFFFFFFFFFFFFFFFFFFFFFFFFFFFFFFF56
:104A7000FFFFFFFFFFFFFFFFFFFFFFFFFFFFFFFF46
:104A8000FFFFFFFFFFFFFFFFFFFFFFFFFFFFFFFF36
:104A9000FFFFFFFFFFFFFFFFFFFFFFFFFFFFFFFF26
:104AA000FFFFFFFFFFFFFFFFFFFFFFFFFFFFFFFF16
:104AB000FFFFFFFFFFFFFFFFFFFFFFFFFFFFFFFF06
:104AC000FFFFFFFFFFFFFFFFFFFFFFFFFFFFFFFFF6
:104AD0003B9E16031603560356035603560356030E
:104AE00056035603560356035603560356035603FE
:104AF00056035603560356035603560356035603EE
:104B000056035603560356035603560356035603DD
:104B100056031603D9037A047A047A047A047A04D1
:104B2000BA0CFB247B45FC65BD967ED7FFFFFFFFDB
:104B3000FFFFFFFFFFFFFFFFFFFFBFE7BEA63C6ECB
:104B4000FC5DFC6DBE9EBEE7FFFFFFFFFFFFFFFFAA
:104B5000FFFFFFFFFFFFFFFFFFFFFFFFFFFFFFFF65
:104B6000FFFFFFFFFFFFFFFFFFFFFFFFFFFFFFFF55
:104B7000FFFFFFFFFFFFFFFFFFFFFFFFFFFFFFFF45
:104B8000FFFFFFFFFFFFFFFFFFFFFFFFFFFFFFFF35
:104B9000FFFFFFFFFFFFFFFFFFFFFFFFFFFFFFFF25
:104BA000FFFFFFFFFFFFFFFFFFFFFFFFFFFFFFFF15
:104BB000FFFFFFFFFFFFFFFFFFFFFFFFFFFFFFFF05
:104BC000FB95D602160356035603560356035603A7
:104BD000560356035603560356035603560356030D
:104BE00056035603560356035603560356035603FD
:104BF000560356035603560356035603560316032D
:104C000016031603390CFB243B35BB4DFC657D8632
:104C1000BDA63EC7BEDFFFFFFFFFFFFFFFFFFFFF99
:104C2000FFFFFFFFFFFFFFFF7EDFBC5D7A047A041A
:104C30003A047A04BA04BC557FD7FFFFFFFFFFFF99
:104C4000FFFFFFFFFFFFFFFFFFFFFFFFFFFFFFFF74
:104C5000FFFFFFFFFFFFFFFFFFFFFFFFFFFFFFFF64
:104C6000FFFFFFFFFFFFFFFFFFFFFFFFFFFFFFFF54
:104C7000FFFFFFFFFFFFFFFFFFFFFFFFFFFFFFFF44
:104C8000FFFFFFFFFFFFFFFFFFFFFFFFFFFFFFFF34
:104C9000FFFFFFFFFFFFFFFFFFFFFFFFFFFFFFFF24
:104CA000FFFFFFFFFFFFFFFFFFFFFFFFFFFFFFFF14
:104CB000FB8DD602160356035603560356035603BE
:104CC000560356035603560356035603560356031C
:104CD000560356035603560356035603560356030C
:104CE000560356035603560356031603560356033C
:104CF0009703D80BFC757ECF7FD7BFE7FFF7FFFF89
:104D0000FFFFFFFFFFFFFFFFFFFFFFFFFFFFFFFFB3
:104D1000FFFFFFFFFFFFBFEF7C557A047A04BA0460
:104D2000BA04BA04BA047A047C55BFE7FFFFFFFF58
:104D3000FFFFFFFFFFFFFFFFFFFFFFFFFFFFFFFF83
:104D4000FFFFFFFFFFFFFFFFFFFFFFFFFFFFFFFF73
:104D5000FFFFFFFFFFFFFFFFFFFFFFFFFFFFFFFF63
:104D6000FFFFFFFFFFFFFFFFFFFFFFFFFFFFFFFF53
:104D7000FFFFFFFFFFFFFFFFFFFFFFFFFFFFFFFF43
:104D8000FFFFFFFFFFFFFFFFFFFFFFFFFFFFFFFF33
:104D9000FFFFFFFFFFFFFFFFFFFFFFFFFFFFFFFF23
:104DA000FB8DD602160356035603560356035603CD
:104DB000560356035603560356035603560356032B
:104DC000560356035603560356035603560356031B
:104DD000560356035603160316035703D8037A04E3
:104DE0007B04BA14FEA6FFFFFFFFFFFFFFFFFFFFDC
:104DF000FFFFFFFFFFFFFFFFFFFFFFFFFFFFFFFFC3
:104E0000FFFFFFFFFFFFBD96BA0CBA04BA04BA0455
:104E1000BA04BA04BA047A047A0C7D96FFFFFFFF45
:104E2000FFFFFFFFFFFFFFFFFFFFFFFFFFFFFFFF92
:104E3000FFFFFFFFFFFFFFFFFFFFFFFFFFFFFFFF82
:104E4000FFFFFFFFFFFFFFFFFFFFFFFFFFFFFFFF72
:104E5000FFFFFFFFFFFFFFFFFFFFFFFFFFFFFFFF62
:104E6000FFFFFFFFFFFFFFFFFFFFFFFFFFFFFFFF52
:104E7000FFFFFFFFFFFFFFFFFFFFFFFFFFFFFFFF42
:104E8000FFFFFFFFFFFFFFFFFFFFFFFFFFFFFFFF32
:104E9000FB95D602160356035603560356035603D4
:104EA000560356035603560356035603560356033A
:104EB000560356035603560356035603560356032A
:104EC00056031603160397033904BA04BB04BB0444
:104ED000BA04BA0C7D8EFFFFFFFFFFFFFFFFFFFF4D
:104EE000FFFFFFFFFFFFFFFFFFFFFFFFFFFFFFFFD2
:104EF000FFFFFFFFFFFFBC5D7A04BA04BA04BA04E7
:104F0000BA04BA04BA04BA047A04BC5DBFF7FFFF5E
:104F1000FFFFFFFFFFFFFFFFFFFFFFFFFFFFFFFFA1
:104F2000FFFFFFFFFFFFFFFFFFFFFFFFFFFFFFFF91
:104F3000FFFFFFFFFFFFFFFFFFFFFFFFFFFFFFFF81
:104F4000FFFFFFFFFFFFFFFFFFFFFFFFFFFFFFFF71
:104F5000FFFFFFFFFFFFFFFFFFFFFFFFFFFFFFFF61
:104F6000FFFFFFFFFFFFFFFFFFFFFFFFFFFFFFFF51
:104F7000FFFFFFFFFFFFFFFFFFFFFFFFFFFFFFFF41
:104F80003BA6160316035603560356035603560351
:104F90005603560356035603560356035603560349
:104FA0005603560356035603560356035603160379
:104FB000160357033904BA04BB04BB04BA04BA0489
:104FC000BA047A04FC65FFFFFFFFFFFFFFFFFFFF4E
:104FD000FFFFFFFFFFFFFFFFFFFFFFFFFFFFFFFFE1
:104FE000FFFFFFFFBFEF7B457A04BA04BA04BA049F
:104FF000BA04BA04BA04BA047A04BB45BFE7FFFF97
:10500000FFFFFFFFFFFFFFFFFFFFFFFFFFFFFFFFB0
:10501000FFFFFFFFFFFFFFFFFFFFFFFFFFFFFFFFA0
:10502000FFFFFFFFFFFFFFFFFFFFFFFFFFFFFFFF90
:10503000FFFFFFFFFFFFFFFFFFFFFFFFFFFFFFFF80
:10504000FFFFFFFFFFFFFFFFFFFFFFFFFFFFFFFF70
:10505000FFFFFFFFFFFFFFFFFFFFFFFFFFFFFFFF60
:10506000FFFFFFFFFFFFFFFFFFFFFFFFFFFFFFFF50
:10507000BCB656131603560356035603560356037F
:105080005603560356035603560356035603560358
:105090005603560356035603560356031603570387
:1050A0003904BA04BB04BB04BA04BA04BA04BA048F
:1050B000BA04BA043B2DBFE7FFFFFFFFFFFFFFFF6E
:1050C000FFFFFFFFFFFFFFFFFFFFFFFFFFFFFFFFF0
:1050D000FFFFFFFF7ED73B35BA04BA04BA04BA0417
:1050E000BA04BA04BA04BA047A04BC55BFEFFFFF8D
:1050F000FFFFFFFFFFFFFFFFFFFFFFFFFFFFFFFFC0
:10510000FFFFFFFFFFFFFFFFFFFFFFFFFFFFFFFFAF
:10511000FFFFFFFFFFFFFFFFFFFFFFFFFFFFFFFF9F
:10512000FFFFFFFFFFFFFFFFFFFFFFFFFFFFFFFF8F
:10513000FFFFFFFFFFFFFFFFFFFFFFFFFFFFFFFF7F
:10514000FFFFFFFFFFFFFFFFFFFFFFFFFFFFFFFF6F
:10515000FFFFFFFFFFFFFFFFFFFFFFFFFFFFFFFF5F
:10516000FDC69723D602560356035603560356032D
:105170005603560356035603560356035603560367
:105180005603560356035603160356033804BA044F
:10519000BB04BB04BA04BA04BA04BA04BA04BA041D
:1051A000BA04BA04BA14BDA6FFFFFFFFFFFFFFFF5A
:1051B000FFFFFFFFFFFFFFFFFFFFFFFFFFFFFFFFFF
:1051C000FFFFFFFFFEBEBB1C7A04BA04BA04BA0498
:1051D000BA04BA04BA04BA047A04BC6DFFF7FFFF3C
:1051E000FFFFFFFFFFFFFFFFFFFFFFFFFFFFFFFFCF
:1051F000FFFFFFFFFFFFFFFFFFFFFFFFFFFFFFFFBF
:10520000FFFFFFFFFFFFFFFFFFFFFFFFFFFFFFFFAE
:10521000FFFFFFFFFFFFFFFFFFFFFFFFFFFFFFFF9E
:10522000FFFFFFFFFFFFFFFFFFFFFFFFFFFFFFFF8E
:10523000FFFFFFFFFFFFFFFFFFFFFFFFFFFFFFFF7E
:10524000FFFFFFFFFFFFFFFFFFFFFFFFFFFFFFFF6E
:105250007EDF3844D60256035603560356035603E0
:105260005603560356035603560356035603560376
:1052700056035603560316039703BA04BB04BB0434
:10528000BA04BA04BA04BA04BA04BA04BA04BA042E
:10529000BA04BA04BA047C45BFEFFFFFFFFFFFFF6B
:1052A000FFFFFFFFFFFFFFFFFFFFFFFFFFFFFFFF0E
:1052B000FFFFFFFFBD9EBA0CBA04BA04BA04BA04D9
:1052C000BA04BA04BA04BA043904FB8DFFFFFFFF25
:1052D000FFFFFFFFFFFFFFFFFFFFFFFFFFFFFFFFDE
:1052E000FFFFFFFFFFFFFFFFFFFFFFFFFFFFFFFFCE
:1052F000FFFFFFFFFFFFFFFFFFFFFFFFFFFFFFFFBE
:10530000FFFFFFFFFFFFFFFFFFFFFFFFFFFFFFFFAD
:10531000FFFFFFFFFFFFFFFFFFFFFFFFFFFFFFFF9D
:10532000FFFFFFFFFFFFFFFFFFFFFFFFFFFFFFFF8D
:10533000FFFFFFFFFFFFFFFFFFFFFFFFFFFFFFFF7D
:10534000FFF73A6DD502560356035603560356032C
:105350005603560356035603560356035603560385
:10536000560356031603D703BA04FB04BA04BA045F
:10537000BA04BA04BA04BA04BA04BA04BA04BA043D
:10538000BA04BA04BA04BA0C7D8EFFFFFFFFFFFF18
:10539000FFFFFFFFFFFFFFFFFFFFFFFFFFFFFFFF1D
:1053A000FFFFFFF7FC6D7A04BA04BA04BA04BA042A
:1053B000BA04BA04BB047A0438147CAEFFFFFFFFC2
:1053C000FFFFFFFFFFFFFFFFFFFFFFFFFFFFFFFFED
:1053D000FFFFFFFFFFFFFFFFFFFFFFFFFFFFFFFFDD
:1053E000FFFFFFFFFFFFFFFFFFFFFFFFFFFFFFFFCD
:1053F000FFFFFFFFFFFFFFFFFFFFFFFFFFFFFFFFBD
:10540000FFFFFFFFFFFFFFFFFFFFFFFFFFFFFFFFAC
:10541000FFFFFFFFFFFFFFFFFFFFFFFFFFFFFFFF9C
:10542000FFFFFFFFFFFFFFFFFFFFFFFFFFFFFFFF8C
:10543000FFFFFB95160B1603560356035603560340
:105440005603560356035603560356035603560394
:1054500056031603D803BB04BB04BA04BA04BA0447
:10546000BA04BA04BA04BA04BA04BA04BA04BA044C
:10547000BA04BA04BA04BA04FB243EC7FFFFFFFF14
:10548000FFFFFFFFFFFFFFFFFFFFFFFFFFFFFFFF2C
:10549000FFFF7ED73B357A04BA04BA04BA04BA04D3
:1054A000BA04BB04BB04D803383C3EDFFFFFFFFF58
:1054B000FFFFFFFFFFFFFFFFFFFFFFFFFFFFFFFFFC
:1054C000FFFFFFFFFFFFFFFFFFFFFFFFFFFFFFFFEC
:1054D000FFFFFFFFFFFFFFFFFFFFFFFFFFFFFFFFDC
:1054E000FFFFFFFFFFFFFFFFFFFFFFFFFFFFFFFFCC
:1054F000FFFFFFFFFFFFFFFFFFFFFFFFFFFFFFFFBC
:10550000FFFFFFFFFFFFFFFFFFFFFFFFFFFFFFFFAB
:10551000FFFFFFFFFFFFFFFFFFFFFFFFFFFFFFFF9B
:10552000FFFFBDBE5723D60256035603560356034C
:1055300056035603560356035603560356035603A3
:105540001603D803BB04BB04BA04BA04BA04BA04F1
:10555000BA04BA04BA04BA04BA04BA04BA04BA045B
:10556000BA04BA04BA04BA047A047C3D7ED7FFFFB9
:10557000FFFFFFFFFFFFFFFFFFFFFFFFFFFFFFFF3B
:10558000FFFFBD9EBA0C7A04BA04BA04BA04BA0486
:10559000BB04BB0439041603F964FFFFFFFFFFFFE0
:1055A000FFFFFFFFFFFFFFFFFFFFFFFFFFFFFFFF0B
:1055B000FFFFFFFFFFFFFFFFFFFFFFFFFFFFFFFFFB
:1055C000FFFFFFFFFFFFFFFFFFFFFFFFFFFFFFFFEB
:1055D000FFFFFFFFFFFFFFFFFFFFFFFFFFFFFFFFDB
:1055E000FFFFFFFFFFFFFFFFFFFFFFFFFFFFFFFFCB
:1055F000FFFFFFFFFFFFFFFFFFFFFFFFFFFFFFFFBB
:10560000FFFFFFFFFFFFFFFFFFFFFFFFFFFFFFFFAA
:10561000FFFF7EE7784CD502560356035603560328
:1056200056035603560356035603560356031603F2
:10563000D803BB04BB04BA04BA04BA04BA04BA045B
:10564000BA04BA04BA04BA04BA04BA04BA04BA046A
:10565000BA04BA04BA04BA04BA047A04BB457ED7C1
:10566000FFFFFFFFFFFFFFFFFFFFFFFFFFFFFFFF4A
:10567000FFF7FC5D7A04BA04BA04BA04BA04FB0466
:10568000BB047A045603160BFB95FFFFFFFFFFFFD9
:10569000FFFFFFFFFFFFFFFFFFFFFFFFFFFFFFFF1A
:1056A000FFFFFFFFFFFFFFFFFFFFFFFFFFFFFFFF0A
:1056B000FFFFFFFFFFFFFFFFFFFFFFFFFFFFFFFFFA
:1056C000FFFFFFFFFFFFFFFFFFFFFFFFFFFFFFFFEA
:1056D000FFFFFFFFFFFFFFFFFFFFFFFFFFFFFFFFDA
:1056E000FFFFFFFFFFFFFFFFFFFFFFFFFFFFFFFFCA
:1056F000FFFFFFFFFFFFFFFFFFFFFFFFFFFFFFFFBA
:10570000FFFFFFFFBB8516035603560356035603E0
:1057100056035603560356035603560316039803BF
:10572000BB04BB04BA04BA04BA04BA04BA04BA0487
:10573000BA04BA04BA04BA04BA04BA04BA04BA0479
:10574000BA04BA04BA04BA04BA04BA047A043B35F7
:10575000FDA6FFF7FFFFFFFFFFFFFFFFFFFFFFFFBC
:105760003EC7FB1C7A04BA04BA04BB04BB04BA04E7
:1057700038045703D502D72B3DD7FFFFFFFFFFFFAC
:10578000FFFFFFFFFFFFFFFFFFFFFFFFFFFFFFFF29
:10579000FFFFFFFFFFFFFFFFFFFFFFFFFFFFFFFF19
:1057A000FFFFFFFFFFFFFFFFFFFFFFFFFFFFFFFF09
:1057B000FFFFFFFFFFFFFFFFFFFFFFFFFFFFFFFFF9
:1057C000FFFFFFFFFFFFFFFFFFFFFFFFFFFFFFFFE9
:1057D000FFFFFFFFFFFFFFFFFFFFFFFFFFFFFFFFD9
:1057E000FFFFFFFFFFFFFFFFFFFFFFFFFFFFFFFFC9
:1057F000FFFFFFFFFDC6D723D6025603560356030D
:105800005603560356035603560316039703BA046A
:10581000FB04BA04BA04BA04BA04BA04BA04BA0457
:10582000BA04BA04BA04BA04BA04BA04BA04BA0488
:10583000BA04BA04BA04BA04BA04BA04BA047A04B8
:10584000BA14FC653EBFFFFFFFFFFFFFFFFFFFF73E
:10585000FD6DBA04BB04BB04BB04BA043A0497034D
:1058600016031603D6023A65FFFFFFFFFFFFFFFF97
:10587000FFFFFFFFFFFFFFFFFFFFFFFFFFFFFFFF38
:10588000FFFFFFFFFFFFFFFFFFFFFFFFFFFFFFFF28
:10589000FFFFFFFFFFFFFFFFFFFFFFFFFFFFFFFF18
:1058A000FFFFFFFFFFFFFFFFFFFFFFFFFFFFFFFF08
:1058B000FFFFFFFFFFFFFFFFFFFFFFFFFFFFFFFFF8
:1058C000FFFFFFFFFFFFFFFFFFFFFFFFFFFFFFFFE8
:1058D000FFFFFFFFFFFFFFFFFFFFFFFFFFFFFFFFD8
:1058E000FFFFFFFFFFFF3A65D6025603560356033C
:1058F0005603560356035603160356037A04FB0455
:10590000BA04BA04BA04BA04BA04BA04BA04BA04A7
:10591000BA04BA04BA04BA04BA04BA04BA04BA0497
:10592000BA04BA04BA04BA04BA04BA04BA04BA0487
:105930007A04BA04FB1CBC557D8E3EBFBFF7FEB691
:10594000BB0C7B04BB047A04D803970356035603AD
:1059500056031603571BFDC6FFFFFFFFFFFFFFFFA8
:10596000FFFFFFFFFFFFFFFFFFFFFFFFFFFFFFFF47
:10597000FFFFFFFFFFFFFFFFFFFFFFFFFFFFFFFF37
:10598000FFFFFFFFFFFFFFFFFFFFFFFFFFFFFFFF27
:10599000FFFFFFFFFFFFFFFFFFFFFFFFFFFFFFFF17
:1059A000FFFFFFFFFFFFFFFFFFFFFFFFFFFFFFFF07
:1059B000FFFFFFFFFFFFFFFFFFFFFFFFFFFFFFFFF7
:1059C000FFFFFFFFFFFFFFFFFFFFFFFFFFFFFFFFE7
:1059D000FFFFFFFFFFFFBDBE971B160356035603D5
:1059E00056035603560356031603D803FB04BA04A2
:1059F000BA04BA04BA04BA04BA04BA04BA04BA04B7
:105A0000BA04BA04BA04BA04BA04BA04BA04BA04A6
:105A1000BA04BA04BA04BA04BA04BA04BA04BA0496
:105A2000BA04BA047A04BA047A0CFB1C3B35792414
:105A3000970397035703560356035603560356031B
:105A40005603D602FA64FFFFFFFFFFFFFFFFFFFFD1
:105A5000FFFFFFFFFFFFFFFFFFFFFFFFFFFFFFFF56
:105A6000FFFFFFFFFFFFFFFFFFFFFFFFFFFFFFFF46
:105A7000FFFFFFFFFFFFFFFFFFFFFFFFFFFFFFFF36
:105A8000FFFFFFFFFFFFFFFFFFFFFFFFFFFFFFFF26
:105A9000FFFFFFFFFFFFFFFFFFFFFFFFFFFFFFFF16
:105AA000FFFFFFFFFFFFFFFFFFFFFFFFFFFFFFFF06
:105AB000FFFFFFFFFFFFFFFFFFFFFFFFFFFFFFFFF6
:105AC000FFFFFFFFFFFFFFFFFA64160356035603B5
:105AD00056035603560356039703BA04BB04BA048D
:105AE000BA04BA04BA04BA04BA04BA04BA04BA04C6
:105AF000BA04BA04BA04BA04BA04BA04BA04BA04B6
:105B0000BA04BA04BA04BA04BA04BA04BA04BA04A5
:105B1000BA04BA04BA04BA04BA04BB04D80316031C
:105B200016035603560356035603560356035603ED
:105B30001603561BFDC6FFFFFFFFFFFFFFFFFFFF22
:105B4000FFFFFFFFFFFFFFFFFFFFFFFFFFFFFFFF65
:105B5000FFFFFFFFFFFFFFFFFFFFFFFFFFFFFFFF55
:105B6000FFFFFFFFFFFFFFFFFFFFFFFFFFFFFFFF45
:105B7000FFFFFFFFFFFFFFFFFFFFFFFFFFFFFFFF35
:105B8000FFFFFFFFFFFFFFFFFFFFFFFFFFFFFFFF25
:105B9000FFFFFFFFFFFFFFFFFFFFFFFFFFFFFFFF15
:105BA000FFFFFFFFFFFFFFFFFFFFFFFFFFFFFFFF05
:105BB000FFFFFFFFFFFFFFFF3ED7D72B1603560364
:105BC00056035603560316033804BB04BA04BA043A
:105BD000BA04BA04BA04BA04BA04BA04BA04BA04D5
:105BE000BA04BA04BA04BA04BA04BA04BA04BA04C5
:105BF000BA04BA04BA04BA04BA04BA04BA04BA04B5
:105C0000BA04BA04BA04BA04BB047A0456031603ED
:105C100056035603560356035603560356035603BC
:105C2000D6023A75FFFFFFFFFFFFFFFFFFFFFFFFF9
:105C3000FFFFFFFFFFFFFFFFFFFFFFFFFFFFFFFF74
:105C4000FFFFFFFFFFFFFFFFFFFFFFFFFFFFFFFF64
:105C5000FFFFFFFFFFFFFFFFFFFFFFFFFFFFFFFF54
:105C6000FFFFFFFFFFFFFFFFFFFFFFFFFFFFFFFF44
:105C7000FFFFFFFFFFFFFFFFFFFFFFFFFFFFFFFF34
:105C8000FFFFFFFFFFFFFFFFFFFFFFFFFFFFFFFF24
:105C9000FFFFFFFFFFFFFFFFFFFFFFFFFFFFFFFF14
:105CA000FFFFFFFFFFFFFFFFFFFFFB95160B5603F4
:105CB0005603560356039703BA04BB04BA04BA0446
:105CC000BA04BA04BA04BA04BA04BA04BA04BA04E4
:105CD000BA04BA04BA04BA04BA04BA04BA04BA04D4
:105CE000BA04BA04BA04BA04BA04BA04BA04BA04C4
:105CF000BA04BA04BA04BB04BA04970316035603E1
:105D0000560356035603560356035603560316030B
:105D100038347EE7FFFFFFFFFFFFFFFFFFFFFFFFBE
:105D2000FFFFFFFFFFFFFFFFFFFFFFFFFFFFFFFF83
:105D3000FFFFFFFFFFFFFFFFFFFFFFFFFFFFFFFF73
:105D4000FFFFFFFFFFFFFFFFFFFFFFFFFFFFFFFF63
:105D5000FFFFFFFFFFFFFFFFFFFFFFFFFFFFFFFF53
:105D6000FFFFFFFFFFFFFFFFFFFFFFFFFFFFFFFF43
:105D7000FFFFFFFFFFFFFFFFFFFFFFFFFFFFFFFF33
:105D8000FFFFFFFFFFFFFFFFFFFFFFFFFFFFFFFF23
:105D9000FFFFFFFFFFFFFFFFFFFFFFF7B954D60232
:105DA000560356031603D803BB04BA04BA04BA0454
:105DB000BA04BA04BA04BA04BA04BA04BA04BA04F3
:105DC000BA04BA04BA04BA04BA04BA04BA04BA04E3
:105DD000BA04BA04BA04BA04BA04BA04BA04BA04D3
:105DE000BA04BA04BB04BA04970316035603560355
:105DF0005603560356035603560356031603560B13
:105E00007CB6FFFFFFFFFFFFFFFFFFFFFFFFFFFF6E
:105E1000FFFFFFFFFFFFFFFFFFFFFFFFFFFFFFFF92
:105E2000FFFFFFFFFFFFFFFFFFFFFFFFFFFFFFFF82
:105E3000FFFFFFFFFFFFFFFFFFFFFFFFFFFFFFFF72
:105E4000FFFFFFFFFFFFFFFFFFFFFFFFFFFFFFFF62
:105E5000FFFFFFFFFFFFFFFFFFFFFFFFFFFFFFFF52
:105E6000FFFFFFFFFFFFFFFFFFFFFFFFFFFFFFFF42
:105E7000FFFFFFFFFFFFFFFFFFFFFFFFFFFFFFFF32
:105E8000FFFFFFFFFFFFFFFFFFFFFFFF3EDFD733F7
:105E90001603560357037A04BB04BA04BA04BA04BF
:105EA000BA04BA04BA04BA04BA04BA04BA04BA0402
:105EB000BA04BA04BA04BA04BA04BA04BA04BA04F2
:105EC000BA04BA04BA04BA04BA04BA04BA04BA04E2
:105ED000BA04BB04BA0498031603560356035603C8
:105EE000560356035603560356035603D602BB8D7C
:105EF000FFFFFFFFFFFFFFFFFFFFFFFFFFFFFFFFB2
:105F0000FFFFFFFFFFFFFFFFFFFFFFFFFFFFFFFFA1
:105F1000FFFFFFFFFFFFFFFFFFFFFFFFFFFFFFFF91
:105F2000FFFFFFFFFFFFFFFFFFFFFFFFFFFFFFFF81
:105F3000FFFFFFFFFFFFFFFFFFFFFFFFFFFFFFFF71
:105F4000FFFFFFFFFFFFFFFFFFFFFFFFFFFFFFFF61
:105F5000FFFFFFFFFFFFFFFFFFFFFFFFFFFFFFFF51
:105F6000FFFFFFFFFFFFFFFFFFFFFFFFFFFFFFFF41
:105F7000FFFFFFFFFFFFFFFFFFFFFFFFFFFFBCBEB5
:105F8000971BD5029703BB04BB04BA04BA04BA0436
:105F9000BA04BA04BA04BA04BA04BA04BA04BA0411
:105FA000BA04BA04BA04BA04BA04BA04BA04BA0401
:105FB000BA04BA04BA04BA04BA04BA04BA04BA04F1
:105FC000BB04BA049803160356035603560356033C
:105FD00056035603560356035603D6023A65FFF797
:105FE000FFFFFFFFFFFFFFFFFFFFFFFFFFFFFFFFC1
:105FF000FFFFFFFFFFFFFFFFFFFFFFFFFFFFFFFFB1
:10600000FFFFFFFFFFFFFFFFFFFFFFFFFFFFFFFFA0
:10601000FFFFFFFFFFFFFFFFFFFFFFFFFFFFFFFF90
:10602000FFFFFFFFFFFFFFFFFFFFFFFFFFFFFFFF80
:10603000FFFFFFFFFFFFFFFFFFFFFFFFFFFFFFFF70
:10604000FFFFFFFFFFFFFFFFFFFFFFFFFFFFFFFF60
:10605000FFFFFFFFFFFFFFFFFFFFFFFFFFFFFFFF50
:10606000FFFFFFFFFFFFFFFFFFFFFFFFFFFFFFFF40
:106070007CAE56139803BB04BA04BA04BA04BA043B
:10608000BA04BA04BA04BA04BA04BA04BA04BA0420
:10609000BA04BA04BA04BA04BA04BA04BA04BA0410
:1060A000BA04BA04BA04BA04BA04BA04BB04FB04BE
:1060B0007A04570316035603560356035603560332
:1060C0005603560356031603D602B94CBEE7FFFF2C
:1060D000FFFFFFFFFFFFFFFFFFFFFFFFFFFFFFFFD0
:1060E000FFFFFFFFFFFFFFFFFFFFFFFFFFFFFFFFC0
:1060F000FFFFFFFFFFFFFFFFFFFFFFFFFFFFFFFFB0
:10610000FFFFFFFFFFFFFFFFFFFFFFFFFFFFFFFF9F
:10611000FFFFFFFFFFFFFFFFFFFFFFFFFFFFFFFF8F
:10612000FFFFFFFFFFFFFFFFFFFFFFFFFFFFFFFF7F
:10613000FFFFFFFFFFFFFFFFFFFFFFFFFFFFFFFF6F
:10614000FFFFFFFFFFFFFFFFFFFFFFFFFFFFFFFF5F
:10615000FFFFFFFFFFFFFFFFFFFFFFFFFFFFFFFF4F
:10616000FFFF3CA6791C7A04BA04BA04BA04BA0444
:10617000BA04BA04BA04BA04BA04BA04BA04BA042F
:10618000BA04BA04BA04BA04BA04BA04BA04BA041F
:10619000BA04BA04BA04BA04BB04FB04BB0439044D
:1061A0005603160356035603560356035603560367
:1061B0005603560316039602B94C7EDFFFFFFFFF1E
:1061C000FFFFFFFFFFFFFFFFFFFFFFFFFFFFFFFFDF
:1061D000FFFFFFFFFFFFFFFFFFFFFFFFFFFFFFFFCF
:1061E000FFFFFFFFFFFFFFFFFFFFFFFFFFFFFFFFBF
:1061F000FFFFFFFFFFFFFFFFFFFFFFFFFFFFFFFFAF
:10620000FFFFFFFFFFFFFFFFFFFFFFFFFFFFFFFF9E
:10621000FFFFFFFFFFFFFFFFFFFFFFFFFFFFFFFF8E
:10622000FFFFFFFFFFFFFFFFFFFFFFFFFFFFFFFF7E
:10623000FFFFFFFFFFFFFFFFFFFFFFFFFFFFFFFF6E
:10624000FFFFFFFFFFFFFFFFFFFFFFFFFFFFFFFF5E
:10625000FFFFFFFFFDAEFB247A04BA04BA04BA04C0
:10626000BA04BA04BA04BA04BA04BA04BA04BA043E
:10627000BA04BA04BA04BA04BA04BA04BA04BA042E
:10628000BA04BA04BB04BB04BB047A049703160324
:106290001603560356035603560356035603560376
:1062A00056031603D602F95C7EE7FFFFFFFFFFFFF0
:1062B000FFFFFFFFFFFFFFFFFFFFFFFFFFFFFFFFEE
:1062C000FFFFFFFFFFFFFFFFFFFFFFFFFFFFFFFFDE
:1062D000FFFFFFFFFFFFFFFFFFFFFFFFFFFFFFFFCE
:1062E000FFFFFFFFFFFFFFFFFFFFFFFFFFFFFFFFBE
:1062F000FFFFFFFFFFFFFFFFFFFFFFFFFFFFFFFFAE
:10630000FFFFFFFFFFFFFFFFFFFFFFFFFFFFFFFF9D
:10631000FFFFFFFFFFFFFFFFFFFFFFFFFFFFFFFF8D
:10632000FFFFFFFFFFFFFFFFFFFFFFFFFFFFFFFF7D
:10633000FFFFFFFFFFFFFFFFFFFFFFFFFFFFFFFF6D
:10634000FFFFFFFFFFFF3EBF3B357A04BA04BB04EB
:10635000BA04BA04BA04BA04BA04BA04BA04BA044D
:10636000BA04BA04BA04BA04BA04BA04BA04BB043C
:10637000BB04BB04BB047A04D803570316031603FB
:106380005603560356035603560356035603560345
:10639000D602160B7B7DBFEFFFFFFFFFFFFFFFFF66
:1063A000FFFFFFFFFFFFFFFFFFFFFFFFFFFFFFFFFD
:1063B000FFFFFFFFFFFFFFFFFFFFFFFFFFFFFFFFED
:1063C000FFFFFFFFFFFFFFFFFFFFFFFFFFFFFFFFDD
:1063D000FFFFFFFFFFFFFFFFFFFFFFFFFFFFFFFFCD
:1063E000FFFFFFFFFFFFFFFFFFFFFFFFFFFFFFFFBD
:1063F000FFFFFFFFFFFFFFFFFFFFFFFFFFFFFFFFAD
:10640000FFFFFFFFFFFFFFFFFFFFFFFFFFFFFFFF9C
:10641000FFFFFFFFFFFFFFFFFFFFFFFFFFFFFFFF8C
:10642000FFFFFFFFFFFFFFFFFFFFFFFFFFFFFFFF7C
:10643000FFFFFFFFFFFFFFFF7FDFFC657A047A04A9
:10644000BB04BB04BB04BB04BB04BA04BA04BA0457
:10645000BA04BA04BB04BB04BB04BB04BB04BB0446
:10646000BB047904D8035603160356035603560398
:106470005603560356035603560356031603D60215
:10648000D7233CA6FFF7FFFFFFFFFFFFFFFFFFFF44
:10649000FFFFFFFFFFFFFFFFFFFFFFFFFFFFFFFF0C
:1064A000FFFFFFFFFFFFFFFFFFFFFFFFFFFFFFFFFC
:1064B000FFFFFFFFFFFFFFFFFFFFFFFFFFFFFFFFEC
:1064C000FFFFFFFFFFFFFFFFFFFFFFFFFFFFFFFFDC
:1064D000FFFFFFFFFFFFFFFFFFFFFFFFFFFFFFFFCC
:1064E000FFFFFFFFFFFFFFFFFFFFFFFFFFFFFFFFBC
:1064F000FFFFFFFFFFFFFFFFFFFFFFFFFFFFFFFFAC
:10650000FFFFFFFFFFFFFFFFFFFFFFFFFFFFFFFF9B
:10651000FFFFFFFFFFFFFFFFFFFFFFFFFFFFFFFF8B
:10652000FFFFFFFFFFFFFFFFFFFFFFF77D9E7A24C6
:10653000D8033904BB04BB04BB04BB04FB04BB0489
:10654000BB04BB04BB04BB04BB04BA047A04D80379
:106550009703560316035603560356035603560372
:1065600056035603560356031603D602160BF95C60
:106570003ED7FFFFFFFFFFFFFFFFFFFFFFFFFFFF14
:10658000FFFFFFFFFFFFFFFFFFFFFFFFFFFFFFFF1B
:10659000FFFFFFFFFFFFFFFFFFFFFFFFFFFFFFFF0B
:1065A000FFFFFFFFFFFFFFFFFFFFFFFFFFFFFFFFFB
:1065B000FFFFFFFFFFFFFFFFFFFFFFFFFFFFFFFFEB
:1065C000FFFFFFFFFFFFFFFFFFFFFFFFFFFFFFFFDB
:1065D000FFFFFFFFFFFFFFFFFFFFFFFFFFFFFFFFCB
:1065E000FFFFFFFFFFFFFFFFFFFFFFFFFFFFFFFFBB
:1065F000FFFFFFFFFFFFFFFFFFFFFFFFFFFFFFFFAB
:10660000FFFFFFFFFFFFFFFFFFFFFFFFFFFFFFFF9A
:10661000FFFFFFFFFFFFFFFFFFFFFFFFFFFF3DD774
:10662000BA7DD71B5603970339043904390439045A
:1066300039043904D903D803970397035603160383
:106640005603560356035603560356035603560382
:10665000560356031603D6021603794C7CAEBFEFE1
:10666000FFFFFFFFFFFFFFFFFFFFFFFFFFFFFFFF3A
:10667000FFFFFFFFFFFFFFFFFFFFFFFFFFFFFFFF2A
:10668000FFFFFFFFFFFFFFFFFFFFFFFFFFFFFFFF1A
:10669000FFFFFFFFFFFFFFFFFFFFFFFFFFFFFFFF0A
:1066A000FFFFFFFFFFFFFFFFFFFFFFFFFFFFFFFFFA
:1066B000FFFFFFFFFFFFFFFFFFFFFFFFFFFFFFFFEA
:1066C000FFFFFFFFFFFFFFFFFFFFFFFFFFFFFFFFDA
:1066D000FFFFFFFFFFFFFFFFFFFFFFFFFFFFFFFFCA
:1066E000FFFFFFFFFFFFFFFFFFFFFFFFFFFFFFFFBA
:1066F000FFFFFFFFFFFFFFFFFFFFFFFFFFFFFFFFAA
:10670000FFFFFFFFFFFFFFFFFFFFFFFFFFFFFFFF99
:10671000FFFF3EDF7A75971BD502D60216031603DC
:106720001603160316031603160316035603560321
:1067300056035603560356035603560356031603D1
:106740001603D602560B79447DAE7FEFFFFFFFFFA5
:10675000FFFFFFFFFFFFFFFFFFFFFFFFFFFFFFFF49
:10676000FFFFFFFFFFFFFFFFFFFFFFFFFFFFFFFF39
:10677000FFFFFFFFFFFFFFFFFFFFFFFFFFFFFFFF29
:10678000FFFFFFFFFFFFFFFFFFFFFFFFFFFFFFFF19
:10679000FFFFFFFFFFFFFFFFFFFFFFFFFFFFFFFF09
:1067A000FFFFFFFFFFFFFFFFFFFFFFFFFFFFFFFFF9
:1067B000FFFFFFFFFFFFFFFFFFFFFFFFFFFFFFFFE9
:1067C000FFFFFFFFFFFFFFFFFFFFFFFFFFFFFFFFD9
:1067D000FFFFFFFFFFFFFFFFFFFFFFFFFFFFFFFFC9
:1067E000FFFFFFFFFFFFFFFFFFFFFFFFFFFFFFFFB9
:1067F000FFFFFFFFFFFFFFFFFFFFFFFFFFFFFFFFA9
:10680000FFFFFFFFFFFF7EDFFC95B954971B160BC0
:1068100016031603160316031603160316031603B0
:106820001603160316031603160316031603561350
:10683000D72B7A6DFDC6BFEFFFFFFFFFFFFFFFFF06
:10684000FFFFFFFFFFFFFFFFFFFFFFFFFFFFFFFF58
:10685000FFFFFFFFFFFFFFFFFFFFFFFFFFFFFFFF48
:10686000FFFFFFFFFFFFFFFFFFFFFFFFFFFFFFFF38
:10687000FFFFFFFFFFFFFFFFFFFFFFFFFFFFFFFF28
:10688000FFFFFFFFFFFFFFFFFFFFFFFFFFFFFFFF18
:10689000FFFFFFFFFFFFFFFFFFFFFFFFFFFFFFFF08
:1068A000FFFFFFFFFFFFFFFFFFFFFFFFFFFFFFFFF8
:1068B000FFFFFFFFFFFFFFFFFFFFFFFFFFFFFFFFE8
:1068C000FFFFFFFFFFFFFFFFFFFFFFFFFFFFFFFFD8
:1068D000FFFFFFFFFFFFFFFFFFFFFFFFFFFFFFFFC8
:1068E000FFFFFFFFFFFFFFFFFFFFFFFFFFFFFFFFB8
:1068F000FFFFFFFFFFFFFFFFFFFFFFFF7EDFFC9DAE
:106900003A657844D72B971B5713560B560B560BEB
:10691000560B56135713D72B383CB94C7B7DBDBE55
:10692000BFF7FFFFFFFFFFFFFFFFFFFFFFFFFFFFBF
:10693000FFFFFFFFFFFFFFFFFFFFFFFFFFFFFFFF67
:10694000FFFFFFFFFFFFFFFFFFFFFFFFFFFFFFFF57
:10695000FFFFFFFFFFFFFFFFFFFFFFFFFFFFFFFF47
:10696000FFFFFFFFFFFFFFFFFFFFFFFFFFFFFFFF37
:10697000FFFFFFFFFFFFFFFFFFFFFFFFFFFFFFFF27
:10698000FFFFFFFFFFFFFFFFFFFFFFFFFFFFFFFF17
:10699000FFFFFFFFFFFFFFFFFFFFFFFFFFFFFFFF07
:1069A000FFFFFFFFFFFFFFFFFFFFFFFFFFFFFFFFF7
:1069B000FFFFFFFFFFFFFFFFFFFFFFFFFFFFFFFFE7
:1069C000FFFFFFFFFFFFFFFFFFFFFFFFFFFFFFFFD7
:1069D000FFFFFFFFFFFFFFFFFFFFFFFFFFFFFFFFC7
:1069E000FFFFFFFFFFFFFFFFFFFFFFFFFFFFFFFFB7
:1069F000FFFFBFF73EDFFDC6BDBE7CAE3CA63CA69A
:106A00007CA67CB6BDBE3ECF7EEFFFFFFFFFFFFF43
:106A1000FFFFFFFFFFFFFFFFFFFFFFFFFFFFFFFF86
:106A2000FFFFFFFFFFFFFFFFFFFFFFFFFFFFFFFF76
:106A3000FFFFFFFFFFFFFFFFFFFFFFFFFFFFFFFF66
:106A4000FFFFFFFFFFFFFFFFFFFFFFFFFFFFFFFF56
:10720000BEF7BADEBADEBADEBADEBADEBADEBADEA1
:10721000BADEBEF7FFFF37C6308C308C34A57DEF69
:10722000FFFFFFFFFFFFFFFFFFFFFFFFFFFFFFFF6E
:10723000FFFFFFFFFFFFFFFFFFFFFFFFFFFFFFFF5E
:10724000FFFFFFFFFFFFFFFFFFFFFFFFFFFFFFFF4E
:10725000FFFFFFFFFFFFFFFF7DEFBAD6BADEBADE0A
:10726000BADEBADEBADEBADEFBE6BEF7FFFFFFFF2C
:10727000FFFFFFFFFFFFFFFFFFFFFFFFFFFFFFFF1E
:10728000FFFFFFFFFFFFFFFFFFFFFFFFFFFFFFFF0E
:10729000FFFFFFFFFFFFFFFFFFFFFFFFFFFFFFFFFE
:1072A000FFFFFFFFFFFFFFFFFFFFFFFFFFFF38CEE6
:1072B0007194308CB29C7DEFFFFFFFFFFFFFFFFF5B
:1072C000FFFFFFFFFFFFFFFFFFFFFFFFFFFFFFFFCE
:1072D000FFFFFFFFFFFFFFFFFFFFFFFFFFFFFFFFBE
:1072E000FFFFFFFFFFFFFFFFFFFFFFFF3CE7708C8B
:1072F0008641043104290429042904290429032985
:107300004531F7BDFFFFCF8300080008C741FBDE12
:10731000FFFFFFFFFFFFFFFFFFFFFFFFFFFFFFFF7D
:10732000FFFFFFFFFFFFFFFFFFFFFFFFFFFFFFFF6D
:10733000FFFFFFFFFFFFFFFFFFFFFFFFFFFFFFFF5D
:10734000FFFFFFFFFFFFFFFF33A5822045314431E0
:1073500004290429042904290429C749F39CBEF7F8
:10736000FFFFFFFFFFFFFFFFFFFFFFFFFFFFFFFF2D
:10737000FFFFFFFFFFFFFFFFFFFFFFFFFFFFFFFF1D
:10738000FFFFFFFFFFFFFFFFFFFFFFFFFFFFFFFF0D
:10739000FFFFFFFFFFFFFFFFFFFFFFFFFFFFB294B5
:1073A000411800084531FBDEFFFFFFFFFFFFFFFF35
:1073B000FFFFFFFFFFFFFFFFFFFFFFFFFFFFFFFFDD
:1073C000FFFFFFFFFFFFFFFFFFFFFFFFFFFFFFFFCD
:1073D000FFFFFFFFFFFFFFFFFFFF79D6C741000858
:1073E00081188118401001184118411841180008EF
:1073F0008218B6B5FFFFCF8300080000C741FBDE4F
:10740000FFFFFFFFFFFFFFFFFFFFFFFFFFFFFFFF8C
:10741000FFFFFFFFFFFFFFFFFFFFFFFFFFFFFFFF7C
:10742000FFFFFFFFFFFFFFFFFFFFFFFFFFFFFFFF6C
:10743000FFFFFFFFFFFFFFFFF3A44010C220C220A9
:107440004118011801184010411841184018CB622A
:10745000FBE6FFFFFFFFFFFFFFFFFFFFFFFFFFFF59
:10746000FFFFFFFFFFFFFFFFFFFFFFFFFFFFFFFF2C
:10747000FFFFFFFFFFFFFFFFFFFFFFFFFFFFFFFF1C
:10748000FFFFFFFFFFFFFFFFFFFFFFFFFFFF719405
:10749000401000080429FBDEFFFFFFFFFFFFFFFF96
:1074A000FFFFFFFFFFFFFFFFFFFFFFFFFFFFFFFFEC
:1074B000FFFFFFFFFFFFFFFFFFFFFFFFFFFFFFFFDC
:1074C000FFFFFFFFFFFFFFFF3CE707420008C2206E
:1074D00082184531084A084A084A084A084A074AB1
:1074E000485238C6FFFFF39CC63986390C6B3CE71F
:1074F000FFFFFFFFFFFFFFFFFFFFFFFFFFFFFFFF9C
:10750000FFFFFFFFFFFFFFFFFFFFFFFFFFFFFFFF8B
:10751000FFFFFFFFFFFFFFFFFFFFFFFFFFFFFFFF7B
:10752000FFFFFFFFFFFFFFFFF3A44110C32003296C
:10753000C741084A084A074A04298218C220001095
:10754000CB62FFF7FFFFFFFFFFFFFFFFFFFFFFFF24
:10755000FFFFFFFFFFFFFFFFFFFFFFFFFFFFFFFF3B
:10756000FFFFFFFFFFFFFFFFFFFFFFFFFFFFFFFF2B
:10757000FFFFFFFFFFFFFFFFFFFFFFFFFFFF34AD38
:10758000074AC6398A5A3CE7FFFFFFFFFFFFFFFFAC
:10759000FFFFFFFFFFFFFFFFFFFFFFFFFFFFFFFFFB
:1075A000FFFFFFFFFFFFFFFFFFFFFFFFFFFFFFFFEB
:1075B000FFFFFFFFFFFFFFFFB29C0010822081183A
:1075C000CB62BADEBEF77DEF7DEF7DEF7DEF7DEF25
:1075D0007DEFBEF7FFFFFFFFFFF7BEF7BEF7FFFF30
:1075E000FFFFFFFFFFFFFFFFFFFFFFFFFFFFFFFFAB
:1075F000FFFFFFFFFFFFFFFFFFFFFFFFFFFFFFFF9B
:10760000FFFFFFFFFFFFFFFFFFFFFFFFFFFFFFFF8A
:10761000FFFFFFFFFFFFFFFFF3A441108218853932
:1076200079CEBEFF7DEF7EEF78CE495242188220A0
:10763000821875ADFFFFFFFFFFFFFFFFFFFFFFFF9A
:10764000FFFFFFFFFFFFFFFFFFFFFFFFFFFFFFFF4A
:10765000FFFFFFFFFFFFFFFFFFFFFFFFFFFFFFFF3A
:10766000FFFFFFFFFFFFFFFFFFFFFFFFFFFFFFFF2A
:10767000FFFFBFF7BEF7FFFFFFFFFFFFFFFFFFFFAB
:10768000FFFFFFFFFFFFFFFFFFFFFFFFFFFFFFFF0A
:10769000FFFFFFFFFFFFFFFFFFFFFFFFFFFFFFFFFA
:1076A000FFFFFFFFFFFFFFFF8A5A40108220C74104
:1076B000FBDEFFFFFFFFFFFFFFFFFFFFFFFFFFFFFF
:1076C000FFFFFFFFFFFFBAD6F7BDFBDEBEF7FFFFF0
:1076D000FFFFFFFFFFFF3CE7F6BDF39CF39CF39C2D
:1076E000F39CB39CF29CB19479CEFFFFFFFFFFFFA8
:1076F000FEFF79CE34ADB39CF39CF39CF39CF39CDA
:10770000B294F3A47DEFFFFFF3A4411082188639F1
:10771000FBDEFFFFFFFFFFFFFFFF38CE04318118C4
:1077200040188E7BFFFFFFFFFFFFFFFFBAD634AD8F
:10773000F39CF39CF39C75ADBAD6FFFFFFFFFFFFF0
:1077400079CEB194719475AD7DEFFFFFFFFFFFFF20
:10775000FFFF7EF734B57194B19438C6FFFFFBDEAE
:10776000F7C5FADEBEF7FFFFFFFFFFFFFFFF7EEF6B
:10777000F7C5F3A4B29CF39CF39CB194B6B5FFFF9C
:10778000FFFFFFFF3CEFB6B5F39CF39CF39CF39C2B
:10779000B6B57DEFFFFFFFFF8639811841188E7B5C
:1077A000FFFFFFFFFFFFFFFFFFFFFFFFFFFFFFFFE9
:1077B000FFFFFFFFBEF7CF8300108539CF7B7DEF42
:1077C000FFFFFFFF37C6494A822000080010001063
:1077D0000010401040100000CF83BEF7FFFF7DEF88
:1077E0002F84443141180008000800080010411897
:1077F0000000C32079CEFFFFF3A441108218453961
:10780000BADEFFFFFFFFFFFFFFFFFFFFCA62411865
:107810004118CB62FFFFFFFFBEF7B294453141181C
:1078200000100008001081188639F3A4FFFFFFFF45
:1078300034A500080000822079CEFFFFFFFFFFFF84
:10784000FFFF79CEC32000004008B29CFFFF719477
:10785000822085314D737DEFFFFFFFFFFBDECB62A2
:107860008220401000080010000800008E7BBEF748
:10787000FFFFB9D6495A821840100008000841108D
:1078800082188A5ABAD6FFFF453941208118308CB8
:10789000FFFFFFFFFFFFFFFFFFFFFFFFFFFFFFFFF8
:1078A000FFFFFFFFBEF7CF8B00080000C739FBDEEC
:1078B000FFFFBADE86390008001000080010001033
:1078C00000108118C2200010CF8BBEF7FFFFCF7BC6
:1078D0000008401000080010001800104118C320D4
:1078E0004010443179CEFFFFF3A44110821845398E
:1078F000BADEFFFFFFFFFFFFFFFFFFFF0C6B41182A
:107900004118CB62FFFFFFFFF29C411000080010FE
:1079100000100018001000080008822075ADFFFF5D
:10792000BAD6853900084010F3A4FFFFFFFFFFFF20
:10793000FFFF34A501100010863979CEFFFFB29405
:10794000411000000429BADEFFFFFBE649520000A7
:10795000001000100018001800080008B6B5FFFF5E
:10796000FBDE074A0008011000080018001000089C
:1079700041100008074AFBDE8639812081183084D7
:10798000FFFFFFFFFFFFFFFFFFFFFFFFFFFFFFFF07
:10799000FFFFFFFFBEF72F8C40100010084AFCE6E7
:1079A000FFFF0C6B0008822004312F8C34A534A516
:1079B000B294863981100010CF8BFFFF38C6C320E8
:1079C0004118C220895AF3A434AD75AD0C6BC220A6
:1079D0000010443979D6FFFFF3A4411082184539CD
:1079E000BADEFFFFFFFFFFFFFFFFFFFF0C6B411839
:1079F0004118CB62FFFFFBDE453100108118084AB9
:107A0000B29CF3A4F39C084A8218001086397CE7E4
:107A1000BEF7CB62000800100C737DEFFFFFFFFF85
:107A2000BEF74D6B00104118CB62BEF7FFFFB2945A
:107A3000C32000188639FBE6FFFFB19400008118CF
:107A400004214D7334ADF3A4F39C34AD7DEFFFFFFF
:107A5000CF7B0008822004298E7B34AD34AD4D7B72
:107A6000C32882200008308C863981208118308418
:107A7000FFFFFFFFFFFFFFFFFFFFFFFFFFFFFFFF16
:107A8000FFFFFFFFBEF7D08B00104008084A3CE71D
:107A90003CEF853981184120CF83FFFFFFFFFFFFB7
:107AA0003CEF495A00080010308CFFFFCF83411093
:107AB0004118C641BADEFFFFFFFFFFFF33A5811863
:107AC0000010443979D6FFFFF3A4411082184539DC
:107AD000BADEFFFFFFFFFFFFFFFFFFFF0C6B411848
:107AE0004118CB62FFFF75AD41104010853138C69B
:107AF000FFFFFFFFFFFFBAD604298118821834ADBB
:107B0000FFFF2F8400100010C741FBE6FFFFFFFFBF
:107B1000FBDE863940108118308CFFFFFFFFB294E6
:107B20008220001086393CE7BEF78A5A00084118C7
:107B3000CB62BDF7FFFFFFFFFFFFFFFFFFFFBEF7B9
:107B4000C741411882184D73FFFFFFFFFFFFFFFF82
:107B50004D7B82204118C7498639812081183084A5
:107B6000FFFFFFFFFFFFFFFFFFFF79CE308475B5FA
:107B7000BAD6FFFFBEF7D08B00104008084A3CE79A
:107B8000FBDE44318118411834ADFFFFFFFFFFFFDA
:107B90003CE7495200080010308CFFFF0C6B411885
:107BA00041188A5ABFF7FFFFFFFFFFFFF39C8218BF
:107BB0000010443979D6FFFFF3A4411082184539EB
:107BC000BADEFFFFFFFFFFFFFFFFFFFF0C6B411857
:107BD0004118CB62FFFF719440104010C74138C676
:107BE000FBDEBAD6BAD679CE853181208118719460
:107BF000FFFF75B5C2200008C32838C6FFFFFFFF8E
:107C000038CEC2208118C32875B5FFFFFFFFB2949C
:107C10008220001086393CE77DEF084A0010822060
:107C20002F84FFFFFFFFFFFFFFFFFFFFFFFF7DEF41
:107C30004531812081188E7B3CE7BAD6BAD63CE725
:107C40002F8482208120453186398120811830841B
:107C5000FFFFFFFFFFFFFFFFFFFFB6BDC31841108F
:107C6000863938C6FFFFD08B00104008084A3CE731
:107C7000FBDE05398118411834A5FFFFFFFFFFFF28
:107C80003CE7495200080010308CFFFF4D6B411853
:107C900041188A5ABEF7FFFFFFFFFFFFF39C8218CF
:107CA0000010443979D6FFFFF3A4411082184539FA
:107CB000BADEFFFFFFFFFFFFFFFFFFFF0C6B411866
:107CC0004118CC62FFFF70944010C2200329443158
:107CD0008539853985398531032182208220308C90
:107CE000FFFFBADEC741000800107194FFFFFFFFDD
:107CF0007194401082188641FBDEFFFFFFFFB294B3
:107D00008220001086393CE77DEF084A001082206F
:107D1000CF83FFFFFFFFFFFFFFFFFFFFFFFF7DEFB1
:107D200045318220C3200329853985398539853934
:107D30000429C3208220453186398120811830846E
:107D4000FFFFFFFFFFFFFFFFFFFFF7BDC320411055
:107D5000C220B6BDFFFFD08B00104008084A3CE7A8
:107D6000FBDE053981184118F39CFFFFFFFFFFFF81
:107D70003CE7495200080010308CFFFF4D6B411862
:107D800041188A5ABEF7FFFFFFFFFFFFF39C8218DE
:107D90000010443979D6FFFFF3A441108218453909
:107DA000BADEFFFFFFFFFFFFFFFFFFFF0C6B411875
:107DB0004118CC62FFFFB0944010C320C320411093
:107DC00000104018401040188118411841103084AC
:107DD000FFFFBEF70D6B40100010CB6A7DF7FFFF71
:107DE000CA6241184118CA62FFFFFFFFFFFFB29449
:107DF0008220001086393CE77DEF084A001082207F
:107E0000CF7BFFFFFFFFFFFFFFFFFFFFFFFF7DEFC8
:107E100045318220C32081200018401840180010EE
:107E20004110821841180429863981208118CF8396
:107E3000FFFFFFFFFFFFFFFFFFFFF7B5C328412054
:107E4000C328B6BDFFFFD08B00104008084A3CE7AE
:107E5000FBDE053981184118F3A4FFFFFFFFFFFF88
:107E60003CE7495200080010308CFFFF4D6B411871
:107E700041188A5ABEF7FFFFFFFFFFFFF39C8218ED
:107E80000010443979D6FFFFF3A441108218453918
:107E9000BADEFFFFFFFFFFFFFFFFFFFF0C6B411884
:107EA0004118CC62FFFF70944010C1200431085289
:107EB0008A5249524952495249524952485234AD64
:107EC000FFFFFFFFB29C822000084531BAD67DF744
:107ED000453141208220718CFFFFFFFFFFFFB294EC
:107EE0008220001086393CE77DEF084A001082208E
:107EF000CF7BFFFFFFFFFFFFFFFFFFFFFFFF7DEFD8
:107F000045318220C22086418A5A495249524952FB
:107F1000495249524952CB62074A81184118CB6AEB
:107F2000FFFFFFFFFFFFFFFFFFFFF7BDC32841205B
:107F3000C328B6BDFFFFD08B00104008084A3CE7BD
:107F4000FBDE44318118411834A5FFFFFFFFFFFF1E
:107F50003CE7495200080010308CFFFF0C6B4118C1
:107F600041188A5ABEF7FFFFFFFFFFFFF39C8218FC
:107F70000010443979D6FFFFF3A441108218453927
:107F8000BADEFFFFFFFFFFFFFFFF3CE7084A811853
:107F900041184D6BFFFF309400100008084AFBDECB
:107FA000FFFFFFFFFFFFFFFFFFFFFFFFFFFFFFFFE1
:107FB000FFFFFFFFF7BD043140108118B6BDB6BD0D
:107FC00082208218042978CEFFFFFFFFFFFFB294C2
:107FD0008220001086393CE77DEF074A001082209E
:107FE0002F84FFFFFFFFFFFFFFFFFFFFFFFF7DEF7E
:107FF000453181208220718CFFFFFFFFFFFFFFFFD3
:10800000FFFFFFFFFFFFFFFF8E7B00108220C328D2
:1080100033A5FFFFFFFFFFFFFFFFF7C5C328411890
:10802000C328B6BDFFFFD08B00104008084A3CE7CC
:108030007CE78539811841203084FFFFFFFFFFFF77
:108040003CEF495A00080010308CFFFF8E7B411036
:108050008118074AFBDEFFFFFFFFFFFFF39C822032
:108060000010443979D6FFFFF3A4411082188539F6
:10807000BADEFFFFFFFFFFFFFFFF718C822082202F
:1080800041187194FFFFF4A441104010853138C6A7
:10809000FFFFFFFFFFFFFFFFFFFFFFFFFFFFFFFFF0
:1080A000FFFFFFFFFBE6084A41180008708C4E7B7B
:1080B0008118411808527DF7FFFFFFFFFFFFB294C0
:1080C0008220001086393CE7BEF7895A0008411823
:1080D0000C6BBEF7FFFFFFFFFFFFFFFFFFFFBEF7C9
:1080E000C641411881184D73FFFFFFFFFFFFFFFFDF
:1080F000FFFFFFFFFFFFFFFFF7C582204118411878
:1081000044292F8475AD34ADB6BD2F84C2208220A2
:10811000C328B6BDFFFF308C40104010084AFCE673
:10812000FFFFCB6A001082204539B294B5B575B512
:1081300033A5C64140180010CF8BFFFFF7BD82204A
:108140004118C2200C6BB5B575B5B6B54D73C220DC
:108150004010443979D6FFFFF3A44110C2204431C6
:10816000B294B6B534AD75AD4D73C22082204118BE
:108170004539FBDEFFFFBAD6453140108118495220
:1081800034AD75B534AD34AD74AD34A538C6FFFF2C
:10819000FFFFFFFFFFFF4D734118811885414539EF
:1081A000C22041108E73FFFFFFFFFFFFFFFFB2945D
:1081B000C32040108639FBE6FFFF708C0008811851
:1081C0000431CF83B6B574AD35AD34A538C6BEF72E
:1081D000CE7B000882184431718C75B574AD34AD16
:1081E00074AD34AD75AD7DEFBEFF308C000800106E
:1081F000401000084010011840108118C22081185A
:10820000C328B6BDFFFFCF8300100008084AFBDE7D
:10821000FFFF38CE45310010001000104018001844
:108220004018C220C2200010D08BBEF7FFFF4D6B5C
:108230000010401000104010401840104118C3209A
:108240000110443179CEFFFFF39C0010C320821847
:1082500041184018011840100008001040108220FA
:1082600033A5FFFFFFFFFFFF718C00080010001017
:108270000010001800180018401041087194FFFF0A
:10828000FFFFFFFFFFFF33A5811841104118811840
:108290004110821075ADFFFFFFFFFFFFFFFFB2949B
:1082A000821840104531BADEFFFFFBDEC7410000F7
:1082B0004010001040104018001000008E7BBEF7E8
:1082C000FBDE8539000840100010401040180018EF
:1082D0004018000045313CE7FFFFBEF7708C453980
:1082E000411800100010001000100010401000088D
:1082F0004118B6BDFFFFCF7B00000000C739FBDE91
:10830000FFFFFFFFB6B5C749821800100010000834
:108310000010822003210010D08BBEF7FFFF3CE746
:108320004D7B042941100010001000100010401077
:108330000000C32079CEFFFFB2940000401040102F
:1083400000100010001000100010C118C74934AD13
:10835000FFFFFFFFFFFFFFFF7DEF30840431401080
:1083600000100010001000100000C32079CEFFFFA5
:10837000FFFFFFFFFFFF7DEF4D7381180008001026
:1083800041180C737DEFFFFFFFFFFFFFFFFF308CF5
:10839000000800000429FBDEFFFFFFFF79CE4A52F0
:1083A00082200010000800100008000834ADFFFF14
:1083B000FFFF38C60852821800100010001000108D
:1083C000001000004D6BBEF7FFFFFFFFFFFFBAD6A6
:1083D000F39CCE7BCE7BCE83CE83CE83CE838E7B2F
:1083E000CF7BFBD6FFFFB6BD8D7B4D73B2947DEF87
:1083F000FFFFFFFFFFFFFBDE34ADCF83CE832F8473
:108400008E7B863981180010CF8BBEF7FFFFFFFFF0
:10841000BEF7F8BD3094CE7BCE83CE83CE83CE83A1
:108420008E7B30843BEFFFFF38CE8D73CE83CE83BF
:10843000CE83CE83CE83CE7BCF8374ADFBDEFFFFB6
:10844000FFFFFFFFFFFFFFFFFFFFBEF779CE729434
:10845000CE7BCE7BCE83CE7B8E7BB294BEF7FFFFEE
:10846000FFFFFFFFFFFFFFFF7DEF34ADCF7B8E7B74
:1084700034AD7DEFFFFFFFFFFFFFFFFFFFFFF7C5FD
:10848000CE7B8E7B718C7DEFFFFFFFFFFFFF7DEFCB
:1084900075B5CF838E83CF838E7BCF8B3CE7FFFF79
:1084A000FFFFFFFF3CE774AD2F84CE83CE83CE83E6
:1084B000CE7B4D7338CEFFFFFFFFFFFFFFFFFFFFB7
:1084C000FFFFFFFFFFF7FFFFFFFFFFFFFFFFFFFFC4
:1084D000FFFFFFFFFFFFFFFFFFFFFFFFFFFFFFFFAC
:1084E000FFFFFFFFFFFFFFFFFFFFFFFFFFFFFFFF9C
:1084F0003CE7495200104010308CBEF7FFFFFFFFF1
:10850000FFFFFFFFFFFFFFF7FFFFFFFFFFFFFFFF83
:10851000FFFFFFFFFFFFFFFFFFFFFFFFFFFFFFFF6B
:10852000FFFFFFFFFFFFFFFFFFFFFFFFFFFFFFFF5B
:10853000FFFFFFFFFFFFFFFFFFFFFFFFFFFFFFFF4B
:10854000FFFFFFFFFFFFFFFFFFFFFFFFFFFFFFFF3B
:10855000FFFFFFFFFFFFFFFFFFFFFFFFFFFFFFFF2B
:10856000FFFFFFFFFFFFFFFFFFFFFFFFFFFFFFFF1B
:10857000FFFFFFFFFFFFFFFFFFFFFFFFFFFFFFFF0B
:10858000FFFFFFFFFFFFFFFFFFFFFFFFFFFFFFFFFB
:10859000FFFFFFFFFFFFFFFFFFFFFFFFFFFFFFFFEB
:1085A000FFFFFFFFFFFFFFFFFFFFFFFFFFFFFFFFDB
:1085B000FFFFFFFFFFFFFFFFFFFFFFFFFFFFFFFFCB
:1085C000FFFFFFFFFFFFFFFFFFFFFFFFFFFFFFFFBB
:1085D000FFFFFFFFBEF77DEF7DF77DF7BEF7BEF72C
:1085E00033A5C3284118401074ADFFFFFFFFFFFF04
:1085F000FFFFFFFFFFFFFFFFFFFFFFFFFFFFFFFF8B
:10860000FFFFFFFFFFFFFFFFFFFFFFFFFFFFFFFF7A
:10861000FFFFFFFFFFFFFFFFFFFFFFFFFFFFFFFF6A
:10862000FFFFFFFFFFFFFFFFFFFFFFFFFFFFFFFF5A
:10863000FFFFFFFFFFFFFFFFFFFFFFFFFFFFFFFF4A
:10864000FFFFFFFFFFFFFFFFFFFFFFFFFFFFFFFF3A
:10865000FFFFFFFFFFFFFFFFFFFFFFFFFFFFFFFF2A
:10866000FFFFFFFFFFFFFFFFFFFFFFFFFFFFFFFF1A
:10867000FFFFFFFFFFFFFFFFFFFFFFFFFFFFFFFF0A
:10868000FFFFFFFFFFFFFFFFFFFFFFFFFFFFFFFFFA
:10869000FFFFFFFFFFFFFFFFFFFFFFFFFFFFFFFFEA
:1086A000FFFFFFFFFFFFFFFFFFFFFFFFFFFFFFFFDA
:1086B000FFFFFFFFFFFFFFFFFFFFFFFFFFFFFFFFCA
:1086C000FFFFFFFFB6BDC749C741C749084AC749B1
:1086D0000429C2200008C741FBDEFFFFFFFFFFFFA8
:1086E000FFFFFFFFFFFFFFFFFFFFFFFFFFFFFFFF9A
:1086F000FFFFFFFFFFFFFFFFFFFFFFFFFFFFFFFF8A
:10870000FFFFFFFFFFFFFFFFFFFFFFFFFFFFFFFF79
:10871000FFFFFFFFFFFFFFFFFFFFFFFFFFFFFFFF69
:10872000FFFFFFFFFFFFFFFFFFFFFFFFFFFFFFFF59
:10873000FFFFFFFFFFFFFFFFFFFFFFFFFFFFFFFF49
:10874000FFFFFFFFFFFFFFFFFFFFFFFFFFFFFFFF39
:10875000FFFFFFFFFFFFFFFFFFFFFFFFFFFFFFFF29
:10876000FFFFFFFFFFFFFFFFFFFFFFFFFFFFFFFF19
:10877000FFFFFFFFFFFFFFFFFFFFFFFFFFFFFFFF09
:10878000FFFFFFFFFFFFFFFFFFFFFFFFFFFFFFFFF9
:10879000FFFFFFFFFFFFFFFFFFFFFFFFFFFFFFFFE9
:1087A000FFFFFFFFFFFFFFFFFFFFFFFFFFFFFFFFD9
:1087B000FFFFFFFF79D6C328001041184118411868
:1087C000411800104531F7BDFFFFFFFFFFFFFFFF1E
:1087D000FFFFFFFFFFFFFFFFFFFFFFFFFFFFFFFFA9
:1087E000FFFFFFFFFFFFFFFFFFFFFFFFFFFFFFFF99
:1087F000FFFFFFFFFFFFFFFFFFFFFFFFFFFFFFFF89
:10880000FFFFFFFFFFFFFFFFFFFFFFFFFFFFFFFF78
:10881000FFFFFFFFFFFFFFFFFFFFFFFFFFFFFFFF68
:10882000FFFFFFFFFFFFFFFFFFFFFFFFFFFFFFFF58
:10883000FFFFFFFFFFFFFFFFFFFFFFFFFFFFFFFF48
:10884000FFFFFFFFFFFFFFFFFFFFFFFFFFFFFFFF38
:10885000FFFFFFFFFFFFFFFFFFFFFFFFFFFFFFFF28
:10886000FFFFFFFFFFFFFFFFFFFFFFFFFFFFFFFF18
:10887000FFFFFFFFFFFFFFFFFFFFFFFFFFFFFFFF08
:10888000FFFFFFFFFFFFFFFFFFFFFFFFFFFFFFFFF8
:10889000FFFFFFFFFFFFFFFFFFFFFFFFFFFFFFFFE8
:1088A000FFFFFFFFFFFFCA62C2200429042903293A
:1088B00085394D7BBADEFFFFFFFFFFFFFFFFFFFFA4
:1088C000FFFFFFFFFFFFFFFFFFFFFFFFFFFFFFFFB8
:1088D000FFFFFFFFFFFFFFFFFFFFFFFFFFFFFFFFA8
:1088E000FFFFFFFFFFFFFFFFFFFFFFFFFFFFFFFF98
:1088F000FFFFFFFFFFFFFFFFFFFFFFFFFFFFFFFF88
:10890000FFFFFFFFFFFFFFFFFFFFFFFFFFFFFFFF77
:10891000FFFFFFFFFFFFFFFFFFFFFFFFFFFFFFFF67
:10892000FFFFFFFFFFFFFFFFFFFFFFFFFFFFFFFF57
:10893000FFFFFFFFFFFFFFFFFFFFFFFFFFFFFFFF47
:10894000FFFFFFFFFFFFFFFFFFFFFFFFFFFFFFFF37
:10895000FFFFFFFFFFFFFFFFFFFFFFFFFFFFFFFF27
:10896000FFFFFFFFFFFFFFFF00000000000000000F
:1089700000000000000000000000183C3C3C1818FB
:108980001800181800000000006666662400000049
:1089900000000000000000000000006C6CFE6C6C29
:1089A0006CFE6C6C0000000018187CC6C2C07C060F
:1089B00086C67C181800000000000000C2C60C1813
:1089C0003060C686000000000000386C6C3876DC31
:1089D000CCCCCC76000000000030303060000000CD
:1089E000000000000000000000000C1830303030A3
:1089F0003030180C00000000000030180C0C0C0C7B
:108A00000C0C1830000000000000000000663CFF65
:108A10003C66000000000000000000000018187E06
:108A20001818000000000000000000000000000016
:108A3000001818183000000000000000000000FEC0
:108A40000000000000000000000000000000000026
:108A500000001818000000000000000002060C18BA
:108A60003060C0800000000000007CC6C6CED6D6B4
:108A7000E6C6C67C000000000000183878181818F8
:108A80001818187E0000000000007CC6060C183084
:108A900060C0C6FE0000000000007CC606063C0662
:108AA0000606C67C0000000000000C1C3C6CCCFEDE
:108AB0000C0C0C1E000000000000FEC0C0C0FC0E2C
:108AC0000606C67C0000000000003860C0C0FCC67E
:108AD000C6C6C67C000000000000FEC606060C18D4
:108AE000303030300000000000007CC6C6C67CC6B6
:108AF000C6C6C67C0000000000007CC6C6C67E0656
:108B000006060C78000000000000000018180000A5
:108B100000181800000000000000000018180000F5
:108B20000018183000000000000000060C1830602B
:108B300030180C0600000000000000000000FE00DD
:108B400000FE0000000000000000006030180C066D
:108B50000C1830600000000000007CC6C60C18181D
:108B600018001818000000000000007CC6C6DEDEF9
:108B7000DEDCC07C00000000000010386CC6C6FEC1
:108B8000C6C6C6C6000000000000FC6666667C66BD
:108B9000666666FC0000000000003C66C2C0C0C003
:108BA000C0C2663C000000000000F86C66666666A5
:108BB00066666CF8000000000000FE666268786877
:108BC000606266FE000000000000FE666268786871
:108BD000606060F00000000000003C66C2C0C0DEC3
:108BE000C6C6663A000000000000C6C6C6C6FEC67D
:108BF000C6C6C6C60000000000003C1818181818A9
:108C00001818183C0000000000001E0C0C0C0C0C86
:108C1000CCCCCC78000000000000E6666C6C787864
:108C20006C6666E6000000000000F0606060606056
:108C3000606266FE000000000000C6EEFEFED6C6C2
:108C4000C6C6C6C6000000000000C6E6F6FEDECEC0
:108C5000C6C6C6C6000000000000386CC6C6C6C640
:108C6000C6C66C38000000000000FC6666667C60CA
:108C7000606060F00000000000007CC6C6C6C6C68A
:108C8000C6D6DE7C0C0E00000000FC6666667C6CBE
:108C9000666666E60000000000007CC6C660380C10
:108CA00006C6C67C0000000000007E7E5A18181818
:108CB0001818183C000000000000C6C6C6C6C6C68C
:108CC000C6C6C67C000000000000C6C6C6C6C6C632
:108CD000C66C3810000000000000C6C6C6C6C6D666
:108CE000D6FE6C6C000000000000C6C66C6C383804
:108CF0006C6CC6C6000000000000666666663C1824
:108D00001818183C000000000000FEC6860C183041
:108D100060C2C6FE0000000000003C303030303041
:108D20003030303C0000000000000080C0E07038AF
:108D30001C0E06020000000000003C0C0C0C0C0C89
:108D40000C0C0C3C0000000010386CC60000000049
:108D50000000000000000000000000000000000013
:108D60000000000000FF000030301800000000008C
:108D700000000000000000000000000000780C7CF3
:108D8000CCCCCC76000000000000E06060786C661F
:108D9000666666DC0000000000000000007CC6C0C3
:108DA000C0C0C67C0000000000001C0C0C3C6CCC59
:108DB000CCCCCC760000000000000000007CC6FE99
:108DC000C0C0C67C000000000000386C6460F06029
:108DD000606060F000000000000000000076CCCC75
:108DE000CCCCCC7C0CCC78000000E060606C76666B
:108DF000666666E6000000000000181800381818C3
:108E00001818183C0000000000000606000E0606B8
:108E10000606060666663C000000E06060666C7848
:108E2000786C66E600000000000038181818181862
:108E30001818183C000000000000000000ECFED6EE
:108E4000D6D6D6D6000000000000000000DC666622
:108E5000666666660000000000000000007CC6C672
:108E6000C6C6C67C000000000000000000DC66668C
:108E70006666667C6060F000000000000076CCCC86
:108E8000CCCCCC7C0C0C1E000000000000DC766218
:108E9000606060F00000000000000000007CC66020
:108EA000380CC67C000000000000103030FC303070
:108EB0003030361C000000000000000000CCCCCC9C
:108EC000CCCCCC7600000000000000000066666696
:108ED00066663C18000000000000000000C6C6C620
:108EE000D6D6FE6C000000000000000000C66C3802
:108EF00038386CC6000000000000000000C6C6C67E
:108F0000C6C6C67E060CF8000000000000FECC18A5
:108F10003060C6FE0000000000000E18181870181F
:108F20001818180E00000000000018181818001873
:108F300018181818000000000000701818180E18F3
:108F40001818187000000000000076DC0000000017
:108F500000000000000000000000000010386CC697
:108F6000C6C6FE0000000000000000000000000077
:108F700000000000000000000000000000000000F1
:108F800000000000000000000000000000000000E1
:108F9000000000000000000000008001800180014E
:108FA00080018001800180018001800180018001B9
:108FB00080018001000000008001800100000000AD
:108FC000000000000000000000000000CC00CC0009
:108FD000CC00CC00CC00CC00000000000000000061
:108FE0000000000000000000000000000000000081
:108FF0000000000000000000000000000000000071
:1090000000000000600C600C600C30063006FE1F93
:10901000FE1F300638071803FE1FFE1F1803180333
:109020008C018C018C01000000008000E003F80F2F
:109030009C0E8C1C8C188C009800F801E007800EA8
:10904000801C8C188C189C18B80CF00FE003800062
:1090500080000000000000000000000000000E186A
:109060001B0C110C11061106110311039B018E013B
:10907000C038C06C60446044304430441844186CBC
:109080000C380000000000000000E001F003380789
:10909000180618063003F001F000F8009C310E337A
:1090A000061E061C061C063FFC73F0210000000093
:1090B0000000000000000000000000000C000C0098
:1090C0000C000C000C000C00000000000000000070
:1090D0000000000000000000000000000000000090
:1090E00000000000000000000000000200038001FA
:1090F000C000C00060006000300030003000300070
:10910000300030003000300060006000C000C0005F
:109110008001000300020000000020006000C00089
:10912000800180010003000300060006000600061F
:10913000000600060006000600030003800180010F
:10914000C0006000200000000000000000000000DF
:1091500000000000C000C000D806F807E00130039E
:1091600038070000000000000000000000000000C0
:1091700000000000000000000000000000000000EF
:109180000000000080018001800180018001FC3F1F
:10919000FC3F80018001800180018001000000000F
:1091A00000000000000000000000000000000000BF
:1091B00000000000000000000000000000000000AF
:1091C000000000000000000000008001800100019C
:1091D000000180000000000000000000000000000E
:1091E000000000000000000000000000000000007F
:1091F000E007E007000000000000000000000000A1
:10920000000000000000000000000000000000005E
:10921000000000000000000000000000000000004E
:1092200000000000000000000000C000C0000000BE
:1092300000000000000000000000000C000C000610
:109240000006000600030003000380038001800184
:109250008001C000C000C00060006000000000008D
:1092600000000000000000000000E003F007380EDE
:10927000180C0C180C180C180C180C180C180C18CE
:109280000C180C18180C380EF007E0030000000052
:109290000000000000000000000000018001C0018B
:1092A000F001980188018001800180018001800126
:1092B00080018001800180018001800100000000A8
:1092C00000000000000000000000E003F80F180C90
:1092D0000C180C1800180018000C00060003800180
:1092E000C000600030001800FC1FFC1F00000000E0
:1092F00000000000000000000000E001F807180E68
:109300000C0C0C0C000C0006C003C007000C00186D
:1093100000180C180C18180CF807E00300000000E7
:1093200000000000000000000000000C000E000F14
:10933000000F800DC00C600C600C300C180C0C0C75
:10934000FC3FFC3F000C000C000C000C0000000077
:1093500000000000000000000000F80FF80F1800E7
:1093600018000C00EC03FC071C0E001C0018001871
:1093700000180C181C0C180EF807E0030000000081
:1093800000000000000000000000C007F00F381CC3
:10939000181818000C00CC03EC0F3C0E1C1C0C1809
:1093A0000C180C18181C380EF007E0030000000021
:1093B00000000000000000000000FC1FFC1F000C6B
:1093C00000060006000380038001C001C000E00029
:1093D00060006000700030003000300000000000CD
:1093E00000000000000000000000E003F007380E5D
:1093F000180C180C180C3806F007F007180C0C188D
:109400000C180C180C18380CF80FE00300000000C2
:1094100000000000000000000000E003F007380E2C
:109420001C0C0C180C180C181C1C381EF81BE0190E
:109430000018000C000C1C0EF807F00100000000E2
:10944000000000000000000000000000000000001C
:10945000000000008001800100000000000000000A
:1094600000000000000000008001800100000000FA
:1094700000000000000000000000000000000000EC
:1094800000000000800180010000000000000000DA
:1094900000000000000000008001800100010001C8
:1094A000800000000000000000000000000000003C
:1094B00000000000000000000010001C800FE0030E
:1094C000F8001800F800E003800F001C00100000F6
:1094D000000000000000000000000000000000008C
:1094E0000000000000000000F81F00000000000065
:1094F000F81F000000000000000000000000000055
:10950000000000000000000000000000000000005B
:10951000000000000000000008003800F001C00753
:10952000001F0018001FC007F001380008000000ED
:1095300000000000000000000000E003F80F180C1D
:109540000C180C180018000C000600038001C00065
:10955000C000C00000000000C000C000000000000B
:10956000000000000000000000000000E0071818E4
:109570000420C229224A1144094409440944092209
:109580001113E20C024004201818E007000000004C
:109590000000000000000000000080038003C006FF
:1095A000C006C006600C600C301830183018F83F48
:1095B000F83F1C700C600C6006C006C00000000084
:1095C00000000000000000000000FC03FC0F0C0C79
:1095D0000C180C180C180C0CFC07FC0F0C180C3099
:1095E0000C300C300C300C18FC1FFC070000000085
:1095F00000000000000000000000C007F01F383825
:109600001C300C700660060006000600060006000E
:10961000060006600C701C30F01FE0070000000020
:1096200000000000000000000000FE03FE0F060E18
:1096300006180618063006300630063006300630AA
:10964000063006180618060EFE0FFE030000000086
:1096500000000000000000000000FC3FFC3F0C0088
:109660000C000C000C000C00FC1FFC1F0C000C007C
:109670000C000C000C000C00FC3FFC3F0000000044
:1096800000000000000000000000F83FF83F180054
:109690001800180018001800F81FF81F180018000C
:1096A000180018001800180018001800000000002A
:1096B00000000000000000000000E00FF83F3C78D0
:1096C0000E6006E007C00300030003FE03FE03C0B4
:1096D00007C006C00EC03CF0F83FE00F00000000DD
:1096E000000000000000000000000C300C300C30C6
:1096F0000C300C300C300C30FC3FFC3F0C300C308C
:109700000C300C300C300C300C300C3000000000F1
:1097100000000000000000000000800180018001C6
:109720008001800180018001800180018001800131
:109730008001800180018001800180010000000023
:109740000000000000000000000000060006000607
:1097500000060006000600060006000600060006D9
:109760000006180618063807F003E00100000000A4
:109770000000000000000000000006300618060C83
:10978000060606038601C60066007600DE008E012E
:1097900006030606060C06180630066000000000E8
:1097A0000000000000000000000018001800180071
:1097B00018001800180018001800180018001800E9
:1097C0001800180018001800F81FF81F000000000B
:1097D000000000000000000000000EE01EF01EF07F
:1097E0001EF036D836D836D836D866CC66CC66CC9D
:1097F000C6C6C6C6C6C6C6C686C386C300000000A7
:10980000000000000000000000000C301C303C3064
:109810003C306C306C30CC30CC308C310C330C3371
:109820000C360C360C3C0C3C0C380C3000000000A4
:1098300000000000000000000000E007F81F1C38D6
:109840000E70066003C003C003C003C003C003C0A2
:1098500003C006600E701C38F81FE007000000000F
:1098600000000000000000000000FC0FFC1F0C388E
:109870000C300C300C300C300C18FC1FFC070C00AA
:109880000C000C000C000C000C000C000000000090
:1098900000000000000000000000E007F81F1C3876
:1098A0000E70066003E003C003C003C003C003C022
:1098B00007E006630E3F1C3CF83FE0F700C00000E5
:1098C00000000000000000000000FE0FFE1F063830
:1098D0000630063006300638FE1FFE070603060671
:1098E000060C061806180630063006600000000058
:1098F00000000000000000000000E003F80F1C0C56
:109900000C180C180C001C00F803E00F001E0038A7
:10991000063006300E301C1CF80FE0070000000077
:1099200000000000000000000000FE7FFE7F8001BC
:10993000800180018001800180018001800180011F
:109940008001800180018001800180010000000011
:10995000000000000000000000000C300C300C3053
:109960000C300C300C300C300C300C300C300C3017
:109970000C300C300C301818F81FE0070000000005
:109980000000000000000000000003600630063008
:1099900006300C180C180C18180C180C380E300661
:1099A0003006700760036003C001C00100000000C2
:1099B000000000000000000000000360C361C361FC
:1099C000C3616633663366336633663366336C1B56
:1099D0006C1B6C1B2C1A3C1E380E380E000000004D
:1099E000000000000000000000000FE00C701830C4
:1099F0003018700C600EC00780038003C003E006BF
:109A0000700C301C18180C300E6007E000000000CD
:109A10000000000000000000000003C006600C30E1
:109A20001C383818300C6006E007C0038001800144
:109A30008001800180018001800180010000000020
:109A400000000000000000000000FC7FFC7F0060C0
:109A500000300018000C000600038001C000600008
:109A6000300018000C000600FE7FFE7F00000000A2
:109A700000000000000000000000E003E0036000C0
:109A800060006000600060006000600060006000D6
:109A900060006000600060006000600060006000C6
:109AA0006000E003E00300000000300030006000D0
:109AB00060006000C000C000C000C00180018001E3
:109AC0008001000300030003000600060000000000
:109AD00000000000000000000000E003E0030003BD
:109AE000000300030003000300030003000300035E
:109AF000000300030003000300030003000300034E
:109B00000003E003E003000000000000C001C0010A
:109B100060036003600330063006180C180C000068
:109B20000000000000000000000000000000000035
:109B30000000000000000000000000000000000025
:109B40000000000000000000000000000000000015
:109B500000000000000000000000FFFFFFFF000009
:109B6000000000000000000000000C000C000C00D1
:109B70000C000C000C0000000000000000000000C1
:109B800000000000000000000000000000000000D5
:109B900000000000000000000000000000000000C5
:109BA00000000000F003F8071C0C0C0C000FF00F75
:109BB000F80C0C0C0C0C1C0FF80FF0180000000037
:109BC000000000000000000000001800180018004D
:109BD00018001800D803F80F380C1818181818189F
:109BE000181818181818380CF80FD80300000000BF
:109BF0000000000000000000000000000000000065
:109C000000000000C003F007300E180C1800180008
:109C100018001800180C300EF007C00300000000F8
:109C200000000000000000000000001800180018EC
:109C300000180018C01BF01F301C1818181818182E
:109C4000181818181818301CF01FC01B000000004E
:109C50000000000000000000000000000000000004
:109C600000000000C003F00F300C1818F81FF81F98
:109C7000180018003818301CF00FC0070000000052
:109C800000000000000000000000800FC00FC000B6
:109C9000C000C000F007F007C000C000C000C00056
:109CA000C000C000C000C000C000C0000000000034
:109CB00000000000000000000000000000000000A4
:109CC00000000000E00DF80F180E0C0C0C0C0C0C32
:109CD0000C0C0C0C0C0C180EF80FE00D000C0C0CFE
:109CE0001C06F807F001000000001800180018001A
:109CF00018001800D807F80F381C1818181818186A
:109D00001818181818181818181818180000000033
:109D100000000000000000000000C000C0000000C3
:109D200000000000C000C000C000C000C000C000B3
:109D3000C000C000C000C000C000C00000000000A3
:109D400000000000000000000000C000C000000093
:109D500000000000C000C000C000C000C000C00083
:109D6000C000C000C000C000C000C000C000C000F3
:109D7000C000F8007800000000000C000C000C008F
:109D80000C000C000C0C0C060C038C01CC006C00BD
:109D9000FC009C018C030C030C060C0C0000000062
:109DA00000000000000000000000C000C000C00073
:109DB000C000C000C000C000C000C000C000C000A3
:109DC000C000C000C000C000C000C0000000000013
:109DD0000000000000000000000000000000000083
:109DE000000000007C3CFF7EC7E383C183C183C1C8
:109DF00083C183C183C183C183C183C100000000CB
:109E00000000000000000000000000000000000052
:109E1000000000009807F80F381C181818181818B8
:109E20001818181818181818181818180000000012
:109E30000000000000000000000000000000000022
:109E400000000000C003F00F300C18181818181884
:109E5000181818181818300CF00FC0030000000074
:109E600000000000000000000000000000000000F2
:109E700000000000D803F80F380C1818181818182C
:109E8000181818181818380CF80FD80318001800EC
:109E9000180018001800000000000000000000007A
:109EA00000000000C01BF01F301C181818181818EC
:109EB000181818181818301CF01FC01B00180018AC
:109EC000001800180018000000000000000000004A
:109ED00000000000B007F0037000300030003000D8
:109EE0003000300030003000300030000000000052
:109EF0000000000000000000000000000000000062
:109F000000000000E003F003380E180C3800F003E6
:109F1000C007000C180C380EF007E003000000002A
:109F20000000000000000000000000008000C000F1
:109F3000C000C000F007F007C000C000C000C000B3
:109F4000C000C000C000C000C007800700000000C3
:109F50000000000000000000000000000000000001
:109F600000000000181818181818181818181818D1
:109F7000181818181818381CF01FE01900000000F5
:109F800000000000000000000000000000000000D1
:109F9000000000000C18180C180C180C30063006C5
:109FA0003006600360036003C001C00100000000D0
:109FB00000000000000000000000000000000000A1
:109FC00000000000C141C141C36163636363636317
:109FD0003636363636361C1C1C1C1C1C0000000095
:109FE0000000000000000000000000000000000071
:109FF000000000001C38381C300C60066003600351
:10A00000600360036006300C381C1C380000000040
:10A010000000000000000000000000000000000040
:10A02000000000001830301830187018600C600CF8
:10A03000E00CC006C006800380038003800180011D
:10A04000C001F000700000000000000000000000EF
:10A0500000000000FC1FFC1F000C00060003800134
:10A06000C000600030001800FC1FFC1F0000000052
:10A070000000000000000000000000038001C0009C
:10A08000C000C000C000C000C00060006000300020
:10A0900060004000C000C000C000C000C000C000A0
:10A0A00080010003000000000000800180018001A9
:10A0B0008001800180018001800180018001800198
:10A0C0008001800180018001800180018001800188
:10A0D000800180018001000000006000C000C0011C
:10A0E00080018001800180018001000300030006DF
:10A0F0000003000180018001800180018001800156
:10A10000C00060000000000000000000000000002F
:10A110000000000000000000F010F81F080F000011
:10A12000000000000000000000000000000000002F
:10A13000000000000000000058A1000800000020FE
:10A14000C80000001803000820A20008C800002072
:10A15000100400002803000814007800DC000A0046
:10A160006400C800506C656173652070726573731C
:10A170002074686520627574746F6E2100000000A1
:10A18000000000000000000000000000000E270793
:10A19000001C0140001C0140001C0140001C01404B
:10A1A00001000000020000000400000008000000A0
:10A1B0000E06110700020000040000000004000069
:10A1C00008000000000801400008014002060206E5
:10A1D00007060706070607060008014000100140B1
:10A1E000001C0140001C0140010000000020000094
:10A1F0002000000010000000020604060706070603
:10A2000001000000002000002000000010000000FD
:10A2100000020505000D05040628170A00000000CD
:0400000508000131BD
:00000001FF
