:020000040800F2
:100000006805002045010008CD040008ED02000845
:10001000C9040008E70200085505000800000000B8
:10002000000000000000000000000000FB040008C9
:10003000EB02000800000000F9040008FD040008BD
:100040005F0100085F0100085F0100085F01000810
:100050005F0100085F0100085F0100085F01000800
:100060005F0100085F0100085F0100085F010008F0
:100070005F0100085F0100085F0100085F010008E0
:100080005F0100085F0100085F0100085F010008D0
:100090005F0100085F0100085F0100085F010008C0
:1000A0005F0100085F0100085F0100085F010008B0
:1000B0005F0100085F0100085F0100085F010008A0
:1000C0005F0100085F0100085F0100085F01000890
:1000D0005F0100085F0100085F0100085F01000880
:1000E0005F0100085F0100085F0100085F01000870
:1000F0005F0100085F0100085F0100085F01000860
:100100005F0100085F0100085F0100085F0100084F
:100110005F0100085F0100085F0100085F0100083F
:100120005F0100085F0100085F0100085F0100082F
:10013000DFF80CD000F04AF800480047650C0008D2
:10014000680500200648804706480047FEE7FEE7AE
:10015000FEE7FEE7FEE7FEE7FEE7FEE7FEE7FEE777
:1001600005050008310100082DE9F05F0546002073
:1001700092469B4688460646814640241BE0284618
:1001800041464746224600F042F853465A46C01AB6
:10019000914110D311461846224600F029F82D1A35
:1001A00067EB01084F4622460120002100F020F8AD
:1001B00017EB00094E41201EA4F10104DFDC484684
:1001C00031462A464346BDE8F09F0000064C074DE5
:1001D00006E0E06840F0010394E807009847103417
:1001E000AC42F6D3FFF7A8FF80110008A011000869
:1001F000202A04DB203A00FA02F1002070479140E7
:10020000C2F1200320FA03F3194390407047202ADB
:1002100004DB203A21FA02F00021704721FA02F3B0
:10022000D040C2F12002914008431946704770B592
:1002300005460C46164606E028466A1CD5B200F074
:1002400008F804F8010B3000A6F10101CEB2F3D199
:1002500070BD70B50446002500F084F8A02000F0C1
:10026000B1F800F00FF9204600F0ACF800F00AF900
:1002700000F078F8A12000F0A5F800F003F90020C4
:1002800000F046F8054600F087F8284670BD70B5C6
:1002900005460C46164606E02178284600F009F887
:1002A000681CC5B2641C3000A6F10101CEB2F3D1C6
:1002B00070BD70B505460C4600F054F8A02000F063
:1002C00081F800F0DFF8284600F07CF800F0DAF85A
:1002D000204600F077F800F0D5F800F05DF80A202D
:1002E00000F08CFB70BD00BFFEE7704700BFFEE76B
:1002F00010B540F2036000F0A5FDC02303221421D5
:10030000024800F03AFC00F047F810BD000C014034
:1003100070B505460024002618E04021104800F082
:1003200023FC022000F080FB40210D4800F01EFC61
:100330006006040E80210A4800F071FC08B1601CC0
:10034000C4B2012000F070FB701CC6B2082EE4DBC2
:1003500015B900F05FF801E000F076F8204670BDB6
:10036000000C014010B580210A4800F0FFFB40213D
:10037000084800F0FBFB042000F056FB80210548F4
:1003800000F0F2FB042000F04FFB4021014800F098
:10039000EBFB10BD000C014010B58021084800F0B7
:1003A000E3FB042000F040FB4021054800F0DEFBA9
:1003B000042000F039FB8021014800F0D7FB10BD7C
:1003C000000C014070B504464021114800F0CCFB00
:1003D000002519E0E20980210D4800F0C9FB600604
:1003E000040E022000F020FB4021094800F0BEFB73
:1003F000022000F019FB4021054800F0B5FB022067
:1004000000F012FB681CC5B2082DE3DB70BD0000D4
:10041000000C014010B580210A4800F0A7FB022023
:1004200000F002FB4021074800F0A0FB022000F092
:10043000FBFA4021034800F097FB022000F0F4FA99
:1004400010BD0000000C014010B580210C4800F0E8
:100450008BFB022000F0E8FA4021094800F086FBFF
:10046000022000F0E1FA4021054800F07DFB022067
:1004700000F0DAFA8021024800F078FB10BD00009D
:10048000000C014010B580210E4800F06FFB0120E8
:1004900000F0CAFA40210B4800F068FB012000F090
:1004A000C3FA8021074800F0BAFB08B1012400E03C
:1004B00000244021034800F057FB012000F0B4FA6B
:1004C000204610BD000C014000BFFEE77047000051
:1004D00010B5002807DA0A07140E054A00F00F03CA
:1004E0001B1FD45403E00A07130E024A135410BD15
:1004F00018ED00E000E400E07047704710B500F030
:1005000087FA10BD10B51048006840F470000E491D
:1005100008600E48006840F001000C4908600020A7
:100520004860C862084600680949084007490860F1
:100530004FF41F0088600846006820F4802008609F
:1005400000F038FD10BD000088ED00E00010024012
:10055000FFFFF6FE00BFFEE70FB4054B10B503A981
:10056000044A029800F018F810BC5DF814FB000073
:100570003D0A00089800002002E008C8121F08C1C8
:10058000002AFAD170477047002001E001C1121F14
:10059000002AFBD1704700002DE9FF4F8DB00F46B8
:1005A0000546002606E025280BD0DDE90F1290470E
:1005B0006D1C761C28780028F5D111B03046BDE8B6
:1005C000F08F0024A246A1460122EC4900E004433A
:1005D00015F8013F203B02FA03F00842F7D12878D2
:1005E0002A2810D06FF02F022878A0F130010929B5
:1005F00014D80AEB8A0102EB410144F0020400EB3B
:10060000010A6D1CF0E701CF5FEA000A03D544F44C
:100610000054CAF1000A44F002046D1C28782E2808
:1006200017D115F8010F44F004042A280ED06FF0FA
:100630002F022878A0F1300109290AD809EB890195
:1006400002EB410100EB01096D1CF2E757F8049B36
:100650006D1C28786C280FD006DC4C2817D0682831
:100660000DD06A2814D104E0742810D07A280FD154
:100670000DE044F400140AE044F4801401E044F472
:1006800040146978814202D104F580146D1C6D1C00
:100690002A786E2A1FD00CDC632A31D004DC002AB1
:1006A0008BD0582A11D1A3E0642A68D0692A0CD1D2
:1006B00065E0732A2ED004DC6F2A73D0702A04D12F
:1006C0009BE0752A6FD0782A6ED01046DDE90F12B4
:1006D0009047761C50E1C4F30250022806D003284C
:1006E00009D0042801CF09D0066045E101CFF117F8
:1006F000C0E9006140E101CF06803DE106703BE1C9
:1007000017F8040B8DF8000000208DF80100EB466F
:10071000012003E057F804BB4FF0FF3061074FF0B2
:10072000000102D40DE008F10101884649450FDAC5
:100730008045F8DB1BF808100029F4D108E008F127
:10074000010188468142FADB1BF808100029F6D126
:10075000DDE90F23AAEB08008146214600F036F9B7
:10076000304400EB080604E0DDE90F121BF8010B32
:100770009047B8F10108F7D221464846F7E00A2130
:10078000C4F302534FF0000B0891022B04D001CFA9
:10079000C117032B09D00AE0FF1D27F00707F7E870
:1007A000020108E032E01FE020E000B2C117042B94
:1007B00001D140B2C117031E71F1000307DA4FF0F7
:1007C000000CD0EB0C006CEB01012D2302E02305A3
:1007D00004D52B238DF82430012303E0E30701D057
:1007E0002023F7E7984658E00A2110E010210EE098
:1007F00010204FF0000B08900CE010214FF0000B80
:1008000044F004044FF00809089103E008214FF078
:10081000000B0891C4F30253022B04D001CF002136
:10082000032B06D006E0FF1D27F00707F7E80201BB
:1008300003E080B2042B00D1C0B24FF000082307C0
:100840002BD5702A07D0DDF820C08CF0100C5CEAA4
:100850000B0C05D00EE040238DF82430012308E076
:1008600050EA010306D030238DF824308DF825207E
:1008700002239846DDF820C08CF0080C5CEA0B0CD3
:100880000BD150EA010301D1630706D530238DF85F
:1008900024304FF00108A9F10109582A04D038A2E8
:1008A0000B9208AA0A920BE03AA2F9E75B46089A73
:1008B000FFF75AFC0B9B9B5C0A9A521E0A9213701C
:1008C00050EA0102F2D10A98ADEB000000F1200BD2
:1008D000600702D524F4803401E04FF00109D945C6
:1008E00002DDA9EB0B0000E0002000EB0B0141440E
:1008F0000890AAEB010AE00306D4DDE90F232146A4
:10090000504600F063F806444FF0000908E009A9DA
:1009100011F80900DDE90F12904709F10109761C71
:10092000C145F4DBE0030CD5DDE90F232146504639
:1009300000F04CF8064404E0DDE90F123020904747
:10094000761C0899481E08900029F5DC08E00A98F2
:100950000A990078491C0A91DDE90F129047761C2C
:10096000BBF10001ABF1010BF1DC21465046DDE9A2
:100970000F2300F019F806446D1C1BE6092801003E
:100980003031323334353637383961626364656605
:1009900000000000303132333435363738394142C7
:1009A00043444546000000002DE9F041044600257F
:1009B0001E461746880404D405E039462020B04777
:1009C0006D1C641EF9D52846BDE8F0812DE9F04183
:1009D000044600251E469046C80301D5302700E096
:1009E0002027880404D505E041463846B0476D1CF1
:1009F000641EF9D52846BDE8F0810000034908606F
:100A000000BF024909680029FBD17047040000209B
:100A10000448006820B103480068401E014908608E
:100A20007047000004000020002100BF00E0491CC6
:100A3000C0EB00328A42FAD87047000070B5044615
:100A40000D46E1B2054800F02BFB00BF072103482B
:100A500000F077FB0028F9D0204670BD0038014037
:100A600070B5054600241D48854200D103E01C48AE
:100A7000854200D101241B4931F8140000F0E2F94D
:100A8000194931F8140000F0DDF9184951F8243003
:100A9000174951F824000322182100F06EF8154977
:100AA00051F82430124951F824000322042100F0A7
:100AB00064F8284600F0F8FA4FF4E131284600F0D7
:100AC000A5FA0421284600F04BFB0821284600F037
:100AD0004FFB284600F030FB70BD0000003801409D
:100AE00000440040480000202C000020300000207E
:100AF000400000203800002010B504460B4931F8B2
:100B0000140000F09FF90A4951F82430094951F8BE
:100B100024000322102100F030F8054850F824008A
:100B2000044951F82410486110BD00004C00002019
:100B30001C0000200C000020034951F82010034A3B
:100B400052F82020516170471C0000200C0000204A
:100B5000034951F82010034A52F8202011617047D0
:100B60001C0000200C0000204161704701617047AB
:100B70000AB1016100E041617047F0B50C461646CC
:100B80000025002204F00F0504F0100747B1042EE1
:100B900005D145F00305C76B1F43C76300E035432C
:100BA000002118E001278F401F4097B102684FEAEB
:100BB000810C0F2707FA0CF7BA438F0005FA07F7E5
:100BC0003A43282C01D1436102E0482C00D1036153
:100BD00002604F1CB9B20829E4D308211CE00127A8
:100BE0008F401F40B7B14268A1F108074FEA870C58
:100BF0000F2707FA0CF7BA43A1F10807BF0005FA5F
:100C000007F73A43282C01D1436102E0482C00D178
:100C1000036142604F1CB9B21029E0D3F0BD024617
:100C20009068084008B1012070470020FCE710B52B
:100C30000020FFF761FF0120FFF75EFF0220FFF7B2
:100C40005BFF0320FFF758FF0020FFF775FF01202F
:100C5000FFF772FF0220FFF76FFF0320FFF76CFF23
:100C600010BD000000F0AAF9FFF7E1FF1148FFF7FF
:100C7000F7FEFFF73DFB03220F490020FFF707FBBC
:100C800003220E490020FFF7D2FA0C4883784278FD
:100C900001780BA0FFF760FC0020FFF759FF01204F
:100CA000FFF756FF0220FFF753FF0320FFF750FF27
:100CB00000BFFEE700380140010000209C0000203A
:100CC000726561642061743234633032206461740F
:100CD00061206973205B307825785D205B30782552
:100CE000785D205B307825785D0000002DE9F04FBD
:100CF0008CB0074600200A904AA090E8004CC068DB
:100D0000CDE905BECDF810A007900FF21C1ADAE964
:100D1000000ACDE9020A0FF2101ADAE9000ACDE959
:100D2000000A44484068C0F381000B900B9820B142
:100D3000012804D002283FD103E03F4A3EE03E4A6A
:100D40003CE03C48406800F4803CBCF5803F12D158
:100D50003848C06A00F08048B8F1000F01D1364C25
:100D600000E0364C3348406800F40039B9F5003FE4
:100D700002D1334C00E0324C2E484068C0F383412E
:100D80002C48406800F0006008B141F0100129488B
:100D9000406800F0804008B141F020010F2901D2E5
:100DA000891C06E00F2903D33E2901D8491C00E025
:100DB0003F2104FB01F201E01F4A00BF00BF1D48B4
:100DC0004068C0F3031504A8465D22FA06F31948EB
:100DD0004068C0F3022502A8465D23FA06F0099098
:100DE00014484068C0F3C2251DF8056023FA06F0D8
:100DF000089037B1012F06D0022F06D0032F0AD159
:100E000006E00A9208E00A9306E009980A9003E0D7
:100E100008980A9000E000BF00BF0A980CB0BDE837
:100E2000F08F000000000000000000000102030439
:100E3000060708090010024000127A00006CDC026C
:100E400000093D00064A02EB9011096800F01F03FB
:100E500001229A401143024B03EB9012116070473C
:100E600000100240064A02EB9011096800F01F03CF
:100E700001229A409143024B03EB9012116070479C
:100E800000100240064A02EB9011096800F01F03AF
:100E900001229A401143024B03EB901211607047FC
:100EA00000100240002000213E4A126842F48032C5
:100EB0003C4B1A6000BF401C3A4A126802F40031F1
:100EC00011B9B0F5006FF6D1364A126802F400325B
:100ED0000AB900BFFEE7334AD26942F08052314B73
:100EE000DA61314A126842F440422F4B1A602D4AAF
:100EF00052682C4B5A601A4652685A601A46526819
:100F000042F480625A601A46526822F440325A60B3
:100F10001A46526842F440325A601A465268234BCD
:100F20001A40204B5A601A465268214B1A431D4BF7
:100F30005A601A46126842F080721A6000BF194A5D
:100F4000126802F00072002AF9D0174A126842F4BF
:100F50008032154B1A6000BF134A526802F4803287
:100F6000002AF9D0104A126842F400320E4B1A607F
:100F700000BF0D4A526802F40032002AF9D0094A33
:100F8000526822F00302074B5A601A46526842F038
:100F900002025A6000BF034A526802F00802002AA7
:100FA000F9D070470010024000700040FFFFC3B747
:100FB0000000340810B5FFF775FF10BD10B51248DA
:100FC00000684FF47A71B0FBF1F4601EB0F1807FDD
:100FD00001D301200FE0601E4FF0E02148610F2196
:100FE0004FF0FF30FFF774FA00204FF0E0218861E6
:100FF00007200861002008B100BFFEE70021481E5D
:10100000FFF766FA10BD0000080000202DE9F04748
:1010100004460D460027B946B84600261E49601A08
:101020008C421CD006DC1D48204470B1B0F5806FA6
:101030001FD10FE0B0F5806F16D0B0F56C4F18D10E
:101040000320FFF753FE074614E00220FFF74EFE91
:1010500007460FE00220FFF749FE07460AE002209C
:10106000FFF744FE074605E00220FFF73FFE074674
:1010700000E000BF00BF07EB5500B0FBF5F64FF6F0
:10108000F07006EA000906F00F08A16849EA0800B6
:101090000143A160BDE8F087004C004000BCFFBFE9
:1010A000C1F308024260704710B504462049601A37
:1010B0008C4228D006DC1F48204490B1B0F5806FE8
:1010C00033D117E0B0F5806F26D0B0F56C4F2CD13E
:1010D00040F20E30FFF7D6FE40F20E30FFF7C2FEB0
:1010E00024E040F21140FFF7CDFE40F21140FFF73F
:1010F000B9FE1BE040F21240FFF7C4FE40F212407E
:10110000FFF7B0FE12E040F21340FFF7BBFE40F2E3
:101110001340FFF7A7FE09E040F21440FFF7B2FECC
:1011200040F21440FFF79EFE00E000BF00BF10BD7C
:10113000004C004000BCFFBFC16841F40051C160D9
:10114000704710B5024602EB9110006801F01F04D1
:101150000123A340184008B1012010BD0020FCE786
:101160000A460021C16821F004011143C1607047A3
:101170000A460021C16821F008011143C16070478F
:10118000A0110008000000209C0000007805000865
:101190003C1200089C000020CC04000088050008D8
:1011A0000011223300000000000E2707001C014040
:1011B000001C0140001C0140001C01400100000017
:1011C0000200000004000000080000000E061107E5
:1011D00000020000040000000004000008000000FD
:1011E0000008014000080140020602060706070643
:1011F000070607060008014000100140001C0140DE
:10120000001C014001000000002000002000000040
:101210001000000002060406070607060100000091
:101220000020000020000000100000000002050562
:0C123000000D05040628170A000000004D
:0400000508000131BD
:00000001FF
