:020000040800F2
:1000000078040020450100089B01000893010008C6
:10001000970100088D01000861020008000000003F
:10002000000000000000000000000000C701000800
:100030009101000800000000C5010008C901000886
:100040005F0100085F0100085F0100085F01000810
:100050005F0100085F0100085F0100085F01000800
:100060005F0100085F0100085F0100085F010008F0
:100070005F0100085F0100085F0100085F010008E0
:100080005F0100085F0100085F0100085F010008D0
:100090005F0100085F0100085F0100085F010008C0
:1000A0005F0100085F0100085F0100085F010008B0
:1000B0005F0100085F0100085F0100085F010008A0
:1000C0005F0100085F0100085F0100085F01000890
:1000D0005F010008210200085F0100085F010008BD
:1000E0005F0100085F0100085F0100085F01000870
:1000F0005F0100085F0100085F0100085F01000860
:100100005F0100085F0100085F0100085F0100084F
:100110005F0100085F0100085F0100085F0100083F
:100120005F0100085F0100085F0100085F0100082F
:10013000DFF80CD000F018F800480047D50400089C
:10014000780400200648804706480047FEE7FEE79F
:10015000FEE7FEE7FEE7FEE7FEE7FEE7FEE7FEE777
:10016000D101000831010008064C074D06E0E068A7
:1001700040F0010394E8070098471034AC42F6D3EE
:10018000FFF7DAFF080C0008280C000800BFFEE7A4
:10019000704700BFFEE700BFFEE7704710B50028BC
:1001A00007DA0A07140E054A00F00F031B1FD45488
:1001B00003E00A07130E024A135410BD18ED00E0C5
:1001C00000E400E07047704710B500F07DF810BD06
:1001D00010B51048006840F470000E4908600E48E1
:1001E000006840F001000C49086000204860C862C7
:1001F0000846006809490840074908604FF41F0095
:1002000088600846006820F48020086000F090FBB9
:1002100010BD000088ED00E000100240FFFFF6FE78
:1002200010B500240A490B4800F0C1FC78B1094818
:1002300000F04AFCC4B208480078642807D2064897
:1002400001780078401C044A10700448445410BDE2
:1002500005030500003801400800002010000020C0
:1002600000BFFEE7014A024900F013B8E1020008AE
:100270000C00002002E008C8121F08C1002AFAD1B1
:1002800070477047002001E001C1121F002AFBD116
:1002900070472DE9F04116460F460446002503E05D
:1002A0003946B047641C6D1C20780028F8D12846D8
:1002B000BDE8F0810349086000BF024909680029D0
:1002C000FBD17047000000200448006820B10348BB
:1002D0000068401E014908607047000000000020CF
:1002E00070B504460D46E1B2054800F0F2FB00BFD0
:1002F0000721034800F03FFC0028F9D0204670BDDC
:10030000003801404161704701617047F0B50C460B
:1003100016460025002204F00F0504F0100747B12F
:10032000042E05D145F00305C76B1F43C76300E0EA
:100330003543002118E001278F401F4097B1026824
:100340004FEA810C0F2707FA0CF7BA438F0005FA22
:1003500007F73A43282C01D1436102E0482C00D131
:10036000036102604F1CB9B20829E4D308211CE0E4
:1003700001278F401F40B7B14268A1F108074FEA3B
:10038000870C0F2707FA0CF7BA43A1F10807BF0043
:1003900005FA07F73A43282C01D1436102E0482CC3
:1003A00000D1036142604F1CB9B21029E0D3F0BD07
:1003B00002469068084008B1012070470020FCE721
:1003C00010B540F2046000F0FBF94FF40053032233
:1003D00004210248FFF79AFF10BD00000010014001
:1003E00010B54FF400510248FFF7E2FF10BD0000C6
:1003F0000010014010B540F2076000F0E1F9012360
:10040000032210211048FFF781FF40F2076000F03F
:10041000D7F90223032210210B48FFF777FF40F2A0
:10042000076000F0CDF90423032210210648FFF7EE
:100430006DFF40F2076000F0C3F90823032210218A
:100440000148FFF763FF10BD001C014010B50446D2
:1004500034B1012C09D0022C0CD0032C14D10EE0A5
:1004600001210A48FFF74EFF0EE002210748FFF77F
:1004700049FF09E004210548FFF744FF04E0082193
:100480000248FFF73FFF00BF00BF10BD001C014046
:1004900010B5044634B1012C09D0022C0CD0032C29
:1004A00014D10EE001210A48FFF72EFF0EE00221D1
:1004B0000748FFF729FF09E004210548FFF724FF5B
:1004C00004E008210248FFF71FFF00BF00BF10BD76
:1004D000001C0140FFF78EFF00F02EFA00F054FAE6
:1004E000FFF76EFF1BA0FFF7BDFE28A000F096FAF5
:1004F00000BF06212B4800F03EFB0028F9D027E082
:10050000FFF76EFF08BB3220FFF7D4FEFFF768FF4E
:10051000B8B93220FFF7CEFEFFF762FF68B90120BD
:10052000FFF7B6FF20A0FFF79DFE00BF06211D4884
:1005300000F021FB0028F9D00AE00120FFF786FF38
:1005400006E00120FFF782FF02E00120FFF77EFFB7
:10055000D6E700000D0A20555341525420707269AD
:100560006E7466206578616D706C653A20706C659C
:1005700061736520707265737320746865205461BF
:100580006D706572206B6579200D0A00756172745B
:10059000305F73656E645F737472696E67200D0AF5
:1005A00000000000003801400D0A2055534152540C
:1005B000207072696E7466206578616D706C65205C
:1005C0000D0A0000F0B50B46002100240025244E42
:1005D000366806F4E066B6F5E06F02D100BF042588
:1005E00026E01F4E366806F4E066B6F5C06F02D10D
:1005F000012403251CE01A4E366806F4E066B6F5C1
:10060000A06F02D10224022512E0154E366806F4CE
:10061000E066B6F5806F02D10324012508E0104E94
:10062000366806F4E066B6F5407F01D10424002563
:10063000C4F1040603FA06F1C5F104070F26FE40D3
:10064000164031430901074E315400F01F070126BF
:10065000BE404711BF0007F1E027C7F80061F0BDB9
:100660000CED00E000E400E02DE9F04F8CB007460F
:1006700000200A904AA090E8004CC068CDE905BE71
:10068000CDF810A007900FF21C1ADAE9000ACDE9A4
:10069000020A0FF2101ADAE9000ACDE9000A44480A
:1006A0004068C0F381000B900B9820B1012804D062
:1006B00002283FD103E03F4A3EE03E4A3CE03C484E
:1006C000406800F4803CBCF5803F12D13848C06AD5
:1006D00000F08048B8F1000F01D1364C00E0364CF4
:1006E0003348406800F40039B9F5003F02D1334C7B
:1006F00000E0324C2E484068C0F383412C484068EB
:1007000000F0006008B141F010012948406800F095
:10071000804008B141F020010F2901D2891C06E078
:100720000F2903D33E2901D8491C00E03F2104FBD7
:1007300001F201E01F4A00BF00BF1D484068C0F33E
:10074000031504A8465D22FA06F319484068C0F371
:10075000022502A8465D23FA06F009901448406875
:10076000C0F3C2251DF8056023FA06F0089037B1E2
:10077000012F06D0022F06D0032F0AD106E00A92DD
:1007800008E00A9306E009980A9003E008980A90A6
:1007900000E000BF00BF0A980CB0BDE8F08F000079
:1007A0000000000000000000010203040607080921
:1007B0000010024000127A00006CDC0200093D00CB
:1007C000064A02EB9011096800F01F0301229A40CB
:1007D0001143024B03EB901211607047001002406E
:1007E000064A02EB9011096800F01F0301229A40AB
:1007F0009143024B03EB90121160704700100240CE
:10080000064A02EB9011096800F01F0301229A408A
:100810001143024B03EB901211607047001002402D
:10082000002000213E4A126842F480323C4B1A609C
:1008300000BF401C3A4A126802F4003111B9B0F509
:10084000006FF6D1364A126802F400320AB900BFCE
:10085000FEE7334AD26942F08052314BDA61314AC5
:10086000126842F440422F4B1A602D4A52682C4BBA
:100870005A601A4652685A601A46526842F48062B8
:100880005A601A46526822F440325A601A46526838
:1008900042F440325A601A465268234B1A40204BA9
:1008A0005A601A465268214B1A431D4B5A601A4629
:1008B000126842F080721A6000BF194A126802F092
:1008C0000072002AF9D0174A126842F48032154BA0
:1008D0001A6000BF134A526802F48032002AF9D02D
:1008E000104A126842F400320E4B1A6000BF0D4AE3
:1008F000526802F40032002AF9D0094A526822F004
:100900000302074B5A601A46526842F002025A60CC
:1009100000BF034A526802F00802002AF9D070476B
:100920000010024000700040FFFFC3B70000340811
:1009300010B5FFF775FF10BD10B5124800684FF4F1
:100940007A71B0FBF1F4601EB0F1807F01D3012019
:100950000FE0601E4FF0E02148610F214FF0FF30A3
:10096000FFF71CFC00204FF0E021886107200861A0
:10097000002008B100BFFEE70021481EFFF70EFC73
:1009800010BD00000400002010B540F20260FFF727
:1009900017FF40F20E60FFF713FF4FF400730322BE
:1009A00018211448FFF7B2FC4FF48063032204219E
:1009B0001048FFF7ABFC104800F090F84FF4E1311D
:1009C0000D4800F037F804210B4800F00CF908211D
:1009D000094800F010F9084800F0C8F80022114654
:1009E0002520FFF7EFFD40F20531034800F0D2F873
:1009F00010BD0000000801400038014010B5044659
:100A00002146054800F065F800BF0721024800F0C4
:100A1000B2F80028F9D010BD0038014070B5054685
:100A20002C4603E02078FFF7E9FF641C20780028BB
:100A3000F8D170BD2DE9F04704460D460027B946B0
:100A4000B84600261E49601A8C421CD006DC1D48A0
:100A5000204470B1B0F5806F1FD10FE0B0F5806F0A
:100A600016D0B0F56C4F18D10320FFF7FDFD0746F7
:100A700014E00220FFF7F8FD07460FE00220FFF721
:100A8000F3FD07460AE00220FFF7EEFD074605E00A
:100A90000220FFF7E9FD074600E000BF00BF07EBBB
:100AA0005500B0FBF5F64FF6F07006EA000906F0C7
:100AB0000F08A16849EA08000143A160BDE8F0877A
:100AC000004C004000BCFFBF01464868C0F308006E
:100AD0007047C1F3080242607047000010B5044639
:100AE0002049601A8C4228D006DC1F48204490B16F
:100AF000B0F5806F33D117E0B0F5806F26D0B0F538
:100B00006C4F2CD140F20E30FFF77AFE40F20E30DF
:100B1000FFF766FE24E040F21140FFF771FE40F25D
:100B20001140FFF75DFE1BE040F21240FFF768FE48
:100B300040F21240FFF754FE12E040F21340FFF77C
:100B40005FFE40F21340FFF74BFE09E040F2144015
:100B5000FFF756FE40F21440FFF742FE00E000BFF0
:100B600000BF10BD004C004000BCFFBFC16841F495
:100B70000051C160704710B5024602EB9110006849
:100B800001F01F040123A340184008B1012010BD4B
:100B90000020FCE710B5C1F38912825801F01F0450
:100BA0000123A3401A43C1F38913C25010BD70B58D
:100BB000024600230024C1F38910105801F01F06DB
:100BC0000125B54000EA050302EB91500068C1F32E
:100BD00004460125B54000EA050414B10BB101201B
:100BE00070BD0020FCE70A460021C16821F0040125
:100BF0001143C16070470A460021C16821F0080115
:100C00001143C16070470000280C0008000000205C
:100C10001000000074020008380C000810000020CA
:100C2000680400008402000800000000000E27078E
:080C30000000000000000000BC
:0400000508000131BD
:00000001FF
