:020000040800F2
:10000000A004002045010008610200085902000810
:100010005D02000853020008E90200080000000029
:100020000000000000000000000000008F02000837
:1000300057020008000000008D020008910200082D
:100040005F0100085F0100085F0100085F01000810
:100050005F0100085F0100085F0100085F01000800
:100060005F0100085F0100085F0100085F010008F0
:100070005F0100085F0100085F0100085F010008E0
:100080005F0100085F0100085F0100085F010008D0
:100090005F0100085F0100085F0100085F010008C0
:1000A0005F0100085F0100085F0100085F010008B0
:1000B0005F0100085F0100085F0100085F010008A0
:1000C0005F0100085F0100085F0100085F01000890
:1000D0005F0100085F0100085F0100085F01000880
:1000E0005F0100085F0100085F0100085F01000870
:1000F0005F0100085F0100085F0100085F01000860
:100100005F0100085F0100085F0100085F0100084F
:100110005F0100085F0100085F0100085F0100083F
:100120005F0100085F0100085F0100085F0100082F
:10013000DFF80CD000F05CF8004800478D0F000895
:10014000A00400200648804706480047FEE7FEE777
:10015000FEE7FEE7FEE7FEE7FEE7FEE7FEE7FEE777
:10016000990200083101000840EA01039B0703D00F
:1001700009E008C9121F08C0042AFAD203E011F8E6
:10018000013B00F8013B521EF9D270472DE9F05FA8
:100190000546002092469B468846064681464024F6
:1001A0001BE0284641464746224600F042F85346A7
:1001B0005A46C01A914110D311461846224600F003
:1001C00029F82D1A67EB01084F462246012000212D
:1001D00000F020F817EB00094E41201EA4F10104A5
:1001E000DFDC484631462A464346BDE8F09F000022
:1001F000064C074D06E0E06840F0010394E8070074
:1002000098471034AC42F6D3FFF796FFD418000895
:10021000F4180008202A04DB203A00FA02F100203A
:1002200070479140C2F1200320FA03F31943904034
:100230007047202A04DB203A21FA02F0002170479F
:1002400021FA02F3D040C2F120029140084319463E
:10025000704700BFFEE7704700BFFEE700BFFEE744
:100260007047000010B5002807DA0A07140E054A87
:1002700000F00F031B1FD45403E00A07130E024AB9
:10028000135410BD18ED00E000E400E07047704723
:1002900010B500F0AFFC10BD10B51048006840F478
:1002A00070000E4908600E48006840F001000C49DB
:1002B000086000204860C862084600680949084094
:1002C000074908604FF41F0088600846006820F462
:1002D0008020086001F052F810BD000088ED00E0B9
:1002E00000100240FFFFF6FE00BFFEE70FB4054B13
:1002F00010B503A9044A029800F018F810BC5DF884
:1003000014FB00002D0E00089C00002002E008C82D
:10031000121F08C1002AFAD170477047002001E07F
:1003200001C1121F002AFBD1704700002DE9FF4FC9
:100330008DB00F460546002606E025280BD0DDE9E6
:100340000F1290476D1C761C28780028F5D111B04B
:100350003046BDE8F08F0024A246A1460122EC49B8
:1003600000E0044315F8013F203B02FA03F0084285
:10037000F7D128782A2810D06FF02F022878A0F122
:100380003001092914D80AEB8A0102EB410144F03B
:10039000020400EB010A6D1CF0E701CF5FEA000ADE
:1003A00003D544F40054CAF1000A44F002046D1C61
:1003B00028782E2817D115F8010F44F004042A28B4
:1003C0000ED06FF02F022878A0F1300109290AD849
:1003D00009EB890102EB410100EB01096D1CF2E719
:1003E00057F8049B6D1C28786C280FD006DC4C282D
:1003F00017D068280DD06A2814D104E0742810D0D2
:100400007A280FD10DE044F400140AE044F480147B
:1004100001E044F440146978814202D104F580146B
:100420006D1C6D1C2A786E2A1FD00CDC632A31D01B
:1004300004DC002A8BD0582A11D1A3E0642A68D0AA
:10044000692A0CD165E0732A2ED004DC6F2A73D0A0
:10045000702A04D19BE0752A6FD0782A6ED010469E
:10046000DDE90F129047761C50E1C4F302500228D8
:1004700006D0032809D0042801CF09D0066045E141
:1004800001CFF117C0E9006140E101CF06803DE1F5
:1004900006703BE117F8040B8DF8000000208DF882
:1004A0000100EB46012003E057F804BB4FF0FF309A
:1004B00061074FF0000102D40DE008F10101884608
:1004C00049450FDA8045F8DB1BF808100029F4D104
:1004D00008E008F1010188468142FADB1BF80810A8
:1004E0000029F6D1DDE90F23AAEB08008146214659
:1004F00000F036F9304400EB080604E0DDE90F12A5
:100500001BF8010B9047B8F10108F7D22146484685
:10051000F7E00A21C4F302534FF0000B0891022BBD
:1005200004D001CFC117032B09D00AE0FF1D27F02B
:100530000707F7E8020108E032E01FE020E000B220
:10054000C117042B01D140B2C117031E71F1000382
:1005500007DA4FF0000CD0EB0C006CEB01012D23FF
:1005600002E0230504D52B238DF82430012303E07A
:10057000E30701D02023F7E7984658E00A2110E06E
:1005800010210EE010204FF0000B08900CE010211D
:100590004FF0000B44F004044FF00809089103E009
:1005A00008214FF0000B0891C4F30253022B04D032
:1005B00001CF0021032B06D006E0FF1D27F007071F
:1005C000F7E8020103E080B2042B00D1C0B24FF083
:1005D000000823072BD5702A07D0DDF820C08CF047
:1005E000100C5CEA0B0C05D00EE040238DF8243093
:1005F000012308E050EA010306D030238DF82430AF
:100600008DF8252002239846DDF820C08CF0080CD8
:100610005CEA0B0C0BD150EA010301D1630706D54C
:1006200030238DF824304FF00108A9F10109582A30
:1006300004D038A20B9208AA0A920BE03AA2F9E77A
:100640005B46089AFFF7A2FD0B9B9B5C0A9A521E21
:100650000A92137050EA0102F2D10A98ADEB000041
:1006600000F1200B600702D524F4803401E04FF044
:100670000109D94502DDA9EB0B0000E0002000EBE9
:100680000B0141440890AAEB010AE00306D4DDE91E
:100690000F232146504600F063F806444FF000094E
:1006A00008E009A911F80900DDE90F12904709F1E6
:1006B0000109761CC145F4DBE0030CD5DDE90F230D
:1006C0002146504600F04CF8064404E0DDE90F12E4
:1006D00030209047761C0899481E08900029F5DCC8
:1006E00008E00A980A990078491C0A91DDE90F127E
:1006F0009047761CBBF10001ABF1010BF1DC214608
:100700005046DDE90F2300F019F806446D1C1BE686
:1007100009280100303132333435363738396162D7
:10072000636465660000000030313233343536379B
:100730003839414243444546000000002DE9F0416C
:10074000044600251E461746880404D405E03946B1
:100750002020B0476D1C641EF9D52846BDE8F08105
:100760002DE9F041044600251E469046C80301D5F8
:10077000302700E02027880404D505E041463846AC
:10078000B0476D1C641EF9D52846BDE8F08181682C
:1007900041F00801816000BF816801F00801002973
:1007A000FAD1816841F00401816000BF816801F0E5
:1007B00004010029FAD1704730B5012902D002297D
:1007C0001AD10CE0C36A23F47003C362C36A541ED7
:1007D0004FF4700505EA04542343C3620DE0836BB4
:1007E00023F440138363836B541E4FF4401505EAD2
:1007F00004542343836300E000BF00BF30BD21B138
:10080000826842F40062826003E0826822F400623F
:100810008260704700B58DB04FF4A06000F0F6FC28
:100820000021164800F024FA1548069000208DF8A3
:1008300030001448089001208DF8310040020790E4
:100840008000099000208DF8320002200A900003F9
:100850000B90142208A96846FFF786FC0021074880
:10086000DDE9062300F03CFA0021044800F0E7F936
:100870000021024800F0CAF90DB000BD000002409E
:100880004C24014094000020816841F48071816013
:100890007047816801F0010119B9816841F00101D7
:1008A0008160704772B101F001031BB1836843F4AA
:1008B0008013836001F0020393B1836843F4004323
:1008C00083600DE001F001031BB1836823F4801302
:1008D000836001F002031BB1836823F4004383604B
:1008E0007047012902D0022910D107E0836823F460
:1008F0006023836083681343836008E0836823F484
:10090000E043836083681343836000E000BF00BF5F
:100910007047000010B540F2046000F077FC40F230
:10092000026000F073FC282304220021054800F037
:10093000DBFA4FF4807303221821034800F0D4FA45
:1009400010BD0000001001400008014010B540F249
:10095000096000F05BFC40F20A6000F057FC0220E6
:1009600000F060FB01221102304800F0C7F80122BC
:1009700011022F4800F0C2F8002201212B48FFF796
:10098000B0FF4FF4602201212948FFF7AAFF4FF47E
:10099000E02000F04FF800212448FFF730FF00214D
:1009A0002348FFF72CFF022201212048FFF704FF14
:1009B000022201211E48FFF7FFFE07230D2200211E
:1009C0001A4800F045F807230F220121174800F0CC
:1009D0003FF807230F220021154800F039F80723BC
:1009E0000D220121124800F033F8012211460F4870
:1009F000FFF758FF012211460D48FFF753FF0B4840
:100A0000FFF747FF012000F0EBF80848FFF7BFFEB3
:100A10000748FFF73EFF012000F0E2F80448FFF727
:100A2000B6FE0248FFF730FF10BD00000024014071
:100A3000002801400549096821F47021034A11602A
:100A40001146096801431160704700000424014009
:100A5000F0B51D4606290CD2436B01EB81071F261A
:100A6000BE40B34301EB810602FA06F6334343630B
:100A700022E00C290ED2036B8E1F06EB86071F2681
:100A8000BE40B3438E1F06EB860602FA06F63343DA
:100A9000036311E010290FD2C36AA1F10C0606EB23
:100AA00086071F26BE40B343A1F10C0606EB86065F
:100AB00002FA06F63343C3620A2A0CD2046902EB37
:100AC00042070726BE40B44302EB420605FA06F68B
:100AD0003443046111E0122A0FD2C468A2F10A065D
:100AE00006EB46070726BE40B443A2F10A0606EB12
:100AF000460605FA06F63443C460F0BDAAB101F417
:100B000080731BB1436843F48073436001F48063D6
:100B10001BB1436843F48063436001F00203CBB12F
:100B2000836843F00203836014E001F480731BB117
:100B3000436823F48073436001F480631BB143680E
:100B400023F48063436001F002031BB1836823F048
:100B5000020383607047000000B589B040F20B606B
:100B600000F054FB42F2CF00ADF804000020ADF8D5
:100B70000600ADF8080042F20F7003900020ADF8B7
:100B800010008DF8120001A9144800F091FD00201A
:100B9000ADF81A000120059005AA00210F4800F0C9
:100BA0001FFC40F69F7200210C4800F03CFD6022C3
:100BB00000210A4800F00AFD00221146074800F013
:100BC00045FD0121054800F0BFFD044800F002FC8E
:100BD000024800F068FD09B000BD0000002C014093
:100BE0000349086000BF024909680029FBD170472A
:100BF000000000200448006820B103480068401E3F
:100C000001490860704700000000002070B50546EB
:100C10000C462146284600F0FDF808B900BFFEE763
:100C200004EB8400810005F10800405840F0010108
:100C300004EB8400820005F10800815070BD70B59E
:100C400005460C462146284600F0E4F808B900BFE6
:100C5000FEE704EB8400810005F10800405840F0F5
:100C6000200104EB8400820005F10800815070BD72
:100C700070B504460D462946204600F0CBF808B969
:100C800000BFFEE705EB8500810004F10800405835
:100C900020F0010105EB8500820004F1080081507D
:100CA000002105EB8500820004F10800815005EB6E
:100CB0008500820004F10C00815005EB8500820064
:100CC00004F11000815005EB8500820004F114004E
:100CD00081506068AA000F2191400843606070BD98
:100CE0000FB470B504460D462946204600F092F830
:100CF00008B900BFFEE705EB8500820004F1100093
:100D00000699815005EB8500820004F114000899D2
:100D100081500A9881B205EB8500820004F10C0035
:100D2000815005EB8500810004F10800465826F447
:100D30007C560999079808430B990843064305EB2D
:100D40008500810004F1080046509DF8300001281C
:100D50000ED105EB8500810004F10800405840F0F9
:100D6000400105EB8500820004F1080081500DE090
:100D700005EB8500810004F10800405820F0400197
:100D800005EB8500820004F1080081509DF83100D8
:100D900001280ED105EB8500810004F108004058C0
:100DA00040F0800105EB8500820004F108008150CD
:100DB0000DE005EB8500810004F10800405820F0AB
:100DC000800105EB8500820004F1080081509DF848
:100DD000320070B905EB8500810004F1080040582D
:100DE00020F0100105EB8500820004F1080081501D
:100DF0000DE005EB8500810004F10800405840F04B
:100E0000100105EB8500820004F10800815070BCE0
:100E10005DF814FB02460120034B9A4202D10429DB
:100E200000DD0020704700000004024070B5044659
:100E30000D46E1B2054800F0DDFC00BF0721034884
:100E400000F029FD0028F9D0204670BD003801408F
:100E500070B5054600241D48854200D103E01C48BA
:100E6000854200D101241B4931F8140000F0CEF96D
:100E7000194931F8140000F0C9F9184951F8243023
:100E8000174951F824000322182100F02DF81549C4
:100E900051F82430124951F824000322042100F0B3
:100EA00023F8284600F0AAFC4FF4E131284600F070
:100EB00057FC0421284600F0FDFC0821284600F0DC
:100EC00001FD284600F0E2FC70BD00000038014042
:100ED0000044004044000020280000202C00002096
:100EE0003C00002034000020F0B50C4616460025DA
:100EF000002204F00F0504F0100747B1042E05D1BD
:100F000045F00305C76B1F43C76300E0354300216D
:100F100018E001278F401F4097B102684FEA810C0B
:100F20000F2707FA0CF7BA438F0005FA07F73A4381
:100F3000282C01D1436102E0482C00D103610260FA
:100F40004F1CB9B20829E4D308211CE001278F40C7
:100F50001F40B7B14268A1F108074FEA870C0F277D
:100F600007FA0CF7BA43A1F10807BF0005FA07F723
:100F70003A43282C01D1436102E0482C00D103619F
:100F800042604F1CB9B21029E0D3F0BD00F02CF93B
:100F900000F0F8F90E48FFF75BFFFFF7BBFCFFF727
:100FA000DBFDFFF737FCFFF7D1FC10E04FF4FA60F0
:100FB000FFF716FE0748016807A0FFF797F90548F5
:100FC00041680EA0FFF792F915A0FFF78FF9EDE742
:100FD000003801409400002020746865206461742A
:100FE00061206164635F76616C75655B305D20696B
:100FF000732025303858200D0A00000020746865E1
:101000002064617461206164635F76616C75655B07
:10101000315D2069732025303858200D0A0000000A
:101020000D0A0000184B5968184B1940164BDA6A24
:1010300022F000520C2820D2DFE800F00607080951
:101040001F0C1F0D1516171800BF00BF00BF41EA87
:10105000803113E000BF20F004004FF0805343EADA
:10106000803319430AE000BF00BF00BF20F00C002E
:1010700041EA803142F0005200E000BF00BF024B65
:101080005960DA627047000000100240FF3FFFEF36
:101090002DE9F04F8CB0074600200A904AA090E856
:1010A000004CC068CDE905BECDF810A007900FF246
:1010B0001C1ADAE9000ACDE9020A0FF2101ADAE97D
:1010C000000ACDE9000A44484068C0F381000B9053
:1010D0000B9820B1012804D002283FD103E03F4AF9
:1010E0003EE03E4A3CE03C48406800F4803CBCF5B1
:1010F000803F12D13848C06A00F08048B8F1000F34
:1011000001D1364C00E0364C3348406800F40039D9
:10111000B9F5003F02D1334C00E0324C2E48406814
:10112000C0F383412C48406800F0006008B141F0F2
:1011300010012948406800F0804008B141F02001CA
:101140000F2901D2891C06E00F2903D33E2901D8BB
:10115000491C00E03F2104FB01F201E01F4A00BFEF
:1011600000BF1D484068C0F3031504A8465D22FA7D
:1011700006F319484068C0F3022502A8465D23FA29
:1011800006F0099014484068C0F3C2251DF80560B8
:1011900023FA06F0089037B1012F06D0022F06D0AF
:1011A000032F0AD106E00A9208E00A9306E00998A4
:1011B0000A9003E008980A9000E000BF00BF0A9878
:1011C0000CB0BDE8F08F000000000000000000003F
:1011D00001020304060708090010024000127A0009
:1011E000006CDC0200093D0010B540F2046000F024
:1011F0000DF840F2026000F009F84FF4A06000F032
:1012000005F840F20B6000F001F810BD064A02EB51
:101210009011096800F01F0301229A401143024B0C
:1012200003EB90121160704700100240064A02EB77
:101230009011096800F01F0301229A409143024B6C
:1012400003EB90121160704700100240064A02EB57
:101250009011096800F01F0301229A401143024BCC
:1012600003EB901211607047001002400020002133
:101270003E4A126842F480323C4B1A6000BF401C68
:101280003A4A126802F4003111B9B0F5006FF6D194
:10129000364A126802F400320AB900BFFEE7334A48
:1012A000D26942F08052314BDA61314A126842F41D
:1012B00040422F4B1A602D4A52682C4B5A601A46F6
:1012C00052685A601A46526842F480625A601A465E
:1012D000526822F440325A601A46526842F4403250
:1012E0005A601A465268234B1A40204B5A601A46DD
:1012F0005268214B1A431D4B5A601A46126842F03D
:1013000080721A6000BF194A126802F00072002A47
:10131000F9D0174A126842F48032154B1A6000BFA8
:10132000134A526802F48032002AF9D0104A126837
:1013300042F400320E4B1A6000BF0D4A526802F4AC
:101340000032002AF9D0094A526822F00302074B02
:101350005A601A46526842F002025A6000BF034ABD
:10136000526802F00802002AF9D0704700100240CB
:1013700000700040FFFFC3B70000340810B5FFF74E
:1013800075FF10BD10B5124800684FF47A71B0FBBC
:10139000F1F4601EB0F1807F01D301200FE0601EE8
:1013A0004FF0E02148610F214FF0FF30FEF75AFF68
:1013B00000204FF0E021886107200861002008B17B
:1013C00000BFFEE70021481EFEF74CFF10BD0000E5
:1013D00004000020016841F08001016070470000B6
:1013E00010B531B101293FD002297DD003297CD12C
:1013F000BFE0036A23F001030362036A1468234316
:101400000362036A23F002030362036AD48823435E
:1014100003626C4B984202D06B4B98421FD1036A17
:1014200023F004030362036A948823430362036A7C
:1014300023F008030362036A1489234303624368A9
:1014400023F48073436043685489234343604368B3
:1014500023F40073436043689489234343608369A2
:1014600023F003038361ABE0036A23F010030362FC
:10147000036A146843EA04130362036A23F0200337
:101480000362036AD48843EA041303624D4B984213
:1014900002D04D4B984223D1036A23F040030362EC
:1014A000036A948843EA04130362036A23F0800307
:1014B0000362036A148943EA04130362436823F452
:1014C000806343604368548943EA8403436043680C
:1014D00023F4006343604368948943EA84034360D0
:1014E000836923F4407301E002E068E0836167E010
:1014F000036A23F480730362036A146843EA0423D3
:101500000362036A23F400730362036AD48843EA24
:10151000042303622B4B984202D02B4B984223D1D9
:10152000036A23F480630362036A948843EA042312
:101530000362036A23F400630362036A148943EAC3
:1015400004230362436823F480534360436854894F
:1015500043EA04134360436823F400534360436841
:10156000948943EA04134360C36923F00303C3610E
:1015700026E0036A23F480530362036A146843EA93
:1015800004330362036A23F400530362036AD488BA
:1015900043EA043303620B4B984202D00A4B984251
:1015A00008D1436823F4804343604368548943EA85
:1015B00084134360C36923F44073C36100E000BF38
:1015C00000BF10BD002C01400034014031B10129A1
:1015D0000CD0022913D0032922D118E0836923F00B
:1015E000700383618369134383611AE0836923F481
:1015F000E0438361836943EA0223836111E0C369A5
:1016000023F07003C361C3691343C36109E0C36975
:1016100023F4E043C361C36943EA0223C36100E0EA
:1016200000BF00BF704731B1012906D0022906D0A2
:10163000032908D105E0426306E0826304E0C26347
:1016400002E0026400E000BF00BF704731B1012931
:101650000CD0022913D0032922D118E0836923F08A
:10166000080383618369134383611AE0836923F468
:1016700000638361836943EA0223836111E0C369E4
:1016800023F00803C361C3691343C36109E0C3695D
:1016900023F40063C361C36943EA0223C36100E02A
:1016A00000BF00BF7047016841F001010160704751
:1016B0000A8882621D4A90420ED0B0F1804F0BD052
:1016C0001B4A904208D01B4A904205D01A4A9042C9
:1016D00002D01A4A90420BD1026822F070020260D6
:1016E00002684B881A43026002688B881A430260C2
:1016F0008A68C262124A90420AD0124A904207D0C7
:10170000026822F44072026002688B891A43026008
:10171000064A904202D0094A904201D18A7B026374
:10172000426942F00102426170470000002C014012
:101730000004004000080040000C0040003401405C
:101740000010004000140040012904D1426C42F412
:101750000042426403E0426C22F40042426470475B
:101760002DE9F04704460D460027B946B846002645
:101770001E49601A8C421CD006DC1D48204470B102
:10178000B0F5806F1FD10FE0B0F5806F16D0B0F5C7
:101790006C4F18D10320FFF77BFC074614E00220B2
:1017A000FFF776FC07460FE00220FFF771FC0746C3
:1017B0000AE00220FFF76CFC074605E00220FFF775
:1017C00067FC074600E000BF00BF07EB5500B0FB19
:1017D000F5F64FF6F07006EA000906F00F08A1686A
:1017E00049EA08000143A160BDE8F087004C0040D1
:1017F00000BCFFBFC1F308024260704710B5044649
:101800002049601A8C4228D006DC1F48204490B141
:10181000B0F5806F33D117E0B0F5806F26D0B0F50A
:101820006C4F2CD140F20E30FFF710FD40F20E301D
:10183000FFF7FCFC24E040F21140FFF707FD40F207
:101840001140FFF7F3FC1BE040F21240FFF7FEFCF3
:1018500040F21240FFF7EAFC12E040F21340FFF7BB
:10186000F5FC40F21340FFF7E1FC09E040F21440C0
:10187000FFF7ECFC40F21440FFF7D8FC00E000BF9B
:1018800000BF10BD004C004000BCFFBFC16841F468
:101890000051C160704710B5024602EB911000681C
:1018A00001F01F040123A340184008B1012010BD1E
:1018B0000020FCE70A460021C16821F00401114321
:1018C000C16070470A460021C16821F00801114338
:1018D000C1607047F418000800000020A00000005C
:1018E0000C03000894190008A00000200004000068
:1018F0001C03000800000000000E2707001C014028
:10190000001C0140001C0140001C014001000000BF
:101910000200000004000000080000000E0611078D
:1019200000020000040000000004000008000000A5
:1019300000080140000801400206020607060706EB
:10194000070607060008014000100140001C014086
:10195000001C0140010000000020000020000000E9
:10196000100000000206040607060706010000003A
:10197000002000002000000010000000000205050B
:10198000000D05040628170A0000000000000000F2
:041990000000000053
:0400000508000131BD
:00000001FF
