:020000040800F2
:1000000010040020450100089B010008930100082E
:10001000970100088D01000875020008000000002B
:10002000000000000000000000000000C701000800
:100030009101000800000000C5010008C901000886
:100040005F0100085F0100085F0100085F01000810
:100050005F0100085F0100085F0100085F01000800
:100060005F0100085F0100085F0100085F010008F0
:100070005F0100085F0100085F0100085F010008E0
:100080005F0100085F0100085F0100085F010008D0
:100090005F0100085F0100085F0100085F010008C0
:1000A0005F0100085F0100085F0100085F010008B0
:1000B000210200085F0100085F0100085F010008DD
:1000C0005F0100085F0100085F0100085F01000890
:1000D0005F0100085F0100085F0100085F01000880
:1000E0005F0100085F0100085F0100085F01000870
:1000F0005F0100085F0100085F0100085F01000860
:100100005F0100085F0100085F0100085F0100084F
:100110005F0100085F0100085F0100085F0100083F
:100120005F0100085F0100085F0100085F0100082F
:10013000DFF80CD000F018F8004800473D04000834
:10014000100400200648804706480047FEE7FEE707
:10015000FEE7FEE7FEE7FEE7FEE7FEE7FEE7FEE777
:10016000D101000831010008064C074D06E0E068A7
:1001700040F0010394E8070098471034AC42F6D3EE
:10018000FFF7DAFF90070008B007000800BFFEE79E
:10019000704700BFFEE700BFFEE7704710B50028BC
:1001A00007DA0A07140E054A00F00F031B1FD45488
:1001B00003E00A07130E024A135410BD18ED00E0C5
:1001C00000E400E07047704710B500F065F810BD1E
:1001D00010B51048006840F470000E4908600E48E1
:1001E000006840F001000C49086000204860C862C7
:1001F0000846006809490840074908604FF41F0095
:1002000088600846006820F48020086000F008FA42
:1002100010BD000088ED00E000100240FFFFF6FE78
:1002200010B50121880700F0A7FAF8B1104800685E
:1002300001280CD100200E490860012000F0DCF8F4
:10024000022000F0D9F8032000F0D6F80AE00120DF
:100250000749086000F0AEF8022000F0ABF8032078
:1002600000F0A8F80121880700F082FA10BD000014
:100270000800002000BFFEE702E008C8121F08C106
:10028000002AFAD170477047002001E001C1121F17
:10029000002AFBD1704700000448006820B10348E1
:1002A0000068401E014908607047000000000020FF
:1002B0004161704701617047F0B50C461646002554
:1002C000002204F00F0504F0100747B1042E05D1F9
:1002D00045F00305C76B1F43C76300E035430021AA
:1002E00018E001278F401F4097B102684FEA810C48
:1002F0000F2707FA0CF7BA438F0005FA07F73A43BE
:10030000282C01D1436102E0482C00D10361026036
:100310004F1CB9B20829E4D308211CE001278F4003
:100320001F40B7B14268A1F108074FEA870C0F27B9
:1003300007FA0CF7BA43A1F10807BF0005FA07F75F
:100340003A43282C01D1436102E0482C00D10361DB
:1003500042604F1CB9B21029E0D3F0BD10B540F295
:10036000076000F0C5F80123032210211048FFF7B1
:10037000A3FF40F2076000F0BBF802230322102124
:100380000B48FFF799FF40F2076000F0B1F8042333
:10039000032210210648FFF78FFF40F2076000F0AC
:1003A000A7F80823032210210148FFF785FF10BD9D
:1003B000001C014010B5044634B1012C09D0022CB8
:1003C0000CD0032C14D10EE001210A48FFF770FF76
:1003D0000EE002210748FFF76BFF09E00421054802
:1003E000FFF766FF04E008210248FFF761FF00BF46
:1003F00000BF10BD001C014010B5044634B1012CF3
:1004000009D0022C0CD0032C14D10EE001210A4893
:10041000FFF750FF0EE002210748FFF74BFF09E00E
:1004200004210548FFF746FF04E008210248FFF7D2
:1004300041FF00BF00BF10BD001C0140FFF78EFF51
:1004400000F0F2F800F018F900BFFEE7F0B50B4637
:10045000002100240025244E366806F4E066B6F537
:10046000E06F02D100BF042526E01F4E366806F477
:10047000E066B6F5C06F02D1012403251CE01A4ED8
:10048000366806F4E066B6F5A06F02D102240225B4
:1004900012E0154E366806F4E066B6F5806F02D1BC
:1004A0000324012508E0104E366806F4E066B6F530
:1004B000407F01D104240025C4F1040603FA06F1AB
:1004C000C5F104070F26FE40164031430901074ECF
:1004D000315400F01F070126BE404711BF0007F14D
:1004E000E027C7F80061F0BD0CED00E000E400E09B
:1004F000064A02EB9011096800F01F0301229A409E
:100500001143024B03EB9012116070470010024040
:10051000002000213E4A126842F480323C4B1A60AF
:1005200000BF401C3A4A126802F4003111B9B0F51C
:10053000006FF6D1364A126802F400320AB900BFE1
:10054000FEE7334AD26942F08052314BDA61314AD8
:10055000126842F440422F4B1A602D4A52682C4BCD
:100560005A601A4652685A601A46526842F48062CB
:100570005A601A46526822F440325A601A4652684B
:1005800042F440325A601A465268234B1A40204BBC
:100590005A601A465268214B1A431D4B5A601A463C
:1005A000126842F080721A6000BF194A126802F0A5
:1005B0000072002AF9D0174A126842F48032154BB3
:1005C0001A6000BF134A526802F48032002AF9D040
:1005D000104A126842F400320E4B1A6000BF0D4AF6
:1005E000526802F40032002AF9D0094A526822F017
:1005F0000302074B5A601A46526842F002025A60E0
:1006000000BF034A526802F00802002AF9D070477E
:100610000010024000700040FFFFC3B70000340824
:1006200010B5FFF775FF10BD10B5124800684FF404
:100630007A71B0FBF1F4601EB0F1807F01D301202C
:100640000FE0601E4FF0E02148610F214FF0FF30B6
:10065000FFF7A4FD00204FF0E0218861072008612A
:10066000002008B100BFFEE70021481EFFF796FDFD
:1006700010BD0000040000201FB54FF4E060FFF73C
:1006800037FF40F2CF70ADF800000020ADF8020057
:10069000ADF804004EF65F2002904FF40070ADF804
:1006A0000C006946400500F013F80121880700F0AE
:1006B0005BF8022200211C20FFF7C8FE4FF08040AB
:1006C00000F001F81FBD016841F0010101607047B1
:1006D0000A8882621D4A90420ED0B0F1804F0BD042
:1006E0001B4A904208D01B4A904205D01A4A9042B9
:1006F00002D01A4A90420BD1026822F070020260C6
:1007000002684B881A43026002688B881A430260B1
:100710008A68C262124A90420AD0124A904207D0B6
:10072000026822F44072026002688B891A430260F8
:10073000064A904202D0094A904201D18A7B026364
:10074000426942F00102426170470000002C014002
:100750000004004000080040000C0040003401404C
:100760000010004000140040C2680A43C260704795
:1007700002698A43026170470246D06800EA0103B9
:100780001069084010B10BB1012070470020FCE750
:10079000B0070008000000200C00000078020008EC
:1007A000BC0700080C0000200404000088020008B8
:0C07B00000000000000E27070000000001
:0400000508000131BD
:00000001FF
