:020000040800F2
:100000009806002045010008150200080D020008AE
:1000100011020008070200089D020008000000000D
:100020000000000000000000000000004302000883
:100030000B02000800000000410200084502000811
:100040005F0100085F0100085F0100085F01000810
:100050005F0100085F0100085F0100085F01000800
:100060005F0100085F0100085F0100085F010008F0
:100070005F0100085F0100085F0100085F010008E0
:100080005F0100085F0100085F0100085F010008D0
:100090005F0100085F0100085F0100085F010008C0
:1000A0005F0100085F0100085F0100085F010008B0
:1000B0005F0100085F0100085F0100085F010008A0
:1000C0005F0100085F0100085F0100085F01000890
:1000D0005F0100085F0100085F0100085F01000880
:1000E0005F0100085F0100085F0100085F01000870
:1000F0005F0100085F0100085F0100085F01000860
:100100005F0100085F0100085F0100085F0100084F
:100110005F0100085F0100085F0100085F0100083F
:100120005F0100085F0100085F0100085F0100082F
:10013000DFF80CD000F02AF80048004771070008EB
:10014000980600200648804706480047FEE7FEE77D
:10015000FEE7FEE7FEE7FEE7FEE7FEE7FEE7FEE777
:100160004D0200083101000840EA01039B0703D05B
:1001700009E008C9121F08C0042AFAD203E011F8E6
:10018000013B00F8013B521EF9D27047064C074D67
:1001900006E0E06840F0010394E807009847103457
:1001A000AC42F6D3FFF7C8FFB80D0008D80D000821
:1001B00070B58C1810F8015B15F0070301D110F829
:1001C000013B2A1106D110F8012B03E010F8016B56
:1001D00001F8016B5B1EF9D12B0705D40023521ED9
:1001E0000DD401F8013BFAE710F8013BCB1A921C41
:1001F00003E013F8015B01F8015B521EF9D5A1423F
:10020000D8D3002070BD00BFFEE7704700BFFEE7F7
:1002100000BFFEE77047000010B5002807DA0A07A4
:10022000140E054A00F00F031B1FD45403E00A0705
:10023000130E024A135410BD18ED00E000E400E074
:100240007047704710B500F045F810BD10B5104864
:10025000006840F470000E4908600E48006840F0E5
:1002600001000C49086000204860C8620846006828
:1002700009490840074908604FF41F008860084694
:10028000006820F48020086000F058FC10BD0000D9
:1002900088ED00E000100240FFFFF6FE00BFFEE721
:1002A00002E008C8121F08C1002AFAD1704770473F
:1002B000002001E001C1121F002AFBD1704700009D
:1002C0000349086000BF024909680029FBD1704753
:1002D000040100200448006820B103480068401E63
:1002E00001490860704700000401002070B5054610
:1002F0000C462146284600F023F908B900BFFEE766
:1003000004EB8400810005F10800405840F0010131
:1003100004EB8400820005F10800815070BD70B5C7
:1003200005460C462146284600F00AF908B900BFE8
:10033000FEE704EB8400810005F10800405820F03E
:10034000200104EB8400820005F10800815070BD9B
:1003500070B504460D462946204600F0F1F808B96C
:1003600000BFFEE705EB8500810004F1080040585E
:1003700020F0010105EB8500820004F108008150A6
:10038000002105EB8500820004F10800815005EB97
:100390008500820004F10C00815005EB850082008D
:1003A00004F11000815005EB8500820004F1140077
:1003B00081506068AA000F2191400843606070BDC1
:1003C00030B503461C688D0002FA05F52C400CB1CF
:1003D000012000E0002030BD0FB470B504460D468A
:1003E0002946204600F0ACF808B900BFFEE705EB4F
:1003F0008500820004F110000699815005EB85000C
:10040000820004F11400089981500A9881B205EB2A
:100410008500820004F10C00815005EB850081000D
:1004200004F10800465826F47C56099907980843B9
:100430000B990843064305EB8500810004F1080091
:1004400046509DF8300001280ED105EB8500810053
:1004500004F10800405840F0400105EB850082009F
:1004600004F1080081500DE005EB8500810004F1E6
:100470000800405820F0400105EB8500820004F19F
:10048000080081509DF8310001280ED105EB850050
:10049000810004F10800405840F0800105EB850020
:1004A000820004F1080081500DE005EB8500810019
:1004B00004F10800405820F0800105EB850082001F
:1004C00004F1080081509DF8320070B905EB8500F9
:1004D000810004F10800405820F0100105EB850070
:1004E000820004F1080081500DE005EB85008100D9
:1004F00004F10800405840F0100105EB850082002F
:1005000004F10800815070BC5DF814FB70B505461D
:100510000C462146284600F013F808B900BFFEE754
:1005200004EB8400810005F10800405820F480416C
:1005300004EB8400820005F10800815070BD0000CA
:1005400002460120034B9A4202D1042900DD00201B
:10055000704700000004024070B5054600241D48A5
:10056000854200D103E01C48854200D101241B498B
:1005700031F8140000F02AFA194931F8140000F09B
:1005800025FA184951F82430174951F8240003225C
:10059000182100F065F8154951F82430124951F836
:1005A00024000322042100F05BF8284600F03CFB05
:1005B0004FF4E131284600F0EDFA0421284600F01E
:1005C000EAFB0821284600F0EEFB284600F0DEFB9F
:1005D00070BD000000380140004400404801002088
:1005E0002C010020300100204001002038010020B3
:1005F00010B504460B4931F8140000F0E7F90A4938
:1006000051F82430094951F824000322102100F048
:1006100027F8054850F82400044951F8241048618F
:1006200010BD00004C0100201C0100200C01002026
:10063000034951F82010034A52F8202051617047B5
:100640001C0100200C010020034951F82010034A2E
:1006500052F82020116170471C0100200C0100207D
:10066000F0B50C4616460025002204F00F0504F0F4
:10067000100747B1042E05D145F00305C76B1F4392
:10068000C76300E03543002118E001278F401F4079
:1006900097B102684FEA810C0F2707FA0CF7BA43AB
:1006A0008F0005FA07F73A43282C01D1436102E095
:1006B000482C00D1036102604F1CB9B20829E4D371
:1006C00008211CE001278F401F40B7B14268A1F10B
:1006D00008074FEA870C0F2707FA0CF7BA43A1F176
:1006E0000807BF0005FA07F73A43282C01D14361F8
:1006F00002E0482C00D1036142604F1CB9B21029BE
:10070000E0D3F0BD70B50446002520E04FF4C8707A
:10071000FFF7D6FD0020FFF797FF0120FFF794FFBA
:100720000220FFF791FF0320FFF78EFF4FF4C87000
:10073000FFF7C6FD0020FFF77BFF0120FFF778FFE2
:100740000220FFF775FF0320FFF772FF6D1CA54223
:10075000DCDB70BD10B50020FFF74AFF0120FFF77A
:1007600047FF0220FFF744FF0320FFF741FF10BDC2
:10077000FFF7F0FF00F0E6F90120FFF7C3FF2F4875
:10078000FFF7EAFE00F098FA03212D48FFF7AEFDCF
:1007900004212B48FFF7AAFD8021284800F0EEFA3B
:1007A0004021264800F0E2FA00BF0222032124483B
:1007B000FFF706FE0028F8D000BF022204212048DF
:1007C000FFF7FEFD0028F8D04FF480721D491E4847
:1007D00000F03EF81D4908702EE01C480078012802
:1007E00027D10020FFF730FFC820FFF769FD012067
:1007F000FFF72AFFC820FFF763FD0220FFF724FF61
:10080000C820FFF75DFD0320FFF71EFFC820FFF79C
:1008100057FD0020FFF70CFF0120FFF709FF022022
:10082000FFF706FF0320FFF703FFC820FFF748FD8F
:1008300002E00120FFF766FFCFE70000003801402B
:10084000000002409801002000000020000100206C
:1008500030B5034607E013F8014B11F8015BAC42D9
:1008600001D0002030BD1000A2F10104A2B2F2D1EB
:100870000120F7E72DE9F04F8CB0074600200A90E1
:100880004AA090E8004CC068CDE905BECDF810A0A4
:1008900007900FF21C1ADAE9000ACDE9020A0FF2FA
:1008A000101ADAE9000ACDE9000A44484068C0F3AA
:1008B00081000B900B9820B1012804D002283FD171
:1008C00003E03F4A3EE03E4A3CE03C48406800F4DA
:1008D000803CBCF5803F12D13848C06A00F08048A7
:1008E000B8F1000F01D1364C00E0364C3348406877
:1008F00000F40039B9F5003F02D1334C00E0324C2E
:100900002E484068C0F383412C48406800F00060E6
:1009100008B141F010012948406800F0804008B15A
:1009200041F020010F2901D2891C06E00F2903D3D1
:100930003E2901D8491C00E03F2104FB01F201E0FF
:100940001F4A00BF00BF1D484068C0F3031504A83C
:10095000465D22FA06F319484068C0F3022502A852
:10096000465D23FA06F0099014484068C0F3C2259A
:100970001DF8056023FA06F0089037B1012F06D064
:10098000022F06D0032F0AD106E00A9208E00A934C
:1009900006E009980A9003E008980A9000E000BF7A
:1009A00000BF0A980CB0BDE8F08F00000000000006
:1009B00000000000010203040607080900100240BD
:1009C00000127A00006CDC0200093D00064A02EBCE
:1009D0009011096800F01F0301229A401143024B55
:1009E00003EB90121160704700100240064A02EBC0
:1009F0009011096800F01F0301229A409143024BB5
:100A000003EB90121160704700100240064A02EB9F
:100A10009011096800F01F0301229A401143024B14
:100A200003EB90121160704700100240002000217B
:100A30003E4A126842F480323C4B1A6000BF401CB0
:100A40003A4A126802F4003111B9B0F5006FF6D1DC
:100A5000364A126802F400320AB900BFFEE7334A90
:100A6000D26942F08052314BDA61314A126842F465
:100A700040422F4B1A602D4A52682C4B5A601A463E
:100A800052685A601A46526842F480625A601A46A6
:100A9000526822F440325A601A46526842F4403298
:100AA0005A601A465268234B1A40204B5A601A4625
:100AB0005268214B1A431D4B5A601A46126842F085
:100AC00080721A6000BF194A126802F00072002A90
:100AD000F9D0174A126842F48032154B1A6000BFF1
:100AE000134A526802F48032002AF9D0104A126880
:100AF00042F400320E4B1A6000BF0D4A526802F4F5
:100B00000032002AF9D0094A526822F00302074B4A
:100B10005A601A46526842F002025A6000BF034A05
:100B2000526802F00802002AF9D070470010024013
:100B300000700040FFFFC3B70000340810B5FFF796
:100B400075FF10BD10B5124800684FF47A71B0FB04
:100B5000F1F4601EB0F1807F01D301200FE0601E30
:100B60004FF0E02148610F214FF0FF30FFF754FBB9
:100B700000204FF0E021886107200861002008B1C3
:100B800000BFFEE70021481EFFF746FB10BD000036
:100B9000080100202DE9F04704460D460027B9461C
:100BA000B84600261E49601A8C421CD006DC1D483F
:100BB000204470B1B0F5806F1FD10FE0B0F5806FA9
:100BC00016D0B0F56C4F18D10320FFF753FE07463F
:100BD00014E00220FFF74EFE07460FE00220FFF769
:100BE00049FE07460AE00220FFF744FE074605E0FB
:100BF0000220FFF73FFE074600E000BF00BF07EB03
:100C00005500B0FBF5F64FF6F07006EA000906F065
:100C10000F08A16849EA08000143A160BDE8F08718
:100C2000004C004000BCFFBF10B504462049601ACC
:100C30008C4228D006DC1F48204490B1B0F5806F6C
:100C400033D117E0B0F5806F26D0B0F56C4F2CD1C2
:100C500040F20E30FFF7DAFE40F20E30FFF7C6FE2C
:100C600024E040F21140FFF7D1FE40F21140FFF7BF
:100C7000BDFE1BE040F21240FFF7C8FE40F21240FA
:100C8000FFF7B4FE12E040F21340FFF7BFFE40F260
:100C90001340FFF7ABFE09E040F21440FFF7B6FE49
:100CA00040F21440FFF7A2FE00E000BF00BF10BDFD
:100CB000004C004000BCFFBF00B58DB04FF4A060F9
:100CC000FFF784FE03212548FFF742FB01208DF842
:100CD00032002348089001208DF83100002009904F
:100CE0004FF480700A901F48069000208DF8300065
:100CF00007904FF440500B90142208A96846FFF764
:100D000033FA03211548DDE90623FFF765FB0321CC
:100D10001248FFF704FB03211048FFF7F7FB0421FB
:100D20000E48FFF715FB00208DF832000E480890A2
:100D3000142208A96846FFF717FA04210748DDE9DD
:100D40000623FFF749FB04210448FFF7E8FA0421D2
:100D50000248FFF7DBFB0DB000BD000000000240C1
:100D60000000002004380140980100200A460021BC
:100D7000416921F040011143416170470A46002159
:100D8000416921F08001114341617047C16841F41C
:100D90000051C16070470A460021C16821F004017A
:100DA0001143C16070470A460021C16821F0080163
:100DB0001143C16070470000D80D000800000020FA
:100DC00098010000B0010008280F000898010020D9
:100DD00000050000B00200081100FF00010203043A
:100DE00005060708090A0B0C0D0E0F10111213143B
:100DF00015161718191A1B1C1D1E1F20212223242B
:100E000025262728292A2B2C2D2E2F30313233341A
:100E100035363738393A3B3C3D3E3F40414243440A
:100E200045464748494A4B4C4D4E4F5051525354FA
:100E300055565758595A5B5C5D5E5F6061626364EA
:100E400065666768696A6B6C6D6E6F7071727374DA
:100E500075767778797A7B7C7D7E7F8081828384CA
:100E600085868788898A8B8C8D8E8F9091929394BA
:100E700095969798999A9B9C9D9E9FA0A1A2A3A4AA
:100E8000A5A6A7A8A9AAABACADAEAFB0B1B2B3B49A
:100E9000B5B6B7B8B9BABBBCBDBEBFC0C1C2C3C48A
:100EA000C5C6C7C8C9CACBCCCDCECFD0D1D2D3D47A
:100EB000D5D6D7D8D9DADBDCDDDEDFE0E1E2E3E46A
:100EC000E5E6E7E8E9EAEBECEDEEEFF0F1F2F3F45A
:100ED000F5F6F7F8F9FAFBFCFDFE92FF140E270772
:100EE000AC1C0140043201320232042A08232C06D1
:100EF000110711291029052914111A082C19045E4B
:100F00000206020607023914CA1048113A200311DA
:100F10002A10543B060428E918111402050500089C
:080F2000000D05040628170A64
:0400000508000131BD
:00000001FF
