Component: ARM Compiler 5.05 update 1 (build 106) Tool: armlink [4d0efa]

==============================================================================

Section Cross References

    main.o(i.btn_event_cb) refers to lv_obj.o(i.lv_obj_get_child) for lv_obj_get_child
    main.o(i.btn_event_cb) refers to lv_label.o(i.lv_label_set_text_fmt) for lv_label_set_text_fmt
    main.o(i.btn_event_cb) refers to main.o(.data) for cnt
    main.o(i.lv_scr_act) refers to lv_hal_disp.o(i.lv_disp_get_default) for lv_disp_get_default
    main.o(i.lv_scr_act) refers to lv_disp.o(i.lv_disp_get_scr_act) for lv_disp_get_scr_act
    main.o(i.lvgl_first_demo_start) refers to main.o(i.lv_scr_act) for lv_scr_act
    main.o(i.lvgl_first_demo_start) refers to lv_btn.o(i.lv_btn_create) for lv_btn_create
    main.o(i.lvgl_first_demo_start) refers to lv_obj.o(i.lv_obj_set_pos) for lv_obj_set_pos
    main.o(i.lvgl_first_demo_start) refers to lv_obj.o(i.lv_obj_set_size) for lv_obj_set_size
    main.o(i.lvgl_first_demo_start) refers to lv_obj.o(i.lv_obj_set_event_cb) for lv_obj_set_event_cb
    main.o(i.lvgl_first_demo_start) refers to lv_label.o(i.lv_label_create) for lv_label_create
    main.o(i.lvgl_first_demo_start) refers to lv_label.o(i.lv_label_set_text) for lv_label_set_text
    main.o(i.lvgl_first_demo_start) refers to lv_obj.o(i.lv_obj_align) for lv_obj_align
    main.o(i.lvgl_first_demo_start) refers to main.o(i.btn_event_cb) for btn_event_cb
    main.o(i.main) refers to systick.o(i.systick_config) for systick_config
    main.o(i.main) refers to timer.o(i.timer1_init) for timer1_init
    main.o(i.main) refers to gd32f303e_lcd_ili9341.o(i.exmc_lcd_init) for exmc_lcd_init
    main.o(i.main) refers to touch_panel.o(i.touch_panel_gpio_configure) for touch_panel_gpio_configure
==============================================================================

Removing Unused input sections from the image.

    Removing main.o(.rev16_text), (4 bytes).
    Removing main.o(.revsh_text), (4 bytes).
    Removing main.o(i.btn_event_cb), (64 bytes).
    Removing main.o(i.lv_scr_act), (14 bytes).
    Removing main.o(i.lvgl_first_demo_start), (148 bytes).
    Removing main.o(.data), (1 bytes).
    Removing gd32f30x_it.o(.rev16_text), (4 bytes).
    Removing gd32f30x_it.o(.revsh_text), (4 bytes).
    Removing systick.o(.rev16_text), (4 bytes).
    Removing systick.o(.revsh_text), (4 bytes).
    Removing system_gd32f30x.o(.rev16_text), (4 bytes).
    Removing system_gd32f30x.o(.revsh_text), (4 bytes).
    Removing system_gd32f30x.o(i.SystemCoreClockUpdate), (184 bytes).
    Removing gd32f30x_adc.o(.rev16_text), (4 bytes).
    Removing gd32f30x_adc.o(.revsh_text), (4 bytes).
    Removing gd32f30x_adc.o(i.adc_calibration_enable), (42 bytes).
    Removing gd32f30x_adc.o(i.adc_channel_length_config), (70 bytes).
    Removing gd32f30x_adc.o(i.adc_data_alignment_config), (22 bytes).
==============================================================================

Image Symbol Table

    Local Symbols

    Symbol Name                              Value     Ov Type        Size  Object(Section)

    ../clib/../cmprslib/zerorunl2.c          0x00000000   Number         0  __dczerorl2.o ABSOLUTE
    ../clib/microlib/division.c              0x00000000   Number         0  uldiv.o ABSOLUTE
    ../clib/microlib/init/entry.s            0x00000000   Number         0  entry7b.o ABSOLUTE
    ../clib/microlib/init/entry.s            0x00000000   Number         0  entry7a.o ABSOLUTE
    ../clib/microlib/init/entry.s            0x00000000   Number         0  entry11b.o ABSOLUTE
    ../clib/microlib/init/entry.s            0x00000000   Number         0  entry5.o ABSOLUTE
    ../clib/microlib/init/entry.s            0x00000000   Number         0  entry2.o ABSOLUTE
    ../clib/microlib/init/entry.s            0x00000000   Number         0  entry9a.o ABSOLUTE
    ../clib/microlib/init/entry.s            0x00000000   Number         0  entry11a.o ABSOLUTE
    ../clib/microlib/init/entry.s            0x00000000   Number         0  entry10b.o ABSOLUTE
    ../clib/microlib/init/entry.s            0x00000000   Number         0  entry10a.o ABSOLUTE
    ../clib/microlib/init/entry.s            0x00000000   Number         0  entry.o ABSOLUTE
    ../clib/microlib/init/entry.s            0x00000000   Number         0  entry9b.o ABSOLUTE
    ../clib/microlib/init/entry.s            0x00000000   Number         0  entry8b.o ABSOLUTE
    ../clib/microlib/init/entry.s            0x00000000   Number         0  entry8a.o ABSOLUTE
    ../clib/microlib/longlong.c              0x00000000   Number         0  llshl.o ABSOLUTE
    ../clib/microlib/longlong.c              0x00000000   Number         0  llushr.o ABSOLUTE
    ../clib/microlib/malloc/malloc.c         0x00000000   Number         0  malloca.o ABSOLUTE
    ../clib/microlib/malloc/malloc.c         0x00000000   Number         0  mallocra.o ABSOLUTE
    ../clib/microlib/malloc/malloc.c         0x00000000   Number         0  mallocr.o ABSOLUTE
    ../clib/microlib/malloc/malloc.c         0x00000000   Number         0  malloc.o ABSOLUTE
    ../clib/microlib/malloc/mvars.c          0x00000000   Number         0  mvars.o ABSOLUTE
    ../clib/microlib/string/memcmp.c         0x00000000   Number         0  memcmp.o ABSOLUTE
    ../clib/microlib/string/memcpy.c         0x00000000   Number         0  memcpyb.o ABSOLUTE
    ../clib/microlib/string/memcpy.c         0x00000000   Number         0  memcpya.o ABSOLUTE
    ../clib/microlib/string/memset.c         0x00000000   Number         0  memseta.o ABSOLUTE
    ../clib/microlib/string/strcat.c         0x00000000   Number         0  strcat.o ABSOLUTE
    ../clib/microlib/string/strcmp.c         0x00000000   Number         0  strcmp.o ABSOLUTE
    ../clib/microlib/string/strcpy.c         0x00000000   Number         0  strcpy.o ABSOLUTE
    ../clib/microlib/string/strlen.c         0x00000000   Number         0  strlen.o ABSOLUTE
    ../clib/microlib/string/strncpy.c        0x00000000   Number         0  strncpy.o ABSOLUTE
    ..\..\..\Library\Firmware\CMSIS\GD\GD32F30x\Source\ARM\startup_gd32f30x_hd.s 0x00000000   Number         0  startup_gd32f30x_hd.o ABSOLUTE
    ..\..\..\Library\Firmware\CMSIS\GD\GD32F30x\Source\system_gd32f30x.c 0x00000000   Number         0  system_gd32f30x.o ABSOLUTE
    ..\..\..\Library\Firmware\GD32F30x_standard_peripheral\Source\gd32f30x_adc.c 0x00000000   Number         0  gd32f30x_adc.o ABSOLUTE
    ..\..\..\Library\Firmware\GD32F30x_standard_peripheral\Source\gd32f30x_bkp.c 0x00000000   Number         0  gd32f30x_bkp.o ABSOLUTE
    ..\..\..\Library\Firmware\GD32F30x_standard_peripheral\Source\gd32f30x_can.c 0x00000000   Number         0  gd32f30x_can.o ABSOLUTE
    ..\..\..\Library\Firmware\GD32F30x_standard_peripheral\Source\gd32f30x_crc.c 0x00000000   Number         0  gd32f30x_crc.o ABSOLUTE
    ..\..\..\Library\Firmware\GD32F30x_standard_peripheral\Source\gd32f30x_ctc.c 0x00000000   Number         0  gd32f30x_ctc.o ABSOLUTE
    ..\..\..\Library\Firmware\GD32F30x_standard_peripheral\Source\gd32f30x_dac.c 0x00000000   Number         0  gd32f30x_dac.o ABSOLUTE
    ..\..\..\Library\Firmware\GD32F30x_standard_peripheral\Source\gd32f30x_dbg.c 0x00000000   Number         0  gd32f30x_dbg.o ABSOLUTE
    ..\..\..\Library\Firmware\GD32F30x_standard_peripheral\Source\gd32f30x_dma.c 0x00000000   Number         0  gd32f30x_dma.o ABSOLUTE
    ..\..\..\Library\Firmware\GD32F30x_standard_peripheral\Source\gd32f30x_enet.c 0x00000000   Number         0  gd32f30x_enet.o ABSOLUTE
    ..\..\..\Library\Firmware\GD32F30x_standard_peripheral\Source\gd32f30x_exmc.c 0x00000000   Number         0  gd32f30x_exmc.o ABSOLUTE
    ..\..\..\Library\Firmware\GD32F30x_standard_peripheral\Source\gd32f30x_exti.c 0x00000000   Number         0  gd32f30x_exti.o ABSOLUTE
    ..\..\..\Library\Firmware\GD32F30x_standard_peripheral\Source\gd32f30x_fmc.c 0x00000000   Number         0  gd32f30x_fmc.o ABSOLUTE
    ..\..\..\Library\Firmware\GD32F30x_standard_peripheral\Source\gd32f30x_fwdgt.c 0x00000000   Number         0  gd32f30x_fwdgt.o ABSOLUTE
    ..\..\..\Library\Firmware\GD32F30x_standard_peripheral\Source\gd32f30x_gpio.c 0x00000000   Number         0  gd32f30x_gpio.o ABSOLUTE
    ..\..\..\Library\Firmware\GD32F30x_standard_peripheral\Source\gd32f30x_i2c.c 0x00000000   Number         0  gd32f30x_i2c.o ABSOLUTE
    ..\..\..\Library\Firmware\GD32F30x_standard_peripheral\Source\gd32f30x_misc.c 0x00000000   Number         0  gd32f30x_misc.o ABSOLUTE
    ..\..\..\Library\Firmware\GD32F30x_standard_peripheral\Source\gd32f30x_pmu.c 0x00000000   Number         0  gd32f30x_pmu.o ABSOLUTE
    ..\..\..\Library\Firmware\GD32F30x_standard_peripheral\Source\gd32f30x_rcu.c 0x00000000   Number         0  gd32f30x_rcu.o ABSOLUTE
    ..\..\..\Library\Firmware\GD32F30x_standard_peripheral\Source\gd32f30x_rtc.c 0x00000000   Number         0  gd32f30x_rtc.o ABSOLUTE
    ..\..\..\Library\Firmware\GD32F30x_standard_peripheral\Source\gd32f30x_sdio.c 0x00000000   Number         0  gd32f30x_sdio.o ABSOLUTE
    ..\..\..\Library\Firmware\GD32F30x_standard_peripheral\Source\gd32f30x_spi.c 0x00000000   Number         0  gd32f30x_spi.o ABSOLUTE
    ..\..\..\Library\Firmware\GD32F30x_standard_peripheral\Source\gd32f30x_timer.c 0x00000000   Number         0  gd32f30x_timer.o ABSOLUTE
    ..\..\..\Library\Firmware\GD32F30x_standard_peripheral\Source\gd32f30x_usart.c 0x00000000   Number         0  gd32f30x_usart.o ABSOLUTE
    ..\..\..\Library\Firmware\GD32F30x_standard_peripheral\Source\gd32f30x_wwdgt.c 0x00000000   Number         0  gd32f30x_wwdgt.o ABSOLUTE
    ..\..\..\Library\Utilities\gd32f303e_eval.c 0x00000000   Number         0  gd32f303e_eval.o ABSOLUTE
    ..\GUI\lv_100ask_stm32_tool_clock\assets\img_hand.c 0x00000000   Number         0  img_hand.o ABSOLUTE
    ..\GUI\lv_100ask_stm32_tool_clock\lv_100ask_stm32_tool_clock.c 0x00000000   Number         0  lv_100ask_stm32_tool_clock.o ABSOLUTE
    ..\GUI\lvgl\src\lv_core\lv_disp.c        0x00000000   Number         0  lv_disp.o ABSOLUTE
    ..\GUI\lvgl\src\lv_core\lv_group.c       0x00000000   Number         0  lv_group.o ABSOLUTE
    ..\GUI\lvgl\src\lv_core\lv_indev.c       0x00000000   Number         0  lv_indev.o ABSOLUTE
    ..\GUI\lvgl\src\lv_core\lv_obj.c         0x00000000   Number         0  lv_obj.o ABSOLUTE
    ..\GUI\lvgl\src\lv_core\lv_refr.c        0x00000000   Number         0  lv_refr.o ABSOLUTE
    ..\GUI\lvgl\src\lv_core\lv_style.c       0x00000000   Number         0  lv_style.o ABSOLUTE
    ..\GUI\lvgl\src\lv_draw\lv_draw_arc.c    0x00000000   Number         0  lv_draw_arc.o ABSOLUTE
    ..\GUI\lvgl\src\lv_draw\lv_draw_blend.c  0x00000000   Number         0  lv_draw_blend.o ABSOLUTE
    ..\GUI\lvgl\src\lv_draw\lv_draw_img.c    0x00000000   Number         0  lv_draw_img.o ABSOLUTE
    ..\GUI\lvgl\src\lv_draw\lv_draw_label.c  0x00000000   Number         0  lv_draw_label.o ABSOLUTE
    ..\GUI\lvgl\src\lv_draw\lv_draw_line.c   0x00000000   Number         0  lv_draw_line.o ABSOLUTE
    ..\GUI\lvgl\src\lv_draw\lv_draw_mask.c   0x00000000   Number         0  lv_draw_mask.o ABSOLUTE
    ..\GUI\lvgl\src\lv_draw\lv_draw_rect.c   0x00000000   Number         0  lv_draw_rect.o ABSOLUTE
    ..\GUI\lvgl\src\lv_draw\lv_draw_triangle.c 0x00000000   Number         0  lv_draw_triangle.o ABSOLUTE
    ..\GUI\lvgl\src\lv_draw\lv_img_buf.c     0x00000000   Number         0  lv_img_buf.o ABSOLUTE
    ..\GUI\lvgl\src\lv_draw\lv_img_cache.c   0x00000000   Number         0  lv_img_cache.o ABSOLUTE
    ..\GUI\lvgl\src\lv_draw\lv_img_decoder.c 0x00000000   Number         0  lv_img_decoder.o ABSOLUTE
    ..\GUI\lvgl\src\lv_font\lv_font.c        0x00000000   Number         0  lv_font.o ABSOLUTE
    ..\GUI\lvgl\src\lv_font\lv_font_dejavu_16_persian_hebrew.c 0x00000000   Number         0  lv_font_dejavu_16_persian_hebrew.o ABSOLUTE
    ..\GUI\lvgl\src\lv_font\lv_font_fmt_txt.c 0x00000000   Number         0  lv_font_fmt_txt.o ABSOLUTE
    ..\GUI\lvgl\src\lv_font\lv_font_loader.c 0x00000000   Number         0  lv_font_loader.o ABSOLUTE
    ..\GUI\lvgl\src\lv_font\lv_font_montserrat_10.c 0x00000000   Number         0  lv_font_montserrat_10.o ABSOLUTE
    ..\GUI\lvgl\src\lv_font\lv_font_montserrat_12.c 0x00000000   Number         0  lv_font_montserrat_12.o ABSOLUTE
    ..\GUI\lvgl\src\lv_font\lv_font_montserrat_12_subpx.c 0x00000000   Number         0  lv_font_montserrat_12_subpx.o ABSOLUTE
    ..\GUI\lvgl\src\lv_font\lv_font_montserrat_14.c 0x00000000   Number         0  lv_font_montserrat_14.o ABSOLUTE
    ..\GUI\lvgl\src\lv_font\lv_font_montserrat_16.c 0x00000000   Number         0  lv_font_montserrat_16.o ABSOLUTE
    ..\GUI\lvgl\src\lv_font\lv_font_montserrat_18.c 0x00000000   Number         0  lv_font_montserrat_18.o ABSOLUTE
    ..\GUI\lvgl\src\lv_font\lv_font_montserrat_20.c 0x00000000   Number         0  lv_font_montserrat_20.o ABSOLUTE
    ..\GUI\lvgl\src\lv_font\lv_font_montserrat_22.c 0x00000000   Number         0  lv_font_montserrat_22.o ABSOLUTE
    ..\GUI\lvgl\src\lv_font\lv_font_montserrat_24.c 0x00000000   Number         0  lv_font_montserrat_24.o ABSOLUTE
    ..\GUI\lvgl\src\lv_font\lv_font_montserrat_26.c 0x00000000   Number         0  lv_font_montserrat_26.o ABSOLUTE
    ..\GUI\lvgl\src\lv_font\lv_font_montserrat_28.c 0x00000000   Number         0  lv_font_montserrat_28.o ABSOLUTE
    ..\GUI\lvgl\src\lv_font\lv_font_montserrat_28_compressed.c 0x00000000   Number         0  lv_font_montserrat_28_compressed.o ABSOLUTE
    ..\GUI\lvgl\src\lv_font\lv_font_montserrat_30.c 0x00000000   Number         0  lv_font_montserrat_30.o ABSOLUTE
    ..\GUI\lvgl\src\lv_font\lv_font_montserrat_32.c 0x00000000   Number         0  lv_font_montserrat_32.o ABSOLUTE
    ..\GUI\lvgl\src\lv_font\lv_font_montserrat_34.c 0x00000000   Number         0  lv_font_montserrat_34.o ABSOLUTE
    ..\GUI\lvgl\src\lv_font\lv_font_montserrat_36.c 0x00000000   Number         0  lv_font_montserrat_36.o ABSOLUTE
    ..\GUI\lvgl\src\lv_font\lv_font_montserrat_38.c 0x00000000   Number         0  lv_font_montserrat_38.o ABSOLUTE
    ..\GUI\lvgl\src\lv_font\lv_font_montserrat_40.c 0x00000000   Number         0  lv_font_montserrat_40.o ABSOLUTE
    ..\GUI\lvgl\src\lv_font\lv_font_montserrat_42.c 0x00000000   Number         0  lv_font_montserrat_42.o ABSOLUTE
    ..\GUI\lvgl\src\lv_font\lv_font_montserrat_44.c 0x00000000   Number         0  lv_font_montserrat_44.o ABSOLUTE
    ..\GUI\lvgl\src\lv_font\lv_font_montserrat_46.c 0x00000000   Number         0  lv_font_montserrat_46.o ABSOLUTE
    ..\GUI\lvgl\src\lv_font\lv_font_montserrat_48.c 0x00000000   Number         0  lv_font_montserrat_48.o ABSOLUTE
    ..\GUI\lvgl\src\lv_font\lv_font_montserrat_8.c 0x00000000   Number         0  lv_font_montserrat_8.o ABSOLUTE
    ..\GUI\lvgl\src\lv_font\lv_font_simsun_16_cjk.c 0x00000000   Number         0  lv_font_simsun_16_cjk.o ABSOLUTE
    ..\GUI\lvgl\src\lv_font\lv_font_unscii_16.c 0x00000000   Number         0  lv_font_unscii_16.o ABSOLUTE
    ..\GUI\lvgl\src\lv_font\lv_font_unscii_8.c 0x00000000   Number         0  lv_font_unscii_8.o ABSOLUTE
    ..\GUI\lvgl\src\lv_hal\lv_hal_disp.c     0x00000000   Number         0  lv_hal_disp.o ABSOLUTE
    ..\GUI\lvgl\src\lv_hal\lv_hal_indev.c    0x00000000   Number         0  lv_hal_indev.o ABSOLUTE
    ..\GUI\lvgl\src\lv_hal\lv_hal_tick.c     0x00000000   Number         0  lv_hal_tick.o ABSOLUTE
    ..\GUI\lvgl\src\lv_misc\lv_anim.c        0x00000000   Number         0  lv_anim.o ABSOLUTE
    ..\GUI\lvgl\src\lv_misc\lv_area.c        0x00000000   Number         0  lv_area.o ABSOLUTE
    ..\GUI\lvgl\src\lv_misc\lv_async.c       0x00000000   Number         0  lv_async.o ABSOLUTE
    ..\GUI\lvgl\src\lv_misc\lv_bidi.c        0x00000000   Number         0  lv_bidi.o ABSOLUTE
    ..\GUI\lvgl\src\lv_misc\lv_color.c       0x00000000   Number         0  lv_color.o ABSOLUTE
    ..\GUI\lvgl\src\lv_misc\lv_debug.c       0x00000000   Number         0  lv_debug.o ABSOLUTE
    ..\GUI\lvgl\src\lv_misc\lv_fs.c          0x00000000   Number         0  lv_fs.o ABSOLUTE
    ..\GUI\lvgl\src\lv_misc\lv_gc.c          0x00000000   Number         0  lv_gc.o ABSOLUTE
    ..\GUI\lvgl\src\lv_misc\lv_ll.c          0x00000000   Number         0  lv_ll.o ABSOLUTE
    ..\GUI\lvgl\src\lv_misc\lv_log.c         0x00000000   Number         0  lv_log.o ABSOLUTE
    ..\GUI\lvgl\src\lv_misc\lv_math.c        0x00000000   Number         0  lv_math.o ABSOLUTE
    ..\GUI\lvgl\src\lv_misc\lv_mem.c         0x00000000   Number         0  lv_mem.o ABSOLUTE
    ..\GUI\lvgl\src\lv_misc\lv_printf.c      0x00000000   Number         0  lv_printf.o ABSOLUTE
    ..\GUI\lvgl\src\lv_misc\lv_task.c        0x00000000   Number         0  lv_task.o ABSOLUTE
    ..\GUI\lvgl\src\lv_misc\lv_templ.c       0x00000000   Number         0  lv_templ.o ABSOLUTE
    ..\GUI\lvgl\src\lv_misc\lv_txt.c         0x00000000   Number         0  lv_txt.o ABSOLUTE
    ..\GUI\lvgl\src\lv_misc\lv_txt_ap.c      0x00000000   Number         0  lv_txt_ap.o ABSOLUTE
    ..\GUI\lvgl\src\lv_misc\lv_utils.c       0x00000000   Number         0  lv_utils.o ABSOLUTE
    ..\GUI\lvgl\src\lv_themes\lv_theme.c     0x00000000   Number         0  lv_theme.o ABSOLUTE
    ..\GUI\lvgl\src\lv_themes\lv_theme_empty.c 0x00000000   Number         0  lv_theme_empty.o ABSOLUTE
    ..\GUI\lvgl\src\lv_themes\lv_theme_material.c 0x00000000   Number         0  lv_theme_material.o ABSOLUTE
    ..\GUI\lvgl\src\lv_themes\lv_theme_mono.c 0x00000000   Number         0  lv_theme_mono.o ABSOLUTE
    ..\GUI\lvgl\src\lv_themes\lv_theme_template.c 0x00000000   Number         0  lv_theme_template.o ABSOLUTE
    ..\GUI\lvgl\src\lv_widgets\lv_arc.c      0x00000000   Number         0  lv_arc.o ABSOLUTE
    ..\GUI\lvgl\src\lv_widgets\lv_bar.c      0x00000000   Number         0  lv_bar.o ABSOLUTE
    ..\GUI\lvgl\src\lv_widgets\lv_btn.c      0x00000000   Number         0  lv_btn.o ABSOLUTE
    ..\GUI\lvgl\src\lv_widgets\lv_btnmatrix.c 0x00000000   Number         0  lv_btnmatrix.o ABSOLUTE
    ..\GUI\lvgl\src\lv_widgets\lv_calendar.c 0x00000000   Number         0  lv_calendar.o ABSOLUTE
    ..\GUI\lvgl\src\lv_widgets\lv_canvas.c   0x00000000   Number         0  lv_canvas.o ABSOLUTE
    ..\GUI\lvgl\src\lv_widgets\lv_chart.c    0x00000000   Number         0  lv_chart.o ABSOLUTE
    ..\GUI\lvgl\src\lv_widgets\lv_checkbox.c 0x00000000   Number         0  lv_checkbox.o ABSOLUTE
    ..\GUI\lvgl\src\lv_widgets\lv_cont.c     0x00000000   Number         0  lv_cont.o ABSOLUTE
    ..\GUI\lvgl\src\lv_widgets\lv_cpicker.c  0x00000000   Number         0  lv_cpicker.o ABSOLUTE
    ..\GUI\lvgl\src\lv_widgets\lv_dropdown.c 0x00000000   Number         0  lv_dropdown.o ABSOLUTE
    ..\GUI\lvgl\src\lv_widgets\lv_gauge.c    0x00000000   Number         0  lv_gauge.o ABSOLUTE
    ..\GUI\lvgl\src\lv_widgets\lv_img.c      0x00000000   Number         0  lv_img.o ABSOLUTE
    ..\GUI\lvgl\src\lv_widgets\lv_imgbtn.c   0x00000000   Number         0  lv_imgbtn.o ABSOLUTE
    ..\GUI\lvgl\src\lv_widgets\lv_keyboard.c 0x00000000   Number         0  lv_keyboard.o ABSOLUTE
    ..\GUI\lvgl\src\lv_widgets\lv_label.c    0x00000000   Number         0  lv_label.o ABSOLUTE
    ..\GUI\lvgl\src\lv_widgets\lv_led.c      0x00000000   Number         0  lv_led.o ABSOLUTE
    ..\GUI\lvgl\src\lv_widgets\lv_line.c     0x00000000   Number         0  lv_line.o ABSOLUTE
    ..\GUI\lvgl\src\lv_widgets\lv_linemeter.c 0x00000000   Number         0  lv_linemeter.o ABSOLUTE
    ..\GUI\lvgl\src\lv_widgets\lv_list.c     0x00000000   Number         0  lv_list.o ABSOLUTE
    ..\GUI\lvgl\src\lv_widgets\lv_msgbox.c   0x00000000   Number         0  lv_msgbox.o ABSOLUTE
    ..\GUI\lvgl\src\lv_widgets\lv_objmask.c  0x00000000   Number         0  lv_objmask.o ABSOLUTE
    ..\GUI\lvgl\src\lv_widgets\lv_objx_templ.c 0x00000000   Number         0  lv_objx_templ.o ABSOLUTE
    ..\GUI\lvgl\src\lv_widgets\lv_page.c     0x00000000   Number         0  lv_page.o ABSOLUTE
    ..\GUI\lvgl\src\lv_widgets\lv_roller.c   0x00000000   Number         0  lv_roller.o ABSOLUTE
    ..\GUI\lvgl\src\lv_widgets\lv_slider.c   0x00000000   Number         0  lv_slider.o ABSOLUTE
    ..\GUI\lvgl\src\lv_widgets\lv_spinbox.c  0x00000000   Number         0  lv_spinbox.o ABSOLUTE
    ..\GUI\lvgl\src\lv_widgets\lv_spinner.c  0x00000000   Number         0  lv_spinner.o ABSOLUTE
    ..\GUI\lvgl\src\lv_widgets\lv_switch.c   0x00000000   Number         0  lv_switch.o ABSOLUTE
    ..\GUI\lvgl\src\lv_widgets\lv_table.c    0x00000000   Number         0  lv_table.o ABSOLUTE
    ..\GUI\lvgl\src\lv_widgets\lv_tabview.c  0x00000000   Number         0  lv_tabview.o ABSOLUTE
    ..\GUI\lvgl\src\lv_widgets\lv_textarea.c 0x00000000   Number         0  lv_textarea.o ABSOLUTE
    ..\GUI\lvgl\src\lv_widgets\lv_tileview.c 0x00000000   Number         0  lv_tileview.o ABSOLUTE
    ..\GUI\lvgl\src\lv_widgets\lv_win.c      0x00000000   Number         0  lv_win.o ABSOLUTE
    ..\GUI\lvgl_driver\lv_port_disp.c        0x00000000   Number         0  lv_port_disp.o ABSOLUTE
    ..\GUI\lvgl_driver\lv_port_indev.c       0x00000000   Number         0  lv_port_indev.o ABSOLUTE
    ..\LCD\gd32f303e_lcd_ili9341.c           0x00000000   Number         0  gd32f303e_lcd_ili9341.o ABSOLUTE
    ..\Soft_Drive\picture.c                  0x00000000   Number         0  picture.o ABSOLUTE
    ..\Soft_Drive\touch_panel.c              0x00000000   Number         0  touch_panel.o ABSOLUTE
    ..\\..\\..\\Library\\Firmware\\CMSIS\\GD\\GD32F30x\\Source\\system_gd32f30x.c 0x00000000   Number         0  system_gd32f30x.o ABSOLUTE
    ..\\..\\..\\Library\\Firmware\\GD32F30x_standard_peripheral\\Source\\gd32f30x_adc.c 0x00000000   Number         0  gd32f30x_adc.o ABSOLUTE
    ..\\..\\..\\Library\\Firmware\\GD32F30x_standard_peripheral\\Source\\gd32f30x_bkp.c 0x00000000   Number         0  gd32f30x_bkp.o ABSOLUTE
    ..\\..\\..\\Library\\Firmware\\GD32F30x_standard_peripheral\\Source\\gd32f30x_can.c 0x00000000   Number         0  gd32f30x_can.o ABSOLUTE
    ..\\..\\..\\Library\\Firmware\\GD32F30x_standard_peripheral\\Source\\gd32f30x_crc.c 0x00000000   Number         0  gd32f30x_crc.o ABSOLUTE
    ..\\..\\..\\Library\\Firmware\\GD32F30x_standard_peripheral\\Source\\gd32f30x_ctc.c 0x00000000   Number         0  gd32f30x_ctc.o ABSOLUTE
    ..\\..\\..\\Library\\Firmware\\GD32F30x_standard_peripheral\\Source\\gd32f30x_dac.c 0x00000000   Number         0  gd32f30x_dac.o ABSOLUTE
    ..\\..\\..\\Library\\Firmware\\GD32F30x_standard_peripheral\\Source\\gd32f30x_dbg.c 0x00000000   Number         0  gd32f30x_dbg.o ABSOLUTE
    ..\\..\\..\\Library\\Firmware\\GD32F30x_standard_peripheral\\Source\\gd32f30x_dma.c 0x00000000   Number         0  gd32f30x_dma.o ABSOLUTE
    ..\\..\\..\\Library\\Firmware\\GD32F30x_standard_peripheral\\Source\\gd32f30x_enet.c 0x00000000   Number         0  gd32f30x_enet.o ABSOLUTE
    ..\\..\\..\\Library\\Firmware\\GD32F30x_standard_peripheral\\Source\\gd32f30x_exmc.c 0x00000000   Number         0  gd32f30x_exmc.o ABSOLUTE
    ..\\..\\..\\Library\\Firmware\\GD32F30x_standard_peripheral\\Source\\gd32f30x_exti.c 0x00000000   Number         0  gd32f30x_exti.o ABSOLUTE
    ..\\..\\..\\Library\\Firmware\\GD32F30x_standard_peripheral\\Source\\gd32f30x_fmc.c 0x00000000   Number         0  gd32f30x_fmc.o ABSOLUTE
    ..\\..\\..\\Library\\Firmware\\GD32F30x_standard_peripheral\\Source\\gd32f30x_fwdgt.c 0x00000000   Number         0  gd32f30x_fwdgt.o ABSOLUTE
    ..\\..\\..\\Library\\Firmware\\GD32F30x_standard_peripheral\\Source\\gd32f30x_gpio.c 0x00000000   Number         0  gd32f30x_gpio.o ABSOLUTE
    ..\\..\\..\\Library\\Firmware\\GD32F30x_standard_peripheral\\Source\\gd32f30x_i2c.c 0x00000000   Number         0  gd32f30x_i2c.o ABSOLUTE
    ..\\..\\..\\Library\\Firmware\\GD32F30x_standard_peripheral\\Source\\gd32f30x_misc.c 0x00000000   Number         0  gd32f30x_misc.o ABSOLUTE
    ..\\..\\..\\Library\\Firmware\\GD32F30x_standard_peripheral\\Source\\gd32f30x_pmu.c 0x00000000   Number         0  gd32f30x_pmu.o ABSOLUTE
    ..\\..\\..\\Library\\Firmware\\GD32F30x_standard_peripheral\\Source\\gd32f30x_rcu.c 0x00000000   Number         0  gd32f30x_rcu.o ABSOLUTE
    ..\\..\\..\\Library\\Firmware\\GD32F30x_standard_peripheral\\Source\\gd32f30x_rtc.c 0x00000000   Number         0  gd32f30x_rtc.o ABSOLUTE
    ..\\..\\..\\Library\\Firmware\\GD32F30x_standard_peripheral\\Source\\gd32f30x_sdio.c 0x00000000   Number         0  gd32f30x_sdio.o ABSOLUTE
    ..\\..\\..\\Library\\Firmware\\GD32F30x_standard_peripheral\\Source\\gd32f30x_spi.c 0x00000000   Number         0  gd32f30x_spi.o ABSOLUTE
    ..\\..\\..\\Library\\Firmware\\GD32F30x_standard_peripheral\\Source\\gd32f30x_timer.c 0x00000000   Number         0  gd32f30x_timer.o ABSOLUTE
    ..\\..\\..\\Library\\Firmware\\GD32F30x_standard_peripheral\\Source\\gd32f30x_usart.c 0x00000000   Number         0  gd32f30x_usart.o ABSOLUTE
    ..\\..\\..\\Library\\Firmware\\GD32F30x_standard_peripheral\\Source\\gd32f30x_wwdgt.c 0x00000000   Number         0  gd32f30x_wwdgt.o ABSOLUTE
    ..\\..\\..\\Library\\Utilities\\gd32f303e_eval.c 0x00000000   Number         0  gd32f303e_eval.o ABSOLUTE
    ..\\LCD\\gd32f303e_lcd_ili9341.c         0x00000000   Number         0  gd32f303e_lcd_ili9341.o ABSOLUTE
    ..\\Soft_Drive\\picture.c                0x00000000   Number         0  picture.o ABSOLUTE
    ..\\Soft_Drive\\touch_panel.c            0x00000000   Number         0  touch_panel.o ABSOLUTE
    ..\\bsp\\timer\\timer.c                  0x00000000   Number         0  timer.o ABSOLUTE
    ..\\gd32f30x_it.c                        0x00000000   Number         0  gd32f30x_it.o ABSOLUTE
    ..\\main.c                               0x00000000   Number         0  main.o ABSOLUTE
    ..\\systick.c                            0x00000000   Number         0  systick.o ABSOLUTE
    ..\bsp\timer\timer.c                     0x00000000   Number         0  timer.o ABSOLUTE
    ..\gd32f30x_it.c                         0x00000000   Number         0  gd32f30x_it.o ABSOLUTE
    ..\main.c                                0x00000000   Number         0  main.o ABSOLUTE
    ..\systick.c                             0x00000000   Number         0  systick.o ABSOLUTE
    dc.s                                     0x00000000   Number         0  dc.o ABSOLUTE
    handlers.s                               0x00000000   Number         0  handlers.o ABSOLUTE
    init.s                                   0x00000000   Number         0  init.o ABSOLUTE
    RESET                                    0x08000000   Section      304  startup_gd32f30x_hd.o(RESET)
    .ARM.Collect$$$$00000000                 0x08000130   Section        0  entry.o(.ARM.Collect$$$$00000000)
    .ARM.Collect$$$$00000001                 0x08000130   Section        4  entry2.o(.ARM.Collect$$$$00000001)
    .ARM.Collect$$$$00000004                 0x08000134   Section        4  entry5.o(.ARM.Collect$$$$00000004)
    .ARM.Collect$$$$00000008                 0x08000138   Section        0  entry7b.o(.ARM.Collect$$$$00000008)
    .ARM.Collect$$$$0000000A                 0x08000138   Section        0  entry8b.o(.ARM.Collect$$$$0000000A)
    .ARM.Collect$$$$0000000B                 0x08000138   Section        8  entry9a.o(.ARM.Collect$$$$0000000B)
    .ARM.Collect$$$$0000000D                 0x08000140   Section        0  entry10a.o(.ARM.Collect$$$$0000000D)
    .ARM.Collect$$$$0000000F                 0x08000140   Section        0  entry11a.o(.ARM.Collect$$$$0000000F)
    .ARM.Collect$$$$00002712                 0x08000140   Section        4  entry2.o(.ARM.Collect$$$$00002712)
    __lit__00000000                          0x08000140   Data           4  entry2.o(.ARM.Collect$$$$00002712)
    .text                                    0x08000144   Section       36  startup_gd32f30x_hd.o(.text)
    $v0                                      0x08000144   Number         0  startup_gd32f30x_hd.o(.text)
    .text                                    0x08000168   Section        0  uldiv.o(.text)
    .text                                    0x080001ca   Section        0  memseta.o(.text)
    .text                                    0x080001ee   Section        0  strcat.o(.text)
    .text                                    0x08000206   Section        0  strlen.o(.text)
    .text                                    0x08000214   Section        0  strcmp.o(.text)
    .text                                    0x08000230   Section        0  memcmp.o(.text)
    .text                                    0x0800024a   Section        0  strcpy.o(.text)
    .text                                    0x0800025c   Section        0  llshl.o(.text)
    .text                                    0x0800027a   Section        0  llushr.o(.text)
    .text                                    0x0800029c   Section       36  init.o(.text)
    .text                                    0x080002c0   Section        0  __dczerorl2.o(.text)
    i.BusFault_Handler                       0x08000316   Section        0  gd32f30x_it.o(i.BusFault_Handler)
    i.DebugMon_Handler                       0x0800031a   Section        0  gd32f30x_it.o(i.DebugMon_Handler)
    i.HardFault_Handler                      0x0800031c   Section        0  gd32f30x_it.o(i.HardFault_Handler)
    i.LCD_Color_Fill                         0x08000320   Section        0  gd32f303e_lcd_ili9341.o(i.LCD_Color_Fill)
    i.LCD_SetCursor                          0x08000384   Section        0  gd32f303e_lcd_ili9341.o(i.LCD_SetCursor)
    i.LCD_SetParam                           0x080003bc   Section        0  gd32f303e_lcd_ili9341.o(i.LCD_SetParam)
    i.LCD_WR_DATA                            0x080003e8   Section        0  gd32f303e_lcd_ili9341.o(i.LCD_WR_DATA)
    i.LCD_WR_REG                             0x080003f4   Section        0  gd32f303e_lcd_ili9341.o(i.LCD_WR_REG)
    i.LCD_WriteRAM_Prepare                   0x08000400   Section        0  gd32f303e_lcd_ili9341.o(i.LCD_WriteRAM_Prepare)
    i.LCD_WriteReg                           0x08000410   Section        0  gd32f303e_lcd_ili9341.o(i.LCD_WriteReg)
    i.LCD_Write_Cmd                          0x08000420   Section        0  gd32f303e_lcd_ili9341.o(i.LCD_Write_Cmd)
    i.LCD_Write_Data                         0x0800042a   Section        0  gd32f303e_lcd_ili9341.o(i.LCD_Write_Data)
    i.MemManage_Handler                      0x08000434   Section        0  gd32f30x_it.o(i.MemManage_Handler)
    i.NMI_Handler                            0x08000438   Section        0  gd32f30x_it.o(i.NMI_Handler)
    i.NVIC_SetPriority                       0x0800043c   Section        0  systick.o(i.NVIC_SetPriority)
    NVIC_SetPriority                         0x0800043d   Thumb Code    32  systick.o(i.NVIC_SetPriority)
    i.PendSV_Handler                         0x08000464   Section        0  gd32f30x_it.o(i.PendSV_Handler)
    i.SVC_Handler                            0x08000466   Section        0  gd32f30x_it.o(i.SVC_Handler)
    i.SysTick_Handler                        0x08000468   Section        0  gd32f30x_it.o(i.SysTick_Handler)
    i.SystemInit                             0x08000470   Section        0  system_gd32f30x.o(i.SystemInit)
    i.TIMER1_IRQHandler                      0x080004c0   Section        0  timer.o(i.TIMER1_IRQHandler)
    i.UsageFault_Handler                     0x080004dc   Section        0  gd32f30x_it.o(i.UsageFault_Handler)
    i.__scatterload_copy                     0x080004e0   Section       14  handlers.o(i.__scatterload_copy)
    i.__scatterload_null                     0x080004ee   Section        2  handlers.o(i.__scatterload_null)
    i.__scatterload_zeroinit                 0x080004f0   Section       14  handlers.o(i.__scatterload_zeroinit)
    i._atoi                                  0x080004fe   Section        0  lv_printf.o(i._atoi)
    _atoi                                    0x080004ff   Thumb Code    42  lv_printf.o(i._atoi)
    i._is_digit                              0x08000528   Section        0  lv_printf.o(i._is_digit)
    _is_digit                                0x08000529   Thumb Code    18  lv_printf.o(i._is_digit)
    i._lv_anim_core_init                     0x0800053c   Section        0  lv_anim.o(i._lv_anim_core_init)
    i._lv_area_align                         0x08000574   Section        0  lv_area.o(i._lv_area_align)
    i._lv_area_intersect                     0x080008d8   Section        0  lv_area.o(i._lv_area_intersect)
    i._lv_area_is_in                         0x0800095a   Section        0  lv_area.o(i._lv_area_is_in)
    i._lv_area_is_on                         0x08000a16   Section        0  lv_area.o(i._lv_area_is_on)
    i._lv_area_is_point_on                   0x08000a50   Section        0  lv_area.o(i._lv_area_is_point_on)
    i._lv_area_join                          0x08000be2   Section        0  lv_area.o(i._lv_area_join)
    i._lv_blend_fill                         0x08000c46   Section        0  lv_draw_blend.o(i._lv_blend_fill)
    i._lv_blend_map                          0x08000d50   Section        0  lv_draw_blend.o(i._lv_blend_map)
    i._lv_disp_pop_from_inv_buf              0x08000e64   Section        0  lv_hal_disp.o(i._lv_disp_pop_from_inv_buf)
    i._lv_disp_refr_task                     0x08000e94   Section        0  lv_refr.o(i._lv_disp_refr_task)
    i._lv_font_clean_up_fmt_txt              0x08001064   Section        0  lv_font_fmt_txt.o(i._lv_font_clean_up_fmt_txt)
    i._lv_fs_init                            0x08001080   Section        0  lv_fs.o(i._lv_fs_init)
    i._lv_group_init                         0x08001090   Section        0  lv_group.o(i._lv_group_init)
    i._lv_img_buf_get_transformed_area       0x080010a0   Section        0  lv_img_buf.o(i._lv_img_buf_get_transformed_area)
    i._lv_img_buf_transform                  0x08001410   Section        0  lv_draw_img.o(i._lv_img_buf_transform)
    _lv_img_buf_transform                    0x08001411   Thumb Code   458  lv_draw_img.o(i._lv_img_buf_transform)
    i._lv_img_buf_transform_anti_alias       0x080015e0   Section        0  lv_img_buf.o(i._lv_img_buf_transform_anti_alias)
    i._lv_img_buf_transform_init             0x08001918   Section        0  lv_img_buf.o(i._lv_img_buf_transform_init)
    i._lv_img_cache_open                     0x08001a40   Section        0  lv_img_cache.o(i._lv_img_cache_open)
    i._lv_img_decoder_init                   0x08001bc0   Section        0  lv_img_decoder.o(i._lv_img_decoder_init)
    i._lv_indev_init                         0x08001c38   Section        0  lv_indev.o(i._lv_indev_init)
    i._lv_indev_read                         0x08001c44   Section        0  lv_hal_indev.o(i._lv_indev_read)
    i._lv_indev_read_task                    0x08001c90   Section        0  lv_indev.o(i._lv_indev_read_task)
    i._lv_inv_area                           0x08001d94   Section        0  lv_refr.o(i._lv_inv_area)
    i._lv_ll_chg_list                        0x08001e90   Section        0  lv_ll.o(i._lv_ll_chg_list)
    i._lv_ll_get_head                        0x08001f00   Section        0  lv_ll.o(i._lv_ll_get_head)
    i._lv_ll_get_len                         0x08001f0a   Section        0  lv_ll.o(i._lv_ll_get_len)
    i._lv_ll_get_next                        0x08001f2e   Section        0  lv_ll.o(i._lv_ll_get_next)
    i._lv_ll_get_prev                        0x08001f42   Section        0  lv_ll.o(i._lv_ll_get_prev)
    i._lv_ll_get_tail                        0x08001f54   Section        0  lv_ll.o(i._lv_ll_get_tail)
    i._lv_ll_init                            0x08001f5e   Section        0  lv_ll.o(i._lv_ll_init)
    i._lv_ll_ins_head                        0x08001f6e   Section        0  lv_ll.o(i._lv_ll_ins_head)
    i._lv_ll_ins_prev                        0x08001fae   Section        0  lv_ll.o(i._lv_ll_ins_prev)
    i._lv_ll_ins_tail                        0x08002022   Section        0  lv_ll.o(i._lv_ll_ins_tail)
    i._lv_ll_is_empty                        0x08002062   Section        0  lv_ll.o(i._lv_ll_is_empty)
    i._lv_ll_move_before                     0x0800207a   Section        0  lv_ll.o(i._lv_ll_move_before)
    i._lv_ll_remove                          0x080020e4   Section        0  lv_ll.o(i._lv_ll_remove)
    i._lv_map                                0x0800216e   Section        0  lv_math.o(i._lv_map)
    i._lv_mem_buf_free_all                   0x08002194   Section        0  lv_mem.o(i._lv_mem_buf_free_all)
    i._lv_mem_buf_get                        0x080021ec   Section        0  lv_mem.o(i._lv_mem_buf_get)
    i._lv_mem_buf_release                    0x0800234c   Section        0  lv_mem.o(i._lv_mem_buf_release)
    i._lv_mem_get_size                       0x080023a0   Section        0  lv_mem.o(i._lv_mem_get_size)
    i._lv_mem_init                           0x080023c0   Section        0  lv_mem.o(i._lv_mem_init)
    i._lv_memcpy                             0x080023e8   Section        0  lv_mem.o(i._lv_memcpy)
    i._lv_memcpy_small                       0x08002660   Section        0  lv_obj.o(i._lv_memcpy_small)
    _lv_memcpy_small                         0x08002661   Thumb Code    24  lv_obj.o(i._lv_memcpy_small)
    i._lv_memcpy_small                       0x08002678   Section        0  lv_style.o(i._lv_memcpy_small)
    _lv_memcpy_small                         0x08002679   Thumb Code    24  lv_style.o(i._lv_memcpy_small)
    i._lv_memcpy_small                       0x08002690   Section        0  lv_draw_img.o(i._lv_memcpy_small)
    _lv_memcpy_small                         0x08002691   Thumb Code    24  lv_draw_img.o(i._lv_memcpy_small)
    i._lv_memcpy_small                       0x080026a8   Section        0  lv_img_buf.o(i._lv_memcpy_small)
    _lv_memcpy_small                         0x080026a9   Thumb Code    24  lv_img_buf.o(i._lv_memcpy_small)
    i._lv_memcpy_small                       0x080026c0   Section        0  lv_txt.o(i._lv_memcpy_small)
    _lv_memcpy_small                         0x080026c1   Thumb Code    24  lv_txt.o(i._lv_memcpy_small)
    i._lv_memset                             0x080026d8   Section        0  lv_mem.o(i._lv_memset)
    i._lv_memset_00                          0x0800274c   Section        0  lv_mem.o(i._lv_memset_00)
    i._lv_memset_ff                          0x080027ba   Section        0  lv_mem.o(i._lv_memset_ff)
    i._lv_obj_disable_style_caching          0x0800282c   Section        0  lv_obj.o(i._lv_obj_disable_style_caching)
    i._lv_obj_get_style_color                0x08002880   Section        0  lv_obj.o(i._lv_obj_get_style_color)
    i._lv_obj_get_style_int                  0x0800291c   Section        0  lv_obj.o(i._lv_obj_get_style_int)
    i._lv_obj_get_style_opa                  0x08002ba0   Section        0  lv_obj.o(i._lv_obj_get_style_opa)
    i._lv_obj_get_style_ptr                  0x08002cb8   Section        0  lv_obj.o(i._lv_obj_get_style_ptr)
    i._lv_obj_set_style_local_color          0x08002dc4   Section        0  lv_obj.o(i._lv_obj_set_style_local_color)
    i._lv_obj_set_style_local_opa            0x08002dfe   Section        0  lv_obj.o(i._lv_obj_set_style_local_opa)
    i._lv_obj_set_style_local_ptr            0x08002e3a   Section        0  lv_obj.o(i._lv_obj_set_style_local_ptr)
    i._lv_refr_get_disp_refreshing           0x08002e78   Section        0  lv_refr.o(i._lv_refr_get_disp_refreshing)
    i._lv_refr_init                          0x08002e84   Section        0  lv_refr.o(i._lv_refr_init)
    i._lv_sqrt                               0x08002e86   Section        0  lv_math.o(i._lv_sqrt)
    i._lv_style_get_color                    0x08002eae   Section        0  lv_style.o(i._lv_style_get_color)
    i._lv_style_get_int                      0x08002f08   Section        0  lv_style.o(i._lv_style_get_int)
    i._lv_style_get_mem_size                 0x08002f62   Section        0  lv_style.o(i._lv_style_get_mem_size)
    i._lv_style_get_opa                      0x08002f90   Section        0  lv_style.o(i._lv_style_get_opa)
    i._lv_style_get_ptr                      0x08002fea   Section        0  lv_style.o(i._lv_style_get_ptr)
    i._lv_style_list_add_style               0x08003044   Section        0  lv_style.o(i._lv_style_list_add_style)
    i._lv_style_list_add_trans_style         0x080030f8   Section        0  lv_style.o(i._lv_style_list_add_trans_style)
    i._lv_style_list_get_color               0x0800317c   Section        0  lv_style.o(i._lv_style_list_get_color)
    i._lv_style_list_get_int                 0x08003214   Section        0  lv_style.o(i._lv_style_list_get_int)
    i._lv_style_list_get_opa                 0x080032ac   Section        0  lv_style.o(i._lv_style_list_get_opa)
    i._lv_style_list_get_ptr                 0x08003344   Section        0  lv_style.o(i._lv_style_list_get_ptr)
    i._lv_style_list_get_transition_style    0x080033d2   Section        0  lv_style.o(i._lv_style_list_get_transition_style)
    i._lv_style_list_remove_style            0x080033e8   Section        0  lv_style.o(i._lv_style_list_remove_style)
    i._lv_style_list_reset                   0x080034dc   Section        0  lv_style.o(i._lv_style_list_reset)
    i._lv_style_list_set_local_color         0x0800355c   Section        0  lv_style.o(i._lv_style_list_set_local_color)
    i._lv_style_list_set_local_opa           0x08003576   Section        0  lv_style.o(i._lv_style_list_set_local_opa)
    i._lv_style_list_set_local_ptr           0x08003596   Section        0  lv_style.o(i._lv_style_list_set_local_ptr)
    i._lv_style_set_color                    0x080035b8   Section        0  lv_style.o(i._lv_style_set_color)
    i._lv_style_set_int                      0x08003688   Section        0  lv_style.o(i._lv_style_set_int)
    i._lv_style_set_opa                      0x08003758   Section        0  lv_style.o(i._lv_style_set_opa)
    i._lv_style_set_ptr                      0x08003828   Section        0  lv_style.o(i._lv_style_set_ptr)
    i._lv_task_core_init                     0x080038f8   Section        0  lv_task.o(i._lv_task_core_init)
    i._lv_trigo_sin                          0x08003910   Section        0  lv_math.o(i._lv_trigo_sin)
    i._lv_txt_get_next_line                  0x08003980   Section        0  lv_txt.o(i._lv_txt_get_next_line)
    i._lv_txt_get_size                       0x08003a74   Section        0  lv_txt.o(i._lv_txt_get_size)
    i._lv_txt_get_width                      0x08003b54   Section        0  lv_txt.o(i._lv_txt_get_width)
    i._lv_txt_is_cmd                         0x08003bec   Section        0  lv_txt.o(i._lv_txt_is_cmd)
    i._lv_txt_set_text_vfmt                  0x08003c34   Section        0  lv_txt.o(i._lv_txt_set_text_vfmt)
    i._lv_utils_bsearch                      0x08003ca0   Section        0  lv_utils.o(i._lv_utils_bsearch)
    i._lv_utils_num_to_str                   0x08003cf4   Section        0  lv_utils.o(i._lv_utils_num_to_str)
    i._ntoa_format                           0x08003d74   Section        0  lv_printf.o(i._ntoa_format)
    _ntoa_format                             0x08003d75   Thumb Code   282  lv_printf.o(i._ntoa_format)
    i._ntoa_long                             0x08003e8e   Section        0  lv_printf.o(i._ntoa_long)
    _ntoa_long                               0x08003e8f   Thumb Code   124  lv_printf.o(i._ntoa_long)
    i._ntoa_long_long                        0x08003f0a   Section        0  lv_printf.o(i._ntoa_long_long)
    _ntoa_long_long                          0x08003f0b   Thumb Code   184  lv_printf.o(i._ntoa_long_long)
    i._out_buffer                            0x08003fc2   Section        0  lv_printf.o(i._out_buffer)
    _out_buffer                              0x08003fc3   Thumb Code     8  lv_printf.o(i._out_buffer)
    i._out_null                              0x08003fca   Section        0  lv_printf.o(i._out_null)
    _out_null                                0x08003fcb   Thumb Code     2  lv_printf.o(i._out_null)
    i._out_rev                               0x08003fcc   Section        0  lv_printf.o(i._out_rev)
    _out_rev                                 0x08003fcd   Thumb Code   116  lv_printf.o(i._out_rev)
    i._vsnprintf                             0x08004040   Section        0  lv_printf.o(i._vsnprintf)
    _vsnprintf                               0x08004041   Thumb Code  1498  lv_printf.o(i._vsnprintf)
    i.anim_mark_list_change                  0x0800461c   Section        0  lv_anim.o(i.anim_mark_list_change)
    anim_mark_list_change                    0x0800461d   Thumb Code    40  lv_anim.o(i.anim_mark_list_change)
    i.anim_ready_handler                     0x08004650   Section        0  lv_anim.o(i.anim_ready_handler)
    anim_ready_handler                       0x08004651   Thumb Code   178  lv_anim.o(i.anim_ready_handler)
    i.anim_task                              0x08004708   Section        0  lv_anim.o(i.anim_task)
    anim_task                                0x08004709   Thumb Code   234  lv_anim.o(i.anim_task)
    i.apply_theme                            0x08004804   Section        0  lv_theme.o(i.apply_theme)
    apply_theme                              0x08004805   Thumb Code    54  lv_theme.o(i.apply_theme)
    i.arc_init                               0x08004840   Section        0  lv_theme_material.o(i.arc_init)
    arc_init                                 0x08004841   Thumb Code   330  lv_theme_material.o(i.arc_init)
    i.bar_init                               0x0800499c   Section        0  lv_theme_material.o(i.bar_init)
    bar_init                                 0x0800499d   Thumb Code   430  lv_theme_material.o(i.bar_init)
    i.basic_init                             0x08004b68   Section        0  lv_theme_material.o(i.basic_init)
    basic_init                               0x08004b69   Thumb Code  4728  lv_theme_material.o(i.basic_init)
    i.bits_write                             0x08005de8   Section        0  lv_font_fmt_txt.o(i.bits_write)
    bits_write                               0x08005de9   Thumb Code   104  lv_font_fmt_txt.o(i.bits_write)
    i.btn_init                               0x08005e50   Section        0  lv_theme_material.o(i.btn_init)
    btn_init                                 0x08005e51   Thumb Code     2  lv_theme_material.o(i.btn_init)
    i.btnmatrix_init                         0x08005e52   Section        0  lv_theme_material.o(i.btnmatrix_init)
    btnmatrix_init                           0x08005e53   Thumb Code     2  lv_theme_material.o(i.btnmatrix_init)
    i.calendar_init                          0x08005e54   Section        0  lv_theme_material.o(i.calendar_init)
    calendar_init                            0x08005e55   Thumb Code  1814  lv_theme_material.o(i.calendar_init)
    i.chart_init                             0x08006580   Section        0  lv_theme_material.o(i.chart_init)
    chart_init                               0x08006581   Thumb Code   592  lv_theme_material.o(i.chart_init)
    i.checkbox_init                          0x080067e4   Section        0  lv_theme_material.o(i.checkbox_init)
    checkbox_init                            0x080067e5   Thumb Code   832  lv_theme_material.o(i.checkbox_init)
    i.clear_styles                           0x08006b34   Section        0  lv_theme.o(i.clear_styles)
    clear_styles                             0x08006b35   Thumb Code   856  lv_theme.o(i.clear_styles)
    i.color_blend_true_color_additive        0x08006e8c   Section        0  lv_draw_blend.o(i.color_blend_true_color_additive)
    color_blend_true_color_additive          0x08006e8d   Thumb Code   162  lv_draw_blend.o(i.color_blend_true_color_additive)
    i.color_blend_true_color_subtractive     0x08006f2e   Section        0  lv_draw_blend.o(i.color_blend_true_color_subtractive)
    color_blend_true_color_subtractive       0x08006f2f   Thumb Code   162  lv_draw_blend.o(i.color_blend_true_color_subtractive)
    i.cont_init                              0x08006fd0   Section        0  lv_theme_material.o(i.cont_init)
    cont_init                                0x08006fd1   Thumb Code     2  lv_theme_material.o(i.cont_init)
    i.cpicker_init                           0x08006fd4   Section        0  lv_theme_material.o(i.cpicker_init)
    cpicker_init                             0x08006fd5   Thumb Code   628  lv_theme_material.o(i.cpicker_init)
    i.ddlist_init                            0x0800725c   Section        0  lv_theme_material.o(i.ddlist_init)
    ddlist_init                              0x0800725d   Thumb Code   274  lv_theme_material.o(i.ddlist_init)
    i.decompress                             0x08007384   Section        0  lv_font_fmt_txt.o(i.decompress)
    decompress                               0x08007385   Thumb Code   238  lv_font_fmt_txt.o(i.decompress)
    i.decompress_line                        0x0800748c   Section        0  lv_font_fmt_txt.o(i.decompress_line)
    decompress_line                          0x0800748d   Thumb Code    26  lv_font_fmt_txt.o(i.decompress_line)
    i.delay_1ms                              0x080074a8   Section        0  systick.o(i.delay_1ms)
    i.delay_decrement                        0x080074bc   Section        0  systick.o(i.delay_decrement)
    i.disp_flush                             0x080074d4   Section        0  lv_port_disp.o(i.disp_flush)
    disp_flush                               0x080074d5   Thumb Code    38  lv_port_disp.o(i.disp_flush)
    i.disp_init                              0x080074fa   Section        0  lv_port_disp.o(i.disp_init)
    disp_init                                0x080074fb   Thumb Code     2  lv_port_disp.o(i.disp_init)
    i.draw_bg                                0x080074fc   Section        0  lv_draw_rect.o(i.draw_bg)
    draw_bg                                  0x080074fd   Thumb Code  1330  lv_draw_rect.o(i.draw_bg)
    i.draw_border                            0x08007a2e   Section        0  lv_draw_rect.o(i.draw_border)
    draw_border                              0x08007a2f   Thumb Code   828  lv_draw_rect.o(i.draw_border)
    i.draw_cleanup                           0x08007d6a   Section        0  lv_draw_img.o(i.draw_cleanup)
    draw_cleanup                             0x08007d6b   Thumb Code     2  lv_draw_img.o(i.draw_cleanup)
    i.draw_full_border                       0x08007d6c   Section        0  lv_draw_rect.o(i.draw_full_border)
    draw_full_border                         0x08007d6d   Thumb Code  1218  lv_draw_rect.o(i.draw_full_border)
    i.draw_letter_normal                     0x08008230   Section        0  lv_draw_label.o(i.draw_letter_normal)
    draw_letter_normal                       0x08008231   Thumb Code   786  lv_draw_label.o(i.draw_letter_normal)
    i.draw_letter_subpx                      0x08008560   Section        0  lv_draw_label.o(i.draw_letter_subpx)
    draw_letter_subpx                        0x08008561   Thumb Code  1136  lv_draw_label.o(i.draw_letter_subpx)
    i.draw_line_hor                          0x080089d0   Section        0  lv_draw_line.o(i.draw_line_hor)
    draw_line_hor                            0x080089d1   Thumb Code   608  lv_draw_line.o(i.draw_line_hor)
    i.draw_line_skew                         0x08008c30   Section        0  lv_draw_line.o(i.draw_line_skew)
    draw_line_skew                           0x08008c31   Thumb Code  1228  lv_draw_line.o(i.draw_line_skew)
    i.draw_line_ver                          0x080090fc   Section        0  lv_draw_line.o(i.draw_line_ver)
    draw_line_ver                            0x080090fd   Thumb Code   580  lv_draw_line.o(i.draw_line_ver)
    i.draw_outline                           0x08009340   Section        0  lv_draw_rect.o(i.draw_outline)
    draw_outline                             0x08009341   Thumb Code   228  lv_draw_rect.o(i.draw_outline)
    i.draw_pattern                           0x08009424   Section        0  lv_draw_rect.o(i.draw_pattern)
    draw_pattern                             0x08009425   Thumb Code   684  lv_draw_rect.o(i.draw_pattern)
    i.draw_quarter_0                         0x080096d0   Section        0  lv_draw_arc.o(i.draw_quarter_0)
    draw_quarter_0                           0x080096d1   Thumb Code   518  lv_draw_arc.o(i.draw_quarter_0)
    i.draw_quarter_1                         0x080098d6   Section        0  lv_draw_arc.o(i.draw_quarter_1)
    draw_quarter_1                           0x080098d7   Thumb Code   530  lv_draw_arc.o(i.draw_quarter_1)
    i.draw_quarter_2                         0x08009ae8   Section        0  lv_draw_arc.o(i.draw_quarter_2)
    draw_quarter_2                           0x08009ae9   Thumb Code   538  lv_draw_arc.o(i.draw_quarter_2)
    i.draw_quarter_3                         0x08009d02   Section        0  lv_draw_arc.o(i.draw_quarter_3)
    draw_quarter_3                           0x08009d03   Thumb Code   530  lv_draw_arc.o(i.draw_quarter_3)
    i.draw_shadow                            0x08009f14   Section        0  lv_draw_rect.o(i.draw_shadow)
    draw_shadow                              0x08009f15   Thumb Code  3808  lv_draw_rect.o(i.draw_shadow)
    i.draw_value_str                         0x0800adf4   Section        0  lv_draw_rect.o(i.draw_value_str)
    draw_value_str                           0x0800adf5   Thumb Code   244  lv_draw_rect.o(i.draw_value_str)
    i.ent_alloc                              0x0800aee8   Section        0  lv_mem.o(i.ent_alloc)
    ent_alloc                                0x0800aee9   Thumb Code    48  lv_mem.o(i.ent_alloc)
    i.ent_get_next                           0x0800af18   Section        0  lv_mem.o(i.ent_get_next)
    ent_get_next                             0x0800af19   Thumb Code    42  lv_mem.o(i.ent_get_next)
    i.ent_trunc                              0x0800af48   Section        0  lv_mem.o(i.ent_trunc)
    ent_trunc                                0x0800af49   Thumb Code    70  lv_mem.o(i.ent_trunc)
    i.exmc_lcd_init                          0x0800af90   Section        0  gd32f303e_lcd_ili9341.o(i.exmc_lcd_init)
    i.exmc_norsram_enable                    0x0800b058   Section        0  gd32f30x_exmc.o(i.exmc_norsram_enable)
    i.exmc_norsram_init                      0x0800b070   Section        0  gd32f30x_exmc.o(i.exmc_norsram_init)
    i.fill_blended                           0x0800b18c   Section        0  lv_draw_blend.o(i.fill_blended)
    fill_blended                             0x0800b18d   Thumb Code   346  lv_draw_blend.o(i.fill_blended)
    i.fill_normal                            0x0800b2f0   Section        0  lv_draw_blend.o(i.fill_normal)
    fill_normal                              0x0800b2f1   Thumb Code  1054  lv_draw_blend.o(i.fill_normal)
    i.fill_set_px                            0x0800b714   Section        0  lv_draw_blend.o(i.fill_set_px)
    fill_set_px                              0x0800b715   Thumb Code   204  lv_draw_blend.o(i.fill_set_px)
    i.focus_next_core                        0x0800b7e0   Section        0  lv_group.o(i.focus_next_core)
    focus_next_core                          0x0800b7e1   Thumb Code   258  lv_group.o(i.focus_next_core)
    i.gauge_init                             0x0800b8e4   Section        0  lv_theme_material.o(i.gauge_init)
    gauge_init                               0x0800b8e5   Thumb Code  1228  lv_theme_material.o(i.gauge_init)
    i.get_alloc_local_style                  0x0800bdb8   Section        0  lv_style.o(i.get_alloc_local_style)
    get_alloc_local_style                    0x0800bdb9   Thumb Code    94  lv_style.o(i.get_alloc_local_style)
    i.get_bits                               0x0800be28   Section        0  lv_font_fmt_txt.o(i.get_bits)
    get_bits                                 0x0800be29   Thumb Code   108  lv_font_fmt_txt.o(i.get_bits)
    i.get_dragged_obj                        0x0800be94   Section        0  lv_indev.o(i.get_dragged_obj)
    get_dragged_obj                          0x0800be95   Thumb Code    38  lv_indev.o(i.get_dragged_obj)
    i.get_glyph_dsc_id                       0x0800bebc   Section        0  lv_font_fmt_txt.o(i.get_glyph_dsc_id)
    get_glyph_dsc_id                         0x0800bebd   Thumb Code   404  lv_font_fmt_txt.o(i.get_glyph_dsc_id)
    i.get_kern_value                         0x0800c054   Section        0  lv_font_fmt_txt.o(i.get_kern_value)
    get_kern_value                           0x0800c055   Thumb Code   202  lv_font_fmt_txt.o(i.get_kern_value)
    i.get_next_prop_index                    0x0800c128   Section        0  lv_style.o(i.get_next_prop_index)
    get_next_prop_index                      0x0800c129   Thumb Code    16  lv_style.o(i.get_next_prop_index)
    i.get_prop_size                          0x0800c138   Section        0  lv_style.o(i.get_prop_size)
    get_prop_size                            0x0800c139   Thumb Code    36  lv_style.o(i.get_prop_size)
    i.get_property_index                     0x0800c15c   Section        0  lv_style.o(i.get_property_index)
    get_property_index                       0x0800c15d   Thumb Code   120  lv_style.o(i.get_property_index)
    i.get_rounded_area                       0x0800c1d4   Section        0  lv_draw_arc.o(i.get_rounded_area)
    get_rounded_area                         0x0800c1d5   Thumb Code   168  lv_draw_arc.o(i.get_rounded_area)
    i.get_style_prop                         0x0800c27c   Section        0  lv_style.o(i.get_style_prop)
    get_style_prop                           0x0800c27d   Thumb Code    26  lv_style.o(i.get_style_prop)
    i.get_style_prop_attr                    0x0800c296   Section        0  lv_style.o(i.get_style_prop_attr)
    get_style_prop_attr                      0x0800c297   Thumb Code    18  lv_style.o(i.get_style_prop_attr)
    i.get_style_prop_id                      0x0800c2a8   Section        0  lv_style.o(i.get_style_prop_id)
    get_style_prop_id                        0x0800c2a9   Thumb Code    18  lv_style.o(i.get_style_prop_id)
    i.get_txt_coords                         0x0800c2ba   Section        0  lv_label.o(i.get_txt_coords)
    get_txt_coords                           0x0800c2bb   Thumb Code    94  lv_label.o(i.get_txt_coords)
    i.gpio_bit_reset                         0x0800c318   Section        0  gd32f30x_gpio.o(i.gpio_bit_reset)
    i.gpio_bit_set                           0x0800c31c   Section        0  gd32f30x_gpio.o(i.gpio_bit_set)
    i.gpio_init                              0x0800c320   Section        0  gd32f30x_gpio.o(i.gpio_init)
    i.gpio_input_bit_get                     0x0800c3c4   Section        0  gd32f30x_gpio.o(i.gpio_input_bit_get)
    i.gpu_blend                              0x0800c3d4   Section        0  lv_port_disp.o(i.gpu_blend)
    gpu_blend                                0x0800c3d5   Thumb Code    66  lv_port_disp.o(i.gpu_blend)
    i.gpu_fill                               0x0800c416   Section        0  lv_port_disp.o(i.gpu_fill)
    gpu_fill                                 0x0800c417   Thumb Code    62  lv_port_disp.o(i.gpu_fill)
    i.grad_get                               0x0800c454   Section        0  lv_draw_rect.o(i.grad_get)
    grad_get                                 0x0800c455   Thumb Code   128  lv_draw_rect.o(i.grad_get)
    i.hex_char_to_num                        0x0800c4d4   Section        0  lv_draw_label.o(i.hex_char_to_num)
    hex_char_to_num                          0x0800c4d5   Thumb Code    80  lv_draw_label.o(i.hex_char_to_num)
    i.img_init                               0x0800c524   Section        0  lv_theme_material.o(i.img_init)
    img_init                                 0x0800c525   Thumb Code     2  lv_theme_material.o(i.img_init)
    i.indev_button_proc                      0x0800c526   Section        0  lv_indev.o(i.indev_button_proc)
    indev_button_proc                        0x0800c527   Thumb Code   130  lv_indev.o(i.indev_button_proc)
    i.indev_click_focus                      0x0800c5a8   Section        0  lv_indev.o(i.indev_click_focus)
    indev_click_focus                        0x0800c5a9   Thumb Code   376  lv_indev.o(i.indev_click_focus)
    i.indev_drag                             0x0800c724   Section        0  lv_indev.o(i.indev_drag)
    indev_drag                               0x0800c725   Thumb Code   844  lv_indev.o(i.indev_drag)
    i.indev_drag_throw                       0x0800ca74   Section        0  lv_indev.o(i.indev_drag_throw)
    indev_drag_throw                         0x0800ca75   Thumb Code   426  lv_indev.o(i.indev_drag_throw)
    i.indev_encoder_proc                     0x0800cc24   Section        0  lv_indev.o(i.indev_encoder_proc)
    indev_encoder_proc                       0x0800cc25   Thumb Code  1170  lv_indev.o(i.indev_encoder_proc)
    i.indev_gesture                          0x0800d0b8   Section        0  lv_indev.o(i.indev_gesture)
    indev_gesture                            0x0800d0b9   Thumb Code   340  lv_indev.o(i.indev_gesture)
    i.indev_keypad_proc                      0x0800d210   Section        0  lv_indev.o(i.indev_keypad_proc)
    indev_keypad_proc                        0x0800d211   Thumb Code   818  lv_indev.o(i.indev_keypad_proc)
    i.indev_pointer_proc                     0x0800d548   Section        0  lv_indev.o(i.indev_pointer_proc)
    indev_pointer_proc                       0x0800d549   Thumb Code   176  lv_indev.o(i.indev_pointer_proc)
    i.indev_proc_press                       0x0800d5f8   Section        0  lv_indev.o(i.indev_proc_press)
    indev_proc_press                         0x0800d5f9   Thumb Code   966  lv_indev.o(i.indev_proc_press)
    i.indev_proc_release                     0x0800d9c8   Section        0  lv_indev.o(i.indev_proc_release)
    indev_proc_release                       0x0800d9c9   Thumb Code   428  lv_indev.o(i.indev_proc_release)
    i.indev_proc_reset_query_handler         0x0800db7c   Section        0  lv_indev.o(i.indev_proc_reset_query_handler)
    indev_proc_reset_query_handler           0x0800db7d   Thumb Code   112  lv_indev.o(i.indev_proc_reset_query_handler)
    i.indev_reset_check                      0x0800dbf0   Section        0  lv_indev.o(i.indev_reset_check)
    indev_reset_check                        0x0800dbf1   Thumb Code    28  lv_indev.o(i.indev_reset_check)
    i.invalidate_style_cache                 0x0800dc10   Section        0  lv_obj.o(i.invalidate_style_cache)
    invalidate_style_cache                   0x0800dc11   Thumb Code   130  lv_obj.o(i.invalidate_style_cache)
    i.kern_pair_16_compare                   0x0800dc92   Section        0  lv_font_fmt_txt.o(i.kern_pair_16_compare)
    kern_pair_16_compare                     0x0800dc93   Thumb Code    32  lv_font_fmt_txt.o(i.kern_pair_16_compare)
    i.kern_pair_8_compare                    0x0800dcb2   Section        0  lv_font_fmt_txt.o(i.kern_pair_8_compare)
    kern_pair_8_compare                      0x0800dcb3   Thumb Code    32  lv_font_fmt_txt.o(i.kern_pair_8_compare)
    i.keyboard_init                          0x0800dcd4   Section        0  lv_theme_material.o(i.keyboard_init)
    keyboard_init                            0x0800dcd5   Thumb Code   490  lv_theme_material.o(i.keyboard_init)
    i.label_init                             0x0800decc   Section        0  lv_theme_material.o(i.label_init)
    label_init                               0x0800decd   Thumb Code     2  lv_theme_material.o(i.label_init)
    i.lcd_command_write                      0x0800dece   Section        0  gd32f303e_lcd_ili9341.o(i.lcd_command_write)
    i.lcd_gram_write                         0x0800ded6   Section        0  gd32f303e_lcd_ili9341.o(i.lcd_gram_write)
    i.lcd_init                               0x0800dede   Section        0  gd32f303e_lcd_ili9341.o(i.lcd_init)
    i.lcd_register_write                     0x0800e12c   Section        0  gd32f303e_lcd_ili9341.o(i.lcd_register_write)
    i.led_init                               0x0800e13c   Section        0  lv_theme_material.o(i.led_init)
    led_init                                 0x0800e13d   Thumb Code   262  lv_theme_material.o(i.led_init)
    i.line_init                              0x0800e24c   Section        0  lv_theme_material.o(i.line_init)
    line_init                                0x0800e24d   Thumb Code     2  lv_theme_material.o(i.line_init)
    i.line_mask_flat                         0x0800e24e   Section        0  lv_draw_mask.o(i.line_mask_flat)
    line_mask_flat                           0x0800e24f   Thumb Code   482  lv_draw_mask.o(i.line_mask_flat)
    i.line_mask_steep                        0x0800e430   Section        0  lv_draw_mask.o(i.line_mask_steep)
    line_mask_steep                          0x0800e431   Thumb Code   676  lv_draw_mask.o(i.line_mask_steep)
    i.linemeter_init                         0x0800e6d4   Section        0  lv_theme_material.o(i.linemeter_init)
    linemeter_init                           0x0800e6d5   Thumb Code   554  lv_theme_material.o(i.linemeter_init)
    i.list_init                              0x0800e908   Section        0  lv_theme_material.o(i.list_init)
    list_init                                0x0800e909   Thumb Code  1898  lv_theme_material.o(i.list_init)
    i.lv_100ask_stm32_tool_clock             0x0800f078   Section        0  lv_100ask_stm32_tool_clock.o(i.lv_100ask_stm32_tool_clock)
    i.lv_100ask_stm32_tool_clock_anim        0x0800f0dc   Section        0  lv_100ask_stm32_tool_clock.o(i.lv_100ask_stm32_tool_clock_anim)
    lv_100ask_stm32_tool_clock_anim          0x0800f0dd   Thumb Code   228  lv_100ask_stm32_tool_clock.o(i.lv_100ask_stm32_tool_clock_anim)
    i.lv_100ask_stm32_tool_clock_init        0x0800f1e0   Section        0  lv_100ask_stm32_tool_clock.o(i.lv_100ask_stm32_tool_clock_init)
    lv_100ask_stm32_tool_clock_init          0x0800f1e1   Thumb Code   492  lv_100ask_stm32_tool_clock.o(i.lv_100ask_stm32_tool_clock_init)
    i.lv_anim_del                            0x0800f3f8   Section        0  lv_anim.o(i.lv_anim_del)
    i.lv_anim_get                            0x0800f44c   Section        0  lv_anim.o(i.lv_anim_get)
    i.lv_anim_init                           0x0800f484   Section        0  lv_anim.o(i.lv_anim_init)
    i.lv_anim_path_linear                    0x0800f4d4   Section        0  lv_anim.o(i.lv_anim_path_linear)
    i.lv_anim_set_delay                      0x0800f502   Section        0  lv_obj.o(i.lv_anim_set_delay)
    lv_anim_set_delay                        0x0800f503   Thumb Code     6  lv_obj.o(i.lv_anim_set_delay)
    i.lv_anim_set_exec_cb                    0x0800f508   Section        0  lv_obj.o(i.lv_anim_set_exec_cb)
    lv_anim_set_exec_cb                      0x0800f509   Thumb Code     4  lv_obj.o(i.lv_anim_set_exec_cb)
    i.lv_anim_set_exec_cb                    0x0800f50c   Section        0  lv_label.o(i.lv_anim_set_exec_cb)
    lv_anim_set_exec_cb                      0x0800f50d   Thumb Code     4  lv_label.o(i.lv_anim_set_exec_cb)
    i.lv_anim_set_playback_time              0x0800f510   Section        0  lv_label.o(i.lv_anim_set_playback_time)
    lv_anim_set_playback_time                0x0800f511   Thumb Code     4  lv_label.o(i.lv_anim_set_playback_time)
    i.lv_anim_set_ready_cb                   0x0800f514   Section        0  lv_obj.o(i.lv_anim_set_ready_cb)
    lv_anim_set_ready_cb                     0x0800f515   Thumb Code     4  lv_obj.o(i.lv_anim_set_ready_cb)
    i.lv_anim_set_repeat_count               0x0800f518   Section        0  lv_label.o(i.lv_anim_set_repeat_count)
    lv_anim_set_repeat_count                 0x0800f519   Thumb Code     4  lv_label.o(i.lv_anim_set_repeat_count)
    i.lv_anim_set_time                       0x0800f51c   Section        0  lv_obj.o(i.lv_anim_set_time)
    lv_anim_set_time                         0x0800f51d   Thumb Code     4  lv_obj.o(i.lv_anim_set_time)
    i.lv_anim_set_time                       0x0800f520   Section        0  lv_label.o(i.lv_anim_set_time)
    lv_anim_set_time                         0x0800f521   Thumb Code     4  lv_label.o(i.lv_anim_set_time)
    i.lv_anim_set_values                     0x0800f524   Section        0  lv_obj.o(i.lv_anim_set_values)
    lv_anim_set_values                       0x0800f525   Thumb Code     8  lv_obj.o(i.lv_anim_set_values)
    i.lv_anim_set_values                     0x0800f52c   Section        0  lv_label.o(i.lv_anim_set_values)
    lv_anim_set_values                       0x0800f52d   Thumb Code     8  lv_label.o(i.lv_anim_set_values)
    i.lv_anim_set_var                        0x0800f534   Section        0  lv_obj.o(i.lv_anim_set_var)
    lv_anim_set_var                          0x0800f535   Thumb Code     4  lv_obj.o(i.lv_anim_set_var)
    i.lv_anim_set_var                        0x0800f538   Section        0  lv_label.o(i.lv_anim_set_var)
    lv_anim_set_var                          0x0800f539   Thumb Code     4  lv_label.o(i.lv_anim_set_var)
    i.lv_anim_speed_to_time                  0x0800f53c   Section        0  lv_anim.o(i.lv_anim_speed_to_time)
    i.lv_anim_start                          0x0800f560   Section        0  lv_anim.o(i.lv_anim_start)
    i.lv_area_copy                           0x0800f604   Section        0  lv_obj.o(i.lv_area_copy)
    lv_area_copy                             0x0800f605   Thumb Code    18  lv_obj.o(i.lv_area_copy)
    i.lv_area_copy                           0x0800f616   Section        0  lv_refr.o(i.lv_area_copy)
    lv_area_copy                             0x0800f617   Thumb Code    34  lv_refr.o(i.lv_area_copy)
    i.lv_area_copy                           0x0800f638   Section        0  lv_draw_img.o(i.lv_area_copy)
    lv_area_copy                             0x0800f639   Thumb Code    18  lv_draw_img.o(i.lv_area_copy)
    i.lv_area_copy                           0x0800f64a   Section        0  lv_draw_mask.o(i.lv_area_copy)
    lv_area_copy                             0x0800f64b   Thumb Code    34  lv_draw_mask.o(i.lv_area_copy)
    i.lv_area_copy                           0x0800f66c   Section        0  lv_draw_rect.o(i.lv_area_copy)
    lv_area_copy                             0x0800f66d   Thumb Code    34  lv_draw_rect.o(i.lv_area_copy)
    i.lv_area_get_height                     0x0800f68e   Section        0  lv_obj.o(i.lv_area_get_height)
    lv_area_get_height                       0x0800f68f   Thumb Code    14  lv_obj.o(i.lv_area_get_height)
    i.lv_area_get_height                     0x0800f69c   Section        0  lv_refr.o(i.lv_area_get_height)
    lv_area_get_height                       0x0800f69d   Thumb Code    14  lv_refr.o(i.lv_area_get_height)
    i.lv_area_get_height                     0x0800f6aa   Section        0  lv_draw_blend.o(i.lv_area_get_height)
    lv_area_get_height                       0x0800f6ab   Thumb Code    14  lv_draw_blend.o(i.lv_area_get_height)
    i.lv_area_get_height                     0x0800f6b8   Section        0  lv_draw_img.o(i.lv_area_get_height)
    lv_area_get_height                       0x0800f6b9   Thumb Code    14  lv_draw_img.o(i.lv_area_get_height)
    i.lv_area_get_height                     0x0800f6c6   Section        0  lv_draw_mask.o(i.lv_area_get_height)
    lv_area_get_height                       0x0800f6c7   Thumb Code    14  lv_draw_mask.o(i.lv_area_get_height)
    i.lv_area_get_height                     0x0800f6d4   Section        0  lv_draw_rect.o(i.lv_area_get_height)
    lv_area_get_height                       0x0800f6d5   Thumb Code    14  lv_draw_rect.o(i.lv_area_get_height)
    i.lv_area_get_height                     0x0800f6e2   Section        0  lv_area.o(i.lv_area_get_height)
    lv_area_get_height                       0x0800f6e3   Thumb Code    14  lv_area.o(i.lv_area_get_height)
    i.lv_area_get_height                     0x0800f6f0   Section        0  lv_label.o(i.lv_area_get_height)
    lv_area_get_height                       0x0800f6f1   Thumb Code    14  lv_label.o(i.lv_area_get_height)
    i.lv_area_get_size                       0x0800f6fe   Section        0  lv_area.o(i.lv_area_get_size)
    i.lv_area_get_width                      0x0800f720   Section        0  lv_obj.o(i.lv_area_get_width)
    lv_area_get_width                        0x0800f721   Thumb Code    14  lv_obj.o(i.lv_area_get_width)
    i.lv_area_get_width                      0x0800f72e   Section        0  lv_refr.o(i.lv_area_get_width)
    lv_area_get_width                        0x0800f72f   Thumb Code    14  lv_refr.o(i.lv_area_get_width)
    i.lv_area_get_width                      0x0800f73c   Section        0  lv_draw_blend.o(i.lv_area_get_width)
    lv_area_get_width                        0x0800f73d   Thumb Code    14  lv_draw_blend.o(i.lv_area_get_width)
    i.lv_area_get_width                      0x0800f74a   Section        0  lv_draw_img.o(i.lv_area_get_width)
    lv_area_get_width                        0x0800f74b   Thumb Code    14  lv_draw_img.o(i.lv_area_get_width)
    i.lv_area_get_width                      0x0800f758   Section        0  lv_draw_label.o(i.lv_area_get_width)
    lv_area_get_width                        0x0800f759   Thumb Code    14  lv_draw_label.o(i.lv_area_get_width)
    i.lv_area_get_width                      0x0800f766   Section        0  lv_draw_line.o(i.lv_area_get_width)
    lv_area_get_width                        0x0800f767   Thumb Code    14  lv_draw_line.o(i.lv_area_get_width)
    i.lv_area_get_width                      0x0800f774   Section        0  lv_draw_mask.o(i.lv_area_get_width)
    lv_area_get_width                        0x0800f775   Thumb Code    14  lv_draw_mask.o(i.lv_area_get_width)
    i.lv_area_get_width                      0x0800f782   Section        0  lv_draw_rect.o(i.lv_area_get_width)
    lv_area_get_width                        0x0800f783   Thumb Code    14  lv_draw_rect.o(i.lv_area_get_width)
    i.lv_area_get_width                      0x0800f790   Section        0  lv_area.o(i.lv_area_get_width)
    lv_area_get_width                        0x0800f791   Thumb Code    14  lv_area.o(i.lv_area_get_width)
    i.lv_area_get_width                      0x0800f79e   Section        0  lv_label.o(i.lv_area_get_width)
    lv_area_get_width                        0x0800f79f   Thumb Code    14  lv_label.o(i.lv_area_get_width)
    i.lv_area_set                            0x0800f7ac   Section        0  lv_area.o(i.lv_area_set)
    i.lv_area_set_height                     0x0800f7ba   Section        0  lv_area.o(i.lv_area_set_height)
    i.lv_color_darken                        0x0800f7c6   Section        0  lv_color.o(i.lv_color_darken)
    i.lv_color_fill                          0x0800f7e6   Section        0  lv_color.o(i.lv_color_fill)
    i.lv_color_hex                           0x0800f842   Section        0  lv_obj.o(i.lv_color_hex)
    lv_color_hex                             0x0800f843   Thumb Code    66  lv_obj.o(i.lv_color_hex)
    i.lv_color_hex                           0x0800f884   Section        0  lv_theme_material.o(i.lv_color_hex)
    lv_color_hex                             0x0800f885   Thumb Code    28  lv_theme_material.o(i.lv_color_hex)
    i.lv_color_hex3                          0x0800f8a0   Section        0  lv_theme_material.o(i.lv_color_hex3)
    lv_color_hex3                            0x0800f8a1   Thumb Code    56  lv_theme_material.o(i.lv_color_hex3)
    i.lv_color_lighten                       0x0800f8d8   Section        0  lv_color.o(i.lv_color_lighten)
    i.lv_color_make                          0x0800f900   Section        0  lv_img_decoder.o(i.lv_color_make)
    lv_color_make                            0x0800f901   Thumb Code    48  lv_img_decoder.o(i.lv_color_make)
    i.lv_color_make                          0x0800f930   Section        0  lv_theme_material.o(i.lv_color_make)
    lv_color_make                            0x0800f931   Thumb Code    48  lv_theme_material.o(i.lv_color_make)
    i.lv_color_mix                           0x0800f960   Section        0  lv_port_disp.o(i.lv_color_mix)
    lv_color_mix                             0x0800f961   Thumb Code   158  lv_port_disp.o(i.lv_color_mix)
    i.lv_color_mix                           0x0800f9fe   Section        0  lv_obj.o(i.lv_color_mix)
    lv_color_mix                             0x0800f9ff   Thumb Code   158  lv_obj.o(i.lv_color_mix)
    i.lv_color_mix                           0x0800fa9c   Section        0  lv_draw_blend.o(i.lv_color_mix)
    lv_color_mix                             0x0800fa9d   Thumb Code   158  lv_draw_blend.o(i.lv_color_mix)
    i.lv_color_mix                           0x0800fb3a   Section        0  lv_draw_rect.o(i.lv_color_mix)
    lv_color_mix                             0x0800fb3b   Thumb Code   158  lv_draw_rect.o(i.lv_color_mix)
    i.lv_color_mix                           0x0800fbd8   Section        0  lv_img_buf.o(i.lv_color_mix)
    lv_color_mix                             0x0800fbd9   Thumb Code   158  lv_img_buf.o(i.lv_color_mix)
    i.lv_color_mix                           0x0800fc76   Section        0  lv_color.o(i.lv_color_mix)
    lv_color_mix                             0x0800fc77   Thumb Code   158  lv_color.o(i.lv_color_mix)
    i.lv_color_mix                           0x0800fd14   Section        0  lv_theme_material.o(i.lv_color_mix)
    lv_color_mix                             0x0800fd15   Thumb Code   158  lv_theme_material.o(i.lv_color_mix)
    i.lv_color_mix                           0x0800fdb2   Section        0  lv_linemeter.o(i.lv_color_mix)
    lv_color_mix                             0x0800fdb3   Thumb Code   158  lv_linemeter.o(i.lv_color_mix)
    i.lv_color_mix_premult                   0x0800fe50   Section        0  lv_draw_blend.o(i.lv_color_mix_premult)
    lv_color_mix_premult                     0x0800fe51   Thumb Code   126  lv_draw_blend.o(i.lv_color_mix_premult)
    i.lv_color_mix_premult                   0x0800fece   Section        0  lv_draw_img.o(i.lv_color_mix_premult)
    lv_color_mix_premult                     0x0800fecf   Thumb Code   126  lv_draw_img.o(i.lv_color_mix_premult)
    i.lv_debug_check_null                    0x0800ff4c   Section        0  lv_debug.o(i.lv_debug_check_null)
    i.lv_debug_log_error                     0x0800ff58   Section        0  lv_debug.o(i.lv_debug_log_error)
    i.lv_disp_buf_init                       0x0800ffd4   Section        0  lv_hal_disp.o(i.lv_disp_buf_init)
    i.lv_disp_drv_init                       0x0800fff8   Section        0  lv_hal_disp.o(i.lv_disp_drv_init)
    i.lv_disp_drv_register                   0x08010054   Section        0  lv_hal_disp.o(i.lv_disp_drv_register)
    i.lv_disp_flush_ready                    0x0801018c   Section        0  lv_hal_disp.o(i.lv_disp_flush_ready)
    i.lv_disp_get_buf                        0x08010198   Section        0  lv_hal_disp.o(i.lv_disp_get_buf)
    i.lv_disp_get_default                    0x080101a0   Section        0  lv_hal_disp.o(i.lv_disp_get_default)
    i.lv_disp_get_dpi                        0x080101ac   Section        0  lv_hal_disp.o(i.lv_disp_get_dpi)
    i.lv_disp_get_hor_res                    0x080101c6   Section        0  lv_hal_disp.o(i.lv_disp_get_hor_res)
    i.lv_disp_get_inv_buf_size               0x080101f6   Section        0  lv_hal_disp.o(i.lv_disp_get_inv_buf_size)
    i.lv_disp_get_layer_sys                  0x08010202   Section        0  lv_disp.o(i.lv_disp_get_layer_sys)
    i.lv_disp_get_layer_top                  0x08010218   Section        0  lv_disp.o(i.lv_disp_get_layer_top)
    i.lv_disp_get_next                       0x08010230   Section        0  lv_hal_disp.o(i.lv_disp_get_next)
    i.lv_disp_get_scr_act                    0x0801024c   Section        0  lv_disp.o(i.lv_disp_get_scr_act)
    i.lv_disp_get_scr_prev                   0x08010262   Section        0  lv_disp.o(i.lv_disp_get_scr_prev)
    i.lv_disp_get_size_category              0x08010278   Section        0  lv_hal_disp.o(i.lv_disp_get_size_category)
    i.lv_disp_get_ver_res                    0x080102c0   Section        0  lv_hal_disp.o(i.lv_disp_get_ver_res)
    i.lv_disp_is_double_buf                  0x080102f2   Section        0  lv_hal_disp.o(i.lv_disp_is_double_buf)
    i.lv_disp_is_true_double_buf             0x08010308   Section        0  lv_hal_disp.o(i.lv_disp_is_true_double_buf)
    i.lv_draw_arc                            0x0801032c   Section        0  lv_draw_arc.o(i.lv_draw_arc)
    i.lv_draw_img                            0x08010564   Section        0  lv_draw_img.o(i.lv_draw_img)
    i.lv_draw_img_dsc_init                   0x080105b0   Section        0  lv_draw_img.o(i.lv_draw_img_dsc_init)
    i.lv_draw_label                          0x080105d4   Section        0  lv_draw_label.o(i.lv_draw_label)
    i.lv_draw_label_dsc_init                 0x08010c0c   Section        0  lv_draw_label.o(i.lv_draw_label_dsc_init)
    i.lv_draw_letter                         0x08010c58   Section        0  lv_draw_label.o(i.lv_draw_letter)
    lv_draw_letter                           0x08010c59   Thumb Code   254  lv_draw_label.o(i.lv_draw_letter)
    i.lv_draw_line                           0x08010d56   Section        0  lv_draw_line.o(i.lv_draw_line)
    i.lv_draw_line_dsc_init                  0x08010f4a   Section        0  lv_draw_line.o(i.lv_draw_line_dsc_init)
    i.lv_draw_map                            0x08010f6c   Section        0  lv_draw_img.o(i.lv_draw_map)
    lv_draw_map                              0x08010f6d   Thumb Code  1442  lv_draw_img.o(i.lv_draw_map)
    i.lv_draw_mask_add                       0x08011510   Section        0  lv_draw_mask.o(i.lv_draw_mask_add)
    i.lv_draw_mask_angle                     0x0801154c   Section        0  lv_draw_mask.o(i.lv_draw_mask_angle)
    lv_draw_mask_angle                       0x0801154d   Thumb Code  1070  lv_draw_mask.o(i.lv_draw_mask_angle)
    i.lv_draw_mask_angle_init                0x0801197c   Section        0  lv_draw_mask.o(i.lv_draw_mask_angle_init)
    i.lv_draw_mask_apply                     0x08011a94   Section        0  lv_draw_mask.o(i.lv_draw_mask_apply)
    i.lv_draw_mask_get_cnt                   0x08011aec   Section        0  lv_draw_mask.o(i.lv_draw_mask_get_cnt)
    i.lv_draw_mask_line                      0x08011b0c   Section        0  lv_draw_mask.o(i.lv_draw_mask_line)
    lv_draw_mask_line                        0x08011b0d   Thumb Code   300  lv_draw_mask.o(i.lv_draw_mask_line)
    i.lv_draw_mask_line_angle_init           0x08011c38   Section        0  lv_draw_mask.o(i.lv_draw_mask_line_angle_init)
    i.lv_draw_mask_line_points_init          0x08011c84   Section        0  lv_draw_mask.o(i.lv_draw_mask_line_points_init)
    i.lv_draw_mask_radius                    0x08011e1c   Section        0  lv_draw_mask.o(i.lv_draw_mask_radius)
    lv_draw_mask_radius                      0x08011e1d   Thumb Code  1394  lv_draw_mask.o(i.lv_draw_mask_radius)
    i.lv_draw_mask_radius_init               0x08012390   Section        0  lv_draw_mask.o(i.lv_draw_mask_radius_init)
    i.lv_draw_mask_remove_custom             0x080123f0   Section        0  lv_draw_mask.o(i.lv_draw_mask_remove_custom)
    i.lv_draw_mask_remove_id                 0x08012428   Section        0  lv_draw_mask.o(i.lv_draw_mask_remove_id)
    i.lv_draw_rect                           0x0801244c   Section        0  lv_draw_rect.o(i.lv_draw_rect)
    i.lv_draw_rect_dsc_init                  0x080124ac   Section        0  lv_draw_rect.o(i.lv_draw_rect_dsc_init)
    i.lv_event_mark_deleted                  0x0801252c   Section        0  lv_obj.o(i.lv_event_mark_deleted)
    lv_event_mark_deleted                    0x0801252d   Thumb Code    26  lv_obj.o(i.lv_event_mark_deleted)
    i.lv_event_send                          0x0801254c   Section        0  lv_obj.o(i.lv_event_send)
    i.lv_event_send_func                     0x0801259c   Section        0  lv_obj.o(i.lv_event_send_func)
    i.lv_font_get_bitmap_fmt_txt             0x08012664   Section        0  lv_font_fmt_txt.o(i.lv_font_get_bitmap_fmt_txt)
    i.lv_font_get_glyph_bitmap               0x08012780   Section        0  lv_font.o(i.lv_font_get_glyph_bitmap)
    i.lv_font_get_glyph_dsc                  0x08012790   Section        0  lv_font.o(i.lv_font_get_glyph_dsc)
    i.lv_font_get_glyph_dsc_fmt_txt          0x080127ae   Section        0  lv_font_fmt_txt.o(i.lv_font_get_glyph_dsc_fmt_txt)
    i.lv_font_get_glyph_width                0x08012868   Section        0  lv_font.o(i.lv_font_get_glyph_width)
    i.lv_font_get_line_height                0x0801288a   Section        0  lv_label.o(i.lv_font_get_line_height)
    lv_font_get_line_height                  0x0801288b   Thumb Code     8  lv_label.o(i.lv_font_get_line_height)
    i.lv_fs_close                            0x08012892   Section        0  lv_fs.o(i.lv_fs_close)
    i.lv_fs_get_drv                          0x080128c4   Section        0  lv_fs.o(i.lv_fs_get_drv)
    i.lv_fs_get_ext                          0x080128f4   Section        0  lv_fs.o(i.lv_fs_get_ext)
    i.lv_fs_get_real_path                    0x0801292c   Section        0  lv_fs.o(i.lv_fs_get_real_path)
    lv_fs_get_real_path                      0x0801292d   Thumb Code    38  lv_fs.o(i.lv_fs_get_real_path)
    i.lv_fs_open                             0x08012954   Section        0  lv_fs.o(i.lv_fs_open)
    i.lv_fs_read                             0x08012a28   Section        0  lv_fs.o(i.lv_fs_read)
    i.lv_fs_seek                             0x08012a70   Section        0  lv_fs.o(i.lv_fs_seek)
    i.lv_gauge_create                        0x08012a98   Section        0  lv_gauge.o(i.lv_gauge_create)
    i.lv_gauge_design                        0x08012c10   Section        0  lv_gauge.o(i.lv_gauge_design)
    lv_gauge_design                          0x08012c11   Thumb Code   104  lv_gauge.o(i.lv_gauge_design)
    i.lv_gauge_draw_labels                   0x08012c7c   Section        0  lv_gauge.o(i.lv_gauge_draw_labels)
    lv_gauge_draw_labels                     0x08012c7d   Thumb Code   476  lv_gauge.o(i.lv_gauge_draw_labels)
    i.lv_gauge_draw_needle                   0x08012e58   Section        0  lv_gauge.o(i.lv_gauge_draw_needle)
    lv_gauge_draw_needle                     0x08012e59   Thumb Code   592  lv_gauge.o(i.lv_gauge_draw_needle)
    i.lv_gauge_get_angle_offset              0x080130a8   Section        0  lv_gauge.o(i.lv_gauge_get_angle_offset)
    lv_gauge_get_angle_offset                0x080130a9   Thumb Code    12  lv_gauge.o(i.lv_gauge_get_angle_offset)
    i.lv_gauge_get_max_value                 0x080130b4   Section        0  lv_gauge.o(i.lv_gauge_get_max_value)
    lv_gauge_get_max_value                   0x080130b5   Thumb Code    12  lv_gauge.o(i.lv_gauge_get_max_value)
    i.lv_gauge_get_min_value                 0x080130c0   Section        0  lv_gauge.o(i.lv_gauge_get_min_value)
    lv_gauge_get_min_value                   0x080130c1   Thumb Code    12  lv_gauge.o(i.lv_gauge_get_min_value)
    i.lv_gauge_get_style                     0x080130cc   Section        0  lv_gauge.o(i.lv_gauge_get_style)
    lv_gauge_get_style                       0x080130cd   Thumb Code    84  lv_gauge.o(i.lv_gauge_get_style)
    i.lv_gauge_set_needle_count              0x08013130   Section        0  lv_gauge.o(i.lv_gauge_set_needle_count)
    i.lv_gauge_set_needle_img                0x080131f4   Section        0  lv_gauge.o(i.lv_gauge_set_needle_img)
    i.lv_gauge_set_scale                     0x08013244   Section        0  lv_gauge.o(i.lv_gauge_set_scale)
    i.lv_gauge_set_value                     0x0801329c   Section        0  lv_gauge.o(i.lv_gauge_set_value)
    i.lv_gauge_signal                        0x08013540   Section        0  lv_gauge.o(i.lv_gauge_signal)
    lv_gauge_signal                          0x08013541   Thumb Code   132  lv_gauge.o(i.lv_gauge_signal)
    i.lv_group_add_obj                       0x080135d4   Section        0  lv_group.o(i.lv_group_add_obj)
    i.lv_group_focus_next                    0x08013664   Section        0  lv_group.o(i.lv_group_focus_next)
    i.lv_group_focus_obj                     0x0801367c   Section        0  lv_group.o(i.lv_group_focus_obj)
    i.lv_group_focus_prev                    0x08013744   Section        0  lv_group.o(i.lv_group_focus_prev)
    i.lv_group_get_editing                   0x0801375c   Section        0  lv_group.o(i.lv_group_get_editing)
    i.lv_group_get_focused                   0x0801376c   Section        0  lv_group.o(i.lv_group_get_focused)
    i.lv_group_refocus                       0x08013782   Section        0  lv_group.o(i.lv_group_refocus)
    lv_group_refocus                         0x08013783   Thumb Code    60  lv_group.o(i.lv_group_refocus)
    i.lv_group_remove_obj                    0x080137be   Section        0  lv_group.o(i.lv_group_remove_obj)
    i.lv_group_send_data                     0x08013850   Section        0  lv_group.o(i.lv_group_send_data)
    i.lv_group_set_editing                   0x0801388e   Section        0  lv_group.o(i.lv_group_set_editing)
    i.lv_img_buf_get_px_alpha                0x080138ec   Section        0  lv_img_buf.o(i.lv_img_buf_get_px_alpha)
    i.lv_img_buf_get_px_color                0x08013a2c   Section        0  lv_img_buf.o(i.lv_img_buf_get_px_color)
    i.lv_img_cache_invalidate_src            0x08013b8c   Section        0  lv_img_cache.o(i.lv_img_cache_invalidate_src)
    i.lv_img_cache_set_size                  0x08013bf4   Section        0  lv_img_cache.o(i.lv_img_cache_set_size)
    i.lv_img_cf_get_px_size                  0x08013c9c   Section        0  lv_draw_img.o(i.lv_img_cf_get_px_size)
    i.lv_img_cf_has_alpha                    0x08013ce8   Section        0  lv_draw_img.o(i.lv_img_cf_has_alpha)
    i.lv_img_cf_is_chroma_keyed              0x08013d22   Section        0  lv_draw_img.o(i.lv_img_cf_is_chroma_keyed)
    i.lv_img_decoder_built_in_close          0x08013d4e   Section        0  lv_img_decoder.o(i.lv_img_decoder_built_in_close)
    i.lv_img_decoder_built_in_info           0x08013d88   Section        0  lv_img_decoder.o(i.lv_img_decoder_built_in_info)
    i.lv_img_decoder_built_in_line_alpha     0x08013e50   Section        0  lv_img_decoder.o(i.lv_img_decoder_built_in_line_alpha)
    lv_img_decoder_built_in_line_alpha       0x08013e51   Thumb Code   458  lv_img_decoder.o(i.lv_img_decoder_built_in_line_alpha)
    i.lv_img_decoder_built_in_line_indexed   0x08014034   Section        0  lv_img_decoder.o(i.lv_img_decoder_built_in_line_indexed)
    lv_img_decoder_built_in_line_indexed     0x08014035   Thumb Code   422  lv_img_decoder.o(i.lv_img_decoder_built_in_line_indexed)
    i.lv_img_decoder_built_in_line_true_color 0x080141da   Section        0  lv_img_decoder.o(i.lv_img_decoder_built_in_line_true_color)
    lv_img_decoder_built_in_line_true_color  0x080141db   Thumb Code   124  lv_img_decoder.o(i.lv_img_decoder_built_in_line_true_color)
    i.lv_img_decoder_built_in_open           0x08014258   Section        0  lv_img_decoder.o(i.lv_img_decoder_built_in_open)
    i.lv_img_decoder_built_in_read_line      0x080144e0   Section        0  lv_img_decoder.o(i.lv_img_decoder_built_in_read_line)
    i.lv_img_decoder_close                   0x080145a8   Section        0  lv_img_decoder.o(i.lv_img_decoder_close)
    i.lv_img_decoder_create                  0x080145d0   Section        0  lv_img_decoder.o(i.lv_img_decoder_create)
    i.lv_img_decoder_get_info                0x0801461c   Section        0  lv_img_decoder.o(i.lv_img_decoder_get_info)
    i.lv_img_decoder_open                    0x08014684   Section        0  lv_img_decoder.o(i.lv_img_decoder_open)
    i.lv_img_decoder_read_line               0x08014720   Section        0  lv_img_decoder.o(i.lv_img_decoder_read_line)
    i.lv_img_decoder_set_close_cb            0x08014754   Section        0  lv_img_decoder.o(i.lv_img_decoder_set_close_cb)
    i.lv_img_decoder_set_info_cb             0x08014758   Section        0  lv_img_decoder.o(i.lv_img_decoder_set_info_cb)
    i.lv_img_decoder_set_open_cb             0x0801475c   Section        0  lv_img_decoder.o(i.lv_img_decoder_set_open_cb)
    i.lv_img_decoder_set_read_line_cb        0x08014760   Section        0  lv_img_decoder.o(i.lv_img_decoder_set_read_line_cb)
    i.lv_img_draw_core                       0x08014764   Section        0  lv_draw_img.o(i.lv_img_draw_core)
    lv_img_draw_core                         0x08014765   Thumb Code   496  lv_draw_img.o(i.lv_img_draw_core)
    i.lv_img_src_get_type                    0x08014954   Section        0  lv_draw_img.o(i.lv_img_src_get_type)
    i.lv_indev_drv_init                      0x0801497e   Section        0  lv_hal_indev.o(i.lv_indev_drv_init)
    i.lv_indev_drv_register                  0x080149a8   Section        0  lv_hal_indev.o(i.lv_indev_drv_register)
    i.lv_indev_get_act                       0x08014a38   Section        0  lv_indev.o(i.lv_indev_get_act)
    i.lv_indev_get_next                      0x08014a44   Section        0  lv_hal_indev.o(i.lv_indev_get_next)
    i.lv_indev_get_obj_act                   0x08014a60   Section        0  lv_indev.o(i.lv_indev_get_obj_act)
    i.lv_indev_reset                         0x08014a6c   Section        0  lv_indev.o(i.lv_indev_reset)
    i.lv_indev_search_obj                    0x08014b18   Section        0  lv_indev.o(i.lv_indev_search_obj)
    i.lv_init                                0x08014ba8   Section        0  lv_obj.o(i.lv_init)
    i.lv_label_create                        0x08014c54   Section        0  lv_label.o(i.lv_label_create)
    i.lv_label_design                        0x08014e5c   Section        0  lv_label.o(i.lv_label_design)
    lv_label_design                          0x08014e5d   Thumb Code   634  lv_label.o(i.lv_label_design)
    i.lv_label_dot_tmp_free                  0x080150d6   Section        0  lv_label.o(i.lv_label_dot_tmp_free)
    lv_label_dot_tmp_free                    0x080150d7   Thumb Code    38  lv_label.o(i.lv_label_dot_tmp_free)
    i.lv_label_get_align                     0x080150fc   Section        0  lv_label.o(i.lv_label_get_align)
    i.lv_label_get_dot_tmp                   0x08015144   Section        0  lv_label.o(i.lv_label_get_dot_tmp)
    lv_label_get_dot_tmp                     0x08015145   Thumb Code    28  lv_label.o(i.lv_label_get_dot_tmp)
    i.lv_label_get_letter_on                 0x08015160   Section        0  lv_label.o(i.lv_label_get_letter_on)
    i.lv_label_get_long_mode                 0x080153e4   Section        0  lv_label.o(i.lv_label_get_long_mode)
    i.lv_label_get_recolor                   0x08015424   Section        0  lv_label.o(i.lv_label_get_recolor)
    i.lv_label_get_style                     0x08015464   Section        0  lv_label.o(i.lv_label_get_style)
    i.lv_label_get_text                      0x08015478   Section        0  lv_label.o(i.lv_label_get_text)
    i.lv_label_get_text_sel_end              0x080154b4   Section        0  lv_label.o(i.lv_label_get_text_sel_end)
    i.lv_label_get_text_sel_start            0x080154e8   Section        0  lv_label.o(i.lv_label_get_text_sel_start)
    i.lv_label_refr_text                     0x0801551c   Section        0  lv_label.o(i.lv_label_refr_text)
    i.lv_label_revert_dots                   0x08015ad4   Section        0  lv_label.o(i.lv_label_revert_dots)
    lv_label_revert_dots                     0x08015ad5   Thumb Code   116  lv_label.o(i.lv_label_revert_dots)
    i.lv_label_set_align                     0x08015b4c   Section        0  lv_label.o(i.lv_label_set_align)
    i.lv_label_set_dot_tmp                   0x08015ba4   Section        0  lv_label.o(i.lv_label_set_dot_tmp)
    lv_label_set_dot_tmp                     0x08015ba5   Thumb Code    86  lv_label.o(i.lv_label_set_dot_tmp)
    i.lv_label_set_long_mode                 0x08015bfc   Section        0  lv_label.o(i.lv_label_set_long_mode)
    i.lv_label_set_offset_x                  0x08015cb8   Section        0  lv_label.o(i.lv_label_set_offset_x)
    lv_label_set_offset_x                    0x08015cb9   Thumb Code    24  lv_label.o(i.lv_label_set_offset_x)
    i.lv_label_set_offset_y                  0x08015cd0   Section        0  lv_label.o(i.lv_label_set_offset_y)
    lv_label_set_offset_y                    0x08015cd1   Thumb Code    24  lv_label.o(i.lv_label_set_offset_y)
    i.lv_label_set_recolor                   0x08015ce8   Section        0  lv_label.o(i.lv_label_set_recolor)
    i.lv_label_set_text                      0x08015d40   Section        0  lv_label.o(i.lv_label_set_text)
    i.lv_label_set_text_fmt                  0x08015e58   Section        0  lv_label.o(i.lv_label_set_text_fmt)
    i.lv_label_set_text_static               0x08015efc   Section        0  lv_label.o(i.lv_label_set_text_static)
    i.lv_label_signal                        0x08015f60   Section        0  lv_label.o(i.lv_label_signal)
    lv_label_signal                          0x08015f61   Thumb Code   250  lv_label.o(i.lv_label_signal)
    i.lv_linemeter_create                    0x0801606c   Section        0  lv_linemeter.o(i.lv_linemeter_create)
    i.lv_linemeter_design                    0x08016168   Section        0  lv_linemeter.o(i.lv_linemeter_design)
    lv_linemeter_design                      0x08016169   Thumb Code    68  lv_linemeter.o(i.lv_linemeter_design)
    i.lv_linemeter_draw_scale                0x080161ac   Section        0  lv_linemeter.o(i.lv_linemeter_draw_scale)
    i.lv_linemeter_get_angle_offset          0x0801666e   Section        0  lv_linemeter.o(i.lv_linemeter_get_angle_offset)
    i.lv_linemeter_get_max_value             0x08016680   Section        0  lv_linemeter.o(i.lv_linemeter_get_max_value)
    i.lv_linemeter_get_min_value             0x080166bc   Section        0  lv_linemeter.o(i.lv_linemeter_get_min_value)
    i.lv_linemeter_get_scale_angle           0x080166f8   Section        0  lv_linemeter.o(i.lv_linemeter_get_scale_angle)
    i.lv_linemeter_set_angle_offset          0x08016734   Section        0  lv_linemeter.o(i.lv_linemeter_set_angle_offset)
    i.lv_linemeter_set_range                 0x08016758   Section        0  lv_linemeter.o(i.lv_linemeter_set_range)
    i.lv_linemeter_set_scale                 0x080167d4   Section        0  lv_linemeter.o(i.lv_linemeter_set_scale)
    i.lv_linemeter_set_value                 0x08016830   Section        0  lv_linemeter.o(i.lv_linemeter_set_value)
    i.lv_linemeter_signal                    0x080168d8   Section        0  lv_linemeter.o(i.lv_linemeter_signal)
    lv_linemeter_signal                      0x080168d9   Thumb Code    70  lv_linemeter.o(i.lv_linemeter_signal)
    i.lv_mem_alloc                           0x08016934   Section        0  lv_mem.o(i.lv_mem_alloc)
    i.lv_mem_defrag                          0x0801699c   Section        0  lv_mem.o(i.lv_mem_defrag)
    i.lv_mem_free                            0x08016a0c   Section        0  lv_mem.o(i.lv_mem_free)
    i.lv_mem_realloc                         0x08016a8c   Section        0  lv_mem.o(i.lv_mem_realloc)
    i.lv_obj_add_state                       0x08016b04   Section        0  lv_obj.o(i.lv_obj_add_state)
    i.lv_obj_align                           0x08016b50   Section        0  lv_obj.o(i.lv_obj_align)
    i.lv_obj_align_mid                       0x08016be0   Section        0  lv_obj.o(i.lv_obj_align_mid)
    i.lv_obj_allocate_ext_attr               0x08016c70   Section        0  lv_obj.o(i.lv_obj_allocate_ext_attr)
    i.lv_obj_area_is_visible                 0x08016cb8   Section        0  lv_obj.o(i.lv_obj_area_is_visible)
    i.lv_obj_clean_style_list                0x08016d9a   Section        0  lv_obj.o(i.lv_obj_clean_style_list)
    i.lv_obj_clear_state                     0x08016dc4   Section        0  lv_obj.o(i.lv_obj_clear_state)
    i.lv_obj_create                          0x08016e10   Section        0  lv_obj.o(i.lv_obj_create)
    i.lv_obj_del                             0x08017210   Section        0  lv_obj.o(i.lv_obj_del)
    i.lv_obj_design                          0x08017288   Section        0  lv_obj.o(i.lv_obj_design)
    lv_obj_design                            0x08017289   Thumb Code   640  lv_obj.o(i.lv_obj_design)
    i.lv_obj_get_base_dir                    0x08017508   Section        0  lv_obj.o(i.lv_obj_get_base_dir)
    i.lv_obj_get_child                       0x0801753c   Section        0  lv_obj.o(i.lv_obj_get_child)
    i.lv_obj_get_click                       0x08017588   Section        0  lv_obj.o(i.lv_obj_get_click)
    i.lv_obj_get_coords                      0x080175c0   Section        0  lv_obj.o(i.lv_obj_get_coords)
    i.lv_obj_get_design_cb                   0x080175fc   Section        0  lv_obj.o(i.lv_obj_get_design_cb)
    i.lv_obj_get_disp                        0x08017630   Section        0  lv_obj.o(i.lv_obj_get_disp)
    i.lv_obj_get_drag                        0x080176b8   Section        0  lv_obj.o(i.lv_obj_get_drag)
    i.lv_obj_get_drag_dir                    0x080176f0   Section        0  lv_obj.o(i.lv_obj_get_drag_dir)
    i.lv_obj_get_drag_parent                 0x08017728   Section        0  lv_obj.o(i.lv_obj_get_drag_parent)
    i.lv_obj_get_drag_throw                  0x08017734   Section        0  lv_obj.o(i.lv_obj_get_drag_throw)
    i.lv_obj_get_draw_rect_ext_pad_size      0x0801776c   Section        0  lv_obj.o(i.lv_obj_get_draw_rect_ext_pad_size)
    i.lv_obj_get_ext_attr                    0x080179f8   Section        0  lv_obj.o(i.lv_obj_get_ext_attr)
    i.lv_obj_get_focus_parent                0x08017a2c   Section        0  lv_obj.o(i.lv_obj_get_focus_parent)
    i.lv_obj_get_focused_obj                 0x08017a38   Section        0  lv_obj.o(i.lv_obj_get_focused_obj)
    i.lv_obj_get_gesture_parent              0x08017a5e   Section        0  lv_obj.o(i.lv_obj_get_gesture_parent)
    i.lv_obj_get_group                       0x08017a6c   Section        0  lv_obj.o(i.lv_obj_get_group)
    i.lv_obj_get_height                      0x08017aa0   Section        0  lv_obj.o(i.lv_obj_get_height)
    i.lv_obj_get_hidden                      0x08017ad8   Section        0  lv_obj.o(i.lv_obj_get_hidden)
    i.lv_obj_get_parent                      0x08017b10   Section        0  lv_obj.o(i.lv_obj_get_parent)
    i.lv_obj_get_screen                      0x08017b44   Section        0  lv_obj.o(i.lv_obj_get_screen)
    i.lv_obj_get_signal_cb                   0x08017b88   Section        0  lv_obj.o(i.lv_obj_get_signal_cb)
    i.lv_obj_get_state                       0x08017bbc   Section        0  lv_obj.o(i.lv_obj_get_state)
    i.lv_obj_get_style_bg_blend_mode         0x08017c10   Section        0  lv_obj.o(i.lv_obj_get_style_bg_blend_mode)
    lv_obj_get_style_bg_blend_mode           0x08017c11   Thumb Code    20  lv_obj.o(i.lv_obj_get_style_bg_blend_mode)
    i.lv_obj_get_style_bg_opa                0x08017c24   Section        0  lv_obj.o(i.lv_obj_get_style_bg_opa)
    lv_obj_get_style_bg_opa                  0x08017c25   Thumb Code    18  lv_obj.o(i.lv_obj_get_style_bg_opa)
    i.lv_obj_get_style_border_blend_mode     0x08017c36   Section        0  lv_obj.o(i.lv_obj_get_style_border_blend_mode)
    lv_obj_get_style_border_blend_mode       0x08017c37   Thumb Code    20  lv_obj.o(i.lv_obj_get_style_border_blend_mode)
    i.lv_obj_get_style_border_post           0x08017c4a   Section        0  lv_obj.o(i.lv_obj_get_style_border_post)
    lv_obj_get_style_border_post             0x08017c4b   Thumb Code    26  lv_obj.o(i.lv_obj_get_style_border_post)
    i.lv_obj_get_style_border_side           0x08017c64   Section        0  lv_obj.o(i.lv_obj_get_style_border_side)
    lv_obj_get_style_border_side             0x08017c65   Thumb Code    20  lv_obj.o(i.lv_obj_get_style_border_side)
    i.lv_obj_get_style_border_width          0x08017c78   Section        0  lv_obj.o(i.lv_obj_get_style_border_width)
    lv_obj_get_style_border_width            0x08017c79   Thumb Code    18  lv_obj.o(i.lv_obj_get_style_border_width)
    i.lv_obj_get_style_clip_corner           0x08017c8a   Section        0  lv_obj.o(i.lv_obj_get_style_clip_corner)
    lv_obj_get_style_clip_corner             0x08017c8b   Thumb Code    26  lv_obj.o(i.lv_obj_get_style_clip_corner)
    i.lv_obj_get_style_image_blend_mode      0x08017ca4   Section        0  lv_obj.o(i.lv_obj_get_style_image_blend_mode)
    lv_obj_get_style_image_blend_mode        0x08017ca5   Thumb Code    22  lv_obj.o(i.lv_obj_get_style_image_blend_mode)
    i.lv_obj_get_style_image_recolor_opa     0x08017cba   Section        0  lv_obj.o(i.lv_obj_get_style_image_recolor_opa)
    lv_obj_get_style_image_recolor_opa       0x08017cbb   Thumb Code    20  lv_obj.o(i.lv_obj_get_style_image_recolor_opa)
    i.lv_obj_get_style_line_blend_mode       0x08017cce   Section        0  lv_obj.o(i.lv_obj_get_style_line_blend_mode)
    lv_obj_get_style_line_blend_mode         0x08017ccf   Thumb Code    20  lv_obj.o(i.lv_obj_get_style_line_blend_mode)
    i.lv_obj_get_style_list                  0x08017ce2   Section        0  lv_obj.o(i.lv_obj_get_style_list)
    i.lv_obj_get_style_margin_bottom         0x08017d10   Section        0  lv_obj.o(i.lv_obj_get_style_margin_bottom)
    lv_obj_get_style_margin_bottom           0x08017d11   Thumb Code    18  lv_obj.o(i.lv_obj_get_style_margin_bottom)
    i.lv_obj_get_style_margin_left           0x08017d22   Section        0  lv_obj.o(i.lv_obj_get_style_margin_left)
    lv_obj_get_style_margin_left             0x08017d23   Thumb Code    18  lv_obj.o(i.lv_obj_get_style_margin_left)
    i.lv_obj_get_style_margin_right          0x08017d34   Section        0  lv_obj.o(i.lv_obj_get_style_margin_right)
    lv_obj_get_style_margin_right            0x08017d35   Thumb Code    18  lv_obj.o(i.lv_obj_get_style_margin_right)
    i.lv_obj_get_style_margin_top            0x08017d46   Section        0  lv_obj.o(i.lv_obj_get_style_margin_top)
    lv_obj_get_style_margin_top              0x08017d47   Thumb Code    18  lv_obj.o(i.lv_obj_get_style_margin_top)
    i.lv_obj_get_style_opa_scale             0x08017d58   Section        0  lv_obj.o(i.lv_obj_get_style_opa_scale)
    lv_obj_get_style_opa_scale               0x08017d59   Thumb Code    20  lv_obj.o(i.lv_obj_get_style_opa_scale)
    i.lv_obj_get_style_outline_blend_mode    0x08017d6c   Section        0  lv_obj.o(i.lv_obj_get_style_outline_blend_mode)
    lv_obj_get_style_outline_blend_mode      0x08017d6d   Thumb Code    20  lv_obj.o(i.lv_obj_get_style_outline_blend_mode)
    i.lv_obj_get_style_outline_opa           0x08017d80   Section        0  lv_obj.o(i.lv_obj_get_style_outline_opa)
    lv_obj_get_style_outline_opa             0x08017d81   Thumb Code    18  lv_obj.o(i.lv_obj_get_style_outline_opa)
    i.lv_obj_get_style_outline_pad           0x08017d92   Section        0  lv_obj.o(i.lv_obj_get_style_outline_pad)
    lv_obj_get_style_outline_pad             0x08017d93   Thumb Code    18  lv_obj.o(i.lv_obj_get_style_outline_pad)
    i.lv_obj_get_style_outline_width         0x08017da4   Section        0  lv_obj.o(i.lv_obj_get_style_outline_width)
    lv_obj_get_style_outline_width           0x08017da5   Thumb Code    18  lv_obj.o(i.lv_obj_get_style_outline_width)
    i.lv_obj_get_style_pad_bottom            0x08017db6   Section        0  lv_obj.o(i.lv_obj_get_style_pad_bottom)
    lv_obj_get_style_pad_bottom              0x08017db7   Thumb Code    18  lv_obj.o(i.lv_obj_get_style_pad_bottom)
    i.lv_obj_get_style_pad_bottom            0x08017dc8   Section        0  lv_label.o(i.lv_obj_get_style_pad_bottom)
    lv_obj_get_style_pad_bottom              0x08017dc9   Thumb Code    18  lv_label.o(i.lv_obj_get_style_pad_bottom)
    i.lv_obj_get_style_pad_inner             0x08017dda   Section        0  lv_obj.o(i.lv_obj_get_style_pad_inner)
    lv_obj_get_style_pad_inner               0x08017ddb   Thumb Code    18  lv_obj.o(i.lv_obj_get_style_pad_inner)
    i.lv_obj_get_style_pad_inner             0x08017dec   Section        0  lv_gauge.o(i.lv_obj_get_style_pad_inner)
    lv_obj_get_style_pad_inner               0x08017ded   Thumb Code    18  lv_gauge.o(i.lv_obj_get_style_pad_inner)
    i.lv_obj_get_style_pad_left              0x08017dfe   Section        0  lv_obj.o(i.lv_obj_get_style_pad_left)
    lv_obj_get_style_pad_left                0x08017dff   Thumb Code    18  lv_obj.o(i.lv_obj_get_style_pad_left)
    i.lv_obj_get_style_pad_left              0x08017e10   Section        0  lv_gauge.o(i.lv_obj_get_style_pad_left)
    lv_obj_get_style_pad_left                0x08017e11   Thumb Code    18  lv_gauge.o(i.lv_obj_get_style_pad_left)
    i.lv_obj_get_style_pad_left              0x08017e22   Section        0  lv_label.o(i.lv_obj_get_style_pad_left)
    lv_obj_get_style_pad_left                0x08017e23   Thumb Code    18  lv_label.o(i.lv_obj_get_style_pad_left)
    i.lv_obj_get_style_pad_right             0x08017e34   Section        0  lv_obj.o(i.lv_obj_get_style_pad_right)
    lv_obj_get_style_pad_right               0x08017e35   Thumb Code    18  lv_obj.o(i.lv_obj_get_style_pad_right)
    i.lv_obj_get_style_pad_right             0x08017e46   Section        0  lv_gauge.o(i.lv_obj_get_style_pad_right)
    lv_obj_get_style_pad_right               0x08017e47   Thumb Code    18  lv_gauge.o(i.lv_obj_get_style_pad_right)
    i.lv_obj_get_style_pad_right             0x08017e58   Section        0  lv_label.o(i.lv_obj_get_style_pad_right)
    lv_obj_get_style_pad_right               0x08017e59   Thumb Code    18  lv_label.o(i.lv_obj_get_style_pad_right)
    i.lv_obj_get_style_pad_top               0x08017e6a   Section        0  lv_obj.o(i.lv_obj_get_style_pad_top)
    lv_obj_get_style_pad_top                 0x08017e6b   Thumb Code    18  lv_obj.o(i.lv_obj_get_style_pad_top)
    i.lv_obj_get_style_pad_top               0x08017e7c   Section        0  lv_gauge.o(i.lv_obj_get_style_pad_top)
    lv_obj_get_style_pad_top                 0x08017e7d   Thumb Code    18  lv_gauge.o(i.lv_obj_get_style_pad_top)
    i.lv_obj_get_style_pad_top               0x08017e8e   Section        0  lv_label.o(i.lv_obj_get_style_pad_top)
    lv_obj_get_style_pad_top                 0x08017e8f   Thumb Code    18  lv_label.o(i.lv_obj_get_style_pad_top)
    i.lv_obj_get_style_pattern_blend_mode    0x08017ea0   Section        0  lv_obj.o(i.lv_obj_get_style_pattern_blend_mode)
    lv_obj_get_style_pattern_blend_mode      0x08017ea1   Thumb Code    20  lv_obj.o(i.lv_obj_get_style_pattern_blend_mode)
    i.lv_obj_get_style_pattern_image         0x08017eb4   Section        0  lv_obj.o(i.lv_obj_get_style_pattern_image)
    lv_obj_get_style_pattern_image           0x08017eb5   Thumb Code    18  lv_obj.o(i.lv_obj_get_style_pattern_image)
    i.lv_obj_get_style_pattern_recolor       0x08017ec6   Section        0  lv_obj.o(i.lv_obj_get_style_pattern_recolor)
    lv_obj_get_style_pattern_recolor         0x08017ec7   Thumb Code    26  lv_obj.o(i.lv_obj_get_style_pattern_recolor)
    i.lv_obj_get_style_radius                0x08017ee0   Section        0  lv_obj.o(i.lv_obj_get_style_radius)
    lv_obj_get_style_radius                  0x08017ee1   Thumb Code    18  lv_obj.o(i.lv_obj_get_style_radius)
    i.lv_obj_get_style_shadow_blend_mode     0x08017ef2   Section        0  lv_obj.o(i.lv_obj_get_style_shadow_blend_mode)
    lv_obj_get_style_shadow_blend_mode       0x08017ef3   Thumb Code    20  lv_obj.o(i.lv_obj_get_style_shadow_blend_mode)
    i.lv_obj_get_style_shadow_ofs_x          0x08017f06   Section        0  lv_obj.o(i.lv_obj_get_style_shadow_ofs_x)
    lv_obj_get_style_shadow_ofs_x            0x08017f07   Thumb Code    18  lv_obj.o(i.lv_obj_get_style_shadow_ofs_x)
    i.lv_obj_get_style_shadow_ofs_y          0x08017f18   Section        0  lv_obj.o(i.lv_obj_get_style_shadow_ofs_y)
    lv_obj_get_style_shadow_ofs_y            0x08017f19   Thumb Code    18  lv_obj.o(i.lv_obj_get_style_shadow_ofs_y)
    i.lv_obj_get_style_shadow_opa            0x08017f2a   Section        0  lv_obj.o(i.lv_obj_get_style_shadow_opa)
    lv_obj_get_style_shadow_opa              0x08017f2b   Thumb Code    18  lv_obj.o(i.lv_obj_get_style_shadow_opa)
    i.lv_obj_get_style_shadow_spread         0x08017f3c   Section        0  lv_obj.o(i.lv_obj_get_style_shadow_spread)
    lv_obj_get_style_shadow_spread           0x08017f3d   Thumb Code    18  lv_obj.o(i.lv_obj_get_style_shadow_spread)
    i.lv_obj_get_style_shadow_width          0x08017f4e   Section        0  lv_obj.o(i.lv_obj_get_style_shadow_width)
    lv_obj_get_style_shadow_width            0x08017f4f   Thumb Code    18  lv_obj.o(i.lv_obj_get_style_shadow_width)
    i.lv_obj_get_style_text_blend_mode       0x08017f60   Section        0  lv_obj.o(i.lv_obj_get_style_text_blend_mode)
    lv_obj_get_style_text_blend_mode         0x08017f61   Thumb Code    22  lv_obj.o(i.lv_obj_get_style_text_blend_mode)
    i.lv_obj_get_style_text_decor            0x08017f76   Section        0  lv_obj.o(i.lv_obj_get_style_text_decor)
    lv_obj_get_style_text_decor              0x08017f77   Thumb Code    22  lv_obj.o(i.lv_obj_get_style_text_decor)
    i.lv_obj_get_style_text_font             0x08017f8c   Section        0  lv_obj.o(i.lv_obj_get_style_text_font)
    lv_obj_get_style_text_font               0x08017f8d   Thumb Code    20  lv_obj.o(i.lv_obj_get_style_text_font)
    i.lv_obj_get_style_text_font             0x08017fa0   Section        0  lv_label.o(i.lv_obj_get_style_text_font)
    lv_obj_get_style_text_font               0x08017fa1   Thumb Code    20  lv_label.o(i.lv_obj_get_style_text_font)
    i.lv_obj_get_style_text_letter_space     0x08017fb4   Section        0  lv_obj.o(i.lv_obj_get_style_text_letter_space)
    lv_obj_get_style_text_letter_space       0x08017fb5   Thumb Code    20  lv_obj.o(i.lv_obj_get_style_text_letter_space)
    i.lv_obj_get_style_text_letter_space     0x08017fc8   Section        0  lv_label.o(i.lv_obj_get_style_text_letter_space)
    lv_obj_get_style_text_letter_space       0x08017fc9   Thumb Code    20  lv_label.o(i.lv_obj_get_style_text_letter_space)
    i.lv_obj_get_style_text_line_space       0x08017fdc   Section        0  lv_obj.o(i.lv_obj_get_style_text_line_space)
    lv_obj_get_style_text_line_space         0x08017fdd   Thumb Code    20  lv_obj.o(i.lv_obj_get_style_text_line_space)
    i.lv_obj_get_style_text_line_space       0x08017ff0   Section        0  lv_label.o(i.lv_obj_get_style_text_line_space)
    lv_obj_get_style_text_line_space         0x08017ff1   Thumb Code    20  lv_label.o(i.lv_obj_get_style_text_line_space)
    i.lv_obj_get_style_transform_angle       0x08018004   Section        0  lv_obj.o(i.lv_obj_get_style_transform_angle)
    lv_obj_get_style_transform_angle         0x08018005   Thumb Code    18  lv_obj.o(i.lv_obj_get_style_transform_angle)
    i.lv_obj_get_style_transform_height      0x08018016   Section        0  lv_obj.o(i.lv_obj_get_style_transform_height)
    lv_obj_get_style_transform_height        0x08018017   Thumb Code    18  lv_obj.o(i.lv_obj_get_style_transform_height)
    i.lv_obj_get_style_transform_width       0x08018028   Section        0  lv_obj.o(i.lv_obj_get_style_transform_width)
    lv_obj_get_style_transform_width         0x08018029   Thumb Code    18  lv_obj.o(i.lv_obj_get_style_transform_width)
    i.lv_obj_get_style_transform_zoom        0x0801803a   Section        0  lv_obj.o(i.lv_obj_get_style_transform_zoom)
    lv_obj_get_style_transform_zoom          0x0801803b   Thumb Code    18  lv_obj.o(i.lv_obj_get_style_transform_zoom)
    i.lv_obj_get_style_value_align           0x0801804c   Section        0  lv_obj.o(i.lv_obj_get_style_value_align)
    lv_obj_get_style_value_align             0x0801804d   Thumb Code    20  lv_obj.o(i.lv_obj_get_style_value_align)
    i.lv_obj_get_style_value_blend_mode      0x08018060   Section        0  lv_obj.o(i.lv_obj_get_style_value_blend_mode)
    lv_obj_get_style_value_blend_mode        0x08018061   Thumb Code    20  lv_obj.o(i.lv_obj_get_style_value_blend_mode)
    i.lv_obj_get_style_value_font            0x08018074   Section        0  lv_obj.o(i.lv_obj_get_style_value_font)
    lv_obj_get_style_value_font              0x08018075   Thumb Code    18  lv_obj.o(i.lv_obj_get_style_value_font)
    i.lv_obj_get_style_value_letter_space    0x08018086   Section        0  lv_obj.o(i.lv_obj_get_style_value_letter_space)
    lv_obj_get_style_value_letter_space      0x08018087   Thumb Code    18  lv_obj.o(i.lv_obj_get_style_value_letter_space)
    i.lv_obj_get_style_value_ofs_x           0x08018098   Section        0  lv_obj.o(i.lv_obj_get_style_value_ofs_x)
    lv_obj_get_style_value_ofs_x             0x08018099   Thumb Code    18  lv_obj.o(i.lv_obj_get_style_value_ofs_x)
    i.lv_obj_get_style_value_ofs_y           0x080180aa   Section        0  lv_obj.o(i.lv_obj_get_style_value_ofs_y)
    lv_obj_get_style_value_ofs_y             0x080180ab   Thumb Code    18  lv_obj.o(i.lv_obj_get_style_value_ofs_y)
    i.lv_obj_get_style_value_opa             0x080180bc   Section        0  lv_obj.o(i.lv_obj_get_style_value_opa)
    lv_obj_get_style_value_opa               0x080180bd   Thumb Code    18  lv_obj.o(i.lv_obj_get_style_value_opa)
    i.lv_obj_get_style_value_str             0x080180ce   Section        0  lv_obj.o(i.lv_obj_get_style_value_str)
    lv_obj_get_style_value_str               0x080180cf   Thumb Code    18  lv_obj.o(i.lv_obj_get_style_value_str)
    i.lv_obj_get_width                       0x080180e0   Section        0  lv_obj.o(i.lv_obj_get_width)
    i.lv_obj_get_x                           0x08018118   Section        0  lv_obj.o(i.lv_obj_get_x)
    i.lv_obj_get_y                           0x08018164   Section        0  lv_obj.o(i.lv_obj_get_y)
    i.lv_obj_handle_get_type_signal          0x080181b0   Section        0  lv_obj.o(i.lv_obj_handle_get_type_signal)
    i.lv_obj_hittest                         0x080181d2   Section        0  lv_obj.o(i.lv_obj_hittest)
    i.lv_obj_init_draw_img_dsc               0x08018202   Section        0  lv_obj.o(i.lv_obj_init_draw_img_dsc)
    i.lv_obj_init_draw_label_dsc             0x080182ae   Section        0  lv_obj.o(i.lv_obj_init_draw_label_dsc)
    i.lv_obj_init_draw_line_dsc              0x08018394   Section        0  lv_obj.o(i.lv_obj_init_draw_line_dsc)
    i.lv_obj_init_draw_rect_dsc              0x08018460   Section        0  lv_obj.o(i.lv_obj_init_draw_rect_dsc)
    i.lv_obj_invalidate                      0x080187b0   Section        0  lv_obj.o(i.lv_obj_invalidate)
    i.lv_obj_invalidate_area                 0x08018828   Section        0  lv_obj.o(i.lv_obj_invalidate_area)
    i.lv_obj_is_focused                      0x08018880   Section        0  lv_obj.o(i.lv_obj_is_focused)
    i.lv_obj_is_point_on_coords              0x080188c4   Section        0  lv_obj.o(i.lv_obj_is_point_on_coords)
    i.lv_obj_is_protected                    0x08018918   Section        0  lv_obj.o(i.lv_obj_is_protected)
    i.lv_obj_move_foreground                 0x08018958   Section        0  lv_obj.o(i.lv_obj_move_foreground)
    i.lv_obj_realign                         0x080189c0   Section        0  lv_obj.o(i.lv_obj_realign)
    i.lv_obj_refresh_ext_draw_pad            0x08018a28   Section        0  lv_obj.o(i.lv_obj_refresh_ext_draw_pad)
    i.lv_obj_refresh_style                   0x08018a68   Section        0  lv_obj.o(i.lv_obj_refresh_style)
    i.lv_obj_report_style_mod                0x08018c04   Section        0  lv_obj.o(i.lv_obj_report_style_mod)
    i.lv_obj_reset_style_list                0x08018c46   Section        0  lv_obj.o(i.lv_obj_reset_style_list)
    i.lv_obj_set_click                       0x08018c60   Section        0  lv_obj.o(i.lv_obj_set_click)
    i.lv_obj_set_design_cb                   0x08018ca4   Section        0  lv_obj.o(i.lv_obj_set_design_cb)
    i.lv_obj_set_drag_parent                 0x08018cd8   Section        0  lv_obj.o(i.lv_obj_set_drag_parent)
    i.lv_obj_set_height                      0x08018d1c   Section        0  lv_obj.o(i.lv_obj_set_height)
    i.lv_obj_set_pos                         0x08018d60   Section        0  lv_obj.o(i.lv_obj_set_pos)
    i.lv_obj_set_signal_cb                   0x08018e30   Section        0  lv_obj.o(i.lv_obj_set_signal_cb)
    i.lv_obj_set_size                        0x08018e64   Section        0  lv_obj.o(i.lv_obj_set_size)
    i.lv_obj_set_state                       0x08018f44   Section        0  lv_obj.o(i.lv_obj_set_state)
    i.lv_obj_set_x                           0x0801919c   Section        0  lv_obj.o(i.lv_obj_set_x)
    i.lv_obj_set_y                           0x080191e0   Section        0  lv_obj.o(i.lv_obj_set_y)
    i.lv_obj_signal                          0x08019224   Section        0  lv_obj.o(i.lv_obj_signal)
    lv_obj_signal                            0x08019225   Thumb Code   292  lv_obj.o(i.lv_obj_signal)
    i.lv_point_within_circle                 0x08019350   Section        0  lv_area.o(i.lv_point_within_circle)
    lv_point_within_circle                   0x08019351   Thumb Code    80  lv_area.o(i.lv_point_within_circle)
    i.lv_port_disp_init                      0x080193a0   Section        0  lv_port_disp.o(i.lv_port_disp_init)
    i.lv_port_indev_init                     0x080193f8   Section        0  lv_port_indev.o(i.lv_port_indev_init)
    i.lv_refr_area                           0x0801941c   Section        0  lv_refr.o(i.lv_refr_area)
    lv_refr_area                             0x0801941d   Thumb Code   412  lv_refr.o(i.lv_refr_area)
    i.lv_refr_area_part                      0x080195bc   Section        0  lv_refr.o(i.lv_refr_area_part)
    lv_refr_area_part                        0x080195bd   Thumb Code   350  lv_refr.o(i.lv_refr_area_part)
    i.lv_refr_areas                          0x08019720   Section        0  lv_refr.o(i.lv_refr_areas)
    lv_refr_areas                            0x08019721   Thumb Code   228  lv_refr.o(i.lv_refr_areas)
    i.lv_refr_get_top_obj                    0x0801980c   Section        0  lv_refr.o(i.lv_refr_get_top_obj)
    lv_refr_get_top_obj                      0x0801980d   Thumb Code   140  lv_refr.o(i.lv_refr_get_top_obj)
    i.lv_refr_join_area                      0x08019898   Section        0  lv_refr.o(i.lv_refr_join_area)
    lv_refr_join_area                        0x08019899   Thumb Code   214  lv_refr.o(i.lv_refr_join_area)
    i.lv_refr_obj                            0x08019974   Section        0  lv_refr.o(i.lv_refr_obj)
    lv_refr_obj                              0x08019975   Thumb Code   264  lv_refr.o(i.lv_refr_obj)
    i.lv_refr_obj_and_children               0x08019a7c   Section        0  lv_refr.o(i.lv_refr_obj_and_children)
    lv_refr_obj_and_children                 0x08019a7d   Thumb Code   114  lv_refr.o(i.lv_refr_obj_and_children)
    i.lv_refr_vdb_flush                      0x08019af4   Section        0  lv_refr.o(i.lv_refr_vdb_flush)
    lv_refr_vdb_flush                        0x08019af5   Thumb Code   182  lv_refr.o(i.lv_refr_vdb_flush)
    i.lv_refr_vdb_rotate                     0x08019bb0   Section        0  lv_refr.o(i.lv_refr_vdb_rotate)
    lv_refr_vdb_rotate                       0x08019bb1   Thumb Code   512  lv_refr.o(i.lv_refr_vdb_rotate)
    i.lv_refr_vdb_rotate_180                 0x08019db4   Section        0  lv_refr.o(i.lv_refr_vdb_rotate_180)
    lv_refr_vdb_rotate_180                   0x08019db5   Thumb Code   142  lv_refr.o(i.lv_refr_vdb_rotate_180)
    i.lv_refr_vdb_rotate_90                  0x08019e42   Section        0  lv_refr.o(i.lv_refr_vdb_rotate_90)
    lv_refr_vdb_rotate_90                    0x08019e43   Thumb Code    90  lv_refr.o(i.lv_refr_vdb_rotate_90)
    i.lv_refr_vdb_rotate_90_sqr              0x08019e9c   Section        0  lv_refr.o(i.lv_refr_vdb_rotate_90_sqr)
    lv_refr_vdb_rotate_90_sqr                0x08019e9d   Thumb Code   148  lv_refr.o(i.lv_refr_vdb_rotate_90_sqr)
    i.lv_signal_send                         0x08019f30   Section        0  lv_obj.o(i.lv_signal_send)
    i.lv_style_copy                          0x08019f58   Section        0  lv_style.o(i.lv_style_copy)
    i.lv_style_init                          0x08019f86   Section        0  lv_style.o(i.lv_style_init)
    i.lv_style_list_copy                     0x08019f94   Section        0  lv_style.o(i.lv_style_list_copy)
    i.lv_style_list_get_local_style          0x0801a09e   Section        0  lv_style.o(i.lv_style_list_get_local_style)
    i.lv_style_list_get_style                0x0801a0c0   Section        0  lv_style.o(i.lv_style_list_get_style)
    lv_style_list_get_style                  0x0801a0c1   Thumb Code    52  lv_style.o(i.lv_style_list_get_style)
    i.lv_style_list_init                     0x0801a0f4   Section        0  lv_style.o(i.lv_style_list_init)
    i.lv_style_remove_prop                   0x0801a102   Section        0  lv_style.o(i.lv_style_remove_prop)
    i.lv_style_reset                         0x0801a178   Section        0  lv_style.o(i.lv_style_reset)
    i.lv_style_set_bg_color                  0x0801a18a   Section        0  lv_theme_material.o(i.lv_style_set_bg_color)
    lv_style_set_bg_color                    0x0801a18b   Thumb Code    22  lv_theme_material.o(i.lv_style_set_bg_color)
    i.lv_style_set_bg_opa                    0x0801a1a0   Section        0  lv_theme_material.o(i.lv_style_set_bg_opa)
    lv_style_set_bg_opa                      0x0801a1a1   Thumb Code    24  lv_theme_material.o(i.lv_style_set_bg_opa)
    i.lv_style_set_border_color              0x0801a1b8   Section        0  lv_theme_material.o(i.lv_style_set_border_color)
    lv_style_set_border_color                0x0801a1b9   Thumb Code    22  lv_theme_material.o(i.lv_style_set_border_color)
    i.lv_style_set_border_opa                0x0801a1ce   Section        0  lv_theme_material.o(i.lv_style_set_border_opa)
    lv_style_set_border_opa                  0x0801a1cf   Thumb Code    24  lv_theme_material.o(i.lv_style_set_border_opa)
    i.lv_style_set_border_side               0x0801a1e6   Section        0  lv_theme_material.o(i.lv_style_set_border_side)
    lv_style_set_border_side                 0x0801a1e7   Thumb Code    24  lv_theme_material.o(i.lv_style_set_border_side)
    i.lv_style_set_border_width              0x0801a1fe   Section        0  lv_theme_material.o(i.lv_style_set_border_width)
    lv_style_set_border_width                0x0801a1ff   Thumb Code    24  lv_theme_material.o(i.lv_style_set_border_width)
    i.lv_style_set_clip_corner               0x0801a216   Section        0  lv_theme_material.o(i.lv_style_set_clip_corner)
    lv_style_set_clip_corner                 0x0801a217   Thumb Code    24  lv_theme_material.o(i.lv_style_set_clip_corner)
    i.lv_style_set_image_recolor             0x0801a22e   Section        0  lv_theme_material.o(i.lv_style_set_image_recolor)
    lv_style_set_image_recolor               0x0801a22f   Thumb Code    24  lv_theme_material.o(i.lv_style_set_image_recolor)
    i.lv_style_set_line_color                0x0801a246   Section        0  lv_theme_material.o(i.lv_style_set_line_color)
    lv_style_set_line_color                  0x0801a247   Thumb Code    22  lv_theme_material.o(i.lv_style_set_line_color)
    i.lv_style_set_line_rounded              0x0801a25c   Section        0  lv_theme_material.o(i.lv_style_set_line_rounded)
    lv_style_set_line_rounded                0x0801a25d   Thumb Code    24  lv_theme_material.o(i.lv_style_set_line_rounded)
    i.lv_style_set_line_width                0x0801a274   Section        0  lv_theme_material.o(i.lv_style_set_line_width)
    lv_style_set_line_width                  0x0801a275   Thumb Code    24  lv_theme_material.o(i.lv_style_set_line_width)
    i.lv_style_set_margin_bottom             0x0801a28c   Section        0  lv_theme_material.o(i.lv_style_set_margin_bottom)
    lv_style_set_margin_bottom               0x0801a28d   Thumb Code    24  lv_theme_material.o(i.lv_style_set_margin_bottom)
    i.lv_style_set_margin_top                0x0801a2a4   Section        0  lv_theme_material.o(i.lv_style_set_margin_top)
    lv_style_set_margin_top                  0x0801a2a5   Thumb Code    24  lv_theme_material.o(i.lv_style_set_margin_top)
    i.lv_style_set_outline_color             0x0801a2bc   Section        0  lv_theme_material.o(i.lv_style_set_outline_color)
    lv_style_set_outline_color               0x0801a2bd   Thumb Code    22  lv_theme_material.o(i.lv_style_set_outline_color)
    i.lv_style_set_outline_opa               0x0801a2d2   Section        0  lv_theme_material.o(i.lv_style_set_outline_opa)
    lv_style_set_outline_opa                 0x0801a2d3   Thumb Code    24  lv_theme_material.o(i.lv_style_set_outline_opa)
    i.lv_style_set_outline_pad               0x0801a2ea   Section        0  lv_theme_material.o(i.lv_style_set_outline_pad)
    lv_style_set_outline_pad                 0x0801a2eb   Thumb Code    24  lv_theme_material.o(i.lv_style_set_outline_pad)
    i.lv_style_set_outline_width             0x0801a302   Section        0  lv_theme_material.o(i.lv_style_set_outline_width)
    lv_style_set_outline_width               0x0801a303   Thumb Code    24  lv_theme_material.o(i.lv_style_set_outline_width)
    i.lv_style_set_pad_bottom                0x0801a31a   Section        0  lv_theme_material.o(i.lv_style_set_pad_bottom)
    lv_style_set_pad_bottom                  0x0801a31b   Thumb Code    24  lv_theme_material.o(i.lv_style_set_pad_bottom)
    i.lv_style_set_pad_inner                 0x0801a332   Section        0  lv_theme_material.o(i.lv_style_set_pad_inner)
    lv_style_set_pad_inner                   0x0801a333   Thumb Code    24  lv_theme_material.o(i.lv_style_set_pad_inner)
    i.lv_style_set_pad_left                  0x0801a34a   Section        0  lv_theme_material.o(i.lv_style_set_pad_left)
    lv_style_set_pad_left                    0x0801a34b   Thumb Code    24  lv_theme_material.o(i.lv_style_set_pad_left)
    i.lv_style_set_pad_right                 0x0801a362   Section        0  lv_theme_material.o(i.lv_style_set_pad_right)
    lv_style_set_pad_right                   0x0801a363   Thumb Code    24  lv_theme_material.o(i.lv_style_set_pad_right)
    i.lv_style_set_pad_top                   0x0801a37a   Section        0  lv_theme_material.o(i.lv_style_set_pad_top)
    lv_style_set_pad_top                     0x0801a37b   Thumb Code    24  lv_theme_material.o(i.lv_style_set_pad_top)
    i.lv_style_set_pattern_opa               0x0801a392   Section        0  lv_theme_material.o(i.lv_style_set_pattern_opa)
    lv_style_set_pattern_opa                 0x0801a393   Thumb Code    24  lv_theme_material.o(i.lv_style_set_pattern_opa)
    i.lv_style_set_radius                    0x0801a3aa   Section        0  lv_theme_material.o(i.lv_style_set_radius)
    lv_style_set_radius                      0x0801a3ab   Thumb Code    24  lv_theme_material.o(i.lv_style_set_radius)
    i.lv_style_set_scale_end_color           0x0801a3c2   Section        0  lv_theme_material.o(i.lv_style_set_scale_end_color)
    lv_style_set_scale_end_color             0x0801a3c3   Thumb Code    22  lv_theme_material.o(i.lv_style_set_scale_end_color)
    i.lv_style_set_scale_end_line_width      0x0801a3d8   Section        0  lv_theme_material.o(i.lv_style_set_scale_end_line_width)
    lv_style_set_scale_end_line_width        0x0801a3d9   Thumb Code    24  lv_theme_material.o(i.lv_style_set_scale_end_line_width)
    i.lv_style_set_scale_grad_color          0x0801a3f0   Section        0  lv_theme_material.o(i.lv_style_set_scale_grad_color)
    lv_style_set_scale_grad_color            0x0801a3f1   Thumb Code    22  lv_theme_material.o(i.lv_style_set_scale_grad_color)
    i.lv_style_set_scale_width               0x0801a406   Section        0  lv_theme_material.o(i.lv_style_set_scale_width)
    lv_style_set_scale_width                 0x0801a407   Thumb Code    24  lv_theme_material.o(i.lv_style_set_scale_width)
    i.lv_style_set_shadow_color              0x0801a41e   Section        0  lv_theme_material.o(i.lv_style_set_shadow_color)
    lv_style_set_shadow_color                0x0801a41f   Thumb Code    22  lv_theme_material.o(i.lv_style_set_shadow_color)
    i.lv_style_set_shadow_width              0x0801a434   Section        0  lv_theme_material.o(i.lv_style_set_shadow_width)
    lv_style_set_shadow_width                0x0801a435   Thumb Code    24  lv_theme_material.o(i.lv_style_set_shadow_width)
    i.lv_style_set_size                      0x0801a44c   Section        0  lv_theme_material.o(i.lv_style_set_size)
    lv_style_set_size                        0x0801a44d   Thumb Code    24  lv_theme_material.o(i.lv_style_set_size)
    i.lv_style_set_text_color                0x0801a464   Section        0  lv_theme_material.o(i.lv_style_set_text_color)
    lv_style_set_text_color                  0x0801a465   Thumb Code    24  lv_theme_material.o(i.lv_style_set_text_color)
    i.lv_style_set_text_line_space           0x0801a47c   Section        0  lv_theme_material.o(i.lv_style_set_text_line_space)
    lv_style_set_text_line_space             0x0801a47d   Thumb Code    26  lv_theme_material.o(i.lv_style_set_text_line_space)
    i.lv_style_set_transform_width           0x0801a496   Section        0  lv_theme_material.o(i.lv_style_set_transform_width)
    lv_style_set_transform_width             0x0801a497   Thumb Code    24  lv_theme_material.o(i.lv_style_set_transform_width)
    i.lv_style_set_transition_delay          0x0801a4ae   Section        0  lv_theme_material.o(i.lv_style_set_transition_delay)
    lv_style_set_transition_delay            0x0801a4af   Thumb Code    24  lv_theme_material.o(i.lv_style_set_transition_delay)
    i.lv_style_set_transition_prop_5         0x0801a4c6   Section        0  lv_theme_material.o(i.lv_style_set_transition_prop_5)
    lv_style_set_transition_prop_5           0x0801a4c7   Thumb Code    24  lv_theme_material.o(i.lv_style_set_transition_prop_5)
    i.lv_style_set_transition_prop_6         0x0801a4de   Section        0  lv_theme_material.o(i.lv_style_set_transition_prop_6)
    lv_style_set_transition_prop_6           0x0801a4df   Thumb Code    24  lv_theme_material.o(i.lv_style_set_transition_prop_6)
    i.lv_style_set_transition_time           0x0801a4f6   Section        0  lv_theme_material.o(i.lv_style_set_transition_time)
    lv_style_set_transition_time             0x0801a4f7   Thumb Code    24  lv_theme_material.o(i.lv_style_set_transition_time)
    i.lv_style_set_value_color               0x0801a50e   Section        0  lv_theme_material.o(i.lv_style_set_value_color)
    lv_style_set_value_color                 0x0801a50f   Thumb Code    22  lv_theme_material.o(i.lv_style_set_value_color)
    i.lv_style_set_value_font                0x0801a524   Section        0  lv_theme_material.o(i.lv_style_set_value_font)
    lv_style_set_value_font                  0x0801a525   Thumb Code    24  lv_theme_material.o(i.lv_style_set_value_font)
    i.lv_task_create                         0x0801a53c   Section        0  lv_task.o(i.lv_task_create)
    i.lv_task_del                            0x0801a634   Section        0  lv_task.o(i.lv_task_del)
    i.lv_task_enable                         0x0801a66c   Section        0  lv_task.o(i.lv_task_enable)
    i.lv_task_exec                           0x0801a678   Section        0  lv_task.o(i.lv_task_exec)
    lv_task_exec                             0x0801a679   Thumb Code    64  lv_task.o(i.lv_task_exec)
    i.lv_task_handler                        0x0801a6bc   Section        0  lv_task.o(i.lv_task_handler)
    i.lv_task_ready                          0x0801a890   Section        0  lv_task.o(i.lv_task_ready)
    i.lv_task_set_prio                       0x0801a8a4   Section        0  lv_task.o(i.lv_task_set_prio)
    i.lv_task_time_remaining                 0x0801a90c   Section        0  lv_task.o(i.lv_task_time_remaining)
    lv_task_time_remaining                   0x0801a90d   Thumb Code    28  lv_task.o(i.lv_task_time_remaining)
    i.lv_theme_apply                         0x0801a928   Section        0  lv_theme.o(i.lv_theme_apply)
    i.lv_theme_get_font_normal               0x0801a948   Section        0  lv_theme.o(i.lv_theme_get_font_normal)
    i.lv_theme_material_init                 0x0801a954   Section        0  lv_theme_material.o(i.lv_theme_material_init)
    i.lv_theme_set_act                       0x0801aa50   Section        0  lv_theme.o(i.lv_theme_set_act)
    i.lv_tick_elaps                          0x0801aa5c   Section        0  lv_hal_tick.o(i.lv_tick_elaps)
    i.lv_tick_get                            0x0801aa78   Section        0  lv_hal_tick.o(i.lv_tick_get)
    i.lv_tick_inc                            0x0801aa98   Section        0  lv_hal_tick.o(i.lv_tick_inc)
    i.lv_txt_get_next_word                   0x0801aab4   Section        0  lv_txt.o(i.lv_txt_get_next_word)
    lv_txt_get_next_word                     0x0801aab5   Thumb Code   326  lv_txt.o(i.lv_txt_get_next_word)
    i.lv_txt_unicode_to_utf8                 0x0801ac08   Section        0  lv_txt.o(i.lv_txt_unicode_to_utf8)
    lv_txt_unicode_to_utf8                   0x0801ac09   Thumb Code   164  lv_txt.o(i.lv_txt_unicode_to_utf8)
    i.lv_txt_utf8_conv_wc                    0x0801acac   Section        0  lv_txt.o(i.lv_txt_utf8_conv_wc)
    lv_txt_utf8_conv_wc                      0x0801acad   Thumb Code    76  lv_txt.o(i.lv_txt_utf8_conv_wc)
    i.lv_txt_utf8_get_byte_id                0x0801acf8   Section        0  lv_txt.o(i.lv_txt_utf8_get_byte_id)
    lv_txt_utf8_get_byte_id                  0x0801acf9   Thumb Code    50  lv_txt.o(i.lv_txt_utf8_get_byte_id)
    i.lv_txt_utf8_get_char_id                0x0801ad30   Section        0  lv_txt.o(i.lv_txt_utf8_get_char_id)
    lv_txt_utf8_get_char_id                  0x0801ad31   Thumb Code    36  lv_txt.o(i.lv_txt_utf8_get_char_id)
    i.lv_txt_utf8_get_length                 0x0801ad58   Section        0  lv_txt.o(i.lv_txt_utf8_get_length)
    lv_txt_utf8_get_length                   0x0801ad59   Thumb Code    36  lv_txt.o(i.lv_txt_utf8_get_length)
    i.lv_txt_utf8_next                       0x0801ad80   Section        0  lv_txt.o(i.lv_txt_utf8_next)
    lv_txt_utf8_next                         0x0801ad81   Thumb Code   328  lv_txt.o(i.lv_txt_utf8_next)
    i.lv_txt_utf8_prev                       0x0801aec8   Section        0  lv_txt.o(i.lv_txt_utf8_prev)
    lv_txt_utf8_prev                         0x0801aec9   Thumb Code    86  lv_txt.o(i.lv_txt_utf8_prev)
    i.lv_txt_utf8_size                       0x0801af28   Section        0  lv_txt.o(i.lv_txt_utf8_size)
    lv_txt_utf8_size                         0x0801af29   Thumb Code    60  lv_txt.o(i.lv_txt_utf8_size)
    i.lv_vdb_rotate4                         0x0801af64   Section        0  lv_refr.o(i.lv_vdb_rotate4)
    lv_vdb_rotate4                           0x0801af65   Thumb Code    26  lv_refr.o(i.lv_vdb_rotate4)
    i.lv_vsnprintf                           0x0801af80   Section        0  lv_printf.o(i.lv_vsnprintf)
    i.main                                   0x0801afa4   Section        0  main.o(i.main)
    i.malloc                                 0x0801afd8   Section        0  malloc.o(i.malloc)
    i.map_blended                            0x0801b044   Section        0  lv_draw_blend.o(i.map_blended)
    map_blended                              0x0801b045   Thumb Code   368  lv_draw_blend.o(i.map_blended)
    i.map_normal                             0x0801b1bc   Section        0  lv_draw_blend.o(i.map_normal)
    map_normal                               0x0801b1bd   Thumb Code  1010  lv_draw_blend.o(i.map_normal)
    i.map_set_px                             0x0801b5ae   Section        0  lv_draw_blend.o(i.map_set_px)
    map_set_px                               0x0801b5af   Thumb Code   284  lv_draw_blend.o(i.map_set_px)
    i.mask_mix                               0x0801b6ca   Section        0  lv_draw_mask.o(i.mask_mix)
    mask_mix                                 0x0801b6cb   Thumb Code    36  lv_draw_mask.o(i.mask_mix)
    i.msgbox_init                            0x0801b6f0   Section        0  lv_theme_material.o(i.msgbox_init)
    msgbox_init                              0x0801b6f1   Thumb Code   138  lv_theme_material.o(i.msgbox_init)
    i.node_set_next                          0x0801b788   Section        0  lv_ll.o(i.node_set_next)
    node_set_next                            0x0801b789   Thumb Code    28  lv_ll.o(i.node_set_next)
    i.node_set_prev                          0x0801b7a4   Section        0  lv_ll.o(i.node_set_prev)
    node_set_prev                            0x0801b7a5   Thumb Code    26  lv_ll.o(i.node_set_prev)
    i.nvic_irq_enable                        0x0801b7c0   Section        0  gd32f30x_misc.o(i.nvic_irq_enable)
    i.obj_align_core                         0x0801b864   Section        0  lv_obj.o(i.obj_align_core)
    obj_align_core                           0x0801b865   Thumb Code   156  lv_obj.o(i.obj_align_core)
    i.obj_align_mid_core                     0x0801b900   Section        0  lv_obj.o(i.obj_align_mid_core)
    obj_align_mid_core                       0x0801b901   Thumb Code   706  lv_obj.o(i.obj_align_mid_core)
    i.obj_del_core                           0x0801bbc2   Section        0  lv_obj.o(i.obj_del_core)
    obj_del_core                             0x0801bbc3   Thumb Code   232  lv_obj.o(i.obj_del_core)
    i.obj_to_foreground                      0x0801bcaa   Section        0  lv_group.o(i.obj_to_foreground)
    obj_to_foreground                        0x0801bcab   Thumb Code    44  lv_group.o(i.obj_to_foreground)
    i.page_init                              0x0801bcd8   Section        0  lv_theme_material.o(i.page_init)
    page_init                                0x0801bcd9   Thumb Code   316  lv_theme_material.o(i.page_init)
    i.rcu_periph_clock_enable                0x0801be24   Section        0  gd32f30x_rcu.o(i.rcu_periph_clock_enable)
    i.refresh_children_position              0x0801be44   Section        0  lv_obj.o(i.refresh_children_position)
    refresh_children_position                0x0801be45   Thumb Code    80  lv_obj.o(i.refresh_children_position)
    i.refresh_children_style                 0x0801be94   Section        0  lv_obj.o(i.refresh_children_style)
    refresh_children_style                   0x0801be95   Thumb Code    60  lv_obj.o(i.refresh_children_style)
    i.report_style_mod_core                  0x0801bed0   Section        0  lv_obj.o(i.report_style_mod_core)
    report_style_mod_core                    0x0801bed1   Thumb Code   172  lv_obj.o(i.report_style_mod_core)
    i.rle_next                               0x0801bf7c   Section        0  lv_font_fmt_txt.o(i.rle_next)
    rle_next                                 0x0801bf7d   Thumb Code   340  lv_font_fmt_txt.o(i.rle_next)
    i.roller_init                            0x0801c0e8   Section        0  lv_theme_material.o(i.roller_init)
    roller_init                              0x0801c0e9   Thumb Code   142  lv_theme_material.o(i.roller_init)
    i.shadow_blur_corner                     0x0801c184   Section        0  lv_draw_rect.o(i.shadow_blur_corner)
    shadow_blur_corner                       0x0801c185   Thumb Code   372  lv_draw_rect.o(i.shadow_blur_corner)
    i.shadow_draw_corner_buf                 0x0801c2f8   Section        0  lv_draw_rect.o(i.shadow_draw_corner_buf)
    shadow_draw_corner_buf                   0x0801c2f9   Thumb Code   452  lv_draw_rect.o(i.shadow_draw_corner_buf)
    i.show_error                             0x0801c4bc   Section        0  lv_draw_img.o(i.show_error)
    show_error                               0x0801c4bd   Thumb Code    66  lv_draw_img.o(i.show_error)
    i.slider_init                            0x0801c504   Section        0  lv_theme_material.o(i.slider_init)
    slider_init                              0x0801c505   Thumb Code   682  lv_theme_material.o(i.slider_init)
    i.spi_clk                                0x0801c7c0   Section        0  touch_panel.o(i.spi_clk)
    spi_clk                                  0x0801c7c1   Thumb Code    26  touch_panel.o(i.spi_clk)
    i.spi_cs                                 0x0801c7e0   Section        0  touch_panel.o(i.spi_cs)
    spi_cs                                   0x0801c7e1   Thumb Code    26  touch_panel.o(i.spi_cs)
    i.spi_miso                               0x0801c800   Section        0  touch_panel.o(i.spi_miso)
    spi_miso                                 0x0801c801   Thumb Code    12  touch_panel.o(i.spi_miso)
    i.spi_mosi                               0x0801c810   Section        0  touch_panel.o(i.spi_mosi)
    spi_mosi                                 0x0801c811   Thumb Code    26  touch_panel.o(i.spi_mosi)
    i.spinbox_init                           0x0801c830   Section        0  lv_theme_material.o(i.spinbox_init)
    spinbox_init                             0x0801c831   Thumb Code   216  lv_theme_material.o(i.spinbox_init)
    i.spinner_init                           0x0801c914   Section        0  lv_theme_material.o(i.spinner_init)
    spinner_init                             0x0801c915   Thumb Code     2  lv_theme_material.o(i.spinner_init)
    i.style_prop_is_cacheble                 0x0801c916   Section        0  lv_obj.o(i.style_prop_is_cacheble)
    style_prop_is_cacheble                   0x0801c917   Thumb Code   272  lv_obj.o(i.style_prop_is_cacheble)
    i.style_resize                           0x0801ca26   Section        0  lv_style.o(i.style_resize)
    style_resize                             0x0801ca27   Thumb Code    18  lv_style.o(i.style_resize)
    i.style_snapshot                         0x0801ca38   Section        0  lv_obj.o(i.style_snapshot)
    style_snapshot                           0x0801ca39   Thumb Code   468  lv_obj.o(i.style_snapshot)
    i.style_snapshot_compare                 0x0801cc0c   Section        0  lv_obj.o(i.style_snapshot_compare)
    style_snapshot_compare                   0x0801cc0d   Thumb Code   402  lv_obj.o(i.style_snapshot_compare)
    i.switch_init                            0x0801cda0   Section        0  lv_theme_material.o(i.switch_init)
    switch_init                              0x0801cda1   Thumb Code   312  lv_theme_material.o(i.switch_init)
    i.system_clock_120m_hxtal                0x0801cee0   Section        0  system_gd32f30x.o(i.system_clock_120m_hxtal)
    system_clock_120m_hxtal                  0x0801cee1   Thumb Code   256  system_gd32f30x.o(i.system_clock_120m_hxtal)
    i.system_clock_config                    0x0801cff0   Section        0  system_gd32f30x.o(i.system_clock_config)
    system_clock_config                      0x0801cff1   Thumb Code     8  system_gd32f30x.o(i.system_clock_config)
    i.systick_config                         0x0801cff8   Section        0  systick.o(i.systick_config)
    i.table_init                             0x0801d048   Section        0  lv_theme_material.o(i.table_init)
    table_init                               0x0801d049   Thumb Code   582  lv_theme_material.o(i.table_init)
    i.tabview_init                           0x0801d2a0   Section        0  lv_theme_material.o(i.tabview_init)
    tabview_init                             0x0801d2a1   Thumb Code     2  lv_theme_material.o(i.tabview_init)
    i.tabview_win_shared_init                0x0801d2a4   Section        0  lv_theme_material.o(i.tabview_win_shared_init)
    tabview_win_shared_init                  0x0801d2a5   Thumb Code  1376  lv_theme_material.o(i.tabview_win_shared_init)
    i.textarea_init                          0x0801d808   Section        0  lv_theme_material.o(i.textarea_init)
    textarea_init                            0x0801d809   Thumb Code   264  lv_theme_material.o(i.textarea_init)
    i.theme_apply                            0x0801d924   Section        0  lv_theme_material.o(i.theme_apply)
    theme_apply                              0x0801d925   Thumb Code  2186  lv_theme_material.o(i.theme_apply)
    i.tileview_init                          0x0801e1b4   Section        0  lv_theme_material.o(i.tileview_init)
    tileview_init                            0x0801e1b5   Thumb Code     2  lv_theme_material.o(i.tileview_init)
    i.timer1_init                            0x0801e1b6   Section        0  timer.o(i.timer1_init)
    i.timer_enable                           0x0801e202   Section        0  gd32f30x_timer.o(i.timer_enable)
    i.timer_init                             0x0801e20c   Section        0  gd32f30x_timer.o(i.timer_init)
    i.timer_interrupt_enable                 0x0801e2a4   Section        0  gd32f30x_timer.o(i.timer_interrupt_enable)
    i.timer_interrupt_flag_clear             0x0801e2ac   Section        0  gd32f30x_timer.o(i.timer_interrupt_flag_clear)
    i.timer_interrupt_flag_get               0x0801e2b4   Section        0  gd32f30x_timer.o(i.timer_interrupt_flag_get)
    i.touch_ad_x_get                         0x0801e2cc   Section        0  touch_panel.o(i.touch_ad_x_get)
    i.touch_ad_xy_get                        0x0801e2ee   Section        0  touch_panel.o(i.touch_ad_xy_get)
    i.touch_ad_y_get                         0x0801e368   Section        0  touch_panel.o(i.touch_ad_y_get)
    i.touch_coordinate_x_get                 0x0801e38a   Section        0  touch_panel.o(i.touch_coordinate_x_get)
    i.touch_coordinate_y_get                 0x0801e3b4   Section        0  touch_panel.o(i.touch_coordinate_y_get)
    i.touch_data_filter                      0x0801e3e0   Section        0  touch_panel.o(i.touch_data_filter)
    i.touch_panel_gpio_configure             0x0801e46c   Section        0  touch_panel.o(i.touch_panel_gpio_configure)
    i.touch_pen_irq                          0x0801e4cc   Section        0  touch_panel.o(i.touch_pen_irq)
    i.touch_read                             0x0801e4dc   Section        0  touch_panel.o(i.touch_read)
    i.touch_scan                             0x0801e510   Section        0  touch_panel.o(i.touch_scan)
    i.touch_start                            0x0801e558   Section        0  touch_panel.o(i.touch_start)
    i.touch_write                            0x0801e57a   Section        0  touch_panel.o(i.touch_write)
    i.touchpad_read                          0x0801e5b8   Section        0  lv_port_indev.o(i.touchpad_read)
    touchpad_read                            0x0801e5b9   Thumb Code    84  lv_port_indev.o(i.touchpad_read)
    i.trans_anim_cb                          0x0801e61c   Section        0  lv_obj.o(i.trans_anim_cb)
    trans_anim_cb                            0x0801e61d   Thumb Code   228  lv_obj.o(i.trans_anim_cb)
    i.trans_anim_ready_cb                    0x0801e700   Section        0  lv_obj.o(i.trans_anim_ready_cb)
    trans_anim_ready_cb                      0x0801e701   Thumb Code   112  lv_obj.o(i.trans_anim_ready_cb)
    i.trans_anim_start_cb                    0x0801e774   Section        0  lv_obj.o(i.trans_anim_start_cb)
    trans_anim_start_cb                      0x0801e775   Thumb Code   112  lv_obj.o(i.trans_anim_start_cb)
    i.trans_create                           0x0801e7e4   Section        0  lv_obj.o(i.trans_create)
    trans_create                             0x0801e7e5   Thumb Code   864  lv_obj.o(i.trans_create)
    i.trans_del                              0x0801eb58   Section        0  lv_obj.o(i.trans_del)
    trans_del                                0x0801eb59   Thumb Code   126  lv_obj.o(i.trans_del)
    i.unicode_list_compare                   0x0801ebdc   Section        0  lv_font_fmt_txt.o(i.unicode_list_compare)
    unicode_list_compare                     0x0801ebdd   Thumb Code    10  lv_font_fmt_txt.o(i.unicode_list_compare)
    i.update_style_cache                     0x0801ebe8   Section        0  lv_obj.o(i.update_style_cache)
    update_style_cache                       0x0801ebe9   Thumb Code   760  lv_obj.o(i.update_style_cache)
    i.update_style_cache_children            0x0801eee4   Section        0  lv_obj.o(i.update_style_cache_children)
    update_style_cache_children              0x0801eee5   Thumb Code   242  lv_obj.o(i.update_style_cache_children)
    i.win_init                               0x0801efd6   Section        0  lv_theme_material.o(i.win_init)
    win_init                                 0x0801efd7   Thumb Code     2  lv_theme_material.o(i.win_init)
    .constdata                               0x0801efd8   Section        2  lv_obj.o(.constdata)
    .constdata                               0x0801efdc   Section       10  lv_draw_img.o(.constdata)
    .constdata                               0x0801efe8   Section      290  lv_draw_label.o(.constdata)
    .constdata                               0x0801f10a   Section       33  lv_draw_line.o(.constdata)
    wcorr                                    0x0801f10a   Data          33  lv_draw_line.o(.constdata)
    .constdata                               0x0801f12c   Section        2  lv_draw_rect.o(.constdata)
    .constdata                               0x0801f130   Section    13320  lv_font_montserrat_14.o(.constdata)
    gylph_bitmap                             0x0801f130   Data        8602  lv_font_montserrat_14.o(.constdata)
    glyph_dsc                                0x080212cc   Data        1240  lv_font_montserrat_14.o(.constdata)
    unicode_list_1                           0x080217a4   Data         118  lv_font_montserrat_14.o(.constdata)
    cmaps                                    0x0802181c   Data          40  lv_font_montserrat_14.o(.constdata)
    kern_left_class_mapping                  0x08021844   Data         155  lv_font_montserrat_14.o(.constdata)
    kern_right_class_mapping                 0x080218df   Data         155  lv_font_montserrat_14.o(.constdata)
    kern_class_values                        0x0802197a   Data        2989  lv_font_montserrat_14.o(.constdata)
    kern_classes                             0x08022528   Data          16  lv_font_montserrat_14.o(.constdata)
    .constdata                               0x08022538   Section    44712  lv_font_montserrat_32.o(.constdata)
    gylph_bitmap                             0x08022538   Data       39996  lv_font_montserrat_32.o(.constdata)
    glyph_dsc                                0x0802c174   Data        1240  lv_font_montserrat_32.o(.constdata)
    unicode_list_1                           0x0802c64c   Data         118  lv_font_montserrat_32.o(.constdata)
    cmaps                                    0x0802c6c4   Data          40  lv_font_montserrat_32.o(.constdata)
    kern_left_class_mapping                  0x0802c6ec   Data         155  lv_font_montserrat_32.o(.constdata)
    kern_right_class_mapping                 0x0802c787   Data         155  lv_font_montserrat_32.o(.constdata)
    kern_class_values                        0x0802c822   Data        2989  lv_font_montserrat_32.o(.constdata)
    kern_classes                             0x0802d3d0   Data          16  lv_font_montserrat_32.o(.constdata)
    .constdata                               0x0802d3e0   Section        6  lv_hal_disp.o(.constdata)
    .constdata                               0x0802d3e8   Section        8  lv_anim.o(.constdata)
    .constdata                               0x0802d3f0   Section        2  lv_color.o(.constdata)
    .constdata                               0x0802d3f2   Section       17  lv_debug.o(.constdata)
    hex                                      0x0802d3f2   Data          17  lv_debug.o(.constdata)
    .constdata                               0x0802d404   Section      182  lv_math.o(.constdata)
    sin0_90_table                            0x0802d404   Data         182  lv_math.o(.constdata)
    .constdata                               0x0802d4bc   Section       70  lv_theme_material.o(.constdata)
    .constdata                               0x0802d504   Section       10  lv_100ask_stm32_tool_clock.o(.constdata)
    .conststring                             0x0802d510   Section       81  lv_mem.o(.conststring)
    .data                                    0x20000000   Section        4  systick.o(.data)
    delay                                    0x20000000   Data           4  systick.o(.data)
    .data                                    0x20000004   Section        4  system_gd32f30x.o(.data)
    .data                                    0x20000008   Section        4  touch_panel.o(.data)
    .data                                    0x2000000c   Section       37  lv_port_indev.o(.data)
    encoder_diff                             0x20000020   Data           4  lv_port_indev.o(.data)
    encoder_state                            0x20000024   Data           1  lv_port_indev.o(.data)
    last_x                                   0x20000026   Data           2  lv_port_indev.o(.data)
    last_y                                   0x20000028   Data           2  lv_port_indev.o(.data)
    last_key                                 0x2000002c   Data           4  lv_port_indev.o(.data)
    last_btn                                 0x20000030   Data           1  lv_port_indev.o(.data)
    .data                                    0x20000034   Section        8  lv_indev.o(.data)
    indev_act                                0x20000034   Data           4  lv_indev.o(.data)
    indev_obj_act                            0x20000038   Data           4  lv_indev.o(.data)
    .data                                    0x2000003c   Section       12  lv_obj.o(.data)
    lv_initialized                           0x2000003c   Data           1  lv_obj.o(.data)
    event_temp_data_head                     0x20000040   Data           4  lv_obj.o(.data)
    event_act_data                           0x20000044   Data           4  lv_obj.o(.data)
    .data                                    0x20000048   Section        8  lv_refr.o(.data)
    px_num                                   0x20000048   Data           4  lv_refr.o(.data)
    disp_refr                                0x2000004c   Data           4  lv_refr.o(.data)
    .data                                    0x20000050   Section        8  lv_draw_label.o(.data)
    prev_opa                                 0x20000050   Data           1  lv_draw_label.o(.data)
    prev_bpp                                 0x20000054   Data           4  lv_draw_label.o(.data)
    .data                                    0x20000058   Section        2  lv_img_cache.o(.data)
    entry_cnt                                0x20000058   Data           2  lv_img_cache.o(.data)
    .data                                    0x2000005c   Section       12  lv_font_fmt_txt.o(.data)
    rle_rdp                                  0x2000005c   Data           4  lv_font_fmt_txt.o(.data)
    rle_in                                   0x20000060   Data           4  lv_font_fmt_txt.o(.data)
    rle_bpp                                  0x20000064   Data           1  lv_font_fmt_txt.o(.data)
    rle_prev_v                               0x20000065   Data           1  lv_font_fmt_txt.o(.data)
    rle_cnt                                  0x20000066   Data           1  lv_font_fmt_txt.o(.data)
    rle_state                                0x20000067   Data           1  lv_font_fmt_txt.o(.data)
    .data                                    0x20000068   Section       48  lv_font_montserrat_14.o(.data)
    font_dsc                                 0x20000068   Data          28  lv_font_montserrat_14.o(.data)
    .data                                    0x20000098   Section       48  lv_font_montserrat_32.o(.data)
    font_dsc                                 0x20000098   Data          28  lv_font_montserrat_32.o(.data)
    .data                                    0x200000c8   Section        4  lv_hal_disp.o(.data)
    disp_def                                 0x200000c8   Data           4  lv_hal_disp.o(.data)
    .data                                    0x200000cc   Section        5  lv_hal_tick.o(.data)
    sys_time                                 0x200000cc   Data           4  lv_hal_tick.o(.data)
    tick_irq_flag                            0x200000d0   Data           1  lv_hal_tick.o(.data)
    .data                                    0x200000d4   Section       12  lv_anim.o(.data)
    last_task_run                            0x200000d4   Data           4  lv_anim.o(.data)
    anim_list_changed                        0x200000d8   Data           1  lv_anim.o(.data)
    anim_run_round                           0x200000d9   Data           1  lv_anim.o(.data)
    _lv_anim_task                            0x200000dc   Data           4  lv_anim.o(.data)
    .data                                    0x200000e0   Section       28  lv_gc.o(.data)
    .data                                    0x200000fc   Section       30  lv_mem.o(.data)
    work_mem                                 0x200000fc   Data           4  lv_mem.o(.data)
    zero_mem                                 0x20000100   Data           4  lv_mem.o(.data)
    mem_max_size                             0x20000104   Data           4  lv_mem.o(.data)
    mem_buf_small                            0x20000108   Data          16  lv_mem.o(.data)
    full_defrag_cnt                          0x20000118   Data           2  lv_mem.o(.data)
    .data                                    0x2000011c   Section       16  lv_task.o(.data)
    lv_task_run                              0x2000011c   Data           1  lv_task.o(.data)
    idle_last                                0x2000011d   Data           1  lv_task.o(.data)
    task_deleted                             0x2000011e   Data           1  lv_task.o(.data)
    task_list_changed                        0x2000011f   Data           1  lv_task.o(.data)
    task_created                             0x20000120   Data           1  lv_task.o(.data)
    already_running                          0x20000121   Data           1  lv_task.o(.data)
    idle_period_start                        0x20000124   Data           4  lv_task.o(.data)
    busy_time                                0x20000128   Data           4  lv_task.o(.data)
    .data                                    0x2000012c   Section       32  lv_txt.o(.data)
    .data                                    0x2000014c   Section        4  lv_theme.o(.data)
    act_theme                                0x2000014c   Data           4  lv_theme.o(.data)
    .data                                    0x20000150   Section        4  lv_theme_material.o(.data)
    styles                                   0x20000150   Data           4  lv_theme_material.o(.data)
    .data                                    0x20000154   Section        8  lv_gauge.o(.data)
    ancestor_design                          0x20000154   Data           4  lv_gauge.o(.data)
    ancestor_signal                          0x20000158   Data           4  lv_gauge.o(.data)
    .data                                    0x2000015c   Section        4  lv_label.o(.data)
    ancestor_signal                          0x2000015c   Data           4  lv_label.o(.data)
    .data                                    0x20000160   Section        4  lv_linemeter.o(.data)
    ancestor_signal                          0x20000160   Data           4  lv_linemeter.o(.data)
    .data                                    0x20000164   Section       20  lv_100ask_stm32_tool_clock.o(.data)
    g_pt_lv_100ask_clock                     0x20000164   Data           4  lv_100ask_stm32_tool_clock.o(.data)
    needle_colors                            0x20000168   Data           6  lv_100ask_stm32_tool_clock.o(.data)
    hours                                    0x20000170   Data           4  lv_100ask_stm32_tool_clock.o(.data)
    minutes                                  0x20000174   Data           4  lv_100ask_stm32_tool_clock.o(.data)
    .data                                    0x20000178   Section     2712  img_hand.o(.data)
    .data                                    0x20000c10   Section        4  mvars.o(.data)
    .data                                    0x20000c14   Section        4  mvars.o(.data)
    .bss                                     0x20000c18   Section       14  gd32f303e_lcd_ili9341.o(.bss)
    .bss                                     0x20000c28   Section     4836  lv_port_disp.o(.bss)
    disp_buf_1                               0x20000c28   Data          36  lv_port_disp.o(.bss)
    buf1_1                                   0x20000c4c   Data        4800  lv_port_disp.o(.bss)
    .bss                                     0x20001f0c   Section      480  lv_draw_blend.o(.bss)
    blend_buf                                0x20001f0c   Data         480  lv_draw_blend.o(.bss)
    .bss                                     0x200020ec   Section      256  lv_draw_label.o(.bss)
    opa_table                                0x200020ec   Data         256  lv_draw_label.o(.bss)
    .bss                                     0x200021ec   Section      364  lv_gc.o(.bss)
    .bss                                     0x20002358   Section    32800  lv_mem.o(.bss)
    mem_buf1_32                              0x20002358   Data          16  lv_mem.o(.bss)
    mem_buf2_32                              0x20002368   Data          16  lv_mem.o(.bss)
    work_mem_int                             0x20002378   Data       32768  lv_mem.o(.bss)
    .bss                                     0x2000a378   Section       40  lv_theme_material.o(.bss)
    theme                                    0x2000a378   Data          40  lv_theme_material.o(.bss)
    HEAP                                     0x2000a3a0   Section     1024  startup_gd32f30x_hd.o(HEAP)
    STACK                                    0x2000a7a0   Section     1024  startup_gd32f30x_hd.o(STACK)

    Global Symbols

    Symbol Name                              Value     Ov Type        Size  Object(Section)

    BuildAttributes$$THM_ISAv4$E$P$D$K$B$S$7EM$VFPi3$EXTD16$VFPS$VFMA$PE$A:L22UL41UL21$X:L11$S22US41US21$IEEE1$IW$USESV6$~STKCKD$USESV7$~SHL$OSPACE$EBA8$MICROLIB$REQ8$PRES8$EABIv2 0x00000000   Number         0  anon$$obj.o ABSOLUTE
    __ARM_use_no_argv                        0x00000000   Number         0  main.o ABSOLUTE
    __cpp_initialize__aeabi_                  - Undefined Weak Reference
    __cxa_finalize                            - Undefined Weak Reference
    _clock_init                               - Undefined Weak Reference
    _microlib_exit                            - Undefined Weak Reference
    __Vectors_Size                           0x00000130   Number         0  startup_gd32f30x_hd.o ABSOLUTE
    __Vectors                                0x08000000   Data           4  startup_gd32f30x_hd.o(RESET)
    __Vectors_End                            0x08000130   Data           0  startup_gd32f30x_hd.o(RESET)
    __main                                   0x08000131   Thumb Code     0  entry.o(.ARM.Collect$$$$00000000)
    _main_stk                                0x08000131   Thumb Code     0  entry2.o(.ARM.Collect$$$$00000001)
    _main_scatterload                        0x08000135   Thumb Code     0  entry5.o(.ARM.Collect$$$$00000004)
    __main_after_scatterload                 0x08000139   Thumb Code     0  entry5.o(.ARM.Collect$$$$00000004)
    _main_clock                              0x08000139   Thumb Code     0  entry7b.o(.ARM.Collect$$$$00000008)
    _main_cpp_init                           0x08000139   Thumb Code     0  entry8b.o(.ARM.Collect$$$$0000000A)
    _main_init                               0x08000139   Thumb Code     0  entry9a.o(.ARM.Collect$$$$0000000B)
    __rt_final_cpp                           0x08000141   Thumb Code     0  entry10a.o(.ARM.Collect$$$$0000000D)
    __rt_final_exit                          0x08000141   Thumb Code     0  entry11a.o(.ARM.Collect$$$$0000000F)
    Reset_Handler                            0x08000145   Thumb Code     8  startup_gd32f30x_hd.o(.text)
    ADC0_1_IRQHandler                        0x0800015f   Thumb Code     0  startup_gd32f30x_hd.o(.text)
    ADC2_IRQHandler                          0x0800015f   Thumb Code     0  startup_gd32f30x_hd.o(.text)
    CAN0_EWMC_IRQHandler                     0x0800015f   Thumb Code     0  startup_gd32f30x_hd.o(.text)
    CAN0_RX1_IRQHandler                      0x0800015f   Thumb Code     0  startup_gd32f30x_hd.o(.text)
    DMA0_Channel0_IRQHandler                 0x0800015f   Thumb Code     0  startup_gd32f30x_hd.o(.text)
    DMA0_Channel1_IRQHandler                 0x0800015f   Thumb Code     0  startup_gd32f30x_hd.o(.text)
    DMA0_Channel2_IRQHandler                 0x0800015f   Thumb Code     0  startup_gd32f30x_hd.o(.text)
    DMA0_Channel3_IRQHandler                 0x0800015f   Thumb Code     0  startup_gd32f30x_hd.o(.text)
    DMA0_Channel4_IRQHandler                 0x0800015f   Thumb Code     0  startup_gd32f30x_hd.o(.text)
    DMA0_Channel5_IRQHandler                 0x0800015f   Thumb Code     0  startup_gd32f30x_hd.o(.text)
    DMA0_Channel6_IRQHandler                 0x0800015f   Thumb Code     0  startup_gd32f30x_hd.o(.text)
    DMA1_Channel0_IRQHandler                 0x0800015f   Thumb Code     0  startup_gd32f30x_hd.o(.text)
    DMA1_Channel1_IRQHandler                 0x0800015f   Thumb Code     0  startup_gd32f30x_hd.o(.text)
    DMA1_Channel2_IRQHandler                 0x0800015f   Thumb Code     0  startup_gd32f30x_hd.o(.text)
    DMA1_Channel3_4_IRQHandler               0x0800015f   Thumb Code     0  startup_gd32f30x_hd.o(.text)
    EXMC_IRQHandler                          0x0800015f   Thumb Code     0  startup_gd32f30x_hd.o(.text)
    EXTI0_IRQHandler                         0x0800015f   Thumb Code     0  startup_gd32f30x_hd.o(.text)
    EXTI10_15_IRQHandler                     0x0800015f   Thumb Code     0  startup_gd32f30x_hd.o(.text)
    EXTI1_IRQHandler                         0x0800015f   Thumb Code     0  startup_gd32f30x_hd.o(.text)
    EXTI2_IRQHandler                         0x0800015f   Thumb Code     0  startup_gd32f30x_hd.o(.text)
    EXTI3_IRQHandler                         0x0800015f   Thumb Code     0  startup_gd32f30x_hd.o(.text)
    EXTI4_IRQHandler                         0x0800015f   Thumb Code     0  startup_gd32f30x_hd.o(.text)
    EXTI5_9_IRQHandler                       0x0800015f   Thumb Code     0  startup_gd32f30x_hd.o(.text)
    FMC_IRQHandler                           0x0800015f   Thumb Code     0  startup_gd32f30x_hd.o(.text)
    I2C0_ER_IRQHandler                       0x0800015f   Thumb Code     0  startup_gd32f30x_hd.o(.text)
    I2C0_EV_IRQHandler                       0x0800015f   Thumb Code     0  startup_gd32f30x_hd.o(.text)
    I2C1_ER_IRQHandler                       0x0800015f   Thumb Code     0  startup_gd32f30x_hd.o(.text)
    I2C1_EV_IRQHandler                       0x0800015f   Thumb Code     0  startup_gd32f30x_hd.o(.text)
    LVD_IRQHandler                           0x0800015f   Thumb Code     0  startup_gd32f30x_hd.o(.text)
    RCU_CTC_IRQHandler                       0x0800015f   Thumb Code     0  startup_gd32f30x_hd.o(.text)
    RTC_Alarm_IRQHandler                     0x0800015f   Thumb Code     0  startup_gd32f30x_hd.o(.text)
    RTC_IRQHandler                           0x0800015f   Thumb Code     0  startup_gd32f30x_hd.o(.text)
    SDIO_IRQHandler                          0x0800015f   Thumb Code     0  startup_gd32f30x_hd.o(.text)
    SPI0_IRQHandler                          0x0800015f   Thumb Code     0  startup_gd32f30x_hd.o(.text)
    SPI1_IRQHandler                          0x0800015f   Thumb Code     0  startup_gd32f30x_hd.o(.text)
    SPI2_IRQHandler                          0x0800015f   Thumb Code     0  startup_gd32f30x_hd.o(.text)
    TAMPER_IRQHandler                        0x0800015f   Thumb Code     0  startup_gd32f30x_hd.o(.text)
    TIMER0_BRK_IRQHandler                    0x0800015f   Thumb Code     0  startup_gd32f30x_hd.o(.text)
    TIMER0_Channel_IRQHandler                0x0800015f   Thumb Code     0  startup_gd32f30x_hd.o(.text)
    TIMER0_TRG_CMT_IRQHandler                0x0800015f   Thumb Code     0  startup_gd32f30x_hd.o(.text)
    TIMER0_UP_IRQHandler                     0x0800015f   Thumb Code     0  startup_gd32f30x_hd.o(.text)
    TIMER2_IRQHandler                        0x0800015f   Thumb Code     0  startup_gd32f30x_hd.o(.text)
    TIMER3_IRQHandler                        0x0800015f   Thumb Code     0  startup_gd32f30x_hd.o(.text)
    TIMER4_IRQHandler                        0x0800015f   Thumb Code     0  startup_gd32f30x_hd.o(.text)
    TIMER5_IRQHandler                        0x0800015f   Thumb Code     0  startup_gd32f30x_hd.o(.text)
    TIMER6_IRQHandler                        0x0800015f   Thumb Code     0  startup_gd32f30x_hd.o(.text)
    TIMER7_BRK_IRQHandler                    0x0800015f   Thumb Code     0  startup_gd32f30x_hd.o(.text)
    TIMER7_Channel_IRQHandler                0x0800015f   Thumb Code     0  startup_gd32f30x_hd.o(.text)
    TIMER7_TRG_CMT_IRQHandler                0x0800015f   Thumb Code     0  startup_gd32f30x_hd.o(.text)
    TIMER7_UP_IRQHandler                     0x0800015f   Thumb Code     0  startup_gd32f30x_hd.o(.text)
    UART3_IRQHandler                         0x0800015f   Thumb Code     0  startup_gd32f30x_hd.o(.text)
    UART4_IRQHandler                         0x0800015f   Thumb Code     0  startup_gd32f30x_hd.o(.text)
    USART0_IRQHandler                        0x0800015f   Thumb Code     0  startup_gd32f30x_hd.o(.text)
    USART1_IRQHandler                        0x0800015f   Thumb Code     0  startup_gd32f30x_hd.o(.text)
    USART2_IRQHandler                        0x0800015f   Thumb Code     0  startup_gd32f30x_hd.o(.text)
    USBD_HP_CAN0_TX_IRQHandler               0x0800015f   Thumb Code     0  startup_gd32f30x_hd.o(.text)
    USBD_LP_CAN0_RX0_IRQHandler              0x0800015f   Thumb Code     0  startup_gd32f30x_hd.o(.text)
    USBD_WKUP_IRQHandler                     0x0800015f   Thumb Code     0  startup_gd32f30x_hd.o(.text)
    WWDGT_IRQHandler                         0x0800015f   Thumb Code     0  startup_gd32f30x_hd.o(.text)
    __aeabi_uldivmod                         0x08000169   Thumb Code    98  uldiv.o(.text)
    __aeabi_memset                           0x080001cb   Thumb Code    14  memseta.o(.text)
    __aeabi_memset4                          0x080001cb   Thumb Code     0  memseta.o(.text)
    __aeabi_memset8                          0x080001cb   Thumb Code     0  memseta.o(.text)
    __aeabi_memclr                           0x080001d9   Thumb Code     4  memseta.o(.text)
    __aeabi_memclr4                          0x080001d9   Thumb Code     0  memseta.o(.text)
    __aeabi_memclr8                          0x080001d9   Thumb Code     0  memseta.o(.text)
    _memset$wrapper                          0x080001dd   Thumb Code    18  memseta.o(.text)
    strcat                                   0x080001ef   Thumb Code    24  strcat.o(.text)
    strlen                                   0x08000207   Thumb Code    14  strlen.o(.text)
    strcmp                                   0x08000215   Thumb Code    28  strcmp.o(.text)
    memcmp                                   0x08000231   Thumb Code    26  memcmp.o(.text)
    strcpy                                   0x0800024b   Thumb Code    18  strcpy.o(.text)
    __aeabi_llsl                             0x0800025d   Thumb Code    30  llshl.o(.text)
    _ll_shift_l                              0x0800025d   Thumb Code     0  llshl.o(.text)
    __aeabi_llsr                             0x0800027b   Thumb Code    32  llushr.o(.text)
    _ll_ushift_r                             0x0800027b   Thumb Code     0  llushr.o(.text)
    __scatterload                            0x0800029d   Thumb Code    28  init.o(.text)
    __scatterload_rt2                        0x0800029d   Thumb Code     0  init.o(.text)
    __decompress                             0x080002c1   Thumb Code     0  __dczerorl2.o(.text)
    __decompress1                            0x080002c1   Thumb Code    86  __dczerorl2.o(.text)
    BusFault_Handler                         0x08000317   Thumb Code     4  gd32f30x_it.o(i.BusFault_Handler)
    DebugMon_Handler                         0x0800031b   Thumb Code     2  gd32f30x_it.o(i.DebugMon_Handler)
    HardFault_Handler                        0x0800031d   Thumb Code     4  gd32f30x_it.o(i.HardFault_Handler)
    LCD_Color_Fill                           0x08000321   Thumb Code    96  gd32f303e_lcd_ili9341.o(i.LCD_Color_Fill)
    LCD_SetCursor                            0x08000385   Thumb Code    52  gd32f303e_lcd_ili9341.o(i.LCD_SetCursor)
    LCD_SetParam                             0x080003bd   Thumb Code    40  gd32f303e_lcd_ili9341.o(i.LCD_SetParam)
    LCD_WR_DATA                              0x080003e9   Thumb Code    12  gd32f303e_lcd_ili9341.o(i.LCD_WR_DATA)
    LCD_WR_REG                               0x080003f5   Thumb Code    12  gd32f303e_lcd_ili9341.o(i.LCD_WR_REG)
    LCD_WriteRAM_Prepare                     0x08000401   Thumb Code    12  gd32f303e_lcd_ili9341.o(i.LCD_WriteRAM_Prepare)
    LCD_WriteReg                             0x08000411   Thumb Code    16  gd32f303e_lcd_ili9341.o(i.LCD_WriteReg)
    LCD_Write_Cmd                            0x08000421   Thumb Code    10  gd32f303e_lcd_ili9341.o(i.LCD_Write_Cmd)
    LCD_Write_Data                           0x0800042b   Thumb Code    10  gd32f303e_lcd_ili9341.o(i.LCD_Write_Data)
    MemManage_Handler                        0x08000435   Thumb Code     4  gd32f30x_it.o(i.MemManage_Handler)
    NMI_Handler                              0x08000439   Thumb Code     2  gd32f30x_it.o(i.NMI_Handler)
    PendSV_Handler                           0x08000465   Thumb Code     2  gd32f30x_it.o(i.PendSV_Handler)
    SVC_Handler                              0x08000467   Thumb Code     2  gd32f30x_it.o(i.SVC_Handler)
    SysTick_Handler                          0x08000469   Thumb Code     8  gd32f30x_it.o(i.SysTick_Handler)
    SystemInit                               0x08000471   Thumb Code    66  system_gd32f30x.o(i.SystemInit)
    TIMER1_IRQHandler                        0x080004c1   Thumb Code    28  timer.o(i.TIMER1_IRQHandler)
    UsageFault_Handler                       0x080004dd   Thumb Code     4  gd32f30x_it.o(i.UsageFault_Handler)
    __scatterload_copy                       0x080004e1   Thumb Code    14  handlers.o(i.__scatterload_copy)
    __scatterload_null                       0x080004ef   Thumb Code     2  handlers.o(i.__scatterload_null)
    __scatterload_zeroinit                   0x080004f1   Thumb Code    14  handlers.o(i.__scatterload_zeroinit)
    _lv_anim_core_init                       0x0800053d   Thumb Code    38  lv_anim.o(i._lv_anim_core_init)
    _lv_area_align                           0x08000575   Thumb Code   868  lv_area.o(i._lv_area_align)
    _lv_area_intersect                       0x080008d9   Thumb Code   130  lv_area.o(i._lv_area_intersect)
    _lv_area_is_in                           0x0800095b   Thumb Code   188  lv_area.o(i._lv_area_is_in)
    _lv_area_is_on                           0x08000a17   Thumb Code    58  lv_area.o(i._lv_area_is_on)
    _lv_area_is_point_on                     0x08000a51   Thumb Code   402  lv_area.o(i._lv_area_is_point_on)
    _lv_area_join                            0x08000be3   Thumb Code   100  lv_area.o(i._lv_area_join)
    _lv_blend_fill                           0x08000c47   Thumb Code   266  lv_draw_blend.o(i._lv_blend_fill)
    _lv_blend_map                            0x08000d51   Thumb Code   276  lv_draw_blend.o(i._lv_blend_map)
    _lv_disp_pop_from_inv_buf                0x08000e65   Thumb Code    46  lv_hal_disp.o(i._lv_disp_pop_from_inv_buf)
    _lv_disp_refr_task                       0x08000e95   Thumb Code   454  lv_refr.o(i._lv_disp_refr_task)
    _lv_font_clean_up_fmt_txt                0x08001065   Thumb Code    24  lv_font_fmt_txt.o(i._lv_font_clean_up_fmt_txt)
    _lv_fs_init                              0x08001081   Thumb Code    12  lv_fs.o(i._lv_fs_init)
    _lv_group_init                           0x08001091   Thumb Code    12  lv_group.o(i._lv_group_init)
    _lv_img_buf_get_transformed_area         0x080010a1   Thumb Code   878  lv_img_buf.o(i._lv_img_buf_get_transformed_area)
    _lv_img_buf_transform_anti_alias         0x080015e1   Thumb Code   824  lv_img_buf.o(i._lv_img_buf_transform_anti_alias)
    _lv_img_buf_transform_init               0x08001919   Thumb Code   296  lv_img_buf.o(i._lv_img_buf_transform_init)
    _lv_img_cache_open                       0x08001a41   Thumb Code   372  lv_img_cache.o(i._lv_img_cache_open)
    _lv_img_decoder_init                     0x08001bc1   Thumb Code    82  lv_img_decoder.o(i._lv_img_decoder_init)
    _lv_indev_init                           0x08001c39   Thumb Code    12  lv_indev.o(i._lv_indev_init)
    _lv_indev_read                           0x08001c45   Thumb Code    76  lv_hal_indev.o(i._lv_indev_read)
    _lv_indev_read_task                      0x08001c91   Thumb Code   250  lv_indev.o(i._lv_indev_read_task)
    _lv_inv_area                             0x08001d95   Thumb Code   252  lv_refr.o(i._lv_inv_area)
    _lv_ll_chg_list                          0x08001e91   Thumb Code   112  lv_ll.o(i._lv_ll_chg_list)
    _lv_ll_get_head                          0x08001f01   Thumb Code    10  lv_ll.o(i._lv_ll_get_head)
    _lv_ll_get_len                           0x08001f0b   Thumb Code    36  lv_ll.o(i._lv_ll_get_len)
    _lv_ll_get_next                          0x08001f2f   Thumb Code    20  lv_ll.o(i._lv_ll_get_next)
    _lv_ll_get_prev                          0x08001f43   Thumb Code    18  lv_ll.o(i._lv_ll_get_prev)
    _lv_ll_get_tail                          0x08001f55   Thumb Code    10  lv_ll.o(i._lv_ll_get_tail)
    _lv_ll_init                              0x08001f5f   Thumb Code    16  lv_ll.o(i._lv_ll_init)
    _lv_ll_ins_head                          0x08001f6f   Thumb Code    64  lv_ll.o(i._lv_ll_ins_head)
    _lv_ll_ins_prev                          0x08001faf   Thumb Code   116  lv_ll.o(i._lv_ll_ins_prev)
    _lv_ll_ins_tail                          0x08002023   Thumb Code    64  lv_ll.o(i._lv_ll_ins_tail)
    _lv_ll_is_empty                          0x08002063   Thumb Code    24  lv_ll.o(i._lv_ll_is_empty)
    _lv_ll_move_before                       0x0800207b   Thumb Code   106  lv_ll.o(i._lv_ll_move_before)
    _lv_ll_remove                            0x080020e5   Thumb Code   138  lv_ll.o(i._lv_ll_remove)
    _lv_map                                  0x0800216f   Thumb Code    38  lv_math.o(i._lv_map)
    _lv_mem_buf_free_all                     0x08002195   Thumb Code    78  lv_mem.o(i._lv_mem_buf_free_all)
    _lv_mem_buf_get                          0x080021ed   Thumb Code   290  lv_mem.o(i._lv_mem_buf_get)
    _lv_mem_buf_release                      0x0800234d   Thumb Code    74  lv_mem.o(i._lv_mem_buf_release)
    _lv_mem_get_size                         0x080023a1   Thumb Code    26  lv_mem.o(i._lv_mem_get_size)
    _lv_mem_init                             0x080023c1   Thumb Code    32  lv_mem.o(i._lv_mem_init)
    _lv_memcpy                               0x080023e9   Thumb Code   632  lv_mem.o(i._lv_memcpy)
    _lv_memset                               0x080026d9   Thumb Code   116  lv_mem.o(i._lv_memset)
    _lv_memset_00                            0x0800274d   Thumb Code   110  lv_mem.o(i._lv_memset_00)
    _lv_memset_ff                            0x080027bb   Thumb Code   114  lv_mem.o(i._lv_memset_ff)
    _lv_obj_disable_style_caching            0x0800282d   Thumb Code    84  lv_obj.o(i._lv_obj_disable_style_caching)
    _lv_obj_get_style_color                  0x08002881   Thumb Code   152  lv_obj.o(i._lv_obj_get_style_color)
    _lv_obj_get_style_int                    0x0800291d   Thumb Code   644  lv_obj.o(i._lv_obj_get_style_int)
    _lv_obj_get_style_opa                    0x08002ba1   Thumb Code   278  lv_obj.o(i._lv_obj_get_style_opa)
    _lv_obj_get_style_ptr                    0x08002cb9   Thumb Code   264  lv_obj.o(i._lv_obj_get_style_ptr)
    _lv_obj_set_style_local_color            0x08002dc5   Thumb Code    58  lv_obj.o(i._lv_obj_set_style_local_color)
    _lv_obj_set_style_local_opa              0x08002dff   Thumb Code    60  lv_obj.o(i._lv_obj_set_style_local_opa)
    _lv_obj_set_style_local_ptr              0x08002e3b   Thumb Code    60  lv_obj.o(i._lv_obj_set_style_local_ptr)
    _lv_refr_get_disp_refreshing             0x08002e79   Thumb Code     6  lv_refr.o(i._lv_refr_get_disp_refreshing)
    _lv_refr_init                            0x08002e85   Thumb Code     2  lv_refr.o(i._lv_refr_init)
    _lv_sqrt                                 0x08002e87   Thumb Code    40  lv_math.o(i._lv_sqrt)
    _lv_style_get_color                      0x08002eaf   Thumb Code    90  lv_style.o(i._lv_style_get_color)
    _lv_style_get_int                        0x08002f09   Thumb Code    90  lv_style.o(i._lv_style_get_int)
    _lv_style_get_mem_size                   0x08002f63   Thumb Code    46  lv_style.o(i._lv_style_get_mem_size)
    _lv_style_get_opa                        0x08002f91   Thumb Code    90  lv_style.o(i._lv_style_get_opa)
    _lv_style_get_ptr                        0x08002feb   Thumb Code    90  lv_style.o(i._lv_style_get_ptr)
    _lv_style_list_add_style                 0x08003045   Thumb Code   162  lv_style.o(i._lv_style_list_add_style)
    _lv_style_list_add_trans_style           0x080030f9   Thumb Code   114  lv_style.o(i._lv_style_list_add_trans_style)
    _lv_style_list_get_color                 0x0800317d   Thumb Code   152  lv_style.o(i._lv_style_list_get_color)
    _lv_style_list_get_int                   0x08003215   Thumb Code   152  lv_style.o(i._lv_style_list_get_int)
    _lv_style_list_get_opa                   0x080032ad   Thumb Code   152  lv_style.o(i._lv_style_list_get_opa)
    _lv_style_list_get_ptr                   0x08003345   Thumb Code   142  lv_style.o(i._lv_style_list_get_ptr)
    _lv_style_list_get_transition_style      0x080033d3   Thumb Code    20  lv_style.o(i._lv_style_list_get_transition_style)
    _lv_style_list_remove_style              0x080033e9   Thumb Code   228  lv_style.o(i._lv_style_list_remove_style)
    _lv_style_list_reset                     0x080034dd   Thumb Code   128  lv_style.o(i._lv_style_list_reset)
    _lv_style_list_set_local_color           0x0800355d   Thumb Code    26  lv_style.o(i._lv_style_list_set_local_color)
    _lv_style_list_set_local_opa             0x08003577   Thumb Code    32  lv_style.o(i._lv_style_list_set_local_opa)
    _lv_style_list_set_local_ptr             0x08003597   Thumb Code    32  lv_style.o(i._lv_style_list_set_local_ptr)
    _lv_style_set_color                      0x080035b9   Thumb Code   192  lv_style.o(i._lv_style_set_color)
    _lv_style_set_int                        0x08003689   Thumb Code   192  lv_style.o(i._lv_style_set_int)
    _lv_style_set_opa                        0x08003759   Thumb Code   192  lv_style.o(i._lv_style_set_opa)
    _lv_style_set_ptr                        0x08003829   Thumb Code   192  lv_style.o(i._lv_style_set_ptr)
    _lv_task_core_init                       0x080038f9   Thumb Code    18  lv_task.o(i._lv_task_core_init)
    _lv_trigo_sin                            0x08003911   Thumb Code   106  lv_math.o(i._lv_trigo_sin)
    _lv_txt_get_next_line                    0x08003981   Thumb Code   240  lv_txt.o(i._lv_txt_get_next_line)
    _lv_txt_get_size                         0x08003a75   Thumb Code   222  lv_txt.o(i._lv_txt_get_size)
    _lv_txt_get_width                        0x08003b55   Thumb Code   148  lv_txt.o(i._lv_txt_get_width)
    _lv_txt_is_cmd                           0x08003bed   Thumb Code    66  lv_txt.o(i._lv_txt_is_cmd)
    _lv_txt_set_text_vfmt                    0x08003c35   Thumb Code    92  lv_txt.o(i._lv_txt_set_text_vfmt)
    _lv_utils_bsearch                        0x08003ca1   Thumb Code    84  lv_utils.o(i._lv_utils_bsearch)
    _lv_utils_num_to_str                     0x08003cf5   Thumb Code   128  lv_utils.o(i._lv_utils_num_to_str)
    delay_1ms                                0x080074a9   Thumb Code    16  systick.o(i.delay_1ms)
    delay_decrement                          0x080074bd   Thumb Code    18  systick.o(i.delay_decrement)
    exmc_lcd_init                            0x0800af91   Thumb Code   186  gd32f303e_lcd_ili9341.o(i.exmc_lcd_init)
    exmc_norsram_enable                      0x0800b059   Thumb Code    22  gd32f30x_exmc.o(i.exmc_norsram_enable)
    exmc_norsram_init                        0x0800b071   Thumb Code   280  gd32f30x_exmc.o(i.exmc_norsram_init)
    gpio_bit_reset                           0x0800c319   Thumb Code     4  gd32f30x_gpio.o(i.gpio_bit_reset)
    gpio_bit_set                             0x0800c31d   Thumb Code     4  gd32f30x_gpio.o(i.gpio_bit_set)
    gpio_init                                0x0800c321   Thumb Code   164  gd32f30x_gpio.o(i.gpio_init)
    gpio_input_bit_get                       0x0800c3c5   Thumb Code    16  gd32f30x_gpio.o(i.gpio_input_bit_get)
    lcd_command_write                        0x0800decf   Thumb Code     8  gd32f303e_lcd_ili9341.o(i.lcd_command_write)
    lcd_gram_write                           0x0800ded7   Thumb Code     8  gd32f303e_lcd_ili9341.o(i.lcd_gram_write)
    lcd_init                                 0x0800dedf   Thumb Code   590  gd32f303e_lcd_ili9341.o(i.lcd_init)
    lcd_register_write                       0x0800e12d   Thumb Code    14  gd32f303e_lcd_ili9341.o(i.lcd_register_write)
    lv_100ask_stm32_tool_clock               0x0800f079   Thumb Code    94  lv_100ask_stm32_tool_clock.o(i.lv_100ask_stm32_tool_clock)
    lv_anim_del                              0x0800f3f9   Thumb Code    80  lv_anim.o(i.lv_anim_del)
    lv_anim_get                              0x0800f44d   Thumb Code    50  lv_anim.o(i.lv_anim_get)
    lv_anim_init                             0x0800f485   Thumb Code    76  lv_anim.o(i.lv_anim_init)
    lv_anim_path_linear                      0x0800f4d5   Thumb Code    46  lv_anim.o(i.lv_anim_path_linear)
    lv_anim_speed_to_time                    0x0800f53d   Thumb Code    34  lv_anim.o(i.lv_anim_speed_to_time)
    lv_anim_start                            0x0800f561   Thumb Code   136  lv_anim.o(i.lv_anim_start)
    lv_area_get_size                         0x0800f6ff   Thumb Code    34  lv_area.o(i.lv_area_get_size)
    lv_area_set                              0x0800f7ad   Thumb Code    14  lv_area.o(i.lv_area_set)
    lv_area_set_height                       0x0800f7bb   Thumb Code    12  lv_area.o(i.lv_area_set_height)
    lv_color_darken                          0x0800f7c7   Thumb Code    32  lv_color.o(i.lv_color_darken)
    lv_color_fill                            0x0800f7e7   Thumb Code    92  lv_color.o(i.lv_color_fill)
    lv_color_lighten                         0x0800f8d9   Thumb Code    34  lv_color.o(i.lv_color_lighten)
    lv_debug_check_null                      0x0800ff4d   Thumb Code    12  lv_debug.o(i.lv_debug_check_null)
    lv_debug_log_error                       0x0800ff59   Thumb Code   120  lv_debug.o(i.lv_debug_log_error)
    lv_disp_buf_init                         0x0800ffd5   Thumb Code    34  lv_hal_disp.o(i.lv_disp_buf_init)
    lv_disp_drv_init                         0x0800fff9   Thumb Code    88  lv_hal_disp.o(i.lv_disp_drv_init)
    lv_disp_drv_register                     0x08010055   Thumb Code   280  lv_hal_disp.o(i.lv_disp_drv_register)
    lv_disp_flush_ready                      0x0801018d   Thumb Code    12  lv_hal_disp.o(i.lv_disp_flush_ready)
    lv_disp_get_buf                          0x08010199   Thumb Code     6  lv_hal_disp.o(i.lv_disp_get_buf)
    lv_disp_get_default                      0x080101a1   Thumb Code     6  lv_hal_disp.o(i.lv_disp_get_default)
    lv_disp_get_dpi                          0x080101ad   Thumb Code    26  lv_hal_disp.o(i.lv_disp_get_dpi)
    lv_disp_get_hor_res                      0x080101c7   Thumb Code    48  lv_hal_disp.o(i.lv_disp_get_hor_res)
    lv_disp_get_inv_buf_size                 0x080101f7   Thumb Code    12  lv_hal_disp.o(i.lv_disp_get_inv_buf_size)
    lv_disp_get_layer_sys                    0x08010203   Thumb Code    22  lv_disp.o(i.lv_disp_get_layer_sys)
    lv_disp_get_layer_top                    0x08010219   Thumb Code    22  lv_disp.o(i.lv_disp_get_layer_top)
    lv_disp_get_next                         0x08010231   Thumb Code    24  lv_hal_disp.o(i.lv_disp_get_next)
    lv_disp_get_scr_act                      0x0801024d   Thumb Code    22  lv_disp.o(i.lv_disp_get_scr_act)
    lv_disp_get_scr_prev                     0x08010263   Thumb Code    22  lv_disp.o(i.lv_disp_get_scr_prev)
    lv_disp_get_size_category                0x08010279   Thumb Code    72  lv_hal_disp.o(i.lv_disp_get_size_category)
    lv_disp_get_ver_res                      0x080102c1   Thumb Code    50  lv_hal_disp.o(i.lv_disp_get_ver_res)
    lv_disp_is_double_buf                    0x080102f3   Thumb Code    22  lv_hal_disp.o(i.lv_disp_is_double_buf)
    lv_disp_is_true_double_buf               0x08010309   Thumb Code    36  lv_hal_disp.o(i.lv_disp_is_true_double_buf)
    lv_draw_arc                              0x0801032d   Thumb Code   568  lv_draw_arc.o(i.lv_draw_arc)
    lv_draw_img                              0x08010565   Thumb Code    68  lv_draw_img.o(i.lv_draw_img)
    lv_draw_img_dsc_init                     0x080105b1   Thumb Code    36  lv_draw_img.o(i.lv_draw_img_dsc_init)
    lv_draw_label                            0x080105d5   Thumb Code  1578  lv_draw_label.o(i.lv_draw_label)
    lv_draw_label_dsc_init                   0x08010c0d   Thumb Code    68  lv_draw_label.o(i.lv_draw_label_dsc_init)
    lv_draw_line                             0x08010d57   Thumb Code   500  lv_draw_line.o(i.lv_draw_line)
    lv_draw_line_dsc_init                    0x08010f4b   Thumb Code    32  lv_draw_line.o(i.lv_draw_line_dsc_init)
    lv_draw_mask_add                         0x08011511   Thumb Code    54  lv_draw_mask.o(i.lv_draw_mask_add)
    lv_draw_mask_angle_init                  0x0801197d   Thumb Code   228  lv_draw_mask.o(i.lv_draw_mask_angle_init)
    lv_draw_mask_apply                       0x08011a95   Thumb Code    84  lv_draw_mask.o(i.lv_draw_mask_apply)
    lv_draw_mask_get_cnt                     0x08011aed   Thumb Code    28  lv_draw_mask.o(i.lv_draw_mask_get_cnt)
    lv_draw_mask_line_angle_init             0x08011c39   Thumb Code    74  lv_draw_mask.o(i.lv_draw_mask_line_angle_init)
    lv_draw_mask_line_points_init            0x08011c85   Thumb Code   404  lv_draw_mask.o(i.lv_draw_mask_line_points_init)
    lv_draw_mask_radius_init                 0x08012391   Thumb Code    90  lv_draw_mask.o(i.lv_draw_mask_radius_init)
    lv_draw_mask_remove_custom               0x080123f1   Thumb Code    52  lv_draw_mask.o(i.lv_draw_mask_remove_custom)
    lv_draw_mask_remove_id                   0x08012429   Thumb Code    30  lv_draw_mask.o(i.lv_draw_mask_remove_id)
    lv_draw_rect                             0x0801244d   Thumb Code    94  lv_draw_rect.o(i.lv_draw_rect)
    lv_draw_rect_dsc_init                    0x080124ad   Thumb Code   120  lv_draw_rect.o(i.lv_draw_rect_dsc_init)
    lv_event_send                            0x0801254d   Thumb Code    62  lv_obj.o(i.lv_event_send)
    lv_event_send_func                       0x0801259d   Thumb Code   176  lv_obj.o(i.lv_event_send_func)
    lv_font_get_bitmap_fmt_txt               0x08012665   Thumb Code   262  lv_font_fmt_txt.o(i.lv_font_get_bitmap_fmt_txt)
    lv_font_get_glyph_bitmap                 0x08012781   Thumb Code    16  lv_font.o(i.lv_font_get_glyph_bitmap)
    lv_font_get_glyph_dsc                    0x08012791   Thumb Code    30  lv_font.o(i.lv_font_get_glyph_dsc)
    lv_font_get_glyph_dsc_fmt_txt            0x080127af   Thumb Code   186  lv_font_fmt_txt.o(i.lv_font_get_glyph_dsc_fmt_txt)
    lv_font_get_glyph_width                  0x08012869   Thumb Code    34  lv_font.o(i.lv_font_get_glyph_width)
    lv_fs_close                              0x08012893   Thumb Code    48  lv_fs.o(i.lv_fs_close)
    lv_fs_get_drv                            0x080128c5   Thumb Code    42  lv_fs.o(i.lv_fs_get_drv)
    lv_fs_get_ext                            0x080128f5   Thumb Code    52  lv_fs.o(i.lv_fs_get_ext)
    lv_fs_open                               0x08012955   Thumb Code   194  lv_fs.o(i.lv_fs_open)
    lv_fs_read                               0x08012a29   Thumb Code    72  lv_fs.o(i.lv_fs_read)
    lv_fs_seek                               0x08012a71   Thumb Code    40  lv_fs.o(i.lv_fs_seek)
    lv_gauge_create                          0x08012a99   Thumb Code   344  lv_gauge.o(i.lv_gauge_create)
    lv_gauge_set_needle_count                0x08013131   Thumb Code   162  lv_gauge.o(i.lv_gauge_set_needle_count)
    lv_gauge_set_needle_img                  0x080131f5   Thumb Code    64  lv_gauge.o(i.lv_gauge_set_needle_img)
    lv_gauge_set_scale                       0x08013245   Thumb Code    70  lv_gauge.o(i.lv_gauge_set_scale)
    lv_gauge_set_value                       0x0801329d   Thumb Code   658  lv_gauge.o(i.lv_gauge_set_value)
    lv_group_add_obj                         0x080135d5   Thumb Code   126  lv_group.o(i.lv_group_add_obj)
    lv_group_focus_next                      0x08013665   Thumb Code    16  lv_group.o(i.lv_group_focus_next)
    lv_group_focus_obj                       0x0801367d   Thumb Code   200  lv_group.o(i.lv_group_focus_obj)
    lv_group_focus_prev                      0x08013745   Thumb Code    16  lv_group.o(i.lv_group_focus_prev)
    lv_group_get_editing                     0x0801375d   Thumb Code    16  lv_group.o(i.lv_group_get_editing)
    lv_group_get_focused                     0x0801376d   Thumb Code    22  lv_group.o(i.lv_group_get_focused)
    lv_group_remove_obj                      0x080137bf   Thumb Code   146  lv_group.o(i.lv_group_remove_obj)
    lv_group_send_data                       0x08013851   Thumb Code    62  lv_group.o(i.lv_group_send_data)
    lv_group_set_editing                     0x0801388f   Thumb Code    92  lv_group.o(i.lv_group_set_editing)
    lv_img_buf_get_px_alpha                  0x080138ed   Thumb Code   298  lv_img_buf.o(i.lv_img_buf_get_px_alpha)
    lv_img_buf_get_px_color                  0x08013a2d   Thumb Code   350  lv_img_buf.o(i.lv_img_buf_get_px_color)
    lv_img_cache_invalidate_src              0x08013b8d   Thumb Code    94  lv_img_cache.o(i.lv_img_cache_invalidate_src)
    lv_img_cache_set_size                    0x08013bf5   Thumb Code   142  lv_img_cache.o(i.lv_img_cache_set_size)
    lv_img_cf_get_px_size                    0x08013c9d   Thumb Code    76  lv_draw_img.o(i.lv_img_cf_get_px_size)
    lv_img_cf_has_alpha                      0x08013ce9   Thumb Code    58  lv_draw_img.o(i.lv_img_cf_has_alpha)
    lv_img_cf_is_chroma_keyed                0x08013d23   Thumb Code    44  lv_draw_img.o(i.lv_img_cf_is_chroma_keyed)
    lv_img_decoder_built_in_close            0x08013d4f   Thumb Code    58  lv_img_decoder.o(i.lv_img_decoder_built_in_close)
    lv_img_decoder_built_in_info             0x08013d89   Thumb Code   198  lv_img_decoder.o(i.lv_img_decoder_built_in_info)
    lv_img_decoder_built_in_open             0x08014259   Thumb Code   628  lv_img_decoder.o(i.lv_img_decoder_built_in_open)
    lv_img_decoder_built_in_read_line        0x080144e1   Thumb Code   200  lv_img_decoder.o(i.lv_img_decoder_built_in_read_line)
    lv_img_decoder_close                     0x080145a9   Thumb Code    40  lv_img_decoder.o(i.lv_img_decoder_close)
    lv_img_decoder_create                    0x080145d1   Thumb Code    54  lv_img_decoder.o(i.lv_img_decoder_create)
    lv_img_decoder_get_info                  0x0801461d   Thumb Code   100  lv_img_decoder.o(i.lv_img_decoder_get_info)
    lv_img_decoder_open                      0x08014685   Thumb Code   152  lv_img_decoder.o(i.lv_img_decoder_open)
    lv_img_decoder_read_line                 0x08014721   Thumb Code    52  lv_img_decoder.o(i.lv_img_decoder_read_line)
