Component: ARM Compiler 5.05 update 1 (build 106) Tool: armlink [4d0efa]

==============================================================================

Section Cross References

    main.o(i.fputc) refers to gd32f30x_usart.o(i.usart_data_transmit) for usart_data_transmit
    main.o(i.fputc) refers to gd32f30x_usart.o(i.usart_flag_get) for usart_flag_get
    main.o(i.led_config) refers to gd32f303e_eval.o(i.gd_eval_led_init) for gd_eval_led_init
    main.o(i.main) refers to gd32f303e_eval.o(i.gd_eval_key_init) for gd_eval_key_init
    main.o(i.main) refers to gd32f303e_eval.o(i.gd_eval_com_init) for gd_eval_com_init
    main.o(i.main) refers to main.o(i.led_config) for led_config
    main.o(i.main) refers to gd32f303e_eval.o(i.gd_eval_led_off) for gd_eval_led_off
    main.o(i.main) refers to can.o(i.can_networking_init) for can_networking_init
    main.o(i.main) refers to printf5.o(i.__0printf$5) for __2printf
    main.o(i.main) refers to can.o(i.can0_send) for can0_send
    main.o(i.main) refers to main.o(i.delay) for delay
    main.o(i.main) refers to gd32f303e_eval.o(i.gd_eval_key_state_get) for gd_eval_key_state_get
    main.o(i.main) refers to gd32f303e_eval.o(i.gd_eval_led_toggle) for gd_eval_led_toggle
    main.o(i.main) refers to gd32f30x_it.o(.data) for receive_flag
    main.o(i.main) refers to main.o(.bss) for transmit_message
    main.o(i.main) refers to main.o(.data) for can_test_data
    main.o(i.main) refers to gd32f30x_it.o(.bss) for receive_message
    gd32f30x_it.o(i.USBD_LP_CAN0_RX0_IRQHandler) refers to gd32f30x_can.o(i.can_message_receive) for can_message_receive
==============================================================================

Removing Unused input sections from the image.

    Removing main.o(.rev16_text), (4 bytes).
    Removing main.o(.revsh_text), (4 bytes).
    Removing gd32f30x_it.o(.rev16_text), (4 bytes).
    Removing gd32f30x_it.o(.revsh_text), (4 bytes).
    Removing systick.o(.rev16_text), (4 bytes).
    Removing systick.o(.revsh_text), (4 bytes).
    Removing systick.o(i.NVIC_SetPriority), (40 bytes).
    Removing systick.o(i.delay_1ms), (20 bytes).
    Removing systick.o(i.delay_decrement), (24 bytes).
    Removing systick.o(i.systick_config), (80 bytes).
    Removing systick.o(.data), (4 bytes).
    Removing system_gd32f30x.o(.rev16_text), (4 bytes).
    Removing system_gd32f30x.o(.revsh_text), (4 bytes).
    Removing system_gd32f30x.o(i.SystemCoreClockUpdate), (184 bytes).
    Removing system_gd32f30x.o(.data), (4 bytes).
    Removing gd32f30x_adc.o(.rev16_text), (4 bytes).
    Removing gd32f30x_adc.o(.revsh_text), (4 bytes).
    Removing gd32f30x_adc.o(i.adc_calibration_enable), (42 bytes).
==============================================================================

Image Symbol Table

    Local Symbols

    Symbol Name                              Value     Ov Type        Size  Object(Section)

    ../clib/microlib/division.c              0x00000000   Number         0  uldiv.o ABSOLUTE
    ../clib/microlib/division.c              0x00000000   Number         0  uidiv.o ABSOLUTE
    ../clib/microlib/init/entry.s            0x00000000   Number         0  entry9a.o ABSOLUTE
    ../clib/microlib/init/entry.s            0x00000000   Number         0  entry11a.o ABSOLUTE
    ../clib/microlib/init/entry.s            0x00000000   Number         0  entry2.o ABSOLUTE
    ../clib/microlib/init/entry.s            0x00000000   Number         0  entry9b.o ABSOLUTE
    ../clib/microlib/init/entry.s            0x00000000   Number         0  entry10a.o ABSOLUTE
    ../clib/microlib/init/entry.s            0x00000000   Number         0  entry10b.o ABSOLUTE
    ../clib/microlib/init/entry.s            0x00000000   Number         0  entry5.o ABSOLUTE
    ../clib/microlib/init/entry.s            0x00000000   Number         0  entry.o ABSOLUTE
    ../clib/microlib/init/entry.s            0x00000000   Number         0  entry7a.o ABSOLUTE
    ../clib/microlib/init/entry.s            0x00000000   Number         0  entry7b.o ABSOLUTE
    ../clib/microlib/init/entry.s            0x00000000   Number         0  entry11b.o ABSOLUTE
    ../clib/microlib/init/entry.s            0x00000000   Number         0  entry8a.o ABSOLUTE
    ../clib/microlib/init/entry.s            0x00000000   Number         0  entry8b.o ABSOLUTE
    ../clib/microlib/longlong.c              0x00000000   Number         0  llsshr.o ABSOLUTE
    ../clib/microlib/longlong.c              0x00000000   Number         0  llushr.o ABSOLUTE
    ../clib/microlib/longlong.c              0x00000000   Number         0  llshl.o ABSOLUTE
    ../clib/microlib/printf/printf.c         0x00000000   Number         0  printf5.o ABSOLUTE
    ../clib/microlib/printf/printf.c         0x00000000   Number         0  printf6.o ABSOLUTE
    ../clib/microlib/printf/printf.c         0x00000000   Number         0  printf7.o ABSOLUTE
    ../clib/microlib/printf/printf.c         0x00000000   Number         0  printf8.o ABSOLUTE
    ../clib/microlib/printf/printf.c         0x00000000   Number         0  printfb.o ABSOLUTE
    ../clib/microlib/printf/printf.c         0x00000000   Number         0  printf1.o ABSOLUTE
    ../clib/microlib/printf/printf.c         0x00000000   Number         0  printfa.o ABSOLUTE
    ../clib/microlib/printf/printf.c         0x00000000   Number         0  printf0.o ABSOLUTE
    ../clib/microlib/printf/printf.c         0x00000000   Number         0  printf4.o ABSOLUTE
    ../clib/microlib/printf/printf.c         0x00000000   Number         0  printf3.o ABSOLUTE
    ../clib/microlib/printf/printf.c         0x00000000   Number         0  printf2.o ABSOLUTE
    ../clib/microlib/printf/stubs.s          0x00000000   Number         0  stubs.o ABSOLUTE
    ../clib/microlib/stdio/streams.c         0x00000000   Number         0  stdout.o ABSOLUTE
    ../clib/microlib/string/memcpy.c         0x00000000   Number         0  memcpyb.o ABSOLUTE
    ../clib/microlib/string/memcpy.c         0x00000000   Number         0  memcpya.o ABSOLUTE
    ../clib/microlib/stubs.s                 0x00000000   Number         0  iusefp.o ABSOLUTE
    ../fplib/microlib/fpadd.c                0x00000000   Number         0  dadd.o ABSOLUTE
    ../fplib/microlib/fpdiv.c                0x00000000   Number         0  ddiv.o ABSOLUTE
    ../fplib/microlib/fpepilogue.c           0x00000000   Number         0  depilogue.o ABSOLUTE
    ../fplib/microlib/fpfix.c                0x00000000   Number         0  dfixul.o ABSOLUTE
    ../fplib/microlib/fpmul.c                0x00000000   Number         0  dmul.o ABSOLUTE
    ..\..\..\Library\Firmware\CMSIS\GD\GD32F30x\Source\ARM\startup_gd32f30x_hd.s 0x00000000   Number         0  startup_gd32f30x_hd.o ABSOLUTE
    ..\..\..\Library\Firmware\CMSIS\GD\GD32F30x\Source\system_gd32f30x.c 0x00000000   Number         0  system_gd32f30x.o ABSOLUTE
    ..\..\..\Library\Firmware\GD32F30x_standard_peripheral\Source\gd32f30x_adc.c 0x00000000   Number         0  gd32f30x_adc.o ABSOLUTE
    ..\..\..\Library\Firmware\GD32F30x_standard_peripheral\Source\gd32f30x_bkp.c 0x00000000   Number         0  gd32f30x_bkp.o ABSOLUTE
    ..\..\..\Library\Firmware\GD32F30x_standard_peripheral\Source\gd32f30x_can.c 0x00000000   Number         0  gd32f30x_can.o ABSOLUTE
    ..\..\..\Library\Firmware\GD32F30x_standard_peripheral\Source\gd32f30x_crc.c 0x00000000   Number         0  gd32f30x_crc.o ABSOLUTE
    ..\..\..\Library\Firmware\GD32F30x_standard_peripheral\Source\gd32f30x_ctc.c 0x00000000   Number         0  gd32f30x_ctc.o ABSOLUTE
    ..\..\..\Library\Firmware\GD32F30x_standard_peripheral\Source\gd32f30x_dac.c 0x00000000   Number         0  gd32f30x_dac.o ABSOLUTE
    ..\..\..\Library\Firmware\GD32F30x_standard_peripheral\Source\gd32f30x_dbg.c 0x00000000   Number         0  gd32f30x_dbg.o ABSOLUTE
    ..\..\..\Library\Firmware\GD32F30x_standard_peripheral\Source\gd32f30x_dma.c 0x00000000   Number         0  gd32f30x_dma.o ABSOLUTE
    ..\..\..\Library\Firmware\GD32F30x_standard_peripheral\Source\gd32f30x_enet.c 0x00000000   Number         0  gd32f30x_enet.o ABSOLUTE
    ..\..\..\Library\Firmware\GD32F30x_standard_peripheral\Source\gd32f30x_exmc.c 0x00000000   Number         0  gd32f30x_exmc.o ABSOLUTE
    ..\..\..\Library\Firmware\GD32F30x_standard_peripheral\Source\gd32f30x_exti.c 0x00000000   Number         0  gd32f30x_exti.o ABSOLUTE
    ..\..\..\Library\Firmware\GD32F30x_standard_peripheral\Source\gd32f30x_fmc.c 0x00000000   Number         0  gd32f30x_fmc.o ABSOLUTE
    ..\..\..\Library\Firmware\GD32F30x_standard_peripheral\Source\gd32f30x_fwdgt.c 0x00000000   Number         0  gd32f30x_fwdgt.o ABSOLUTE
    ..\..\..\Library\Firmware\GD32F30x_standard_peripheral\Source\gd32f30x_gpio.c 0x00000000   Number         0  gd32f30x_gpio.o ABSOLUTE
    ..\..\..\Library\Firmware\GD32F30x_standard_peripheral\Source\gd32f30x_i2c.c 0x00000000   Number         0  gd32f30x_i2c.o ABSOLUTE
    ..\..\..\Library\Firmware\GD32F30x_standard_peripheral\Source\gd32f30x_misc.c 0x00000000   Number         0  gd32f30x_misc.o ABSOLUTE
    ..\..\..\Library\Firmware\GD32F30x_standard_peripheral\Source\gd32f30x_pmu.c 0x00000000   Number         0  gd32f30x_pmu.o ABSOLUTE
    ..\..\..\Library\Firmware\GD32F30x_standard_peripheral\Source\gd32f30x_rcu.c 0x00000000   Number         0  gd32f30x_rcu.o ABSOLUTE
    ..\..\..\Library\Firmware\GD32F30x_standard_peripheral\Source\gd32f30x_rtc.c 0x00000000   Number         0  gd32f30x_rtc.o ABSOLUTE
    ..\..\..\Library\Firmware\GD32F30x_standard_peripheral\Source\gd32f30x_sdio.c 0x00000000   Number         0  gd32f30x_sdio.o ABSOLUTE
    ..\..\..\Library\Firmware\GD32F30x_standard_peripheral\Source\gd32f30x_spi.c 0x00000000   Number         0  gd32f30x_spi.o ABSOLUTE
    ..\..\..\Library\Firmware\GD32F30x_standard_peripheral\Source\gd32f30x_timer.c 0x00000000   Number         0  gd32f30x_timer.o ABSOLUTE
    ..\..\..\Library\Firmware\GD32F30x_standard_peripheral\Source\gd32f30x_usart.c 0x00000000   Number         0  gd32f30x_usart.o ABSOLUTE
    ..\..\..\Library\Firmware\GD32F30x_standard_peripheral\Source\gd32f30x_wwdgt.c 0x00000000   Number         0  gd32f30x_wwdgt.o ABSOLUTE
    ..\..\..\Library\Utilities\gd32f303e_eval.c 0x00000000   Number         0  gd32f303e_eval.o ABSOLUTE
    ..\\..\\..\\Library\\Firmware\\CMSIS\\GD\\GD32F30x\\Source\\system_gd32f30x.c 0x00000000   Number         0  system_gd32f30x.o ABSOLUTE
    ..\\..\\..\\Library\\Firmware\\GD32F30x_standard_peripheral\\Source\\gd32f30x_adc.c 0x00000000   Number         0  gd32f30x_adc.o ABSOLUTE
    ..\\..\\..\\Library\\Firmware\\GD32F30x_standard_peripheral\\Source\\gd32f30x_bkp.c 0x00000000   Number         0  gd32f30x_bkp.o ABSOLUTE
    ..\\..\\..\\Library\\Firmware\\GD32F30x_standard_peripheral\\Source\\gd32f30x_can.c 0x00000000   Number         0  gd32f30x_can.o ABSOLUTE
    ..\\..\\..\\Library\\Firmware\\GD32F30x_standard_peripheral\\Source\\gd32f30x_crc.c 0x00000000   Number         0  gd32f30x_crc.o ABSOLUTE
    ..\\..\\..\\Library\\Firmware\\GD32F30x_standard_peripheral\\Source\\gd32f30x_ctc.c 0x00000000   Number         0  gd32f30x_ctc.o ABSOLUTE
    ..\\..\\..\\Library\\Firmware\\GD32F30x_standard_peripheral\\Source\\gd32f30x_dac.c 0x00000000   Number         0  gd32f30x_dac.o ABSOLUTE
    ..\\..\\..\\Library\\Firmware\\GD32F30x_standard_peripheral\\Source\\gd32f30x_dbg.c 0x00000000   Number         0  gd32f30x_dbg.o ABSOLUTE
    ..\\..\\..\\Library\\Firmware\\GD32F30x_standard_peripheral\\Source\\gd32f30x_dma.c 0x00000000   Number         0  gd32f30x_dma.o ABSOLUTE
    ..\\..\\..\\Library\\Firmware\\GD32F30x_standard_peripheral\\Source\\gd32f30x_enet.c 0x00000000   Number         0  gd32f30x_enet.o ABSOLUTE
    ..\\..\\..\\Library\\Firmware\\GD32F30x_standard_peripheral\\Source\\gd32f30x_exmc.c 0x00000000   Number         0  gd32f30x_exmc.o ABSOLUTE
    ..\\..\\..\\Library\\Firmware\\GD32F30x_standard_peripheral\\Source\\gd32f30x_exti.c 0x00000000   Number         0  gd32f30x_exti.o ABSOLUTE
    ..\\..\\..\\Library\\Firmware\\GD32F30x_standard_peripheral\\Source\\gd32f30x_fmc.c 0x00000000   Number         0  gd32f30x_fmc.o ABSOLUTE
    ..\\..\\..\\Library\\Firmware\\GD32F30x_standard_peripheral\\Source\\gd32f30x_fwdgt.c 0x00000000   Number         0  gd32f30x_fwdgt.o ABSOLUTE
    ..\\..\\..\\Library\\Firmware\\GD32F30x_standard_peripheral\\Source\\gd32f30x_gpio.c 0x00000000   Number         0  gd32f30x_gpio.o ABSOLUTE
    ..\\..\\..\\Library\\Firmware\\GD32F30x_standard_peripheral\\Source\\gd32f30x_i2c.c 0x00000000   Number         0  gd32f30x_i2c.o ABSOLUTE
    ..\\..\\..\\Library\\Firmware\\GD32F30x_standard_peripheral\\Source\\gd32f30x_misc.c 0x00000000   Number         0  gd32f30x_misc.o ABSOLUTE
    ..\\..\\..\\Library\\Firmware\\GD32F30x_standard_peripheral\\Source\\gd32f30x_pmu.c 0x00000000   Number         0  gd32f30x_pmu.o ABSOLUTE
    ..\\..\\..\\Library\\Firmware\\GD32F30x_standard_peripheral\\Source\\gd32f30x_rcu.c 0x00000000   Number         0  gd32f30x_rcu.o ABSOLUTE
    ..\\..\\..\\Library\\Firmware\\GD32F30x_standard_peripheral\\Source\\gd32f30x_rtc.c 0x00000000   Number         0  gd32f30x_rtc.o ABSOLUTE
    ..\\..\\..\\Library\\Firmware\\GD32F30x_standard_peripheral\\Source\\gd32f30x_sdio.c 0x00000000   Number         0  gd32f30x_sdio.o ABSOLUTE
    ..\\..\\..\\Library\\Firmware\\GD32F30x_standard_peripheral\\Source\\gd32f30x_spi.c 0x00000000   Number         0  gd32f30x_spi.o ABSOLUTE
    ..\\..\\..\\Library\\Firmware\\GD32F30x_standard_peripheral\\Source\\gd32f30x_timer.c 0x00000000   Number         0  gd32f30x_timer.o ABSOLUTE
    ..\\..\\..\\Library\\Firmware\\GD32F30x_standard_peripheral\\Source\\gd32f30x_usart.c 0x00000000   Number         0  gd32f30x_usart.o ABSOLUTE
    ..\\..\\..\\Library\\Firmware\\GD32F30x_standard_peripheral\\Source\\gd32f30x_wwdgt.c 0x00000000   Number         0  gd32f30x_wwdgt.o ABSOLUTE
    ..\\..\\..\\Library\\Utilities\\gd32f303e_eval.c 0x00000000   Number         0  gd32f303e_eval.o ABSOLUTE
    ..\\bsp\\can\\can.c                      0x00000000   Number         0  can.o ABSOLUTE
    ..\\gd32f30x_it.c                        0x00000000   Number         0  gd32f30x_it.o ABSOLUTE
    ..\\main.c                               0x00000000   Number         0  main.o ABSOLUTE
    ..\\systick.c                            0x00000000   Number         0  systick.o ABSOLUTE
    ..\bsp\can\can.c                         0x00000000   Number         0  can.o ABSOLUTE
    ..\gd32f30x_it.c                         0x00000000   Number         0  gd32f30x_it.o ABSOLUTE
    ..\main.c                                0x00000000   Number         0  main.o ABSOLUTE
    ..\systick.c                             0x00000000   Number         0  systick.o ABSOLUTE
    cdrcmple.s                               0x00000000   Number         0  cdrcmple.o ABSOLUTE
    dc.s                                     0x00000000   Number         0  dc.o ABSOLUTE
    handlers.s                               0x00000000   Number         0  handlers.o ABSOLUTE
    init.s                                   0x00000000   Number         0  init.o ABSOLUTE
    RESET                                    0x08000000   Section      304  startup_gd32f30x_hd.o(RESET)
    .ARM.Collect$$$$00000000                 0x08000130   Section        0  entry.o(.ARM.Collect$$$$00000000)
    .ARM.Collect$$$$00000001                 0x08000130   Section        4  entry2.o(.ARM.Collect$$$$00000001)
    .ARM.Collect$$$$00000004                 0x08000134   Section        4  entry5.o(.ARM.Collect$$$$00000004)
    .ARM.Collect$$$$00000008                 0x08000138   Section        0  entry7b.o(.ARM.Collect$$$$00000008)
    .ARM.Collect$$$$0000000A                 0x08000138   Section        0  entry8b.o(.ARM.Collect$$$$0000000A)
    .ARM.Collect$$$$0000000B                 0x08000138   Section        8  entry9a.o(.ARM.Collect$$$$0000000B)
    .ARM.Collect$$$$0000000D                 0x08000140   Section        0  entry10a.o(.ARM.Collect$$$$0000000D)
    .ARM.Collect$$$$0000000F                 0x08000140   Section        0  entry11a.o(.ARM.Collect$$$$0000000F)
    .ARM.Collect$$$$00002712                 0x08000140   Section        4  entry2.o(.ARM.Collect$$$$00002712)
    __lit__00000000                          0x08000140   Data           4  entry2.o(.ARM.Collect$$$$00002712)
    .text                                    0x08000144   Section       36  startup_gd32f30x_hd.o(.text)
    $v0                                      0x08000144   Number         0  startup_gd32f30x_hd.o(.text)
    .text                                    0x08000168   Section        0  memcpya.o(.text)
    .text                                    0x0800018c   Section        0  uldiv.o(.text)
    .text                                    0x080001f0   Section       36  init.o(.text)
    .text                                    0x08000214   Section        0  llshl.o(.text)
    .text                                    0x08000232   Section        0  llushr.o(.text)
    i.BusFault_Handler                       0x08000252   Section        0  gd32f30x_it.o(i.BusFault_Handler)
    i.DebugMon_Handler                       0x08000256   Section        0  gd32f30x_it.o(i.DebugMon_Handler)
    i.HardFault_Handler                      0x08000258   Section        0  gd32f30x_it.o(i.HardFault_Handler)
    i.MemManage_Handler                      0x0800025c   Section        0  gd32f30x_it.o(i.MemManage_Handler)
    i.NMI_Handler                            0x08000260   Section        0  gd32f30x_it.o(i.NMI_Handler)
    i.PendSV_Handler                         0x08000262   Section        0  gd32f30x_it.o(i.PendSV_Handler)
    i.SVC_Handler                            0x08000264   Section        0  gd32f30x_it.o(i.SVC_Handler)
    i.SysTick_Handler                        0x08000266   Section        0  gd32f30x_it.o(i.SysTick_Handler)
    i.SystemInit                             0x08000268   Section        0  system_gd32f30x.o(i.SystemInit)
    i.USBD_LP_CAN0_RX0_IRQHandler            0x080002b8   Section        0  gd32f30x_it.o(i.USBD_LP_CAN0_RX0_IRQHandler)
    i.UsageFault_Handler                     0x080002f4   Section        0  gd32f30x_it.o(i.UsageFault_Handler)
    i.__0printf$5                            0x080002f8   Section        0  printf5.o(i.__0printf$5)
    i.__can_networking_init                  0x08000318   Section        0  can.o(i.__can_networking_init)
    i.__scatterload_copy                     0x0800039c   Section       14  handlers.o(i.__scatterload_copy)
    i.__scatterload_null                     0x080003aa   Section        2  handlers.o(i.__scatterload_null)
    i.__scatterload_zeroinit                 0x080003ac   Section       14  handlers.o(i.__scatterload_zeroinit)
    i._printf_core                           0x080003bc   Section        0  printf5.o(i._printf_core)
    _printf_core                             0x080003bd   Thumb Code   658  printf5.o(i._printf_core)
    i.can0_send                              0x0800067c   Section        0  can.o(i.can0_send)
    i.can_deinit                             0x080006c4   Section        0  gd32f30x_can.o(i.can_deinit)
    i.can_filter_init                        0x080006e4   Section        0  gd32f30x_can.o(i.can_filter_init)
    i.can_gpio_config                        0x080007f4   Section        0  can.o(i.can_gpio_config)
    i.can_init                               0x08000830   Section        0  gd32f30x_can.o(i.can_init)
    i.can_interrupt_enable                   0x08000958   Section        0  gd32f30x_can.o(i.can_interrupt_enable)
    i.can_message_receive                    0x08000960   Section        0  gd32f30x_can.o(i.can_message_receive)
    i.can_message_transmit                   0x08000a44   Section        0  gd32f30x_can.o(i.can_message_transmit)
    i.can_networking_init                    0x08000b94   Section        0  can.o(i.can_networking_init)
    i.can_nvic_config                        0x08000bb0   Section        0  can.o(i.can_nvic_config)
    i.delay                                  0x08000bbe   Section        0  main.o(i.delay)
    i.exti_init                              0x08000bd4   Section        0  gd32f30x_exti.o(i.exti_init)
    i.exti_interrupt_flag_clear              0x08000c8c   Section        0  gd32f30x_exti.o(i.exti_interrupt_flag_clear)
    i.fputc                                  0x08000c98   Section        0  main.o(i.fputc)
    i.gd_eval_com_init                       0x08000cbc   Section        0  gd32f303e_eval.o(i.gd_eval_com_init)
    i.gd_eval_key_init                       0x08000d54   Section        0  gd32f303e_eval.o(i.gd_eval_key_init)
    i.gd_eval_key_state_get                  0x08000dd4   Section        0  gd32f303e_eval.o(i.gd_eval_key_state_get)
    i.gd_eval_led_init                       0x08000df4   Section        0  gd32f303e_eval.o(i.gd_eval_led_init)
    i.gd_eval_led_off                        0x08000e34   Section        0  gd32f303e_eval.o(i.gd_eval_led_off)
    i.gd_eval_led_toggle                     0x08000e4c   Section        0  gd32f303e_eval.o(i.gd_eval_led_toggle)
    i.gpio_bit_write                         0x08000e84   Section        0  gd32f30x_gpio.o(i.gpio_bit_write)
    i.gpio_exti_source_select                0x08000e90   Section        0  gd32f30x_gpio.o(i.gpio_exti_source_select)
    i.gpio_init                              0x08000f28   Section        0  gd32f30x_gpio.o(i.gpio_init)
    i.gpio_input_bit_get                     0x08000fcc   Section        0  gd32f30x_gpio.o(i.gpio_input_bit_get)
    i.gpio_pin_remap_config                  0x08000fdc   Section        0  gd32f30x_gpio.o(i.gpio_pin_remap_config)
    i.led_config                             0x0800106c   Section        0  main.o(i.led_config)
    i.main                                   0x08001088   Section        0  main.o(i.main)
    i.nvic_irq_enable                        0x0800118c   Section        0  gd32f30x_misc.o(i.nvic_irq_enable)
    i.rcu_clock_freq_get                     0x08001230   Section        0  gd32f30x_rcu.o(i.rcu_clock_freq_get)
    i.rcu_periph_clock_enable                0x08001388   Section        0  gd32f30x_rcu.o(i.rcu_periph_clock_enable)
    i.rcu_periph_reset_disable               0x080013a8   Section        0  gd32f30x_rcu.o(i.rcu_periph_reset_disable)
    i.rcu_periph_reset_enable                0x080013c8   Section        0  gd32f30x_rcu.o(i.rcu_periph_reset_enable)
    i.system_clock_120m_hxtal                0x080013e8   Section        0  system_gd32f30x.o(i.system_clock_120m_hxtal)
    system_clock_120m_hxtal                  0x080013e9   Thumb Code   256  system_gd32f30x.o(i.system_clock_120m_hxtal)
    i.system_clock_config                    0x080014f8   Section        0  system_gd32f30x.o(i.system_clock_config)
    system_clock_config                      0x080014f9   Thumb Code     8  system_gd32f30x.o(i.system_clock_config)
    i.usart_baudrate_set                     0x08001500   Section        0  gd32f30x_usart.o(i.usart_baudrate_set)
    i.usart_data_transmit                    0x08001594   Section        0  gd32f30x_usart.o(i.usart_data_transmit)
    i.usart_deinit                           0x0800159c   Section        0  gd32f30x_usart.o(i.usart_deinit)
    i.usart_enable                           0x0800162c   Section        0  gd32f30x_usart.o(i.usart_enable)
    i.usart_flag_get                         0x08001636   Section        0  gd32f30x_usart.o(i.usart_flag_get)
    i.usart_receive_config                   0x08001654   Section        0  gd32f30x_usart.o(i.usart_receive_config)
    i.usart_transmit_config                  0x08001664   Section        0  gd32f30x_usart.o(i.usart_transmit_config)
    .data                                    0x20000000   Section        2  main.o(.data)
    .data                                    0x20000002   Section        1  gd32f30x_it.o(.data)
    .data                                    0x20000004   Section      140  gd32f303e_eval.o(.data)
    GPIO_PORT                                0x20000004   Data          16  gd32f303e_eval.o(.data)
    GPIO_PIN                                 0x20000014   Data          16  gd32f303e_eval.o(.data)
    COM_CLK                                  0x20000024   Data           4  gd32f303e_eval.o(.data)
    COM_TX_PIN                               0x20000028   Data           8  gd32f303e_eval.o(.data)
    COM_RX_PIN                               0x20000030   Data           8  gd32f303e_eval.o(.data)
    COM_GPIO_PORT                            0x20000038   Data           8  gd32f303e_eval.o(.data)
    COM_GPIO_CLK                             0x20000040   Data           4  gd32f303e_eval.o(.data)
    GPIO_CLK                                 0x20000044   Data           8  gd32f303e_eval.o(.data)
    KEY_PORT                                 0x2000004c   Data          16  gd32f303e_eval.o(.data)
    KEY_PIN                                  0x2000005c   Data          16  gd32f303e_eval.o(.data)
    KEY_CLK                                  0x2000006c   Data           8  gd32f303e_eval.o(.data)
    KEY_EXTI_LINE                            0x20000074   Data          16  gd32f303e_eval.o(.data)
    KEY_PORT_SOURCE                          0x20000084   Data           4  gd32f303e_eval.o(.data)
    KEY_PIN_SOURCE                           0x20000088   Data           4  gd32f303e_eval.o(.data)
    KEY_IRQn                                 0x2000008c   Data           4  gd32f303e_eval.o(.data)
    .data                                    0x20000090   Section        4  stdout.o(.data)
    .bss                                     0x20000094   Section       20  main.o(.bss)
    .bss                                     0x200000a8   Section       20  gd32f30x_it.o(.bss)
    STACK                                    0x200000c0   Section     1024  startup_gd32f30x_hd.o(STACK)

    Global Symbols

    Symbol Name                              Value     Ov Type        Size  Object(Section)

    BuildAttributes$$THM_ISAv4$E$P$D$K$B$S$7EM$VFPi3$EXTD16$VFPS$VFMA$PE$A:L22UL41UL21$X:L11$S22US41US21$IEEE1$IW$USESV6$~STKCKD$USESV7$~SHL$OSPACE$ROPI$EBA8$MICROLIB$REQ8$PRES8$EABIv2 0x00000000   Number         0  anon$$obj.o ABSOLUTE
    __ARM_use_no_argv                        0x00000000   Number         0  main.o ABSOLUTE
    _printf_a                                0x00000000   Number         0  stubs.o ABSOLUTE
    _printf_c                                0x00000000   Number         0  stubs.o ABSOLUTE
    _printf_charcount                        0x00000000   Number         0  stubs.o ABSOLUTE
    _printf_d                                0x00000000   Number         0  stubs.o ABSOLUTE
    _printf_e                                0x00000000   Number         0  stubs.o ABSOLUTE
    _printf_f                                0x00000000   Number         0  stubs.o ABSOLUTE
    _printf_flags                            0x00000000   Number         0  stubs.o ABSOLUTE
    _printf_fp_dec                           0x00000000   Number         0  stubs.o ABSOLUTE
    _printf_fp_hex                           0x00000000   Number         0  stubs.o ABSOLUTE
    _printf_g                                0x00000000   Number         0  stubs.o ABSOLUTE
    _printf_i                                0x00000000   Number         0  stubs.o ABSOLUTE
    _printf_int_dec                          0x00000000   Number         0  stubs.o ABSOLUTE
    _printf_l                                0x00000000   Number         0  stubs.o ABSOLUTE
    _printf_lc                               0x00000000   Number         0  stubs.o ABSOLUTE
    _printf_ll                               0x00000000   Number         0  stubs.o ABSOLUTE
    _printf_lld                              0x00000000   Number         0  stubs.o ABSOLUTE
    _printf_lli                              0x00000000   Number         0  stubs.o ABSOLUTE
    _printf_llo                              0x00000000   Number         0  stubs.o ABSOLUTE
    _printf_llu                              0x00000000   Number         0  stubs.o ABSOLUTE
    _printf_llx                              0x00000000   Number         0  stubs.o ABSOLUTE
    _printf_longlong_dec                     0x00000000   Number         0  stubs.o ABSOLUTE
    _printf_longlong_hex                     0x00000000   Number         0  stubs.o ABSOLUTE
    _printf_longlong_oct                     0x00000000   Number         0  stubs.o ABSOLUTE
    _printf_ls                               0x00000000   Number         0  stubs.o ABSOLUTE
    _printf_mbtowc                           0x00000000   Number         0  stubs.o ABSOLUTE
    _printf_n                                0x00000000   Number         0  stubs.o ABSOLUTE
    _printf_o                                0x00000000   Number         0  stubs.o ABSOLUTE
    _printf_p                                0x00000000   Number         0  stubs.o ABSOLUTE
    _printf_percent                          0x00000000   Number         0  stubs.o ABSOLUTE
    _printf_pre_padding                      0x00000000   Number         0  stubs.o ABSOLUTE
    _printf_return_value                     0x00000000   Number         0  stubs.o ABSOLUTE
    _printf_s                                0x00000000   Number         0  stubs.o ABSOLUTE
    _printf_sizespec                         0x00000000   Number         0  stubs.o ABSOLUTE
    _printf_str                              0x00000000   Number         0  stubs.o ABSOLUTE
    _printf_truncate_signed                  0x00000000   Number         0  stubs.o ABSOLUTE
    _printf_truncate_unsigned                0x00000000   Number         0  stubs.o ABSOLUTE
    _printf_u                                0x00000000   Number         0  stubs.o ABSOLUTE
    _printf_wc                               0x00000000   Number         0  stubs.o ABSOLUTE
    _printf_wctomb                           0x00000000   Number         0  stubs.o ABSOLUTE
    _printf_widthprec                        0x00000000   Number         0  stubs.o ABSOLUTE
    _printf_x                                0x00000000   Number         0  stubs.o ABSOLUTE
    __cpp_initialize__aeabi_                  - Undefined Weak Reference
    __cxa_finalize                            - Undefined Weak Reference
    __decompress                              - Undefined Weak Reference
    _clock_init                               - Undefined Weak Reference
    _microlib_exit                            - Undefined Weak Reference
    __Vectors_Size                           0x00000130   Number         0  startup_gd32f30x_hd.o ABSOLUTE
    __Vectors                                0x08000000   Data           4  startup_gd32f30x_hd.o(RESET)
    __Vectors_End                            0x08000130   Data           0  startup_gd32f30x_hd.o(RESET)
    __main                                   0x08000131   Thumb Code     0  entry.o(.ARM.Collect$$$$00000000)
    _main_stk                                0x08000131   Thumb Code     0  entry2.o(.ARM.Collect$$$$00000001)
    _main_scatterload                        0x08000135   Thumb Code     0  entry5.o(.ARM.Collect$$$$00000004)
    __main_after_scatterload                 0x08000139   Thumb Code     0  entry5.o(.ARM.Collect$$$$00000004)
    _main_clock                              0x08000139   Thumb Code     0  entry7b.o(.ARM.Collect$$$$00000008)
    _main_cpp_init                           0x08000139   Thumb Code     0  entry8b.o(.ARM.Collect$$$$0000000A)
    _main_init                               0x08000139   Thumb Code     0  entry9a.o(.ARM.Collect$$$$0000000B)
    __rt_final_cpp                           0x08000141   Thumb Code     0  entry10a.o(.ARM.Collect$$$$0000000D)
    __rt_final_exit                          0x08000141   Thumb Code     0  entry11a.o(.ARM.Collect$$$$0000000F)
    Reset_Handler                            0x08000145   Thumb Code     8  startup_gd32f30x_hd.o(.text)
    ADC0_1_IRQHandler                        0x0800015f   Thumb Code     0  startup_gd32f30x_hd.o(.text)
    ADC2_IRQHandler                          0x0800015f   Thumb Code     0  startup_gd32f30x_hd.o(.text)
    CAN0_EWMC_IRQHandler                     0x0800015f   Thumb Code     0  startup_gd32f30x_hd.o(.text)
    CAN0_RX1_IRQHandler                      0x0800015f   Thumb Code     0  startup_gd32f30x_hd.o(.text)
    DMA0_Channel0_IRQHandler                 0x0800015f   Thumb Code     0  startup_gd32f30x_hd.o(.text)
    DMA0_Channel1_IRQHandler                 0x0800015f   Thumb Code     0  startup_gd32f30x_hd.o(.text)
    DMA0_Channel2_IRQHandler                 0x0800015f   Thumb Code     0  startup_gd32f30x_hd.o(.text)
    DMA0_Channel3_IRQHandler                 0x0800015f   Thumb Code     0  startup_gd32f30x_hd.o(.text)
    DMA0_Channel4_IRQHandler                 0x0800015f   Thumb Code     0  startup_gd32f30x_hd.o(.text)
    DMA0_Channel5_IRQHandler                 0x0800015f   Thumb Code     0  startup_gd32f30x_hd.o(.text)
    DMA0_Channel6_IRQHandler                 0x0800015f   Thumb Code     0  startup_gd32f30x_hd.o(.text)
    DMA1_Channel0_IRQHandler                 0x0800015f   Thumb Code     0  startup_gd32f30x_hd.o(.text)
    DMA1_Channel1_IRQHandler                 0x0800015f   Thumb Code     0  startup_gd32f30x_hd.o(.text)
    DMA1_Channel2_IRQHandler                 0x0800015f   Thumb Code     0  startup_gd32f30x_hd.o(.text)
    DMA1_Channel3_4_IRQHandler               0x0800015f   Thumb Code     0  startup_gd32f30x_hd.o(.text)
    EXMC_IRQHandler                          0x0800015f   Thumb Code     0  startup_gd32f30x_hd.o(.text)
    EXTI0_IRQHandler                         0x0800015f   Thumb Code     0  startup_gd32f30x_hd.o(.text)
    EXTI10_15_IRQHandler                     0x0800015f   Thumb Code     0  startup_gd32f30x_hd.o(.text)
    EXTI1_IRQHandler                         0x0800015f   Thumb Code     0  startup_gd32f30x_hd.o(.text)
    EXTI2_IRQHandler                         0x0800015f   Thumb Code     0  startup_gd32f30x_hd.o(.text)
    EXTI3_IRQHandler                         0x0800015f   Thumb Code     0  startup_gd32f30x_hd.o(.text)
    EXTI4_IRQHandler                         0x0800015f   Thumb Code     0  startup_gd32f30x_hd.o(.text)
    EXTI5_9_IRQHandler                       0x0800015f   Thumb Code     0  startup_gd32f30x_hd.o(.text)
    FMC_IRQHandler                           0x0800015f   Thumb Code     0  startup_gd32f30x_hd.o(.text)
    I2C0_ER_IRQHandler                       0x0800015f   Thumb Code     0  startup_gd32f30x_hd.o(.text)
    I2C0_EV_IRQHandler                       0x0800015f   Thumb Code     0  startup_gd32f30x_hd.o(.text)
    I2C1_ER_IRQHandler                       0x0800015f   Thumb Code     0  startup_gd32f30x_hd.o(.text)
    I2C1_EV_IRQHandler                       0x0800015f   Thumb Code     0  startup_gd32f30x_hd.o(.text)
    LVD_IRQHandler                           0x0800015f   Thumb Code     0  startup_gd32f30x_hd.o(.text)
    RCU_CTC_IRQHandler                       0x0800015f   Thumb Code     0  startup_gd32f30x_hd.o(.text)
    RTC_Alarm_IRQHandler                     0x0800015f   Thumb Code     0  startup_gd32f30x_hd.o(.text)
    RTC_IRQHandler                           0x0800015f   Thumb Code     0  startup_gd32f30x_hd.o(.text)
    SDIO_IRQHandler                          0x0800015f   Thumb Code     0  startup_gd32f30x_hd.o(.text)
    SPI0_IRQHandler                          0x0800015f   Thumb Code     0  startup_gd32f30x_hd.o(.text)
    SPI1_IRQHandler                          0x0800015f   Thumb Code     0  startup_gd32f30x_hd.o(.text)
    SPI2_IRQHandler                          0x0800015f   Thumb Code     0  startup_gd32f30x_hd.o(.text)
    TAMPER_IRQHandler                        0x0800015f   Thumb Code     0  startup_gd32f30x_hd.o(.text)
    TIMER0_BRK_IRQHandler                    0x0800015f   Thumb Code     0  startup_gd32f30x_hd.o(.text)
    TIMER0_Channel_IRQHandler                0x0800015f   Thumb Code     0  startup_gd32f30x_hd.o(.text)
    TIMER0_TRG_CMT_IRQHandler                0x0800015f   Thumb Code     0  startup_gd32f30x_hd.o(.text)
    TIMER0_UP_IRQHandler                     0x0800015f   Thumb Code     0  startup_gd32f30x_hd.o(.text)
    TIMER1_IRQHandler                        0x0800015f   Thumb Code     0  startup_gd32f30x_hd.o(.text)
    TIMER2_IRQHandler                        0x0800015f   Thumb Code     0  startup_gd32f30x_hd.o(.text)
    TIMER3_IRQHandler                        0x0800015f   Thumb Code     0  startup_gd32f30x_hd.o(.text)
    TIMER4_IRQHandler                        0x0800015f   Thumb Code     0  startup_gd32f30x_hd.o(.text)
    TIMER5_IRQHandler                        0x0800015f   Thumb Code     0  startup_gd32f30x_hd.o(.text)
    TIMER6_IRQHandler                        0x0800015f   Thumb Code     0  startup_gd32f30x_hd.o(.text)
    TIMER7_BRK_IRQHandler                    0x0800015f   Thumb Code     0  startup_gd32f30x_hd.o(.text)
    TIMER7_Channel_IRQHandler                0x0800015f   Thumb Code     0  startup_gd32f30x_hd.o(.text)
    TIMER7_TRG_CMT_IRQHandler                0x0800015f   Thumb Code     0  startup_gd32f30x_hd.o(.text)
    TIMER7_UP_IRQHandler                     0x0800015f   Thumb Code     0  startup_gd32f30x_hd.o(.text)
    UART3_IRQHandler                         0x0800015f   Thumb Code     0  startup_gd32f30x_hd.o(.text)
    UART4_IRQHandler                         0x0800015f   Thumb Code     0  startup_gd32f30x_hd.o(.text)
    USART0_IRQHandler                        0x0800015f   Thumb Code     0  startup_gd32f30x_hd.o(.text)
    USART1_IRQHandler                        0x0800015f   Thumb Code     0  startup_gd32f30x_hd.o(.text)
    USART2_IRQHandler                        0x0800015f   Thumb Code     0  startup_gd32f30x_hd.o(.text)
    USBD_HP_CAN0_TX_IRQHandler               0x0800015f   Thumb Code     0  startup_gd32f30x_hd.o(.text)
    USBD_WKUP_IRQHandler                     0x0800015f   Thumb Code     0  startup_gd32f30x_hd.o(.text)
    WWDGT_IRQHandler                         0x0800015f   Thumb Code     0  startup_gd32f30x_hd.o(.text)
    __aeabi_memcpy                           0x08000169   Thumb Code    36  memcpya.o(.text)
    __aeabi_memcpy4                          0x08000169   Thumb Code     0  memcpya.o(.text)
    __aeabi_memcpy8                          0x08000169   Thumb Code     0  memcpya.o(.text)
    __aeabi_uldivmod                         0x0800018d   Thumb Code    98  uldiv.o(.text)
    __scatterload                            0x080001f1   Thumb Code    28  init.o(.text)
    __scatterload_rt2                        0x080001f1   Thumb Code     0  init.o(.text)
    __aeabi_llsl                             0x08000215   Thumb Code    30  llshl.o(.text)
    _ll_shift_l                              0x08000215   Thumb Code     0  llshl.o(.text)
    __aeabi_llsr                             0x08000233   Thumb Code    32  llushr.o(.text)
    _ll_ushift_r                             0x08000233   Thumb Code     0  llushr.o(.text)
    BusFault_Handler                         0x08000253   Thumb Code     4  gd32f30x_it.o(i.BusFault_Handler)
    DebugMon_Handler                         0x08000257   Thumb Code     2  gd32f30x_it.o(i.DebugMon_Handler)
    HardFault_Handler                        0x08000259   Thumb Code     4  gd32f30x_it.o(i.HardFault_Handler)
    MemManage_Handler                        0x0800025d   Thumb Code     4  gd32f30x_it.o(i.MemManage_Handler)
    NMI_Handler                              0x08000261   Thumb Code     2  gd32f30x_it.o(i.NMI_Handler)
    PendSV_Handler                           0x08000263   Thumb Code     2  gd32f30x_it.o(i.PendSV_Handler)
    SVC_Handler                              0x08000265   Thumb Code     2  gd32f30x_it.o(i.SVC_Handler)
    SysTick_Handler                          0x08000267   Thumb Code     2  gd32f30x_it.o(i.SysTick_Handler)
    SystemInit                               0x08000269   Thumb Code    66  system_gd32f30x.o(i.SystemInit)
    USBD_LP_CAN0_RX0_IRQHandler              0x080002b9   Thumb Code    46  gd32f30x_it.o(i.USBD_LP_CAN0_RX0_IRQHandler)
    UsageFault_Handler                       0x080002f5   Thumb Code     4  gd32f30x_it.o(i.UsageFault_Handler)
    __0printf$5                              0x080002f9   Thumb Code    22  printf5.o(i.__0printf$5)
    __1printf$5                              0x080002f9   Thumb Code     0  printf5.o(i.__0printf$5)
    __2printf                                0x080002f9   Thumb Code     0  printf5.o(i.__0printf$5)
    __can_networking_init                    0x08000319   Thumb Code   128  can.o(i.__can_networking_init)
    __scatterload_copy                       0x0800039d   Thumb Code    14  handlers.o(i.__scatterload_copy)
    __scatterload_null                       0x080003ab   Thumb Code     2  handlers.o(i.__scatterload_null)
    __scatterload_zeroinit                   0x080003ad   Thumb Code    14  handlers.o(i.__scatterload_zeroinit)
    can0_send                                0x0800067d   Thumb Code    68  can.o(i.can0_send)
    can_deinit                               0x080006c5   Thumb Code    28  gd32f30x_can.o(i.can_deinit)
    can_filter_init                          0x080006e5   Thumb Code   262  gd32f30x_can.o(i.can_filter_init)
    can_gpio_config                          0x080007f5   Thumb Code    54  can.o(i.can_gpio_config)
    can_init                                 0x08000831   Thumb Code   296  gd32f30x_can.o(i.can_init)
    can_interrupt_enable                     0x08000959   Thumb Code     8  gd32f30x_can.o(i.can_interrupt_enable)
    can_message_receive                      0x08000961   Thumb Code   228  gd32f30x_can.o(i.can_message_receive)
    can_message_transmit                     0x08000a45   Thumb Code   332  gd32f30x_can.o(i.can_message_transmit)
    can_networking_init                      0x08000b95   Thumb Code    24  can.o(i.can_networking_init)
    can_nvic_config                          0x08000bb1   Thumb Code    14  can.o(i.can_nvic_config)
    delay                                    0x08000bbf   Thumb Code    20  main.o(i.delay)
    exti_init                                0x08000bd5   Thumb Code   178  gd32f30x_exti.o(i.exti_init)
    exti_interrupt_flag_clear                0x08000c8d   Thumb Code     6  gd32f30x_exti.o(i.exti_interrupt_flag_clear)
    fputc                                    0x08000c99   Thumb Code    32  main.o(i.fputc)
    gd_eval_com_init                         0x08000cbd   Thumb Code   122  gd32f303e_eval.o(i.gd_eval_com_init)
    gd_eval_key_init                         0x08000d55   Thumb Code    98  gd32f303e_eval.o(i.gd_eval_key_init)
    gd_eval_key_state_get                    0x08000dd5   Thumb Code    22  gd32f303e_eval.o(i.gd_eval_key_state_get)
    gd_eval_led_init                         0x08000df5   Thumb Code    50  gd32f303e_eval.o(i.gd_eval_led_init)
    gd_eval_led_off                          0x08000e35   Thumb Code    16  gd32f303e_eval.o(i.gd_eval_led_off)
    gd_eval_led_toggle                       0x08000e4d   Thumb Code    46  gd32f303e_eval.o(i.gd_eval_led_toggle)
    gpio_bit_write                           0x08000e85   Thumb Code    10  gd32f30x_gpio.o(i.gpio_bit_write)
    gpio_exti_source_select                  0x08000e91   Thumb Code   146  gd32f30x_gpio.o(i.gpio_exti_source_select)
    gpio_init                                0x08000f29   Thumb Code   164  gd32f30x_gpio.o(i.gpio_init)
    gpio_input_bit_get                       0x08000fcd   Thumb Code    16  gd32f30x_gpio.o(i.gpio_input_bit_get)
    gpio_pin_remap_config                    0x08000fdd   Thumb Code   138  gd32f30x_gpio.o(i.gpio_pin_remap_config)
    led_config                               0x0800106d   Thumb Code    28  main.o(i.led_config)
    main                                     0x08001089   Thumb Code   160  main.o(i.main)
    nvic_irq_enable                          0x0800118d   Thumb Code   156  gd32f30x_misc.o(i.nvic_irq_enable)
    rcu_clock_freq_get                       0x08001231   Thumb Code   310  gd32f30x_rcu.o(i.rcu_clock_freq_get)
    rcu_periph_clock_enable                  0x08001389   Thumb Code    28  gd32f30x_rcu.o(i.rcu_periph_clock_enable)
    rcu_periph_reset_disable                 0x080013a9   Thumb Code    28  gd32f30x_rcu.o(i.rcu_periph_reset_disable)
    rcu_periph_reset_enable                  0x080013c9   Thumb Code    28  gd32f30x_rcu.o(i.rcu_periph_reset_enable)
    usart_baudrate_set                       0x08001501   Thumb Code   140  gd32f30x_usart.o(i.usart_baudrate_set)
    usart_data_transmit                      0x08001595   Thumb Code     8  gd32f30x_usart.o(i.usart_data_transmit)
    usart_deinit                             0x0800159d   Thumb Code   136  gd32f30x_usart.o(i.usart_deinit)
    usart_enable                             0x0800162d   Thumb Code    10  gd32f30x_usart.o(i.usart_enable)
    usart_flag_get                           0x08001637   Thumb Code    30  gd32f30x_usart.o(i.usart_flag_get)
    usart_receive_config                     0x08001655   Thumb Code    16  gd32f30x_usart.o(i.usart_receive_config)
    usart_transmit_config                    0x08001665   Thumb Code    16  gd32f30x_usart.o(i.usart_transmit_config)
    Region$$Table$$Base                      0x08001674   Number         0  anon$$obj.o(Region$$Table)
    Region$$Table$$Limit                     0x08001694   Number         0  anon$$obj.o(Region$$Table)
    can_test_data                            0x20000000   Data           2  main.o(.data)
    receive_flag                             0x20000002   Data           1  gd32f30x_it.o(.data)
    __stdout                                 0x20000090   Data           4  stdout.o(.data)
    transmit_message                         0x20000094   Data          20  main.o(.bss)
    receive_message                          0x200000a8   Data          20  gd32f30x_it.o(.bss)
    __initial_sp                             0x200004c0   Data           0  startup_gd32f30x_hd.o(STACK)



==============================================================================

Memory Map of the image

  Image Entry point : 0x08000131

  Load Region LR_IROM1 (Base: 0x08000000, Size: 0x00001728, Max: 0x00080000, ABSOLUTE)

    Execution Region ER_IROM1 (Base: 0x08000000, Size: 0x00001694, Max: 0x00080000, ABSOLUTE)

    Base Addr    Size         Type   Attr      Idx    E Section Name        Object

    0x08000000   0x00000130   Data   RO         4329    RESET               startup_gd32f30x_hd.o
    0x08000130   0x00000000   Code   RO         4381  * .ARM.Collect$$$$00000000  mc_w.l(entry.o)
    0x08000130   0x00000004   Code   RO         4649    .ARM.Collect$$$$00000001  mc_w.l(entry2.o)
    0x08000134   0x00000004   Code   RO         4652    .ARM.Collect$$$$00000004  mc_w.l(entry5.o)
    0x08000138   0x00000000   Code   RO         4654    .ARM.Collect$$$$00000008  mc_w.l(entry7b.o)
    0x08000138   0x00000000   Code   RO         4656    .ARM.Collect$$$$0000000A  mc_w.l(entry8b.o)
    0x08000138   0x00000008   Code   RO         4657    .ARM.Collect$$$$0000000B  mc_w.l(entry9a.o)
    0x08000140   0x00000000   Code   RO         4659    .ARM.Collect$$$$0000000D  mc_w.l(entry10a.o)
    0x08000140   0x00000000   Code   RO         4661    .ARM.Collect$$$$0000000F  mc_w.l(entry11a.o)
    0x08000140   0x00000004   Code   RO         4650    .ARM.Collect$$$$00002712  mc_w.l(entry2.o)
    0x08000144   0x00000024   Code   RO         4330    .text               startup_gd32f30x_hd.o
    0x08000168   0x00000024   Code   RO         4384    .text               mc_w.l(memcpya.o)
    0x0800018c   0x00000062   Code   RO         4666    .text               mc_w.l(uldiv.o)
    0x080001ee   0x00000002   PAD
    0x080001f0   0x00000024   Code   RO         4679    .text               mc_w.l(init.o)
    0x08000214   0x0000001e   Code   RO         4681    .text               mc_w.l(llshl.o)
    0x08000232   0x00000020   Code   RO         4683    .text               mc_w.l(llushr.o)
    0x08000252   0x00000004   Code   RO          154    i.BusFault_Handler  gd32f30x_it.o
    0x08000256   0x00000002   Code   RO          155    i.DebugMon_Handler  gd32f30x_it.o
    0x08000258   0x00000004   Code   RO          156    i.HardFault_Handler  gd32f30x_it.o
    0x0800025c   0x00000004   Code   RO          157    i.MemManage_Handler  gd32f30x_it.o
    0x08000260   0x00000002   Code   RO          158    i.NMI_Handler       gd32f30x_it.o
    0x08000262   0x00000002   Code   RO          159    i.PendSV_Handler    gd32f30x_it.o
    0x08000264   0x00000002   Code   RO          160    i.SVC_Handler       gd32f30x_it.o
    0x08000266   0x00000002   Code   RO          161    i.SysTick_Handler   gd32f30x_it.o
    0x08000268   0x00000050   Code   RO          298    i.SystemInit        system_gd32f30x.o
    0x080002b8   0x0000003c   Code   RO          162    i.USBD_LP_CAN0_RX0_IRQHandler  gd32f30x_it.o
    0x080002f4   0x00000004   Code   RO          163    i.UsageFault_Handler  gd32f30x_it.o
    0x080002f8   0x00000020   Code   RO         4521    i.__0printf$5       mc_w.l(printf5.o)
    0x08000318   0x00000084   Code   RO         4336    i.__can_networking_init  can.o
    0x0800039c   0x0000000e   Code   RO         4691    i.__scatterload_copy  mc_w.l(handlers.o)
    0x080003aa   0x00000002   Code   RO         4692    i.__scatterload_null  mc_w.l(handlers.o)
    0x080003ac   0x0000000e   Code   RO         4693    i.__scatterload_zeroinit  mc_w.l(handlers.o)
    0x080003ba   0x00000002   PAD
    0x080003bc   0x000002c0   Code   RO         4528    i._printf_core      mc_w.l(printf5.o)
    0x0800067c   0x00000048   Code   RO         4337    i.can0_send         can.o
    0x080006c4   0x00000020   Code   RO          778    i.can_deinit        gd32f30x_can.o
    0x080006e4   0x00000110   Code   RO          781    i.can_filter_init   gd32f30x_can.o
    0x080007f4   0x0000003c   Code   RO         4338    i.can_gpio_config   can.o
    0x08000830   0x00000128   Code   RO          784    i.can_init          gd32f30x_can.o
    0x08000958   0x00000008   Code   RO          786    i.can_interrupt_enable  gd32f30x_can.o
    0x08000960   0x000000e4   Code   RO          789    i.can_message_receive  gd32f30x_can.o
    0x08000a44   0x00000150   Code   RO          790    i.can_message_transmit  gd32f30x_can.o
    0x08000b94   0x0000001c   Code   RO         4339    i.can_networking_init  can.o
    0x08000bb0   0x0000000e   Code   RO         4340    i.can_nvic_config   can.o
    0x08000bbe   0x00000014   Code   RO            3    i.delay             main.o
    0x08000bd2   0x00000002   PAD
    0x08000bd4   0x000000b8   Code   RO         1731    i.exti_init         gd32f30x_exti.o
    0x08000c8c   0x0000000c   Code   RO         1734    i.exti_interrupt_flag_clear  gd32f30x_exti.o
    0x08000c98   0x00000024   Code   RO            4    i.fputc             main.o
    0x08000cbc   0x00000098   Code   RO         4271    i.gd_eval_com_init  gd32f303e_eval.o
    0x08000d54   0x00000080   Code   RO         4272    i.gd_eval_key_init  gd32f303e_eval.o
    0x08000dd4   0x00000020   Code   RO         4273    i.gd_eval_key_state_get  gd32f303e_eval.o
    0x08000df4   0x00000040   Code   RO         4274    i.gd_eval_led_init  gd32f303e_eval.o
    0x08000e34   0x00000018   Code   RO         4275    i.gd_eval_led_off   gd32f303e_eval.o
    0x08000e4c   0x00000038   Code   RO         4277    i.gd_eval_led_toggle  gd32f303e_eval.o
    0x08000e84   0x0000000a   Code   RO         2083    i.gpio_bit_write    gd32f30x_gpio.o
    0x08000e8e   0x00000002   PAD
    0x08000e90   0x00000098   Code   RO         2090    i.gpio_exti_source_select  gd32f30x_gpio.o
    0x08000f28   0x000000a4   Code   RO         2091    i.gpio_init         gd32f30x_gpio.o
    0x08000fcc   0x00000010   Code   RO         2092    i.gpio_input_bit_get  gd32f30x_gpio.o
    0x08000fdc   0x00000090   Code   RO         2097    i.gpio_pin_remap_config  gd32f30x_gpio.o
    0x0800106c   0x0000001c   Code   RO            5    i.led_config        main.o
    0x08001088   0x00000104   Code   RO            6    i.main              main.o
    0x0800118c   0x000000a4   Code   RO         2406    i.nvic_irq_enable   gd32f30x_misc.o
    0x08001230   0x00000158   Code   RO         2604    i.rcu_clock_freq_get  gd32f30x_rcu.o
    0x08001388   0x00000020   Code   RO         2622    i.rcu_periph_clock_enable  gd32f30x_rcu.o
    0x080013a8   0x00000020   Code   RO         2625    i.rcu_periph_reset_disable  gd32f30x_rcu.o
    0x080013c8   0x00000020   Code   RO         2626    i.rcu_periph_reset_enable  gd32f30x_rcu.o
    0x080013e8   0x00000110   Code   RO          299    i.system_clock_120m_hxtal  system_gd32f30x.o
    0x080014f8   0x00000008   Code   RO          300    i.system_clock_config  system_gd32f30x.o
    0x08001500   0x00000094   Code   RO         3899    i.usart_baudrate_set  gd32f30x_usart.o
    0x08001594   0x00000008   Code   RO         3903    i.usart_data_transmit  gd32f30x_usart.o
    0x0800159c   0x00000090   Code   RO         3904    i.usart_deinit      gd32f30x_usart.o
    0x0800162c   0x0000000a   Code   RO         3908    i.usart_enable      gd32f30x_usart.o
    0x08001636   0x0000001e   Code   RO         3910    i.usart_flag_get    gd32f30x_usart.o
    0x08001654   0x00000010   Code   RO         3932    i.usart_receive_config  gd32f30x_usart.o
    0x08001664   0x00000010   Code   RO         3946    i.usart_transmit_config  gd32f30x_usart.o
    0x08001674   0x00000020   Data   RO         4689    Region$$Table       anon$$obj.o


    Execution Region RW_IRAM1 (Base: 0x20000000, Size: 0x000004c0, Max: 0x00010000, ABSOLUTE)

    Base Addr    Size         Type   Attr      Idx    E Section Name        Object

    0x20000000   0x00000002   Data   RW            8    .data               main.o
    0x20000002   0x00000001   Data   RW          165    .data               gd32f30x_it.o
    0x20000003   0x00000001   PAD
    0x20000004   0x0000008c   Data   RW         4278    .data               gd32f303e_eval.o
    0x20000090   0x00000004   Data   RW         4663    .data               mc_w.l(stdout.o)
    0x20000094   0x00000014   Zero   RW            7    .bss                main.o
    0x200000a8   0x00000014   Zero   RW          164    .bss                gd32f30x_it.o
    0x200000bc   0x00000004   PAD
    0x200000c0   0x00000400   Zero   RW         4327    STACK               startup_gd32f30x_hd.o


==============================================================================

Image component sizes


      Code (inc. data)   RO Data    RW Data    ZI Data      Debug   Object Name

       306         18          0          0          0       3310   can.o
       456        102          0        140          0       4864   gd32f303e_eval.o
      1172         18          0          0          0      20494   gd32f30x_can.o
       196         12          0          0          0       5760   gd32f30x_exti.o
       486         12          0          0          0      15092   gd32f30x_gpio.o
        86         14          0          1         20      24535   gd32f30x_it.o
       164          8          0          0          0        918   gd32f30x_misc.o
       440         46          0          0          0      20480   gd32f30x_rcu.o
       372         16          0          0          0      11625   gd32f30x_usart.o
       344        104          0          2         20      51780   main.o
        36          8        304          0       1024        932   startup_gd32f30x_hd.o
       360         30          0          0          0       1901   system_gd32f30x.o

    ----------------------------------------------------------------------
      4422        388        336        144       1068     161691   Object Totals
         0          0         32          0          0          0   (incl. Generated)
         4          0          0          1          4          0   (incl. Padding)

    ----------------------------------------------------------------------

      Code (inc. data)   RO Data    RW Data    ZI Data      Debug   Library Member Name

         0          0          0          0          0          0   entry.o
         0          0          0          0          0          0   entry10a.o
         0          0          0          0          0          0   entry11a.o
         8          4          0          0          0          0   entry2.o
         4          0          0          0          0          0   entry5.o
         0          0          0          0          0          0   entry7b.o
         0          0          0          0          0          0   entry8b.o
         8          4          0          0          0          0   entry9a.o
        30          0          0          0          0          0   handlers.o
        36          8          0          0          0         68   init.o
        30          0          0          0          0         68   llshl.o
        32          0          0          0          0         68   llushr.o
        36          0          0          0          0         68   memcpya.o
       736         56          0          0          0        184   printf5.o
         0          0          0          4          0          0   stdout.o
        98          0          0          0          0         92   uldiv.o

    ----------------------------------------------------------------------
      1022         72          0          4          0        548   Library Totals
         4          0          0          0          0          0   (incl. Padding)

    ----------------------------------------------------------------------

      Code (inc. data)   RO Data    RW Data    ZI Data      Debug   Library Name

      1018         72          0          4          0        548   mc_w.l

    ----------------------------------------------------------------------
      1022         72          0          4          0        548   Library Totals

    ----------------------------------------------------------------------

==============================================================================


      Code (inc. data)   RO Data    RW Data    ZI Data      Debug   

      5444        460        336        148       1068     157435   Grand Totals
      5444        460        336        148       1068     157435   ELF Image Totals
      5444        460        336        148          0          0   ROM Totals

==============================================================================

    Total RO  Size (Code + RO Data)                 5780 (   5.64kB)
    Total RW  Size (RW Data + ZI Data)              1216 (   1.19kB)
    Total ROM Size (Code + RO Data + RW Data)       5928 (   5.79kB)

==============================================================================

