Component: ARM Compiler 5.05 update 1 (build 106) Tool: armlink [4d0efa]

==============================================================================

Section Cross References

    main.o(i.main) refers to systick.o(i.systick_config) for systick_config
    main.o(i.main) refers to main.o(i.test_status_led_init) for test_status_led_init
    main.o(i.main) refers to gd32f30x_misc.o(i.nvic_priority_group_set) for nvic_priority_group_set
    main.o(i.main) refers to gd32f30x_misc.o(i.nvic_irq_enable) for nvic_irq_enable
    main.o(i.main) refers to pcm1770_1.o(i.pcm1770_init) for pcm1770_init
    main.o(i.main) refers to pcm1770_1.o(i.pcm1770_audio_play) for pcm1770_audio_play
    main.o(i.main) refers to pcm1770_1.o(.constdata) for wave_test_data
    main.o(i.test_status_led_init) refers to gd32f303e_eval.o(i.gd_eval_led_init) for gd_eval_led_init
    main.o(i.test_status_led_init) refers to gd32f303e_eval.o(i.gd_eval_led_on) for gd_eval_led_on
    main.o(i.test_status_led_init) refers to systick.o(i.delay_1ms) for delay_1ms
    main.o(i.test_status_led_init) refers to gd32f303e_eval.o(i.gd_eval_led_off) for gd_eval_led_off
    gd32f30x_it.o(i.SPI1_IRQHandler) refers to gd32f30x_spi.o(i.spi_i2s_interrupt_flag_get) for spi_i2s_interrupt_flag_get
    gd32f30x_it.o(i.SPI1_IRQHandler) refers to pcm1770_1.o(i.pcm1770_send_data) for pcm1770_send_data
    gd32f30x_it.o(i.SysTick_Handler) refers to systick.o(i.delay_decrement) for delay_decrement
    systick.o(i.delay_1ms) refers to systick.o(.data) for delay
    systick.o(i.delay_decrement) refers to systick.o(.data) for delay
    systick.o(i.systick_config) refers to systick.o(i.NVIC_SetPriority) for NVIC_SetPriority
    systick.o(i.systick_config) refers to system_gd32f30x.o(.data) for SystemCoreClock
==============================================================================

Removing Unused input sections from the image.

    Removing main.o(.rev16_text), (4 bytes).
    Removing main.o(.revsh_text), (4 bytes).
    Removing gd32f30x_it.o(.rev16_text), (4 bytes).
    Removing gd32f30x_it.o(.revsh_text), (4 bytes).
    Removing systick.o(.rev16_text), (4 bytes).
    Removing systick.o(.revsh_text), (4 bytes).
    Removing system_gd32f30x.o(.rev16_text), (4 bytes).
    Removing system_gd32f30x.o(.revsh_text), (4 bytes).
    Removing system_gd32f30x.o(i.SystemCoreClockUpdate), (184 bytes).
    Removing gd32f30x_adc.o(.rev16_text), (4 bytes).
    Removing gd32f30x_adc.o(.revsh_text), (4 bytes).
    Removing gd32f30x_adc.o(i.adc_calibration_enable), (42 bytes).
    Removing gd32f30x_adc.o(i.adc_channel_length_config), (70 bytes).
    Removing gd32f30x_adc.o(i.adc_data_alignment_config), (22 bytes).
    Removing gd32f30x_adc.o(i.adc_deinit), (88 bytes).
    Removing gd32f30x_adc.o(i.adc_disable), (10 bytes).
    Removing gd32f30x_adc.o(i.adc_discontinuous_mode_config), (76 bytes).
    Removing gd32f30x_adc.o(i.adc_dma_mode_disable), (10 bytes).
==============================================================================

Image Symbol Table

    Local Symbols

    Symbol Name                              Value     Ov Type        Size  Object(Section)

    ../clib/microlib/init/entry.s            0x00000000   Number         0  entry7a.o ABSOLUTE
    ../clib/microlib/init/entry.s            0x00000000   Number         0  entry5.o ABSOLUTE
    ../clib/microlib/init/entry.s            0x00000000   Number         0  entry.o ABSOLUTE
    ../clib/microlib/init/entry.s            0x00000000   Number         0  entry11b.o ABSOLUTE
    ../clib/microlib/init/entry.s            0x00000000   Number         0  entry11a.o ABSOLUTE
    ../clib/microlib/init/entry.s            0x00000000   Number         0  entry10b.o ABSOLUTE
    ../clib/microlib/init/entry.s            0x00000000   Number         0  entry10a.o ABSOLUTE
    ../clib/microlib/init/entry.s            0x00000000   Number         0  entry9b.o ABSOLUTE
    ../clib/microlib/init/entry.s            0x00000000   Number         0  entry8b.o ABSOLUTE
    ../clib/microlib/init/entry.s            0x00000000   Number         0  entry8a.o ABSOLUTE
    ../clib/microlib/init/entry.s            0x00000000   Number         0  entry7b.o ABSOLUTE
    ../clib/microlib/init/entry.s            0x00000000   Number         0  entry9a.o ABSOLUTE
    ../clib/microlib/init/entry.s            0x00000000   Number         0  entry2.o ABSOLUTE
    ..\..\..\Library\Firmware\CMSIS\GD\GD32F30x\Source\ARM\startup_gd32f30x_hd.s 0x00000000   Number         0  startup_gd32f30x_hd.o ABSOLUTE
    ..\..\..\Library\Firmware\CMSIS\GD\GD32F30x\Source\system_gd32f30x.c 0x00000000   Number         0  system_gd32f30x.o ABSOLUTE
    ..\..\..\Library\Firmware\GD32F30x_standard_peripheral\Source\gd32f30x_adc.c 0x00000000   Number         0  gd32f30x_adc.o ABSOLUTE
    ..\..\..\Library\Firmware\GD32F30x_standard_peripheral\Source\gd32f30x_bkp.c 0x00000000   Number         0  gd32f30x_bkp.o ABSOLUTE
    ..\..\..\Library\Firmware\GD32F30x_standard_peripheral\Source\gd32f30x_can.c 0x00000000   Number         0  gd32f30x_can.o ABSOLUTE
    ..\..\..\Library\Firmware\GD32F30x_standard_peripheral\Source\gd32f30x_crc.c 0x00000000   Number         0  gd32f30x_crc.o ABSOLUTE
    ..\..\..\Library\Firmware\GD32F30x_standard_peripheral\Source\gd32f30x_ctc.c 0x00000000   Number         0  gd32f30x_ctc.o ABSOLUTE
    ..\..\..\Library\Firmware\GD32F30x_standard_peripheral\Source\gd32f30x_dac.c 0x00000000   Number         0  gd32f30x_dac.o ABSOLUTE
    ..\..\..\Library\Firmware\GD32F30x_standard_peripheral\Source\gd32f30x_dbg.c 0x00000000   Number         0  gd32f30x_dbg.o ABSOLUTE
    ..\..\..\Library\Firmware\GD32F30x_standard_peripheral\Source\gd32f30x_dma.c 0x00000000   Number         0  gd32f30x_dma.o ABSOLUTE
    ..\..\..\Library\Firmware\GD32F30x_standard_peripheral\Source\gd32f30x_enet.c 0x00000000   Number         0  gd32f30x_enet.o ABSOLUTE
    ..\..\..\Library\Firmware\GD32F30x_standard_peripheral\Source\gd32f30x_exmc.c 0x00000000   Number         0  gd32f30x_exmc.o ABSOLUTE
    ..\..\..\Library\Firmware\GD32F30x_standard_peripheral\Source\gd32f30x_exti.c 0x00000000   Number         0  gd32f30x_exti.o ABSOLUTE
    ..\..\..\Library\Firmware\GD32F30x_standard_peripheral\Source\gd32f30x_fmc.c 0x00000000   Number         0  gd32f30x_fmc.o ABSOLUTE
    ..\..\..\Library\Firmware\GD32F30x_standard_peripheral\Source\gd32f30x_fwdgt.c 0x00000000   Number         0  gd32f30x_fwdgt.o ABSOLUTE
    ..\..\..\Library\Firmware\GD32F30x_standard_peripheral\Source\gd32f30x_gpio.c 0x00000000   Number         0  gd32f30x_gpio.o ABSOLUTE
    ..\..\..\Library\Firmware\GD32F30x_standard_peripheral\Source\gd32f30x_i2c.c 0x00000000   Number         0  gd32f30x_i2c.o ABSOLUTE
    ..\..\..\Library\Firmware\GD32F30x_standard_peripheral\Source\gd32f30x_misc.c 0x00000000   Number         0  gd32f30x_misc.o ABSOLUTE
    ..\..\..\Library\Firmware\GD32F30x_standard_peripheral\Source\gd32f30x_pmu.c 0x00000000   Number         0  gd32f30x_pmu.o ABSOLUTE
    ..\..\..\Library\Firmware\GD32F30x_standard_peripheral\Source\gd32f30x_rcu.c 0x00000000   Number         0  gd32f30x_rcu.o ABSOLUTE
    ..\..\..\Library\Firmware\GD32F30x_standard_peripheral\Source\gd32f30x_rtc.c 0x00000000   Number         0  gd32f30x_rtc.o ABSOLUTE
    ..\..\..\Library\Firmware\GD32F30x_standard_peripheral\Source\gd32f30x_sdio.c 0x00000000   Number         0  gd32f30x_sdio.o ABSOLUTE
    ..\..\..\Library\Firmware\GD32F30x_standard_peripheral\Source\gd32f30x_spi.c 0x00000000   Number         0  gd32f30x_spi.o ABSOLUTE
    ..\..\..\Library\Firmware\GD32F30x_standard_peripheral\Source\gd32f30x_timer.c 0x00000000   Number         0  gd32f30x_timer.o ABSOLUTE
    ..\..\..\Library\Firmware\GD32F30x_standard_peripheral\Source\gd32f30x_usart.c 0x00000000   Number         0  gd32f30x_usart.o ABSOLUTE
    ..\..\..\Library\Firmware\GD32F30x_standard_peripheral\Source\gd32f30x_wwdgt.c 0x00000000   Number         0  gd32f30x_wwdgt.o ABSOLUTE
    ..\..\..\Library\Utilities\gd32f303e_eval.c 0x00000000   Number         0  gd32f303e_eval.o ABSOLUTE
    ..\\..\\..\\Library\\Firmware\\CMSIS\\GD\\GD32F30x\\Source\\system_gd32f30x.c 0x00000000   Number         0  system_gd32f30x.o ABSOLUTE
    ..\\..\\..\\Library\\Firmware\\GD32F30x_standard_peripheral\\Source\\gd32f30x_adc.c 0x00000000   Number         0  gd32f30x_adc.o ABSOLUTE
    ..\\..\\..\\Library\\Firmware\\GD32F30x_standard_peripheral\\Source\\gd32f30x_bkp.c 0x00000000   Number         0  gd32f30x_bkp.o ABSOLUTE
    ..\\..\\..\\Library\\Firmware\\GD32F30x_standard_peripheral\\Source\\gd32f30x_can.c 0x00000000   Number         0  gd32f30x_can.o ABSOLUTE
    ..\\..\\..\\Library\\Firmware\\GD32F30x_standard_peripheral\\Source\\gd32f30x_crc.c 0x00000000   Number         0  gd32f30x_crc.o ABSOLUTE
    ..\\..\\..\\Library\\Firmware\\GD32F30x_standard_peripheral\\Source\\gd32f30x_ctc.c 0x00000000   Number         0  gd32f30x_ctc.o ABSOLUTE
    ..\\..\\..\\Library\\Firmware\\GD32F30x_standard_peripheral\\Source\\gd32f30x_dac.c 0x00000000   Number         0  gd32f30x_dac.o ABSOLUTE
    ..\\..\\..\\Library\\Firmware\\GD32F30x_standard_peripheral\\Source\\gd32f30x_dbg.c 0x00000000   Number         0  gd32f30x_dbg.o ABSOLUTE
    ..\\..\\..\\Library\\Firmware\\GD32F30x_standard_peripheral\\Source\\gd32f30x_dma.c 0x00000000   Number         0  gd32f30x_dma.o ABSOLUTE
    ..\\..\\..\\Library\\Firmware\\GD32F30x_standard_peripheral\\Source\\gd32f30x_enet.c 0x00000000   Number         0  gd32f30x_enet.o ABSOLUTE
    ..\\..\\..\\Library\\Firmware\\GD32F30x_standard_peripheral\\Source\\gd32f30x_exmc.c 0x00000000   Number         0  gd32f30x_exmc.o ABSOLUTE
    ..\\..\\..\\Library\\Firmware\\GD32F30x_standard_peripheral\\Source\\gd32f30x_exti.c 0x00000000   Number         0  gd32f30x_exti.o ABSOLUTE
    ..\\..\\..\\Library\\Firmware\\GD32F30x_standard_peripheral\\Source\\gd32f30x_fmc.c 0x00000000   Number         0  gd32f30x_fmc.o ABSOLUTE
    ..\\..\\..\\Library\\Firmware\\GD32F30x_standard_peripheral\\Source\\gd32f30x_fwdgt.c 0x00000000   Number         0  gd32f30x_fwdgt.o ABSOLUTE
    ..\\..\\..\\Library\\Firmware\\GD32F30x_standard_peripheral\\Source\\gd32f30x_gpio.c 0x00000000   Number         0  gd32f30x_gpio.o ABSOLUTE
    ..\\..\\..\\Library\\Firmware\\GD32F30x_standard_peripheral\\Source\\gd32f30x_i2c.c 0x00000000   Number         0  gd32f30x_i2c.o ABSOLUTE
    ..\\..\\..\\Library\\Firmware\\GD32F30x_standard_peripheral\\Source\\gd32f30x_misc.c 0x00000000   Number         0  gd32f30x_misc.o ABSOLUTE
    ..\\..\\..\\Library\\Firmware\\GD32F30x_standard_peripheral\\Source\\gd32f30x_pmu.c 0x00000000   Number         0  gd32f30x_pmu.o ABSOLUTE
    ..\\..\\..\\Library\\Firmware\\GD32F30x_standard_peripheral\\Source\\gd32f30x_rcu.c 0x00000000   Number         0  gd32f30x_rcu.o ABSOLUTE
    ..\\..\\..\\Library\\Firmware\\GD32F30x_standard_peripheral\\Source\\gd32f30x_rtc.c 0x00000000   Number         0  gd32f30x_rtc.o ABSOLUTE
    ..\\..\\..\\Library\\Firmware\\GD32F30x_standard_peripheral\\Source\\gd32f30x_sdio.c 0x00000000   Number         0  gd32f30x_sdio.o ABSOLUTE
    ..\\..\\..\\Library\\Firmware\\GD32F30x_standard_peripheral\\Source\\gd32f30x_spi.c 0x00000000   Number         0  gd32f30x_spi.o ABSOLUTE
    ..\\..\\..\\Library\\Firmware\\GD32F30x_standard_peripheral\\Source\\gd32f30x_timer.c 0x00000000   Number         0  gd32f30x_timer.o ABSOLUTE
    ..\\..\\..\\Library\\Firmware\\GD32F30x_standard_peripheral\\Source\\gd32f30x_usart.c 0x00000000   Number         0  gd32f30x_usart.o ABSOLUTE
    ..\\..\\..\\Library\\Firmware\\GD32F30x_standard_peripheral\\Source\\gd32f30x_wwdgt.c 0x00000000   Number         0  gd32f30x_wwdgt.o ABSOLUTE
    ..\\..\\..\\Library\\Utilities\\gd32f303e_eval.c 0x00000000   Number         0  gd32f303e_eval.o ABSOLUTE
    ..\\bsp\\i2s\\pcm1770.c                  0x00000000   Number         0  pcm1770_1.o ABSOLUTE
    ..\\bsp\\i2s\\spi_i2s.c                  0x00000000   Number         0  spi_i2s_1.o ABSOLUTE
    ..\\gd32f30x_it.c                        0x00000000   Number         0  gd32f30x_it.o ABSOLUTE
    ..\\main.c                               0x00000000   Number         0  main.o ABSOLUTE
    ..\\systick.c                            0x00000000   Number         0  systick.o ABSOLUTE
    ..\bsp\i2s\pcm1770.c                     0x00000000   Number         0  pcm1770_1.o ABSOLUTE
    ..\bsp\i2s\spi_i2s.c                     0x00000000   Number         0  spi_i2s_1.o ABSOLUTE
    ..\gd32f30x_it.c                         0x00000000   Number         0  gd32f30x_it.o ABSOLUTE
    ..\main.c                                0x00000000   Number         0  main.o ABSOLUTE
    ..\systick.c                             0x00000000   Number         0  systick.o ABSOLUTE
    dc.s                                     0x00000000   Number         0  dc.o ABSOLUTE
    handlers.s                               0x00000000   Number         0  handlers.o ABSOLUTE
    init.s                                   0x00000000   Number         0  init.o ABSOLUTE
    RESET                                    0x08000000   Section      304  startup_gd32f30x_hd.o(RESET)
    .ARM.Collect$$$$00000000                 0x08000130   Section        0  entry.o(.ARM.Collect$$$$00000000)
    .ARM.Collect$$$$00000001                 0x08000130   Section        4  entry2.o(.ARM.Collect$$$$00000001)
    .ARM.Collect$$$$00000004                 0x08000134   Section        4  entry5.o(.ARM.Collect$$$$00000004)
    .ARM.Collect$$$$00000008                 0x08000138   Section        0  entry7b.o(.ARM.Collect$$$$00000008)
    .ARM.Collect$$$$0000000A                 0x08000138   Section        0  entry8b.o(.ARM.Collect$$$$0000000A)
    .ARM.Collect$$$$0000000B                 0x08000138   Section        8  entry9a.o(.ARM.Collect$$$$0000000B)
    .ARM.Collect$$$$0000000D                 0x08000140   Section        0  entry10a.o(.ARM.Collect$$$$0000000D)
    .ARM.Collect$$$$0000000F                 0x08000140   Section        0  entry11a.o(.ARM.Collect$$$$0000000F)
    .ARM.Collect$$$$00002712                 0x08000140   Section        4  entry2.o(.ARM.Collect$$$$00002712)
    __lit__00000000                          0x08000140   Data           4  entry2.o(.ARM.Collect$$$$00002712)
    .text                                    0x08000144   Section       36  startup_gd32f30x_hd.o(.text)
    $v0                                      0x08000144   Number         0  startup_gd32f30x_hd.o(.text)
    .text                                    0x08000168   Section       36  init.o(.text)
    i.BusFault_Handler                       0x0800018c   Section        0  gd32f30x_it.o(i.BusFault_Handler)
    i.DebugMon_Handler                       0x08000190   Section        0  gd32f30x_it.o(i.DebugMon_Handler)
    i.HardFault_Handler                      0x08000192   Section        0  gd32f30x_it.o(i.HardFault_Handler)
    i.MemManage_Handler                      0x08000196   Section        0  gd32f30x_it.o(i.MemManage_Handler)
    i.NMI_Handler                            0x0800019a   Section        0  gd32f30x_it.o(i.NMI_Handler)
    i.NVIC_SetPriority                       0x0800019c   Section        0  systick.o(i.NVIC_SetPriority)
    NVIC_SetPriority                         0x0800019d   Thumb Code    32  systick.o(i.NVIC_SetPriority)
    i.PendSV_Handler                         0x080001c4   Section        0  gd32f30x_it.o(i.PendSV_Handler)
    i.SPI1_IRQHandler                        0x080001c8   Section        0  gd32f30x_it.o(i.SPI1_IRQHandler)
    i.SVC_Handler                            0x080001e0   Section        0  gd32f30x_it.o(i.SVC_Handler)
    i.SysTick_Handler                        0x080001e2   Section        0  gd32f30x_it.o(i.SysTick_Handler)
    i.SystemInit                             0x080001ec   Section        0  system_gd32f30x.o(i.SystemInit)
    i.UsageFault_Handler                     0x0800023c   Section        0  gd32f30x_it.o(i.UsageFault_Handler)
    i.__scatterload_copy                     0x08000240   Section       14  handlers.o(i.__scatterload_copy)
    i.__scatterload_null                     0x0800024e   Section        2  handlers.o(i.__scatterload_null)
    i.__scatterload_zeroinit                 0x08000250   Section       14  handlers.o(i.__scatterload_zeroinit)
    i.audio_data_index_inc                   0x08000260   Section        0  pcm1770_1.o(i.audio_data_index_inc)
    i.audio_format_parsing                   0x08000288   Section        0  pcm1770_1.o(i.audio_format_parsing)
    i.audio_init                             0x080003d4   Section        0  pcm1770_1.o(i.audio_init)
    i.audio_read_half_word                   0x080003fc   Section        0  pcm1770_1.o(i.audio_read_half_word)
    i.audio_read_unit                        0x08000454   Section        0  pcm1770_1.o(i.audio_read_unit)
    audio_read_unit                          0x08000455   Thumb Code    86  pcm1770_1.o(i.audio_read_unit)
    i.audio_replay_count_dec                 0x080004b4   Section        0  pcm1770_1.o(i.audio_replay_count_dec)
    i.audio_set_play_status                  0x08000500   Section        0  pcm1770_1.o(i.audio_set_play_status)
    i.delay_1ms                              0x08000510   Section        0  systick.o(i.delay_1ms)
    i.delay_decrement                        0x08000524   Section        0  systick.o(i.delay_decrement)
    i.gd_eval_led_init                       0x0800053c   Section        0  gd32f303e_eval.o(i.gd_eval_led_init)
    i.gd_eval_led_off                        0x0800057c   Section        0  gd32f303e_eval.o(i.gd_eval_led_off)
    i.gd_eval_led_on                         0x08000594   Section        0  gd32f303e_eval.o(i.gd_eval_led_on)
    i.gpio_bit_set                           0x080005ac   Section        0  gd32f30x_gpio.o(i.gpio_bit_set)
    i.gpio_init                              0x080005b0   Section        0  gd32f30x_gpio.o(i.gpio_init)
    i.i2s_enable                             0x08000654   Section        0  gd32f30x_spi.o(i.i2s_enable)
    i.i2s_init                               0x0800065e   Section        0  gd32f30x_spi.o(i.i2s_init)
    i.i2s_psc_config                         0x0800067a   Section        0  gd32f30x_spi.o(i.i2s_psc_config)
    i.main                                   0x08000720   Section        0  main.o(i.main)
    i.nvic_irq_enable                        0x0800074c   Section        0  gd32f30x_misc.o(i.nvic_irq_enable)
    i.nvic_priority_group_set                0x080007f0   Section        0  gd32f30x_misc.o(i.nvic_priority_group_set)
    i.pcm1770_audio_play                     0x08000804   Section        0  pcm1770_1.o(i.pcm1770_audio_play)
    i.pcm1770_init                           0x0800083c   Section        0  pcm1770_1.o(i.pcm1770_init)
    i.pcm1770_send_data                      0x08000878   Section        0  pcm1770_1.o(i.pcm1770_send_data)
    i.rcu_clock_freq_get                     0x080008ac   Section        0  gd32f30x_rcu.o(i.rcu_clock_freq_get)
    i.rcu_periph_clock_enable                0x08000a04   Section        0  gd32f30x_rcu.o(i.rcu_periph_clock_enable)
    i.rcu_periph_reset_disable               0x08000a24   Section        0  gd32f30x_rcu.o(i.rcu_periph_reset_disable)
    i.rcu_periph_reset_enable                0x08000a44   Section        0  gd32f30x_rcu.o(i.rcu_periph_reset_enable)
    i.spi_enable                             0x08000a64   Section        0  gd32f30x_spi.o(i.spi_enable)
    i.spi_i2s_config                         0x08000a70   Section        0  spi_i2s_1.o(i.spi_i2s_config)
    i.spi_i2s_data_transmit                  0x08000af8   Section        0  gd32f30x_spi.o(i.spi_i2s_data_transmit)
    i.spi_i2s_deinit                         0x08000afc   Section        0  gd32f30x_spi.o(i.spi_i2s_deinit)
    i.spi_i2s_gpio_config                    0x08000b54   Section        0  spi_i2s_1.o(i.spi_i2s_gpio_config)
    i.spi_i2s_interrupt_disable              0x08000bc0   Section        0  gd32f30x_spi.o(i.spi_i2s_interrupt_disable)
    i.spi_i2s_interrupt_enable               0x08000bf0   Section        0  gd32f30x_spi.o(i.spi_i2s_interrupt_enable)
    i.spi_i2s_interrupt_flag_get             0x08000c20   Section        0  gd32f30x_spi.o(i.spi_i2s_interrupt_flag_get)
    i.spi_init                               0x08000c90   Section        0  gd32f30x_spi.o(i.spi_init)
    i.system_clock_120m_hxtal                0x08000cc4   Section        0  system_gd32f30x.o(i.system_clock_120m_hxtal)
    system_clock_120m_hxtal                  0x08000cc5   Thumb Code   256  system_gd32f30x.o(i.system_clock_120m_hxtal)
    i.system_clock_config                    0x08000dd4   Section        0  system_gd32f30x.o(i.system_clock_config)
    system_clock_config                      0x08000dd5   Thumb Code     8  system_gd32f30x.o(i.system_clock_config)
    i.systick_config                         0x08000ddc   Section        0  systick.o(i.systick_config)
    i.test_status_led_init                   0x08000e2c   Section        0  main.o(i.test_status_led_init)
    .constdata                               0x08000e80   Section    55916  pcm1770_1.o(.constdata)
    .data                                    0x20000000   Section        4  systick.o(.data)
    delay                                    0x20000000   Data           4  systick.o(.data)
    .data                                    0x20000004   Section        4  system_gd32f30x.o(.data)
    .data                                    0x20000008   Section      140  gd32f303e_eval.o(.data)
    GPIO_PORT                                0x20000008   Data          16  gd32f303e_eval.o(.data)
    GPIO_PIN                                 0x20000018   Data          16  gd32f303e_eval.o(.data)
    COM_CLK                                  0x20000028   Data           4  gd32f303e_eval.o(.data)
    COM_TX_PIN                               0x2000002c   Data           8  gd32f303e_eval.o(.data)
    COM_RX_PIN                               0x20000034   Data           8  gd32f303e_eval.o(.data)
    COM_GPIO_PORT                            0x2000003c   Data           8  gd32f303e_eval.o(.data)
    COM_GPIO_CLK                             0x20000044   Data           4  gd32f303e_eval.o(.data)
    GPIO_CLK                                 0x20000048   Data           8  gd32f303e_eval.o(.data)
    KEY_PORT                                 0x20000050   Data          16  gd32f303e_eval.o(.data)
    KEY_PIN                                  0x20000060   Data          16  gd32f303e_eval.o(.data)
    KEY_CLK                                  0x20000070   Data           8  gd32f303e_eval.o(.data)
    KEY_EXTI_LINE                            0x20000078   Data          16  gd32f303e_eval.o(.data)
    KEY_PORT_SOURCE                          0x20000088   Data           4  gd32f303e_eval.o(.data)
    KEY_PIN_SOURCE                           0x2000008c   Data           4  gd32f303e_eval.o(.data)
    KEY_IRQn                                 0x20000090   Data           4  gd32f303e_eval.o(.data)
    .data                                    0x20000094   Section       40  pcm1770_1.o(.data)
    audio_replay_remain_count                0x200000b0   Data           4  pcm1770_1.o(.data)
    audio_replay_count                       0x200000b4   Data           4  pcm1770_1.o(.data)
    monovar                                  0x200000b8   Data           4  pcm1770_1.o(.data)
    .bss                                     0x200000bc   Section       24  pcm1770_1.o(.bss)
    STACK                                    0x200000d8   Section     1024  startup_gd32f30x_hd.o(STACK)

    Global Symbols

    Symbol Name                              Value     Ov Type        Size  Object(Section)

    BuildAttributes$$THM_ISAv4$E$P$D$K$B$S$7EM$VFPi3$EXTD16$VFPS$VFMA$PE$A:L22UL41UL21$X:L11$S22US41US21$IEEE1$IW$USESV6$~STKCKD$USESV7$~SHL$OSPACE$EBA8$MICROLIB$REQ8$PRES8$EABIv2 0x00000000   Number         0  anon$$obj.o ABSOLUTE
    __ARM_use_no_argv                        0x00000000   Number         0  main.o ABSOLUTE
    __cpp_initialize__aeabi_                  - Undefined Weak Reference
    __cxa_finalize                            - Undefined Weak Reference
    __decompress                              - Undefined Weak Reference
    _clock_init                               - Undefined Weak Reference
    _microlib_exit                            - Undefined Weak Reference
    __Vectors_Size                           0x00000130   Number         0  startup_gd32f30x_hd.o ABSOLUTE
    __Vectors                                0x08000000   Data           4  startup_gd32f30x_hd.o(RESET)
    __Vectors_End                            0x08000130   Data           0  startup_gd32f30x_hd.o(RESET)
    __main                                   0x08000131   Thumb Code     0  entry.o(.ARM.Collect$$$$00000000)
    _main_stk                                0x08000131   Thumb Code     0  entry2.o(.ARM.Collect$$$$00000001)
    _main_scatterload                        0x08000135   Thumb Code     0  entry5.o(.ARM.Collect$$$$00000004)
    __main_after_scatterload                 0x08000139   Thumb Code     0  entry5.o(.ARM.Collect$$$$00000004)
    _main_clock                              0x08000139   Thumb Code     0  entry7b.o(.ARM.Collect$$$$00000008)
    _main_cpp_init                           0x08000139   Thumb Code     0  entry8b.o(.ARM.Collect$$$$0000000A)
    _main_init                               0x08000139   Thumb Code     0  entry9a.o(.ARM.Collect$$$$0000000B)
    __rt_final_cpp                           0x08000141   Thumb Code     0  entry10a.o(.ARM.Collect$$$$0000000D)
    __rt_final_exit                          0x08000141   Thumb Code     0  entry11a.o(.ARM.Collect$$$$0000000F)
    Reset_Handler                            0x08000145   Thumb Code     8  startup_gd32f30x_hd.o(.text)
    ADC0_1_IRQHandler                        0x0800015f   Thumb Code     0  startup_gd32f30x_hd.o(.text)
    ADC2_IRQHandler                          0x0800015f   Thumb Code     0  startup_gd32f30x_hd.o(.text)
    CAN0_EWMC_IRQHandler                     0x0800015f   Thumb Code     0  startup_gd32f30x_hd.o(.text)
    CAN0_RX1_IRQHandler                      0x0800015f   Thumb Code     0  startup_gd32f30x_hd.o(.text)
    DMA0_Channel0_IRQHandler                 0x0800015f   Thumb Code     0  startup_gd32f30x_hd.o(.text)
    DMA0_Channel1_IRQHandler                 0x0800015f   Thumb Code     0  startup_gd32f30x_hd.o(.text)
    DMA0_Channel2_IRQHandler                 0x0800015f   Thumb Code     0  startup_gd32f30x_hd.o(.text)
    DMA0_Channel3_IRQHandler                 0x0800015f   Thumb Code     0  startup_gd32f30x_hd.o(.text)
    DMA0_Channel4_IRQHandler                 0x0800015f   Thumb Code     0  startup_gd32f30x_hd.o(.text)
    DMA0_Channel5_IRQHandler                 0x0800015f   Thumb Code     0  startup_gd32f30x_hd.o(.text)
    DMA0_Channel6_IRQHandler                 0x0800015f   Thumb Code     0  startup_gd32f30x_hd.o(.text)
    DMA1_Channel0_IRQHandler                 0x0800015f   Thumb Code     0  startup_gd32f30x_hd.o(.text)
    DMA1_Channel1_IRQHandler                 0x0800015f   Thumb Code     0  startup_gd32f30x_hd.o(.text)
    DMA1_Channel2_IRQHandler                 0x0800015f   Thumb Code     0  startup_gd32f30x_hd.o(.text)
    DMA1_Channel3_4_IRQHandler               0x0800015f   Thumb Code     0  startup_gd32f30x_hd.o(.text)
    EXMC_IRQHandler                          0x0800015f   Thumb Code     0  startup_gd32f30x_hd.o(.text)
    EXTI0_IRQHandler                         0x0800015f   Thumb Code     0  startup_gd32f30x_hd.o(.text)
    EXTI10_15_IRQHandler                     0x0800015f   Thumb Code     0  startup_gd32f30x_hd.o(.text)
    EXTI1_IRQHandler                         0x0800015f   Thumb Code     0  startup_gd32f30x_hd.o(.text)
    EXTI2_IRQHandler                         0x0800015f   Thumb Code     0  startup_gd32f30x_hd.o(.text)
    EXTI3_IRQHandler                         0x0800015f   Thumb Code     0  startup_gd32f30x_hd.o(.text)
    EXTI4_IRQHandler                         0x0800015f   Thumb Code     0  startup_gd32f30x_hd.o(.text)
    EXTI5_9_IRQHandler                       0x0800015f   Thumb Code     0  startup_gd32f30x_hd.o(.text)
    FMC_IRQHandler                           0x0800015f   Thumb Code     0  startup_gd32f30x_hd.o(.text)
    I2C0_ER_IRQHandler                       0x0800015f   Thumb Code     0  startup_gd32f30x_hd.o(.text)
    I2C0_EV_IRQHandler                       0x0800015f   Thumb Code     0  startup_gd32f30x_hd.o(.text)
    I2C1_ER_IRQHandler                       0x0800015f   Thumb Code     0  startup_gd32f30x_hd.o(.text)
    I2C1_EV_IRQHandler                       0x0800015f   Thumb Code     0  startup_gd32f30x_hd.o(.text)
    LVD_IRQHandler                           0x0800015f   Thumb Code     0  startup_gd32f30x_hd.o(.text)
    RCU_CTC_IRQHandler                       0x0800015f   Thumb Code     0  startup_gd32f30x_hd.o(.text)
    RTC_Alarm_IRQHandler                     0x0800015f   Thumb Code     0  startup_gd32f30x_hd.o(.text)
    RTC_IRQHandler                           0x0800015f   Thumb Code     0  startup_gd32f30x_hd.o(.text)
    SDIO_IRQHandler                          0x0800015f   Thumb Code     0  startup_gd32f30x_hd.o(.text)
    SPI0_IRQHandler                          0x0800015f   Thumb Code     0  startup_gd32f30x_hd.o(.text)
    SPI2_IRQHandler                          0x0800015f   Thumb Code     0  startup_gd32f30x_hd.o(.text)
    TAMPER_IRQHandler                        0x0800015f   Thumb Code     0  startup_gd32f30x_hd.o(.text)
    TIMER0_BRK_IRQHandler                    0x0800015f   Thumb Code     0  startup_gd32f30x_hd.o(.text)
    TIMER0_Channel_IRQHandler                0x0800015f   Thumb Code     0  startup_gd32f30x_hd.o(.text)
    TIMER0_TRG_CMT_IRQHandler                0x0800015f   Thumb Code     0  startup_gd32f30x_hd.o(.text)
    TIMER0_UP_IRQHandler                     0x0800015f   Thumb Code     0  startup_gd32f30x_hd.o(.text)
    TIMER1_IRQHandler                        0x0800015f   Thumb Code     0  startup_gd32f30x_hd.o(.text)
    TIMER2_IRQHandler                        0x0800015f   Thumb Code     0  startup_gd32f30x_hd.o(.text)
    TIMER3_IRQHandler                        0x0800015f   Thumb Code     0  startup_gd32f30x_hd.o(.text)
    TIMER4_IRQHandler                        0x0800015f   Thumb Code     0  startup_gd32f30x_hd.o(.text)
    TIMER5_IRQHandler                        0x0800015f   Thumb Code     0  startup_gd32f30x_hd.o(.text)
    TIMER6_IRQHandler                        0x0800015f   Thumb Code     0  startup_gd32f30x_hd.o(.text)
    TIMER7_BRK_IRQHandler                    0x0800015f   Thumb Code     0  startup_gd32f30x_hd.o(.text)
    TIMER7_Channel_IRQHandler                0x0800015f   Thumb Code     0  startup_gd32f30x_hd.o(.text)
    TIMER7_TRG_CMT_IRQHandler                0x0800015f   Thumb Code     0  startup_gd32f30x_hd.o(.text)
    TIMER7_UP_IRQHandler                     0x0800015f   Thumb Code     0  startup_gd32f30x_hd.o(.text)
    UART3_IRQHandler                         0x0800015f   Thumb Code     0  startup_gd32f30x_hd.o(.text)
    UART4_IRQHandler                         0x0800015f   Thumb Code     0  startup_gd32f30x_hd.o(.text)
    USART0_IRQHandler                        0x0800015f   Thumb Code     0  startup_gd32f30x_hd.o(.text)
    USART1_IRQHandler                        0x0800015f   Thumb Code     0  startup_gd32f30x_hd.o(.text)
    USART2_IRQHandler                        0x0800015f   Thumb Code     0  startup_gd32f30x_hd.o(.text)
    USBD_HP_CAN0_TX_IRQHandler               0x0800015f   Thumb Code     0  startup_gd32f30x_hd.o(.text)
    USBD_LP_CAN0_RX0_IRQHandler              0x0800015f   Thumb Code     0  startup_gd32f30x_hd.o(.text)
    USBD_WKUP_IRQHandler                     0x0800015f   Thumb Code     0  startup_gd32f30x_hd.o(.text)
    WWDGT_IRQHandler                         0x0800015f   Thumb Code     0  startup_gd32f30x_hd.o(.text)
    __scatterload                            0x08000169   Thumb Code    28  init.o(.text)
    __scatterload_rt2                        0x08000169   Thumb Code     0  init.o(.text)
    BusFault_Handler                         0x0800018d   Thumb Code     4  gd32f30x_it.o(i.BusFault_Handler)
    DebugMon_Handler                         0x08000191   Thumb Code     2  gd32f30x_it.o(i.DebugMon_Handler)
    HardFault_Handler                        0x08000193   Thumb Code     4  gd32f30x_it.o(i.HardFault_Handler)
    MemManage_Handler                        0x08000197   Thumb Code     4  gd32f30x_it.o(i.MemManage_Handler)
    NMI_Handler                              0x0800019b   Thumb Code     2  gd32f30x_it.o(i.NMI_Handler)
    PendSV_Handler                           0x080001c5   Thumb Code     2  gd32f30x_it.o(i.PendSV_Handler)
    SPI1_IRQHandler                          0x080001c9   Thumb Code    20  gd32f30x_it.o(i.SPI1_IRQHandler)
    SVC_Handler                              0x080001e1   Thumb Code     2  gd32f30x_it.o(i.SVC_Handler)
    SysTick_Handler                          0x080001e3   Thumb Code     8  gd32f30x_it.o(i.SysTick_Handler)
    SystemInit                               0x080001ed   Thumb Code    66  system_gd32f30x.o(i.SystemInit)
    UsageFault_Handler                       0x0800023d   Thumb Code     4  gd32f30x_it.o(i.UsageFault_Handler)
    __scatterload_copy                       0x08000241   Thumb Code    14  handlers.o(i.__scatterload_copy)
    __scatterload_null                       0x0800024f   Thumb Code     2  handlers.o(i.__scatterload_null)
    __scatterload_zeroinit                   0x08000251   Thumb Code    14  handlers.o(i.__scatterload_zeroinit)
    audio_data_index_inc                     0x08000261   Thumb Code    32  pcm1770_1.o(i.audio_data_index_inc)
    audio_format_parsing                     0x08000289   Thumb Code   294  pcm1770_1.o(i.audio_format_parsing)
    audio_init                               0x080003d5   Thumb Code    28  pcm1770_1.o(i.audio_init)
    audio_read_half_word                     0x080003fd   Thumb Code    68  pcm1770_1.o(i.audio_read_half_word)
    audio_replay_count_dec                   0x080004b5   Thumb Code    60  pcm1770_1.o(i.audio_replay_count_dec)
    audio_set_play_status                    0x08000501   Thumb Code    10  pcm1770_1.o(i.audio_set_play_status)
    delay_1ms                                0x08000511   Thumb Code    16  systick.o(i.delay_1ms)
    delay_decrement                          0x08000525   Thumb Code    18  systick.o(i.delay_decrement)
    gd_eval_led_init                         0x0800053d   Thumb Code    50  gd32f303e_eval.o(i.gd_eval_led_init)
    gd_eval_led_off                          0x0800057d   Thumb Code    16  gd32f303e_eval.o(i.gd_eval_led_off)
    gd_eval_led_on                           0x08000595   Thumb Code    16  gd32f303e_eval.o(i.gd_eval_led_on)
    gpio_bit_set                             0x080005ad   Thumb Code     4  gd32f30x_gpio.o(i.gpio_bit_set)
    gpio_init                                0x080005b1   Thumb Code   164  gd32f30x_gpio.o(i.gpio_init)
    i2s_enable                               0x08000655   Thumb Code    10  gd32f30x_spi.o(i.i2s_enable)
    i2s_init                                 0x0800065f   Thumb Code    28  gd32f30x_spi.o(i.i2s_init)
    i2s_psc_config                           0x0800067b   Thumb Code   164  gd32f30x_spi.o(i.i2s_psc_config)
    main                                     0x08000721   Thumb Code    40  main.o(i.main)
    nvic_irq_enable                          0x0800074d   Thumb Code   156  gd32f30x_misc.o(i.nvic_irq_enable)
    nvic_priority_group_set                  0x080007f1   Thumb Code    10  gd32f30x_misc.o(i.nvic_priority_group_set)
    pcm1770_audio_play                       0x08000805   Thumb Code    42  pcm1770_1.o(i.pcm1770_audio_play)
    pcm1770_init                             0x0800083d   Thumb Code    46  pcm1770_1.o(i.pcm1770_init)
    pcm1770_send_data                        0x08000879   Thumb Code    36  pcm1770_1.o(i.pcm1770_send_data)
    rcu_clock_freq_get                       0x080008ad   Thumb Code   310  gd32f30x_rcu.o(i.rcu_clock_freq_get)
    rcu_periph_clock_enable                  0x08000a05   Thumb Code    28  gd32f30x_rcu.o(i.rcu_periph_clock_enable)
    rcu_periph_reset_disable                 0x08000a25   Thumb Code    28  gd32f30x_rcu.o(i.rcu_periph_reset_disable)
    rcu_periph_reset_enable                  0x08000a45   Thumb Code    28  gd32f30x_rcu.o(i.rcu_periph_reset_enable)
    spi_enable                               0x08000a65   Thumb Code    10  gd32f30x_spi.o(i.spi_enable)
    spi_i2s_config                           0x08000a71   Thumb Code   128  spi_i2s_1.o(i.spi_i2s_config)
    spi_i2s_data_transmit                    0x08000af9   Thumb Code     4  gd32f30x_spi.o(i.spi_i2s_data_transmit)
    spi_i2s_deinit                           0x08000afd   Thumb Code    82  gd32f30x_spi.o(i.spi_i2s_deinit)
    spi_i2s_gpio_config                      0x08000b55   Thumb Code    94  spi_i2s_1.o(i.spi_i2s_gpio_config)
    spi_i2s_interrupt_disable                0x08000bc1   Thumb Code    48  gd32f30x_spi.o(i.spi_i2s_interrupt_disable)
    spi_i2s_interrupt_enable                 0x08000bf1   Thumb Code    48  gd32f30x_spi.o(i.spi_i2s_interrupt_enable)
    spi_i2s_interrupt_flag_get               0x08000c21   Thumb Code   112  gd32f30x_spi.o(i.spi_i2s_interrupt_flag_get)
    spi_init                                 0x08000c91   Thumb Code    50  gd32f30x_spi.o(i.spi_init)
    systick_config                           0x08000ddd   Thumb Code    74  systick.o(i.systick_config)
    test_status_led_init                     0x08000e2d   Thumb Code    84  main.o(i.test_status_led_init)
    wave_test_data                           0x08000e80   Data       55916  pcm1770_1.o(.constdata)
    Region$$Table$$Base                      0x0800e8ec   Number         0  anon$$obj.o(Region$$Table)
    Region$$Table$$Limit                     0x0800e90c   Number         0  anon$$obj.o(Region$$Table)
    SystemCoreClock                          0x20000004   Data           4  system_gd32f30x.o(.data)
    i2s_audio_freq                           0x20000094   Data           2  pcm1770_1.o(.data)
    audio_header_index                       0x20000096   Data           1  pcm1770_1.o(.data)
    audio_file_header                        0x20000098   Data           4  pcm1770_1.o(.data)
    audio_file_address                       0x2000009c   Data           4  pcm1770_1.o(.data)
    audio_data_length                        0x200000a0   Data           4  pcm1770_1.o(.data)
    data_start_addr                          0x200000a4   Data           4  pcm1770_1.o(.data)
    audio_data_index                         0x200000a8   Data           4  pcm1770_1.o(.data)
    audio_play_status                        0x200000ac   Data           1  pcm1770_1.o(.data)
    wave_format                              0x200000bc   Data          24  pcm1770_1.o(.bss)
    __initial_sp                             0x200004d8   Data           0  startup_gd32f30x_hd.o(STACK)



==============================================================================

Memory Map of the image

  Image Entry point : 0x08000131

  Load Region LR_IROM1 (Base: 0x08000000, Size: 0x0000e9c8, Max: 0x00080000, ABSOLUTE)

    Execution Region ER_IROM1 (Base: 0x08000000, Size: 0x0000e90c, Max: 0x00080000, ABSOLUTE)

    Base Addr    Size         Type   Attr      Idx    E Section Name        Object

    0x08000000   0x00000130   Data   RO         4309    RESET               startup_gd32f30x_hd.o
    0x08000130   0x00000000   Code   RO         4458  * .ARM.Collect$$$$00000000  mc_w.l(entry.o)
    0x08000130   0x00000004   Code   RO         4461    .ARM.Collect$$$$00000001  mc_w.l(entry2.o)
    0x08000134   0x00000004   Code   RO         4464    .ARM.Collect$$$$00000004  mc_w.l(entry5.o)
    0x08000138   0x00000000   Code   RO         4466    .ARM.Collect$$$$00000008  mc_w.l(entry7b.o)
    0x08000138   0x00000000   Code   RO         4468    .ARM.Collect$$$$0000000A  mc_w.l(entry8b.o)
    0x08000138   0x00000008   Code   RO         4469    .ARM.Collect$$$$0000000B  mc_w.l(entry9a.o)
    0x08000140   0x00000000   Code   RO         4471    .ARM.Collect$$$$0000000D  mc_w.l(entry10a.o)
    0x08000140   0x00000000   Code   RO         4473    .ARM.Collect$$$$0000000F  mc_w.l(entry11a.o)
    0x08000140   0x00000004   Code   RO         4462    .ARM.Collect$$$$00002712  mc_w.l(entry2.o)
    0x08000144   0x00000024   Code   RO         4310    .text               startup_gd32f30x_hd.o
    0x08000168   0x00000024   Code   RO         4475    .text               mc_w.l(init.o)
    0x0800018c   0x00000004   Code   RO          141    i.BusFault_Handler  gd32f30x_it.o
    0x08000190   0x00000002   Code   RO          142    i.DebugMon_Handler  gd32f30x_it.o
    0x08000192   0x00000004   Code   RO          143    i.HardFault_Handler  gd32f30x_it.o
    0x08000196   0x00000004   Code   RO          144    i.MemManage_Handler  gd32f30x_it.o
    0x0800019a   0x00000002   Code   RO          145    i.NMI_Handler       gd32f30x_it.o
    0x0800019c   0x00000028   Code   RO          234    i.NVIC_SetPriority  systick.o
    0x080001c4   0x00000002   Code   RO          146    i.PendSV_Handler    gd32f30x_it.o
    0x080001c6   0x00000002   PAD
    0x080001c8   0x00000018   Code   RO          147    i.SPI1_IRQHandler   gd32f30x_it.o
    0x080001e0   0x00000002   Code   RO          148    i.SVC_Handler       gd32f30x_it.o
    0x080001e2   0x00000008   Code   RO          149    i.SysTick_Handler   gd32f30x_it.o
    0x080001ea   0x00000002   PAD
    0x080001ec   0x00000050   Code   RO          278    i.SystemInit        system_gd32f30x.o
    0x0800023c   0x00000004   Code   RO          150    i.UsageFault_Handler  gd32f30x_it.o
    0x08000240   0x0000000e   Code   RO         4479    i.__scatterload_copy  mc_w.l(handlers.o)
    0x0800024e   0x00000002   Code   RO         4480    i.__scatterload_null  mc_w.l(handlers.o)
    0x08000250   0x0000000e   Code   RO         4481    i.__scatterload_zeroinit  mc_w.l(handlers.o)
    0x0800025e   0x00000002   PAD
    0x08000260   0x00000028   Code   RO         4316    i.audio_data_index_inc  pcm1770_1.o
    0x08000288   0x0000014c   Code   RO         4317    i.audio_format_parsing  pcm1770_1.o
    0x080003d4   0x00000028   Code   RO         4319    i.audio_init        pcm1770_1.o
    0x080003fc   0x00000058   Code   RO         4320    i.audio_read_half_word  pcm1770_1.o
    0x08000454   0x00000060   Code   RO         4321    i.audio_read_unit   pcm1770_1.o
    0x080004b4   0x0000004c   Code   RO         4322    i.audio_replay_count_dec  pcm1770_1.o
    0x08000500   0x00000010   Code   RO         4323    i.audio_set_play_status  pcm1770_1.o
    0x08000510   0x00000014   Code   RO          235    i.delay_1ms         systick.o
    0x08000524   0x00000018   Code   RO          236    i.delay_decrement   systick.o
    0x0800053c   0x00000040   Code   RO         4254    i.gd_eval_led_init  gd32f303e_eval.o
    0x0800057c   0x00000018   Code   RO         4255    i.gd_eval_led_off   gd32f303e_eval.o
    0x08000594   0x00000018   Code   RO         4256    i.gd_eval_led_on    gd32f303e_eval.o
    0x080005ac   0x00000004   Code   RO         2062    i.gpio_bit_set      gd32f30x_gpio.o
    0x080005b0   0x000000a4   Code   RO         2071    i.gpio_init         gd32f30x_gpio.o
    0x08000654   0x0000000a   Code   RO         3209    i.i2s_enable        gd32f30x_spi.o
    0x0800065e   0x0000001c   Code   RO         3210    i.i2s_init          gd32f30x_spi.o
    0x0800067a   0x000000a4   Code   RO         3211    i.i2s_psc_config    gd32f30x_spi.o
    0x0800071e   0x00000002   PAD
    0x08000720   0x0000002c   Code   RO            3    i.main              main.o
    0x0800074c   0x000000a4   Code   RO         2386    i.nvic_irq_enable   gd32f30x_misc.o
    0x080007f0   0x00000014   Code   RO         2387    i.nvic_priority_group_set  gd32f30x_misc.o
    0x08000804   0x00000038   Code   RO         4325    i.pcm1770_audio_play  pcm1770_1.o
    0x0800083c   0x0000003c   Code   RO         4326    i.pcm1770_init      pcm1770_1.o
    0x08000878   0x00000034   Code   RO         4329    i.pcm1770_send_data  pcm1770_1.o
    0x080008ac   0x00000158   Code   RO         2584    i.rcu_clock_freq_get  gd32f30x_rcu.o
    0x08000a04   0x00000020   Code   RO         2602    i.rcu_periph_clock_enable  gd32f30x_rcu.o
    0x08000a24   0x00000020   Code   RO         2605    i.rcu_periph_reset_disable  gd32f30x_rcu.o
    0x08000a44   0x00000020   Code   RO         2606    i.rcu_periph_reset_enable  gd32f30x_rcu.o
    0x08000a64   0x0000000a   Code   RO         3229    i.spi_enable        gd32f30x_spi.o
    0x08000a6e   0x00000002   PAD
    0x08000a70   0x00000088   Code   RO         4431    i.spi_i2s_config    spi_i2s_1.o
    0x08000af8   0x00000004   Code   RO         3232    i.spi_i2s_data_transmit  gd32f30x_spi.o
    0x08000afc   0x00000058   Code   RO         3233    i.spi_i2s_deinit    gd32f30x_spi.o
    0x08000b54   0x0000006c   Code   RO         4432    i.spi_i2s_gpio_config  spi_i2s_1.o
    0x08000bc0   0x00000030   Code   RO         3235    i.spi_i2s_interrupt_disable  gd32f30x_spi.o
    0x08000bf0   0x00000030   Code   RO         3236    i.spi_i2s_interrupt_enable  gd32f30x_spi.o
    0x08000c20   0x00000070   Code   RO         3237    i.spi_i2s_interrupt_flag_get  gd32f30x_spi.o
    0x08000c90   0x00000032   Code   RO         3238    i.spi_init          gd32f30x_spi.o
    0x08000cc2   0x00000002   PAD
    0x08000cc4   0x00000110   Code   RO          279    i.system_clock_120m_hxtal  system_gd32f30x.o
    0x08000dd4   0x00000008   Code   RO          280    i.system_clock_config  system_gd32f30x.o
    0x08000ddc   0x00000050   Code   RO          237    i.systick_config    systick.o
    0x08000e2c   0x00000054   Code   RO            4    i.test_status_led_init  main.o
    0x08000e80   0x0000da6c   Data   RO         4332    .constdata          pcm1770_1.o
    0x0800e8ec   0x00000020   Data   RO         4477    Region$$Table       anon$$obj.o


    Execution Region RW_IRAM1 (Base: 0x20000000, Size: 0x000004d8, Max: 0x00010000, ABSOLUTE)

    Base Addr    Size         Type   Attr      Idx    E Section Name        Object

    0x20000000   0x00000004   Data   RW          238    .data               systick.o
    0x20000004   0x00000004   Data   RW          281    .data               system_gd32f30x.o
    0x20000008   0x0000008c   Data   RW         4258    .data               gd32f303e_eval.o
    0x20000094   0x00000028   Data   RW         4333    .data               pcm1770_1.o
    0x200000bc   0x00000018   Zero   RW         4331    .bss                pcm1770_1.o
    0x200000d4   0x00000004   PAD
    0x200000d8   0x00000400   Zero   RW         4307    STACK               startup_gd32f30x_hd.o


==============================================================================

Image component sizes


      Code (inc. data)   RO Data    RW Data    ZI Data      Debug   Object Name

       112         30          0        140          0       2890   gd32f303e_eval.o
       168          0          0          0          0       1627   gd32f30x_gpio.o
        56          4          0          0          0       4808   gd32f30x_it.o
       184         18          0          0          0       1584   gd32f30x_misc.o
       440         46          0          0          0      20516   gd32f30x_rcu.o
       562         14          0          0          0      14014   gd32f30x_spi.o
       128          4          0          0          0      39262   main.o
       856        154      55916         40         24       9380   pcm1770_1.o
       244         22          0          0          0       1315   spi_i2s_1.o
        36          8        304          0       1024        940   startup_gd32f30x_hd.o
       360         30          0          4          0       2223   system_gd32f30x.o
       164         24          0          4          0      29186   systick.o

    ----------------------------------------------------------------------
      3320        354      56252        188       1052     127745   Object Totals
         0          0         32          0          0          0   (incl. Generated)
        10          0          0          0          4          0   (incl. Padding)

    ----------------------------------------------------------------------

      Code (inc. data)   RO Data    RW Data    ZI Data      Debug   Library Member Name

         0          0          0          0          0          0   entry.o
         0          0          0          0          0          0   entry10a.o
         0          0          0          0          0          0   entry11a.o
         8          4          0          0          0          0   entry2.o
         4          0          0          0          0          0   entry5.o
         0          0          0          0          0          0   entry7b.o
         0          0          0          0          0          0   entry8b.o
         8          4          0          0          0          0   entry9a.o
        30          0          0          0          0          0   handlers.o
        36          8          0          0          0         68   init.o

    ----------------------------------------------------------------------
        88         16          0          0          0         68   Library Totals
         2          0          0          0          0          0   (incl. Padding)

    ----------------------------------------------------------------------

      Code (inc. data)   RO Data    RW Data    ZI Data      Debug   Library Name

        86         16          0          0          0         68   mc_w.l

    ----------------------------------------------------------------------
        88         16          0          0          0         68   Library Totals

    ----------------------------------------------------------------------

==============================================================================


      Code (inc. data)   RO Data    RW Data    ZI Data      Debug   

      3408        370      56252        188       1052     123317   Grand Totals
      3408        370      56252        188       1052     123317   ELF Image Totals
      3408        370      56252        188          0          0   ROM Totals

==============================================================================

    Total RO  Size (Code + RO Data)                59660 (  58.26kB)
    Total RW  Size (RW Data + ZI Data)              1240 (   1.21kB)
    Total ROM Size (Code + RO Data + RW Data)      59848 (  58.45kB)

==============================================================================

