:020000040800F2
:1000000008040020450100089B0100089301000836
:10001000970100088D01000821020008000000007F
:10002000000000000000000000000000C701000800
:100030009101000800000000C5010008C901000886
:100040005F0100085F0100085F0100085F01000810
:100050005F0100085F0100085F0100085F01000800
:100060005F0100085F0100085F0100085F010008F0
:100070005F0100085F0100085F0100085F010008E0
:100080005F0100085F0100085F0100085F010008D0
:100090005F0100085F0100085F0100085F010008C0
:1000A0005F0100085F0100085F0100085F010008B0
:1000B0005F0100085F0100085F0100085F010008A0
:1000C0005F0100085F0100085F0100085F01000890
:1000D0005F0100085F0100085F0100085F01000880
:1000E0005F0100085F0100085F0100085F01000870
:1000F0005F0100085F0100085F0100085F01000860
:100100005F0100085F0100085F0100085F0100084F
:100110005F0100085F0100085F0100085F0100083F
:100120005F0100085F0100085F0100085F0100082F
:10013000DFF80CD000F018F800480047350300083D
:10014000080400200648804706480047FEE7FEE70F
:10015000FEE7FEE7FEE7FEE7FEE7FEE7FEE7FEE777
:10016000D101000831010008064C074D06E0E068A7
:1001700040F0010394E8070098471034AC42F6D3EE
:10018000FFF7DAFF480A0008680A000800BFFEE728
:10019000704700BFFEE700BFFEE7704710B50028BC
:1001A00007DA0A07140E054A00F00F031B1FD45488
:1001B00003E00A07130E024A135410BD18ED00E0C5
:1001C00000E400E07047704710B500F045F810BD3E
:1001D00010B51048006840F470000E4908600E48E1
:1001E000006840F001000C49086000204860C862C7
:1001F0000846006809490840074908604FF41F0095
:1002000088600846006820F48020086000F06CF9DF
:1002100010BD000088ED00E000100240FFFFF6FE78
:1002200000BFFEE702E008C8121F08C1002AFAD189
:1002300070477047002001E001C1121F002AFBD166
:10024000704700000349086000BF0249096800299F
:10025000FBD17047000000200448006820B103482B
:100260000068401E0149086070470000000000203F
:10027000F0B50C4616460025002204F00F0504F0E8
:10028000100747B1042E05D145F00305C76B1F4386
:10029000C76300E03543002118E001278F401F406D
:1002A00097B102684FEA810C0F2707FA0CF7BA439F
:1002B0008F0005FA07F73A43282C01D1436102E089
:1002C000482C00D1036102604F1CB9B20829E4D365
:1002D00008211CE001278F401F40B7B14268A1F1FF
:1002E00008074FEA870C0F2707FA0CF7BA43A1F16A
:1002F0000807BF0005FA07F73A43282C01D14361EC
:1003000002E0482C00D1036142604F1CB9B21029B1
:10031000E0D3F0BD10B540F2026000F02DF84FF4CC
:100320008073032218210248FFF7A2FF10BD0000CE
:10033000000801400024012500F038FB00F0D8F847
:1003400017E02820FFF77EFF012D03D104F10A00FA
:1003500004B202E0A4F10A0004B2B4F5FA7F00DDB1
:100360000025002C00DC012522460021014800F078
:1003700010FAE6E7002C0140064A02EB90110968EA
:1003800000F01F0301229A401143024B03EB90122D
:100390001160704700100240064A02EB9011096894
:1003A00000F01F0301229A409143024B03EB90128D
:1003B0001160704700100240064A02EB9011096874
:1003C00000F01F0301229A401143024B03EB9012ED
:1003D0001160704700100240002000213E4A126860
:1003E00042F480323C4B1A6000BF401C3A4A12680B
:1003F00002F4003111B9B0F5006FF6D1364A126837
:1004000002F400320AB900BFFEE7334AD26942F073
:100410008052314BDA61314A126842F440422F4B2C
:100420001A602D4A52682C4B5A601A4652685A601C
:100430001A46526842F480625A601A46526822F4A0
:1004400040325A601A46526842F440325A601A46A4
:100450005268234B1A40204B5A601A465268214B6F
:100460001A431D4B5A601A46126842F080721A6095
:1004700000BF194A126802F00072002AF9D0174A28
:10048000126842F48032154B1A6000BF134A52685A
:1004900002F48032002AF9D0104A126842F4003285
:1004A0000E4B1A6000BF0D4A526802F40032002A57
:1004B000F9D0094A526822F00302074B5A601A46E3
:1004C000526842F002025A6000BF034A526802F0CA
:1004D0000802002AF9D07047001002400070004066
:1004E000FFFFC3B70000340810B5FFF775FF10BD5C
:1004F00010B5124800684FF47A71B0FBF1F4601E39
:10050000B0F1807F01D301200FE0601E4FF0E021A9
:1005100048610F214FF0FF30FFF740FE00204FF001
:10052000E021886107200861002008B100BFFEE7D4
:100530000021481EFFF732FE10BD0000040000201D
:10054000016841F0800101607047000010B531B1D1
:1005500001293FD002297DD003297CD1BFE0036A65
:1005600023F001030362036A146823430362036AEE
:1005700023F002030362036AD488234303626C4BB3
:10058000984202D06B4B98421FD1036A23F00403B8
:100590000362036A948823430362036A23F0080317
:1005A0000362036A148923430362436823F480735C
:1005B00043604368548923434360436823F40073D2
:1005C00043604368948923434360836923F00303B2
:1005D0008361ABE0036A23F010030362036A1468CB
:1005E00043EA04130362036A23F020030362036AED
:1005F000D48843EA041303624D4B984202D04D4B1A
:10060000984223D1036A23F040030362036A94886B
:1006100043EA04130362036A23F080030362036A5C
:10062000148943EA04130362436823F4806343603C
:100630004368548943EA84034360436823F40063B6
:1006400043604368948943EA84034360836923F4E5
:10065000407301E002E068E0836167E0036A23F42D
:1006600080730362036A146843EA04230362036A23
:1006700023F400730362036AD48843EA0423036209
:100680002B4B984202D02B4B984223D1036A23F480
:1006900080630362036A948843EA04230362036A63
:1006A00023F400630362036A148943EA04230362A8
:1006B000436823F4805343604368548943EA041336
:1006C0004360436823F4005343604368948943EADA
:1006D00004134360C36923F00303C36126E0036A84
:1006E00023F480530362036A146843EA0433036209
:1006F000036A23F400530362036AD48843EA043391
:1007000003620B4B984202D00A4B984208D14368CF
:1007100023F4804343604368548943EA841343606D
:10072000C36923F44073C36100E000BF00BF10BD84
:10073000002C01400034014031B101290CD00229C4
:1007400013D0032922D118E0836923F07003836159
:100750008369134383611AE0836923F4E04383616F
:10076000836943EA0223836111E0C36923F07003C4
:10077000C361C3691343C36109E0C36923F4E04360
:10078000C361C36943EA0223C36100E000BF00BF45
:10079000704731B1012906D0022906D0032908D1BA
:1007A00005E0426306E0826304E0C26302E00264A3
:1007B00000E000BF00BF704731B101290CD0022911
:1007C00013D0032922D118E0836923F00803836141
:1007D0008369134383611AE0836923F400638361AF
:1007E000836943EA0223836111E0C36923F00803AC
:1007F000C361C3691343C36109E0C36923F40063A0
:10080000C361C36943EA0223C36100E000BF00BFC4
:100810007047000010B504463349601A8C4244D03A
:100820000CDCB4F1804F1CD03048204410B3B0F53C
:10083000806F28D0B0F5006F52D12DE0B0F5806FF9
:100840003CD0B0F58E3F03D0B0F5923F48D13EE0AA
:1008500040F20B30FFF7B0FD40F20B30FFF79CFD8C
:100860003FE04FF48060FFF7A7FD4FF48060FFF793
:1008700093FD36E040F20140FFF79EFD40F201405B
:10088000FFF78AFD2DE040F20240FFF795FD40F2B0
:100890000240FFF781FD24E040F20340FFF78CFDAA
:1008A00040F20340FFF778FD1BE040F20440FFF701
:1008B00083FD40F20440FFF76FFD12E040F2054077
:1008C000FFF77AFD40F20540FFF766FD09E040F2D0
:1008D0000D30FFF771FD40F20D30FFF75DFD00E0D8
:1008E00000BF00BF10BD00000010004000FCFFBFB3
:1008F000016841F001010160704700000A888262CE
:100900001D4A90420ED0B0F1804F0BD01B4A90424E
:1009100008D01B4A904205D01A4A904202D01A4A87
:1009200090420BD1026822F07002026002684B888C
:100930001A43026002688B881A4302608A68C262A6
:10094000124A90420AD0124A904207D0026822F41A
:100950004072026002688B891A430260064A904224
:1009600002D0094A904201D18A7B0263426942F077
:100970000102426170470000002C01400004004069
:1009800000080040000C004000340140001000400E
:1009900000140040012904D1426C42F40042426438
:1009A00003E0426C22F400424264704700B589B013
:1009B000FFF7B0FC40F20B60FFF7DEFC2148FFF7C9
:1009C00029FF7720ADF804000020ADF80600ADF84F
:1009D00008004FF4FA7003900020ADF810008DF875
:1009E000120001A91748FFF789FF01200590002098
:1009F000ADF81800ADF81A00ADF81C00ADF81E00F7
:100A0000ADF8200005AA00210E48FFF79FFDFA224D
:100A100000210C48FFF7BDFE602200210948FFF7C6
:100A20008BFE002211460748FFF7C6FE012105484C
:100A3000FFF7B0FF0348FFF783FD0248FFF758FFB9
:100A400009B000BD002C0140680A00080000002029
:100A50000800000024020008700A000808000020B6
:100A6000000400003402000800000000000E270708
:0400000508000131BD
:00000001FF
