:020000040800F2
:10000000B0060020450100083D0200083502000846
:10001000390200082F020008C50200080000000095
:100020000000000000000000000000006B0200085B
:100030003302000800000000690200086D02000899
:100040005F0100085F0100085F0100085F01000810
:100050005F0100085F0100085F0100085F01000800
:100060005F0100085F0100085F0100085F010008F0
:100070005F0100085F0100085F0100085F010008E0
:100080005F0100085F0100085F0100085F010008D0
:100090005F0100085F0100085F0100085F010008C0
:1000A0005F0100085F0100085F0100085F010008B0
:1000B0005F0100085F0100085F0100085F010008A0
:1000C0005F0100085F0100085F0100085F01000890
:1000D0005F0100085F0100085F0100085F01000880
:1000E0005F0100085F0100085F0100085F01000870
:1000F0005F0100085F0100085F0100085F01000860
:100100005F0100085F0100085F0100085F0100084F
:100110005F0100085F0100085F0100085F0100083F
:100120005F0100085F0100085F0100085F0100082F
:10013000DFF80CD000F04AF80048004795090008A5
:10014000B00600200648804706480047FEE7FEE765
:10015000FEE7FEE7FEE7FEE7FEE7FEE7FEE7FEE777
:1001600075020008310100082DE9F05F0546002006
:1001700092469B4688460646814640241BE0284618
:1001800041464746224600F042F853465A46C01AB6
:10019000914110D311461846224600F029F82D1A35
:1001A00067EB01084F4622460120002100F020F8AD
:1001B00017EB00094E41201EA4F10104DFDC484684
:1001C00031462A464346BDE8F09F0000064C074DE5
:1001D00006E0E06840F0010394E807009847103417
:1001E000AC42F6D3FFF7A8FF5816000878160008AF
:1001F000202A04DB203A00FA02F1002070479140E7
:10020000C2F1200320FA03F3194390407047202ADB
:1002100004DB203A21FA02F00021704721FA02F3B0
:10022000D040C2F12002914008431946704700BFF8
:10023000FEE7704700BFFEE700BFFEE77047000023
:1002400010B5002807DA0A07140E054A00F00F035C
:100250001B1FD45403E00A07130E024A135410BDA7
:1002600018ED00E000E400E07047704710B500F0C2
:1002700087FA10BD10B51048006840F470000E49B0
:1002800008600E48006840F001000C49086000203A
:100290004860C86208460068094908400749086084
:1002A0004FF41F0088600846006820F48020086032
:1002B00001F07EF810BD000088ED00E00010024063
:1002C000FFFFF6FE00BFFEE70FB4054B10B503A914
:1002D000044A029800F018F810BC5DF814FB000006
:1002E00099070008A000002002E008C8121F08C1FA
:1002F000002AFAD170477047002001E001C1121FA7
:10030000002AFBD1704700002DE9FF4F8DB00F464A
:100310000546002606E025280BD0DDE90F129047A0
:100320006D1C761C28780028F5D111B03046BDE848
:10033000F08F0024A246A1460122EC4900E00443CC
:1003400015F8013F203B02FA03F00842F7D1287864
:100350002A2810D06FF02F022878A0F13001092947
:1003600014D80AEB8A0102EB410144F0020400EBCD
:10037000010A6D1CF0E701CF5FEA000A03D544F4DF
:100380000054CAF1000A44F002046D1C28782E289B
:1003900017D115F8010F44F004042A280ED06FF08D
:1003A0002F022878A0F1300109290AD809EB890128
:1003B00002EB410100EB01096D1CF2E757F8049BC9
:1003C0006D1C28786C280FD006DC4C2817D06828C4
:1003D0000DD06A2814D104E0742810D07A280FD1E7
:1003E0000DE044F400140AE044F4801401E044F405
:1003F00040146978814202D104F580146D1C6D1C93
:100400002A786E2A1FD00CDC632A31D004DC002A43
:100410008BD0582A11D1A3E0642A68D0692A0CD164
:1004200065E0732A2ED004DC6F2A73D0702A04D1C1
:100430009BE0752A6FD0782A6ED01046DDE90F1246
:100440009047761C50E1C4F30250022806D00328DE
:1004500009D0042801CF09D0066045E101CFF1178A
:10046000C0E9006140E101CF06803DE106703BE15B
:1004700017F8040B8DF8000000208DF80100EB4602
:10048000012003E057F804BB4FF0FF3061074FF045
:10049000000102D40DE008F10101884649450FDA58
:1004A0008045F8DB1BF808100029F4D108E008F1BA
:1004B000010188468142FADB1BF808100029F6D1B9
:1004C000DDE90F23AAEB08008146214600F036F94A
:1004D000304400EB080604E0DDE90F121BF8010BC5
:1004E0009047B8F10108F7D221464846F7E00A21C3
:1004F000C4F302534FF0000B0891022B04D001CF3C
:10050000C117032B09D00AE0FF1D27F00707F7E802
:10051000020108E032E01FE020E000B2C117042B26
:1005200001D140B2C117031E71F1000307DA4FF089
:10053000000CD0EB0C006CEB01012D2302E0230535
:1005400004D52B238DF82430012303E0E30701D0E9
:100550002023F7E7984658E00A2110E010210EE02A
:1005600010204FF0000B08900CE010214FF0000B12
:1005700044F004044FF00809089103E008214FF00B
:10058000000B0891C4F30253022B04D001CF0021C9
:10059000032B06D006E0FF1D27F00707F7E802014E
:1005A00003E080B2042B00D1C0B24FF00008230753
:1005B0002BD5702A07D0DDF820C08CF0100C5CEA37
:1005C0000B0C05D00EE040238DF82430012308E009
:1005D00050EA010306D030238DF824308DF8252011
:1005E00002239846DDF820C08CF0080C5CEA0B0C66
:1005F0000BD150EA010301D1630706D530238DF8F2
:1006000024304FF00108A9F10109582A04D038A27A
:100610000B9208AA0A920BE03AA2F9E75B46089A05
:10062000FFF7A2FD0B9B9B5C0A9A521E0A92137065
:1006300050EA0102F2D10A98ADEB000000F1200B64
:10064000600702D524F4803401E04FF00109D94558
:1006500002DDA9EB0B0000E0002000EB0B014144A0
:100660000890AAEB010AE00306D4DDE90F23214636
:10067000504600F063F806444FF0000908E009A96D
:1006800011F80900DDE90F12904709F10109761C04
:10069000C145F4DBE0030CD5DDE90F2321465046CC
:1006A00000F04CF8064404E0DDE90F1230209047DA
:1006B000761C0899481E08900029F5DC08E00A9885
:1006C0000A990078491C0A91DDE90F129047761CBF
:1006D000BBF10001ABF1010BF1DC21465046DDE935
:1006E0000F2300F019F806446D1C1BE609280100D1
:1006F0003031323334353637383961626364656698
:100700000000000030313233343536373839414259
:1007100043444546000000002DE9F0410446002511
:100720001E461746880404D405E039462020B04709
:100730006D1C641EF9D52846BDE8F0812DE9F04115
:10074000044600251E469046C80301D5302700E028
:100750002027880404D505E041463846B0476D1C83
:10076000641EF9D52846BDE8F08100000349086001
:1007700000BF024909680029FBD170470C00002026
:100780000448006820B103480068401E0149086021
:10079000704700000C00002070B504460D46E1B221
:1007A000054800F0BFFE00BF0621034800F00BFF24
:1007B0000028F9D0204670BD0038014070B50546CC
:1007C00000241D48854200D103E01C48854200D129
:1007D00001241B4931F8140000F044FB194931F899
:1007E000140000F03FFB184951F82430174951F824
:1007F00024000322182100F07BF8154951F8243019
:10080000124951F824000322042100F071F828460F
:1008100000F08CFE4FF4E131284600F039FE04214F
:10082000284600F0DFFE0821284600F0E3FE2846B7
:1008300000F0C4FE70BD00000038014000440040DC
:100840005000002034000020380000204800002024
:100850004000002010B504460B4931F8140000F0A8
:1008600001FB0A4951F82430094951F824000322B8
:10087000102100F03DF8054850F82400044951F8D3
:100880002410486110BD0000540000202400002006
:1008900014000020034951F82010034A52F8202088
:1008A000516170472400002014000020034951F8D2
:1008B0002010034A52F820201161704724000020C4
:1008C00014000020064800680649086004480C30FF
:1008D0000068486002481030006888607047000077
:1008E000E0F7FF1FA40000204161704701617047DD
:1008F000F0B50C4616460025002204F00F0504F062
:10090000100747B1042E05D145F00305C76B1F43FF
:10091000C76300E03543002118E001278F401F40E6
:1009200097B102684FEA810C0F2707FA0CF7BA4318
:100930008F0005FA07F73A43282C01D1436102E002
:10094000482C00D1036102604F1CB9B20829E4D3DE
:1009500008211CE001278F401F40B7B14268A1F178
:1009600008074FEA870C0F2707FA0CF7BA43A1F1E3
:100970000807BF0005FA07F73A43282C01D1436165
:1009800002E0482C00D1036142604F1CB9B210292B
:10099000E0D3F0BD00F010FD00F036FD6448FFF735
:1009A0000DFF00F055FB6348FFF78EFC62A0FFF7D8
:1009B0008BFC6D4801886DA0FFF786FCFFF782FF76
:1009C000734803684268816872A0FFF77DFC80A0CD
:1009D000FFF77AFC00F0AEFB8B490860084601681F
:1009E0008AA0FFF771FC884800688E49884274D15C
:1009F0008DA0FFF769FC0020924908801EE0914815
:100A0000007891498F4A1288885408468D4A128886
:100A1000815C8EA0FFF758FC8A490888C11700EB5B
:100A200011710911A0EB01110F2902D167A0FFF785
:100A30004BFC84480088401C82490880814800881B
:100A4000FF28DCDD83A0FFF73FFC002000F09AFBCD
:100A50004FF4807200217C4800F068FA0A20FFF70A
:100A600085FE4FF480720021814800F037FA0020A3
:100A70007449088018E07E48724A1288815C73A02D
:100A8000FFF722FC6F490888C11700EB11710911AB
:100A9000A0EB01110F2902D14CA0FFF715FC69480A
:100AA0000088401C6749088066480088FF28E2DD0E
:100AB0004FF480726E49644800F016F928B96DA0B1
:100AC000FFF702FC0120764908707548007838B9B4
:100AD00074A0FFF7F9FB03E0FFE77AA0FFF7F4FB50
:100AE00025E00020FFF7D6FE0120FFF7D3FE02200D
:100AF000FFF7D0FE0320FFF7CDFE7A490C78E1170F
:100B000004EB91718910A4EB8101C8B200F096FC4E
:100B100074480078401C734908700846007804281F
:100B200001DB002008704FF4FA70FFF71FFED8E7D2
:100B300000380140041600080A0D474433323330B0
:100B400033452D4556414C2D56312E302053797367
:100B500074656D206973205374617274696E6720C7
:100B600075702E2E2E0A0D00E0F7FF1F0A0D474468
:100B70003332333033452D4556414C2D56312E30CE
:100B800020466C6173683A25644B0A0D0000000032
:100B9000A40000200A0D47443332333033452D453D
:100BA00056414C2D56312E30205468652043505507
:100BB00020556E69717565204465766963652049C5
:100BC000443A5B25582D25582D25585D0A0D000007
:100BD0000A0D47443332333033452D4556414C2DB1
:100BE00056312E302053504920466C6173683A4785
:100BF00044323551313620636F6E666967757265B0
:100C0000642E2E2E0A0D0000040000200A0D5468E8
:100C10006520466C6173685F49443A307825580A0C
:100C20000D0000001340C8000A0D0A0D57726974C8
:100C30006520746F2074785F6275666665723A0A23
:100C40000D0A0D0008000020B0000020307825308B
:100C5000325820000A0D0A0D526561642066726FD9
:100C60006D2072785F6275666665723A0A0D0000E3
:100C7000B00100204572723A44617461205265618E
:100C80006420616E64205772697465206172656EBC
:100C90002774204D61746368696E672E0A0D000029
:100CA0000A0000200A0D5350492D47443235513176
:100CB00036205465737420506173736564210A0D86
:100CC000000000000A0D53504920466C6173683AD9
:100CD0002052656164204944204661696C210A0DF7
:100CE000000000000000002030B5034607E013F8C4
:100CF000014B11F8015BAC4201D0002030BD100067
:100D0000A2F10104A2B2F2D10120F7E72DE9F04FE0
:100D10008CB0074600200A904AA090E8004CC068BA
:100D2000CDE905BECDF810A007900FF21C1ADAE944
:100D3000000ACDE9020A0FF2101ADAE9000ACDE939
:100D4000000A44484068C0F381000B900B9820B122
:100D5000012804D002283FD103E03F4A3EE03E4A4A
:100D60003CE03C48406800F4803CBCF5803F12D138
:100D70003848C06A00F08048B8F1000F01D1364C05
:100D800000E0364C3348406800F40039B9F5003FC4
:100D900002D1334C00E0324C2E484068C0F383410E
:100DA0002C48406800F0006008B141F0100129486B
:100DB000406800F0804008B141F020010F2901D2C5
:100DC000891C06E00F2903D33E2901D8491C00E005
:100DD0003F2104FB01F201E01F4A00BF00BF1D4894
:100DE0004068C0F3031504A8465D22FA06F31948CB
:100DF0004068C0F3022502A8465D23FA06F0099078
:100E000014484068C0F3C2251DF8056023FA06F0B7
:100E1000089037B1012F06D0022F06D0032F0AD138
:100E200006E00A9208E00A9306E009980A9003E0B7
:100E300008980A9000E000BF00BF0A980CB0BDE817
:100E4000F08F000000000000000000000102030419
:100E5000060708090010024000127A00006CDC024C
:100E600000093D00064A02EB9011096800F01F03DB
:100E700001229A401143024B03EB9012116070471C
:100E800000100240064A02EB9011096800F01F03AF
:100E900001229A409143024B03EB9012116070477C
:100EA00000100240064A02EB9011096800F01F038F
:100EB00001229A401143024B03EB901211607047DC
:100EC00000100240026842F4005202600161704763
:100ED000016841F0400101607047000070B50546AF
:100EE0000C46164608211048FFF7FEFC032000F0D0
:100EF00069F9C4F3074000F065F9C4F3072000F076
:100F000061F9E0B200F05EF904E0A52000F05AF9C2
:100F100028706D1C3000A6F101018EB2F5D10821B8
:100F20000148FFF7E3FC70BD001801402DE9F05FB8
:100F300007460E4614464FF00008C146C24600253B
:100F4000AB4606F0FF0ACAF10000C5B22046E11721
:100F500004EB1161C1F30728E11704EB11610912D9
:100F6000A4EB012101F0FF09BAF1000F20D1B8F183
:100F7000000F05D122463146384600F0AFF864E054
:100F800009E04FF480723146384600F0A7F806F5C4
:100F9000807607F580775FEA0800A8F1010101F08B
:100FA000FF08EED14A463146384600F097F84CE04B
:100FB000B8F1000F18D1A94510DDA9EB050000F02C
:100FC000FF0B2A463146384600F088F82E442F445D
:100FD0005A463146384600F081F836E0224631461E
:100FE000384600F07BF830E0601B84B22046E11701
:100FF00004EB1161C1F30728E11704EB1161091239
:10100000A4EB012101F0FF092A463146384600F0E1
:1010100065F82E442F4409E04FF48072314638467B
:1010200000F05CF806F5807607F580775FEA080047
:10103000A8F1010101F0FF08EED1B9F1000F04D0D1
:101040004A463146384600F049F8BDE8F09F0000B6
:1010500000B587B040F20260FFF704FF40F206607F
:10106000FFF700FF40F20C60FFF7FCFEA023032215
:1010700018211748FFF73CFC4023032204211448A1
:10108000FFF736FC0823032210211248FFF730FC3B
:1010900008211048FFF72AFC002001904FF48270CD
:1010A00000900020029005904FF4007003901020F3
:1010B0000690002004906946074800F0D7F8072101
:1010C0000548FFF7FFFE0448FFF702FF07B000BD29
:1010D00000080140001801400030014070B505468D
:1010E0000C46164600F0A4F808211148FFF7FCFB57
:1010F000022000F067F8C4F3074000F063F8C4F37F
:10110000072000F05FF8E0B200F05CF803E0287818
:1011100000F058F86D1C3000A6F101018EB2F6D136
:1011200008210348FFF7E2FB00F068F870BD0000FB
:10113000001801402DE9F041002400250026002779
:1011400008210F48FFF7D0FB9F2000F03BF8A520B7
:1011500000F038F80546A52000F034F80646A52032
:1011600000F030F8074608210548FFF7BFFB2804C8
:1011700040EA062040EA07042046BDE8F08100006E
:101180000018014010B5044600F052F808210C4840
:10119000FFF7AAFB202000F015F8C4F3074000F089
:1011A00011F8C4F3072000F00DF8E0B200F00AF8DF
:1011B00008210348FFF79AFB00F020F810BD00005B
:1011C0000018014010B5044600BF02210A4800F093
:1011D00045F80028F9D02146074800F03DF800BF47
:1011E0000121054800F03AF80028F9D0024800F043
:1011F0002FF8C0B210BD00000030014010B500242F
:1012000008210A48FFF770FB0520FFF7DBFF00BF4E
:10121000A520FFF7D7FF044604F001000028F7D10E
:1012200008210248FFF762FB10BD000000180140D2
:1012300010B508210548FFF757FB0620FFF7C2FF4E
:1012400008210248FFF752FB10BD000000180140C2
:101250000146C86880B27047C16070470246906816
:10126000084008B1012070470020FCE7024600203A
:10127000106800F441500B6818434B6818438B68A2
:101280001843CB6818430B6918434B6918438B69A3
:1012900018431060D36923F40063D36170470000E2
:1012A000002000213E4A126842F480323C4B1A6012
:1012B00000BF401C3A4A126802F4003111B9B0F57F
:1012C000006FF6D1364A126802F400320AB900BF44
:1012D000FEE7334AD26942F08052314BDA61314A3B
:1012E000126842F440422F4B1A602D4A52682C4B30
:1012F0005A601A4652685A601A46526842F480622E
:101300005A601A46526822F440325A601A465268AD
:1013100042F440325A601A465268234B1A40204B1E
:101320005A601A465268214B1A431D4B5A601A469E
:10133000126842F080721A6000BF194A126802F007
:101340000072002AF9D0174A126842F48032154B15
:101350001A6000BF134A526802F48032002AF9D0A2
:10136000104A126842F400320E4B1A6000BF0D4A58
:10137000526802F40032002AF9D0094A526822F079
:101380000302074B5A601A46526842F002025A6042
:1013900000BF034A526802F00802002AF9D07047E1
:1013A0000010024000700040FFFFC3B70000340887
:1013B00010B5FFF775FF10BD10B5124800684FF467
:1013C0007A71B0FBF1F4601EB0F1807F01D301208F
:1013D0000FE0601E4FF0E02148610F214FF0FF3019
:1013E000FEF72EFF00204FF0E02188610720086102
:1013F000002008B100BFFEE70021481EFEF720FFD5
:1014000010BD00001000002010B50020FFF722FAE8
:101410000120FFF71FFA0220FFF71CFA0320FFF755
:1014200019FA0020FFF736FA0120FFF733FA0220FD
:10143000FFF730FA0320FFF72DFA10BD10B5044670
:1014400034B1012C08D0022C0AD0032C10D10BE0AF
:101450000020FFF72BFA18E00120FFF727FA14E02D
:101460000220FFF723FA10E00320FFF71FFA0CE039
:101470000020FFF71BFA0120FFF718FA0220FFF700
:1014800015FA0320FFF712FA00BF00BF10BD0000DD
:101490002DE9F04704460D460027B946B846002618
:1014A0001E49601A8C421CD006DC1D48204470B1D5
:1014B000B0F5806F1FD10FE0B0F5806F16D0B0F59A
:1014C0006C4F18D10320FFF721FC074614E00220DF
:1014D000FFF71CFC07460FE00220FFF717FC07464A
:1014E0000AE00220FFF712FC074605E00220FFF7A2
:1014F0000DFC074600E000BF00BF07EB5500B0FB46
:10150000F5F64FF6F07006EA000906F00F08A1683C
:1015100049EA08000143A160BDE8F087004C0040A3
:1015200000BCFFBFC1F308024260704710B504461B
:101530002049601A8C4228D006DC1F48204490B114
:10154000B0F5806F33D117E0B0F5806F26D0B0F5DD
:101550006C4F2CD140F20E30FFF7A4FC40F20E305D
:10156000FFF790FC24E040F21140FFF79BFC40F2B3
:101570001140FFF787FC1BE040F21240FFF792FC9E
:1015800040F21240FFF77EFC12E040F21340FFF7FA
:1015900089FC40F21340FFF775FC09E040F214406B
:1015A000FFF780FC40F21440FFF76CFC00E000BF46
:1015B00000BF10BD004C004000BCFFBFC16841F43B
:1015C0000051C160704710B5024602EB91100068EF
:1015D00001F01F040123A340184008B1012010BDF1
:1015E0000020FCE70A460021C16821F004011143F4
:1015F000C16070470A460021C16821F0080111430B
:10160000C16070470A0D232323232323232323238D
:10161000232323232323232323232323232323239A
:10162000232323232323232323232323232323238A
:10163000232323232323232323232323232323237A
:10164000232323232323232323232323232323236A
:1016500023232323230A0D0078160008000000200E
:10166000A4000000E80200081C170008A4000020E5
:101670000C060000F8020008000000000000000056
:101680000000000000000000000E2707001C0140C1
:10169000001C0140001C0140001C01400100000032
:1016A0000200000004000000080000000E06110700
:1016B0000002000004000000000400000800000018
:1016C000000801400008014002060206070607065E
:1016D000070607060008014000100140001C0140F9
:1016E000001C01400100000000200000200000005C
:1016F00010000000020604060706070601000000AD
:10170000002000002000000010000000000205057D
:0C171000000D05040628170A0000000068
:0400000508000131BD
:00000001FF
