:020000040800F2
:1000000098040020450100089B01000893010008A6
:10001000970100088D01000821020008000000007F
:10002000000000000000000000000000C701000800
:100030009101000800000000C5010008C901000886
:100040005F0100085F0100085F0100085F01000810
:100050005F0100085F0100085F0100085F01000800
:100060005F0100085F0100085F0100085F010008F0
:100070005F0100085F0100085F0100085F010008E0
:100080005F0100085F0100085F0100085F010008D0
:100090005F0100085F0100085F0100085F010008C0
:1000A0005F0100085F0100085F0100085F010008B0
:1000B0005F0100085F0100085F0100085F010008A0
:1000C0005F0100085F0100085F0100085F01000890
:1000D0005F0100085F0100085F0100085F01000880
:1000E0005F0100085F0100085F0100085F01000870
:1000F0005F0100085F0100085F0100085F01000860
:100100005F0100085F0100085F0100085F0100084F
:100110005F0100085F0100085F0100085F0100083F
:100120005F0100085F0100085F0100085F0100082F
:10013000DFF80CD000F018F800480047610500080F
:10014000980400200648804706480047FEE7FEE77F
:10015000FEE7FEE7FEE7FEE7FEE7FEE7FEE7FEE777
:10016000D101000831010008064C074D06E0E068A7
:1001700040F0010394E8070098471034AC42F6D3EE
:10018000FFF7DAFF400700086007000800BFFEE73E
:10019000704700BFFEE700BFFEE7704710B50028BC
:1001A00007DA0A07140E054A00F00F031B1FD45488
:1001B00003E00A07130E024A135410BD18ED00E0C5
:1001C00000E400E07047704710B500F0FDF810BD86
:1001D00010B51048006840F470000E4908600E48E1
:1001E000006840F001000C49086000204860C862C7
:1001F0000846006809490840074908604FF41F0095
:1002000088600846006820F48020086000F06CFADE
:1002100010BD000088ED00E000100240FFFFF6FE78
:1002200000BFFEE702E008C8121F08C1002AFAD189
:1002300070477047002001E001C1121F002AFBD166
:10024000704710B500F040F8002000F087F800215A
:10025000084600F095F8002000F064F8002000F057
:100260003DF847F6F0720121002000F001F810BDC2
:1002700090B921B1012905D002290BD106E0114B1B
:100280001A6008E00F4B1B1D1A6004E00D4B083389
:100290001A6000E000BF13E021B1012906D0022955
:1002A0000CD107E0074B0C331A6008E0054B103304
:1002B0001A6004E0034B14331A6000E000BF00BF73
:1002C000704700000874004010B540F21D4000F077
:1002D00073F940F21D4000F05FF910BD30B90749D5
:1002E000096841F00101054A116005E00349096808
:1002F00041F48031014A11607047000000740040F1
:1003000010B5102303220021014800F0A1F810BD10
:100310000008014010B500F017F8FFF7F1FFFFF7F4
:1003200090FF10BD30B90749096821F00201054A64
:10033000116005E00349096821F40031014A1160A8
:10034000704700000074004010B540F2026000F0F9
:1003500013F940F21D7000F00FF910BD30B90749D4
:10036000096821F00401054A116005E003490968A4
:1003700021F48021014A11607047000000740040A0
:1003800050B90B4A126822F0C002094B1A601A4693
:1003900012680A431A600AE0054A126822F4400211
:1003A000034B1A601A46126842EA01421A6070470B
:1003B000007400400349086000BF02490968002931
:1003C000FBD17047000000200448006820B10348BA
:1003D0000068401E014908607047000000000020CE
:1003E00010B504460B4931F8140000F0C5F80A496D
:1003F00051F82430094951F824000322102100F05B
:1004000027F8054850F82400044951F824104861A1
:1004100010BD000048000020180000200800002047
:10042000034951F82010034A52F8202051617047C7
:100430001800002008000020034951F82010034A4A
:1004400052F8202011617047180000200800002099
:10045000F0B50C4616460025002204F00F0504F006
:10046000100747B1042E05D145F00305C76B1F43A4
:10047000C76300E03543002118E001278F401F408B
:1004800097B102684FEA810C0F2707FA0CF7BA43BD
:100490008F0005FA07F73A43282C01D1436102E0A7
:1004A000482C00D1036102604F1CB9B20829E4D383
:1004B00008211CE001278F401F40B7B14268A1F11D
:1004C00008074FEA870C0F2707FA0CF7BA43A1F188
:1004D0000807BF0005FA07F73A43282C01D143610A
:1004E00002E0482C00D1036142604F1CB9B21029D0
:1004F000E0D3F0BD70B50446002520E04FF4C8708D
:10050000FFF758FF0020FFF797FF0120FFF794FF48
:100510000220FFF791FF0320FFF78EFF4FF4C87012
:10052000FFF748FF0020FFF77BFF0120FFF778FF70
:100530000220FFF775FF0320FFF772FF6D1CA54235
:10054000DCDB70BD10B50020FFF74AFF0120FFF78C
:1005500047FF0220FFF744FF0320FFF741FF10BDD4
:10056000FFF7F0FF00F0C4F80120FFF7C3FFFFF72B
:10057000D1FE00BFFEE70000064A02EB90110968B9
:1005800000F01F0301229A401143024B03EB90122B
:100590001160704700100240064A02EB9011096892
:1005A00000F01F0301229A409143024B03EB90128B
:1005B0001160704700100240064A02EB9011096872
:1005C00000F01F0301229A401143024B03EB9012EB
:1005D0001160704700100240002000213E4A12685E
:1005E00042F480323C4B1A6000BF401C3A4A126809
:1005F00002F4003111B9B0F5006FF6D1364A126835
:1006000002F400320AB900BFFEE7334AD26942F071
:100610008052314BDA61314A126842F440422F4B2A
:100620001A602D4A52682C4B5A601A4652685A601A
:100630001A46526842F480625A601A46526822F49E
:1006400040325A601A46526842F440325A601A46A2
:100650005268234B1A40204B5A601A465268214B6D
:100660001A431D4B5A601A46126842F080721A6093
:1006700000BF194A126802F00072002AF9D0174A26
:10068000126842F48032154B1A6000BF134A526858
:1006900002F48032002AF9D0104A126842F4003283
:1006A0000E4B1A6000BF0D4A526802F40032002A55
:1006B000F9D0094A526822F00302074B5A601A46E1
:1006C000526842F002025A6000BF034A526802F0C8
:1006D0000802002AF9D07047001002400070004064
:1006E000FFFFC3B70000340810B5FFF775FF10BD5A
:1006F00010B5124800684FF47A71B0FBF1F4601E37
:10070000B0F1807F01D301200FE0601E4FF0E021A7
:1007100048610F214FF0FF30FFF740FD00204FF000
:10072000E021886107200861002008B100BFFEE7D2
:100730000021481EFFF732FD10BD0000040000201C
:100740006007000800000020940000002402000858
:10075000F40700089400002004040000340200089C
:1007600000000000000E2707001C0140001C014093
:10077000001C0140001C01400100000002000000BC
:1007800004000000080000000E061107000200002F
:100790000400000000040000080000000008014000
:1007A00000080140020602060706070607060706BC
:1007B0000008014000100140001C0140001C0140E5
:1007C00001000000002000002000000010000000D8
:1007D00002060406070607060100000000200000CC
:1007E000200000001000000000020505000D0504B7
:0407F0000628170AB6
:0400000508000131BD
:00000001FF
